{
  "contractName": "BountyService",
  "abi": [
    {
      "constant": true,
      "inputs": [
        {
          "name": "",
          "type": "uint256"
        },
        {
          "name": "",
          "type": "uint256"
        }
      ],
      "name": "bountyReportMap",
      "outputs": [
        {
          "name": "",
          "type": "string"
        }
      ],
      "payable": false,
      "stateMutability": "view",
      "type": "function"
    },
    {
      "constant": true,
      "inputs": [],
      "name": "bountyIdCounter",
      "outputs": [
        {
          "name": "",
          "type": "uint256"
        }
      ],
      "payable": false,
      "stateMutability": "view",
      "type": "function"
    },
    {
      "constant": true,
      "inputs": [
        {
          "name": "",
          "type": "address"
        }
      ],
      "name": "developerMap",
      "outputs": [
        {
          "name": "",
          "type": "uint256"
        }
      ],
      "payable": false,
      "stateMutability": "view",
      "type": "function"
    },
    {
      "constant": true,
      "inputs": [],
      "name": "owner",
      "outputs": [
        {
          "name": "",
          "type": "address"
        }
      ],
      "payable": false,
      "stateMutability": "view",
      "type": "function"
    },
    {
      "constant": true,
      "inputs": [
        {
          "name": "",
          "type": "bytes32"
        },
        {
          "name": "",
          "type": "uint256"
        }
      ],
      "name": "targetBountyMap",
      "outputs": [
        {
          "name": "",
          "type": "uint256"
        }
      ],
      "payable": false,
      "stateMutability": "view",
      "type": "function"
    },
    {
      "constant": true,
      "inputs": [
        {
          "name": "",
          "type": "uint256"
        }
      ],
      "name": "developers",
      "outputs": [
        {
          "name": "id",
          "type": "uint256"
        },
        {
          "name": "addr",
          "type": "address"
        },
        {
          "name": "name",
          "type": "string"
        }
      ],
      "payable": false,
      "stateMutability": "view",
      "type": "function"
    },
    {
      "constant": true,
      "inputs": [
        {
          "name": "",
          "type": "uint256"
        },
        {
          "name": "",
          "type": "uint256"
        }
      ],
      "name": "bountyHunterReportMap",
      "outputs": [
        {
          "name": "",
          "type": "address"
        }
      ],
      "payable": false,
      "stateMutability": "view",
      "type": "function"
    },
    {
      "inputs": [],
      "payable": false,
      "stateMutability": "nonpayable",
      "type": "constructor"
    },
    {
      "payable": true,
      "stateMutability": "payable",
      "type": "fallback"
    },
    {
      "constant": false,
      "inputs": [
        {
          "name": "_name",
          "type": "string"
        }
      ],
      "name": "createDeveloper",
      "outputs": [],
      "payable": false,
      "stateMutability": "nonpayable",
      "type": "function"
    },
    {
      "constant": false,
      "inputs": [
        {
          "name": "_developerId",
          "type": "uint256"
        },
        {
          "name": "_targetId",
          "type": "bytes32"
        },
        {
          "name": "_bountyName",
          "type": "string"
        },
        {
          "name": "_bountyDescription",
          "type": "string"
        },
        {
          "name": "_bountyLink",
          "type": "string"
        }
      ],
      "name": "createBounty",
      "outputs": [],
      "payable": true,
      "stateMutability": "payable",
      "type": "function"
    },
    {
      "constant": false,
      "inputs": [
        {
          "name": "_bountyId",
          "type": "uint256"
        },
        {
          "name": "_report",
          "type": "string"
        }
      ],
      "name": "submitBountyReport",
      "outputs": [],
      "payable": false,
      "stateMutability": "nonpayable",
      "type": "function"
    },
    {
      "constant": true,
      "inputs": [
        {
          "name": "_bountyId",
          "type": "uint256"
        }
      ],
      "name": "getReportsforBounty",
      "outputs": [
        {
          "name": "",
          "type": "string"
        }
      ],
      "payable": false,
      "stateMutability": "view",
      "type": "function"
    },
    {
      "constant": false,
      "inputs": [
        {
          "name": "_bountyId",
          "type": "uint256"
        },
        {
          "name": "_bountyHunter",
          "type": "address"
        }
      ],
      "name": "approveBountyHunter",
      "outputs": [],
      "payable": false,
      "stateMutability": "nonpayable",
      "type": "function"
    },
    {
      "constant": true,
      "inputs": [
        {
          "name": "_bountyId",
          "type": "uint256"
        }
      ],
      "name": "getApprovedBountyHunters",
      "outputs": [
        {
          "name": "",
          "type": "address[]"
        }
      ],
      "payable": false,
      "stateMutability": "view",
      "type": "function"
    },
    {
      "constant": false,
      "inputs": [
        {
          "name": "_bountyId",
          "type": "uint256"
        },
        {
          "name": "_developerId",
          "type": "uint256"
        }
      ],
      "name": "releaseBounty",
      "outputs": [],
      "payable": false,
      "stateMutability": "nonpayable",
      "type": "function"
    },
    {
      "constant": false,
      "inputs": [
        {
          "name": "_bountyId",
          "type": "uint256"
        },
        {
          "name": "_developerId",
          "type": "uint256"
        }
      ],
      "name": "closeBounty",
      "outputs": [],
      "payable": false,
      "stateMutability": "nonpayable",
      "type": "function"
    },
    {
      "constant": true,
      "inputs": [
        {
          "name": "_bountyId",
          "type": "uint256"
        }
      ],
      "name": "getBountyStatus",
      "outputs": [
        {
          "name": "",
          "type": "bool"
        }
      ],
      "payable": false,
      "stateMutability": "view",
      "type": "function"
    },
    {
      "constant": true,
      "inputs": [
        {
          "name": "_bountyId",
          "type": "uint256"
        }
      ],
      "name": "getBountyValue",
      "outputs": [
        {
          "name": "",
          "type": "uint256"
        }
      ],
      "payable": false,
      "stateMutability": "view",
      "type": "function"
    }
  ],
  "bytecode": "0x60806040523480156200001157600080fd5b50336000806101000a81548173ffffffffffffffffffffffffffffffffffffffff021916908373ffffffffffffffffffffffffffffffffffffffff160217905550600280548091906001016200006891906200006f565b50620001b0565b8154818355818111156200009f576005028160050283600052602060002091820191016200009e9190620000a4565b5b505050565b6200011691905b8082111562000112576000808201600090556001820160006101000a81549073ffffffffffffffffffffffffffffffffffffffff0219169055600282016000620000f6919062000119565b60048201600062000108919062000165565b50600501620000ab565b5090565b90565b50805460018160011615610100020316600290046000825580601f1062000141575062000162565b601f01602090049060005260206000209081019062000161919062000188565b5b50565b508054600082559060005260206000209081019062000185919062000188565b50565b620001ad91905b80821115620001a95760008160009055506001016200018f565b5090565b90565b611d1480620001c06000396000f3006080604052600436106100f1576000357c0100000000000000000000000000000000000000000000000000000000900463ffffffff1680630f39a74f146100f35780631e53302514610166578063381c904b14610216578063398469021461024d578063621335541461028e578063666980b5146102db57806370e16d7e14610306578063764b7ac91461035d57806380191dee14610394578063880dad4d1461043a5780638da5cb5b146104bc57806399ba7f9614610513578063a95c963b14610613578063bc8f587214610662578063e74205f6146106cb578063eff25cd614610710578063f0a0ab84146107f0575b005b3480156100ff57600080fd5b5061016460048036038101908080359060200190929190803590602001908201803590602001908080601f0160208091040260200160405190810160405280939291908181526020018383808284378201915050505050509192919290505050610867565b005b34801561017257600080fd5b5061019b60048036038101908080359060200190929190803590602001909291905050506109ea565b6040518080602001828103825283818151815260200191508051906020019080838360005b838110156101db5780820151818401526020810190506101c0565b50505050905090810190601f1680156102085780820380516001836020036101000a031916815260200191505b509250505060405180910390f35b34801561022257600080fd5b5061024b6004803603810190808035906020019092919080359060200190929190505050610ab2565b005b34801561025957600080fd5b5061027860048036038101908080359060200190929190505050610c55565b6040518082815260200191505060405180910390f35b34801561029a57600080fd5b506102d960048036038101908080359060200190929190803573ffffffffffffffffffffffffffffffffffffffff169060200190929190505050610c7f565b005b3480156102e757600080fd5b506102f0610d81565b6040518082815260200191505060405180910390f35b34801561031257600080fd5b50610347600480360381019080803573ffffffffffffffffffffffffffffffffffffffff169060200190929190505050610d87565b6040518082815260200191505060405180910390f35b34801561036957600080fd5b506103926004803603810190808035906020019092919080359060200190929190505050610d9f565b005b3480156103a057600080fd5b506103bf60048036038101908080359060200190929190505050610ff6565b6040518080602001828103825283818151815260200191508051906020019080838360005b838110156103ff5780820151818401526020810190506103e4565b50505050905090810190601f16801561042c5780820380516001836020036101000a031916815260200191505b509250505060405180910390f35b34801561044657600080fd5b5061046560048036038101908080359060200190929190505050611163565b6040518080602001828103825283818151815260200191508051906020019060200280838360005b838110156104a857808201518184015260208101905061048d565b505050509050019250505060405180910390f35b3480156104c857600080fd5b506104d1611211565b604051808273ffffffffffffffffffffffffffffffffffffffff1673ffffffffffffffffffffffffffffffffffffffff16815260200191505060405180910390f35b610611600480360381019080803590602001909291908035600019169060200190929190803590602001908201803590602001908080601f0160208091040260200160405190810160405280939291908181526020018383808284378201915050505050509192919290803590602001908201803590602001908080601f0160208091040260200160405190810160405280939291908181526020018383808284378201915050505050509192919290803590602001908201803590602001908080601f0160208091040260200160405190810160405280939291908181526020018383808284378201915050505050509192919290505050611236565b005b34801561061f57600080fd5b5061064c600480360381019080803560001916906020019092919080359060200190929190505050611560565b6040518082815260200191505060405180910390f35b34801561066e57600080fd5b506106c9600480360381019080803590602001908201803590602001908080601f0160208091040260200160405190810160405280939291908181526020018383808284378201915050505050509192919290505050611590565b005b3480156106d757600080fd5b506106f66004803603810190808035906020019092919050505061175d565b604051808215151515815260200191505060405180910390f35b34801561071c57600080fd5b5061073b60048036038101908080359060200190929190505050611794565b604051808481526020018373ffffffffffffffffffffffffffffffffffffffff1673ffffffffffffffffffffffffffffffffffffffff16815260200180602001828103825283818151815260200191508051906020019080838360005b838110156107b3578082015181840152602081019050610798565b50505050905090810190601f1680156107e05780820380516001836020036101000a031916815260200191505b5094505050505060405180910390f35b3480156107fc57600080fd5b506108256004803603810190808035906020019092919080359060200190929190505050611885565b604051808273ffffffffffffffffffffffffffffffffffffffff1673ffffffffffffffffffffffffffffffffffffffff16815260200191505060405180910390f35b816000151560048281548110151561087b57fe5b90600052602060002090600a020160070160009054906101000a900460ff1615151415156108a857600080fd5b600660008481526020019081526020016000208290806001815401808255809150509060018203906000526020600020016000909192909190915090805190602001906108f69291906119e8565b5050600760008481526020019081526020016000203390806001815401808255809150509060018203906000526020600020016000909192909190916101000a81548173ffffffffffffffffffffffffffffffffffffffff021916908373ffffffffffffffffffffffffffffffffffffffff16021790555050600060048481548110151561098057fe5b90600052602060002090600a020160090160003373ffffffffffffffffffffffffffffffffffffffff1673ffffffffffffffffffffffffffffffffffffffff16815260200190815260200160002060006101000a81548160ff021916908315150217905550505050565b600660205281600052604060002081815481101515610a0557fe5b90600052602060002001600091509150508054600181600116156101000203166002900480601f016020809104026020016040519081016040528092919081815260200182805460018160011615610100020316600290048015610aaa5780601f10610a7f57610100808354040283529160200191610aaa565b820191906000526020600020905b815481529060010190602001808311610a8d57829003601f168201915b505050505081565b8080600282815481101515610ac357fe5b906000526020600020906005020160000154141515610ae157600080fd5b600281815481101515610af057fe5b906000526020600020906005020160010160009054906101000a900473ffffffffffffffffffffffffffffffffffffffff1673ffffffffffffffffffffffffffffffffffffffff163373ffffffffffffffffffffffffffffffffffffffff16141515610b5b57600080fd5b8260001515600482815481101515610b6f57fe5b90600052602060002090600a020160070160009054906101000a900460ff161515141515610b9c57600080fd5b3373ffffffffffffffffffffffffffffffffffffffff16600485815481101515610bc257fe5b90600052602060002090600a020160020160009054906101000a900473ffffffffffffffffffffffffffffffffffffffff1673ffffffffffffffffffffffffffffffffffffffff16141515610c1657600080fd5b6001600485815481101515610c2757fe5b90600052602060002090600a020160070160006101000a81548160ff02191690831515021790555050505050565b6000600482815481101515610c6657fe5b90600052602060002090600a0201600601549050919050565b3373ffffffffffffffffffffffffffffffffffffffff16600483815481101515610ca557fe5b90600052602060002090600a020160020160009054906101000a900473ffffffffffffffffffffffffffffffffffffffff1673ffffffffffffffffffffffffffffffffffffffff16141515610cf957600080fd5b600482815481101515610d0857fe5b90600052602060002090600a02016008018190806001815401808255809150509060018203906000526020600020016000909192909190916101000a81548173ffffffffffffffffffffffffffffffffffffffff021916908373ffffffffffffffffffffffffffffffffffffffff160217905550505050565b60035481565b60016020528060005260406000206000915090505481565b6000808280600282815481101515610db357fe5b906000526020600020906005020160000154141515610dd157600080fd5b600281815481101515610de057fe5b906000526020600020906005020160010160009054906101000a900473ffffffffffffffffffffffffffffffffffffffff1673ffffffffffffffffffffffffffffffffffffffff163373ffffffffffffffffffffffffffffffffffffffff16141515610e4b57600080fd5b3373ffffffffffffffffffffffffffffffffffffffff16600486815481101515610e7157fe5b90600052602060002090600a020160020160009054906101000a900473ffffffffffffffffffffffffffffffffffffffff1673ffffffffffffffffffffffffffffffffffffffff16141515610ec557600080fd5b610f12600486815481101515610ed757fe5b90600052602060002090600a020160060154600487815481101515610ef857fe5b90600052602060002090600a0201600801805490506118d2565b9250600091505b600485815481101515610f2857fe5b90600052602060002090600a020160080180549050821015610fef57600485815481101515610f5357fe5b90600052602060002090600a020160080182815481101515610f7157fe5b9060005260206000200160009054906101000a900473ffffffffffffffffffffffffffffffffffffffff1673ffffffffffffffffffffffffffffffffffffffff166108fc849081150290604051600060405180830381858888f19350505050158015610fe1573d6000803e3d6000fd5b508180600101925050610f19565b5050505050565b60608060008090505b60066000858152602001908152602001600020805490508110156111595761106c611029836118ed565b6110676040805190810160405280600881526020017f235245504f5254230000000000000000000000000000000000000000000000008152506118ed565b61191b565b915061114a61107a836118ed565b611145600660008881526020019081526020016000208481548110151561109d57fe5b906000526020600020018054600181600116156101000203166002900480601f01602080910402602001604051908101604052809291908181526020018280546001816001161561010002031660029004801561113b5780601f106111105761010080835404028352916020019161113b565b820191906000526020600020905b81548152906001019060200180831161111e57829003601f168201915b50505050506118ed565b61191b565b91508080600101915050610fff565b8192505050919050565b606060048281548110151561117457fe5b90600052602060002090600a020160080180548060200260200160405190810160405280929190818152602001828054801561120557602002820191906000526020600020905b8160009054906101000a900473ffffffffffffffffffffffffffffffffffffffff1673ffffffffffffffffffffffffffffffffffffffff16815260200190600101908083116111bb575b50505050509050919050565b6000809054906101000a900473ffffffffffffffffffffffffffffffffffffffff1681565b61123e611a68565b858060028281548110151561124f57fe5b90600052602060002090600502016000015414151561126d57600080fd5b60028181548110151561127c57fe5b906000526020600020906005020160010160009054906101000a900473ffffffffffffffffffffffffffffffffffffffff1673ffffffffffffffffffffffffffffffffffffffff163373ffffffffffffffffffffffffffffffffffffffff161415156112e757600080fd5b610120604051908101604052806003548152602001876000191681526020013373ffffffffffffffffffffffffffffffffffffffff16815260200186815260200185815260200184815260200134815260200160001515815260200160006040519080825280602002602001820160405280156113735781602001602082028038833980820191505090505b50815250915060056000836020015160001916600019168152602001908152602001600020826000015190806001815401808255809150509060018203906000526020600020016000909192909190915055506002878154811015156113d557fe5b9060005260206000209060050201600401826000015190806001815401808255809150509060018203906000526020600020016000909192909190915055506004829080600181540180825580915050906001820390600052602060002090600a020160009091929091909150600082015181600001556020820151816001019060001916905560408201518160020160006101000a81548173ffffffffffffffffffffffffffffffffffffffff021916908373ffffffffffffffffffffffffffffffffffffffff16021790555060608201518160030190805190602001906114bf929190611ad0565b5060808201518160040190805190602001906114dc929190611ad0565b5060a08201518160050190805190602001906114f9929190611ad0565b5060c0820151816006015560e08201518160070160006101000a81548160ff021916908315150217905550610100820151816008019080519060200190611541929190611b50565b5050505060036000815480929190600101919050555050505050505050565b60056020528160005260406000208181548110151561157b57fe5b90600052602060002001600091509150505481565b611598611bda565b6000600160003373ffffffffffffffffffffffffffffffffffffffff1673ffffffffffffffffffffffffffffffffffffffff168152602001908152602001600020541415156115e657600080fd5b60806040519081016040528060028054905081526020013373ffffffffffffffffffffffffffffffffffffffff168152602001838152602001600060405190808252806020026020018201604052801561164f5781602001602082028038833980820191505090505b508152509050600281908060018154018082558091505090600182039060005260206000209060050201600090919290919091506000820151816000015560208201518160010160006101000a81548173ffffffffffffffffffffffffffffffffffffffff021916908373ffffffffffffffffffffffffffffffffffffffff16021790555060408201518160020190805190602001906116f0929190611ad0565b50606082015181600401908051906020019061170d929190611c19565b505050508060000151600160003373ffffffffffffffffffffffffffffffffffffffff1673ffffffffffffffffffffffffffffffffffffffff168152602001908152602001600020819055505050565b600060048281548110151561176e57fe5b90600052602060002090600a020160070160009054906101000a900460ff169050919050565b6002818154811015156117a357fe5b90600052602060002090600502016000915090508060000154908060010160009054906101000a900473ffffffffffffffffffffffffffffffffffffffff1690806002018054600181600116156101000203166002900480601f01602080910402602001604051908101604052809291908181526020018280546001816001161561010002031660029004801561187b5780601f106118505761010080835404028352916020019161187b565b820191906000526020600020905b81548152906001019060200180831161185e57829003601f168201915b5050505050905083565b6007602052816000526040600020818154811015156118a057fe5b906000526020600020016000915091509054906101000a900473ffffffffffffffffffffffffffffffffffffffff1681565b60008082848115156118e057fe5b0490508091505092915050565b6118f5611c66565b600060208301905060408051908101604052808451815260200182815250915050919050565b606080600083600001518560000151016040519080825280601f01601f19166020018201604052801561195d5781602001602082028038833980820191505090505b509150602082019050611979818660200151876000015161199d565b611992856000015182018560200151866000015161199d565b819250505092915050565b60005b6020821015156119c557825184526020840193506020830192506020820391506119a0565b6001826020036101000a0390508019835116818551168181178652505050505050565b828054600181600116156101000203166002900490600052602060002090601f016020900481019282601f10611a2957805160ff1916838001178555611a57565b82800160010185558215611a57579182015b82811115611a56578251825591602001919060010190611a3b565b5b509050611a649190611c80565b5090565b610120604051908101604052806000815260200160008019168152602001600073ffffffffffffffffffffffffffffffffffffffff16815260200160608152602001606081526020016060815260200160008152602001600015158152602001606081525090565b828054600181600116156101000203166002900490600052602060002090601f016020900481019282601f10611b1157805160ff1916838001178555611b3f565b82800160010185558215611b3f579182015b82811115611b3e578251825591602001919060010190611b23565b5b509050611b4c9190611c80565b5090565b828054828255906000526020600020908101928215611bc9579160200282015b82811115611bc85782518260006101000a81548173ffffffffffffffffffffffffffffffffffffffff021916908373ffffffffffffffffffffffffffffffffffffffff16021790555091602001919060010190611b70565b5b509050611bd69190611ca5565b5090565b60806040519081016040528060008152602001600073ffffffffffffffffffffffffffffffffffffffff16815260200160608152602001606081525090565b828054828255906000526020600020908101928215611c55579160200282015b82811115611c54578251825591602001919060010190611c39565b5b509050611c629190611c80565b5090565b604080519081016040528060008152602001600081525090565b611ca291905b80821115611c9e576000816000905550600101611c86565b5090565b90565b611ce591905b80821115611ce157600081816101000a81549073ffffffffffffffffffffffffffffffffffffffff021916905550600101611cab565b5090565b905600a165627a7a72305820f854b14c265ed6b27fe01eb305596562cd58dffd9047a9a55dd9ba103e774b640029",
  "source": "pragma solidity ^0.4.23;\n\nimport \"./StringUtils.sol\";\nimport \"./SafeMath.sol\";\n\n/*\n* Test createBounty Params: 1, \"0xef55bfac4228981e850936aaf042951f7b146e41\", \"xiaxia\", \"Test bug description for Maple\", \"http://dailyhive.com\"\n* Test submitReport Params: 0, \"Test Submit Report: Look at 000\"\n*/\ncontract BountyService {\n\n    struct Bounty {\n        uint bountyId;\n        bytes32 targetId;           //Target of Id of the bounty (eg. Project)\n        address developerAddress;\n        string bountyName;\n        string bountyDescription;\n        string bountyLink;          //Attach link that further describes the bounty\n        uint bountyValue;\n        bool isComplete;\n        address[] approvedHunterMap;                    //Hunters that are selected to be compensated\n        mapping(address => bool) compensatedHunterMap;  //Hunters who will have been compensated will be mapped as true\n        \n    }\n\n    struct Developer {\n        uint id;\n        address addr;\n        string name;\n        mapping(uint => uint) BountyIdIndex;    // mapping of bounty id to index in Developer.bountyIds\n        uint[] bountyIds;                       // the bounties belonging to this developer\n    }\n    \n\n    address public owner;\n    mapping(address => uint) public developerMap;       // address => id\n    Developer[] public developers;                      // indexed by developer id\n    uint public bountyIdCounter;                        // Helps to give each bounty a unique uint ID\n    Bounty[] bountyCollection;                          // Indexed by BountyId\n\n    mapping(bytes32 => uint[]) public targetBountyMap;      //Pass the target ID and returns the bountyId's associated with it\n    mapping(uint => string[]) public bountyReportMap;       //Map all the bounty reports to its bounty\n    mapping(uint => address[]) public bountyHunterReportMap; //Map to keep track of bounty Hunters that submit reports. To be used in conjunction with bountyReportMap\n\n    modifier devRestricted(uint _developerId) {\n        require(developers[_developerId].id == _developerId); // check that developer exists\n        require(msg.sender == developers[_developerId].addr);\n        _;\n    }\n    \n    modifier bountyStillLive(uint _bountyId) {\n        require(bountyCollection[_bountyId].isComplete == false);\n        _;\n    }\n\n    constructor() public {\n        owner = msg.sender;\n\n        // reserve 0\n        developers.length++;\n        //bounties.push(0);\n    }\n\n    function createDeveloper(string _name) public {\n        require(developerMap[msg.sender] == 0); // require that this account is not already a developer\n\n        Developer memory newDeveloper = Developer({\n            id: developers.length,\n            addr: msg.sender,\n            name: _name,\n            bountyIds: new uint[](0)\n            });\n\n        developers.push(newDeveloper);\n        developerMap[msg.sender] = newDeveloper.id;\n    }\n    \n    function createBounty(uint _developerId, bytes32 _targetId, string _bountyName, string _bountyDescription, string _bountyLink) payable public devRestricted(_developerId){\n        \n        \n        Bounty memory newBounty = Bounty({\n            bountyId: bountyIdCounter,\n            targetId: _targetId,\n            developerAddress: msg.sender,\n            bountyName: _bountyName,\n            bountyDescription: _bountyDescription,\n            bountyLink: _bountyLink,\n            bountyValue: msg.value,\n            isComplete: false,\n            approvedHunterMap: new address[](0)\n        });\n        \n        targetBountyMap[newBounty.targetId].push(newBounty.bountyId);\n        developers[_developerId].bountyIds.push(newBounty.bountyId);\n        bountyCollection.push(newBounty);\n        bountyIdCounter++;\n        \n    }\n    \n    function submitBountyReport(uint _bountyId, string _report) public bountyStillLive(_bountyId){\n        bountyReportMap[_bountyId].push(_report);\n        bountyHunterReportMap[_bountyId].push(msg.sender);\n        bountyCollection[_bountyId].compensatedHunterMap[msg.sender] = false;\n\n    }\n    \n    function getReportsforBounty(uint _bountyId) public view returns (string) {\n        string memory bountyConcatString;\n        for (uint i=0; i < bountyReportMap[_bountyId].length; i++) {\n            \n            bountyConcatString = strings.concat(strings.toSlice(bountyConcatString), strings.toSlice(\"#REPORT#\"));\n            bountyConcatString = strings.concat(strings.toSlice(bountyConcatString), strings.toSlice(bountyReportMap[_bountyId][i]));\n        }\n        return bountyConcatString;\n    }\n    \n    \n    //Move a BountyHunter to the approved Bounty Hunter array\n    //Perform before releasing bounty\n    function approveBountyHunter(uint _bountyId, address _bountyHunter) public{\n        require(bountyCollection[_bountyId].developerAddress == msg.sender);    //Check if it is the original developer that created this bounty\n\n        bountyCollection[_bountyId].approvedHunterMap.push(_bountyHunter);\n    }\n    \n    \n    function getApprovedBountyHunters(uint _bountyId) public view returns (address[]) {\n        return bountyCollection[_bountyId].approvedHunterMap;\n    }\n    \n    \n    // Release Bounty to bounty hunters on the approvedHunterMap array of a Bounty\n    function releaseBounty(uint _bountyId, uint _developerId) public devRestricted(_developerId) {\n        require(bountyCollection[_bountyId].developerAddress == msg.sender);    //Check if it is the original developer that created this bounty\n        \n        uint bountyShare = SafeMath.div(bountyCollection[_bountyId].bountyValue, bountyCollection[_bountyId].approvedHunterMap.length);\n        \n        for (uint i=0; i< bountyCollection[_bountyId].approvedHunterMap.length; i++) {\n            bountyCollection[_bountyId].approvedHunterMap[i].transfer(bountyShare);\n        }\n    }\n    \n    function closeBounty(uint _bountyId, uint _developerId) public devRestricted(_developerId) bountyStillLive(_bountyId) {\n        require(bountyCollection[_bountyId].developerAddress == msg.sender);\n        \n        bountyCollection[_bountyId].isComplete = true;\n    }\n    \n    \n    function getBountyStatus(uint _bountyId) public view returns (bool) {\n        return bountyCollection[_bountyId].isComplete;\n    }\n    \n    function getBountyValue(uint _bountyId) public view returns (uint) {\n        return bountyCollection[_bountyId].bountyValue;\n    }\n    \n\n\n\n    function() public payable { }\n}\n\n\n\n",
  "sourcePath": "/Users/AshTanz/Documents/HyperBridge/funding-protocol/smart-contracts/ethereum/contracts/BountyService.sol",
  "compiler": {
    "name": "solc",
    "version": "0.4.24+commit.e67f0147.Emscripten.clang"
  },
  "schemaVersion": "2.0.0",
  "updatedAt": "2018-06-21T19:19:49.968Z"
}