{
  "contractName": "Bounty",
  "abi": [
    {
      "constant": true,
      "inputs": [],
      "name": "bountyLink",
      "outputs": [
        {
          "name": "",
          "type": "string"
        }
      ],
      "payable": false,
      "stateMutability": "view",
      "type": "function"
    },
    {
      "constant": true,
      "inputs": [],
      "name": "bountyName",
      "outputs": [
        {
          "name": "",
          "type": "string"
        }
      ],
      "payable": false,
      "stateMutability": "view",
      "type": "function"
    },
    {
      "constant": true,
      "inputs": [],
      "name": "isComplete",
      "outputs": [
        {
          "name": "",
          "type": "bool"
        }
      ],
      "payable": false,
      "stateMutability": "view",
      "type": "function"
    },
    {
      "constant": true,
      "inputs": [],
      "name": "bountyValue",
      "outputs": [
        {
          "name": "",
          "type": "uint256"
        }
      ],
      "payable": false,
      "stateMutability": "view",
      "type": "function"
    },
    {
      "constant": true,
      "inputs": [],
      "name": "bountyDescription",
      "outputs": [
        {
          "name": "",
          "type": "string"
        }
      ],
      "payable": false,
      "stateMutability": "view",
      "type": "function"
    },
    {
      "inputs": [
        {
          "name": "_bountyName",
          "type": "string"
        },
        {
          "name": "_bountyDescription",
          "type": "string"
        },
        {
          "name": "_bountyLink",
          "type": "string"
        }
      ],
      "payable": false,
      "stateMutability": "nonpayable",
      "type": "constructor"
    },
    {
      "constant": false,
      "inputs": [],
      "name": "setBountyValue",
      "outputs": [],
      "payable": true,
      "stateMutability": "payable",
      "type": "function"
    },
    {
      "constant": false,
      "inputs": [
        {
          "name": "_report",
          "type": "string"
        },
        {
          "name": "_link",
          "type": "string"
        }
      ],
      "name": "makeReport",
      "outputs": [],
      "payable": false,
      "stateMutability": "nonpayable",
      "type": "function"
    },
    {
      "constant": true,
      "inputs": [
        {
          "name": "_bountyHunter",
          "type": "address"
        }
      ],
      "name": "viewBountyReport",
      "outputs": [
        {
          "name": "",
          "type": "string"
        }
      ],
      "payable": false,
      "stateMutability": "view",
      "type": "function"
    },
    {
      "constant": false,
      "inputs": [
        {
          "name": "_bountyHunter",
          "type": "address"
        }
      ],
      "name": "releaseBounty",
      "outputs": [],
      "payable": false,
      "stateMutability": "nonpayable",
      "type": "function"
    }
  ],
  "bytecode": "0x608060405234801561001057600080fd5b50604051610cb2380380610cb2833981018060405281019080805182019291906020018051820192919060200180518201929190505050826001908051906020019061005d9291906100ef565b5081600290805190602001906100749291906100ef565b50806003908051906020019061008b9291906100ef565b506000600560006101000a81548160ff021916908315150217905550336000806101000a81548173ffffffffffffffffffffffffffffffffffffffff021916908373ffffffffffffffffffffffffffffffffffffffff160217905550505050610194565b828054600181600116156101000203166002900490600052602060002090601f016020900481019282601f1061013057805160ff191683800117855561015e565b8280016001018555821561015e579182015b8281111561015d578251825591602001919060010190610142565b5b50905061016b919061016f565b5090565b61019191905b8082111561018d576000816000905550600101610175565b5090565b90565b610b0f806101a36000396000f300608060405260043610610099576000357c0100000000000000000000000000000000000000000000000000000000900463ffffffff16806367905c0b1461009e5780637c0099541461014d5780638ac68dd8146101dd5780638d66f34814610299578063a04c7e8a146102a3578063b2fa1c9e14610333578063b3752fd014610362578063b7f9d6f71461038d578063f2f80248146103d0575b600080fd5b3480156100aa57600080fd5b5061014b600480360381019080803590602001908201803590602001908080601f0160208091040260200160405190810160405280939291908181526020018383808284378201915050505050509192919290803590602001908201803590602001908080601f0160208091040260200160405190810160405280939291908181526020018383808284378201915050505050509192919290505050610460565b005b34801561015957600080fd5b506101626105a7565b6040518080602001828103825283818151815260200191508051906020019080838360005b838110156101a2578082015181840152602081019050610187565b50505050905090810190601f1680156101cf5780820380516001836020036101000a031916815260200191505b509250505060405180910390f35b3480156101e957600080fd5b5061021e600480360381019080803573ffffffffffffffffffffffffffffffffffffffff169060200190929190505050610645565b6040518080602001828103825283818151815260200191508051906020019080838360005b8381101561025e578082015181840152602081019050610243565b50505050905090810190601f16801561028b5780820380516001836020036101000a031916815260200191505b509250505060405180910390f35b6102a1610726565b005b3480156102af57600080fd5b506102b861078a565b6040518080602001828103825283818151815260200191508051906020019080838360005b838110156102f85780820151818401526020810190506102dd565b50505050905090810190601f1680156103255780820380516001836020036101000a031916815260200191505b509250505060405180910390f35b34801561033f57600080fd5b50610348610828565b604051808215151515815260200191505060405180910390f35b34801561036e57600080fd5b5061037761083b565b6040518082815260200191505060405180910390f35b34801561039957600080fd5b506103ce600480360381019080803573ffffffffffffffffffffffffffffffffffffffff169060200190929190505050610841565b005b3480156103dc57600080fd5b506103e56108e8565b6040518080602001828103825283818151815260200191508051906020019080838360005b8381101561042557808201518184015260208101905061040a565b50505050905090810190601f1680156104525780820380516001836020036101000a031916815260200191505b509250505060405180910390f35b610468610986565b6060604051908101604052803373ffffffffffffffffffffffffffffffffffffffff1681526020018481526020018381525090506006819080600181540180825580915050906001820390600052602060002090600302016000909192909190915060008201518160000160006101000a81548173ffffffffffffffffffffffffffffffffffffffff021916908373ffffffffffffffffffffffffffffffffffffffff160217905550602082015181600101908051906020019061052d9291906109be565b50604082015181600201908051906020019061054a9291906109be565b5050505082600760003373ffffffffffffffffffffffffffffffffffffffff1673ffffffffffffffffffffffffffffffffffffffff16815260200190815260200160002090805190602001906105a1929190610a3e565b50505050565b60038054600181600116156101000203166002900480601f01602080910402602001604051908101604052809291908181526020018280546001816001161561010002031660029004801561063d5780601f106106125761010080835404028352916020019161063d565b820191906000526020600020905b81548152906001019060200180831161062057829003601f168201915b505050505081565b6060600760008373ffffffffffffffffffffffffffffffffffffffff1673ffffffffffffffffffffffffffffffffffffffff1681526020019081526020016000208054600181600116156101000203166002900480601f01602080910402602001604051908101604052809291908181526020018280546001816001161561010002031660029004801561071a5780601f106106ef5761010080835404028352916020019161071a565b820191906000526020600020905b8154815290600101906020018083116106fd57829003601f168201915b50505050509050919050565b6000809054906101000a900473ffffffffffffffffffffffffffffffffffffffff1673ffffffffffffffffffffffffffffffffffffffff163373ffffffffffffffffffffffffffffffffffffffff1614151561078157600080fd5b34600481905550565b60018054600181600116156101000203166002900480601f0160208091040260200160405190810160405280929190818152602001828054600181600116156101000203166002900480156108205780601f106107f557610100808354040283529160200191610820565b820191906000526020600020905b81548152906001019060200180831161080357829003601f168201915b505050505081565b600560009054906101000a900460ff1681565b60045481565b6000809054906101000a900473ffffffffffffffffffffffffffffffffffffffff1673ffffffffffffffffffffffffffffffffffffffff163373ffffffffffffffffffffffffffffffffffffffff1614151561089c57600080fd5b8073ffffffffffffffffffffffffffffffffffffffff166108fc6004549081150290604051600060405180830381858888f193505050501580156108e4573d6000803e3d6000fd5b5050565b60028054600181600116156101000203166002900480601f01602080910402602001604051908101604052809291908181526020018280546001816001161561010002031660029004801561097e5780601f106109535761010080835404028352916020019161097e565b820191906000526020600020905b81548152906001019060200180831161096157829003601f168201915b505050505081565b606060405190810160405280600073ffffffffffffffffffffffffffffffffffffffff16815260200160608152602001606081525090565b828054600181600116156101000203166002900490600052602060002090601f016020900481019282601f106109ff57805160ff1916838001178555610a2d565b82800160010185558215610a2d579182015b82811115610a2c578251825591602001919060010190610a11565b5b509050610a3a9190610abe565b5090565b828054600181600116156101000203166002900490600052602060002090601f016020900481019282601f10610a7f57805160ff1916838001178555610aad565b82800160010185558215610aad579182015b82811115610aac578251825591602001919060010190610a91565b5b509050610aba9190610abe565b5090565b610ae091905b80821115610adc576000816000905550600101610ac4565b5090565b905600a165627a7a723058201f14bb8c7da7bdac52adcc9d49aca77756b73163582cbb9a4bd365acb6a0daba0029",
  "source": "pragma solidity ^0.4.23;\n//import \"./FundingService.sol\";\n//import \"./Project.sol\";\nimport \"./SafeMath.sol\";\n\n/*Developer will set bounty (non-Smart Contract related bounty)\n* Bounty Hunter will report bug or test suggestions \n* Developer will dispense funds if report is approved \n* Test Bounty Params: \"Maple\", \"Greatest Bug In Existence\", \"http://dailyhive.com\"\n* Test Report Params: \"This is unacceptable\", \"https://hyperbridge.org/\"\n* Test Project Params: \"0xca35b7d915458ef540ade6068dfe2f44e8fa733c\", 1 , \"Blockhub\", \"This is a description of Blockhub.\", \"These are the various features of Blockhub.\", \"0xca35b7d915458ef540ade6068dfe2f44e8fa733c\", \"0xca35b7d915458ef540ade6068dfe2f44e8fa733c\", 1000000 \n* Test FUnding Service Params: \"a\", \"a\" , \"f\", 1, 1000\n*/\ncontract Bounty {\n\n    struct bountyHunter {\n        address id;\n        string report;\n        string link;\n    }   \n\n    address developer;\n    string public bountyName;\n    string public bountyDescription;\n    string public bountyLink;\n    uint public bountyValue;\n    bool public isComplete;\n    bountyHunter[] bountyHunters;\n\n    mapping(address => string) individualBountyHunterReport;\n\n    modifier devRestricted() {\n        require(msg.sender == developer);\n        _;\n    }\n    \n    \n    constructor(string _bountyName, string _bountyDescription, string _bountyLink) public {\n        bountyName = _bountyName;\n        bountyDescription = _bountyDescription;\n        bountyLink = _bountyLink;\n        isComplete = false;\n        developer = msg.sender;\n    }\n\n    function setBountyValue() public payable devRestricted{\n        bountyValue = msg.value;\n    }\n\n    function makeReport(string _report, string _link) public {\n        bountyHunter memory newBountyHunter = bountyHunter({\n            id: msg.sender,\n            report: _report,\n            link: _link\n        });\n\n        bountyHunters.push(newBountyHunter);\n        individualBountyHunterReport[msg.sender] = _report;\n    }\n    \n    function viewBountyReport(address _bountyHunter) public view returns (string) {\n        return individualBountyHunterReport[_bountyHunter];\n    }\n    \n    \n    function releaseBounty(address _bountyHunter) public devRestricted {\n        _bountyHunter.transfer(bountyValue);\n    }\n    \n    \n}",
  "sourcePath": "/Users/AshTanz/Documents/HyperBridge/funding-protocol/smart-contracts/ethereum/contracts/Bounty.sol",
  "compiler": {
    "name": "solc",
    "version": "0.4.24+commit.e67f0147.Emscripten.clang"
  },
  "schemaVersion": "2.0.0",
  "updatedAt": "2018-06-12T22:47:46.666Z"
}