{
  "contractName": "Bounty",
  "abi": [
    {
      "constant": true,
      "inputs": [],
      "name": "projectAddress",
      "outputs": [
        {
          "name": "",
          "type": "address"
        }
      ],
      "payable": false,
      "stateMutability": "view",
      "type": "function"
    },
    {
      "constant": true,
      "inputs": [],
      "name": "bountyLink",
      "outputs": [
        {
          "name": "",
          "type": "string"
        }
      ],
      "payable": false,
      "stateMutability": "view",
      "type": "function"
    },
    {
      "constant": true,
      "inputs": [],
      "name": "bountyName",
      "outputs": [
        {
          "name": "",
          "type": "string"
        }
      ],
      "payable": false,
      "stateMutability": "view",
      "type": "function"
    },
    {
      "constant": true,
      "inputs": [],
      "name": "isComplete",
      "outputs": [
        {
          "name": "",
          "type": "bool"
        }
      ],
      "payable": false,
      "stateMutability": "view",
      "type": "function"
    },
    {
      "constant": true,
      "inputs": [],
      "name": "bountyValue",
      "outputs": [
        {
          "name": "",
          "type": "uint256"
        }
      ],
      "payable": false,
      "stateMutability": "view",
      "type": "function"
    },
    {
      "constant": true,
      "inputs": [],
      "name": "bountyId",
      "outputs": [
        {
          "name": "",
          "type": "uint256"
        }
      ],
      "payable": false,
      "stateMutability": "view",
      "type": "function"
    },
    {
      "constant": true,
      "inputs": [],
      "name": "bountyDescription",
      "outputs": [
        {
          "name": "",
          "type": "string"
        }
      ],
      "payable": false,
      "stateMutability": "view",
      "type": "function"
    },
    {
      "inputs": [
        {
          "name": "_projectAddress",
          "type": "address"
        },
        {
          "name": "_bountyId",
          "type": "uint256"
        },
        {
          "name": "_bountyName",
          "type": "string"
        },
        {
          "name": "_bountyDescription",
          "type": "string"
        },
        {
          "name": "_bountyLink",
          "type": "string"
        }
      ],
      "payable": false,
      "stateMutability": "nonpayable",
      "type": "constructor"
    },
    {
      "constant": false,
      "inputs": [],
      "name": "setBountyValue",
      "outputs": [],
      "payable": true,
      "stateMutability": "payable",
      "type": "function"
    },
    {
      "constant": false,
      "inputs": [
        {
          "name": "_report",
          "type": "string"
        },
        {
          "name": "_link",
          "type": "string"
        }
      ],
      "name": "makeReport",
      "outputs": [],
      "payable": false,
      "stateMutability": "nonpayable",
      "type": "function"
    },
    {
      "constant": true,
      "inputs": [
        {
          "name": "_bountyHunter",
          "type": "address"
        }
      ],
      "name": "viewBountyReport",
      "outputs": [
        {
          "name": "",
          "type": "string"
        }
      ],
      "payable": false,
      "stateMutability": "view",
      "type": "function"
    },
    {
      "constant": false,
      "inputs": [
        {
          "name": "_bountyHunter",
          "type": "address"
        }
      ],
      "name": "releaseBounty",
      "outputs": [],
      "payable": false,
      "stateMutability": "nonpayable",
      "type": "function"
    }
  ],
  "bytecode": "0x608060405234801561001057600080fd5b50604051610df3380380610df38339810180604052810190808051906020019092919080519060200190929190805182019291906020018051820192919060200180518201929190505050846000806101000a81548173ffffffffffffffffffffffffffffffffffffffff021916908373ffffffffffffffffffffffffffffffffffffffff1602179055508360018190555082600390805190602001906100b892919061014d565b5081600490805190602001906100cf92919061014d565b5080600590805190602001906100e692919061014d565b506000600760006101000a81548160ff02191690831515021790555033600260006101000a81548173ffffffffffffffffffffffffffffffffffffffff021916908373ffffffffffffffffffffffffffffffffffffffff16021790555050505050506101f2565b828054600181600116156101000203166002900490600052602060002090601f016020900481019282601f1061018e57805160ff19168380011785556101bc565b828001600101855582156101bc579182015b828111156101bb5782518255916020019190600101906101a0565b5b5090506101c991906101cd565b5090565b6101ef91905b808211156101eb5760008160009055506001016101d3565b5090565b90565b610bf2806102016000396000f3006080604052600436106100af576000357c0100000000000000000000000000000000000000000000000000000000900463ffffffff1680633cf96af1146100b457806367905c0b1461010b5780637c009954146101ba5780638ac68dd81461024a5780638d66f34814610306578063a04c7e8a14610310578063b2fa1c9e146103a0578063b3752fd0146103cf578063b7f9d6f7146103fa578063c17bd75e1461043d578063f2f8024814610468575b600080fd5b3480156100c057600080fd5b506100c96104f8565b604051808273ffffffffffffffffffffffffffffffffffffffff1673ffffffffffffffffffffffffffffffffffffffff16815260200191505060405180910390f35b34801561011757600080fd5b506101b8600480360381019080803590602001908201803590602001908080601f0160208091040260200160405190810160405280939291908181526020018383808284378201915050505050509192919290803590602001908201803590602001908080601f016020809104026020016040519081016040528093929190818152602001838380828437820191505050505050919291929050505061051d565b005b3480156101c657600080fd5b506101cf610664565b6040518080602001828103825283818151815260200191508051906020019080838360005b8381101561020f5780820151818401526020810190506101f4565b50505050905090810190601f16801561023c5780820380516001836020036101000a031916815260200191505b509250505060405180910390f35b34801561025657600080fd5b5061028b600480360381019080803573ffffffffffffffffffffffffffffffffffffffff169060200190929190505050610702565b6040518080602001828103825283818151815260200191508051906020019080838360005b838110156102cb5780820151818401526020810190506102b0565b50505050905090810190601f1680156102f85780820380516001836020036101000a031916815260200191505b509250505060405180910390f35b61030e6107e3565b005b34801561031c57600080fd5b50610325610848565b6040518080602001828103825283818151815260200191508051906020019080838360005b8381101561036557808201518184015260208101905061034a565b50505050905090810190601f1680156103925780820380516001836020036101000a031916815260200191505b509250505060405180910390f35b3480156103ac57600080fd5b506103b56108e6565b604051808215151515815260200191505060405180910390f35b3480156103db57600080fd5b506103e46108f9565b6040518082815260200191505060405180910390f35b34801561040657600080fd5b5061043b600480360381019080803573ffffffffffffffffffffffffffffffffffffffff1690602001909291905050506108ff565b005b34801561044957600080fd5b506104526109c5565b6040518082815260200191505060405180910390f35b34801561047457600080fd5b5061047d6109cb565b6040518080602001828103825283818151815260200191508051906020019080838360005b838110156104bd5780820151818401526020810190506104a2565b50505050905090810190601f1680156104ea5780820380516001836020036101000a031916815260200191505b509250505060405180910390f35b6000809054906101000a900473ffffffffffffffffffffffffffffffffffffffff1681565b610525610a69565b6060604051908101604052803373ffffffffffffffffffffffffffffffffffffffff1681526020018481526020018381525090506008819080600181540180825580915050906001820390600052602060002090600302016000909192909190915060008201518160000160006101000a81548173ffffffffffffffffffffffffffffffffffffffff021916908373ffffffffffffffffffffffffffffffffffffffff16021790555060208201518160010190805190602001906105ea929190610aa1565b506040820151816002019080519060200190610607929190610aa1565b5050505082600960003373ffffffffffffffffffffffffffffffffffffffff1673ffffffffffffffffffffffffffffffffffffffff168152602001908152602001600020908051906020019061065e929190610b21565b50505050565b60058054600181600116156101000203166002900480601f0160208091040260200160405190810160405280929190818152602001828054600181600116156101000203166002900480156106fa5780601f106106cf576101008083540402835291602001916106fa565b820191906000526020600020905b8154815290600101906020018083116106dd57829003601f168201915b505050505081565b6060600960008373ffffffffffffffffffffffffffffffffffffffff1673ffffffffffffffffffffffffffffffffffffffff1681526020019081526020016000208054600181600116156101000203166002900480601f0160208091040260200160405190810160405280929190818152602001828054600181600116156101000203166002900480156107d75780601f106107ac576101008083540402835291602001916107d7565b820191906000526020600020905b8154815290600101906020018083116107ba57829003601f168201915b50505050509050919050565b600260009054906101000a900473ffffffffffffffffffffffffffffffffffffffff1673ffffffffffffffffffffffffffffffffffffffff163373ffffffffffffffffffffffffffffffffffffffff1614151561083f57600080fd5b34600681905550565b60038054600181600116156101000203166002900480601f0160208091040260200160405190810160405280929190818152602001828054600181600116156101000203166002900480156108de5780601f106108b3576101008083540402835291602001916108de565b820191906000526020600020905b8154815290600101906020018083116108c157829003601f168201915b505050505081565b600760009054906101000a900460ff1681565b60065481565b600260009054906101000a900473ffffffffffffffffffffffffffffffffffffffff1673ffffffffffffffffffffffffffffffffffffffff163373ffffffffffffffffffffffffffffffffffffffff1614151561095b57600080fd5b8073ffffffffffffffffffffffffffffffffffffffff166108fc6006549081150290604051600060405180830381858888f193505050501580156109a3573d6000803e3d6000fd5b503073ffffffffffffffffffffffffffffffffffffffff163160068190555050565b60015481565b60048054600181600116156101000203166002900480601f016020809104026020016040519081016040528092919081815260200182805460018160011615610100020316600290048015610a615780601f10610a3657610100808354040283529160200191610a61565b820191906000526020600020905b815481529060010190602001808311610a4457829003601f168201915b505050505081565b606060405190810160405280600073ffffffffffffffffffffffffffffffffffffffff16815260200160608152602001606081525090565b828054600181600116156101000203166002900490600052602060002090601f016020900481019282601f10610ae257805160ff1916838001178555610b10565b82800160010185558215610b10579182015b82811115610b0f578251825591602001919060010190610af4565b5b509050610b1d9190610ba1565b5090565b828054600181600116156101000203166002900490600052602060002090601f016020900481019282601f10610b6257805160ff1916838001178555610b90565b82800160010185558215610b90579182015b82811115610b8f578251825591602001919060010190610b74565b5b509050610b9d9190610ba1565b5090565b610bc391905b80821115610bbf576000816000905550600101610ba7565b5090565b905600a165627a7a72305820fe072dfe43ccf2c75486a037e951df46648b0b49f541970dcd058d2e03138bbf0029",
  "source": "pragma solidity ^0.4.23;\n//import \"./FundingService.sol\";\n//import \"./Project.sol\";\nimport \"./SafeMath.sol\";\n\n/*Developer will set bounty (non-Smart Contract related bounty)\n* Bounty Hunter will report bug or test suggestions \n* Developer will dispense funds if report is approved \n* Test Bounty Params: \"0xca35b7d915458ef540ade6068dfe2f44e8fa733c\", 1 , \"Maple\", \"Greatest Bug In Existence\", \"http://dailyhive.com\"\n* Test Report Params: \"This is unacceptable\", \"https://hyperbridge.org/\"\n* Remix Test Project Params: \"Blockhub\", \"This is a description of Blockhub.\", \"These are the various features of Blockhub.\", 1, 1000000 \n* Remix Test Bounty Params: \"Maple\", \"Greatest Bug In Existence\", \"http://dailyhive.com\"\n* Test FUnding Service Params: \"a\", \"a\" , \"f\", 1, 1000\n*/\ncontract Bounty {\n\n    struct bountyHunter {\n        address id;\n        string report;\n        string link;\n    }   \n\n    //For Tracking the bounty to the project it is associated with\n    address public projectAddress;\n    uint public bountyId;\n\n    address developer;\n    string public bountyName;\n    string public bountyDescription;\n    string public bountyLink;\n    uint public bountyValue;\n    bool public isComplete;\n    bountyHunter[] bountyHunters;\n\n    mapping(address => string) individualBountyHunterReport;\n\n    modifier devRestricted() {\n        require(msg.sender == developer);\n        _;\n    }\n    \n    \n    constructor(address _projectAddress, uint _bountyId, string _bountyName, string _bountyDescription, string _bountyLink) public {\n        projectAddress =  _projectAddress;\n        bountyId = _bountyId;\n\n        bountyName = _bountyName;\n        bountyDescription = _bountyDescription;\n        bountyLink = _bountyLink;\n        isComplete = false;\n        developer = msg.sender;\n    }\n\n    function setBountyValue() public payable devRestricted{\n        bountyValue = msg.value;\n    }\n\n    function makeReport(string _report, string _link) public {\n        bountyHunter memory newBountyHunter = bountyHunter({\n            id: msg.sender,\n            report: _report,\n            link: _link\n        });\n\n        bountyHunters.push(newBountyHunter);\n        individualBountyHunterReport[msg.sender] = _report;\n    }\n    \n    function viewBountyReport(address _bountyHunter) public view returns (string) {\n        return individualBountyHunterReport[_bountyHunter];\n    }\n    \n    \n    function releaseBounty(address _bountyHunter) public devRestricted {\n        _bountyHunter.transfer(bountyValue);\n        bountyValue = this.balance;\n    }\n    \n    \n}",
  "sourcePath": "/Users/AshTanz/Documents/HyperBridge/funding-protocol/smart-contracts/ethereum/contracts/Bounty.sol",
  "compiler": {
    "name": "solc",
    "version": "0.4.24+commit.e67f0147.Emscripten.clang"
  },
  "schemaVersion": "2.0.0",
  "updatedAt": "2018-06-15T22:49:47.287Z"
}