{
  "contractName": "Contribution",
  "abi": [
    {
      "constant": true,
      "inputs": [],
      "name": "fundingStorage",
      "outputs": [
        {
          "name": "",
          "type": "address"
        }
      ],
      "payable": false,
      "stateMutability": "view",
      "type": "function"
    },
    {
      "inputs": [
        {
          "name": "_fundingStorage",
          "type": "address"
        }
      ],
      "payable": false,
      "stateMutability": "nonpayable",
      "type": "constructor"
    },
    {
      "payable": true,
      "stateMutability": "payable",
      "type": "fallback"
    },
    {
      "anonymous": false,
      "inputs": [
        {
          "indexed": false,
          "name": "contributorAddress",
          "type": "address"
        },
        {
          "indexed": false,
          "name": "contributorId",
          "type": "uint256"
        }
      ],
      "name": "ContributorCreated",
      "type": "event"
    },
    {
      "constant": false,
      "inputs": [
        {
          "name": "_fundingStorage",
          "type": "address"
        }
      ],
      "name": "initialize",
      "outputs": [],
      "payable": false,
      "stateMutability": "nonpayable",
      "type": "function"
    },
    {
      "constant": false,
      "inputs": [
        {
          "name": "_projectId",
          "type": "uint256"
        }
      ],
      "name": "contributeToProject",
      "outputs": [],
      "payable": true,
      "stateMutability": "payable",
      "type": "function"
    }
  ],
  "bytecode": "0x608060405234801561001057600080fd5b5060405160208061223383398101806040528101908080519060200190929190505050806000806101000a81548173ffffffffffffffffffffffffffffffffffffffff021916908373ffffffffffffffffffffffffffffffffffffffff160217905550506121b0806100836000396000f300608060405260043610610057576000357c0100000000000000000000000000000000000000000000000000000000900463ffffffff168063038edaa41461005c578063939f69c9146100b3578063c4d66de8146100d3575b600080fd5b34801561006857600080fd5b50610071610116565b604051808273ffffffffffffffffffffffffffffffffffffffff1673ffffffffffffffffffffffffffffffffffffffff16815260200191505060405180910390f35b6100d16004803603810190808035906020019092919050505061013b565b005b3480156100df57600080fd5b50610114600480360381019080803573ffffffffffffffffffffffffffffffffffffffff1690602001909291905050506108a8565b005b6000809054906101000a900473ffffffffffffffffffffffffffffffffffffffff1681565b60008060008060008060003411151561015357600080fd5b6002600481111561016057fe5b6101aa886000809054906101000a900473ffffffffffffffffffffffffffffffffffffffff1673ffffffffffffffffffffffffffffffffffffffff16610abc90919063ffffffff16565b14151561021f576040517f08c379a00000000000000000000000000000000000000000000000000000000081526004018080602001828103825260178152602001807f50726f6a65637420646f6573206e6f742065786973742e00000000000000000081525060200191505060405180910390fd5b610269336000809054906101000a900473ffffffffffffffffffffffffffffffffffffffff1673ffffffffffffffffffffffffffffffffffffffff16610c2190919063ffffffff16565b955060008614156103ba576102b46000809054906101000a900473ffffffffffffffffffffffffffffffffffffffff1673ffffffffffffffffffffffffffffffffffffffff16610dc1565b955061030233876000809054906101000a900473ffffffffffffffffffffffffffffffffffffffff1673ffffffffffffffffffffffffffffffffffffffff16610de19092919063ffffffff16565b61034e86336000809054906101000a900473ffffffffffffffffffffffffffffffffffffffff1673ffffffffffffffffffffffffffffffffffffffff16610f619092919063ffffffff16565b7fe2395a588de04dbd106a04d196391b2903176507b71afe387bf00389fc0e0e703387604051808373ffffffffffffffffffffffffffffffffffffffff1673ffffffffffffffffffffffffffffffffffffffff1681526020018281526020019250505060405180910390a15b61040686886000809054906101000a900473ffffffffffffffffffffffffffffffffffffffff1673ffffffffffffffffffffffffffffffffffffffff166110d29092919063ffffffff16565b15156105455761045b868860016000809054906101000a900473ffffffffffffffffffffffffffffffffffffffff1673ffffffffffffffffffffffffffffffffffffffff16611240909392919063ffffffff16565b6104a5866000809054906101000a900473ffffffffffffffffffffffffffffffffffffffff1673ffffffffffffffffffffffffffffffffffffffff1661139290919063ffffffff16565b94506104f58686896000809054906101000a900473ffffffffffffffffffffffffffffffffffffffff1673ffffffffffffffffffffffffffffffffffffffff1661151d909392919063ffffffff16565b61054486600187016000809054906101000a900473ffffffffffffffffffffffffffffffffffffffff1673ffffffffffffffffffffffffffffffffffffffff1661166b9092919063ffffffff16565b5b600061059388886000809054906101000a900473ffffffffffffffffffffffffffffffffffffffff1673ffffffffffffffffffffffffffffffffffffffff166117d69092919063ffffffff16565b1415610683576105e3876000809054906101000a900473ffffffffffffffffffffffffffffffffffffffff1673ffffffffffffffffffffffffffffffffffffffff1661194490919063ffffffff16565b93506106338785886000809054906101000a900473ffffffffffffffffffffffffffffffffffffffff1673ffffffffffffffffffffffffffffffffffffffff16611acf909392919063ffffffff16565b61068287600186016000809054906101000a900473ffffffffffffffffffffffffffffffffffffffff1673ffffffffffffffffffffffffffffffffffffffff16611c1d9092919063ffffffff16565b5b6106cf87876000809054906101000a900473ffffffffffffffffffffffffffffffffffffffff1673ffffffffffffffffffffffffffffffffffffffff166117d69092919063ffffffff16565b925061072187873486016000809054906101000a900473ffffffffffffffffffffffffffffffffffffffff1673ffffffffffffffffffffffffffffffffffffffff16611d88909392919063ffffffff16565b6000809054906101000a900473ffffffffffffffffffffffffffffffffffffffff1691508173ffffffffffffffffffffffffffffffffffffffff166304433bbc6040518163ffffffff167c010000000000000000000000000000000000000000000000000000000002815260040180806020018281038252600c8152602001807f46756e64696e675661756c740000000000000000000000000000000000000000815250602001915050602060405180830381600087803b1580156107e557600080fd5b505af11580156107f9573d6000803e3d6000fd5b505050506040513d602081101561080f57600080fd5b810190808051906020019092919050505090508073ffffffffffffffffffffffffffffffffffffffff1663439370b1346040518263ffffffff167c01000000000000000000000000000000000000000000000000000000000281526004016000604051808303818588803b15801561088657600080fd5b505af115801561089a573d6000803e3d6000fd5b505050505050505050505050565b806000806101000a81548173ffffffffffffffffffffffffffffffffffffffff021916908373ffffffffffffffffffffffffffffffffffffffff1602179055506000809054906101000a900473ffffffffffffffffffffffffffffffffffffffff1673ffffffffffffffffffffffffffffffffffffffff1663043c2677306040518263ffffffff167c0100000000000000000000000000000000000000000000000000000000028152600401808273ffffffffffffffffffffffffffffffffffffffff1673ffffffffffffffffffffffffffffffffffffffff168152602001915050602060405180830381600087803b1580156109a457600080fd5b505af11580156109b8573d6000803e3d6000fd5b505050506040513d60208110156109ce57600080fd5b81019080805190602001909291905050501515610a79576040517f08c379a00000000000000000000000000000000000000000000000000000000081526004018080602001828103825260328152602001807f5468697320636f6e7472616374206973206e6f7420726567697374657265642081526020017f696e2046756e64696e6753746f726167652e000000000000000000000000000081525060400191505060405180910390fd5b610ab96000809054906101000a900473ffffffffffffffffffffffffffffffffffffffff1673ffffffffffffffffffffffffffffffffffffffff16611ed6565b50565b60008273ffffffffffffffffffffffffffffffffffffffff1663bd02d0f58360405160200180807f70726f6a6563742e737461747573000000000000000000000000000000000000815250600e018281526020019150506040516020818303038152906040526040518082805190602001908083835b602083101515610b575780518252602082019150602081019050602083039250610b32565b6001836020036101000a03801982511681845116808217855250505050505090500191505060405180910390206040518263ffffffff167c0100000000000000000000000000000000000000000000000000000000028152600401808260001916600019168152602001915050602060405180830381600087803b158015610bde57600080fd5b505af1158015610bf2573d6000803e3d6000fd5b505050506040513d6020811015610c0857600080fd5b8101908080519060200190929190505050905092915050565b60008273ffffffffffffffffffffffffffffffffffffffff1663bd02d0f58360405160200180807f636f6e747269627574696f6e2e636f6e7472696275746f724d61700000000000815250601b018273ffffffffffffffffffffffffffffffffffffffff1673ffffffffffffffffffffffffffffffffffffffff166c010000000000000000000000000281526014019150506040516020818303038152906040526040518082805190602001908083835b602083101515610cf75780518252602082019150602081019050602083039250610cd2565b6001836020036101000a03801982511681845116808217855250505050505090500191505060405180910390206040518263ffffffff167c0100000000000000000000000000000000000000000000000000000000028152600401808260001916600019168152602001915050602060405180830381600087803b158015610d7e57600080fd5b505af1158015610d92573d6000803e3d6000fd5b505050506040513d6020811015610da857600080fd5b8101908080519060200190929190505050905092915050565b600080610dcd83612094565b9050610dd883611ed6565b80915050919050565b8273ffffffffffffffffffffffffffffffffffffffff1663e2a4853a8360405160200180807f636f6e747269627574696f6e2e636f6e7472696275746f724d61700000000000815250601b018273ffffffffffffffffffffffffffffffffffffffff1673ffffffffffffffffffffffffffffffffffffffff166c010000000000000000000000000281526014019150506040516020818303038152906040526040518082805190602001908083835b602083101515610eb55780518252602082019150602081019050602083039250610e90565b6001836020036101000a0380198251168184511680821785525050505050509050019150506040518091039020836040518363ffffffff167c010000000000000000000000000000000000000000000000000000000002815260040180836000191660001916815260200182815260200192505050600060405180830381600087803b158015610f4457600080fd5b505af1158015610f58573d6000803e3d6000fd5b50505050505050565b8273ffffffffffffffffffffffffffffffffffffffff1663ca446dd98360405160200180807f636f6e7472696275746f722e61646472657373000000000000000000000000008152506013018281526020019150506040516020818303038152906040526040518082805190602001908083835b602083101515610ffa5780518252602082019150602081019050602083039250610fd5565b6001836020036101000a0380198251168184511680821785525050505050509050019150506040518091039020836040518363ffffffff167c01000000000000000000000000000000000000000000000000000000000281526004018083600019166000191681526020018273ffffffffffffffffffffffffffffffffffffffff1673ffffffffffffffffffffffffffffffffffffffff16815260200192505050600060405180830381600087803b1580156110b557600080fd5b505af11580156110c9573d6000803e3d6000fd5b50505050505050565b60008373ffffffffffffffffffffffffffffffffffffffff16637ae1cfca848460405160200180807f636f6e7472696275746f722e636f6e7472696275746573546f50726f6a656374815250602001838152602001828152602001925050506040516020818303038152906040526040518082805190602001908083835b6020831015156111755780518252602082019150602081019050602083039250611150565b6001836020036101000a03801982511681845116808217855250505050505090500191505060405180910390206040518263ffffffff167c0100000000000000000000000000000000000000000000000000000000028152600401808260001916600019168152602001915050602060405180830381600087803b1580156111fc57600080fd5b505af1158015611210573d6000803e3d6000fd5b505050506040513d602081101561122657600080fd5b810190808051906020019092919050505090509392505050565b8373ffffffffffffffffffffffffffffffffffffffff1663abfdcced848460405160200180807f636f6e7472696275746f722e636f6e7472696275746573546f50726f6a656374815250602001838152602001828152602001925050506040516020818303038152906040526040518082805190602001908083835b6020831015156112e157805182526020820191506020810190506020830392506112bc565b6001836020036101000a0380198251168184511680821785525050505050509050019150506040518091039020836040518363ffffffff167c01000000000000000000000000000000000000000000000000000000000281526004018083600019166000191681526020018215151515815260200192505050600060405180830381600087803b15801561137457600080fd5b505af1158015611388573d6000803e3d6000fd5b5050505050505050565b60008273ffffffffffffffffffffffffffffffffffffffff1663bd02d0f58360405160200180807f636f6e7472696275746f722e66756e64656450726f6a656374732e6c656e677481526020017f68000000000000000000000000000000000000000000000000000000000000008152506021018281526020019150506040516020818303038152906040526040518082805190602001908083835b602083101515611453578051825260208201915060208101905060208303925061142e565b6001836020036101000a03801982511681845116808217855250505050505090500191505060405180910390206040518263ffffffff167c0100000000000000000000000000000000000000000000000000000000028152600401808260001916600019168152602001915050602060405180830381600087803b1580156114da57600080fd5b505af11580156114ee573d6000803e3d6000fd5b505050506040513d602081101561150457600080fd5b8101908080519060200190929190505050905092915050565b8373ffffffffffffffffffffffffffffffffffffffff1663e2a4853a838560405160200180807f636f6e7472696275746f722e66756e64656450726f6a65637473000000000000815250601a01838152602001828152602001925050506040516020818303038152906040526040518082805190602001908083835b6020831015156115be5780518252602082019150602081019050602083039250611599565b6001836020036101000a0380198251168184511680821785525050505050509050019150506040518091039020836040518363ffffffff167c010000000000000000000000000000000000000000000000000000000002815260040180836000191660001916815260200182815260200192505050600060405180830381600087803b15801561164d57600080fd5b505af1158015611661573d6000803e3d6000fd5b5050505050505050565b8273ffffffffffffffffffffffffffffffffffffffff1663e2a4853a8360405160200180807f636f6e7472696275746f722e66756e64656450726f6a656374732e6c656e677481526020017f68000000000000000000000000000000000000000000000000000000000000008152506021018281526020019150506040516020818303038152906040526040518082805190602001908083835b60208310151561172a5780518252602082019150602081019050602083039250611705565b6001836020036101000a0380198251168184511680821785525050505050509050019150506040518091039020836040518363ffffffff167c010000000000000000000000000000000000000000000000000000000002815260040180836000191660001916815260200182815260200192505050600060405180830381600087803b1580156117b957600080fd5b505af11580156117cd573d6000803e3d6000fd5b50505050505050565b60008373ffffffffffffffffffffffffffffffffffffffff1663bd02d0f5848460405160200180807f636f6e747269627574696f6e2e636f6e747269627574696f6e416d6f756e7400815250601f01838152602001828152602001925050506040516020818303038152906040526040518082805190602001908083835b6020831015156118795780518252602082019150602081019050602083039250611854565b6001836020036101000a03801982511681845116808217855250505050505090500191505060405180910390206040518263ffffffff167c0100000000000000000000000000000000000000000000000000000000028152600401808260001916600019168152602001915050602060405180830381600087803b15801561190057600080fd5b505af1158015611914573d6000803e3d6000fd5b505050506040513d602081101561192a57600080fd5b810190808051906020019092919050505090509392505050565b60008273ffffffffffffffffffffffffffffffffffffffff1663bd02d0f58360405160200180807f636f6e747269627574696f6e2e636f6e7472696275746f724c6973742e6c656e81526020017f67746800000000000000000000000000000000000000000000000000000000008152506023018281526020019150506040516020818303038152906040526040518082805190602001908083835b602083101515611a0557805182526020820191506020810190506020830392506119e0565b6001836020036101000a03801982511681845116808217855250505050505090500191505060405180910390206040518263ffffffff167c0100000000000000000000000000000000000000000000000000000000028152600401808260001916600019168152602001915050602060405180830381600087803b158015611a8c57600080fd5b505af1158015611aa0573d6000803e3d6000fd5b505050506040513d6020811015611ab657600080fd5b8101908080519060200190929190505050905092915050565b8373ffffffffffffffffffffffffffffffffffffffff1663e2a4853a848460405160200180807f636f6e747269627574696f6e2e636f6e7472696275746f724c69737400000000815250601c01838152602001828152602001925050506040516020818303038152906040526040518082805190602001908083835b602083101515611b705780518252602082019150602081019050602083039250611b4b565b6001836020036101000a0380198251168184511680821785525050505050509050019150506040518091039020836040518363ffffffff167c010000000000000000000000000000000000000000000000000000000002815260040180836000191660001916815260200182815260200192505050600060405180830381600087803b158015611bff57600080fd5b505af1158015611c13573d6000803e3d6000fd5b5050505050505050565b8273ffffffffffffffffffffffffffffffffffffffff1663e2a4853a8360405160200180807f636f6e747269627574696f6e2e636f6e7472696275746f724c6973742e6c656e81526020017f67746800000000000000000000000000000000000000000000000000000000008152506023018281526020019150506040516020818303038152906040526040518082805190602001908083835b602083101515611cdc5780518252602082019150602081019050602083039250611cb7565b6001836020036101000a0380198251168184511680821785525050505050509050019150506040518091039020836040518363ffffffff167c010000000000000000000000000000000000000000000000000000000002815260040180836000191660001916815260200182815260200192505050600060405180830381600087803b158015611d6b57600080fd5b505af1158015611d7f573d6000803e3d6000fd5b50505050505050565b8373ffffffffffffffffffffffffffffffffffffffff1663e2a4853a848460405160200180807f636f6e747269627574696f6e2e636f6e747269627574696f6e416d6f756e7400815250601f01838152602001828152602001925050506040516020818303038152906040526040518082805190602001908083835b602083101515611e295780518252602082019150602081019050602083039250611e04565b6001836020036101000a0380198251168184511680821785525050505050509050019150506040518091039020836040518363ffffffff167c010000000000000000000000000000000000000000000000000000000002815260040180836000191660001916815260200182815260200192505050600060405180830381600087803b158015611eb857600080fd5b505af1158015611ecc573d6000803e3d6000fd5b5050505050505050565b60008173ffffffffffffffffffffffffffffffffffffffff1663bd02d0f560405180807f636f6e747269627574696f6e2e6e657874436f6e7472696275746f7249640000815250601e01905060405180910390206040518263ffffffff167c0100000000000000000000000000000000000000000000000000000000028152600401808260001916600019168152602001915050602060405180830381600087803b158015611f8457600080fd5b505af1158015611f98573d6000803e3d6000fd5b505050506040513d6020811015611fae57600080fd5b810190808051906020019092919050505090508173ffffffffffffffffffffffffffffffffffffffff1663e2a4853a60405180807f636f6e747269627574696f6e2e6e657874436f6e7472696275746f7249640000815250601e0190506040518091039020600184016040518363ffffffff167c010000000000000000000000000000000000000000000000000000000002815260040180836000191660001916815260200182815260200192505050600060405180830381600087803b15801561207857600080fd5b505af115801561208c573d6000803e3d6000fd5b505050505050565b60008173ffffffffffffffffffffffffffffffffffffffff1663bd02d0f560405180807f636f6e747269627574696f6e2e6e657874436f6e7472696275746f7249640000815250601e01905060405180910390206040518263ffffffff167c0100000000000000000000000000000000000000000000000000000000028152600401808260001916600019168152602001915050602060405180830381600087803b15801561214257600080fd5b505af1158015612156573d6000803e3d6000fd5b505050506040513d602081101561216c57600080fd5b810190808051906020019092919050505090509190505600a165627a7a723058206083614c84678357ab2a3a2b92491158933c7c0d077f1c8927f56242248e33f40029",
  "source": "pragma solidity ^0.4.24;\n\nimport \"./libraries/storage/ContributionStorageAccess.sol\";\nimport \"./libraries/storage/ProjectStorageAccess.sol\";\nimport \"./FundingVault.sol\";\nimport \"./project/ProjectBase.sol\";\n\ncontract Contribution {\n\n    using ContributionStorageAccess for address;\n    using ProjectStorageAccess for address;\n\n    address public fundingStorage;\n\n    event ContributorCreated(address contributorAddress, uint contributorId);\n\n    constructor(address _fundingStorage) public {\n        fundingStorage = _fundingStorage;\n    }\n\n    function () public payable {\n        revert();\n    }\n\n    function initialize(address _fundingStorage) external {\n        fundingStorage = _fundingStorage;\n        require(FundingStorage(fundingStorage).getContractIsValid(this), \"This contract is not registered in FundingStorage.\");\n\n        // reserve contributorId 0\n        fundingStorage.incrementNextContributorId();\n    }\n\n    function contributeToProject(uint _projectId) external payable {\n        require(msg.value > 0);\n        require(fundingStorage.getProjectStatus(_projectId) == uint(ProjectBase.Status.Published), \"Project does not exist.\"); // check that project exists\n\n        uint contributorId = fundingStorage.getContributorId(msg.sender);\n\n        // if contributor doesn't exist, create it\n        if (contributorId == 0) {\n            contributorId = fundingStorage.generateNewContributorId();\n\n            fundingStorage.setContributorId(msg.sender, contributorId);\n            fundingStorage.setContributorAddress(contributorId, msg.sender);\n\n            emit ContributorCreated(msg.sender, contributorId);\n        }\n\n        // if project is not in contributor's project list, add it\n        if (!fundingStorage.getContributesToProject(contributorId, _projectId)) {\n            fundingStorage.setContributesToProject(contributorId, _projectId, true);\n            uint index = fundingStorage.getContributorFundedProjectsLength(contributorId);\n            fundingStorage.setContributorFundedProject(contributorId, index, _projectId);\n            fundingStorage.setContributorFundedProjectsLength(contributorId, index + 1);\n        }\n\n        // add to projectContributorList, if not already present\n        if (fundingStorage.getContributionAmount(_projectId, contributorId) == 0) {\n            uint length = fundingStorage.getProjectContributorListLength(_projectId);\n            fundingStorage.setProjectContributor(_projectId, length, contributorId);\n            fundingStorage.setProjectContributorListLength(_projectId, length + 1);\n        }\n\n        // add contribution amount to project\n        uint currentAmount = fundingStorage.getContributionAmount(_projectId, contributorId);\n        fundingStorage.setContributionAmount(_projectId, contributorId, currentAmount + msg.value);\n\n        FundingStorage fs = FundingStorage(fundingStorage);\n        FundingVault fv = FundingVault(fs.getContractAddress(\"FundingVault\"));\n        fv.depositEth.value(msg.value)();\n    }\n}\n",
  "sourcePath": "/ude/hb/projects/funding-protocol/smart-contracts/ethereum/contracts/Contribution.sol",
  "compiler": {
    "name": "solc",
    "version": "0.4.24+commit.e67f0147.Emscripten.clang"
  },
  "schemaVersion": "2.0.0",
  "updatedAt": "2018-07-21T05:29:00.649Z"
}