{
  "contractName": "Contribution",
  "abi": [
    {
      "constant": true,
      "inputs": [],
      "name": "fundingStorage",
      "outputs": [
        {
          "name": "",
          "type": "address"
        }
      ],
      "payable": false,
      "stateMutability": "view",
      "type": "function"
    },
    {
      "inputs": [
        {
          "name": "_fundingStorage",
          "type": "address"
        }
      ],
      "payable": false,
      "stateMutability": "nonpayable",
      "type": "constructor"
    },
    {
      "payable": true,
      "stateMutability": "payable",
      "type": "fallback"
    },
    {
      "anonymous": false,
      "inputs": [
        {
          "indexed": false,
          "name": "contributorAddress",
          "type": "address"
        },
        {
          "indexed": false,
          "name": "contributorId",
          "type": "uint256"
        }
      ],
      "name": "ContributorCreated",
      "type": "event"
    },
    {
      "constant": false,
      "inputs": [],
      "name": "initialize",
      "outputs": [],
      "payable": false,
      "stateMutability": "nonpayable",
      "type": "function"
    },
    {
      "constant": false,
      "inputs": [
        {
          "name": "_projectId",
          "type": "uint256"
        }
      ],
      "name": "contributeToProject",
      "outputs": [],
      "payable": true,
      "stateMutability": "payable",
      "type": "function"
    },
    {
      "constant": false,
      "inputs": [
        {
          "name": "_projectId",
          "type": "uint256"
        }
      ],
      "name": "refund",
      "outputs": [],
      "payable": false,
      "stateMutability": "nonpayable",
      "type": "function"
    }
  ],
  "bytecode": "0x608060405234801561001057600080fd5b50604051602080612e9c83398101806040528101908080519060200190929190505050806000806101000a81548173ffffffffffffffffffffffffffffffffffffffff021916908373ffffffffffffffffffffffffffffffffffffffff16021790555050612e19806100836000396000f300608060405260043610610062576000357c0100000000000000000000000000000000000000000000000000000000900463ffffffff168063038edaa414610067578063278ecde1146100be5780638129fc1c146100eb578063939f69c914610102575b600080fd5b34801561007357600080fd5b5061007c610122565b604051808273ffffffffffffffffffffffffffffffffffffffff1673ffffffffffffffffffffffffffffffffffffffff16815260200191505060405180910390f35b3480156100ca57600080fd5b506100e960048036038101908080359060200190929190505050610147565b005b3480156100f757600080fd5b5061010061055c565b005b6101206004803603810190808035906020019092919050505061072f565b005b6000809054906101000a900473ffffffffffffffffffffffffffffffffffffffff1681565b6000806000806004600681111561015a57fe5b6101a4866000809054906101000a900473ffffffffffffffffffffffffffffffffffffffff1673ffffffffffffffffffffffffffffffffffffffff1661102690919063ffffffff16565b141515610219576040517f08c379a000000000000000000000000000000000000000000000000000000000815260040180806020018281038252601f8152602001807f546869732070726f6a656374206973206e6f7420726566756e6461626c652e0081525060200191505060405180910390fd5b610263336000809054906101000a900473ffffffffffffffffffffffffffffffffffffffff1673ffffffffffffffffffffffffffffffffffffffff1661118b90919063ffffffff16565b93506102b184866000809054906101000a900473ffffffffffffffffffffffffffffffffffffffff1673ffffffffffffffffffffffffffffffffffffffff1661132b9092919063ffffffff16565b151561034b576040517f08c379a00000000000000000000000000000000000000000000000000000000081526004018080602001828103825260318152602001807f54686973206164647265737320686173206e6f7420636f6e747269627574656481526020017f20746f20746869732070726f6a6563742e00000000000000000000000000000081525060400191505060405180910390fd5b61039785856000809054906101000a900473ffffffffffffffffffffffffffffffffffffffff1673ffffffffffffffffffffffffffffffffffffffff166114999092919063ffffffff16565b92506000809054906101000a900473ffffffffffffffffffffffffffffffffffffffff1691508173ffffffffffffffffffffffffffffffffffffffff166304433bbc6040518163ffffffff167c010000000000000000000000000000000000000000000000000000000002815260040180806020018281038252600c8152602001807f46756e64696e675661756c740000000000000000000000000000000000000000815250602001915050602060405180830381600087803b15801561045d57600080fd5b505af1158015610471573d6000803e3d6000fd5b505050506040513d602081101561048757600080fd5b810190808051906020019092919050505090508073ffffffffffffffffffffffffffffffffffffffff1663a158657c84336040518363ffffffff167c0100000000000000000000000000000000000000000000000000000000028152600401808381526020018273ffffffffffffffffffffffffffffffffffffffff1673ffffffffffffffffffffffffffffffffffffffff16815260200192505050600060405180830381600087803b15801561053d57600080fd5b505af1158015610551573d6000803e3d6000fd5b505050505050505050565b6000809054906101000a900473ffffffffffffffffffffffffffffffffffffffff1673ffffffffffffffffffffffffffffffffffffffff1663043c2677306040518263ffffffff167c0100000000000000000000000000000000000000000000000000000000028152600401808273ffffffffffffffffffffffffffffffffffffffff1673ffffffffffffffffffffffffffffffffffffffff168152602001915050602060405180830381600087803b15801561061857600080fd5b505af115801561062c573d6000803e3d6000fd5b505050506040513d602081101561064257600080fd5b810190808051906020019092919050505015156106ed576040517f08c379a00000000000000000000000000000000000000000000000000000000081526004018080602001828103825260328152602001807f5468697320636f6e7472616374206973206e6f7420726567697374657265642081526020017f696e2046756e64696e6753746f726167652e000000000000000000000000000081525060400191505060405180910390fd5b61072d6000809054906101000a900473ffffffffffffffffffffffffffffffffffffffff1673ffffffffffffffffffffffffffffffffffffffff16611607565b565b60008060008060008060008060008060003411151561074d57600080fd5b6002600681111561075a57fe5b6107a48c6000809054906101000a900473ffffffffffffffffffffffffffffffffffffffff1673ffffffffffffffffffffffffffffffffffffffff1661102690919063ffffffff16565b14151561083f576040517f08c379a00000000000000000000000000000000000000000000000000000000081526004018080602001828103825260278152602001807f50726f6a656374206973206e6f7420616363657074696e6720636f6e7472696281526020017f7574696f6e732e0000000000000000000000000000000000000000000000000081525060400191505060405180910390fd5b6108898b6000809054906101000a900473ffffffffffffffffffffffffffffffffffffffff1673ffffffffffffffffffffffffffffffffffffffff166117c590919063ffffffff16565b99506108d58b6000809054906101000a900473ffffffffffffffffffffffffffffffffffffffff1673ffffffffffffffffffffffffffffffffffffffff1661192a90919063ffffffff16565b985062093a808a02890142111515156108ed57600080fd5b6109378b6000809054906101000a900473ffffffffffffffffffffffffffffffffffffffff1673ffffffffffffffffffffffffffffffffffffffff16611ab590919063ffffffff16565b97506109838b6000809054906101000a900473ffffffffffffffffffffffffffffffffffffffff1673ffffffffffffffffffffffffffffffffffffffff16611c1a90919063ffffffff16565b9650873488011115151561099657600080fd5b6109e0336000809054906101000a900473ffffffffffffffffffffffffffffffffffffffff1673ffffffffffffffffffffffffffffffffffffffff1661118b90919063ffffffff16565b95506000861415610b3157610a2b6000809054906101000a900473ffffffffffffffffffffffffffffffffffffffff1673ffffffffffffffffffffffffffffffffffffffff16611d7f565b9550610a7933876000809054906101000a900473ffffffffffffffffffffffffffffffffffffffff1673ffffffffffffffffffffffffffffffffffffffff16611d9f9092919063ffffffff16565b610ac586336000809054906101000a900473ffffffffffffffffffffffffffffffffffffffff1673ffffffffffffffffffffffffffffffffffffffff16611f1f9092919063ffffffff16565b7fe2395a588de04dbd106a04d196391b2903176507b71afe387bf00389fc0e0e703387604051808373ffffffffffffffffffffffffffffffffffffffff1673ffffffffffffffffffffffffffffffffffffffff1681526020018281526020019250505060405180910390a15b610b7d868c6000809054906101000a900473ffffffffffffffffffffffffffffffffffffffff1673ffffffffffffffffffffffffffffffffffffffff1661132b9092919063ffffffff16565b1515610cbc57610bd2868c60016000809054906101000a900473ffffffffffffffffffffffffffffffffffffffff1673ffffffffffffffffffffffffffffffffffffffff16612090909392919063ffffffff16565b610c1c866000809054906101000a900473ffffffffffffffffffffffffffffffffffffffff1673ffffffffffffffffffffffffffffffffffffffff166121e290919063ffffffff16565b9450610c6c86868d6000809054906101000a900473ffffffffffffffffffffffffffffffffffffffff1673ffffffffffffffffffffffffffffffffffffffff1661236d909392919063ffffffff16565b610cbb86600187016000809054906101000a900473ffffffffffffffffffffffffffffffffffffffff1673ffffffffffffffffffffffffffffffffffffffff166124bb9092919063ffffffff16565b5b610d088b876000809054906101000a900473ffffffffffffffffffffffffffffffffffffffff1673ffffffffffffffffffffffffffffffffffffffff166114999092919063ffffffff16565b93506000841415610dfd57610d5d8b6000809054906101000a900473ffffffffffffffffffffffffffffffffffffffff1673ffffffffffffffffffffffffffffffffffffffff1661262690919063ffffffff16565b9250610dad8b84886000809054906101000a900473ffffffffffffffffffffffffffffffffffffffff1673ffffffffffffffffffffffffffffffffffffffff166127b1909392919063ffffffff16565b610dfc8b600185016000809054906101000a900473ffffffffffffffffffffffffffffffffffffffff1673ffffffffffffffffffffffffffffffffffffffff166128ff9092919063ffffffff16565b5b610e4d8b873487016000809054906101000a900473ffffffffffffffffffffffffffffffffffffffff1673ffffffffffffffffffffffffffffffffffffffff16612a6a909392919063ffffffff16565b610e9b8b3489016000809054906101000a900473ffffffffffffffffffffffffffffffffffffffff1673ffffffffffffffffffffffffffffffffffffffff16612bb89092919063ffffffff16565b6000809054906101000a900473ffffffffffffffffffffffffffffffffffffffff1691508173ffffffffffffffffffffffffffffffffffffffff166304433bbc6040518163ffffffff167c010000000000000000000000000000000000000000000000000000000002815260040180806020018281038252600c8152602001807f46756e64696e675661756c740000000000000000000000000000000000000000815250602001915050602060405180830381600087803b158015610f5f57600080fd5b505af1158015610f73573d6000803e3d6000fd5b505050506040513d6020811015610f8957600080fd5b810190808051906020019092919050505090508073ffffffffffffffffffffffffffffffffffffffff1663439370b1346040518263ffffffff167c01000000000000000000000000000000000000000000000000000000000281526004016000604051808303818588803b15801561100057600080fd5b505af1158015611014573d6000803e3d6000fd5b50505050505050505050505050505050565b60008273ffffffffffffffffffffffffffffffffffffffff1663bd02d0f58360405160200180807f70726f6a6563742e737461747573000000000000000000000000000000000000815250600e018281526020019150506040516020818303038152906040526040518082805190602001908083835b6020831015156110c1578051825260208201915060208101905060208303925061109c565b6001836020036101000a03801982511681845116808217855250505050505090500191505060405180910390206040518263ffffffff167c0100000000000000000000000000000000000000000000000000000000028152600401808260001916600019168152602001915050602060405180830381600087803b15801561114857600080fd5b505af115801561115c573d6000803e3d6000fd5b505050506040513d602081101561117257600080fd5b8101908080519060200190929190505050905092915050565b60008273ffffffffffffffffffffffffffffffffffffffff1663bd02d0f58360405160200180807f636f6e747269627574696f6e2e636f6e7472696275746f724d61700000000000815250601b018273ffffffffffffffffffffffffffffffffffffffff1673ffffffffffffffffffffffffffffffffffffffff166c010000000000000000000000000281526014019150506040516020818303038152906040526040518082805190602001908083835b602083101515611261578051825260208201915060208101905060208303925061123c565b6001836020036101000a03801982511681845116808217855250505050505090500191505060405180910390206040518263ffffffff167c0100000000000000000000000000000000000000000000000000000000028152600401808260001916600019168152602001915050602060405180830381600087803b1580156112e857600080fd5b505af11580156112fc573d6000803e3d6000fd5b505050506040513d602081101561131257600080fd5b8101908080519060200190929190505050905092915050565b60008373ffffffffffffffffffffffffffffffffffffffff16637ae1cfca848460405160200180807f636f6e7472696275746f722e636f6e7472696275746573546f50726f6a656374815250602001838152602001828152602001925050506040516020818303038152906040526040518082805190602001908083835b6020831015156113ce57805182526020820191506020810190506020830392506113a9565b6001836020036101000a03801982511681845116808217855250505050505090500191505060405180910390206040518263ffffffff167c0100000000000000000000000000000000000000000000000000000000028152600401808260001916600019168152602001915050602060405180830381600087803b15801561145557600080fd5b505af1158015611469573d6000803e3d6000fd5b505050506040513d602081101561147f57600080fd5b810190808051906020019092919050505090509392505050565b60008373ffffffffffffffffffffffffffffffffffffffff1663bd02d0f5848460405160200180807f636f6e747269627574696f6e2e636f6e747269627574696f6e416d6f756e7400815250601f01838152602001828152602001925050506040516020818303038152906040526040518082805190602001908083835b60208310151561153c5780518252602082019150602081019050602083039250611517565b6001836020036101000a03801982511681845116808217855250505050505090500191505060405180910390206040518263ffffffff167c0100000000000000000000000000000000000000000000000000000000028152600401808260001916600019168152602001915050602060405180830381600087803b1580156115c357600080fd5b505af11580156115d7573d6000803e3d6000fd5b505050506040513d60208110156115ed57600080fd5b810190808051906020019092919050505090509392505050565b60008173ffffffffffffffffffffffffffffffffffffffff1663bd02d0f560405180807f636f6e747269627574696f6e2e6e657874436f6e7472696275746f7249640000815250601e01905060405180910390206040518263ffffffff167c0100000000000000000000000000000000000000000000000000000000028152600401808260001916600019168152602001915050602060405180830381600087803b1580156116b557600080fd5b505af11580156116c9573d6000803e3d6000fd5b505050506040513d60208110156116df57600080fd5b810190808051906020019092919050505090508173ffffffffffffffffffffffffffffffffffffffff1663e2a4853a60405180807f636f6e747269627574696f6e2e6e657874436f6e7472696275746f7249640000815250601e0190506040518091039020600184016040518363ffffffff167c010000000000000000000000000000000000000000000000000000000002815260040180836000191660001916815260200182815260200192505050600060405180830381600087803b1580156117a957600080fd5b505af11580156117bd573d6000803e3d6000fd5b505050505050565b60008273ffffffffffffffffffffffffffffffffffffffff1663bd02d0f58360405160200180807f70726f6a6563742e636f6e747269627574696f6e506572696f64000000000000815250601a018281526020019150506040516020818303038152906040526040518082805190602001908083835b602083101515611860578051825260208201915060208101905060208303925061183b565b6001836020036101000a03801982511681845116808217855250505050505090500191505060405180910390206040518263ffffffff167c0100000000000000000000000000000000000000000000000000000000028152600401808260001916600019168152602001915050602060405180830381600087803b1580156118e757600080fd5b505af11580156118fb573d6000803e3d6000fd5b505050506040513d602081101561191157600080fd5b8101908080519060200190929190505050905092915050565b60008273ffffffffffffffffffffffffffffffffffffffff1663bd02d0f58360405160200180807f636f6e747269627574696f6e2e636f6e747269627574696f6e506572696f645381526020017f74617274000000000000000000000000000000000000000000000000000000008152506024018281526020019150506040516020818303038152906040526040518082805190602001908083835b6020831015156119eb57805182526020820191506020810190506020830392506119c6565b6001836020036101000a03801982511681845116808217855250505050505090500191505060405180910390206040518263ffffffff167c0100000000000000000000000000000000000000000000000000000000028152600401808260001916600019168152602001915050602060405180830381600087803b158015611a7257600080fd5b505af1158015611a86573d6000803e3d6000fd5b505050506040513d6020811015611a9c57600080fd5b8101908080519060200190929190505050905092915050565b60008273ffffffffffffffffffffffffffffffffffffffff1663bd02d0f58360405160200180807f70726f6a6563742e6d6178436f6e747269627574696f6e476f616c0000000000815250601b018281526020019150506040516020818303038152906040526040518082805190602001908083835b602083101515611b505780518252602082019150602081019050602083039250611b2b565b6001836020036101000a03801982511681845116808217855250505050505090500191505060405180910390206040518263ffffffff167c0100000000000000000000000000000000000000000000000000000000028152600401808260001916600019168152602001915050602060405180830381600087803b158015611bd757600080fd5b505af1158015611beb573d6000803e3d6000fd5b505050506040513d6020811015611c0157600080fd5b8101908080519060200190929190505050905092915050565b60008273ffffffffffffffffffffffffffffffffffffffff1663bd02d0f58360405160200180807f636f6e747269627574696f6e2e66756e647352616973656400000000000000008152506018018281526020019150506040516020818303038152906040526040518082805190602001908083835b602083101515611cb55780518252602082019150602081019050602083039250611c90565b6001836020036101000a03801982511681845116808217855250505050505090500191505060405180910390206040518263ffffffff167c0100000000000000000000000000000000000000000000000000000000028152600401808260001916600019168152602001915050602060405180830381600087803b158015611d3c57600080fd5b505af1158015611d50573d6000803e3d6000fd5b505050506040513d6020811015611d6657600080fd5b8101908080519060200190929190505050905092915050565b600080611d8b83612cfd565b9050611d9683611607565b80915050919050565b8273ffffffffffffffffffffffffffffffffffffffff1663e2a4853a8360405160200180807f636f6e747269627574696f6e2e636f6e7472696275746f724d61700000000000815250601b018273ffffffffffffffffffffffffffffffffffffffff1673ffffffffffffffffffffffffffffffffffffffff166c010000000000000000000000000281526014019150506040516020818303038152906040526040518082805190602001908083835b602083101515611e735780518252602082019150602081019050602083039250611e4e565b6001836020036101000a0380198251168184511680821785525050505050509050019150506040518091039020836040518363ffffffff167c010000000000000000000000000000000000000000000000000000000002815260040180836000191660001916815260200182815260200192505050600060405180830381600087803b158015611f0257600080fd5b505af1158015611f16573d6000803e3d6000fd5b50505050505050565b8273ffffffffffffffffffffffffffffffffffffffff1663ca446dd98360405160200180807f636f6e7472696275746f722e61646472657373000000000000000000000000008152506013018281526020019150506040516020818303038152906040526040518082805190602001908083835b602083101515611fb85780518252602082019150602081019050602083039250611f93565b6001836020036101000a0380198251168184511680821785525050505050509050019150506040518091039020836040518363ffffffff167c01000000000000000000000000000000000000000000000000000000000281526004018083600019166000191681526020018273ffffffffffffffffffffffffffffffffffffffff1673ffffffffffffffffffffffffffffffffffffffff16815260200192505050600060405180830381600087803b15801561207357600080fd5b505af1158015612087573d6000803e3d6000fd5b50505050505050565b8373ffffffffffffffffffffffffffffffffffffffff1663abfdcced848460405160200180807f636f6e7472696275746f722e636f6e7472696275746573546f50726f6a656374815250602001838152602001828152602001925050506040516020818303038152906040526040518082805190602001908083835b602083101515612131578051825260208201915060208101905060208303925061210c565b6001836020036101000a0380198251168184511680821785525050505050509050019150506040518091039020836040518363ffffffff167c01000000000000000000000000000000000000000000000000000000000281526004018083600019166000191681526020018215151515815260200192505050600060405180830381600087803b1580156121c457600080fd5b505af11580156121d8573d6000803e3d6000fd5b5050505050505050565b60008273ffffffffffffffffffffffffffffffffffffffff1663bd02d0f58360405160200180807f636f6e7472696275746f722e66756e64656450726f6a656374732e6c656e677481526020017f68000000000000000000000000000000000000000000000000000000000000008152506021018281526020019150506040516020818303038152906040526040518082805190602001908083835b6020831015156122a3578051825260208201915060208101905060208303925061227e565b6001836020036101000a03801982511681845116808217855250505050505090500191505060405180910390206040518263ffffffff167c0100000000000000000000000000000000000000000000000000000000028152600401808260001916600019168152602001915050602060405180830381600087803b15801561232a57600080fd5b505af115801561233e573d6000803e3d6000fd5b505050506040513d602081101561235457600080fd5b8101908080519060200190929190505050905092915050565b8373ffffffffffffffffffffffffffffffffffffffff1663e2a4853a838560405160200180807f636f6e7472696275746f722e66756e64656450726f6a65637473000000000000815250601a01838152602001828152602001925050506040516020818303038152906040526040518082805190602001908083835b60208310151561240e57805182526020820191506020810190506020830392506123e9565b6001836020036101000a0380198251168184511680821785525050505050509050019150506040518091039020836040518363ffffffff167c010000000000000000000000000000000000000000000000000000000002815260040180836000191660001916815260200182815260200192505050600060405180830381600087803b15801561249d57600080fd5b505af11580156124b1573d6000803e3d6000fd5b5050505050505050565b8273ffffffffffffffffffffffffffffffffffffffff1663e2a4853a8360405160200180807f636f6e7472696275746f722e66756e64656450726f6a656374732e6c656e677481526020017f68000000000000000000000000000000000000000000000000000000000000008152506021018281526020019150506040516020818303038152906040526040518082805190602001908083835b60208310151561257a5780518252602082019150602081019050602083039250612555565b6001836020036101000a0380198251168184511680821785525050505050509050019150506040518091039020836040518363ffffffff167c010000000000000000000000000000000000000000000000000000000002815260040180836000191660001916815260200182815260200192505050600060405180830381600087803b15801561260957600080fd5b505af115801561261d573d6000803e3d6000fd5b50505050505050565b60008273ffffffffffffffffffffffffffffffffffffffff1663bd02d0f58360405160200180807f636f6e747269627574696f6e2e636f6e7472696275746f724c6973742e6c656e81526020017f67746800000000000000000000000000000000000000000000000000000000008152506023018281526020019150506040516020818303038152906040526040518082805190602001908083835b6020831015156126e757805182526020820191506020810190506020830392506126c2565b6001836020036101000a03801982511681845116808217855250505050505090500191505060405180910390206040518263ffffffff167c0100000000000000000000000000000000000000000000000000000000028152600401808260001916600019168152602001915050602060405180830381600087803b15801561276e57600080fd5b505af1158015612782573d6000803e3d6000fd5b505050506040513d602081101561279857600080fd5b8101908080519060200190929190505050905092915050565b8373ffffffffffffffffffffffffffffffffffffffff1663e2a4853a848460405160200180807f636f6e747269627574696f6e2e636f6e7472696275746f724c69737400000000815250601c01838152602001828152602001925050506040516020818303038152906040526040518082805190602001908083835b602083101515612852578051825260208201915060208101905060208303925061282d565b6001836020036101000a0380198251168184511680821785525050505050509050019150506040518091039020836040518363ffffffff167c010000000000000000000000000000000000000000000000000000000002815260040180836000191660001916815260200182815260200192505050600060405180830381600087803b1580156128e157600080fd5b505af11580156128f5573d6000803e3d6000fd5b5050505050505050565b8273ffffffffffffffffffffffffffffffffffffffff1663e2a4853a8360405160200180807f636f6e747269627574696f6e2e636f6e7472696275746f724c6973742e6c656e81526020017f67746800000000000000000000000000000000000000000000000000000000008152506023018281526020019150506040516020818303038152906040526040518082805190602001908083835b6020831015156129be5780518252602082019150602081019050602083039250612999565b6001836020036101000a0380198251168184511680821785525050505050509050019150506040518091039020836040518363ffffffff167c010000000000000000000000000000000000000000000000000000000002815260040180836000191660001916815260200182815260200192505050600060405180830381600087803b158015612a4d57600080fd5b505af1158015612a61573d6000803e3d6000fd5b50505050505050565b8373ffffffffffffffffffffffffffffffffffffffff1663e2a4853a848460405160200180807f636f6e747269627574696f6e2e636f6e747269627574696f6e416d6f756e7400815250601f01838152602001828152602001925050506040516020818303038152906040526040518082805190602001908083835b602083101515612b0b5780518252602082019150602081019050602083039250612ae6565b6001836020036101000a0380198251168184511680821785525050505050509050019150506040518091039020836040518363ffffffff167c010000000000000000000000000000000000000000000000000000000002815260040180836000191660001916815260200182815260200192505050600060405180830381600087803b158015612b9a57600080fd5b505af1158015612bae573d6000803e3d6000fd5b5050505050505050565b8273ffffffffffffffffffffffffffffffffffffffff1663e2a4853a8360405160200180807f636f6e747269627574696f6e2e66756e647352616973656400000000000000008152506018018281526020019150506040516020818303038152906040526040518082805190602001908083835b602083101515612c515780518252602082019150602081019050602083039250612c2c565b6001836020036101000a0380198251168184511680821785525050505050509050019150506040518091039020836040518363ffffffff167c010000000000000000000000000000000000000000000000000000000002815260040180836000191660001916815260200182815260200192505050600060405180830381600087803b158015612ce057600080fd5b505af1158015612cf4573d6000803e3d6000fd5b50505050505050565b60008173ffffffffffffffffffffffffffffffffffffffff1663bd02d0f560405180807f636f6e747269627574696f6e2e6e657874436f6e7472696275746f7249640000815250601e01905060405180910390206040518263ffffffff167c0100000000000000000000000000000000000000000000000000000000028152600401808260001916600019168152602001915050602060405180830381600087803b158015612dab57600080fd5b505af1158015612dbf573d6000803e3d6000fd5b505050506040513d6020811015612dd557600080fd5b810190808051906020019092919050505090509190505600a165627a7a723058203845a7eb8f3c0067884036b315de5bbd0d71535c2d3bc94a47c76b415031cbdb0029",
  "source": "pragma solidity ^0.4.24;\n\nimport \"./libraries/storage/ContributionStorageAccess.sol\";\nimport \"./libraries/storage/ProjectStorageAccess.sol\";\nimport \"./FundingVault.sol\";\nimport \"./project/ProjectBase.sol\";\n\ncontract Contribution {\n\n    using ContributionStorageAccess for address;\n    using ProjectStorageAccess for address;\n\n    address public fundingStorage;\n\n    event ContributorCreated(address contributorAddress, uint contributorId);\n\n    constructor(address _fundingStorage) public {\n        fundingStorage = _fundingStorage;\n    }\n\n    function () public payable {\n        revert();\n    }\n\n    function initialize() external {\n        require(FundingStorage(fundingStorage).getContractIsValid(this), \"This contract is not registered in FundingStorage.\");\n\n        // reserve contributorId 0\n        fundingStorage.incrementNextContributorId();\n    }\n\n    function contributeToProject(uint _projectId) external payable {\n        // Contribution must have value\n        require(msg.value > 0);\n        // Project must be accepting contributions\n        require(fundingStorage.getProjectStatus(_projectId) == uint(ProjectBase.Status.Contributable), \"Project is not accepting contributions.\");\n        // It must be within the contribution period set by the developer\n        uint contributionPeriod = fundingStorage.getProjectContributionPeriod(_projectId);\n        uint periodStart = fundingStorage.getProjectContributionPeriodStart(_projectId);\n        require(now <= periodStart + contributionPeriod * 1 weeks);\n        // The maximum contribution goal must not be reached\n        uint maxGoal = fundingStorage.getProjectMaxContributionGoal(_projectId);\n        uint currentFunds = fundingStorage.getProjectFundsRaised(_projectId);\n        require(currentFunds + msg.value <= maxGoal);\n\n        uint contributorId = fundingStorage.getContributorId(msg.sender);\n\n        // if contributor doesn't exist, create it\n        if (contributorId == 0) {\n            contributorId = fundingStorage.generateNewContributorId();\n\n            fundingStorage.setContributorId(msg.sender, contributorId);\n            fundingStorage.setContributorAddress(contributorId, msg.sender);\n\n            emit ContributorCreated(msg.sender, contributorId);\n        }\n\n        // if project is not in contributor's project list, add it\n        if (!fundingStorage.getContributesToProject(contributorId, _projectId)) {\n            fundingStorage.setContributesToProject(contributorId, _projectId, true);\n            uint index = fundingStorage.getContributorFundedProjectsLength(contributorId);\n            fundingStorage.setContributorFundedProject(contributorId, index, _projectId);\n            fundingStorage.setContributorFundedProjectsLength(contributorId, index + 1);\n        }\n\n        uint currentContribution = fundingStorage.getContributionAmount(_projectId, contributorId);\n\n        // add to projectContributorList, if not already present\n        if (currentContribution == 0) {\n            uint length = fundingStorage.getProjectContributorListLength(_projectId);\n            fundingStorage.setProjectContributor(_projectId, length, contributorId);\n            fundingStorage.setProjectContributorListLength(_projectId, length + 1);\n        }\n\n        // add contribution amount to project\n        fundingStorage.setContributionAmount(_projectId, contributorId, currentContribution + msg.value);\n        fundingStorage.setProjectFundsRaised(_projectId, currentFunds + msg.value);\n\n        FundingStorage fs = FundingStorage(fundingStorage);\n        FundingVault fv = FundingVault(fs.getContractAddress(\"FundingVault\"));\n        fv.depositEth.value(msg.value)();\n    }\n\n    function refund(uint _projectId) external {\n        require(fundingStorage.getProjectStatus(_projectId) == uint(ProjectBase.Status.Refundable), \"This project is not refundable.\");\n        uint contributorId = fundingStorage.getContributorId(msg.sender);\n        require(fundingStorage.getContributesToProject(contributorId, _projectId), \"This address has not contributed to this project.\");\n\n        uint contributedAmount = fundingStorage.getContributionAmount(_projectId, contributorId);\n\n        FundingStorage fs = FundingStorage(fundingStorage);\n        FundingVault fv = FundingVault(fs.getContractAddress(\"FundingVault\"));\n        fv.withdrawEth(contributedAmount, msg.sender);\n    }\n}\n",
  "sourcePath": "/ude/hb/projects/funding-protocol/smart-contracts/ethereum/contracts/Contribution.sol",
  "compiler": {
    "name": "solc",
    "version": "0.4.24+commit.e67f0147.Emscripten.clang"
  },
  "schemaVersion": "2.0.0",
  "updatedAt": "2018-07-22T20:27:18.169Z"
}