{
  "contractName": "Contribution",
  "abi": [
    {
      "constant": true,
      "inputs": [],
      "name": "fundingStorage",
      "outputs": [
        {
          "name": "",
          "type": "address"
        }
      ],
      "payable": false,
      "stateMutability": "view",
      "type": "function"
    },
    {
      "constant": false,
      "inputs": [
        {
          "name": "_time",
          "type": "uint256"
        }
      ],
      "name": "setTestTime",
      "outputs": [],
      "payable": false,
      "stateMutability": "nonpayable",
      "type": "function"
    },
    {
      "inputs": [
        {
          "name": "_fundingStorage",
          "type": "address"
        },
        {
          "name": "_inTest",
          "type": "bool"
        }
      ],
      "payable": false,
      "stateMutability": "nonpayable",
      "type": "constructor"
    },
    {
      "payable": true,
      "stateMutability": "payable",
      "type": "fallback"
    },
    {
      "anonymous": false,
      "inputs": [
        {
          "indexed": false,
          "name": "contributorAddress",
          "type": "address"
        },
        {
          "indexed": false,
          "name": "contributorId",
          "type": "uint256"
        }
      ],
      "name": "ContributorCreated",
      "type": "event"
    },
    {
      "constant": false,
      "inputs": [],
      "name": "initialize",
      "outputs": [],
      "payable": false,
      "stateMutability": "nonpayable",
      "type": "function"
    },
    {
      "constant": false,
      "inputs": [
        {
          "name": "_projectId",
          "type": "uint256"
        }
      ],
      "name": "contributeToProject",
      "outputs": [],
      "payable": true,
      "stateMutability": "payable",
      "type": "function"
    },
    {
      "constant": false,
      "inputs": [
        {
          "name": "_projectId",
          "type": "uint256"
        }
      ],
      "name": "refund",
      "outputs": [],
      "payable": false,
      "stateMutability": "nonpayable",
      "type": "function"
    },
    {
      "constant": true,
      "inputs": [
        {
          "name": "_projectId",
          "type": "uint256"
        }
      ],
      "name": "getProjectFundsRaised",
      "outputs": [
        {
          "name": "",
          "type": "uint256"
        }
      ],
      "payable": false,
      "stateMutability": "view",
      "type": "function"
    }
  ],
  "bytecode": "0x608060405234801561001057600080fd5b50604051604080613007833981018060405281019080805190602001909291908051906020019092919050505080806000806101000a81548160ff0219169083151502179055505081600260006101000a81548173ffffffffffffffffffffffffffffffffffffffff021916908373ffffffffffffffffffffffffffffffffffffffff1602179055505050612f5d806100aa6000396000f300608060405260043610610078576000357c0100000000000000000000000000000000000000000000000000000000900463ffffffff168063038edaa41461007d578063097c7406146100d4578063278ecde1146101015780638129fc1c1461012e5780638ec24eac14610145578063939f69c914610186575b600080fd5b34801561008957600080fd5b506100926101a6565b604051808273ffffffffffffffffffffffffffffffffffffffff1673ffffffffffffffffffffffffffffffffffffffff16815260200191505060405180910390f35b3480156100e057600080fd5b506100ff600480360381019080803590602001909291905050506101cc565b005b34801561010d57600080fd5b5061012c600480360381019080803590602001909291905050506101f0565b005b34801561013a57600080fd5b5061014361060a565b005b34801561015157600080fd5b50610170600480360381019080803590602001909291905050506107df565b6040518082815260200191505060405180910390f35b6101a460048036038101908080359060200190929190505050610833565b005b600260009054906101000a900473ffffffffffffffffffffffffffffffffffffffff1681565b6000809054906101000a900460ff1615156101e657600080fd5b8060018190555050565b6000806000806005600681111561020357fe5b61024e86600260009054906101000a900473ffffffffffffffffffffffffffffffffffffffff1673ffffffffffffffffffffffffffffffffffffffff1661114690919063ffffffff16565b1415156102c3576040517f08c379a000000000000000000000000000000000000000000000000000000000815260040180806020018281038252601f8152602001807f546869732070726f6a656374206973206e6f7420726566756e6461626c652e0081525060200191505060405180910390fd5b61030e33600260009054906101000a900473ffffffffffffffffffffffffffffffffffffffff1673ffffffffffffffffffffffffffffffffffffffff166112ab90919063ffffffff16565b935061035d8486600260009054906101000a900473ffffffffffffffffffffffffffffffffffffffff1673ffffffffffffffffffffffffffffffffffffffff1661144b9092919063ffffffff16565b15156103f7576040517f08c379a00000000000000000000000000000000000000000000000000000000081526004018080602001828103825260318152602001807f54686973206164647265737320686173206e6f7420636f6e747269627574656481526020017f20746f20746869732070726f6a6563742e00000000000000000000000000000081525060400191505060405180910390fd5b6104448585600260009054906101000a900473ffffffffffffffffffffffffffffffffffffffff1673ffffffffffffffffffffffffffffffffffffffff166115b99092919063ffffffff16565b9250600260009054906101000a900473ffffffffffffffffffffffffffffffffffffffff1691508173ffffffffffffffffffffffffffffffffffffffff166304433bbc6040518163ffffffff167c010000000000000000000000000000000000000000000000000000000002815260040180806020018281038252600c8152602001807f46756e64696e675661756c740000000000000000000000000000000000000000815250602001915050602060405180830381600087803b15801561050b57600080fd5b505af115801561051f573d6000803e3d6000fd5b505050506040513d602081101561053557600080fd5b810190808051906020019092919050505090508073ffffffffffffffffffffffffffffffffffffffff1663a158657c84336040518363ffffffff167c0100000000000000000000000000000000000000000000000000000000028152600401808381526020018273ffffffffffffffffffffffffffffffffffffffff1673ffffffffffffffffffffffffffffffffffffffff16815260200192505050600060405180830381600087803b1580156105eb57600080fd5b505af11580156105ff573d6000803e3d6000fd5b505050505050505050565b600260009054906101000a900473ffffffffffffffffffffffffffffffffffffffff1673ffffffffffffffffffffffffffffffffffffffff1663043c2677306040518263ffffffff167c0100000000000000000000000000000000000000000000000000000000028152600401808273ffffffffffffffffffffffffffffffffffffffff1673ffffffffffffffffffffffffffffffffffffffff168152602001915050602060405180830381600087803b1580156106c757600080fd5b505af11580156106db573d6000803e3d6000fd5b505050506040513d60208110156106f157600080fd5b8101908080519060200190929190505050151561079c576040517f08c379a00000000000000000000000000000000000000000000000000000000081526004018080602001828103825260328152602001807f5468697320636f6e7472616374206973206e6f7420726567697374657265642081526020017f696e2046756e64696e6753746f726167652e000000000000000000000000000081525060400191505060405180910390fd5b6107dd600260009054906101000a900473ffffffffffffffffffffffffffffffffffffffff1673ffffffffffffffffffffffffffffffffffffffff16611727565b565b600061082c82600260009054906101000a900473ffffffffffffffffffffffffffffffffffffffff1673ffffffffffffffffffffffffffffffffffffffff166118e590919063ffffffff16565b9050919050565b60008060008060008060008060008060003411151561085157600080fd5b6003600681111561085e57fe5b6108a98c600260009054906101000a900473ffffffffffffffffffffffffffffffffffffffff1673ffffffffffffffffffffffffffffffffffffffff1661114690919063ffffffff16565b141515610944576040517f08c379a00000000000000000000000000000000000000000000000000000000081526004018080602001828103825260278152602001807f50726f6a656374206973206e6f7420616363657074696e6720636f6e7472696281526020017f7574696f6e732e0000000000000000000000000000000000000000000000000081525060400191505060405180910390fd5b61098f8b600260009054906101000a900473ffffffffffffffffffffffffffffffffffffffff1673ffffffffffffffffffffffffffffffffffffffff16611a4a90919063ffffffff16565b99506109dc8b600260009054906101000a900473ffffffffffffffffffffffffffffffffffffffff1673ffffffffffffffffffffffffffffffffffffffff16611baf90919063ffffffff16565b985062093a808a0289016109ee611d3a565b111515156109fb57600080fd5b610a468b600260009054906101000a900473ffffffffffffffffffffffffffffffffffffffff1673ffffffffffffffffffffffffffffffffffffffff16611d5e90919063ffffffff16565b9750610a938b600260009054906101000a900473ffffffffffffffffffffffffffffffffffffffff1673ffffffffffffffffffffffffffffffffffffffff166118e590919063ffffffff16565b96508734880111151515610aa657600080fd5b610af133600260009054906101000a900473ffffffffffffffffffffffffffffffffffffffff1673ffffffffffffffffffffffffffffffffffffffff166112ab90919063ffffffff16565b95506000861415610c4557610b3d600260009054906101000a900473ffffffffffffffffffffffffffffffffffffffff1673ffffffffffffffffffffffffffffffffffffffff16611ec3565b9550610b8c3387600260009054906101000a900473ffffffffffffffffffffffffffffffffffffffff1673ffffffffffffffffffffffffffffffffffffffff16611ee39092919063ffffffff16565b610bd98633600260009054906101000a900473ffffffffffffffffffffffffffffffffffffffff1673ffffffffffffffffffffffffffffffffffffffff166120639092919063ffffffff16565b7fe2395a588de04dbd106a04d196391b2903176507b71afe387bf00389fc0e0e703387604051808373ffffffffffffffffffffffffffffffffffffffff1673ffffffffffffffffffffffffffffffffffffffff1681526020018281526020019250505060405180910390a15b610c92868c600260009054906101000a900473ffffffffffffffffffffffffffffffffffffffff1673ffffffffffffffffffffffffffffffffffffffff1661144b9092919063ffffffff16565b1515610dd557610ce8868c6001600260009054906101000a900473ffffffffffffffffffffffffffffffffffffffff1673ffffffffffffffffffffffffffffffffffffffff166121d4909392919063ffffffff16565b610d3386600260009054906101000a900473ffffffffffffffffffffffffffffffffffffffff1673ffffffffffffffffffffffffffffffffffffffff1661232690919063ffffffff16565b9450610d8486868d600260009054906101000a900473ffffffffffffffffffffffffffffffffffffffff1673ffffffffffffffffffffffffffffffffffffffff166124b1909392919063ffffffff16565b610dd48660018701600260009054906101000a900473ffffffffffffffffffffffffffffffffffffffff1673ffffffffffffffffffffffffffffffffffffffff166125ff9092919063ffffffff16565b5b610e228b87600260009054906101000a900473ffffffffffffffffffffffffffffffffffffffff1673ffffffffffffffffffffffffffffffffffffffff166115b99092919063ffffffff16565b93506000841415610f1a57610e788b600260009054906101000a900473ffffffffffffffffffffffffffffffffffffffff1673ffffffffffffffffffffffffffffffffffffffff1661276a90919063ffffffff16565b9250610ec98b8488600260009054906101000a900473ffffffffffffffffffffffffffffffffffffffff1673ffffffffffffffffffffffffffffffffffffffff166128f5909392919063ffffffff16565b610f198b60018501600260009054906101000a900473ffffffffffffffffffffffffffffffffffffffff1673ffffffffffffffffffffffffffffffffffffffff16612a439092919063ffffffff16565b5b610f6b8b87348701600260009054906101000a900473ffffffffffffffffffffffffffffffffffffffff1673ffffffffffffffffffffffffffffffffffffffff16612bae909392919063ffffffff16565b610fba8b348901600260009054906101000a900473ffffffffffffffffffffffffffffffffffffffff1673ffffffffffffffffffffffffffffffffffffffff16612cfc9092919063ffffffff16565b600260009054906101000a900473ffffffffffffffffffffffffffffffffffffffff1691508173ffffffffffffffffffffffffffffffffffffffff166304433bbc6040518163ffffffff167c010000000000000000000000000000000000000000000000000000000002815260040180806020018281038252600c8152602001807f46756e64696e675661756c740000000000000000000000000000000000000000815250602001915050602060405180830381600087803b15801561107f57600080fd5b505af1158015611093573d6000803e3d6000fd5b505050506040513d60208110156110a957600080fd5b810190808051906020019092919050505090508073ffffffffffffffffffffffffffffffffffffffff1663439370b1346040518263ffffffff167c01000000000000000000000000000000000000000000000000000000000281526004016000604051808303818588803b15801561112057600080fd5b505af1158015611134573d6000803e3d6000fd5b50505050505050505050505050505050565b60008273ffffffffffffffffffffffffffffffffffffffff1663bd02d0f58360405160200180807f70726f6a6563742e737461747573000000000000000000000000000000000000815250600e018281526020019150506040516020818303038152906040526040518082805190602001908083835b6020831015156111e157805182526020820191506020810190506020830392506111bc565b6001836020036101000a03801982511681845116808217855250505050505090500191505060405180910390206040518263ffffffff167c0100000000000000000000000000000000000000000000000000000000028152600401808260001916600019168152602001915050602060405180830381600087803b15801561126857600080fd5b505af115801561127c573d6000803e3d6000fd5b505050506040513d602081101561129257600080fd5b8101908080519060200190929190505050905092915050565b60008273ffffffffffffffffffffffffffffffffffffffff1663bd02d0f58360405160200180807f636f6e747269627574696f6e2e636f6e7472696275746f724d61700000000000815250601b018273ffffffffffffffffffffffffffffffffffffffff1673ffffffffffffffffffffffffffffffffffffffff166c010000000000000000000000000281526014019150506040516020818303038152906040526040518082805190602001908083835b602083101515611381578051825260208201915060208101905060208303925061135c565b6001836020036101000a03801982511681845116808217855250505050505090500191505060405180910390206040518263ffffffff167c0100000000000000000000000000000000000000000000000000000000028152600401808260001916600019168152602001915050602060405180830381600087803b15801561140857600080fd5b505af115801561141c573d6000803e3d6000fd5b505050506040513d602081101561143257600080fd5b8101908080519060200190929190505050905092915050565b60008373ffffffffffffffffffffffffffffffffffffffff16637ae1cfca848460405160200180807f636f6e7472696275746f722e636f6e7472696275746573546f50726f6a656374815250602001838152602001828152602001925050506040516020818303038152906040526040518082805190602001908083835b6020831015156114ee57805182526020820191506020810190506020830392506114c9565b6001836020036101000a03801982511681845116808217855250505050505090500191505060405180910390206040518263ffffffff167c0100000000000000000000000000000000000000000000000000000000028152600401808260001916600019168152602001915050602060405180830381600087803b15801561157557600080fd5b505af1158015611589573d6000803e3d6000fd5b505050506040513d602081101561159f57600080fd5b810190808051906020019092919050505090509392505050565b60008373ffffffffffffffffffffffffffffffffffffffff1663bd02d0f5848460405160200180807f636f6e747269627574696f6e2e636f6e747269627574696f6e416d6f756e7400815250601f01838152602001828152602001925050506040516020818303038152906040526040518082805190602001908083835b60208310151561165c5780518252602082019150602081019050602083039250611637565b6001836020036101000a03801982511681845116808217855250505050505090500191505060405180910390206040518263ffffffff167c0100000000000000000000000000000000000000000000000000000000028152600401808260001916600019168152602001915050602060405180830381600087803b1580156116e357600080fd5b505af11580156116f7573d6000803e3d6000fd5b505050506040513d602081101561170d57600080fd5b810190808051906020019092919050505090509392505050565b60008173ffffffffffffffffffffffffffffffffffffffff1663bd02d0f560405180807f636f6e747269627574696f6e2e6e657874436f6e7472696275746f7249640000815250601e01905060405180910390206040518263ffffffff167c0100000000000000000000000000000000000000000000000000000000028152600401808260001916600019168152602001915050602060405180830381600087803b1580156117d557600080fd5b505af11580156117e9573d6000803e3d6000fd5b505050506040513d60208110156117ff57600080fd5b810190808051906020019092919050505090508173ffffffffffffffffffffffffffffffffffffffff1663e2a4853a60405180807f636f6e747269627574696f6e2e6e657874436f6e7472696275746f7249640000815250601e0190506040518091039020600184016040518363ffffffff167c010000000000000000000000000000000000000000000000000000000002815260040180836000191660001916815260200182815260200192505050600060405180830381600087803b1580156118c957600080fd5b505af11580156118dd573d6000803e3d6000fd5b505050505050565b60008273ffffffffffffffffffffffffffffffffffffffff1663bd02d0f58360405160200180807f636f6e747269627574696f6e2e66756e647352616973656400000000000000008152506018018281526020019150506040516020818303038152906040526040518082805190602001908083835b602083101515611980578051825260208201915060208101905060208303925061195b565b6001836020036101000a03801982511681845116808217855250505050505090500191505060405180910390206040518263ffffffff167c0100000000000000000000000000000000000000000000000000000000028152600401808260001916600019168152602001915050602060405180830381600087803b158015611a0757600080fd5b505af1158015611a1b573d6000803e3d6000fd5b505050506040513d6020811015611a3157600080fd5b8101908080519060200190929190505050905092915050565b60008273ffffffffffffffffffffffffffffffffffffffff1663bd02d0f58360405160200180807f70726f6a6563742e636f6e747269627574696f6e506572696f64000000000000815250601a018281526020019150506040516020818303038152906040526040518082805190602001908083835b602083101515611ae55780518252602082019150602081019050602083039250611ac0565b6001836020036101000a03801982511681845116808217855250505050505090500191505060405180910390206040518263ffffffff167c0100000000000000000000000000000000000000000000000000000000028152600401808260001916600019168152602001915050602060405180830381600087803b158015611b6c57600080fd5b505af1158015611b80573d6000803e3d6000fd5b505050506040513d6020811015611b9657600080fd5b8101908080519060200190929190505050905092915050565b60008273ffffffffffffffffffffffffffffffffffffffff1663bd02d0f58360405160200180807f636f6e747269627574696f6e2e636f6e747269627574696f6e506572696f645381526020017f74617274000000000000000000000000000000000000000000000000000000008152506024018281526020019150506040516020818303038152906040526040518082805190602001908083835b602083101515611c705780518252602082019150602081019050602083039250611c4b565b6001836020036101000a03801982511681845116808217855250505050505090500191505060405180910390206040518263ffffffff167c0100000000000000000000000000000000000000000000000000000000028152600401808260001916600019168152602001915050602060405180830381600087803b158015611cf757600080fd5b505af1158015611d0b573d6000803e3d6000fd5b505050506040513d6020811015611d2157600080fd5b8101908080519060200190929190505050905092915050565b60008060009054906101000a900460ff16611d555742611d59565b6001545b905090565b60008273ffffffffffffffffffffffffffffffffffffffff1663bd02d0f58360405160200180807f70726f6a6563742e6d6178436f6e747269627574696f6e476f616c0000000000815250601b018281526020019150506040516020818303038152906040526040518082805190602001908083835b602083101515611df95780518252602082019150602081019050602083039250611dd4565b6001836020036101000a03801982511681845116808217855250505050505090500191505060405180910390206040518263ffffffff167c0100000000000000000000000000000000000000000000000000000000028152600401808260001916600019168152602001915050602060405180830381600087803b158015611e8057600080fd5b505af1158015611e94573d6000803e3d6000fd5b505050506040513d6020811015611eaa57600080fd5b8101908080519060200190929190505050905092915050565b600080611ecf83612e41565b9050611eda83611727565b80915050919050565b8273ffffffffffffffffffffffffffffffffffffffff1663e2a4853a8360405160200180807f636f6e747269627574696f6e2e636f6e7472696275746f724d61700000000000815250601b018273ffffffffffffffffffffffffffffffffffffffff1673ffffffffffffffffffffffffffffffffffffffff166c010000000000000000000000000281526014019150506040516020818303038152906040526040518082805190602001908083835b602083101515611fb75780518252602082019150602081019050602083039250611f92565b6001836020036101000a0380198251168184511680821785525050505050509050019150506040518091039020836040518363ffffffff167c010000000000000000000000000000000000000000000000000000000002815260040180836000191660001916815260200182815260200192505050600060405180830381600087803b15801561204657600080fd5b505af115801561205a573d6000803e3d6000fd5b50505050505050565b8273ffffffffffffffffffffffffffffffffffffffff1663ca446dd98360405160200180807f636f6e7472696275746f722e61646472657373000000000000000000000000008152506013018281526020019150506040516020818303038152906040526040518082805190602001908083835b6020831015156120fc57805182526020820191506020810190506020830392506120d7565b6001836020036101000a0380198251168184511680821785525050505050509050019150506040518091039020836040518363ffffffff167c01000000000000000000000000000000000000000000000000000000000281526004018083600019166000191681526020018273ffffffffffffffffffffffffffffffffffffffff1673ffffffffffffffffffffffffffffffffffffffff16815260200192505050600060405180830381600087803b1580156121b757600080fd5b505af11580156121cb573d6000803e3d6000fd5b50505050505050565b8373ffffffffffffffffffffffffffffffffffffffff1663abfdcced848460405160200180807f636f6e7472696275746f722e636f6e7472696275746573546f50726f6a656374815250602001838152602001828152602001925050506040516020818303038152906040526040518082805190602001908083835b6020831015156122755780518252602082019150602081019050602083039250612250565b6001836020036101000a0380198251168184511680821785525050505050509050019150506040518091039020836040518363ffffffff167c01000000000000000000000000000000000000000000000000000000000281526004018083600019166000191681526020018215151515815260200192505050600060405180830381600087803b15801561230857600080fd5b505af115801561231c573d6000803e3d6000fd5b5050505050505050565b60008273ffffffffffffffffffffffffffffffffffffffff1663bd02d0f58360405160200180807f636f6e7472696275746f722e66756e64656450726f6a656374732e6c656e677481526020017f68000000000000000000000000000000000000000000000000000000000000008152506021018281526020019150506040516020818303038152906040526040518082805190602001908083835b6020831015156123e757805182526020820191506020810190506020830392506123c2565b6001836020036101000a03801982511681845116808217855250505050505090500191505060405180910390206040518263ffffffff167c0100000000000000000000000000000000000000000000000000000000028152600401808260001916600019168152602001915050602060405180830381600087803b15801561246e57600080fd5b505af1158015612482573d6000803e3d6000fd5b505050506040513d602081101561249857600080fd5b8101908080519060200190929190505050905092915050565b8373ffffffffffffffffffffffffffffffffffffffff1663e2a4853a838560405160200180807f636f6e7472696275746f722e66756e64656450726f6a65637473000000000000815250601a01838152602001828152602001925050506040516020818303038152906040526040518082805190602001908083835b602083101515612552578051825260208201915060208101905060208303925061252d565b6001836020036101000a0380198251168184511680821785525050505050509050019150506040518091039020836040518363ffffffff167c010000000000000000000000000000000000000000000000000000000002815260040180836000191660001916815260200182815260200192505050600060405180830381600087803b1580156125e157600080fd5b505af11580156125f5573d6000803e3d6000fd5b5050505050505050565b8273ffffffffffffffffffffffffffffffffffffffff1663e2a4853a8360405160200180807f636f6e7472696275746f722e66756e64656450726f6a656374732e6c656e677481526020017f68000000000000000000000000000000000000000000000000000000000000008152506021018281526020019150506040516020818303038152906040526040518082805190602001908083835b6020831015156126be5780518252602082019150602081019050602083039250612699565b6001836020036101000a0380198251168184511680821785525050505050509050019150506040518091039020836040518363ffffffff167c010000000000000000000000000000000000000000000000000000000002815260040180836000191660001916815260200182815260200192505050600060405180830381600087803b15801561274d57600080fd5b505af1158015612761573d6000803e3d6000fd5b50505050505050565b60008273ffffffffffffffffffffffffffffffffffffffff1663bd02d0f58360405160200180807f636f6e747269627574696f6e2e636f6e7472696275746f724c6973742e6c656e81526020017f67746800000000000000000000000000000000000000000000000000000000008152506023018281526020019150506040516020818303038152906040526040518082805190602001908083835b60208310151561282b5780518252602082019150602081019050602083039250612806565b6001836020036101000a03801982511681845116808217855250505050505090500191505060405180910390206040518263ffffffff167c0100000000000000000000000000000000000000000000000000000000028152600401808260001916600019168152602001915050602060405180830381600087803b1580156128b257600080fd5b505af11580156128c6573d6000803e3d6000fd5b505050506040513d60208110156128dc57600080fd5b8101908080519060200190929190505050905092915050565b8373ffffffffffffffffffffffffffffffffffffffff1663e2a4853a848460405160200180807f636f6e747269627574696f6e2e636f6e7472696275746f724c69737400000000815250601c01838152602001828152602001925050506040516020818303038152906040526040518082805190602001908083835b6020831015156129965780518252602082019150602081019050602083039250612971565b6001836020036101000a0380198251168184511680821785525050505050509050019150506040518091039020836040518363ffffffff167c010000000000000000000000000000000000000000000000000000000002815260040180836000191660001916815260200182815260200192505050600060405180830381600087803b158015612a2557600080fd5b505af1158015612a39573d6000803e3d6000fd5b5050505050505050565b8273ffffffffffffffffffffffffffffffffffffffff1663e2a4853a8360405160200180807f636f6e747269627574696f6e2e636f6e7472696275746f724c6973742e6c656e81526020017f67746800000000000000000000000000000000000000000000000000000000008152506023018281526020019150506040516020818303038152906040526040518082805190602001908083835b602083101515612b025780518252602082019150602081019050602083039250612add565b6001836020036101000a0380198251168184511680821785525050505050509050019150506040518091039020836040518363ffffffff167c010000000000000000000000000000000000000000000000000000000002815260040180836000191660001916815260200182815260200192505050600060405180830381600087803b158015612b9157600080fd5b505af1158015612ba5573d6000803e3d6000fd5b50505050505050565b8373ffffffffffffffffffffffffffffffffffffffff1663e2a4853a848460405160200180807f636f6e747269627574696f6e2e636f6e747269627574696f6e416d6f756e7400815250601f01838152602001828152602001925050506040516020818303038152906040526040518082805190602001908083835b602083101515612c4f5780518252602082019150602081019050602083039250612c2a565b6001836020036101000a0380198251168184511680821785525050505050509050019150506040518091039020836040518363ffffffff167c010000000000000000000000000000000000000000000000000000000002815260040180836000191660001916815260200182815260200192505050600060405180830381600087803b158015612cde57600080fd5b505af1158015612cf2573d6000803e3d6000fd5b5050505050505050565b8273ffffffffffffffffffffffffffffffffffffffff1663e2a4853a8360405160200180807f636f6e747269627574696f6e2e66756e647352616973656400000000000000008152506018018281526020019150506040516020818303038152906040526040518082805190602001908083835b602083101515612d955780518252602082019150602081019050602083039250612d70565b6001836020036101000a0380198251168184511680821785525050505050509050019150506040518091039020836040518363ffffffff167c010000000000000000000000000000000000000000000000000000000002815260040180836000191660001916815260200182815260200192505050600060405180830381600087803b158015612e2457600080fd5b505af1158015612e38573d6000803e3d6000fd5b50505050505050565b60008173ffffffffffffffffffffffffffffffffffffffff1663bd02d0f560405180807f636f6e747269627574696f6e2e6e657874436f6e7472696275746f7249640000815250601e01905060405180910390206040518263ffffffff167c0100000000000000000000000000000000000000000000000000000000028152600401808260001916600019168152602001915050602060405180830381600087803b158015612eef57600080fd5b505af1158015612f03573d6000803e3d6000fd5b505050506040513d6020811015612f1957600080fd5b810190808051906020019092919050505090509190505600a165627a7a72305820725aad25d43e026d89afbe1a5bcdd3a03218348d8f17c06930147315140e19290029",
  "source": "pragma solidity ^0.4.24;\n\nimport \"./libraries/storage/ContributionStorageAccess.sol\";\nimport \"./libraries/storage/ProjectStorageAccess.sol\";\nimport \"./FundingVault.sol\";\nimport \"./project/ProjectBase.sol\";\n\ncontract Contribution is Testable {\n\n    using ContributionStorageAccess for address;\n    using ProjectStorageAccess for address;\n\n    address public fundingStorage;\n    bool private inTest;\n\n    event ContributorCreated(address contributorAddress, uint contributorId);\n\n    constructor(address _fundingStorage, bool _inTest) public Testable(_inTest) {\n        fundingStorage = _fundingStorage;\n    }\n\n    function () public payable {\n        revert();\n    }\n\n    function initialize() external {\n        require(FundingStorage(fundingStorage).getContractIsValid(this), \"This contract is not registered in FundingStorage.\");\n\n        // reserve contributorId 0\n        fundingStorage.incrementNextContributorId();\n    }\n\n    function contributeToProject(uint _projectId) external payable {\n        // Contribution must have value\n        require(msg.value > 0);\n        // Project must be accepting contributions\n        require(fundingStorage.getProjectStatus(_projectId) == uint(ProjectBase.Status.Contributable), \"Project is not accepting contributions.\");\n        // It must be within the contribution period set by the developer\n        uint contributionPeriod = fundingStorage.getProjectContributionPeriod(_projectId);\n        uint periodStart = fundingStorage.getProjectContributionPeriodStart(_projectId);\n        require(getCurrentTime() <= periodStart + contributionPeriod * 1 weeks);\n        // The maximum contribution goal must not be reached\n        uint maxGoal = fundingStorage.getProjectMaxContributionGoal(_projectId);\n        uint currentFunds = fundingStorage.getProjectFundsRaised(_projectId);\n        require(currentFunds + msg.value <= maxGoal);\n\n        uint contributorId = fundingStorage.getContributorId(msg.sender);\n\n        // if contributor doesn't exist, create it\n        if (contributorId == 0) {\n            contributorId = fundingStorage.generateNewContributorId();\n\n            fundingStorage.setContributorId(msg.sender, contributorId);\n            fundingStorage.setContributorAddress(contributorId, msg.sender);\n\n            emit ContributorCreated(msg.sender, contributorId);\n        }\n\n        // if project is not in contributor's project list, add it\n        if (!fundingStorage.getContributesToProject(contributorId, _projectId)) {\n            fundingStorage.setContributesToProject(contributorId, _projectId, true);\n            uint index = fundingStorage.getContributorFundedProjectsLength(contributorId);\n            fundingStorage.setContributorFundedProject(contributorId, index, _projectId);\n            fundingStorage.setContributorFundedProjectsLength(contributorId, index + 1);\n        }\n\n        uint currentContribution = fundingStorage.getContributionAmount(_projectId, contributorId);\n\n        // add to projectContributorList, if not already present\n        if (currentContribution == 0) {\n            uint length = fundingStorage.getProjectContributorListLength(_projectId);\n            fundingStorage.setProjectContributor(_projectId, length, contributorId);\n            fundingStorage.setProjectContributorListLength(_projectId, length + 1);\n        }\n\n        // add contribution amount to project\n        fundingStorage.setContributionAmount(_projectId, contributorId, currentContribution + msg.value);\n        fundingStorage.setProjectFundsRaised(_projectId, currentFunds + msg.value);\n\n        FundingStorage fs = FundingStorage(fundingStorage);\n        FundingVault fv = FundingVault(fs.getContractAddress(\"FundingVault\"));\n        fv.depositEth.value(msg.value)();\n    }\n\n    function refund(uint _projectId) external {\n        require(fundingStorage.getProjectStatus(_projectId) == uint(ProjectBase.Status.Refundable), \"This project is not refundable.\");\n        uint contributorId = fundingStorage.getContributorId(msg.sender);\n        require(fundingStorage.getContributesToProject(contributorId, _projectId), \"This address has not contributed to this project.\");\n\n        uint contributedAmount = fundingStorage.getContributionAmount(_projectId, contributorId);\n\n        FundingStorage fs = FundingStorage(fundingStorage);\n        FundingVault fv = FundingVault(fs.getContractAddress(\"FundingVault\"));\n        fv.withdrawEth(contributedAmount, msg.sender);\n    }\n\n    function getProjectFundsRaised(uint _projectId) external view returns (uint) {\n        return fundingStorage.getProjectFundsRaised(_projectId);\n    }\n}\n",
  "sourcePath": "/home/jordan/Projects/hyperbridge/funding-protocol/smart-contracts/ethereum/contracts/Contribution.sol",
  "compiler": {
    "name": "solc",
    "version": "0.4.24+commit.e67f0147.Emscripten.clang"
  },
  "schemaVersion": "2.0.1",
  "updatedAt": "2018-07-26T16:56:23.267Z"
}