{
  "contractName": "Curation",
  "abi": [
    {
      "constant": true,
      "inputs": [],
      "name": "fundingStorage",
      "outputs": [
        {
          "name": "",
          "type": "address"
        }
      ],
      "payable": false,
      "stateMutability": "view",
      "type": "function"
    },
    {
      "constant": false,
      "inputs": [
        {
          "name": "_time",
          "type": "uint256"
        }
      ],
      "name": "setTestTime",
      "outputs": [],
      "payable": false,
      "stateMutability": "nonpayable",
      "type": "function"
    },
    {
      "constant": false,
      "inputs": [],
      "name": "renounceOwnership",
      "outputs": [],
      "payable": false,
      "stateMutability": "nonpayable",
      "type": "function"
    },
    {
      "constant": true,
      "inputs": [],
      "name": "owner",
      "outputs": [
        {
          "name": "",
          "type": "address"
        }
      ],
      "payable": false,
      "stateMutability": "view",
      "type": "function"
    },
    {
      "constant": false,
      "inputs": [
        {
          "name": "_newOwner",
          "type": "address"
        }
      ],
      "name": "transferOwnership",
      "outputs": [],
      "payable": false,
      "stateMutability": "nonpayable",
      "type": "function"
    },
    {
      "inputs": [
        {
          "name": "_fundingStorage",
          "type": "address"
        },
        {
          "name": "_inTest",
          "type": "bool"
        }
      ],
      "payable": false,
      "stateMutability": "nonpayable",
      "type": "constructor"
    },
    {
      "payable": true,
      "stateMutability": "payable",
      "type": "fallback"
    },
    {
      "anonymous": false,
      "inputs": [
        {
          "indexed": false,
          "name": "curatorAddress",
          "type": "address"
        },
        {
          "indexed": false,
          "name": "curatorId",
          "type": "uint256"
        }
      ],
      "name": "CuratorCreated",
      "type": "event"
    },
    {
      "anonymous": false,
      "inputs": [
        {
          "indexed": true,
          "name": "previousOwner",
          "type": "address"
        }
      ],
      "name": "OwnershipRenounced",
      "type": "event"
    },
    {
      "anonymous": false,
      "inputs": [
        {
          "indexed": true,
          "name": "previousOwner",
          "type": "address"
        },
        {
          "indexed": true,
          "name": "newOwner",
          "type": "address"
        }
      ],
      "name": "OwnershipTransferred",
      "type": "event"
    },
    {
      "constant": false,
      "inputs": [],
      "name": "initialize",
      "outputs": [],
      "payable": false,
      "stateMutability": "nonpayable",
      "type": "function"
    },
    {
      "constant": false,
      "inputs": [],
      "name": "createCurator",
      "outputs": [],
      "payable": false,
      "stateMutability": "nonpayable",
      "type": "function"
    },
    {
      "constant": false,
      "inputs": [
        {
          "name": "_projectId",
          "type": "uint256"
        },
        {
          "name": "_isApproved",
          "type": "bool"
        }
      ],
      "name": "curate",
      "outputs": [],
      "payable": false,
      "stateMutability": "nonpayable",
      "type": "function"
    },
    {
      "constant": false,
      "inputs": [
        {
          "name": "_projectId",
          "type": "uint256"
        }
      ],
      "name": "publishProject",
      "outputs": [],
      "payable": false,
      "stateMutability": "nonpayable",
      "type": "function"
    },
    {
      "constant": true,
      "inputs": [
        {
          "name": "_projectId",
          "type": "uint256"
        }
      ],
      "name": "getDraftCuration",
      "outputs": [
        {
          "name": "timestamp",
          "type": "uint256"
        },
        {
          "name": "approvalCount",
          "type": "uint256"
        },
        {
          "name": "isActive",
          "type": "bool"
        }
      ],
      "payable": false,
      "stateMutability": "view",
      "type": "function"
    },
    {
      "constant": true,
      "inputs": [],
      "name": "getCurationThreshold",
      "outputs": [
        {
          "name": "threshold",
          "type": "uint256"
        }
      ],
      "payable": false,
      "stateMutability": "view",
      "type": "function"
    },
    {
      "constant": false,
      "inputs": [
        {
          "name": "_threshold",
          "type": "uint256"
        }
      ],
      "name": "setCurationThreshold",
      "outputs": [],
      "payable": false,
      "stateMutability": "nonpayable",
      "type": "function"
    }
  ],
  "bytecode": "0x608060405234801561001057600080fd5b50604051604080612783833981018060405281019080805190602001909291908051906020019092919050505080336000806101000a81548173ffffffffffffffffffffffffffffffffffffffff021916908373ffffffffffffffffffffffffffffffffffffffff16021790555080600060146101000a81548160ff0219169083151502179055505081600260006101000a81548173ffffffffffffffffffffffffffffffffffffffff021916908373ffffffffffffffffffffffffffffffffffffffff1602179055505050612698806100eb6000396000f3006080604052600436106100ba576000357c0100000000000000000000000000000000000000000000000000000000900463ffffffff168063038edaa4146100bf578063097c7406146101165780632d299f8f146101435780632d9a6af2146101965780632ee16055146101cf578063302096bd146101e657806364a4277a14610213578063684af2ab14610240578063715018a61461026b5780638129fc1c146102825780638da5cb5b14610299578063f2fde38b146102f0575b600080fd5b3480156100cb57600080fd5b506100d4610333565b604051808273ffffffffffffffffffffffffffffffffffffffff1673ffffffffffffffffffffffffffffffffffffffff16815260200191505060405180910390f35b34801561012257600080fd5b5061014160048036038101908080359060200190929190505050610359565b005b34801561014f57600080fd5b5061016e6004803603810190808035906020019092919050505061037e565b6040518084815260200183815260200182151515158152602001935050505060405180910390f35b3480156101a257600080fd5b506101cd600480360381019080803590602001909291908035151590602001909291905050506103f5565b005b3480156101db57600080fd5b506101e46106dd565b005b3480156101f257600080fd5b50610211600480360381019080803590602001909291905050506108c4565b005b34801561021f57600080fd5b5061023e6004803603810190808035906020019092919050505061096d565b005b34801561024c57600080fd5b50610255610e4d565b6040518082815260200191505060405180910390f35b34801561027757600080fd5b50610280610e95565b005b34801561028e57600080fd5b50610297610f97565b005b3480156102a557600080fd5b506102ae61116c565b604051808273ffffffffffffffffffffffffffffffffffffffff1673ffffffffffffffffffffffffffffffffffffffff16815260200191505060405180910390f35b3480156102fc57600080fd5b50610331600480360381019080803573ffffffffffffffffffffffffffffffffffffffff169060200190929190505050611191565b005b600260009054906101000a900473ffffffffffffffffffffffffffffffffffffffff1681565b600060149054906101000a900460ff16151561037457600080fd5b8060018190555050565b600080600061038b612648565b6103d685600260009054906101000a900473ffffffffffffffffffffffffffffffffffffffff1673ffffffffffffffffffffffffffffffffffffffff166111f890919063ffffffff16565b9050806000015181602001518260400151935093509350509193909250565b600080600061044533600260009054906101000a900473ffffffffffffffffffffffffffffffffffffffff1673ffffffffffffffffffffffffffffffffffffffff1661125e90919063ffffffff16565b141515156104e1576040517f08c379a000000000000000000000000000000000000000000000000000000000815260040180806020018281038252602d8152602001807f596f75206d75737420626520612063757261746f7220746f20706572666f726d81526020017f207468697320616374696f6e2e0000000000000000000000000000000000000081525060400191505060405180910390fd5b61052c84600260009054906101000a900473ffffffffffffffffffffffffffffffffffffffff1673ffffffffffffffffffffffffffffffffffffffff166113fe90919063ffffffff16565b15156105c6576040517f08c379a00000000000000000000000000000000000000000000000000000000081526004018080602001828103825260268152602001807f546869732070726f6a656374206973206e6f74206f70656e20666f722063757281526020017f6174696f6e2e000000000000000000000000000000000000000000000000000081525060400191505060405180910390fd5b61061184600260009054906101000a900473ffffffffffffffffffffffffffffffffffffffff1673ffffffffffffffffffffffffffffffffffffffff1661156390919063ffffffff16565b9150821561066e576106698460018401600260009054906101000a900473ffffffffffffffffffffffffffffffffffffffff1673ffffffffffffffffffffffffffffffffffffffff166116ee9092919063ffffffff16565b6106d7565b60008211610680576000905080610688565b600182039050805b506106d68482600260009054906101000a900473ffffffffffffffffffffffffffffffffffffffff1673ffffffffffffffffffffffffffffffffffffffff166116ee9092919063ffffffff16565b5b50505050565b60008061072b33600260009054906101000a900473ffffffffffffffffffffffffffffffffffffffff1673ffffffffffffffffffffffffffffffffffffffff1661125e90919063ffffffff16565b1415156107c6576040517f08c379a00000000000000000000000000000000000000000000000000000000081526004018080602001828103825260228152602001807f54686973206163636f756e7420697320616c726561647920612063757261746f81526020017f722e00000000000000000000000000000000000000000000000000000000000081525060400191505060405180910390fd5b610807600260009054906101000a900473ffffffffffffffffffffffffffffffffffffffff1673ffffffffffffffffffffffffffffffffffffffff16611859565b90506108563382600260009054906101000a900473ffffffffffffffffffffffffffffffffffffffff1673ffffffffffffffffffffffffffffffffffffffff166118799092919063ffffffff16565b7f11ab45339bcb875e5476c8f849dc44c8eb9d188a7b2f91812fc91d0e25ab5d933382604051808373ffffffffffffffffffffffffffffffffffffffff1673ffffffffffffffffffffffffffffffffffffffff1681526020018281526020019250505060405180910390a150565b6000809054906101000a900473ffffffffffffffffffffffffffffffffffffffff1673ffffffffffffffffffffffffffffffffffffffff163373ffffffffffffffffffffffffffffffffffffffff1614151561091f57600080fd5b61096a81600260009054906101000a900473ffffffffffffffffffffffffffffffffffffffff1673ffffffffffffffffffffffffffffffffffffffff166119f990919063ffffffff16565b50565b600080823373ffffffffffffffffffffffffffffffffffffffff166109d382600260009054906101000a900473ffffffffffffffffffffffffffffffffffffffff1673ffffffffffffffffffffffffffffffffffffffff16611ac990919063ffffffff16565b73ffffffffffffffffffffffffffffffffffffffff16141515610a84576040517f08c379a00000000000000000000000000000000000000000000000000000000081526004018080602001828103825260398152602001807f596f75206d757374206265207468652070726f6a65637420646576656c6f706581526020017f7220746f20706572666f726d207468697320616374696f6e2e0000000000000081525060400191505060405180910390fd5b610acf84600260009054906101000a900473ffffffffffffffffffffffffffffffffffffffff1673ffffffffffffffffffffffffffffffffffffffff166113fe90919063ffffffff16565b1515610b69576040517f08c379a00000000000000000000000000000000000000000000000000000000081526004018080602001828103825260268152602001807f546869732070726f6a656374206973206e6f74206f70656e20666f722063757281526020017f6174696f6e2e000000000000000000000000000000000000000000000000000081525060400191505060405180910390fd5b6224ea00610bb885600260009054906101000a900473ffffffffffffffffffffffffffffffffffffffff1673ffffffffffffffffffffffffffffffffffffffff16611c2e90919063ffffffff16565b01610bc1611d93565b111515610c5c576040517f08c379a000000000000000000000000000000000000000000000000000000000815260040180806020018281038252602b8152602001807f5468652070726f6a656374206375726174696f6e2077696e646f77206861732081526020017f6e6f7420636c6f7365642e00000000000000000000000000000000000000000081525060400191505060405180910390fd5b610ca784600260009054906101000a900473ffffffffffffffffffffffffffffffffffffffff1673ffffffffffffffffffffffffffffffffffffffff1661156390919063ffffffff16565b9250610cea600260009054906101000a900473ffffffffffffffffffffffffffffffffffffffff1673ffffffffffffffffffffffffffffffffffffffff16611db7565b91508183101515610da057610d4e8460036006811115610d0657fe5b600260009054906101000a900473ffffffffffffffffffffffffffffffffffffffff1673ffffffffffffffffffffffffffffffffffffffff16611ea79092919063ffffffff16565b610d9b8442600260009054906101000a900473ffffffffffffffffffffffffffffffffffffffff1673ffffffffffffffffffffffffffffffffffffffff16611fec9092919063ffffffff16565b610df9565b610df884600680811115610db057fe5b600260009054906101000a900473ffffffffffffffffffffffffffffffffffffffff1673ffffffffffffffffffffffffffffffffffffffff16611ea79092919063ffffffff16565b5b610e47846000600260009054906101000a900473ffffffffffffffffffffffffffffffffffffffff1673ffffffffffffffffffffffffffffffffffffffff166121579092919063ffffffff16565b50505050565b6000610e90600260009054906101000a900473ffffffffffffffffffffffffffffffffffffffff1673ffffffffffffffffffffffffffffffffffffffff16611db7565b905090565b6000809054906101000a900473ffffffffffffffffffffffffffffffffffffffff1673ffffffffffffffffffffffffffffffffffffffff163373ffffffffffffffffffffffffffffffffffffffff16141515610ef057600080fd5b6000809054906101000a900473ffffffffffffffffffffffffffffffffffffffff1673ffffffffffffffffffffffffffffffffffffffff167ff8df31144d9c2f0f6b59d69b8b98abd5459d07f2742c4df920b25aae33c6482060405160405180910390a260008060006101000a81548173ffffffffffffffffffffffffffffffffffffffff021916908373ffffffffffffffffffffffffffffffffffffffff160217905550565b600260009054906101000a900473ffffffffffffffffffffffffffffffffffffffff1673ffffffffffffffffffffffffffffffffffffffff1663043c2677306040518263ffffffff167c0100000000000000000000000000000000000000000000000000000000028152600401808273ffffffffffffffffffffffffffffffffffffffff1673ffffffffffffffffffffffffffffffffffffffff168152602001915050602060405180830381600087803b15801561105457600080fd5b505af1158015611068573d6000803e3d6000fd5b505050506040513d602081101561107e57600080fd5b81019080805190602001909291905050501515611129576040517f08c379a00000000000000000000000000000000000000000000000000000000081526004018080602001828103825260328152602001807f5468697320636f6e7472616374206973206e6f7420726567697374657265642081526020017f696e2046756e64696e6753746f726167652e000000000000000000000000000081525060400191505060405180910390fd5b61116a600260009054906101000a900473ffffffffffffffffffffffffffffffffffffffff1673ffffffffffffffffffffffffffffffffffffffff166122a0565b565b6000809054906101000a900473ffffffffffffffffffffffffffffffffffffffff1681565b6000809054906101000a900473ffffffffffffffffffffffffffffffffffffffff1673ffffffffffffffffffffffffffffffffffffffff163373ffffffffffffffffffffffffffffffffffffffff161415156111ec57600080fd5b6111f58161245e565b50565b611200612648565b600080600061120d612648565b6112178787611c2e565b93506112238787611563565b925061122f87876113fe565b915060606040519081016040528085815260200184815260200183151581525090508094505050505092915050565b60008273ffffffffffffffffffffffffffffffffffffffff1663bd02d0f58360405160200180807f6375726174696f6e2e63757261746f724d6170000000000000000000000000008152506013018273ffffffffffffffffffffffffffffffffffffffff1673ffffffffffffffffffffffffffffffffffffffff166c010000000000000000000000000281526014019150506040516020818303038152906040526040518082805190602001908083835b602083101515611334578051825260208201915060208101905060208303925061130f565b6001836020036101000a03801982511681845116808217855250505050505090500191505060405180910390206040518263ffffffff167c0100000000000000000000000000000000000000000000000000000000028152600401808260001916600019168152602001915050602060405180830381600087803b1580156113bb57600080fd5b505af11580156113cf573d6000803e3d6000fd5b505050506040513d60208110156113e557600080fd5b8101908080519060200190929190505050905092915050565b60008273ffffffffffffffffffffffffffffffffffffffff16637ae1cfca8360405160200180807f6375726174696f6e2e64726166744375726174696f6e2e697341637469766500815250601f018281526020019150506040516020818303038152906040526040518082805190602001908083835b6020831015156114995780518252602082019150602081019050602083039250611474565b6001836020036101000a03801982511681845116808217855250505050505090500191505060405180910390206040518263ffffffff167c0100000000000000000000000000000000000000000000000000000000028152600401808260001916600019168152602001915050602060405180830381600087803b15801561152057600080fd5b505af1158015611534573d6000803e3d6000fd5b505050506040513d602081101561154a57600080fd5b8101908080519060200190929190505050905092915050565b60008273ffffffffffffffffffffffffffffffffffffffff1663bd02d0f58360405160200180807f6375726174696f6e2e64726166744375726174696f6e2e617070726f76616c4381526020017f6f756e74000000000000000000000000000000000000000000000000000000008152506024018281526020019150506040516020818303038152906040526040518082805190602001908083835b60208310151561162457805182526020820191506020810190506020830392506115ff565b6001836020036101000a03801982511681845116808217855250505050505090500191505060405180910390206040518263ffffffff167c0100000000000000000000000000000000000000000000000000000000028152600401808260001916600019168152602001915050602060405180830381600087803b1580156116ab57600080fd5b505af11580156116bf573d6000803e3d6000fd5b505050506040513d60208110156116d557600080fd5b8101908080519060200190929190505050905092915050565b8273ffffffffffffffffffffffffffffffffffffffff1663e2a4853a8360405160200180807f6375726174696f6e2e64726166744375726174696f6e2e617070726f76616c4381526020017f6f756e74000000000000000000000000000000000000000000000000000000008152506024018281526020019150506040516020818303038152906040526040518082805190602001908083835b6020831015156117ad5780518252602082019150602081019050602083039250611788565b6001836020036101000a0380198251168184511680821785525050505050509050019150506040518091039020836040518363ffffffff167c010000000000000000000000000000000000000000000000000000000002815260040180836000191660001916815260200182815260200192505050600060405180830381600087803b15801561183c57600080fd5b505af1158015611850573d6000803e3d6000fd5b50505050505050565b60008061186583612558565b9050611870836122a0565b80915050919050565b8273ffffffffffffffffffffffffffffffffffffffff1663e2a4853a8360405160200180807f6375726174696f6e2e63757261746f724d6170000000000000000000000000008152506013018273ffffffffffffffffffffffffffffffffffffffff1673ffffffffffffffffffffffffffffffffffffffff166c010000000000000000000000000281526014019150506040516020818303038152906040526040518082805190602001908083835b60208310151561194d5780518252602082019150602081019050602083039250611928565b6001836020036101000a0380198251168184511680821785525050505050509050019150506040518091039020836040518363ffffffff167c010000000000000000000000000000000000000000000000000000000002815260040180836000191660001916815260200182815260200192505050600060405180830381600087803b1580156119dc57600080fd5b505af11580156119f0573d6000803e3d6000fd5b50505050505050565b8173ffffffffffffffffffffffffffffffffffffffff1663e2a4853a60405180807f6375726174696f6e2e6375726174696f6e5468726573686f6c64000000000000815250601a0190506040518091039020836040518363ffffffff167c010000000000000000000000000000000000000000000000000000000002815260040180836000191660001916815260200182815260200192505050600060405180830381600087803b158015611aad57600080fd5b505af1158015611ac1573d6000803e3d6000fd5b505050505050565b60008273ffffffffffffffffffffffffffffffffffffffff166321f8a7218360405160200180807f70726f6a6563742e646576656c6f7065720000000000000000000000000000008152506011018281526020019150506040516020818303038152906040526040518082805190602001908083835b602083101515611b645780518252602082019150602081019050602083039250611b3f565b6001836020036101000a03801982511681845116808217855250505050505090500191505060405180910390206040518263ffffffff167c0100000000000000000000000000000000000000000000000000000000028152600401808260001916600019168152602001915050602060405180830381600087803b158015611beb57600080fd5b505af1158015611bff573d6000803e3d6000fd5b505050506040513d6020811015611c1557600080fd5b8101908080519060200190929190505050905092915050565b60008273ffffffffffffffffffffffffffffffffffffffff1663bd02d0f58360405160200180807f6375726174696f6e2e64726166744375726174696f6e2e74696d657374616d708152506020018281526020019150506040516020818303038152906040526040518082805190602001908083835b602083101515611cc95780518252602082019150602081019050602083039250611ca4565b6001836020036101000a03801982511681845116808217855250505050505090500191505060405180910390206040518263ffffffff167c0100000000000000000000000000000000000000000000000000000000028152600401808260001916600019168152602001915050602060405180830381600087803b158015611d5057600080fd5b505af1158015611d64573d6000803e3d6000fd5b505050506040513d6020811015611d7a57600080fd5b8101908080519060200190929190505050905092915050565b60008060149054906101000a900460ff16611dae5742611db2565b6001545b905090565b60008173ffffffffffffffffffffffffffffffffffffffff1663bd02d0f560405180807f6375726174696f6e2e6375726174696f6e5468726573686f6c64000000000000815250601a01905060405180910390206040518263ffffffff167c0100000000000000000000000000000000000000000000000000000000028152600401808260001916600019168152602001915050602060405180830381600087803b158015611e6557600080fd5b505af1158015611e79573d6000803e3d6000fd5b505050506040513d6020811015611e8f57600080fd5b81019080805190602001909291905050509050919050565b8273ffffffffffffffffffffffffffffffffffffffff1663e2a4853a8360405160200180807f70726f6a6563742e737461747573000000000000000000000000000000000000815250600e018281526020019150506040516020818303038152906040526040518082805190602001908083835b602083101515611f405780518252602082019150602081019050602083039250611f1b565b6001836020036101000a0380198251168184511680821785525050505050509050019150506040518091039020836040518363ffffffff167c010000000000000000000000000000000000000000000000000000000002815260040180836000191660001916815260200182815260200192505050600060405180830381600087803b158015611fcf57600080fd5b505af1158015611fe3573d6000803e3d6000fd5b50505050505050565b8273ffffffffffffffffffffffffffffffffffffffff1663e2a4853a8360405160200180807f636f6e747269627574696f6e2e636f6e747269627574696f6e506572696f645381526020017f74617274000000000000000000000000000000000000000000000000000000008152506024018281526020019150506040516020818303038152906040526040518082805190602001908083835b6020831015156120ab5780518252602082019150602081019050602083039250612086565b6001836020036101000a0380198251168184511680821785525050505050509050019150506040518091039020836040518363ffffffff167c010000000000000000000000000000000000000000000000000000000002815260040180836000191660001916815260200182815260200192505050600060405180830381600087803b15801561213a57600080fd5b505af115801561214e573d6000803e3d6000fd5b50505050505050565b8273ffffffffffffffffffffffffffffffffffffffff1663abfdcced8360405160200180807f6375726174696f6e2e64726166744375726174696f6e2e697341637469766500815250601f018281526020019150506040516020818303038152906040526040518082805190602001908083835b6020831015156121f057805182526020820191506020810190506020830392506121cb565b6001836020036101000a0380198251168184511680821785525050505050509050019150506040518091039020836040518363ffffffff167c01000000000000000000000000000000000000000000000000000000000281526004018083600019166000191681526020018215151515815260200192505050600060405180830381600087803b15801561228357600080fd5b505af1158015612297573d6000803e3d6000fd5b50505050505050565b60008173ffffffffffffffffffffffffffffffffffffffff1663bd02d0f560405180807f6375726174696f6e2e6e65787443757261746f72496400000000000000000000815250601601905060405180910390206040518263ffffffff167c0100000000000000000000000000000000000000000000000000000000028152600401808260001916600019168152602001915050602060405180830381600087803b15801561234e57600080fd5b505af1158015612362573d6000803e3d6000fd5b505050506040513d602081101561237857600080fd5b810190808051906020019092919050505090508173ffffffffffffffffffffffffffffffffffffffff1663e2a4853a60405180807f6375726174696f6e2e6e65787443757261746f7249640000000000000000000081525060160190506040518091039020600184016040518363ffffffff167c010000000000000000000000000000000000000000000000000000000002815260040180836000191660001916815260200182815260200192505050600060405180830381600087803b15801561244257600080fd5b505af1158015612456573d6000803e3d6000fd5b505050505050565b600073ffffffffffffffffffffffffffffffffffffffff168173ffffffffffffffffffffffffffffffffffffffff161415151561249a57600080fd5b8073ffffffffffffffffffffffffffffffffffffffff166000809054906101000a900473ffffffffffffffffffffffffffffffffffffffff1673ffffffffffffffffffffffffffffffffffffffff167f8be0079c531659141344cd1fd0a4f28419497f9722a3daafe3b4186f6b6457e060405160405180910390a3806000806101000a81548173ffffffffffffffffffffffffffffffffffffffff021916908373ffffffffffffffffffffffffffffffffffffffff16021790555050565b60008173ffffffffffffffffffffffffffffffffffffffff1663bd02d0f560405180807f6375726174696f6e2e6e65787443757261746f72496400000000000000000000815250601601905060405180910390206040518263ffffffff167c0100000000000000000000000000000000000000000000000000000000028152600401808260001916600019168152602001915050602060405180830381600087803b15801561260657600080fd5b505af115801561261a573d6000803e3d6000fd5b505050506040513d602081101561263057600080fd5b81019080805190602001909291905050509050919050565b606060405190810160405280600081526020016000815260200160001515815250905600a165627a7a7230582069120393108c7a093e61f7d0d5c7785d93a137c7afe6f212fbcc40f224c8663b0029",
  "source": "pragma solidity ^0.4.24;\n\nimport \"./project/ProjectBase.sol\";\nimport \"./libraries/storage/CurationStorageAccess.sol\";\nimport \"./libraries/storage/ProjectStorageAccess.sol\";\nimport \"./libraries/storage/ContributionStorageAccess.sol\";\n\ncontract Curation is Ownable, Testable {\n\n    using CurationStorageAccess for address;\n    using ContributionStorageAccess for address;\n    using ProjectStorageAccess for address;\n\n    modifier onlyCurator() {\n        require(fundingStorage.getCuratorId(msg.sender) != 0, \"You must be a curator to perform this action.\");\n        _;\n    }\n\n    modifier onlyDeveloper(uint _projectId) {\n        require(fundingStorage.getProjectDeveloper(_projectId) == msg.sender, \"You must be the project developer to perform this action.\");\n        _;\n    }\n\n    address public fundingStorage;\n    bool private inTest;\n\n    event CuratorCreated(address curatorAddress, uint curatorId);\n\n    constructor(address _fundingStorage, bool _inTest) public Testable(_inTest) {\n        fundingStorage = _fundingStorage;\n    }\n    \n    function () public payable {\n        revert();\n    }\n\n    function initialize() external {\n        require(FundingStorage(fundingStorage).getContractIsValid(this), \"This contract is not registered in FundingStorage.\");\n\n        // reserve curatorId 0\n        fundingStorage.incrementNextCuratorId();\n    }\n\n    function createCurator() external {\n        require(fundingStorage.getCuratorId(msg.sender) == 0, \"This account is already a curator.\");\n\n        // Get next ID from storage + increment next ID\n        uint id = fundingStorage.generateNewCuratorId();\n\n        // Create developer\n        fundingStorage.setCuratorId(msg.sender, id);\n\n        emit CuratorCreated(msg.sender, id);\n    }\n\n    function curate(uint _projectId, bool _isApproved) external onlyCurator {\n        require(fundingStorage.getDraftCurationIsActive(_projectId), \"This project is not open for curation.\");\n\n        uint currentApprovalCount = fundingStorage.getDraftCurationApprovalCount(_projectId);\n\n        if (_isApproved) {\n            fundingStorage.setDraftCurationApprovalCount(_projectId, currentApprovalCount + 1);\n        } else {\n            uint newCount;\n            (currentApprovalCount > 0) ? newCount = currentApprovalCount - 1 : newCount = 0;\n            fundingStorage.setDraftCurationApprovalCount(_projectId, newCount);\n        }\n    }\n\n    function publishProject(uint _projectId) external onlyDeveloper(_projectId) {\n        require(fundingStorage.getDraftCurationIsActive(_projectId), \"This project is not open for curation.\");\n        require(getCurrentTime() > fundingStorage.getDraftCurationTimestamp(_projectId) + 4 weeks, \"The project curation window has not closed.\");\n\n        uint approvalCount = fundingStorage.getDraftCurationApprovalCount(_projectId);\n        uint curationThreshold = fundingStorage.getCurationThreshold();\n\n        if (approvalCount >= curationThreshold) {\n            fundingStorage.setProjectStatus(_projectId, uint(ProjectBase.Status.Contributable));\n            fundingStorage.setProjectContributionPeriodStart(_projectId, now);\n        } else {\n            fundingStorage.setProjectStatus(_projectId, uint(ProjectBase.Status.Rejected));\n        }\n\n        fundingStorage.setDraftCurationIsActive(_projectId, false);\n    }\n\n    function getDraftCuration(uint _projectId) external view returns (uint timestamp, uint approvalCount, bool isActive) {\n        CurationStorageAccess.DraftCuration memory draftCuration = fundingStorage.getDraftCuration(_projectId);\n\n        return (draftCuration.timestamp, draftCuration.approvalCount, draftCuration.isActive);\n    }\n\n    function getCurationThreshold() external view returns (uint threshold) {\n        threshold = fundingStorage.getCurationThreshold();\n    }\n\n    function setCurationThreshold(uint _threshold) external onlyOwner {\n        fundingStorage.setCurationThreshold(_threshold);\n    }\n}",
  "sourcePath": "/home/jordan/Projects/hyperbridge/funding-protocol/smart-contracts/ethereum/contracts/Curation.sol",
  "compiler": {
    "name": "solc",
    "version": "0.4.24+commit.e67f0147.Emscripten.clang"
  },
  "schemaVersion": "2.0.1",
  "updatedAt": "2018-07-26T16:56:23.285Z"
}