{
  "contractName": "Curation",
  "abi": [
    {
      "constant": true,
      "inputs": [],
      "name": "fundingStorage",
      "outputs": [
        {
          "name": "",
          "type": "address"
        }
      ],
      "payable": false,
      "stateMutability": "view",
      "type": "function"
    },
    {
      "constant": false,
      "inputs": [],
      "name": "renounceOwnership",
      "outputs": [],
      "payable": false,
      "stateMutability": "nonpayable",
      "type": "function"
    },
    {
      "constant": true,
      "inputs": [],
      "name": "owner",
      "outputs": [
        {
          "name": "",
          "type": "address"
        }
      ],
      "payable": false,
      "stateMutability": "view",
      "type": "function"
    },
    {
      "constant": false,
      "inputs": [
        {
          "name": "_newOwner",
          "type": "address"
        }
      ],
      "name": "transferOwnership",
      "outputs": [],
      "payable": false,
      "stateMutability": "nonpayable",
      "type": "function"
    },
    {
      "inputs": [
        {
          "name": "_fundingStorage",
          "type": "address"
        }
      ],
      "payable": false,
      "stateMutability": "nonpayable",
      "type": "constructor"
    },
    {
      "payable": true,
      "stateMutability": "payable",
      "type": "fallback"
    },
    {
      "anonymous": false,
      "inputs": [
        {
          "indexed": false,
          "name": "curatorAddress",
          "type": "address"
        },
        {
          "indexed": false,
          "name": "curatorId",
          "type": "uint256"
        }
      ],
      "name": "CuratorCreated",
      "type": "event"
    },
    {
      "anonymous": false,
      "inputs": [
        {
          "indexed": true,
          "name": "previousOwner",
          "type": "address"
        }
      ],
      "name": "OwnershipRenounced",
      "type": "event"
    },
    {
      "anonymous": false,
      "inputs": [
        {
          "indexed": true,
          "name": "previousOwner",
          "type": "address"
        },
        {
          "indexed": true,
          "name": "newOwner",
          "type": "address"
        }
      ],
      "name": "OwnershipTransferred",
      "type": "event"
    },
    {
      "constant": false,
      "inputs": [
        {
          "name": "_fundingStorage",
          "type": "address"
        }
      ],
      "name": "initialize",
      "outputs": [],
      "payable": false,
      "stateMutability": "nonpayable",
      "type": "function"
    },
    {
      "constant": false,
      "inputs": [],
      "name": "createCurator",
      "outputs": [],
      "payable": false,
      "stateMutability": "nonpayable",
      "type": "function"
    },
    {
      "constant": false,
      "inputs": [
        {
          "name": "_projectId",
          "type": "uint256"
        },
        {
          "name": "_isApproved",
          "type": "bool"
        }
      ],
      "name": "curate",
      "outputs": [],
      "payable": false,
      "stateMutability": "nonpayable",
      "type": "function"
    },
    {
      "constant": false,
      "inputs": [
        {
          "name": "_projectId",
          "type": "uint256"
        }
      ],
      "name": "publishProject",
      "outputs": [],
      "payable": false,
      "stateMutability": "nonpayable",
      "type": "function"
    },
    {
      "constant": true,
      "inputs": [],
      "name": "getCurationThreshold",
      "outputs": [
        {
          "name": "threshold",
          "type": "uint256"
        }
      ],
      "payable": false,
      "stateMutability": "view",
      "type": "function"
    },
    {
      "constant": false,
      "inputs": [
        {
          "name": "_threshold",
          "type": "uint256"
        }
      ],
      "name": "setCurationThreshold",
      "outputs": [],
      "payable": false,
      "stateMutability": "nonpayable",
      "type": "function"
    }
  ],
  "bytecode": "0x608060405234801561001057600080fd5b506040516020806124d183398101806040528101908080519060200190929190505050336000806101000a81548173ffffffffffffffffffffffffffffffffffffffff021916908373ffffffffffffffffffffffffffffffffffffffff16021790555080600160006101000a81548173ffffffffffffffffffffffffffffffffffffffff021916908373ffffffffffffffffffffffffffffffffffffffff1602179055505061240d806100c46000396000f3006080604052600436106100a4576000357c0100000000000000000000000000000000000000000000000000000000900463ffffffff168063038edaa4146100a95780632d9a6af2146101005780632ee1605514610139578063302096bd1461015057806364a4277a1461017d578063684af2ab146101aa578063715018a6146101d55780638da5cb5b146101ec578063c4d66de814610243578063f2fde38b14610286575b600080fd5b3480156100b557600080fd5b506100be6102c9565b604051808273ffffffffffffffffffffffffffffffffffffffff1673ffffffffffffffffffffffffffffffffffffffff16815260200191505060405180910390f35b34801561010c57600080fd5b50610137600480360381019080803590602001909291908035151590602001909291905050506102ef565b005b34801561014557600080fd5b5061014e6106af565b005b34801561015c57600080fd5b5061017b60048036038101908080359060200190929190505050610896565b005b34801561018957600080fd5b506101a86004803603810190808035906020019092919050505061093f565b005b3480156101b657600080fd5b506101bf610d7d565b6040518082815260200191505060405180910390f35b3480156101e157600080fd5b506101ea610dc5565b005b3480156101f857600080fd5b50610201610ec7565b604051808273ffffffffffffffffffffffffffffffffffffffff1673ffffffffffffffffffffffffffffffffffffffff16815260200191505060405180910390f35b34801561024f57600080fd5b50610284600480360381019080803573ffffffffffffffffffffffffffffffffffffffff169060200190929190505050610eec565b005b34801561029257600080fd5b506102c7600480360381019080803573ffffffffffffffffffffffffffffffffffffffff169060200190929190505050611103565b005b600160009054906101000a900473ffffffffffffffffffffffffffffffffffffffff1681565b60008061033d33600160009054906101000a900473ffffffffffffffffffffffffffffffffffffffff1673ffffffffffffffffffffffffffffffffffffffff1661116a90919063ffffffff16565b141515156103d9576040517f08c379a000000000000000000000000000000000000000000000000000000000815260040180806020018281038252602d8152602001807f596f75206d75737420626520612063757261746f7220746f20706572666f726d81526020017f207468697320616374696f6e2e0000000000000000000000000000000000000081525060400191505060405180910390fd5b600160048111156103e657fe5b61043184600160009054906101000a900473ffffffffffffffffffffffffffffffffffffffff1673ffffffffffffffffffffffffffffffffffffffff1661130a90919063ffffffff16565b1415156104cc576040517f08c379a000000000000000000000000000000000000000000000000000000000815260040180806020018281038252603a8152602001807f546869732070726f6a656374206973206e6f74207365656b696e67206375726181526020017f746f7220617070726f76616c20617420746869732074696d652e00000000000081525060400191505060405180910390fd5b61051783600160009054906101000a900473ffffffffffffffffffffffffffffffffffffffff1673ffffffffffffffffffffffffffffffffffffffff1661146f90919063ffffffff16565b15156105b1576040517f08c379a00000000000000000000000000000000000000000000000000000000081526004018080602001828103825260268152602001807f546869732070726f6a656374206973206e6f74206f70656e20666f722063757281526020017f6174696f6e2e000000000000000000000000000000000000000000000000000081525060400191505060405180910390fd5b6105fc83600160009054906101000a900473ffffffffffffffffffffffffffffffffffffffff1673ffffffffffffffffffffffffffffffffffffffff166115d490919063ffffffff16565b90508115610659576106548360018301600160009054906101000a900473ffffffffffffffffffffffffffffffffffffffff1673ffffffffffffffffffffffffffffffffffffffff1661175f9092919063ffffffff16565b6106aa565b6106a98360018303600160009054906101000a900473ffffffffffffffffffffffffffffffffffffffff1673ffffffffffffffffffffffffffffffffffffffff1661175f9092919063ffffffff16565b5b505050565b6000806106fd33600160009054906101000a900473ffffffffffffffffffffffffffffffffffffffff1673ffffffffffffffffffffffffffffffffffffffff1661116a90919063ffffffff16565b141515610798576040517f08c379a00000000000000000000000000000000000000000000000000000000081526004018080602001828103825260228152602001807f54686973206163636f756e7420697320616c726561647920612063757261746f81526020017f722e00000000000000000000000000000000000000000000000000000000000081525060400191505060405180910390fd5b6107d9600160009054906101000a900473ffffffffffffffffffffffffffffffffffffffff1673ffffffffffffffffffffffffffffffffffffffff166118ca565b90506108283382600160009054906101000a900473ffffffffffffffffffffffffffffffffffffffff1673ffffffffffffffffffffffffffffffffffffffff166118ea9092919063ffffffff16565b7f11ab45339bcb875e5476c8f849dc44c8eb9d188a7b2f91812fc91d0e25ab5d933382604051808373ffffffffffffffffffffffffffffffffffffffff1673ffffffffffffffffffffffffffffffffffffffff1681526020018281526020019250505060405180910390a150565b6000809054906101000a900473ffffffffffffffffffffffffffffffffffffffff1673ffffffffffffffffffffffffffffffffffffffff163373ffffffffffffffffffffffffffffffffffffffff161415156108f157600080fd5b61093c81600160009054906101000a900473ffffffffffffffffffffffffffffffffffffffff1673ffffffffffffffffffffffffffffffffffffffff16611a6a90919063ffffffff16565b50565b600080823373ffffffffffffffffffffffffffffffffffffffff166109a582600160009054906101000a900473ffffffffffffffffffffffffffffffffffffffff1673ffffffffffffffffffffffffffffffffffffffff16611b3a90919063ffffffff16565b73ffffffffffffffffffffffffffffffffffffffff16141515610a56576040517f08c379a00000000000000000000000000000000000000000000000000000000081526004018080602001828103825260398152602001807f596f75206d757374206265207468652070726f6a65637420646576656c6f706581526020017f7220746f20706572666f726d207468697320616374696f6e2e0000000000000081525060400191505060405180910390fd5b610aa184600160009054906101000a900473ffffffffffffffffffffffffffffffffffffffff1673ffffffffffffffffffffffffffffffffffffffff1661146f90919063ffffffff16565b1515610b3b576040517f08c379a00000000000000000000000000000000000000000000000000000000081526004018080602001828103825260268152602001807f546869732070726f6a656374206973206e6f74206f70656e20666f722063757281526020017f6174696f6e2e000000000000000000000000000000000000000000000000000081525060400191505060405180910390fd5b6224ea00610b8a85600160009054906101000a900473ffffffffffffffffffffffffffffffffffffffff1673ffffffffffffffffffffffffffffffffffffffff16611c9f90919063ffffffff16565b0142101515610c27576040517f08c379a000000000000000000000000000000000000000000000000000000000815260040180806020018281038252602b8152602001807f5468652070726f6a656374206375726174696f6e2077696e646f77206861732081526020017f6e6f7420636c6f7365642e00000000000000000000000000000000000000000081525060400191505060405180910390fd5b610c7284600160009054906101000a900473ffffffffffffffffffffffffffffffffffffffff1673ffffffffffffffffffffffffffffffffffffffff166115d490919063ffffffff16565b9250610cb5600160009054906101000a900473ffffffffffffffffffffffffffffffffffffffff1673ffffffffffffffffffffffffffffffffffffffff16611e04565b91508183101515610d1e57610d198460026004811115610cd157fe5b600160009054906101000a900473ffffffffffffffffffffffffffffffffffffffff1673ffffffffffffffffffffffffffffffffffffffff16611ef49092919063ffffffff16565b610d77565b610d7684600480811115610d2e57fe5b600160009054906101000a900473ffffffffffffffffffffffffffffffffffffffff1673ffffffffffffffffffffffffffffffffffffffff16611ef49092919063ffffffff16565b5b50505050565b6000610dc0600160009054906101000a900473ffffffffffffffffffffffffffffffffffffffff1673ffffffffffffffffffffffffffffffffffffffff16611e04565b905090565b6000809054906101000a900473ffffffffffffffffffffffffffffffffffffffff1673ffffffffffffffffffffffffffffffffffffffff163373ffffffffffffffffffffffffffffffffffffffff16141515610e2057600080fd5b6000809054906101000a900473ffffffffffffffffffffffffffffffffffffffff1673ffffffffffffffffffffffffffffffffffffffff167ff8df31144d9c2f0f6b59d69b8b98abd5459d07f2742c4df920b25aae33c6482060405160405180910390a260008060006101000a81548173ffffffffffffffffffffffffffffffffffffffff021916908373ffffffffffffffffffffffffffffffffffffffff160217905550565b6000809054906101000a900473ffffffffffffffffffffffffffffffffffffffff1681565b80600160006101000a81548173ffffffffffffffffffffffffffffffffffffffff021916908373ffffffffffffffffffffffffffffffffffffffff160217905550600160009054906101000a900473ffffffffffffffffffffffffffffffffffffffff1673ffffffffffffffffffffffffffffffffffffffff1663043c2677306040518263ffffffff167c0100000000000000000000000000000000000000000000000000000000028152600401808273ffffffffffffffffffffffffffffffffffffffff1673ffffffffffffffffffffffffffffffffffffffff168152602001915050602060405180830381600087803b158015610fea57600080fd5b505af1158015610ffe573d6000803e3d6000fd5b505050506040513d602081101561101457600080fd5b810190808051906020019092919050505015156110bf576040517f08c379a00000000000000000000000000000000000000000000000000000000081526004018080602001828103825260328152602001807f5468697320636f6e7472616374206973206e6f7420726567697374657265642081526020017f696e2046756e64696e6753746f726167652e000000000000000000000000000081525060400191505060405180910390fd5b611100600160009054906101000a900473ffffffffffffffffffffffffffffffffffffffff1673ffffffffffffffffffffffffffffffffffffffff16612039565b50565b6000809054906101000a900473ffffffffffffffffffffffffffffffffffffffff1673ffffffffffffffffffffffffffffffffffffffff163373ffffffffffffffffffffffffffffffffffffffff1614151561115e57600080fd5b611167816121f7565b50565b60008273ffffffffffffffffffffffffffffffffffffffff1663bd02d0f58360405160200180807f6375726174696f6e2e63757261746f724d6170000000000000000000000000008152506013018273ffffffffffffffffffffffffffffffffffffffff1673ffffffffffffffffffffffffffffffffffffffff166c010000000000000000000000000281526014019150506040516020818303038152906040526040518082805190602001908083835b602083101515611240578051825260208201915060208101905060208303925061121b565b6001836020036101000a03801982511681845116808217855250505050505090500191505060405180910390206040518263ffffffff167c0100000000000000000000000000000000000000000000000000000000028152600401808260001916600019168152602001915050602060405180830381600087803b1580156112c757600080fd5b505af11580156112db573d6000803e3d6000fd5b505050506040513d60208110156112f157600080fd5b8101908080519060200190929190505050905092915050565b60008273ffffffffffffffffffffffffffffffffffffffff1663bd02d0f58360405160200180807f70726f6a6563742e737461747573000000000000000000000000000000000000815250600e018281526020019150506040516020818303038152906040526040518082805190602001908083835b6020831015156113a55780518252602082019150602081019050602083039250611380565b6001836020036101000a03801982511681845116808217855250505050505090500191505060405180910390206040518263ffffffff167c0100000000000000000000000000000000000000000000000000000000028152600401808260001916600019168152602001915050602060405180830381600087803b15801561142c57600080fd5b505af1158015611440573d6000803e3d6000fd5b505050506040513d602081101561145657600080fd5b8101908080519060200190929190505050905092915050565b60008273ffffffffffffffffffffffffffffffffffffffff16637ae1cfca8360405160200180807f6375726174696f6e2e64726166744375726174696f6e2e697341637469766500815250601f018281526020019150506040516020818303038152906040526040518082805190602001908083835b60208310151561150a57805182526020820191506020810190506020830392506114e5565b6001836020036101000a03801982511681845116808217855250505050505090500191505060405180910390206040518263ffffffff167c0100000000000000000000000000000000000000000000000000000000028152600401808260001916600019168152602001915050602060405180830381600087803b15801561159157600080fd5b505af11580156115a5573d6000803e3d6000fd5b505050506040513d60208110156115bb57600080fd5b8101908080519060200190929190505050905092915050565b60008273ffffffffffffffffffffffffffffffffffffffff1663bd02d0f58360405160200180807f6375726174696f6e2e64726166744375726174696f6e2e617070726f76616c4381526020017f6f756e74000000000000000000000000000000000000000000000000000000008152506024018281526020019150506040516020818303038152906040526040518082805190602001908083835b6020831015156116955780518252602082019150602081019050602083039250611670565b6001836020036101000a03801982511681845116808217855250505050505090500191505060405180910390206040518263ffffffff167c0100000000000000000000000000000000000000000000000000000000028152600401808260001916600019168152602001915050602060405180830381600087803b15801561171c57600080fd5b505af1158015611730573d6000803e3d6000fd5b505050506040513d602081101561174657600080fd5b8101908080519060200190929190505050905092915050565b8273ffffffffffffffffffffffffffffffffffffffff1663e2a4853a8360405160200180807f6375726174696f6e2e64726166744375726174696f6e2e617070726f76616c4381526020017f6f756e74000000000000000000000000000000000000000000000000000000008152506024018281526020019150506040516020818303038152906040526040518082805190602001908083835b60208310151561181e57805182526020820191506020810190506020830392506117f9565b6001836020036101000a0380198251168184511680821785525050505050509050019150506040518091039020836040518363ffffffff167c010000000000000000000000000000000000000000000000000000000002815260040180836000191660001916815260200182815260200192505050600060405180830381600087803b1580156118ad57600080fd5b505af11580156118c1573d6000803e3d6000fd5b50505050505050565b6000806118d6836122f1565b90506118e183612039565b80915050919050565b8273ffffffffffffffffffffffffffffffffffffffff1663e2a4853a8360405160200180807f6375726174696f6e2e63757261746f724d6170000000000000000000000000008152506013018273ffffffffffffffffffffffffffffffffffffffff1673ffffffffffffffffffffffffffffffffffffffff166c010000000000000000000000000281526014019150506040516020818303038152906040526040518082805190602001908083835b6020831015156119be5780518252602082019150602081019050602083039250611999565b6001836020036101000a0380198251168184511680821785525050505050509050019150506040518091039020836040518363ffffffff167c010000000000000000000000000000000000000000000000000000000002815260040180836000191660001916815260200182815260200192505050600060405180830381600087803b158015611a4d57600080fd5b505af1158015611a61573d6000803e3d6000fd5b50505050505050565b8173ffffffffffffffffffffffffffffffffffffffff1663e2a4853a60405180807f6375726174696f6e2e6375726174696f6e5468726573686f6c64000000000000815250601a0190506040518091039020836040518363ffffffff167c010000000000000000000000000000000000000000000000000000000002815260040180836000191660001916815260200182815260200192505050600060405180830381600087803b158015611b1e57600080fd5b505af1158015611b32573d6000803e3d6000fd5b505050505050565b60008273ffffffffffffffffffffffffffffffffffffffff166321f8a7218360405160200180807f70726f6a6563742e646576656c6f7065720000000000000000000000000000008152506011018281526020019150506040516020818303038152906040526040518082805190602001908083835b602083101515611bd55780518252602082019150602081019050602083039250611bb0565b6001836020036101000a03801982511681845116808217855250505050505090500191505060405180910390206040518263ffffffff167c0100000000000000000000000000000000000000000000000000000000028152600401808260001916600019168152602001915050602060405180830381600087803b158015611c5c57600080fd5b505af1158015611c70573d6000803e3d6000fd5b505050506040513d6020811015611c8657600080fd5b8101908080519060200190929190505050905092915050565b60008273ffffffffffffffffffffffffffffffffffffffff1663bd02d0f58360405160200180807f6375726174696f6e2e64726166744375726174696f6e2e74696d657374616d708152506020018281526020019150506040516020818303038152906040526040518082805190602001908083835b602083101515611d3a5780518252602082019150602081019050602083039250611d15565b6001836020036101000a03801982511681845116808217855250505050505090500191505060405180910390206040518263ffffffff167c0100000000000000000000000000000000000000000000000000000000028152600401808260001916600019168152602001915050602060405180830381600087803b158015611dc157600080fd5b505af1158015611dd5573d6000803e3d6000fd5b505050506040513d6020811015611deb57600080fd5b8101908080519060200190929190505050905092915050565b60008173ffffffffffffffffffffffffffffffffffffffff1663bd02d0f560405180807f6375726174696f6e2e6375726174696f6e5468726573686f6c64000000000000815250601a01905060405180910390206040518263ffffffff167c0100000000000000000000000000000000000000000000000000000000028152600401808260001916600019168152602001915050602060405180830381600087803b158015611eb257600080fd5b505af1158015611ec6573d6000803e3d6000fd5b505050506040513d6020811015611edc57600080fd5b81019080805190602001909291905050509050919050565b8273ffffffffffffffffffffffffffffffffffffffff1663e2a4853a8360405160200180807f70726f6a6563742e737461747573000000000000000000000000000000000000815250600e018281526020019150506040516020818303038152906040526040518082805190602001908083835b602083101515611f8d5780518252602082019150602081019050602083039250611f68565b6001836020036101000a0380198251168184511680821785525050505050509050019150506040518091039020836040518363ffffffff167c010000000000000000000000000000000000000000000000000000000002815260040180836000191660001916815260200182815260200192505050600060405180830381600087803b15801561201c57600080fd5b505af1158015612030573d6000803e3d6000fd5b50505050505050565b60008173ffffffffffffffffffffffffffffffffffffffff1663bd02d0f560405180807f6375726174696f6e2e6e65787443757261746f72496400000000000000000000815250601601905060405180910390206040518263ffffffff167c0100000000000000000000000000000000000000000000000000000000028152600401808260001916600019168152602001915050602060405180830381600087803b1580156120e757600080fd5b505af11580156120fb573d6000803e3d6000fd5b505050506040513d602081101561211157600080fd5b810190808051906020019092919050505090508173ffffffffffffffffffffffffffffffffffffffff1663e2a4853a60405180807f6375726174696f6e2e6e65787443757261746f7249640000000000000000000081525060160190506040518091039020600184016040518363ffffffff167c010000000000000000000000000000000000000000000000000000000002815260040180836000191660001916815260200182815260200192505050600060405180830381600087803b1580156121db57600080fd5b505af11580156121ef573d6000803e3d6000fd5b505050505050565b600073ffffffffffffffffffffffffffffffffffffffff168173ffffffffffffffffffffffffffffffffffffffff161415151561223357600080fd5b8073ffffffffffffffffffffffffffffffffffffffff166000809054906101000a900473ffffffffffffffffffffffffffffffffffffffff1673ffffffffffffffffffffffffffffffffffffffff167f8be0079c531659141344cd1fd0a4f28419497f9722a3daafe3b4186f6b6457e060405160405180910390a3806000806101000a81548173ffffffffffffffffffffffffffffffffffffffff021916908373ffffffffffffffffffffffffffffffffffffffff16021790555050565b60008173ffffffffffffffffffffffffffffffffffffffff1663bd02d0f560405180807f6375726174696f6e2e6e65787443757261746f72496400000000000000000000815250601601905060405180910390206040518263ffffffff167c0100000000000000000000000000000000000000000000000000000000028152600401808260001916600019168152602001915050602060405180830381600087803b15801561239f57600080fd5b505af11580156123b3573d6000803e3d6000fd5b505050506040513d60208110156123c957600080fd5b810190808051906020019092919050505090509190505600a165627a7a72305820ca12ac358e07cdcf79cbf0da0d4562fe7d86d53c0eb39f05b00141c27523b2560029",
  "source": "pragma solidity ^0.4.24;\n\nimport \"./project/ProjectBase.sol\";\nimport \"./libraries/storage/CurationStorageAccess.sol\";\nimport \"./libraries/storage/ProjectStorageAccess.sol\";\n\ncontract Curation is Ownable {\n\n    using CurationStorageAccess for address;\n    using ProjectStorageAccess for address;\n\n    modifier onlyCurator() {\n        require(fundingStorage.getCuratorId(msg.sender) != 0, \"You must be a curator to perform this action.\");\n        _;\n    }\n\n    modifier onlyDeveloper(uint _projectId) {\n        require(fundingStorage.getProjectDeveloper(_projectId) == msg.sender, \"You must be the project developer to perform this action.\");\n        _;\n    }\n\n    address public fundingStorage;\n\n    event CuratorCreated(address curatorAddress, uint curatorId);\n\n    constructor(address _fundingStorage) public {\n        fundingStorage = _fundingStorage;\n    }\n    \n    function () public payable {\n        revert();\n    }\n\n    function initialize(address _fundingStorage) external {\n        fundingStorage = _fundingStorage;\n        require(FundingStorage(fundingStorage).getContractIsValid(this), \"This contract is not registered in FundingStorage.\");\n\n        // reserve curatorId 0\n        fundingStorage.incrementNextCuratorId();\n    }\n\n    function createCurator() external {\n        require(fundingStorage.getCuratorId(msg.sender) == 0, \"This account is already a curator.\");\n\n        // Get next ID from storage + increment next ID\n        uint id = fundingStorage.generateNewCuratorId();\n\n        // Create developer\n        fundingStorage.setCuratorId(msg.sender, id);\n\n        emit CuratorCreated(msg.sender, id);\n    }\n\n    function curate(uint _projectId, bool _isApproved) public onlyCurator {\n        require(fundingStorage.getProjectStatus(_projectId) == uint(ProjectBase.Status.Pending), \"This project is not seeking curator approval at this time.\");\n        require(fundingStorage.getDraftCurationIsActive(_projectId), \"This project is not open for curation.\");\n\n        uint currentApprovalCount = fundingStorage.getDraftCurationApprovalCount(_projectId);\n\n        if (_isApproved) {\n            fundingStorage.setDraftCurationApprovalCount(_projectId, currentApprovalCount + 1);\n        } else {\n            fundingStorage.setDraftCurationApprovalCount(_projectId, currentApprovalCount - 1);\n        }\n    }\n\n    function publishProject(uint _projectId) public onlyDeveloper(_projectId) {\n        require(fundingStorage.getDraftCurationIsActive(_projectId), \"This project is not open for curation.\");\n        require(now < fundingStorage.getDraftCurationTimestamp(_projectId) + 4 weeks, \"The project curation window has not closed.\");\n\n        uint approvalCount = fundingStorage.getDraftCurationApprovalCount(_projectId);\n        uint curationThreshold = fundingStorage.getCurationThreshold();\n\n        if (approvalCount >= curationThreshold) {\n            fundingStorage.setProjectStatus(_projectId, uint(ProjectBase.Status.Published));\n        } else {\n            fundingStorage.setProjectStatus(_projectId, uint(ProjectBase.Status.Rejected));\n        }\n    }\n\n    function getCurationThreshold() external view returns (uint threshold) {\n        threshold = fundingStorage.getCurationThreshold();\n    }\n\n    function setCurationThreshold(uint _threshold) external onlyOwner {\n        fundingStorage.setCurationThreshold(_threshold);\n    }\n}",
  "sourcePath": "/ude/hb/projects/funding-protocol/smart-contracts/ethereum/contracts/Curation.sol",
  "compiler": {
    "name": "solc",
    "version": "0.4.24+commit.e67f0147.Emscripten.clang"
  },
  "schemaVersion": "2.0.0",
  "updatedAt": "2018-07-21T05:28:54.175Z"
}