{
  "contractName": "Curation",
  "abi": [
    {
      "constant": true,
      "inputs": [],
      "name": "fundingStorage",
      "outputs": [
        {
          "name": "",
          "type": "address"
        }
      ],
      "payable": false,
      "stateMutability": "view",
      "type": "function"
    },
    {
      "constant": false,
      "inputs": [],
      "name": "renounceOwnership",
      "outputs": [],
      "payable": false,
      "stateMutability": "nonpayable",
      "type": "function"
    },
    {
      "constant": true,
      "inputs": [],
      "name": "owner",
      "outputs": [
        {
          "name": "",
          "type": "address"
        }
      ],
      "payable": false,
      "stateMutability": "view",
      "type": "function"
    },
    {
      "constant": false,
      "inputs": [
        {
          "name": "_newOwner",
          "type": "address"
        }
      ],
      "name": "transferOwnership",
      "outputs": [],
      "payable": false,
      "stateMutability": "nonpayable",
      "type": "function"
    },
    {
      "inputs": [
        {
          "name": "_fundingStorage",
          "type": "address"
        }
      ],
      "payable": false,
      "stateMutability": "nonpayable",
      "type": "constructor"
    },
    {
      "payable": true,
      "stateMutability": "payable",
      "type": "fallback"
    },
    {
      "anonymous": false,
      "inputs": [
        {
          "indexed": false,
          "name": "curatorAddress",
          "type": "address"
        },
        {
          "indexed": false,
          "name": "curatorId",
          "type": "uint256"
        }
      ],
      "name": "CuratorCreated",
      "type": "event"
    },
    {
      "anonymous": false,
      "inputs": [
        {
          "indexed": true,
          "name": "previousOwner",
          "type": "address"
        }
      ],
      "name": "OwnershipRenounced",
      "type": "event"
    },
    {
      "anonymous": false,
      "inputs": [
        {
          "indexed": true,
          "name": "previousOwner",
          "type": "address"
        },
        {
          "indexed": true,
          "name": "newOwner",
          "type": "address"
        }
      ],
      "name": "OwnershipTransferred",
      "type": "event"
    },
    {
      "constant": false,
      "inputs": [],
      "name": "initialize",
      "outputs": [],
      "payable": false,
      "stateMutability": "nonpayable",
      "type": "function"
    },
    {
      "constant": false,
      "inputs": [],
      "name": "createCurator",
      "outputs": [],
      "payable": false,
      "stateMutability": "nonpayable",
      "type": "function"
    },
    {
      "constant": false,
      "inputs": [
        {
          "name": "_projectId",
          "type": "uint256"
        },
        {
          "name": "_isApproved",
          "type": "bool"
        }
      ],
      "name": "curate",
      "outputs": [],
      "payable": false,
      "stateMutability": "nonpayable",
      "type": "function"
    },
    {
      "constant": false,
      "inputs": [
        {
          "name": "_projectId",
          "type": "uint256"
        }
      ],
      "name": "publishProject",
      "outputs": [],
      "payable": false,
      "stateMutability": "nonpayable",
      "type": "function"
    },
    {
      "constant": true,
      "inputs": [
        {
          "name": "_projectId",
          "type": "uint256"
        }
      ],
      "name": "getDraftCuration",
      "outputs": [
        {
          "name": "timestamp",
          "type": "uint256"
        },
        {
          "name": "approvalCount",
          "type": "uint256"
        },
        {
          "name": "isActive",
          "type": "bool"
        }
      ],
      "payable": false,
      "stateMutability": "view",
      "type": "function"
    },
    {
      "constant": true,
      "inputs": [],
      "name": "getCurationThreshold",
      "outputs": [
        {
          "name": "threshold",
          "type": "uint256"
        }
      ],
      "payable": false,
      "stateMutability": "view",
      "type": "function"
    },
    {
      "constant": false,
      "inputs": [
        {
          "name": "_threshold",
          "type": "uint256"
        }
      ],
      "name": "setCurationThreshold",
      "outputs": [],
      "payable": false,
      "stateMutability": "nonpayable",
      "type": "function"
    }
  ],
  "bytecode": "0x608060405234801561001057600080fd5b506040516020806126d483398101806040528101908080519060200190929190505050336000806101000a81548173ffffffffffffffffffffffffffffffffffffffff021916908373ffffffffffffffffffffffffffffffffffffffff16021790555080600160006101000a81548173ffffffffffffffffffffffffffffffffffffffff021916908373ffffffffffffffffffffffffffffffffffffffff16021790555050612610806100c46000396000f3006080604052600436106100af576000357c0100000000000000000000000000000000000000000000000000000000900463ffffffff168063038edaa4146100b45780632d299f8f1461010b5780632d9a6af21461015e5780632ee1605514610197578063302096bd146101ae57806364a4277a146101db578063684af2ab14610208578063715018a6146102335780638129fc1c1461024a5780638da5cb5b14610261578063f2fde38b146102b8575b600080fd5b3480156100c057600080fd5b506100c96102fb565b604051808273ffffffffffffffffffffffffffffffffffffffff1673ffffffffffffffffffffffffffffffffffffffff16815260200191505060405180910390f35b34801561011757600080fd5b5061013660048036038101908080359060200190929190505050610321565b6040518084815260200183815260200182151515158152602001935050505060405180910390f35b34801561016a57600080fd5b5061019560048036038101908080359060200190929190803515159060200190929190505050610398565b005b3480156101a357600080fd5b506101ac610680565b005b3480156101ba57600080fd5b506101d960048036038101908080359060200190929190505050610867565b005b3480156101e757600080fd5b5061020660048036038101908080359060200190929190505050610910565b005b34801561021457600080fd5b5061021d610de9565b6040518082815260200191505060405180910390f35b34801561023f57600080fd5b50610248610e31565b005b34801561025657600080fd5b5061025f610f33565b005b34801561026d57600080fd5b50610276611108565b604051808273ffffffffffffffffffffffffffffffffffffffff1673ffffffffffffffffffffffffffffffffffffffff16815260200191505060405180910390f35b3480156102c457600080fd5b506102f9600480360381019080803573ffffffffffffffffffffffffffffffffffffffff16906020019092919050505061112d565b005b600160009054906101000a900473ffffffffffffffffffffffffffffffffffffffff1681565b600080600061032e6125c0565b61037985600160009054906101000a900473ffffffffffffffffffffffffffffffffffffffff1673ffffffffffffffffffffffffffffffffffffffff1661119490919063ffffffff16565b9050806000015181602001518260400151935093509350509193909250565b60008060006103e833600160009054906101000a900473ffffffffffffffffffffffffffffffffffffffff1673ffffffffffffffffffffffffffffffffffffffff166111fa90919063ffffffff16565b14151515610484576040517f08c379a000000000000000000000000000000000000000000000000000000000815260040180806020018281038252602d8152602001807f596f75206d75737420626520612063757261746f7220746f20706572666f726d81526020017f207468697320616374696f6e2e0000000000000000000000000000000000000081525060400191505060405180910390fd5b6104cf84600160009054906101000a900473ffffffffffffffffffffffffffffffffffffffff1673ffffffffffffffffffffffffffffffffffffffff1661139a90919063ffffffff16565b1515610569576040517f08c379a00000000000000000000000000000000000000000000000000000000081526004018080602001828103825260268152602001807f546869732070726f6a656374206973206e6f74206f70656e20666f722063757281526020017f6174696f6e2e000000000000000000000000000000000000000000000000000081525060400191505060405180910390fd5b6105b484600160009054906101000a900473ffffffffffffffffffffffffffffffffffffffff1673ffffffffffffffffffffffffffffffffffffffff166114ff90919063ffffffff16565b915082156106115761060c8460018401600160009054906101000a900473ffffffffffffffffffffffffffffffffffffffff1673ffffffffffffffffffffffffffffffffffffffff1661168a9092919063ffffffff16565b61067a565b6000821161062357600090508061062b565b600182039050805b506106798482600160009054906101000a900473ffffffffffffffffffffffffffffffffffffffff1673ffffffffffffffffffffffffffffffffffffffff1661168a9092919063ffffffff16565b5b50505050565b6000806106ce33600160009054906101000a900473ffffffffffffffffffffffffffffffffffffffff1673ffffffffffffffffffffffffffffffffffffffff166111fa90919063ffffffff16565b141515610769576040517f08c379a00000000000000000000000000000000000000000000000000000000081526004018080602001828103825260228152602001807f54686973206163636f756e7420697320616c726561647920612063757261746f81526020017f722e00000000000000000000000000000000000000000000000000000000000081525060400191505060405180910390fd5b6107aa600160009054906101000a900473ffffffffffffffffffffffffffffffffffffffff1673ffffffffffffffffffffffffffffffffffffffff166117f5565b90506107f93382600160009054906101000a900473ffffffffffffffffffffffffffffffffffffffff1673ffffffffffffffffffffffffffffffffffffffff166118159092919063ffffffff16565b7f11ab45339bcb875e5476c8f849dc44c8eb9d188a7b2f91812fc91d0e25ab5d933382604051808373ffffffffffffffffffffffffffffffffffffffff1673ffffffffffffffffffffffffffffffffffffffff1681526020018281526020019250505060405180910390a150565b6000809054906101000a900473ffffffffffffffffffffffffffffffffffffffff1673ffffffffffffffffffffffffffffffffffffffff163373ffffffffffffffffffffffffffffffffffffffff161415156108c257600080fd5b61090d81600160009054906101000a900473ffffffffffffffffffffffffffffffffffffffff1673ffffffffffffffffffffffffffffffffffffffff1661199590919063ffffffff16565b50565b600080823373ffffffffffffffffffffffffffffffffffffffff1661097682600160009054906101000a900473ffffffffffffffffffffffffffffffffffffffff1673ffffffffffffffffffffffffffffffffffffffff16611a6590919063ffffffff16565b73ffffffffffffffffffffffffffffffffffffffff16141515610a27576040517f08c379a00000000000000000000000000000000000000000000000000000000081526004018080602001828103825260398152602001807f596f75206d757374206265207468652070726f6a65637420646576656c6f706581526020017f7220746f20706572666f726d207468697320616374696f6e2e0000000000000081525060400191505060405180910390fd5b610a7284600160009054906101000a900473ffffffffffffffffffffffffffffffffffffffff1673ffffffffffffffffffffffffffffffffffffffff1661139a90919063ffffffff16565b1515610b0c576040517f08c379a00000000000000000000000000000000000000000000000000000000081526004018080602001828103825260268152602001807f546869732070726f6a656374206973206e6f74206f70656e20666f722063757281526020017f6174696f6e2e000000000000000000000000000000000000000000000000000081525060400191505060405180910390fd5b6224ea00610b5b85600160009054906101000a900473ffffffffffffffffffffffffffffffffffffffff1673ffffffffffffffffffffffffffffffffffffffff16611bca90919063ffffffff16565b0142101515610bf8576040517f08c379a000000000000000000000000000000000000000000000000000000000815260040180806020018281038252602b8152602001807f5468652070726f6a656374206375726174696f6e2077696e646f77206861732081526020017f6e6f7420636c6f7365642e00000000000000000000000000000000000000000081525060400191505060405180910390fd5b610c4384600160009054906101000a900473ffffffffffffffffffffffffffffffffffffffff1673ffffffffffffffffffffffffffffffffffffffff166114ff90919063ffffffff16565b9250610c86600160009054906101000a900473ffffffffffffffffffffffffffffffffffffffff1673ffffffffffffffffffffffffffffffffffffffff16611d2f565b91508183101515610d3c57610cea8460026006811115610ca257fe5b600160009054906101000a900473ffffffffffffffffffffffffffffffffffffffff1673ffffffffffffffffffffffffffffffffffffffff16611e1f9092919063ffffffff16565b610d378442600160009054906101000a900473ffffffffffffffffffffffffffffffffffffffff1673ffffffffffffffffffffffffffffffffffffffff16611f649092919063ffffffff16565b610d95565b610d9484600680811115610d4c57fe5b600160009054906101000a900473ffffffffffffffffffffffffffffffffffffffff1673ffffffffffffffffffffffffffffffffffffffff16611e1f9092919063ffffffff16565b5b610de3846000600160009054906101000a900473ffffffffffffffffffffffffffffffffffffffff1673ffffffffffffffffffffffffffffffffffffffff166120cf9092919063ffffffff16565b50505050565b6000610e2c600160009054906101000a900473ffffffffffffffffffffffffffffffffffffffff1673ffffffffffffffffffffffffffffffffffffffff16611d2f565b905090565b6000809054906101000a900473ffffffffffffffffffffffffffffffffffffffff1673ffffffffffffffffffffffffffffffffffffffff163373ffffffffffffffffffffffffffffffffffffffff16141515610e8c57600080fd5b6000809054906101000a900473ffffffffffffffffffffffffffffffffffffffff1673ffffffffffffffffffffffffffffffffffffffff167ff8df31144d9c2f0f6b59d69b8b98abd5459d07f2742c4df920b25aae33c6482060405160405180910390a260008060006101000a81548173ffffffffffffffffffffffffffffffffffffffff021916908373ffffffffffffffffffffffffffffffffffffffff160217905550565b600160009054906101000a900473ffffffffffffffffffffffffffffffffffffffff1673ffffffffffffffffffffffffffffffffffffffff1663043c2677306040518263ffffffff167c0100000000000000000000000000000000000000000000000000000000028152600401808273ffffffffffffffffffffffffffffffffffffffff1673ffffffffffffffffffffffffffffffffffffffff168152602001915050602060405180830381600087803b158015610ff057600080fd5b505af1158015611004573d6000803e3d6000fd5b505050506040513d602081101561101a57600080fd5b810190808051906020019092919050505015156110c5576040517f08c379a00000000000000000000000000000000000000000000000000000000081526004018080602001828103825260328152602001807f5468697320636f6e7472616374206973206e6f7420726567697374657265642081526020017f696e2046756e64696e6753746f726167652e000000000000000000000000000081525060400191505060405180910390fd5b611106600160009054906101000a900473ffffffffffffffffffffffffffffffffffffffff1673ffffffffffffffffffffffffffffffffffffffff16612218565b565b6000809054906101000a900473ffffffffffffffffffffffffffffffffffffffff1681565b6000809054906101000a900473ffffffffffffffffffffffffffffffffffffffff1673ffffffffffffffffffffffffffffffffffffffff163373ffffffffffffffffffffffffffffffffffffffff1614151561118857600080fd5b611191816123d6565b50565b61119c6125c0565b60008060006111a96125c0565b6111b38787611bca565b93506111bf87876114ff565b92506111cb878761139a565b915060606040519081016040528085815260200184815260200183151581525090508094505050505092915050565b60008273ffffffffffffffffffffffffffffffffffffffff1663bd02d0f58360405160200180807f6375726174696f6e2e63757261746f724d6170000000000000000000000000008152506013018273ffffffffffffffffffffffffffffffffffffffff1673ffffffffffffffffffffffffffffffffffffffff166c010000000000000000000000000281526014019150506040516020818303038152906040526040518082805190602001908083835b6020831015156112d057805182526020820191506020810190506020830392506112ab565b6001836020036101000a03801982511681845116808217855250505050505090500191505060405180910390206040518263ffffffff167c0100000000000000000000000000000000000000000000000000000000028152600401808260001916600019168152602001915050602060405180830381600087803b15801561135757600080fd5b505af115801561136b573d6000803e3d6000fd5b505050506040513d602081101561138157600080fd5b8101908080519060200190929190505050905092915050565b60008273ffffffffffffffffffffffffffffffffffffffff16637ae1cfca8360405160200180807f6375726174696f6e2e64726166744375726174696f6e2e697341637469766500815250601f018281526020019150506040516020818303038152906040526040518082805190602001908083835b6020831015156114355780518252602082019150602081019050602083039250611410565b6001836020036101000a03801982511681845116808217855250505050505090500191505060405180910390206040518263ffffffff167c0100000000000000000000000000000000000000000000000000000000028152600401808260001916600019168152602001915050602060405180830381600087803b1580156114bc57600080fd5b505af11580156114d0573d6000803e3d6000fd5b505050506040513d60208110156114e657600080fd5b8101908080519060200190929190505050905092915050565b60008273ffffffffffffffffffffffffffffffffffffffff1663bd02d0f58360405160200180807f6375726174696f6e2e64726166744375726174696f6e2e617070726f76616c4381526020017f6f756e74000000000000000000000000000000000000000000000000000000008152506024018281526020019150506040516020818303038152906040526040518082805190602001908083835b6020831015156115c0578051825260208201915060208101905060208303925061159b565b6001836020036101000a03801982511681845116808217855250505050505090500191505060405180910390206040518263ffffffff167c0100000000000000000000000000000000000000000000000000000000028152600401808260001916600019168152602001915050602060405180830381600087803b15801561164757600080fd5b505af115801561165b573d6000803e3d6000fd5b505050506040513d602081101561167157600080fd5b8101908080519060200190929190505050905092915050565b8273ffffffffffffffffffffffffffffffffffffffff1663e2a4853a8360405160200180807f6375726174696f6e2e64726166744375726174696f6e2e617070726f76616c4381526020017f6f756e74000000000000000000000000000000000000000000000000000000008152506024018281526020019150506040516020818303038152906040526040518082805190602001908083835b6020831015156117495780518252602082019150602081019050602083039250611724565b6001836020036101000a0380198251168184511680821785525050505050509050019150506040518091039020836040518363ffffffff167c010000000000000000000000000000000000000000000000000000000002815260040180836000191660001916815260200182815260200192505050600060405180830381600087803b1580156117d857600080fd5b505af11580156117ec573d6000803e3d6000fd5b50505050505050565b600080611801836124d0565b905061180c83612218565b80915050919050565b8273ffffffffffffffffffffffffffffffffffffffff1663e2a4853a8360405160200180807f6375726174696f6e2e63757261746f724d6170000000000000000000000000008152506013018273ffffffffffffffffffffffffffffffffffffffff1673ffffffffffffffffffffffffffffffffffffffff166c010000000000000000000000000281526014019150506040516020818303038152906040526040518082805190602001908083835b6020831015156118e957805182526020820191506020810190506020830392506118c4565b6001836020036101000a0380198251168184511680821785525050505050509050019150506040518091039020836040518363ffffffff167c010000000000000000000000000000000000000000000000000000000002815260040180836000191660001916815260200182815260200192505050600060405180830381600087803b15801561197857600080fd5b505af115801561198c573d6000803e3d6000fd5b50505050505050565b8173ffffffffffffffffffffffffffffffffffffffff1663e2a4853a60405180807f6375726174696f6e2e6375726174696f6e5468726573686f6c64000000000000815250601a0190506040518091039020836040518363ffffffff167c010000000000000000000000000000000000000000000000000000000002815260040180836000191660001916815260200182815260200192505050600060405180830381600087803b158015611a4957600080fd5b505af1158015611a5d573d6000803e3d6000fd5b505050505050565b60008273ffffffffffffffffffffffffffffffffffffffff166321f8a7218360405160200180807f70726f6a6563742e646576656c6f7065720000000000000000000000000000008152506011018281526020019150506040516020818303038152906040526040518082805190602001908083835b602083101515611b005780518252602082019150602081019050602083039250611adb565b6001836020036101000a03801982511681845116808217855250505050505090500191505060405180910390206040518263ffffffff167c0100000000000000000000000000000000000000000000000000000000028152600401808260001916600019168152602001915050602060405180830381600087803b158015611b8757600080fd5b505af1158015611b9b573d6000803e3d6000fd5b505050506040513d6020811015611bb157600080fd5b8101908080519060200190929190505050905092915050565b60008273ffffffffffffffffffffffffffffffffffffffff1663bd02d0f58360405160200180807f6375726174696f6e2e64726166744375726174696f6e2e74696d657374616d708152506020018281526020019150506040516020818303038152906040526040518082805190602001908083835b602083101515611c655780518252602082019150602081019050602083039250611c40565b6001836020036101000a03801982511681845116808217855250505050505090500191505060405180910390206040518263ffffffff167c0100000000000000000000000000000000000000000000000000000000028152600401808260001916600019168152602001915050602060405180830381600087803b158015611cec57600080fd5b505af1158015611d00573d6000803e3d6000fd5b505050506040513d6020811015611d1657600080fd5b8101908080519060200190929190505050905092915050565b60008173ffffffffffffffffffffffffffffffffffffffff1663bd02d0f560405180807f6375726174696f6e2e6375726174696f6e5468726573686f6c64000000000000815250601a01905060405180910390206040518263ffffffff167c0100000000000000000000000000000000000000000000000000000000028152600401808260001916600019168152602001915050602060405180830381600087803b158015611ddd57600080fd5b505af1158015611df1573d6000803e3d6000fd5b505050506040513d6020811015611e0757600080fd5b81019080805190602001909291905050509050919050565b8273ffffffffffffffffffffffffffffffffffffffff1663e2a4853a8360405160200180807f70726f6a6563742e737461747573000000000000000000000000000000000000815250600e018281526020019150506040516020818303038152906040526040518082805190602001908083835b602083101515611eb85780518252602082019150602081019050602083039250611e93565b6001836020036101000a0380198251168184511680821785525050505050509050019150506040518091039020836040518363ffffffff167c010000000000000000000000000000000000000000000000000000000002815260040180836000191660001916815260200182815260200192505050600060405180830381600087803b158015611f4757600080fd5b505af1158015611f5b573d6000803e3d6000fd5b50505050505050565b8273ffffffffffffffffffffffffffffffffffffffff1663e2a4853a8360405160200180807f636f6e747269627574696f6e2e636f6e747269627574696f6e506572696f645381526020017f74617274000000000000000000000000000000000000000000000000000000008152506024018281526020019150506040516020818303038152906040526040518082805190602001908083835b6020831015156120235780518252602082019150602081019050602083039250611ffe565b6001836020036101000a0380198251168184511680821785525050505050509050019150506040518091039020836040518363ffffffff167c010000000000000000000000000000000000000000000000000000000002815260040180836000191660001916815260200182815260200192505050600060405180830381600087803b1580156120b257600080fd5b505af11580156120c6573d6000803e3d6000fd5b50505050505050565b8273ffffffffffffffffffffffffffffffffffffffff1663abfdcced8360405160200180807f6375726174696f6e2e64726166744375726174696f6e2e697341637469766500815250601f018281526020019150506040516020818303038152906040526040518082805190602001908083835b6020831015156121685780518252602082019150602081019050602083039250612143565b6001836020036101000a0380198251168184511680821785525050505050509050019150506040518091039020836040518363ffffffff167c01000000000000000000000000000000000000000000000000000000000281526004018083600019166000191681526020018215151515815260200192505050600060405180830381600087803b1580156121fb57600080fd5b505af115801561220f573d6000803e3d6000fd5b50505050505050565b60008173ffffffffffffffffffffffffffffffffffffffff1663bd02d0f560405180807f6375726174696f6e2e6e65787443757261746f72496400000000000000000000815250601601905060405180910390206040518263ffffffff167c0100000000000000000000000000000000000000000000000000000000028152600401808260001916600019168152602001915050602060405180830381600087803b1580156122c657600080fd5b505af11580156122da573d6000803e3d6000fd5b505050506040513d60208110156122f057600080fd5b810190808051906020019092919050505090508173ffffffffffffffffffffffffffffffffffffffff1663e2a4853a60405180807f6375726174696f6e2e6e65787443757261746f7249640000000000000000000081525060160190506040518091039020600184016040518363ffffffff167c010000000000000000000000000000000000000000000000000000000002815260040180836000191660001916815260200182815260200192505050600060405180830381600087803b1580156123ba57600080fd5b505af11580156123ce573d6000803e3d6000fd5b505050505050565b600073ffffffffffffffffffffffffffffffffffffffff168173ffffffffffffffffffffffffffffffffffffffff161415151561241257600080fd5b8073ffffffffffffffffffffffffffffffffffffffff166000809054906101000a900473ffffffffffffffffffffffffffffffffffffffff1673ffffffffffffffffffffffffffffffffffffffff167f8be0079c531659141344cd1fd0a4f28419497f9722a3daafe3b4186f6b6457e060405160405180910390a3806000806101000a81548173ffffffffffffffffffffffffffffffffffffffff021916908373ffffffffffffffffffffffffffffffffffffffff16021790555050565b60008173ffffffffffffffffffffffffffffffffffffffff1663bd02d0f560405180807f6375726174696f6e2e6e65787443757261746f72496400000000000000000000815250601601905060405180910390206040518263ffffffff167c0100000000000000000000000000000000000000000000000000000000028152600401808260001916600019168152602001915050602060405180830381600087803b15801561257e57600080fd5b505af1158015612592573d6000803e3d6000fd5b505050506040513d60208110156125a857600080fd5b81019080805190602001909291905050509050919050565b606060405190810160405280600081526020016000815260200160001515815250905600a165627a7a7230582024aed6e75d280199249254360ae846b3a5f8e285832ca354cac210d84aa93c370029",
  "source": "pragma solidity ^0.4.24;\n\nimport \"./project/ProjectBase.sol\";\nimport \"./libraries/storage/CurationStorageAccess.sol\";\nimport \"./libraries/storage/ProjectStorageAccess.sol\";\n\ncontract Curation is Ownable {\n\n    using CurationStorageAccess for address;\n    using ProjectStorageAccess for address;\n    using ContributionStorageAccess for address;\n\n    modifier onlyCurator() {\n        require(fundingStorage.getCuratorId(msg.sender) != 0, \"You must be a curator to perform this action.\");\n        _;\n    }\n\n    modifier onlyDeveloper(uint _projectId) {\n        require(fundingStorage.getProjectDeveloper(_projectId) == msg.sender, \"You must be the project developer to perform this action.\");\n        _;\n    }\n\n    address public fundingStorage;\n\n    event CuratorCreated(address curatorAddress, uint curatorId);\n\n    constructor(address _fundingStorage) public {\n        fundingStorage = _fundingStorage;\n    }\n    \n    function () public payable {\n        revert();\n    }\n\n    function initialize() external {\n        require(FundingStorage(fundingStorage).getContractIsValid(this), \"This contract is not registered in FundingStorage.\");\n\n        // reserve curatorId 0\n        fundingStorage.incrementNextCuratorId();\n    }\n\n    function createCurator() external {\n        require(fundingStorage.getCuratorId(msg.sender) == 0, \"This account is already a curator.\");\n\n        // Get next ID from storage + increment next ID\n        uint id = fundingStorage.generateNewCuratorId();\n\n        // Create developer\n        fundingStorage.setCuratorId(msg.sender, id);\n\n        emit CuratorCreated(msg.sender, id);\n    }\n\n    function curate(uint _projectId, bool _isApproved) external onlyCurator {\n        require(fundingStorage.getDraftCurationIsActive(_projectId), \"This project is not open for curation.\");\n\n        uint currentApprovalCount = fundingStorage.getDraftCurationApprovalCount(_projectId);\n\n        if (_isApproved) {\n            fundingStorage.setDraftCurationApprovalCount(_projectId, currentApprovalCount + 1);\n        } else {\n            uint newCount;\n            (currentApprovalCount > 0) ? newCount = currentApprovalCount - 1 : newCount = 0;\n            fundingStorage.setDraftCurationApprovalCount(_projectId, newCount);\n        }\n    }\n\n    function publishProject(uint _projectId) external onlyDeveloper(_projectId) {\n        require(fundingStorage.getDraftCurationIsActive(_projectId), \"This project is not open for curation.\");\n        require(now < fundingStorage.getDraftCurationTimestamp(_projectId) + 4 weeks, \"The project curation window has not closed.\");\n\n        uint approvalCount = fundingStorage.getDraftCurationApprovalCount(_projectId);\n        uint curationThreshold = fundingStorage.getCurationThreshold();\n\n        if (approvalCount >= curationThreshold) {\n            fundingStorage.setProjectStatus(_projectId, uint(ProjectBase.Status.Contributable));\n            fundingStorage.setProjectContributionPeriodStart(_projectId, now);\n        } else {\n            fundingStorage.setProjectStatus(_projectId, uint(ProjectBase.Status.Rejected));\n        }\n\n        fundingStorage.setDraftCurationIsActive(_projectId, false);\n    }\n\n    function getDraftCuration(uint _projectId) external view returns (uint timestamp, uint approvalCount, bool isActive) {\n        CurationStorageAccess.DraftCuration memory draftCuration = fundingStorage.getDraftCuration(_projectId);\n\n        return (draftCuration.timestamp, draftCuration.approvalCount, draftCuration.isActive);\n    }\n\n    function getCurationThreshold() external view returns (uint threshold) {\n        threshold = fundingStorage.getCurationThreshold();\n    }\n\n    function setCurationThreshold(uint _threshold) external onlyOwner {\n        fundingStorage.setCurationThreshold(_threshold);\n    }\n}",
  "sourcePath": "/ude/hb/projects/funding-protocol/smart-contracts/ethereum/contracts/Curation.sol",
  "compiler": {
    "name": "solc",
    "version": "0.4.24+commit.e67f0147.Emscripten.clang"
  },
  "schemaVersion": "2.0.0",
  "updatedAt": "2018-07-22T20:27:18.161Z"
}