{
  "contractName": "Developer",
  "abi": [
    {
      "constant": true,
      "inputs": [],
      "name": "fundingStorage",
      "outputs": [
        {
          "name": "",
          "type": "address"
        }
      ],
      "payable": false,
      "stateMutability": "view",
      "type": "function"
    },
    {
      "inputs": [
        {
          "name": "_fundingStorage",
          "type": "address"
        }
      ],
      "payable": false,
      "stateMutability": "nonpayable",
      "type": "constructor"
    },
    {
      "payable": true,
      "stateMutability": "payable",
      "type": "fallback"
    },
    {
      "anonymous": false,
      "inputs": [
        {
          "indexed": false,
          "name": "developerAddress",
          "type": "address"
        },
        {
          "indexed": false,
          "name": "developerId",
          "type": "uint256"
        }
      ],
      "name": "DeveloperCreated",
      "type": "event"
    },
    {
      "constant": false,
      "inputs": [
        {
          "name": "_fundingStorage",
          "type": "address"
        }
      ],
      "name": "initialize",
      "outputs": [],
      "payable": false,
      "stateMutability": "nonpayable",
      "type": "function"
    },
    {
      "constant": false,
      "inputs": [
        {
          "name": "_name",
          "type": "string"
        }
      ],
      "name": "createDeveloper",
      "outputs": [],
      "payable": false,
      "stateMutability": "nonpayable",
      "type": "function"
    },
    {
      "constant": true,
      "inputs": [
        {
          "name": "_id",
          "type": "uint256"
        }
      ],
      "name": "getDeveloper",
      "outputs": [
        {
          "name": "id",
          "type": "uint256"
        },
        {
          "name": "addr",
          "type": "address"
        },
        {
          "name": "name",
          "type": "string"
        },
        {
          "name": "ownedProjectIds",
          "type": "uint256[]"
        }
      ],
      "payable": false,
      "stateMutability": "view",
      "type": "function"
    }
  ],
  "bytecode": "0x608060405234801561001057600080fd5b5060405160208061192783398101806040528101908080519060200190929190505050806000806101000a81548173ffffffffffffffffffffffffffffffffffffffff021916908373ffffffffffffffffffffffffffffffffffffffff160217905550506118a4806100836000396000f300608060405260043610610062576000357c0100000000000000000000000000000000000000000000000000000000900463ffffffff168063038edaa4146100675780637a276bb6146100be578063bc8f5872146101e6578063c4d66de814610221575b600080fd5b34801561007357600080fd5b5061007c610264565b604051808273ffffffffffffffffffffffffffffffffffffffff1673ffffffffffffffffffffffffffffffffffffffff16815260200191505060405180910390f35b3480156100ca57600080fd5b506100e960048036038101908080359060200190929190505050610289565b604051808581526020018473ffffffffffffffffffffffffffffffffffffffff1673ffffffffffffffffffffffffffffffffffffffff1681526020018060200180602001838103835285818151815260200191508051906020019080838360005b8381101561016557808201518184015260208101905061014a565b50505050905090810190601f1680156101925780820380516001836020036101000a031916815260200191505b50838103825284818151815260200191508051906020019060200280838360005b838110156101ce5780820151818401526020810190506101b3565b50505050905001965050505050505060405180910390f35b3480156101f257600080fd5b5061021f600480360381019080803590602001908201803590602001919091929391929390505050610309565b005b34801561022d57600080fd5b50610262600480360381019080803573ffffffffffffffffffffffffffffffffffffffff1690602001909291905050506105b9565b005b6000809054906101000a900473ffffffffffffffffffffffffffffffffffffffff1681565b600080606080610297611839565b6102e1866000809054906101000a900473ffffffffffffffffffffffffffffffffffffffff1673ffffffffffffffffffffffffffffffffffffffff1661078d90919063ffffffff16565b9050858160200151826040015183606001518191508090509450945094509450509193509193565b600080610356336000809054906101000a900473ffffffffffffffffffffffffffffffffffffffff1673ffffffffffffffffffffffffffffffffffffffff166108aa90919063ffffffff16565b1415156103f1576040517f08c379a00000000000000000000000000000000000000000000000000000000081526004018080602001828103825260248152602001807f54686973206163636f756e7420697320616c7265616479206120646576656c6f81526020017f7065722e0000000000000000000000000000000000000000000000000000000081525060400191505060405180910390fd5b6104316000809054906101000a900473ffffffffffffffffffffffffffffffffffffffff1673ffffffffffffffffffffffffffffffffffffffff16610a4a565b905061047f33826000809054906101000a900473ffffffffffffffffffffffffffffffffffffffff1673ffffffffffffffffffffffffffffffffffffffff16610a6a9092919063ffffffff16565b6104fd8184848080601f0160208091040260200160405190810160405280939291908181526020018383808284378201915050505050506000809054906101000a900473ffffffffffffffffffffffffffffffffffffffff1673ffffffffffffffffffffffffffffffffffffffff16610bea9092919063ffffffff16565b61054981336000809054906101000a900473ffffffffffffffffffffffffffffffffffffffff1673ffffffffffffffffffffffffffffffffffffffff16610d949092919063ffffffff16565b7f647b2cab84856b035a2ae29ea7e4ef40ec7b6e62555e63da635715a86871d5203382604051808373ffffffffffffffffffffffffffffffffffffffff1673ffffffffffffffffffffffffffffffffffffffff1681526020018281526020019250505060405180910390a1505050565b6000809054906101000a900473ffffffffffffffffffffffffffffffffffffffff1673ffffffffffffffffffffffffffffffffffffffff1663043c2677306040518263ffffffff167c0100000000000000000000000000000000000000000000000000000000028152600401808273ffffffffffffffffffffffffffffffffffffffff1673ffffffffffffffffffffffffffffffffffffffff168152602001915050602060405180830381600087803b15801561067557600080fd5b505af1158015610689573d6000803e3d6000fd5b505050506040513d602081101561069f57600080fd5b8101908080519060200190929190505050151561074a576040517f08c379a00000000000000000000000000000000000000000000000000000000081526004018080602001828103825260328152602001807f5468697320636f6e7472616374206973206e6f7420726567697374657265642081526020017f696e2046756e64696e6753746f726167652e000000000000000000000000000081525060400191505060405180910390fd5b61078a6000809054906101000a900473ffffffffffffffffffffffffffffffffffffffff1673ffffffffffffffffffffffffffffffffffffffff16610f05565b50565b610795611839565b61079d611839565b600073ffffffffffffffffffffffffffffffffffffffff166107bf85856110c3565b73ffffffffffffffffffffffffffffffffffffffff161415151561084b576040517f08c379a00000000000000000000000000000000000000000000000000000000081526004018080602001828103825260198152602001807f446576656c6f70657220646f6573206e6f742065786973742e0000000000000081525060200191505060405180910390fd5b60806040519081016040528084815260200161086786866110c3565b73ffffffffffffffffffffffffffffffffffffffff16815260200161088c8686611228565b815260200161089b86866113e3565b81525090508091505092915050565b60008273ffffffffffffffffffffffffffffffffffffffff1663bd02d0f58360405160200180807f646576656c6f7065722e646576656c6f7065724d6170000000000000000000008152506016018273ffffffffffffffffffffffffffffffffffffffff1673ffffffffffffffffffffffffffffffffffffffff166c010000000000000000000000000281526014019150506040516020818303038152906040526040518082805190602001908083835b602083101515610980578051825260208201915060208101905060208303925061095b565b6001836020036101000a03801982511681845116808217855250505050505090500191505060405180910390206040518263ffffffff167c0100000000000000000000000000000000000000000000000000000000028152600401808260001916600019168152602001915050602060405180830381600087803b158015610a0757600080fd5b505af1158015610a1b573d6000803e3d6000fd5b505050506040513d6020811015610a3157600080fd5b8101908080519060200190929190505050905092915050565b600080610a5683611476565b9050610a6183610f05565b80915050919050565b8273ffffffffffffffffffffffffffffffffffffffff1663e2a4853a8360405160200180807f646576656c6f7065722e646576656c6f7065724d6170000000000000000000008152506016018273ffffffffffffffffffffffffffffffffffffffff1673ffffffffffffffffffffffffffffffffffffffff166c010000000000000000000000000281526014019150506040516020818303038152906040526040518082805190602001908083835b602083101515610b3e5780518252602082019150602081019050602083039250610b19565b6001836020036101000a0380198251168184511680821785525050505050509050019150506040518091039020836040518363ffffffff167c010000000000000000000000000000000000000000000000000000000002815260040180836000191660001916815260200182815260200192505050600060405180830381600087803b158015610bcd57600080fd5b505af1158015610be1573d6000803e3d6000fd5b50505050505050565b8273ffffffffffffffffffffffffffffffffffffffff16636e8995508360405160200180807f646576656c6f7065722e6e616d65000000000000000000000000000000000000815250600e018281526020019150506040516020818303038152906040526040518082805190602001908083835b602083101515610c835780518252602082019150602081019050602083039250610c5e565b6001836020036101000a0380198251168184511680821785525050505050509050019150506040518091039020836040518363ffffffff167c010000000000000000000000000000000000000000000000000000000002815260040180836000191660001916815260200180602001828103825283818151815260200191508051906020019080838360005b83811015610d2a578082015181840152602081019050610d0f565b50505050905090810190601f168015610d575780820380516001836020036101000a031916815260200191505b509350505050600060405180830381600087803b158015610d7757600080fd5b505af1158015610d8b573d6000803e3d6000fd5b50505050505050565b8273ffffffffffffffffffffffffffffffffffffffff1663ca446dd98360405160200180807f646576656c6f7065722e616464726573730000000000000000000000000000008152506011018281526020019150506040516020818303038152906040526040518082805190602001908083835b602083101515610e2d5780518252602082019150602081019050602083039250610e08565b6001836020036101000a0380198251168184511680821785525050505050509050019150506040518091039020836040518363ffffffff167c01000000000000000000000000000000000000000000000000000000000281526004018083600019166000191681526020018273ffffffffffffffffffffffffffffffffffffffff1673ffffffffffffffffffffffffffffffffffffffff16815260200192505050600060405180830381600087803b158015610ee857600080fd5b505af1158015610efc573d6000803e3d6000fd5b50505050505050565b60008173ffffffffffffffffffffffffffffffffffffffff1663bd02d0f560405180807f646576656c6f7065722e6e657874446576656c6f706572496400000000000000815250601901905060405180910390206040518263ffffffff167c0100000000000000000000000000000000000000000000000000000000028152600401808260001916600019168152602001915050602060405180830381600087803b158015610fb357600080fd5b505af1158015610fc7573d6000803e3d6000fd5b505050506040513d6020811015610fdd57600080fd5b810190808051906020019092919050505090508173ffffffffffffffffffffffffffffffffffffffff1663e2a4853a60405180807f646576656c6f7065722e6e657874446576656c6f70657249640000000000000081525060190190506040518091039020600184016040518363ffffffff167c010000000000000000000000000000000000000000000000000000000002815260040180836000191660001916815260200182815260200192505050600060405180830381600087803b1580156110a757600080fd5b505af11580156110bb573d6000803e3d6000fd5b505050505050565b60008273ffffffffffffffffffffffffffffffffffffffff166321f8a7218360405160200180807f646576656c6f7065722e616464726573730000000000000000000000000000008152506011018281526020019150506040516020818303038152906040526040518082805190602001908083835b60208310151561115e5780518252602082019150602081019050602083039250611139565b6001836020036101000a03801982511681845116808217855250505050505090500191505060405180910390206040518263ffffffff167c0100000000000000000000000000000000000000000000000000000000028152600401808260001916600019168152602001915050602060405180830381600087803b1580156111e557600080fd5b505af11580156111f9573d6000803e3d6000fd5b505050506040513d602081101561120f57600080fd5b8101908080519060200190929190505050905092915050565b60608273ffffffffffffffffffffffffffffffffffffffff1663986e791a8360405160200180807f646576656c6f7065722e6e616d65000000000000000000000000000000000000815250600e018281526020019150506040516020818303038152906040526040518082805190602001908083835b6020831015156112c3578051825260208201915060208101905060208303925061129e565b6001836020036101000a03801982511681845116808217855250505050505090500191505060405180910390206040518263ffffffff167c0100000000000000000000000000000000000000000000000000000000028152600401808260001916600019168152602001915050600060405180830381600087803b15801561134a57600080fd5b505af115801561135e573d6000803e3d6000fd5b505050506040513d6000823e3d601f19601f82011682018060405250602081101561138857600080fd5b8101908080516401000000008111156113a057600080fd5b828101905060208101848111156113b657600080fd5b81518560018202830111640100000000821117156113d357600080fd5b5050929190505050905092915050565b60606000606060006113f58686611566565b9250826040519080825280602002602001820160405280156114265781602001602082028038833980820191505090505b509150600090505b8281101561146a576114418686836116cb565b828281518110151561144f57fe5b9060200190602002018181525050808060010191505061142e565b81935050505092915050565b60008173ffffffffffffffffffffffffffffffffffffffff1663bd02d0f560405180807f646576656c6f7065722e6e657874446576656c6f706572496400000000000000815250601901905060405180910390206040518263ffffffff167c0100000000000000000000000000000000000000000000000000000000028152600401808260001916600019168152602001915050602060405180830381600087803b15801561152457600080fd5b505af1158015611538573d6000803e3d6000fd5b505050506040513d602081101561154e57600080fd5b81019080805190602001909291905050509050919050565b60008273ffffffffffffffffffffffffffffffffffffffff1663bd02d0f58360405160200180807f646576656c6f7065722e70726f6a6563744964732e6c656e6774680000000000815250601b018281526020019150506040516020818303038152906040526040518082805190602001908083835b60208310151561160157805182526020820191506020810190506020830392506115dc565b6001836020036101000a03801982511681845116808217855250505050505090500191505060405180910390206040518263ffffffff167c0100000000000000000000000000000000000000000000000000000000028152600401808260001916600019168152602001915050602060405180830381600087803b15801561168857600080fd5b505af115801561169c573d6000803e3d6000fd5b505050506040513d60208110156116b257600080fd5b8101908080519060200190929190505050905092915050565b60008373ffffffffffffffffffffffffffffffffffffffff1663bd02d0f5838560405160200180807f646576656c6f7065722e70726f6a656374496473000000000000000000000000815250601401838152602001828152602001925050506040516020818303038152906040526040518082805190602001908083835b60208310151561176e5780518252602082019150602081019050602083039250611749565b6001836020036101000a03801982511681845116808217855250505050505090500191505060405180910390206040518263ffffffff167c0100000000000000000000000000000000000000000000000000000000028152600401808260001916600019168152602001915050602060405180830381600087803b1580156117f557600080fd5b505af1158015611809573d6000803e3d6000fd5b505050506040513d602081101561181f57600080fd5b810190808051906020019092919050505090509392505050565b60806040519081016040528060008152602001600073ffffffffffffffffffffffffffffffffffffffff168152602001606081526020016060815250905600a165627a7a72305820198660672faf77bf9fe567b78a845c9da15593efa468526e64fe3e72dae927670029",
  "source": "pragma solidity ^0.4.24;\n\nimport \"./libraries/storage/DeveloperStorageAccess.sol\";\n\ncontract Developer {\n\n    using DeveloperStorageAccess for address;\n\n    modifier onlyLatestFundingContract() {\n        require(FundingStorage(fundingStorage).getBool(keccak256(abi.encodePacked(\"contract.address\", msg.sender))));\n        _;\n    }\n\n    address public fundingStorage;\n\n    event DeveloperCreated(address developerAddress, uint developerId);\n\n    constructor(address _fundingStorage) public {\n        fundingStorage = _fundingStorage;\n    }\n\n    function () public payable {\n        revert();\n    }\n\n    function initialize(address _fundingStorage) external {\n        require(FundingStorage(fundingStorage).getContractIsValid(this), \"This contract is not registered in FundingStorage.\");\n\n        // reserve developerId 0\n        fundingStorage.incrementNextDeveloperId();\n    }\n\n    function createDeveloper(string _name) external {\n        require(fundingStorage.getDeveloperId(msg.sender) == 0, \"This account is already a developer.\");\n\n        // Get next ID from storage + increment next ID\n        uint id = fundingStorage.generateNewDeveloperId();\n\n        // Create developer\n        fundingStorage.setDeveloperId(msg.sender, id);\n        fundingStorage.setDeveloperName(id, _name);\n        fundingStorage.setDeveloperAddress(id, msg.sender);\n\n        emit DeveloperCreated(msg.sender, id);\n    }\n\n    function getDeveloper(uint _id) external view\n        returns (\n            uint id,\n            address addr,\n            string name,\n            uint[] ownedProjectIds\n        )\n    {\n        DeveloperStorageAccess.Developer memory developer = fundingStorage.getDeveloper(_id);\n        return (_id, developer.addr, developer.name, developer.ownedProjectIds);\n    }\n}",
  "sourcePath": "/home/jordan/Projects/hyperbridge/funding-protocol/smart-contracts/ethereum/contracts/Developer.sol",
  "compiler": {
    "name": "solc",
    "version": "0.4.24+commit.e67f0147.Emscripten.clang"
  },
  "schemaVersion": "2.0.1",
  "updatedAt": "2018-07-21T07:36:54.644Z"
}