{
  "contractName": "Developer",
  "abi": [
    {
      "constant": true,
      "inputs": [],
      "name": "fundingStorage",
      "outputs": [
        {
          "name": "",
          "type": "address"
        }
      ],
      "payable": false,
      "stateMutability": "view",
      "type": "function"
    },
    {
      "constant": false,
      "inputs": [
        {
          "name": "_time",
          "type": "uint256"
        }
      ],
      "name": "setTestTime",
      "outputs": [],
      "payable": false,
      "stateMutability": "nonpayable",
      "type": "function"
    },
    {
      "inputs": [
        {
          "name": "_fundingStorage",
          "type": "address"
        },
        {
          "name": "_inTest",
          "type": "bool"
        }
      ],
      "payable": false,
      "stateMutability": "nonpayable",
      "type": "constructor"
    },
    {
      "payable": true,
      "stateMutability": "payable",
      "type": "fallback"
    },
    {
      "anonymous": false,
      "inputs": [
        {
          "indexed": false,
          "name": "developerAddress",
          "type": "address"
        },
        {
          "indexed": false,
          "name": "developerId",
          "type": "uint256"
        }
      ],
      "name": "DeveloperCreated",
      "type": "event"
    },
    {
      "constant": false,
      "inputs": [],
      "name": "initialize",
      "outputs": [],
      "payable": false,
      "stateMutability": "nonpayable",
      "type": "function"
    },
    {
      "constant": false,
      "inputs": [
        {
          "name": "_name",
          "type": "string"
        }
      ],
      "name": "createDeveloper",
      "outputs": [],
      "payable": false,
      "stateMutability": "nonpayable",
      "type": "function"
    },
    {
      "constant": true,
      "inputs": [
        {
          "name": "_id",
          "type": "uint256"
        }
      ],
      "name": "getDeveloper",
      "outputs": [
        {
          "name": "id",
          "type": "uint256"
        },
        {
          "name": "addr",
          "type": "address"
        },
        {
          "name": "name",
          "type": "string"
        },
        {
          "name": "ownedProjectIds",
          "type": "uint256[]"
        }
      ],
      "payable": false,
      "stateMutability": "view",
      "type": "function"
    }
  ],
  "bytecode": "0x608060405234801561001057600080fd5b50604051604080611986833981018060405281019080805190602001909291908051906020019092919050505080806000806101000a81548160ff0219169083151502179055505081600260006101000a81548173ffffffffffffffffffffffffffffffffffffffff021916908373ffffffffffffffffffffffffffffffffffffffff16021790555050506118dc806100aa6000396000f30060806040526004361061006d576000357c0100000000000000000000000000000000000000000000000000000000900463ffffffff168063038edaa414610072578063097c7406146100c95780637a276bb6146100f65780638129fc1c1461021e578063bc8f587214610235575b600080fd5b34801561007e57600080fd5b50610087610270565b604051808273ffffffffffffffffffffffffffffffffffffffff1673ffffffffffffffffffffffffffffffffffffffff16815260200191505060405180910390f35b3480156100d557600080fd5b506100f460048036038101908080359060200190929190505050610296565b005b34801561010257600080fd5b50610121600480360381019080803590602001909291905050506102ba565b604051808581526020018473ffffffffffffffffffffffffffffffffffffffff1673ffffffffffffffffffffffffffffffffffffffff1681526020018060200180602001838103835285818151815260200191508051906020019080838360005b8381101561019d578082015181840152602081019050610182565b50505050905090810190601f1680156101ca5780820380516001836020036101000a031916815260200191505b50838103825284818151815260200191508051906020019060200280838360005b838110156102065780820151818401526020810190506101eb565b50505050905001965050505050505060405180910390f35b34801561022a57600080fd5b5061023361033b565b005b34801561024157600080fd5b5061026e600480360381019080803590602001908201803590602001919091929391929390505050610510565b005b600260009054906101000a900473ffffffffffffffffffffffffffffffffffffffff1681565b6000809054906101000a900460ff1615156102b057600080fd5b8060018190555050565b6000806060806102c8611871565b61031386600260009054906101000a900473ffffffffffffffffffffffffffffffffffffffff1673ffffffffffffffffffffffffffffffffffffffff166107c590919063ffffffff16565b9050858160200151826040015183606001518191508090509450945094509450509193509193565b600260009054906101000a900473ffffffffffffffffffffffffffffffffffffffff1673ffffffffffffffffffffffffffffffffffffffff1663043c2677306040518263ffffffff167c0100000000000000000000000000000000000000000000000000000000028152600401808273ffffffffffffffffffffffffffffffffffffffff1673ffffffffffffffffffffffffffffffffffffffff168152602001915050602060405180830381600087803b1580156103f857600080fd5b505af115801561040c573d6000803e3d6000fd5b505050506040513d602081101561042257600080fd5b810190808051906020019092919050505015156104cd576040517f08c379a00000000000000000000000000000000000000000000000000000000081526004018080602001828103825260328152602001807f5468697320636f6e7472616374206973206e6f7420726567697374657265642081526020017f696e2046756e64696e6753746f726167652e000000000000000000000000000081525060400191505060405180910390fd5b61050e600260009054906101000a900473ffffffffffffffffffffffffffffffffffffffff1673ffffffffffffffffffffffffffffffffffffffff166108e2565b565b60008061055e33600260009054906101000a900473ffffffffffffffffffffffffffffffffffffffff1673ffffffffffffffffffffffffffffffffffffffff16610aa090919063ffffffff16565b1415156105f9576040517f08c379a00000000000000000000000000000000000000000000000000000000081526004018080602001828103825260248152602001807f54686973206163636f756e7420697320616c7265616479206120646576656c6f81526020017f7065722e0000000000000000000000000000000000000000000000000000000081525060400191505060405180910390fd5b61063a600260009054906101000a900473ffffffffffffffffffffffffffffffffffffffff1673ffffffffffffffffffffffffffffffffffffffff16610c40565b90506106893382600260009054906101000a900473ffffffffffffffffffffffffffffffffffffffff1673ffffffffffffffffffffffffffffffffffffffff16610c609092919063ffffffff16565b6107088184848080601f016020809104026020016040519081016040528093929190818152602001838380828437820191505050505050600260009054906101000a900473ffffffffffffffffffffffffffffffffffffffff1673ffffffffffffffffffffffffffffffffffffffff16610de09092919063ffffffff16565b6107558133600260009054906101000a900473ffffffffffffffffffffffffffffffffffffffff1673ffffffffffffffffffffffffffffffffffffffff16610f8a9092919063ffffffff16565b7f647b2cab84856b035a2ae29ea7e4ef40ec7b6e62555e63da635715a86871d5203382604051808373ffffffffffffffffffffffffffffffffffffffff1673ffffffffffffffffffffffffffffffffffffffff1681526020018281526020019250505060405180910390a1505050565b6107cd611871565b6107d5611871565b600073ffffffffffffffffffffffffffffffffffffffff166107f785856110fb565b73ffffffffffffffffffffffffffffffffffffffff1614151515610883576040517f08c379a00000000000000000000000000000000000000000000000000000000081526004018080602001828103825260198152602001807f446576656c6f70657220646f6573206e6f742065786973742e0000000000000081525060200191505060405180910390fd5b60806040519081016040528084815260200161089f86866110fb565b73ffffffffffffffffffffffffffffffffffffffff1681526020016108c48686611260565b81526020016108d3868661141b565b81525090508091505092915050565b60008173ffffffffffffffffffffffffffffffffffffffff1663bd02d0f560405180807f646576656c6f7065722e6e657874446576656c6f706572496400000000000000815250601901905060405180910390206040518263ffffffff167c0100000000000000000000000000000000000000000000000000000000028152600401808260001916600019168152602001915050602060405180830381600087803b15801561099057600080fd5b505af11580156109a4573d6000803e3d6000fd5b505050506040513d60208110156109ba57600080fd5b810190808051906020019092919050505090508173ffffffffffffffffffffffffffffffffffffffff1663e2a4853a60405180807f646576656c6f7065722e6e657874446576656c6f70657249640000000000000081525060190190506040518091039020600184016040518363ffffffff167c010000000000000000000000000000000000000000000000000000000002815260040180836000191660001916815260200182815260200192505050600060405180830381600087803b158015610a8457600080fd5b505af1158015610a98573d6000803e3d6000fd5b505050505050565b60008273ffffffffffffffffffffffffffffffffffffffff1663bd02d0f58360405160200180807f646576656c6f7065722e646576656c6f7065724d6170000000000000000000008152506016018273ffffffffffffffffffffffffffffffffffffffff1673ffffffffffffffffffffffffffffffffffffffff166c010000000000000000000000000281526014019150506040516020818303038152906040526040518082805190602001908083835b602083101515610b765780518252602082019150602081019050602083039250610b51565b6001836020036101000a03801982511681845116808217855250505050505090500191505060405180910390206040518263ffffffff167c0100000000000000000000000000000000000000000000000000000000028152600401808260001916600019168152602001915050602060405180830381600087803b158015610bfd57600080fd5b505af1158015610c11573d6000803e3d6000fd5b505050506040513d6020811015610c2757600080fd5b8101908080519060200190929190505050905092915050565b600080610c4c836114ae565b9050610c57836108e2565b80915050919050565b8273ffffffffffffffffffffffffffffffffffffffff1663e2a4853a8360405160200180807f646576656c6f7065722e646576656c6f7065724d6170000000000000000000008152506016018273ffffffffffffffffffffffffffffffffffffffff1673ffffffffffffffffffffffffffffffffffffffff166c010000000000000000000000000281526014019150506040516020818303038152906040526040518082805190602001908083835b602083101515610d345780518252602082019150602081019050602083039250610d0f565b6001836020036101000a0380198251168184511680821785525050505050509050019150506040518091039020836040518363ffffffff167c010000000000000000000000000000000000000000000000000000000002815260040180836000191660001916815260200182815260200192505050600060405180830381600087803b158015610dc357600080fd5b505af1158015610dd7573d6000803e3d6000fd5b50505050505050565b8273ffffffffffffffffffffffffffffffffffffffff16636e8995508360405160200180807f646576656c6f7065722e6e616d65000000000000000000000000000000000000815250600e018281526020019150506040516020818303038152906040526040518082805190602001908083835b602083101515610e795780518252602082019150602081019050602083039250610e54565b6001836020036101000a0380198251168184511680821785525050505050509050019150506040518091039020836040518363ffffffff167c010000000000000000000000000000000000000000000000000000000002815260040180836000191660001916815260200180602001828103825283818151815260200191508051906020019080838360005b83811015610f20578082015181840152602081019050610f05565b50505050905090810190601f168015610f4d5780820380516001836020036101000a031916815260200191505b509350505050600060405180830381600087803b158015610f6d57600080fd5b505af1158015610f81573d6000803e3d6000fd5b50505050505050565b8273ffffffffffffffffffffffffffffffffffffffff1663ca446dd98360405160200180807f646576656c6f7065722e616464726573730000000000000000000000000000008152506011018281526020019150506040516020818303038152906040526040518082805190602001908083835b6020831015156110235780518252602082019150602081019050602083039250610ffe565b6001836020036101000a0380198251168184511680821785525050505050509050019150506040518091039020836040518363ffffffff167c01000000000000000000000000000000000000000000000000000000000281526004018083600019166000191681526020018273ffffffffffffffffffffffffffffffffffffffff1673ffffffffffffffffffffffffffffffffffffffff16815260200192505050600060405180830381600087803b1580156110de57600080fd5b505af11580156110f2573d6000803e3d6000fd5b50505050505050565b60008273ffffffffffffffffffffffffffffffffffffffff166321f8a7218360405160200180807f646576656c6f7065722e616464726573730000000000000000000000000000008152506011018281526020019150506040516020818303038152906040526040518082805190602001908083835b6020831015156111965780518252602082019150602081019050602083039250611171565b6001836020036101000a03801982511681845116808217855250505050505090500191505060405180910390206040518263ffffffff167c0100000000000000000000000000000000000000000000000000000000028152600401808260001916600019168152602001915050602060405180830381600087803b15801561121d57600080fd5b505af1158015611231573d6000803e3d6000fd5b505050506040513d602081101561124757600080fd5b8101908080519060200190929190505050905092915050565b60608273ffffffffffffffffffffffffffffffffffffffff1663986e791a8360405160200180807f646576656c6f7065722e6e616d65000000000000000000000000000000000000815250600e018281526020019150506040516020818303038152906040526040518082805190602001908083835b6020831015156112fb57805182526020820191506020810190506020830392506112d6565b6001836020036101000a03801982511681845116808217855250505050505090500191505060405180910390206040518263ffffffff167c0100000000000000000000000000000000000000000000000000000000028152600401808260001916600019168152602001915050600060405180830381600087803b15801561138257600080fd5b505af1158015611396573d6000803e3d6000fd5b505050506040513d6000823e3d601f19601f8201168201806040525060208110156113c057600080fd5b8101908080516401000000008111156113d857600080fd5b828101905060208101848111156113ee57600080fd5b815185600182028301116401000000008211171561140b57600080fd5b5050929190505050905092915050565b606060006060600061142d868661159e565b92508260405190808252806020026020018201604052801561145e5781602001602082028038833980820191505090505b509150600090505b828110156114a257611479868683611703565b828281518110151561148757fe5b90602001906020020181815250508080600101915050611466565b81935050505092915050565b60008173ffffffffffffffffffffffffffffffffffffffff1663bd02d0f560405180807f646576656c6f7065722e6e657874446576656c6f706572496400000000000000815250601901905060405180910390206040518263ffffffff167c0100000000000000000000000000000000000000000000000000000000028152600401808260001916600019168152602001915050602060405180830381600087803b15801561155c57600080fd5b505af1158015611570573d6000803e3d6000fd5b505050506040513d602081101561158657600080fd5b81019080805190602001909291905050509050919050565b60008273ffffffffffffffffffffffffffffffffffffffff1663bd02d0f58360405160200180807f646576656c6f7065722e70726f6a6563744964732e6c656e6774680000000000815250601b018281526020019150506040516020818303038152906040526040518082805190602001908083835b6020831015156116395780518252602082019150602081019050602083039250611614565b6001836020036101000a03801982511681845116808217855250505050505090500191505060405180910390206040518263ffffffff167c0100000000000000000000000000000000000000000000000000000000028152600401808260001916600019168152602001915050602060405180830381600087803b1580156116c057600080fd5b505af11580156116d4573d6000803e3d6000fd5b505050506040513d60208110156116ea57600080fd5b8101908080519060200190929190505050905092915050565b60008373ffffffffffffffffffffffffffffffffffffffff1663bd02d0f5838560405160200180807f646576656c6f7065722e70726f6a656374496473000000000000000000000000815250601401838152602001828152602001925050506040516020818303038152906040526040518082805190602001908083835b6020831015156117a65780518252602082019150602081019050602083039250611781565b6001836020036101000a03801982511681845116808217855250505050505090500191505060405180910390206040518263ffffffff167c0100000000000000000000000000000000000000000000000000000000028152600401808260001916600019168152602001915050602060405180830381600087803b15801561182d57600080fd5b505af1158015611841573d6000803e3d6000fd5b505050506040513d602081101561185757600080fd5b810190808051906020019092919050505090509392505050565b60806040519081016040528060008152602001600073ffffffffffffffffffffffffffffffffffffffff168152602001606081526020016060815250905600a165627a7a7230582078d6a1983761288f712cebfb5926a1d140eaabe6f59c7d96a5cdf266735d65060029",
  "source": "pragma solidity ^0.4.24;\n\nimport \"./libraries/storage/DeveloperStorageAccess.sol\";\nimport \"./Testable.sol\";\n\ncontract Developer is Testable {\n\n    using DeveloperStorageAccess for address;\n\n    modifier onlyLatestFundingContract() {\n        require(FundingStorage(fundingStorage).getBool(keccak256(abi.encodePacked(\"contract.address\", msg.sender))));\n        _;\n    }\n\n    address public fundingStorage;\n    bool private inTest;\n\n    event DeveloperCreated(address developerAddress, uint developerId);\n\n    constructor(address _fundingStorage, bool _inTest) public Testable(_inTest) {\n        fundingStorage = _fundingStorage;\n    }\n\n    function () public payable {\n        revert();\n    }\n\n    function initialize() external {\n        require(FundingStorage(fundingStorage).getContractIsValid(this), \"This contract is not registered in FundingStorage.\");\n\n        // reserve developerId 0\n        fundingStorage.incrementNextDeveloperId();\n    }\n\n    function createDeveloper(string _name) external {\n        require(fundingStorage.getDeveloperId(msg.sender) == 0, \"This account is already a developer.\");\n\n        // Get next ID from storage + increment next ID\n        uint id = fundingStorage.generateNewDeveloperId();\n\n        // Create developer\n        fundingStorage.setDeveloperId(msg.sender, id);\n        fundingStorage.setDeveloperName(id, _name);\n        fundingStorage.setDeveloperAddress(id, msg.sender);\n\n        emit DeveloperCreated(msg.sender, id);\n    }\n\n    function getDeveloper(uint _id) external view\n        returns (\n            uint id,\n            address addr,\n            string name,\n            uint[] ownedProjectIds\n        )\n    {\n        DeveloperStorageAccess.Developer memory developer = fundingStorage.getDeveloper(_id);\n        return (_id, developer.addr, developer.name, developer.ownedProjectIds);\n    }\n}",
  "sourcePath": "/home/jordan/Projects/hyperbridge/funding-protocol/smart-contracts/ethereum/contracts/Developer.sol",
  "compiler": {
    "name": "solc",
    "version": "0.4.24+commit.e67f0147.Emscripten.clang"
  },
  "schemaVersion": "2.0.1",
  "updatedAt": "2018-07-26T16:56:23.253Z"
}