{
  "contractName": "Developer",
  "abi": [
    {
      "constant": true,
      "inputs": [],
      "name": "fundingStorage",
      "outputs": [
        {
          "name": "",
          "type": "address"
        }
      ],
      "payable": false,
      "stateMutability": "view",
      "type": "function"
    },
    {
      "inputs": [
        {
          "name": "_fundingStorage",
          "type": "address"
        }
      ],
      "payable": false,
      "stateMutability": "nonpayable",
      "type": "constructor"
    },
    {
      "payable": true,
      "stateMutability": "payable",
      "type": "fallback"
    },
    {
      "anonymous": false,
      "inputs": [
        {
          "indexed": false,
          "name": "developerAddress",
          "type": "address"
        },
        {
          "indexed": false,
          "name": "developerId",
          "type": "uint256"
        }
      ],
      "name": "DeveloperCreated",
      "type": "event"
    },
    {
      "constant": false,
      "inputs": [],
      "name": "initialize",
      "outputs": [],
      "payable": false,
      "stateMutability": "nonpayable",
      "type": "function"
    },
    {
      "constant": false,
      "inputs": [
        {
          "name": "_name",
          "type": "string"
        }
      ],
      "name": "createDeveloper",
      "outputs": [],
      "payable": false,
      "stateMutability": "nonpayable",
      "type": "function"
    },
    {
      "constant": true,
      "inputs": [
        {
          "name": "_id",
          "type": "uint256"
        }
      ],
      "name": "getDeveloper",
      "outputs": [
        {
          "name": "id",
          "type": "uint256"
        },
        {
          "name": "addr",
          "type": "address"
        },
        {
          "name": "name",
          "type": "string"
        },
        {
          "name": "ownedProjectIds",
          "type": "uint256[]"
        }
      ],
      "payable": false,
      "stateMutability": "view",
      "type": "function"
    }
  ],
  "bytecode": "0x608060405234801561001057600080fd5b506040516020806118fa83398101806040528101908080519060200190929190505050806000806101000a81548173ffffffffffffffffffffffffffffffffffffffff021916908373ffffffffffffffffffffffffffffffffffffffff16021790555050611877806100836000396000f300608060405260043610610062576000357c0100000000000000000000000000000000000000000000000000000000900463ffffffff168063038edaa4146100675780637a276bb6146100be5780638129fc1c146101e6578063bc8f5872146101fd575b600080fd5b34801561007357600080fd5b5061007c610238565b604051808273ffffffffffffffffffffffffffffffffffffffff1673ffffffffffffffffffffffffffffffffffffffff16815260200191505060405180910390f35b3480156100ca57600080fd5b506100e96004803603810190808035906020019092919050505061025d565b604051808581526020018473ffffffffffffffffffffffffffffffffffffffff1673ffffffffffffffffffffffffffffffffffffffff1681526020018060200180602001838103835285818151815260200191508051906020019080838360005b8381101561016557808201518184015260208101905061014a565b50505050905090810190601f1680156101925780820380516001836020036101000a031916815260200191505b50838103825284818151815260200191508051906020019060200280838360005b838110156101ce5780820151818401526020810190506101b3565b50505050905001965050505050505060405180910390f35b3480156101f257600080fd5b506101fb6102dd565b005b34801561020957600080fd5b506102366004803603810190808035906020019082018035906020019190919293919293905050506104b0565b005b6000809054906101000a900473ffffffffffffffffffffffffffffffffffffffff1681565b60008060608061026b61180c565b6102b5866000809054906101000a900473ffffffffffffffffffffffffffffffffffffffff1673ffffffffffffffffffffffffffffffffffffffff1661076090919063ffffffff16565b9050858160200151826040015183606001518191508090509450945094509450509193509193565b6000809054906101000a900473ffffffffffffffffffffffffffffffffffffffff1673ffffffffffffffffffffffffffffffffffffffff1663043c2677306040518263ffffffff167c0100000000000000000000000000000000000000000000000000000000028152600401808273ffffffffffffffffffffffffffffffffffffffff1673ffffffffffffffffffffffffffffffffffffffff168152602001915050602060405180830381600087803b15801561039957600080fd5b505af11580156103ad573d6000803e3d6000fd5b505050506040513d60208110156103c357600080fd5b8101908080519060200190929190505050151561046e576040517f08c379a00000000000000000000000000000000000000000000000000000000081526004018080602001828103825260328152602001807f5468697320636f6e7472616374206973206e6f7420726567697374657265642081526020017f696e2046756e64696e6753746f726167652e000000000000000000000000000081525060400191505060405180910390fd5b6104ae6000809054906101000a900473ffffffffffffffffffffffffffffffffffffffff1673ffffffffffffffffffffffffffffffffffffffff1661087d565b565b6000806104fd336000809054906101000a900473ffffffffffffffffffffffffffffffffffffffff1673ffffffffffffffffffffffffffffffffffffffff16610a3b90919063ffffffff16565b141515610598576040517f08c379a00000000000000000000000000000000000000000000000000000000081526004018080602001828103825260248152602001807f54686973206163636f756e7420697320616c7265616479206120646576656c6f81526020017f7065722e0000000000000000000000000000000000000000000000000000000081525060400191505060405180910390fd5b6105d86000809054906101000a900473ffffffffffffffffffffffffffffffffffffffff1673ffffffffffffffffffffffffffffffffffffffff16610bdb565b905061062633826000809054906101000a900473ffffffffffffffffffffffffffffffffffffffff1673ffffffffffffffffffffffffffffffffffffffff16610bfb9092919063ffffffff16565b6106a48184848080601f0160208091040260200160405190810160405280939291908181526020018383808284378201915050505050506000809054906101000a900473ffffffffffffffffffffffffffffffffffffffff1673ffffffffffffffffffffffffffffffffffffffff16610d7b9092919063ffffffff16565b6106f081336000809054906101000a900473ffffffffffffffffffffffffffffffffffffffff1673ffffffffffffffffffffffffffffffffffffffff16610f259092919063ffffffff16565b7f647b2cab84856b035a2ae29ea7e4ef40ec7b6e62555e63da635715a86871d5203382604051808373ffffffffffffffffffffffffffffffffffffffff1673ffffffffffffffffffffffffffffffffffffffff1681526020018281526020019250505060405180910390a1505050565b61076861180c565b61077061180c565b600073ffffffffffffffffffffffffffffffffffffffff166107928585611096565b73ffffffffffffffffffffffffffffffffffffffff161415151561081e576040517f08c379a00000000000000000000000000000000000000000000000000000000081526004018080602001828103825260198152602001807f446576656c6f70657220646f6573206e6f742065786973742e0000000000000081525060200191505060405180910390fd5b60806040519081016040528084815260200161083a8686611096565b73ffffffffffffffffffffffffffffffffffffffff16815260200161085f86866111fb565b815260200161086e86866113b6565b81525090508091505092915050565b60008173ffffffffffffffffffffffffffffffffffffffff1663bd02d0f560405180807f646576656c6f7065722e6e657874446576656c6f706572496400000000000000815250601901905060405180910390206040518263ffffffff167c0100000000000000000000000000000000000000000000000000000000028152600401808260001916600019168152602001915050602060405180830381600087803b15801561092b57600080fd5b505af115801561093f573d6000803e3d6000fd5b505050506040513d602081101561095557600080fd5b810190808051906020019092919050505090508173ffffffffffffffffffffffffffffffffffffffff1663e2a4853a60405180807f646576656c6f7065722e6e657874446576656c6f70657249640000000000000081525060190190506040518091039020600184016040518363ffffffff167c010000000000000000000000000000000000000000000000000000000002815260040180836000191660001916815260200182815260200192505050600060405180830381600087803b158015610a1f57600080fd5b505af1158015610a33573d6000803e3d6000fd5b505050505050565b60008273ffffffffffffffffffffffffffffffffffffffff1663bd02d0f58360405160200180807f646576656c6f7065722e646576656c6f7065724d6170000000000000000000008152506016018273ffffffffffffffffffffffffffffffffffffffff1673ffffffffffffffffffffffffffffffffffffffff166c010000000000000000000000000281526014019150506040516020818303038152906040526040518082805190602001908083835b602083101515610b115780518252602082019150602081019050602083039250610aec565b6001836020036101000a03801982511681845116808217855250505050505090500191505060405180910390206040518263ffffffff167c0100000000000000000000000000000000000000000000000000000000028152600401808260001916600019168152602001915050602060405180830381600087803b158015610b9857600080fd5b505af1158015610bac573d6000803e3d6000fd5b505050506040513d6020811015610bc257600080fd5b8101908080519060200190929190505050905092915050565b600080610be783611449565b9050610bf28361087d565b80915050919050565b8273ffffffffffffffffffffffffffffffffffffffff1663e2a4853a8360405160200180807f646576656c6f7065722e646576656c6f7065724d6170000000000000000000008152506016018273ffffffffffffffffffffffffffffffffffffffff1673ffffffffffffffffffffffffffffffffffffffff166c010000000000000000000000000281526014019150506040516020818303038152906040526040518082805190602001908083835b602083101515610ccf5780518252602082019150602081019050602083039250610caa565b6001836020036101000a0380198251168184511680821785525050505050509050019150506040518091039020836040518363ffffffff167c010000000000000000000000000000000000000000000000000000000002815260040180836000191660001916815260200182815260200192505050600060405180830381600087803b158015610d5e57600080fd5b505af1158015610d72573d6000803e3d6000fd5b50505050505050565b8273ffffffffffffffffffffffffffffffffffffffff16636e8995508360405160200180807f646576656c6f7065722e6e616d65000000000000000000000000000000000000815250600e018281526020019150506040516020818303038152906040526040518082805190602001908083835b602083101515610e145780518252602082019150602081019050602083039250610def565b6001836020036101000a0380198251168184511680821785525050505050509050019150506040518091039020836040518363ffffffff167c010000000000000000000000000000000000000000000000000000000002815260040180836000191660001916815260200180602001828103825283818151815260200191508051906020019080838360005b83811015610ebb578082015181840152602081019050610ea0565b50505050905090810190601f168015610ee85780820380516001836020036101000a031916815260200191505b509350505050600060405180830381600087803b158015610f0857600080fd5b505af1158015610f1c573d6000803e3d6000fd5b50505050505050565b8273ffffffffffffffffffffffffffffffffffffffff1663ca446dd98360405160200180807f646576656c6f7065722e616464726573730000000000000000000000000000008152506011018281526020019150506040516020818303038152906040526040518082805190602001908083835b602083101515610fbe5780518252602082019150602081019050602083039250610f99565b6001836020036101000a0380198251168184511680821785525050505050509050019150506040518091039020836040518363ffffffff167c01000000000000000000000000000000000000000000000000000000000281526004018083600019166000191681526020018273ffffffffffffffffffffffffffffffffffffffff1673ffffffffffffffffffffffffffffffffffffffff16815260200192505050600060405180830381600087803b15801561107957600080fd5b505af115801561108d573d6000803e3d6000fd5b50505050505050565b60008273ffffffffffffffffffffffffffffffffffffffff166321f8a7218360405160200180807f646576656c6f7065722e616464726573730000000000000000000000000000008152506011018281526020019150506040516020818303038152906040526040518082805190602001908083835b602083101515611131578051825260208201915060208101905060208303925061110c565b6001836020036101000a03801982511681845116808217855250505050505090500191505060405180910390206040518263ffffffff167c0100000000000000000000000000000000000000000000000000000000028152600401808260001916600019168152602001915050602060405180830381600087803b1580156111b857600080fd5b505af11580156111cc573d6000803e3d6000fd5b505050506040513d60208110156111e257600080fd5b8101908080519060200190929190505050905092915050565b60608273ffffffffffffffffffffffffffffffffffffffff1663986e791a8360405160200180807f646576656c6f7065722e6e616d65000000000000000000000000000000000000815250600e018281526020019150506040516020818303038152906040526040518082805190602001908083835b6020831015156112965780518252602082019150602081019050602083039250611271565b6001836020036101000a03801982511681845116808217855250505050505090500191505060405180910390206040518263ffffffff167c0100000000000000000000000000000000000000000000000000000000028152600401808260001916600019168152602001915050600060405180830381600087803b15801561131d57600080fd5b505af1158015611331573d6000803e3d6000fd5b505050506040513d6000823e3d601f19601f82011682018060405250602081101561135b57600080fd5b81019080805164010000000081111561137357600080fd5b8281019050602081018481111561138957600080fd5b81518560018202830111640100000000821117156113a657600080fd5b5050929190505050905092915050565b60606000606060006113c88686611539565b9250826040519080825280602002602001820160405280156113f95781602001602082028038833980820191505090505b509150600090505b8281101561143d5761141486868361169e565b828281518110151561142257fe5b90602001906020020181815250508080600101915050611401565b81935050505092915050565b60008173ffffffffffffffffffffffffffffffffffffffff1663bd02d0f560405180807f646576656c6f7065722e6e657874446576656c6f706572496400000000000000815250601901905060405180910390206040518263ffffffff167c0100000000000000000000000000000000000000000000000000000000028152600401808260001916600019168152602001915050602060405180830381600087803b1580156114f757600080fd5b505af115801561150b573d6000803e3d6000fd5b505050506040513d602081101561152157600080fd5b81019080805190602001909291905050509050919050565b60008273ffffffffffffffffffffffffffffffffffffffff1663bd02d0f58360405160200180807f646576656c6f7065722e70726f6a6563744964732e6c656e6774680000000000815250601b018281526020019150506040516020818303038152906040526040518082805190602001908083835b6020831015156115d457805182526020820191506020810190506020830392506115af565b6001836020036101000a03801982511681845116808217855250505050505090500191505060405180910390206040518263ffffffff167c0100000000000000000000000000000000000000000000000000000000028152600401808260001916600019168152602001915050602060405180830381600087803b15801561165b57600080fd5b505af115801561166f573d6000803e3d6000fd5b505050506040513d602081101561168557600080fd5b8101908080519060200190929190505050905092915050565b60008373ffffffffffffffffffffffffffffffffffffffff1663bd02d0f5838560405160200180807f646576656c6f7065722e70726f6a656374496473000000000000000000000000815250601401838152602001828152602001925050506040516020818303038152906040526040518082805190602001908083835b602083101515611741578051825260208201915060208101905060208303925061171c565b6001836020036101000a03801982511681845116808217855250505050505090500191505060405180910390206040518263ffffffff167c0100000000000000000000000000000000000000000000000000000000028152600401808260001916600019168152602001915050602060405180830381600087803b1580156117c857600080fd5b505af11580156117dc573d6000803e3d6000fd5b505050506040513d60208110156117f257600080fd5b810190808051906020019092919050505090509392505050565b60806040519081016040528060008152602001600073ffffffffffffffffffffffffffffffffffffffff168152602001606081526020016060815250905600a165627a7a72305820886ac913da24b921e3e858ea70d6ff9854f775ed4eb08271a344d481ce4229610029",
  "source": "pragma solidity ^0.4.24;\n\nimport \"./libraries/storage/DeveloperStorageAccess.sol\";\n\ncontract Developer {\n\n    using DeveloperStorageAccess for address;\n\n    modifier onlyLatestFundingContract() {\n        require(FundingStorage(fundingStorage).getBool(keccak256(abi.encodePacked(\"contract.address\", msg.sender))));\n        _;\n    }\n\n    address public fundingStorage;\n\n    event DeveloperCreated(address developerAddress, uint developerId);\n\n    constructor(address _fundingStorage) public {\n        fundingStorage = _fundingStorage;\n    }\n\n    function () public payable {\n        revert();\n    }\n\n    function initialize() external {\n        require(FundingStorage(fundingStorage).getContractIsValid(this), \"This contract is not registered in FundingStorage.\");\n\n        // reserve developerId 0\n        fundingStorage.incrementNextDeveloperId();\n    }\n\n    function createDeveloper(string _name) external {\n        require(fundingStorage.getDeveloperId(msg.sender) == 0, \"This account is already a developer.\");\n\n        // Get next ID from storage + increment next ID\n        uint id = fundingStorage.generateNewDeveloperId();\n\n        // Create developer\n        fundingStorage.setDeveloperId(msg.sender, id);\n        fundingStorage.setDeveloperName(id, _name);\n        fundingStorage.setDeveloperAddress(id, msg.sender);\n\n        emit DeveloperCreated(msg.sender, id);\n    }\n\n    function getDeveloper(uint _id) external view\n        returns (\n            uint id,\n            address addr,\n            string name,\n            uint[] ownedProjectIds\n        )\n    {\n        DeveloperStorageAccess.Developer memory developer = fundingStorage.getDeveloper(_id);\n        return (_id, developer.addr, developer.name, developer.ownedProjectIds);\n    }\n}",
  "sourcePath": "/ude/hb/projects/funding-protocol/smart-contracts/ethereum/contracts/Developer.sol",
  "compiler": {
    "name": "solc",
    "version": "0.4.24+commit.e67f0147.Emscripten.clang"
  },
  "schemaVersion": "2.0.0",
  "updatedAt": "2018-07-22T20:27:18.134Z"
}