{
  "contractName": "FundingStorage",
  "abi": [
    {
      "constant": false,
      "inputs": [],
      "name": "renounceOwnership",
      "outputs": [],
      "payable": false,
      "stateMutability": "nonpayable",
      "type": "function"
    },
    {
      "constant": true,
      "inputs": [],
      "name": "owner",
      "outputs": [
        {
          "name": "",
          "type": "address"
        }
      ],
      "payable": false,
      "stateMutability": "view",
      "type": "function"
    },
    {
      "constant": false,
      "inputs": [
        {
          "name": "_newOwner",
          "type": "address"
        }
      ],
      "name": "transferOwnership",
      "outputs": [],
      "payable": false,
      "stateMutability": "nonpayable",
      "type": "function"
    },
    {
      "anonymous": false,
      "inputs": [
        {
          "indexed": true,
          "name": "previousOwner",
          "type": "address"
        }
      ],
      "name": "OwnershipRenounced",
      "type": "event"
    },
    {
      "anonymous": false,
      "inputs": [
        {
          "indexed": true,
          "name": "previousOwner",
          "type": "address"
        },
        {
          "indexed": true,
          "name": "newOwner",
          "type": "address"
        }
      ],
      "name": "OwnershipTransferred",
      "type": "event"
    },
    {
      "constant": false,
      "inputs": [
        {
          "name": "_name",
          "type": "string"
        },
        {
          "name": "_oldContract",
          "type": "address"
        },
        {
          "name": "_newContract",
          "type": "address"
        }
      ],
      "name": "registerContract",
      "outputs": [],
      "payable": false,
      "stateMutability": "nonpayable",
      "type": "function"
    },
    {
      "constant": false,
      "inputs": [
        {
          "name": "_name",
          "type": "string"
        },
        {
          "name": "_contract",
          "type": "address"
        }
      ],
      "name": "unregisterContract",
      "outputs": [],
      "payable": false,
      "stateMutability": "nonpayable",
      "type": "function"
    },
    {
      "constant": true,
      "inputs": [
        {
          "name": "_name",
          "type": "string"
        }
      ],
      "name": "getContractAddress",
      "outputs": [
        {
          "name": "",
          "type": "address"
        }
      ],
      "payable": false,
      "stateMutability": "view",
      "type": "function"
    },
    {
      "constant": true,
      "inputs": [
        {
          "name": "_contract",
          "type": "address"
        }
      ],
      "name": "getContractIsValid",
      "outputs": [
        {
          "name": "",
          "type": "bool"
        }
      ],
      "payable": false,
      "stateMutability": "view",
      "type": "function"
    },
    {
      "constant": true,
      "inputs": [
        {
          "name": "_key",
          "type": "bytes32"
        }
      ],
      "name": "getAddress",
      "outputs": [
        {
          "name": "",
          "type": "address"
        }
      ],
      "payable": false,
      "stateMutability": "view",
      "type": "function"
    },
    {
      "constant": true,
      "inputs": [
        {
          "name": "_key",
          "type": "bytes32"
        }
      ],
      "name": "getUint",
      "outputs": [
        {
          "name": "",
          "type": "uint256"
        }
      ],
      "payable": false,
      "stateMutability": "view",
      "type": "function"
    },
    {
      "constant": true,
      "inputs": [
        {
          "name": "_key",
          "type": "bytes32"
        }
      ],
      "name": "getString",
      "outputs": [
        {
          "name": "",
          "type": "string"
        }
      ],
      "payable": false,
      "stateMutability": "view",
      "type": "function"
    },
    {
      "constant": true,
      "inputs": [
        {
          "name": "_key",
          "type": "bytes32"
        }
      ],
      "name": "getBytes",
      "outputs": [
        {
          "name": "",
          "type": "bytes"
        }
      ],
      "payable": false,
      "stateMutability": "view",
      "type": "function"
    },
    {
      "constant": true,
      "inputs": [
        {
          "name": "_key",
          "type": "bytes32"
        }
      ],
      "name": "getBool",
      "outputs": [
        {
          "name": "",
          "type": "bool"
        }
      ],
      "payable": false,
      "stateMutability": "view",
      "type": "function"
    },
    {
      "constant": true,
      "inputs": [
        {
          "name": "_key",
          "type": "bytes32"
        }
      ],
      "name": "getInt",
      "outputs": [
        {
          "name": "",
          "type": "int256"
        }
      ],
      "payable": false,
      "stateMutability": "view",
      "type": "function"
    },
    {
      "constant": false,
      "inputs": [
        {
          "name": "_key",
          "type": "bytes32"
        },
        {
          "name": "_value",
          "type": "address"
        }
      ],
      "name": "setAddress",
      "outputs": [],
      "payable": false,
      "stateMutability": "nonpayable",
      "type": "function"
    },
    {
      "constant": false,
      "inputs": [
        {
          "name": "_key",
          "type": "bytes32"
        },
        {
          "name": "_value",
          "type": "uint256"
        }
      ],
      "name": "setUint",
      "outputs": [],
      "payable": false,
      "stateMutability": "nonpayable",
      "type": "function"
    },
    {
      "constant": false,
      "inputs": [
        {
          "name": "_key",
          "type": "bytes32"
        },
        {
          "name": "_value",
          "type": "string"
        }
      ],
      "name": "setString",
      "outputs": [],
      "payable": false,
      "stateMutability": "nonpayable",
      "type": "function"
    },
    {
      "constant": false,
      "inputs": [
        {
          "name": "_key",
          "type": "bytes32"
        },
        {
          "name": "_value",
          "type": "bytes"
        }
      ],
      "name": "setBytes",
      "outputs": [],
      "payable": false,
      "stateMutability": "nonpayable",
      "type": "function"
    },
    {
      "constant": false,
      "inputs": [
        {
          "name": "_key",
          "type": "bytes32"
        },
        {
          "name": "_value",
          "type": "bool"
        }
      ],
      "name": "setBool",
      "outputs": [],
      "payable": false,
      "stateMutability": "nonpayable",
      "type": "function"
    },
    {
      "constant": false,
      "inputs": [
        {
          "name": "_key",
          "type": "bytes32"
        },
        {
          "name": "_value",
          "type": "int256"
        }
      ],
      "name": "setInt",
      "outputs": [],
      "payable": false,
      "stateMutability": "nonpayable",
      "type": "function"
    },
    {
      "constant": false,
      "inputs": [
        {
          "name": "_key",
          "type": "bytes32"
        }
      ],
      "name": "deleteAddress",
      "outputs": [],
      "payable": false,
      "stateMutability": "nonpayable",
      "type": "function"
    },
    {
      "constant": false,
      "inputs": [
        {
          "name": "_key",
          "type": "bytes32"
        }
      ],
      "name": "deleteUint",
      "outputs": [],
      "payable": false,
      "stateMutability": "nonpayable",
      "type": "function"
    },
    {
      "constant": false,
      "inputs": [
        {
          "name": "_key",
          "type": "bytes32"
        }
      ],
      "name": "deleteString",
      "outputs": [],
      "payable": false,
      "stateMutability": "nonpayable",
      "type": "function"
    },
    {
      "constant": false,
      "inputs": [
        {
          "name": "_key",
          "type": "bytes32"
        }
      ],
      "name": "deleteBytes",
      "outputs": [],
      "payable": false,
      "stateMutability": "nonpayable",
      "type": "function"
    },
    {
      "constant": false,
      "inputs": [
        {
          "name": "_key",
          "type": "bytes32"
        }
      ],
      "name": "deleteBool",
      "outputs": [],
      "payable": false,
      "stateMutability": "nonpayable",
      "type": "function"
    },
    {
      "constant": false,
      "inputs": [
        {
          "name": "_key",
          "type": "bytes32"
        }
      ],
      "name": "deleteInt",
      "outputs": [],
      "payable": false,
      "stateMutability": "nonpayable",
      "type": "function"
    }
  ],
  "bytecode": "0x6080604052336000806101000a81548173ffffffffffffffffffffffffffffffffffffffff021916908373ffffffffffffffffffffffffffffffffffffffff160217905550612ad5806100536000396000f300608060405260043610610149576000357c0100000000000000000000000000000000000000000000000000000000900463ffffffff168063043c26771461014e57806304433bbc146101a957806307117689146102245780630e14a3761461027f57806321f8a721146102b05780632c62ff2d146103215780632e28d084146103525780633e49bed01461039b578063616b59f6146103d65780636e89955014610407578063715018a6146104505780637ae1cfca146104675780638c160095146104b05780638da5cb5b146104e1578063986e791a14610538578063abfdcced146105e2578063bd02d0f51461061f578063c031a18014610664578063ca446dd91461070e578063ceb07e671461075f578063dc97d962146107da578063e2a4853a1461081f578063e2b202bf1461085a578063f2fde38b1461088b578063f6bb3cc4146108ce575b600080fd5b34801561015a57600080fd5b5061018f600480360381019080803573ffffffffffffffffffffffffffffffffffffffff1690602001909291905050506108ff565b604051808215151515815260200191505060405180910390f35b3480156101b557600080fd5b506101e2600480360381019080803590602001908201803590602001919091929391929390505050610a15565b604051808273ffffffffffffffffffffffffffffffffffffffff1673ffffffffffffffffffffffffffffffffffffffff16815260200191505060405180910390f35b34801561023057600080fd5b5061027d600480360381019080803590602001908201803590602001919091929391929390803573ffffffffffffffffffffffffffffffffffffffff169060200190929190505050610b0b565b005b34801561028b57600080fd5b506102ae6004803603810190808035600019169060200190929190505050610eb3565b005b3480156102bc57600080fd5b506102df600480360381019080803560001916906020019092919050505061100c565b604051808273ffffffffffffffffffffffffffffffffffffffff1673ffffffffffffffffffffffffffffffffffffffff16815260200191505060405180910390f35b34801561032d57600080fd5b506103506004803603810190808035600019169060200190929190505050611051565b005b34801561035e57600080fd5b506103996004803603810190808035600019169060200190929190803590602001908201803590602001919091929391929390505050611197565b005b3480156103a757600080fd5b506103d46004803603810190808035600019169060200190929190803590602001909291905050506112df565b005b3480156103e257600080fd5b50610405600480360381019080803560001916906020019092919050505061141b565b005b34801561041357600080fd5b5061044e600480360381019080803560001916906020019092919080359060200190820180359060200191909192939192939050505061155d565b005b34801561045c57600080fd5b506104656116a5565b005b34801561047357600080fd5b5061049660048036038101908080356000191690602001909291905050506117a7565b604051808215151515815260200191505060405180910390f35b3480156104bc57600080fd5b506104df60048036038101908080356000191690602001909291905050506117d9565b005b3480156104ed57600080fd5b506104f6611913565b604051808273ffffffffffffffffffffffffffffffffffffffff1673ffffffffffffffffffffffffffffffffffffffff16815260200191505060405180910390f35b34801561054457600080fd5b506105676004803603810190808035600019169060200190929190505050611938565b6040518080602001828103825283818151815260200191508051906020019080838360005b838110156105a757808201518184015260208101905061058c565b50505050905090810190601f1680156105d45780820380516001836020036101000a031916815260200191505b509250505060405180910390f35b3480156105ee57600080fd5b5061061d60048036038101908080356000191690602001909291908035151590602001909291905050506119f5565b005b34801561062b57600080fd5b5061064e6004803603810190808035600019169060200190929190505050611b44565b6040518082815260200191505060405180910390f35b34801561067057600080fd5b506106936004803603810190808035600019169060200190929190505050611b69565b6040518080602001828103825283818151815260200191508051906020019080838360005b838110156106d35780820151818401526020810190506106b8565b50505050905090810190601f1680156107005780820380516001836020036101000a031916815260200191505b509250505060405180910390f35b34801561071a57600080fd5b5061075d6004803603810190808035600019169060200190929190803573ffffffffffffffffffffffffffffffffffffffff169060200190929190505050611c26565b005b34801561076b57600080fd5b506107d8600480360381019080803590602001908201803590602001919091929391929390803573ffffffffffffffffffffffffffffffffffffffff169060200190929190803573ffffffffffffffffffffffffffffffffffffffff169060200190929190505050611d9c565b005b3480156107e657600080fd5b5061080960048036038101908080356000191690602001909291905050506123b6565b6040518082815260200191505060405180910390f35b34801561082b57600080fd5b506108586004803603810190808035600019169060200190929190803590602001909291905050506123db565b005b34801561086657600080fd5b506108896004803603810190808035600019169060200190929190505050612517565b005b34801561089757600080fd5b506108cc600480360381019080803573ffffffffffffffffffffffffffffffffffffffff169060200190929190505050612651565b005b3480156108da57600080fd5b506108fd60048036038101908080356000191690602001909291905050506126b8565b005b6000600560008360405160200180807f636f6e74726163742e61646472657373000000000000000000000000000000008152506010018273ffffffffffffffffffffffffffffffffffffffff1673ffffffffffffffffffffffffffffffffffffffff166c010000000000000000000000000281526014019150506040516020818303038152906040526040518082805190602001908083835b6020831015156109bd5780518252602082019150602081019050602083039250610998565b6001836020036101000a03801982511681845116808217855250505050505090500191505060405180910390206000191660001916815260200190815260200160002060009054906101000a900460ff169050919050565b600060036000848460405160200180807f636f6e74726163742e61646472657373000000000000000000000000000000008152506010018383808284378201915050925050506040516020818303038152906040526040518082805190602001908083835b602083101515610a9f5780518252602082019150602081019050602083039250610a7a565b6001836020036101000a03801982511681845116808217855250505050505090500191505060405180910390206000191660001916815260200190815260200160002060009054906101000a900473ffffffffffffffffffffffffffffffffffffffff16905092915050565b6000809054906101000a900473ffffffffffffffffffffffffffffffffffffffff1673ffffffffffffffffffffffffffffffffffffffff163373ffffffffffffffffffffffffffffffffffffffff16141515610b6657600080fd5b8073ffffffffffffffffffffffffffffffffffffffff1660036000858560405160200180807f636f6e74726163742e61646472657373000000000000000000000000000000008152506010018383808284378201915050925050506040516020818303038152906040526040518082805190602001908083835b602083101515610c055780518252602082019150602081019050602083039250610be0565b6001836020036101000a03801982511681845116808217855250505050505090500191505060405180910390206000191660001916815260200190815260200160002060009054906101000a900473ffffffffffffffffffffffffffffffffffffffff1673ffffffffffffffffffffffffffffffffffffffff16141515610c8b57600080fd5b600060036000858560405160200180807f636f6e74726163742e61646472657373000000000000000000000000000000008152506010018383808284378201915050925050506040516020818303038152906040526040518082805190602001908083835b602083101515610d155780518252602082019150602081019050602083039250610cf0565b6001836020036101000a03801982511681845116808217855250505050505090500191505060405180910390206000191660001916815260200190815260200160002060006101000a81548173ffffffffffffffffffffffffffffffffffffffff021916908373ffffffffffffffffffffffffffffffffffffffff1602179055506000600560008360405160200180807f636f6e74726163742e61646472657373000000000000000000000000000000008152506010018273ffffffffffffffffffffffffffffffffffffffff1673ffffffffffffffffffffffffffffffffffffffff166c010000000000000000000000000281526014019150506040516020818303038152906040526040518082805190602001908083835b602083101515610e545780518252602082019150602081019050602083039250610e2f565b6001836020036101000a03801982511681845116808217855250505050505090500191505060405180910390206000191660001916815260200190815260200160002060006101000a81548160ff021916908315150217905550505050565b600560003360405160200180807f636f6e74726163742e61646472657373000000000000000000000000000000008152506010018273ffffffffffffffffffffffffffffffffffffffff1673ffffffffffffffffffffffffffffffffffffffff166c010000000000000000000000000281526014019150506040516020818303038152906040526040518082805190602001908083835b602083101515610f6f5780518252602082019150602081019050602083039250610f4a565b6001836020036101000a03801982511681845116808217855250505050505090500191505060405180910390206000191660001916815260200190815260200160002060009054906101000a900460ff161515610fcb57600080fd5b60036000826000191660001916815260200190815260200160002060006101000a81549073ffffffffffffffffffffffffffffffffffffffff021916905550565b600060036000836000191660001916815260200190815260200160002060009054906101000a900473ffffffffffffffffffffffffffffffffffffffff169050919050565b600560003360405160200180807f636f6e74726163742e61646472657373000000000000000000000000000000008152506010018273ffffffffffffffffffffffffffffffffffffffff1673ffffffffffffffffffffffffffffffffffffffff166c010000000000000000000000000281526014019150506040516020818303038152906040526040518082805190602001908083835b60208310151561110d57805182526020820191506020810190506020830392506110e8565b6001836020036101000a03801982511681845116808217855250505050505090500191505060405180910390206000191660001916815260200190815260200160002060009054906101000a900460ff16151561116957600080fd5b60056000826000191660001916815260200190815260200160002060006101000a81549060ff021916905550565b600560003360405160200180807f636f6e74726163742e61646472657373000000000000000000000000000000008152506010018273ffffffffffffffffffffffffffffffffffffffff1673ffffffffffffffffffffffffffffffffffffffff166c010000000000000000000000000281526014019150506040516020818303038152906040526040518082805190602001908083835b602083101515611253578051825260208201915060208101905060208303925061122e565b6001836020036101000a03801982511681845116808217855250505050505090500191505060405180910390206000191660001916815260200190815260200160002060009054906101000a900460ff1615156112af57600080fd5b818160046000866000191660001916815260200190815260200160002091906112d99291906128f4565b50505050565b600560003360405160200180807f636f6e74726163742e61646472657373000000000000000000000000000000008152506010018273ffffffffffffffffffffffffffffffffffffffff1673ffffffffffffffffffffffffffffffffffffffff166c010000000000000000000000000281526014019150506040516020818303038152906040526040518082805190602001908083835b60208310151561139b5780518252602082019150602081019050602083039250611376565b6001836020036101000a03801982511681845116808217855250505050505090500191505060405180910390206000191660001916815260200190815260200160002060009054906101000a900460ff1615156113f757600080fd5b80600660008460001916600019168152602001908152602001600020819055505050565b600560003360405160200180807f636f6e74726163742e61646472657373000000000000000000000000000000008152506010018273ffffffffffffffffffffffffffffffffffffffff1673ffffffffffffffffffffffffffffffffffffffff166c010000000000000000000000000281526014019150506040516020818303038152906040526040518082805190602001908083835b6020831015156114d757805182526020820191506020810190506020830392506114b2565b6001836020036101000a03801982511681845116808217855250505050505090500191505060405180910390206000191660001916815260200190815260200160002060009054906101000a900460ff16151561153357600080fd5b600460008260001916600019168152602001908152602001600020600061155a9190612974565b50565b600560003360405160200180807f636f6e74726163742e61646472657373000000000000000000000000000000008152506010018273ffffffffffffffffffffffffffffffffffffffff1673ffffffffffffffffffffffffffffffffffffffff166c010000000000000000000000000281526014019150506040516020818303038152906040526040518082805190602001908083835b60208310151561161957805182526020820191506020810190506020830392506115f4565b6001836020036101000a03801982511681845116808217855250505050505090500191505060405180910390206000191660001916815260200190815260200160002060009054906101000a900460ff16151561167557600080fd5b8181600260008660001916600019168152602001908152602001600020919061169f9291906129bc565b50505050565b6000809054906101000a900473ffffffffffffffffffffffffffffffffffffffff1673ffffffffffffffffffffffffffffffffffffffff163373ffffffffffffffffffffffffffffffffffffffff1614151561170057600080fd5b6000809054906101000a900473ffffffffffffffffffffffffffffffffffffffff1673ffffffffffffffffffffffffffffffffffffffff167ff8df31144d9c2f0f6b59d69b8b98abd5459d07f2742c4df920b25aae33c6482060405160405180910390a260008060006101000a81548173ffffffffffffffffffffffffffffffffffffffff021916908373ffffffffffffffffffffffffffffffffffffffff160217905550565b600060056000836000191660001916815260200190815260200160002060009054906101000a900460ff169050919050565b600560003360405160200180807f636f6e74726163742e61646472657373000000000000000000000000000000008152506010018273ffffffffffffffffffffffffffffffffffffffff1673ffffffffffffffffffffffffffffffffffffffff166c010000000000000000000000000281526014019150506040516020818303038152906040526040518082805190602001908083835b6020831015156118955780518252602082019150602081019050602083039250611870565b6001836020036101000a03801982511681845116808217855250505050505090500191505060405180910390206000191660001916815260200190815260200160002060009054906101000a900460ff1615156118f157600080fd5b6006600082600019166000191681526020019081526020016000206000905550565b6000809054906101000a900473ffffffffffffffffffffffffffffffffffffffff1681565b60606002600083600019166000191681526020019081526020016000208054600181600116156101000203166002900480601f0160208091040260200160405190810160405280929190818152602001828054600181600116156101000203166002900480156119e95780601f106119be576101008083540402835291602001916119e9565b820191906000526020600020905b8154815290600101906020018083116119cc57829003601f168201915b50505050509050919050565b600560003360405160200180807f636f6e74726163742e61646472657373000000000000000000000000000000008152506010018273ffffffffffffffffffffffffffffffffffffffff1673ffffffffffffffffffffffffffffffffffffffff166c010000000000000000000000000281526014019150506040516020818303038152906040526040518082805190602001908083835b602083101515611ab15780518252602082019150602081019050602083039250611a8c565b6001836020036101000a03801982511681845116808217855250505050505090500191505060405180910390206000191660001916815260200190815260200160002060009054906101000a900460ff161515611b0d57600080fd5b8060056000846000191660001916815260200190815260200160002060006101000a81548160ff0219169083151502179055505050565b6000600160008360001916600019168152602001908152602001600020549050919050565b60606004600083600019166000191681526020019081526020016000208054600181600116156101000203166002900480601f016020809104026020016040519081016040528092919081815260200182805460018160011615610100020316600290048015611c1a5780601f10611bef57610100808354040283529160200191611c1a565b820191906000526020600020905b815481529060010190602001808311611bfd57829003601f168201915b50505050509050919050565b600560003360405160200180807f636f6e74726163742e61646472657373000000000000000000000000000000008152506010018273ffffffffffffffffffffffffffffffffffffffff1673ffffffffffffffffffffffffffffffffffffffff166c010000000000000000000000000281526014019150506040516020818303038152906040526040518082805190602001908083835b602083101515611ce25780518252602082019150602081019050602083039250611cbd565b6001836020036101000a03801982511681845116808217855250505050505090500191505060405180910390206000191660001916815260200190815260200160002060009054906101000a900460ff161515611d3e57600080fd5b8060036000846000191660001916815260200190815260200160002060006101000a81548173ffffffffffffffffffffffffffffffffffffffff021916908373ffffffffffffffffffffffffffffffffffffffff1602179055505050565b6000809054906101000a900473ffffffffffffffffffffffffffffffffffffffff1673ffffffffffffffffffffffffffffffffffffffff163373ffffffffffffffffffffffffffffffffffffffff16141515611df757600080fd5b600073ffffffffffffffffffffffffffffffffffffffff168273ffffffffffffffffffffffffffffffffffffffff16148015611f4a5750600073ffffffffffffffffffffffffffffffffffffffff1660036000868660405160200180807f636f6e74726163742e61646472657373000000000000000000000000000000008152506010018383808284378201915050925050506040516020818303038152906040526040518082805190602001908083835b602083101515611ece5780518252602082019150602081019050602083039250611ea9565b6001836020036101000a03801982511681845116808217855250505050505090500191505060405180910390206000191660001916815260200190815260200160002060009054906101000a900473ffffffffffffffffffffffffffffffffffffffff1673ffffffffffffffffffffffffffffffffffffffff16145b8061206b57508173ffffffffffffffffffffffffffffffffffffffff1660036000868660405160200180807f636f6e74726163742e61646472657373000000000000000000000000000000008152506010018383808284378201915050925050506040516020818303038152906040526040518082805190602001908083835b602083101515611fef5780518252602082019150602081019050602083039250611fca565b6001836020036101000a03801982511681845116808217855250505050505090500191505060405180910390206000191660001916815260200190815260200160002060009054906101000a900473ffffffffffffffffffffffffffffffffffffffff1673ffffffffffffffffffffffffffffffffffffffff16145b151561207657600080fd5b8060036000868660405160200180807f636f6e74726163742e61646472657373000000000000000000000000000000008152506010018383808284378201915050925050506040516020818303038152906040526040518082805190602001908083835b6020831015156120ff57805182526020820191506020810190506020830392506120da565b6001836020036101000a03801982511681845116808217855250505050505090500191505060405180910390206000191660001916815260200190815260200160002060006101000a81548173ffffffffffffffffffffffffffffffffffffffff021916908373ffffffffffffffffffffffffffffffffffffffff1602179055506000600560008460405160200180807f636f6e74726163742e61646472657373000000000000000000000000000000008152506010018273ffffffffffffffffffffffffffffffffffffffff1673ffffffffffffffffffffffffffffffffffffffff166c010000000000000000000000000281526014019150506040516020818303038152906040526040518082805190602001908083835b60208310151561223e5780518252602082019150602081019050602083039250612219565b6001836020036101000a03801982511681845116808217855250505050505090500191505060405180910390206000191660001916815260200190815260200160002060006101000a81548160ff0219169083151502179055506001600560008360405160200180807f636f6e74726163742e61646472657373000000000000000000000000000000008152506010018273ffffffffffffffffffffffffffffffffffffffff1673ffffffffffffffffffffffffffffffffffffffff166c010000000000000000000000000281526014019150506040516020818303038152906040526040518082805190602001908083835b6020831015156123565780518252602082019150602081019050602083039250612331565b6001836020036101000a03801982511681845116808217855250505050505090500191505060405180910390206000191660001916815260200190815260200160002060006101000a81548160ff02191690831515021790555050505050565b6000600660008360001916600019168152602001908152602001600020549050919050565b600560003360405160200180807f636f6e74726163742e61646472657373000000000000000000000000000000008152506010018273ffffffffffffffffffffffffffffffffffffffff1673ffffffffffffffffffffffffffffffffffffffff166c010000000000000000000000000281526014019150506040516020818303038152906040526040518082805190602001908083835b6020831015156124975780518252602082019150602081019050602083039250612472565b6001836020036101000a03801982511681845116808217855250505050505090500191505060405180910390206000191660001916815260200190815260200160002060009054906101000a900460ff1615156124f357600080fd5b80600160008460001916600019168152602001908152602001600020819055505050565b600560003360405160200180807f636f6e74726163742e61646472657373000000000000000000000000000000008152506010018273ffffffffffffffffffffffffffffffffffffffff1673ffffffffffffffffffffffffffffffffffffffff166c010000000000000000000000000281526014019150506040516020818303038152906040526040518082805190602001908083835b6020831015156125d357805182526020820191506020810190506020830392506125ae565b6001836020036101000a03801982511681845116808217855250505050505090500191505060405180910390206000191660001916815260200190815260200160002060009054906101000a900460ff16151561262f57600080fd5b6001600082600019166000191681526020019081526020016000206000905550565b6000809054906101000a900473ffffffffffffffffffffffffffffffffffffffff1673ffffffffffffffffffffffffffffffffffffffff163373ffffffffffffffffffffffffffffffffffffffff161415156126ac57600080fd5b6126b5816127fa565b50565b600560003360405160200180807f636f6e74726163742e61646472657373000000000000000000000000000000008152506010018273ffffffffffffffffffffffffffffffffffffffff1673ffffffffffffffffffffffffffffffffffffffff166c010000000000000000000000000281526014019150506040516020818303038152906040526040518082805190602001908083835b602083101515612774578051825260208201915060208101905060208303925061274f565b6001836020036101000a03801982511681845116808217855250505050505090500191505060405180910390206000191660001916815260200190815260200160002060009054906101000a900460ff1615156127d057600080fd5b60026000826000191660001916815260200190815260200160002060006127f79190612a3c565b50565b600073ffffffffffffffffffffffffffffffffffffffff168173ffffffffffffffffffffffffffffffffffffffff161415151561283657600080fd5b8073ffffffffffffffffffffffffffffffffffffffff166000809054906101000a900473ffffffffffffffffffffffffffffffffffffffff1673ffffffffffffffffffffffffffffffffffffffff167f8be0079c531659141344cd1fd0a4f28419497f9722a3daafe3b4186f6b6457e060405160405180910390a3806000806101000a81548173ffffffffffffffffffffffffffffffffffffffff021916908373ffffffffffffffffffffffffffffffffffffffff16021790555050565b828054600181600116156101000203166002900490600052602060002090601f016020900481019282601f1061293557803560ff1916838001178555612963565b82800160010185558215612963579182015b82811115612962578235825591602001919060010190612947565b5b5090506129709190612a84565b5090565b50805460018160011615610100020316600290046000825580601f1061299a57506129b9565b601f0160209004906000526020600020908101906129b89190612a84565b5b50565b828054600181600116156101000203166002900490600052602060002090601f016020900481019282601f106129fd57803560ff1916838001178555612a2b565b82800160010185558215612a2b579182015b82811115612a2a578235825591602001919060010190612a0f565b5b509050612a389190612a84565b5090565b50805460018160011615610100020316600290046000825580601f10612a625750612a81565b601f016020900490600052602060002090810190612a809190612a84565b5b50565b612aa691905b80821115612aa2576000816000905550600101612a8a565b5090565b905600a165627a7a7230582033e6c50ddf3bf905c1ec1f14e950385e667fe970494ccfb0d8e342d0e42d3f220029",
  "source": "pragma solidity ^0.4.24;\n\nimport \"./openzeppelin/Ownable.sol\";\n\ncontract FundingStorage is Ownable {\n\n\n    /**** Storage Types *******/\n\n    mapping(bytes32 => uint256)    private uIntStorage;\n    mapping(bytes32 => string)     private stringStorage;\n    mapping(bytes32 => address)    private addressStorage;\n    mapping(bytes32 => bytes)      private bytesStorage;\n    mapping(bytes32 => bool)       private boolStorage;\n    mapping(bytes32 => int256)     private intStorage;\n\n    /*** Modifiers ************/\n\n     modifier onlyLatestFundingContract() {\n        require(boolStorage[keccak256(abi.encodePacked(\"contract.address\", msg.sender))]);\n         _;\n     }\n\n    /**** Contract Registration ***********/\n\n    function registerContract(string _name, address _oldContract, address _newContract) external onlyOwner {\n        require((_oldContract == address(0) &&\n                addressStorage[keccak256(abi.encodePacked(\"contract.address\", _name))] == address(0))\n                ||\n                addressStorage[keccak256(abi.encodePacked(\"contract.address\", _name))] == _oldContract);\n\n        addressStorage[keccak256(abi.encodePacked(\"contract.address\", _name))] = _newContract;\n        boolStorage[keccak256(abi.encodePacked(\"contract.address\", _oldContract))] = false;\n        boolStorage[keccak256(abi.encodePacked(\"contract.address\", _newContract))] = true;\n    }\n\n    function unregisterContract(string _name, address _contract) external onlyOwner {\n        require(addressStorage[keccak256(abi.encodePacked(\"contract.address\", _name))] == _contract);\n\n        addressStorage[keccak256(abi.encodePacked(\"contract.address\", _name))] = address(0);\n        boolStorage[keccak256(abi.encodePacked(\"contract.address\", _contract))] = false;\n    }\n\n    function getContractAddress(string _name) external view returns (address) {\n        return addressStorage[keccak256(abi.encodePacked(\"contract.address\", _name))];\n    }\n\n    function getContractIsValid(address _contract) external view returns (bool) {\n        return boolStorage[keccak256(abi.encodePacked(\"contract.address\", _contract))];\n    }\n\n    /**** Getters ***********/\n\n    function getAddress(bytes32 _key) external view returns (address) {\n        return addressStorage[_key];\n    }\n\n    function getUint(bytes32 _key) external view returns (uint) {\n        return uIntStorage[_key];\n    }\n\n    function getString(bytes32 _key) external view returns (string) {\n        return stringStorage[_key];\n    }\n\n    function getBytes(bytes32 _key) external view returns (bytes) {\n        return bytesStorage[_key];\n    }\n\n    function getBool(bytes32 _key) external view returns (bool) {\n        return boolStorage[_key];\n    }\n\n    function getInt(bytes32 _key) external view returns (int) {\n        return intStorage[_key];\n    }\n\n    /**** Setters ***********/\n\n\n    function setAddress(bytes32 _key, address _value) external onlyLatestFundingContract {\n        addressStorage[_key] = _value;\n    }\n\n    function setUint(bytes32 _key, uint _value) external onlyLatestFundingContract {\n        uIntStorage[_key] = _value;\n    }\n\n    function setString(bytes32 _key, string _value) external onlyLatestFundingContract {\n        stringStorage[_key] = _value;\n    }\n\n    function setBytes(bytes32 _key, bytes _value) external onlyLatestFundingContract {\n        bytesStorage[_key] = _value;\n    }\n\n    function setBool(bytes32 _key, bool _value) external onlyLatestFundingContract {\n        boolStorage[_key] = _value;\n    }\n\n    function setInt(bytes32 _key, int _value) external onlyLatestFundingContract {\n        intStorage[_key] = _value;\n    }\n\n    /**** Deletion ***********/\n\n    function deleteAddress(bytes32 _key) external onlyLatestFundingContract {\n        delete addressStorage[_key];\n    }\n\n    function deleteUint(bytes32 _key) external onlyLatestFundingContract {\n        delete uIntStorage[_key];\n    }\n\n    function deleteString(bytes32 _key) external onlyLatestFundingContract {\n        delete stringStorage[_key];\n    }\n\n    function deleteBytes(bytes32 _key) external onlyLatestFundingContract {\n        delete bytesStorage[_key];\n    }\n\n    function deleteBool(bytes32 _key) external onlyLatestFundingContract {\n        delete boolStorage[_key];\n    }\n\n    function deleteInt(bytes32 _key) external onlyLatestFundingContract {\n        delete intStorage[_key];\n    }\n}\n",
  "sourcePath": "/home/jordan/Projects/hyperbridge/funding-protocol/smart-contracts/ethereum/contracts/FundingStorage.sol",
  "compiler": {
    "name": "solc",
    "version": "0.4.24+commit.e67f0147.Emscripten.clang"
  },
  "schemaVersion": "2.0.1",
  "updatedAt": "2018-07-26T16:56:22.951Z"
}