{
  "contractName": "FundingService",
  "abi": [
    {
      "constant": true,
      "inputs": [
        {
          "name": "",
          "type": "uint256"
        }
      ],
      "name": "projects",
      "outputs": [
        {
          "name": "",
          "type": "address"
        }
      ],
      "payable": false,
      "stateMutability": "view",
      "type": "function"
    },
    {
      "constant": true,
      "inputs": [
        {
          "name": "",
          "type": "address"
        }
      ],
      "name": "contributors",
      "outputs": [
        {
          "name": "addr",
          "type": "address"
        }
      ],
      "payable": false,
      "stateMutability": "view",
      "type": "function"
    },
    {
      "constant": true,
      "inputs": [
        {
          "name": "",
          "type": "address"
        },
        {
          "name": "",
          "type": "address"
        }
      ],
      "name": "projectContributionAmount",
      "outputs": [
        {
          "name": "",
          "type": "uint256"
        }
      ],
      "payable": false,
      "stateMutability": "view",
      "type": "function"
    },
    {
      "constant": true,
      "inputs": [
        {
          "name": "",
          "type": "address"
        }
      ],
      "name": "developerMap",
      "outputs": [
        {
          "name": "",
          "type": "uint256"
        }
      ],
      "payable": false,
      "stateMutability": "view",
      "type": "function"
    },
    {
      "constant": true,
      "inputs": [
        {
          "name": "",
          "type": "address"
        }
      ],
      "name": "projectMap",
      "outputs": [
        {
          "name": "",
          "type": "uint256"
        }
      ],
      "payable": false,
      "stateMutability": "view",
      "type": "function"
    },
    {
      "constant": true,
      "inputs": [],
      "name": "owner",
      "outputs": [
        {
          "name": "",
          "type": "address"
        }
      ],
      "payable": false,
      "stateMutability": "view",
      "type": "function"
    },
    {
      "constant": true,
      "inputs": [
        {
          "name": "",
          "type": "address"
        },
        {
          "name": "",
          "type": "uint256"
        }
      ],
      "name": "projectContributorList",
      "outputs": [
        {
          "name": "",
          "type": "address"
        }
      ],
      "payable": false,
      "stateMutability": "view",
      "type": "function"
    },
    {
      "constant": true,
      "inputs": [
        {
          "name": "",
          "type": "uint256"
        }
      ],
      "name": "developers",
      "outputs": [
        {
          "name": "id",
          "type": "uint256"
        },
        {
          "name": "addr",
          "type": "address"
        },
        {
          "name": "name",
          "type": "string"
        }
      ],
      "payable": false,
      "stateMutability": "view",
      "type": "function"
    },
    {
      "inputs": [],
      "payable": false,
      "stateMutability": "nonpayable",
      "type": "constructor"
    },
    {
      "constant": false,
      "inputs": [
        {
          "name": "_name",
          "type": "string"
        }
      ],
      "name": "createDeveloper",
      "outputs": [],
      "payable": false,
      "stateMutability": "nonpayable",
      "type": "function"
    },
    {
      "constant": true,
      "inputs": [
        {
          "name": "_id",
          "type": "uint256"
        }
      ],
      "name": "getDeveloper",
      "outputs": [
        {
          "name": "addr",
          "type": "address"
        },
        {
          "name": "name",
          "type": "string"
        },
        {
          "name": "projectIds",
          "type": "uint256[]"
        }
      ],
      "payable": false,
      "stateMutability": "view",
      "type": "function"
    },
    {
      "constant": true,
      "inputs": [],
      "name": "getDevelopers",
      "outputs": [
        {
          "name": "",
          "type": "address[]"
        }
      ],
      "payable": false,
      "stateMutability": "view",
      "type": "function"
    },
    {
      "constant": false,
      "inputs": [
        {
          "name": "_title",
          "type": "string"
        },
        {
          "name": "_description",
          "type": "string"
        },
        {
          "name": "_about",
          "type": "string"
        },
        {
          "name": "_developerId",
          "type": "uint256"
        },
        {
          "name": "_contributionGoal",
          "type": "uint256"
        }
      ],
      "name": "createProject",
      "outputs": [],
      "payable": false,
      "stateMutability": "nonpayable",
      "type": "function"
    },
    {
      "constant": true,
      "inputs": [],
      "name": "getProjects",
      "outputs": [
        {
          "name": "",
          "type": "address[]"
        }
      ],
      "payable": false,
      "stateMutability": "view",
      "type": "function"
    },
    {
      "constant": false,
      "inputs": [
        {
          "name": "_projectId",
          "type": "uint256"
        }
      ],
      "name": "contributeToProject",
      "outputs": [],
      "payable": true,
      "stateMutability": "payable",
      "type": "function"
    },
    {
      "constant": true,
      "inputs": [
        {
          "name": "_project",
          "type": "address"
        }
      ],
      "name": "getProjectContributorList",
      "outputs": [
        {
          "name": "",
          "type": "address[]"
        }
      ],
      "payable": false,
      "stateMutability": "view",
      "type": "function"
    }
  ],
  "bytecode": "0x60806040523480156200001157600080fd5b50336000806101000a81548173ffffffffffffffffffffffffffffffffffffffff021916908373ffffffffffffffffffffffffffffffffffffffff16021790555060028054809190600101620000689190620000d6565b506007600090806001815401808255809150509060018203906000526020600020016000909192909190916101000a81548173ffffffffffffffffffffffffffffffffffffffff021916908373ffffffffffffffffffffffffffffffffffffffff1602179055505062000217565b81548183558181111562000106576005028160050283600052602060002091820191016200010591906200010b565b5b505050565b6200017d91905b8082111562000179576000808201600090556001820160006101000a81549073ffffffffffffffffffffffffffffffffffffffff02191690556002820160006200015d919062000180565b6004820160006200016f9190620001cc565b5060050162000112565b5090565b90565b50805460018160011615610100020316600290046000825580601f10620001a85750620001c9565b601f016020900490600052602060002090810190620001c89190620001ef565b5b50565b5080546000825590600052602060002090810190620001ec9190620001ef565b50565b6200021491905b8082111562000210576000816000905550600101620001f6565b5090565b90565b61265980620002276000396000f300608060405260043610620000eb576000357c0100000000000000000000000000000000000000000000000000000000900463ffffffff168063056c29ee14620000f0578063107046bd14620001fc5780631f6d4942146200026c5780633851375a14620002f25780635ca9611c146200038f57806370e16d7e14620004095780637258113d14620004635780637a276bb614620004bd5780638da5cb5b14620005e6578063939f69c91462000640578063b0f2ccc51462000662578063bc8f587214620006d3578063dcc60128146200073f578063e016400c14620007b0578063eff25cd61462000840575b600080fd5b348015620000fd57600080fd5b50620001fa600480360381019080803590602001908201803590602001908080601f0160208091040260200160405190810160405280939291908181526020018383808284378201915050505050509192919290803590602001908201803590602001908080601f0160208091040260200160405190810160405280939291908181526020018383808284378201915050505050509192919290803590602001908201803590602001908080601f0160208091040260200160405190810160405280939291908181526020018383808284378201915050505050509192919290803590602001909291908035906020019092919050505062000926565b005b3480156200020957600080fd5b506200022a6004803603810190808035906020019092919050505062000cac565b604051808273ffffffffffffffffffffffffffffffffffffffff1673ffffffffffffffffffffffffffffffffffffffff16815260200191505060405180910390f35b3480156200027957600080fd5b50620002b0600480360381019080803573ffffffffffffffffffffffffffffffffffffffff16906020019092919050505062000ceb565b604051808273ffffffffffffffffffffffffffffffffffffffff1673ffffffffffffffffffffffffffffffffffffffff16815260200191505060405180910390f35b348015620002ff57600080fd5b5062000336600480360381019080803573ffffffffffffffffffffffffffffffffffffffff16906020019092919050505062000d29565b6040518080602001828103825283818151815260200191508051906020019060200280838360005b838110156200037b5780820151818401526020810190506200035e565b505050509050019250505060405180910390f35b3480156200039c57600080fd5b50620003f3600480360381019080803573ffffffffffffffffffffffffffffffffffffffff169060200190929190803573ffffffffffffffffffffffffffffffffffffffff16906020019092919050505062000df8565b6040518082815260200191505060405180910390f35b3480156200041657600080fd5b506200044d600480360381019080803573ffffffffffffffffffffffffffffffffffffffff16906020019092919050505062000e1d565b6040518082815260200191505060405180910390f35b3480156200047057600080fd5b50620004a7600480360381019080803573ffffffffffffffffffffffffffffffffffffffff16906020019092919050505062000e35565b6040518082815260200191505060405180910390f35b348015620004ca57600080fd5b50620004eb6004803603810190808035906020019092919050505062000e4d565b604051808473ffffffffffffffffffffffffffffffffffffffff1673ffffffffffffffffffffffffffffffffffffffff1681526020018060200180602001838103835285818151815260200191508051906020019080838360005b838110156200056357808201518184015260208101905062000546565b50505050905090810190601f168015620005915780820380516001836020036101000a031916815260200191505b50838103825284818151815260200191508051906020019060200280838360005b83811015620005cf578082015181840152602081019050620005b2565b505050509050019550505050505060405180910390f35b348015620005f357600080fd5b50620005fe6200103b565b604051808273ffffffffffffffffffffffffffffffffffffffff1673ffffffffffffffffffffffffffffffffffffffff16815260200191505060405180910390f35b620006606004803603810190808035906020019092919050505062001060565b005b3480156200066f57600080fd5b506200067a62001644565b6040518080602001828103825283818151815260200191508051906020019060200280838360005b83811015620006bf578082015181840152602081019050620006a2565b505050509050019250505060405180910390f35b348015620006e057600080fd5b506200073d600480360381019080803590602001908201803590602001908080601f016020809104026020016040519081016040528093929190818152602001838380828437820191505050505050919291929050505062001897565b005b3480156200074c57600080fd5b506200075762001a6c565b6040518080602001828103825283818151815260200191508051906020019060200280838360005b838110156200079c5780820151818401526020810190506200077f565b505050509050019250505060405180910390f35b348015620007bd57600080fd5b50620007fe600480360381019080803573ffffffffffffffffffffffffffffffffffffffff1690602001909291908035906020019092919050505062001b5e565b604051808273ffffffffffffffffffffffffffffffffffffffff1673ffffffffffffffffffffffffffffffffffffffff16815260200191505060405180910390f35b3480156200084d57600080fd5b506200086e6004803603810190808035906020019092919050505062001bac565b604051808481526020018373ffffffffffffffffffffffffffffffffffffffff1673ffffffffffffffffffffffffffffffffffffffff16815260200180602001828103825283818151815260200191508051906020019080838360005b83811015620008e8578082015181840152602081019050620008cb565b50505050905090810190601f168015620009165780820380516001836020036101000a031916815260200191505b5094505050505060405180910390f35b600080600084806002828154811015156200093d57fe5b9060005260206000209060050201600001541415156200095c57600080fd5b6002818154811015156200096c57fe5b906000526020600020906005020160010160009054906101000a900473ffffffffffffffffffffffffffffffffffffffff1673ffffffffffffffffffffffffffffffffffffffff163373ffffffffffffffffffffffffffffffffffffffff16141515620009d857600080fd5b600780549050935030848a8a8a8a8a620009f162001cc1565b808873ffffffffffffffffffffffffffffffffffffffff1673ffffffffffffffffffffffffffffffffffffffff168152602001878152602001806020018060200180602001868152602001858152602001848103845289818151815260200191508051906020019080838360005b8381101562000a7c57808201518184015260208101905062000a5f565b50505050905090810190601f16801562000aaa5780820380516001836020036101000a031916815260200191505b50848103835288818151815260200191508051906020019080838360005b8381101562000ae557808201518184015260208101905062000ac8565b50505050905090810190601f16801562000b135780820380516001836020036101000a031916815260200191505b50848103825287818151815260200191508051906020019080838360005b8381101562000b4e57808201518184015260208101905062000b31565b50505050905090810190601f16801562000b7c5780820380516001836020036101000a031916815260200191505b509a5050505050505050505050604051809103906000f08015801562000ba6573d6000803e3d6000fd5b50925083600660008573ffffffffffffffffffffffffffffffffffffffff1673ffffffffffffffffffffffffffffffffffffffff1681526020019081526020016000208190555060078390806001815401808255809150509060018203906000526020600020016000909192909190916101000a81548173ffffffffffffffffffffffffffffffffffffffff021916908373ffffffffffffffffffffffffffffffffffffffff1602179055505060028681548110151562000c6357fe5b9060005260206000209060050201915081600401849080600181540180825580915050906001820390600052602060002001600090919290919091505550505050505050505050565b60078181548110151562000cbc57fe5b906000526020600020016000915054906101000a900473ffffffffffffffffffffffffffffffffffffffff1681565b60036020528060005260406000206000915090508060000160009054906101000a900473ffffffffffffffffffffffffffffffffffffffff16905081565b6060600560008373ffffffffffffffffffffffffffffffffffffffff1673ffffffffffffffffffffffffffffffffffffffff16815260200190815260200160002080548060200260200160405190810160405280929190818152602001828054801562000dec57602002820191906000526020600020905b8160009054906101000a900473ffffffffffffffffffffffffffffffffffffffff1673ffffffffffffffffffffffffffffffffffffffff168152602001906001019080831162000da1575b50505050509050919050565b6004602052816000526040600020602052806000526040600020600091509150505481565b60016020528060005260406000206000915090505481565b60066020528060005260406000206000915090505481565b600060608062000e5c62001cd2565b8460028681548110151562000e6d57fe5b90600052602060002090600502016000015414151562000e8c57600080fd5b60028581548110151562000e9c57fe5b906000526020600020906005020160806040519081016040529081600082015481526020016001820160009054906101000a900473ffffffffffffffffffffffffffffffffffffffff1673ffffffffffffffffffffffffffffffffffffffff1673ffffffffffffffffffffffffffffffffffffffff168152602001600282018054600181600116156101000203166002900480601f01602080910402602001604051908101604052809291908181526020018280546001816001161561010002031660029004801562000fb35780601f1062000f875761010080835404028352916020019162000fb3565b820191906000526020600020905b81548152906001019060200180831162000f9557829003601f168201915b50505050508152602001600482018054806020026020016040519081016040528092919081815260200182805480156200100d57602002820191906000526020600020905b81548152602001906001019080831162000ff8575b5050505050815250509050806020015181604001518260600151819150809050935093509350509193909250565b6000809054906101000a900473ffffffffffffffffffffffffffffffffffffffff1681565b60006200106c62001d11565b6000806007858154811015156200107f57fe5b9060005260206000200160009054906101000a900473ffffffffffffffffffffffffffffffffffffffff16935060008473ffffffffffffffffffffffffffffffffffffffff1614151515620010d357600080fd5b8373ffffffffffffffffffffffffffffffffffffffff166108fc349081150290604051600060405180830381858888f193505050501580156200111a573d6000803e3d6000fd5b506000600360003373ffffffffffffffffffffffffffffffffffffffff1673ffffffffffffffffffffffffffffffffffffffff16815260200190815260200160002060000160009054906101000a900473ffffffffffffffffffffffffffffffffffffffff1673ffffffffffffffffffffffffffffffffffffffff161415620012a55760408051908101604052803373ffffffffffffffffffffffffffffffffffffffff1681526020016000604051908082528060200260200182016040528015620011f55781602001602082028038833980820191505090505b50815250925082600360003373ffffffffffffffffffffffffffffffffffffffff1673ffffffffffffffffffffffffffffffffffffffff16815260200190815260200160002060008201518160000160006101000a81548173ffffffffffffffffffffffffffffffffffffffff021916908373ffffffffffffffffffffffffffffffffffffffff1602179055506020820151816002019080519060200190620012a092919062001d41565b509050505b600360003373ffffffffffffffffffffffffffffffffffffffff1673ffffffffffffffffffffffffffffffffffffffff16815260200190815260200160002091508160010160008573ffffffffffffffffffffffffffffffffffffffff1673ffffffffffffffffffffffffffffffffffffffff16815260200190815260200160002060009054906101000a900460ff161515620013ff5760018260010160008673ffffffffffffffffffffffffffffffffffffffff1673ffffffffffffffffffffffffffffffffffffffff16815260200190815260200160002060006101000a81548160ff021916908315150217905550816002018490806001815401808255809150509060018203906000526020600020016000909192909190916101000a81548173ffffffffffffffffffffffffffffffffffffffff021916908373ffffffffffffffffffffffffffffffffffffffff160217905550505b6000600460008673ffffffffffffffffffffffffffffffffffffffff1673ffffffffffffffffffffffffffffffffffffffff16815260200190815260200160002060003373ffffffffffffffffffffffffffffffffffffffff1673ffffffffffffffffffffffffffffffffffffffff1681526020019081526020016000205414156200152957600560008573ffffffffffffffffffffffffffffffffffffffff1673ffffffffffffffffffffffffffffffffffffffff1681526020019081526020016000203390806001815401808255809150509060018203906000526020600020016000909192909190916101000a81548173ffffffffffffffffffffffffffffffffffffffff021916908373ffffffffffffffffffffffffffffffffffffffff160217905550505b600460008573ffffffffffffffffffffffffffffffffffffffff1673ffffffffffffffffffffffffffffffffffffffff16815260200190815260200160002060003373ffffffffffffffffffffffffffffffffffffffff1673ffffffffffffffffffffffffffffffffffffffff168152602001908152602001600020549050620015bd348262001ca290919063ffffffff16565b600460008673ffffffffffffffffffffffffffffffffffffffff1673ffffffffffffffffffffffffffffffffffffffff16815260200190815260200160002060003373ffffffffffffffffffffffffffffffffffffffff1673ffffffffffffffffffffffffffffffffffffffff168152602001908152602001600020819055505050505050565b60608060006200165362001cd2565b6001600280549050036040519080825280602002602001820160405280156200168b5781602001602082028038833980820191505090505b509250600191505b6002805490508210156200188e57600282815481101515620016b157fe5b906000526020600020906005020160806040519081016040529081600082015481526020016001820160009054906101000a900473ffffffffffffffffffffffffffffffffffffffff1673ffffffffffffffffffffffffffffffffffffffff1673ffffffffffffffffffffffffffffffffffffffff168152602001600282018054600181600116156101000203166002900480601f016020809104026020016040519081016040528092919081815260200182805460018160011615610100020316600290048015620017c85780601f106200179c57610100808354040283529160200191620017c8565b820191906000526020600020905b815481529060010190602001808311620017aa57829003601f168201915b50505050508152602001600482018054806020026020016040519081016040528092919081815260200182805480156200182257602002820191906000526020600020905b8154815260200190600101908083116200180d575b5050505050815250509050806020015183600184038151811015156200184457fe5b9060200190602002019073ffffffffffffffffffffffffffffffffffffffff16908173ffffffffffffffffffffffffffffffffffffffff1681525050818060010192505062001693565b82935050505090565b620018a162001cd2565b6000600160003373ffffffffffffffffffffffffffffffffffffffff1673ffffffffffffffffffffffffffffffffffffffff16815260200190815260200160002054141515620018f057600080fd5b60806040519081016040528060028054905081526020013373ffffffffffffffffffffffffffffffffffffffff16815260200183815260200160006040519080825280602002602001820160405280156200195a5781602001602082028038833980820191505090505b508152509050600281908060018154018082558091505090600182039060005260206000209060050201600090919290919091506000820151816000015560208201518160010160006101000a81548173ffffffffffffffffffffffffffffffffffffffff021916908373ffffffffffffffffffffffffffffffffffffffff1602179055506040820151816002019080519060200190620019fd92919062001dd0565b50606082015181600401908051906020019062001a1c92919062001e57565b505050508060000151600160003373ffffffffffffffffffffffffffffffffffffffff1673ffffffffffffffffffffffffffffffffffffffff168152602001908152602001600020819055505050565b606080600060016007805490500360405190808252806020026020018201604052801562001aa95781602001602082028038833980820191505090505b509150600190505b60078054905081101562001b565760078181548110151562001acf57fe5b9060005260206000200160009054906101000a900473ffffffffffffffffffffffffffffffffffffffff16826001830381518110151562001b0c57fe5b9060200190602002019073ffffffffffffffffffffffffffffffffffffffff16908173ffffffffffffffffffffffffffffffffffffffff1681525050808060010191505062001ab1565b819250505090565b60056020528160005260406000208181548110151562001b7a57fe5b906000526020600020016000915091509054906101000a900473ffffffffffffffffffffffffffffffffffffffff1681565b60028181548110151562001bbc57fe5b90600052602060002090600502016000915090508060000154908060010160009054906101000a900473ffffffffffffffffffffffffffffffffffffffff1690806002018054600181600116156101000203166002900480601f01602080910402602001604051908101604052809291908181526020018280546001816001161561010002031660029004801562001c985780601f1062001c6c5761010080835404028352916020019162001c98565b820191906000526020600020905b81548152906001019060200180831162001c7a57829003601f168201915b5050505050905083565b600080828401905083811015151562001cb757fe5b8091505092915050565b6040516107168062001f1883390190565b60806040519081016040528060008152602001600073ffffffffffffffffffffffffffffffffffffffff16815260200160608152602001606081525090565b6040805190810160405280600073ffffffffffffffffffffffffffffffffffffffff168152602001606081525090565b82805482825590600052602060002090810192821562001dbd579160200282015b8281111562001dbc5782518260006101000a81548173ffffffffffffffffffffffffffffffffffffffff021916908373ffffffffffffffffffffffffffffffffffffffff1602179055509160200191906001019062001d62565b5b50905062001dcc919062001ea9565b5090565b828054600181600116156101000203166002900490600052602060002090601f016020900481019282601f1062001e1357805160ff191683800117855562001e44565b8280016001018555821562001e44579182015b8281111562001e4357825182559160200191906001019062001e26565b5b50905062001e53919062001eef565b5090565b82805482825590600052602060002090810192821562001e96579160200282015b8281111562001e9557825182559160200191906001019062001e78565b5b50905062001ea5919062001eef565b5090565b62001eec91905b8082111562001ee857600081816101000a81549073ffffffffffffffffffffffffffffffffffffffff02191690555060010162001eb0565b5090565b90565b62001f1491905b8082111562001f1057600081600090555060010162001ef6565b5090565b905600608060405234801561001057600080fd5b5060405161071638038061071683398101806040528101908080519060200190929190805190602001909291908051820192919060200180518201929190602001805182019291906020018051906020019092919080519060200190929190505050866000806101000a81548173ffffffffffffffffffffffffffffffffffffffff021916908373ffffffffffffffffffffffffffffffffffffffff1602179055508560018190555084600290805190602001906100cf929190610118565b5083600390805190602001906100e6929190610118565b5082600490805190602001906100fd929190610118565b508160058190555080600681905550505050505050506101bd565b828054600181600116156101000203166002900490600052602060002090601f016020900481019282601f1061015957805160ff1916838001178555610187565b82800160010185558215610187579182015b8281111561018657825182559160200191906001019061016b565b5b5090506101949190610198565b5090565b6101ba91905b808211156101b657600081600090555060010161019e565b5090565b90565b61054a806101cc6000396000f300608060405260043610610083576000357c0100000000000000000000000000000000000000000000000000000000900463ffffffff1680634a79d50c146100855780635e1d5482146101155780637284e416146101a5578063ad477c4714610235578063af640d0f14610260578063bde0e7ac1461028b578063cba24e41146102b6575b005b34801561009157600080fd5b5061009a61030d565b6040518080602001828103825283818151815260200191508051906020019080838360005b838110156100da5780820151818401526020810190506100bf565b50505050905090810190601f1680156101075780820380516001836020036101000a031916815260200191505b509250505060405180910390f35b34801561012157600080fd5b5061012a6103ab565b6040518080602001828103825283818151815260200191508051906020019080838360005b8381101561016a57808201518184015260208101905061014f565b50505050905090810190601f1680156101975780820380516001836020036101000a031916815260200191505b509250505060405180910390f35b3480156101b157600080fd5b506101ba610449565b6040518080602001828103825283818151815260200191508051906020019080838360005b838110156101fa5780820151818401526020810190506101df565b50505050905090810190601f1680156102275780820380516001836020036101000a031916815260200191505b509250505060405180910390f35b34801561024157600080fd5b5061024a6104e7565b6040518082815260200191505060405180910390f35b34801561026c57600080fd5b506102756104ed565b6040518082815260200191505060405180910390f35b34801561029757600080fd5b506102a06104f3565b6040518082815260200191505060405180910390f35b3480156102c257600080fd5b506102cb6104f9565b604051808273ffffffffffffffffffffffffffffffffffffffff1673ffffffffffffffffffffffffffffffffffffffff16815260200191505060405180910390f35b60028054600181600116156101000203166002900480601f0160208091040260200160405190810160405280929190818152602001828054600181600116156101000203166002900480156103a35780601f10610378576101008083540402835291602001916103a3565b820191906000526020600020905b81548152906001019060200180831161038657829003601f168201915b505050505081565b60048054600181600116156101000203166002900480601f0160208091040260200160405190810160405280929190818152602001828054600181600116156101000203166002900480156104415780601f1061041657610100808354040283529160200191610441565b820191906000526020600020905b81548152906001019060200180831161042457829003601f168201915b505050505081565b60038054600181600116156101000203166002900480601f0160208091040260200160405190810160405280929190818152602001828054600181600116156101000203166002900480156104df5780601f106104b4576101008083540402835291602001916104df565b820191906000526020600020905b8154815290600101906020018083116104c257829003601f168201915b505050505081565b60065481565b60015481565b60055481565b6000809054906101000a900473ffffffffffffffffffffffffffffffffffffffff16815600a165627a7a72305820acb9499de7793ffa4d97911a5d7930e986ce65df6d86c5fba4b749a33a8f67a60029a165627a7a72305820bfdc307099b23f82413835b459ba6e1e86eda14153b60b8497266126cfcfec400029",
  "source": "pragma solidity ^0.4.23;\nimport \"./Project.sol\";\nimport \"./SafeMath.sol\";\n\ncontract FundingService {\n\n    using SafeMath for uint256;\n\n    struct Developer {\n        uint id;\n        address addr;\n        string name;\n        mapping(uint => uint) projectIdIndex; // mapping of project id to index in Developer.projectIds\n        uint[] projectIds; // the projects belonging to this developer\n    }\n\n    struct Contributor {\n        address addr;\n        mapping(address => bool) projectExists;\n        address[] activeProjects;\n    }\n\n    address public owner;\n\n    mapping(address => uint) public developerMap; // address => id\n    Developer[] public developers; // indexed by developer id\n\n    mapping(address => Contributor) public contributors;\n\n    mapping(address => mapping(address => uint)) public projectContributionAmount; // project address => (contributor address => contribution amount)\n    mapping(address => address[]) public projectContributorList; // project address => Contributors[]\n\n    mapping(address => uint) public projectMap; // address => id\n    address[] public projects; // indexed by project id\n\n    modifier devRestricted(uint _developerId) {\n        require(developers[_developerId].id == _developerId); // check that developer exists\n        require(msg.sender == developers[_developerId].addr);\n        _;\n    }\n\n    constructor() public {\n        owner = msg.sender;\n\n        // reserve 0\n        developers.length++;\n        projects.push(0);\n    }\n\n    function createDeveloper(string _name) public {\n        require(developerMap[msg.sender] == 0); // require that this account is not already a developer\n\n        Developer memory newDeveloper = Developer({\n            id: developers.length,\n            addr: msg.sender,\n            name: _name,\n            projectIds: new uint[](0)\n            });\n\n        developers.push(newDeveloper);\n        developerMap[msg.sender] = newDeveloper.id;\n    }\n\n    function getDeveloper(uint _id) public view returns (address addr, string name, uint[] projectIds) {\n        require(developers[_id].id == _id); // check that developer exists\n\n        Developer memory dev = developers[_id];\n        return (dev.addr, dev.name, dev.projectIds);\n    }\n\n    function getDevelopers() public view returns (address[]) {\n        address[] memory addresses = new address[](developers.length - 1);\n\n        for (uint i = 1; i < developers.length; i++) {\n            Developer memory developer = developers[i];\n            addresses[i - 1] = (developer.addr);\n        }\n\n        return addresses;\n    }\n\n    function createProject(string _title, string _description, string _about, uint _developerId, uint _contributionGoal) public devRestricted(_developerId) {\n        uint newProjectId = projects.length;\n\n        Project newProject = new Project(this, newProjectId, _title, _description, _about, _developerId, _contributionGoal);\n\n        projectMap[newProject] = newProjectId;\n        projects.push(newProject);\n\n        Developer storage dev = developers[_developerId];\n\n        dev.projectIds.push(newProjectId);\n    }\n\n    function getProjects() public view returns (address[]) {\n        address[] memory addresses = new address[](projects.length - 1);\n\n        for (uint i = 1; i < projects.length; i++) {\n            addresses[i - 1] = projects[i];\n        }\n\n        return addresses;\n    }\n\n    function contributeToProject(uint _projectId) public payable {\n        address projectAddress = projects[_projectId];\n\n        require(projectAddress != 0); // check that project exists\n\n        // transfer money to project\n        projectAddress.transfer(msg.value);\n\n        // if contributor doesn't exist, create it\n        if (contributors[msg.sender].addr == 0) {\n            Contributor memory newContributor = Contributor({\n                addr: msg.sender,\n                activeProjects: new address[](0)\n                });\n\n            // add contributor to global contributors mapping\n            contributors[msg.sender] = newContributor;\n        }\n\n        Contributor storage contributor = contributors[msg.sender];\n\n        // if project is not in contributor's project list, add it\n        if (!contributor.projectExists[projectAddress]) {\n            contributor.projectExists[projectAddress] = true;\n            contributor.activeProjects.push(projectAddress);\n        }\n\n        // add to projectContributorList, if not already present\n        if (projectContributionAmount[projectAddress][msg.sender] == 0) {\n            projectContributorList[projectAddress].push(msg.sender);\n        }\n\n        // add contribution amount to project\n        uint currentProjectContributionAmount = projectContributionAmount[projectAddress][msg.sender];\n        projectContributionAmount[projectAddress][msg.sender] = currentProjectContributionAmount.add(msg.value);\n    }\n\n    function getProjectContributorList(address _project) public view returns (address[]) {\n        return projectContributorList[_project];\n    }\n}\n",
  "sourcePath": "/ude/hb/projects/funding-protocol/smart-contracts/ethereum/contracts/FundingService.sol",
  "compiler": {
    "name": "solc",
    "version": "0.4.23+commit.124ca40d.Emscripten.clang"
  },
  "schemaVersion": "2.0.0",
  "updatedAt": "2018-05-19T23:00:57.199Z"
}