{
  "contractName": "FundingService",
  "abi": [
    {
      "constant": true,
      "inputs": [
        {
          "name": "",
          "type": "uint256"
        }
      ],
      "name": "projects",
      "outputs": [
        {
          "name": "",
          "type": "address"
        }
      ],
      "payable": false,
      "stateMutability": "view",
      "type": "function"
    },
    {
      "constant": true,
      "inputs": [
        {
          "name": "",
          "type": "address"
        }
      ],
      "name": "contributors",
      "outputs": [
        {
          "name": "addr",
          "type": "address"
        }
      ],
      "payable": false,
      "stateMutability": "view",
      "type": "function"
    },
    {
      "constant": true,
      "inputs": [
        {
          "name": "",
          "type": "address"
        },
        {
          "name": "",
          "type": "address"
        }
      ],
      "name": "projectContributionAmount",
      "outputs": [
        {
          "name": "",
          "type": "uint256"
        }
      ],
      "payable": false,
      "stateMutability": "view",
      "type": "function"
    },
    {
      "constant": true,
      "inputs": [
        {
          "name": "",
          "type": "address"
        }
      ],
      "name": "developerMap",
      "outputs": [
        {
          "name": "",
          "type": "uint256"
        }
      ],
      "payable": false,
      "stateMutability": "view",
      "type": "function"
    },
    {
      "constant": true,
      "inputs": [
        {
          "name": "",
          "type": "address"
        }
      ],
      "name": "projectMap",
      "outputs": [
        {
          "name": "",
          "type": "uint256"
        }
      ],
      "payable": false,
      "stateMutability": "view",
      "type": "function"
    },
    {
      "constant": true,
      "inputs": [],
      "name": "owner",
      "outputs": [
        {
          "name": "",
          "type": "address"
        }
      ],
      "payable": false,
      "stateMutability": "view",
      "type": "function"
    },
    {
      "constant": true,
      "inputs": [],
      "name": "projectFactory",
      "outputs": [
        {
          "name": "",
          "type": "address"
        }
      ],
      "payable": false,
      "stateMutability": "view",
      "type": "function"
    },
    {
      "constant": true,
      "inputs": [
        {
          "name": "",
          "type": "uint256"
        }
      ],
      "name": "developers",
      "outputs": [
        {
          "name": "id",
          "type": "uint256"
        },
        {
          "name": "reputation",
          "type": "uint256"
        },
        {
          "name": "addr",
          "type": "address"
        },
        {
          "name": "name",
          "type": "string"
        }
      ],
      "payable": false,
      "stateMutability": "view",
      "type": "function"
    },
    {
      "inputs": [],
      "payable": false,
      "stateMutability": "nonpayable",
      "type": "constructor"
    },
    {
      "anonymous": false,
      "inputs": [
        {
          "indexed": false,
          "name": "projectAddress",
          "type": "address"
        },
        {
          "indexed": false,
          "name": "projectId",
          "type": "uint256"
        }
      ],
      "name": "ProjectCreated",
      "type": "event"
    },
    {
      "constant": false,
      "inputs": [
        {
          "name": "_factoryAddr",
          "type": "address"
        }
      ],
      "name": "registerProjectFactory",
      "outputs": [],
      "payable": false,
      "stateMutability": "nonpayable",
      "type": "function"
    },
    {
      "constant": false,
      "inputs": [
        {
          "name": "_name",
          "type": "string"
        }
      ],
      "name": "createDeveloper",
      "outputs": [],
      "payable": false,
      "stateMutability": "nonpayable",
      "type": "function"
    },
    {
      "constant": true,
      "inputs": [
        {
          "name": "_id",
          "type": "uint256"
        }
      ],
      "name": "getDeveloper",
      "outputs": [
        {
          "name": "reputation",
          "type": "uint256"
        },
        {
          "name": "addr",
          "type": "address"
        },
        {
          "name": "name",
          "type": "string"
        },
        {
          "name": "projectIds",
          "type": "uint256[]"
        }
      ],
      "payable": false,
      "stateMutability": "view",
      "type": "function"
    },
    {
      "constant": false,
      "inputs": [
        {
          "name": "_developerId",
          "type": "uint256"
        },
        {
          "name": "_val",
          "type": "uint256"
        }
      ],
      "name": "updateDeveloperReputation",
      "outputs": [],
      "payable": false,
      "stateMutability": "nonpayable",
      "type": "function"
    },
    {
      "constant": true,
      "inputs": [],
      "name": "getDevelopers",
      "outputs": [
        {
          "name": "",
          "type": "address[]"
        }
      ],
      "payable": false,
      "stateMutability": "view",
      "type": "function"
    },
    {
      "constant": false,
      "inputs": [
        {
          "name": "_title",
          "type": "string"
        },
        {
          "name": "_description",
          "type": "string"
        },
        {
          "name": "_about",
          "type": "string"
        },
        {
          "name": "_developerId",
          "type": "uint256"
        },
        {
          "name": "_contributionGoal",
          "type": "uint256"
        }
      ],
      "name": "createProject",
      "outputs": [],
      "payable": false,
      "stateMutability": "nonpayable",
      "type": "function"
    },
    {
      "constant": false,
      "inputs": [
        {
          "name": "_projectId",
          "type": "uint256"
        },
        {
          "name": "_developerId",
          "type": "uint256"
        }
      ],
      "name": "submitProjectForReview",
      "outputs": [],
      "payable": false,
      "stateMutability": "nonpayable",
      "type": "function"
    },
    {
      "constant": true,
      "inputs": [],
      "name": "getProjects",
      "outputs": [
        {
          "name": "",
          "type": "address[]"
        }
      ],
      "payable": false,
      "stateMutability": "view",
      "type": "function"
    },
    {
      "constant": false,
      "inputs": [
        {
          "name": "_projectId",
          "type": "uint256"
        }
      ],
      "name": "contributeToProject",
      "outputs": [],
      "payable": true,
      "stateMutability": "payable",
      "type": "function"
    },
    {
      "constant": true,
      "inputs": [
        {
          "name": "_projectAddress",
          "type": "address"
        }
      ],
      "name": "getProjectContributorList",
      "outputs": [
        {
          "name": "",
          "type": "address[]"
        }
      ],
      "payable": false,
      "stateMutability": "view",
      "type": "function"
    }
  ],
  "bytecode": "0x60806040523480156200001157600080fd5b50336000806101000a81548173ffffffffffffffffffffffffffffffffffffffff021916908373ffffffffffffffffffffffffffffffffffffffff16021790555060038054809190600101620000689190620000d6565b506008600090806001815401808255809150509060018203906000526020600020016000909192909190916101000a81548173ffffffffffffffffffffffffffffffffffffffff021916908373ffffffffffffffffffffffffffffffffffffffff160217905550506200021f565b81548183558181111562000106576006028160060283600052602060002091820191016200010591906200010b565b5b505050565b6200018591905b80821115620001815760008082016000905560018201600090556002820160006101000a81549073ffffffffffffffffffffffffffffffffffffffff021916905560038201600062000165919062000188565b600582016000620001779190620001d4565b5060060162000112565b5090565b90565b50805460018160011615610100020316600290046000825580601f10620001b05750620001d1565b601f016020900490600052602060002090810190620001d09190620001f7565b5b50565b5080546000825590600052602060002090810190620001f49190620001f7565b50565b6200021c91905b8082111562000218576000816000905550600101620001fe565b5090565b90565b612ea6806200022f6000396000f3006080604052600436106100fc576000357c0100000000000000000000000000000000000000000000000000000000900463ffffffff168063056c29ee14610101578063107046bd1461020a57806314f97344146102775780631f6d4942146102ae5780633851375a146103315780635ca9611c146103c957806370e16d7e146104405780637258113d146104975780637a276bb6146104ee57806387fa2baa146106165780638da5cb5b1461065957806391740aa6146106b0578063939f69c9146106e757806397f5197414610707578063b0f2ccc51461075e578063bc8f5872146107ca578063dcc6012814610833578063eff25cd61461089f575b600080fd5b34801561010d57600080fd5b50610208600480360381019080803590602001908201803590602001908080601f0160208091040260200160405190810160405280939291908181526020018383808284378201915050505050509192919290803590602001908201803590602001908080601f0160208091040260200160405190810160405280939291908181526020018383808284378201915050505050509192919290803590602001908201803590602001908080601f01602080910402602001604051908101604052809392919081815260200183838082843782019150505050505091929192908035906020019092919080359060200190929190505050610986565b005b34801561021657600080fd5b5061023560048036038101908080359060200190929190505050610fe7565b604051808273ffffffffffffffffffffffffffffffffffffffff1673ffffffffffffffffffffffffffffffffffffffff16815260200191505060405180910390f35b34801561028357600080fd5b506102ac6004803603810190808035906020019092919080359060200190929190505050611025565b005b3480156102ba57600080fd5b506102ef600480360381019080803573ffffffffffffffffffffffffffffffffffffffff1690602001909291905050506111f4565b604051808273ffffffffffffffffffffffffffffffffffffffff1673ffffffffffffffffffffffffffffffffffffffff16815260200191505060405180910390f35b34801561033d57600080fd5b50610372600480360381019080803573ffffffffffffffffffffffffffffffffffffffff169060200190929190505050611232565b6040518080602001828103825283818151815260200191508051906020019060200280838360005b838110156103b557808201518184015260208101905061039a565b505050509050019250505060405180910390f35b3480156103d557600080fd5b5061042a600480360381019080803573ffffffffffffffffffffffffffffffffffffffff169060200190929190803573ffffffffffffffffffffffffffffffffffffffff1690602001909291905050506112ff565b6040518082815260200191505060405180910390f35b34801561044c57600080fd5b50610481600480360381019080803573ffffffffffffffffffffffffffffffffffffffff169060200190929190505050611324565b6040518082815260200191505060405180910390f35b3480156104a357600080fd5b506104d8600480360381019080803573ffffffffffffffffffffffffffffffffffffffff16906020019092919050505061133c565b6040518082815260200191505060405180910390f35b3480156104fa57600080fd5b5061051960048036038101908080359060200190929190505050611354565b604051808581526020018473ffffffffffffffffffffffffffffffffffffffff1673ffffffffffffffffffffffffffffffffffffffff1681526020018060200180602001838103835285818151815260200191508051906020019080838360005b8381101561059557808201518184015260208101905061057a565b50505050905090810190601f1680156105c25780820380516001836020036101000a031916815260200191505b50838103825284818151815260200191508051906020019060200280838360005b838110156105fe5780820151818401526020810190506105e3565b50505050905001965050505050505060405180910390f35b34801561062257600080fd5b50610657600480360381019080803573ffffffffffffffffffffffffffffffffffffffff1690602001909291905050506115b2565b005b34801561066557600080fd5b5061066e611651565b604051808273ffffffffffffffffffffffffffffffffffffffff1673ffffffffffffffffffffffffffffffffffffffff16815260200191505060405180910390f35b3480156106bc57600080fd5b506106e56004803603810190808035906020019092919080359060200190929190505050611676565b005b61070560048036038101908080359060200190929190505050611993565b005b34801561071357600080fd5b5061071c611fc3565b604051808273ffffffffffffffffffffffffffffffffffffffff1673ffffffffffffffffffffffffffffffffffffffff16815260200191505060405180910390f35b34801561076a57600080fd5b50610773611fe9565b6040518080602001828103825283818151815260200191508051906020019060200280838360005b838110156107b657808201518184015260208101905061079b565b505050509050019250505060405180910390f35b3480156107d657600080fd5b50610831600480360381019080803590602001908201803590602001908080601f0160208091040260200160405190810160405280939291908181526020018383808284378201915050505050509192919290505050612239565b005b34801561083f57600080fd5b506108486124fa565b6040518080602001828103825283818151815260200191508051906020019060200280838360005b8381101561088b578082015181840152602081019050610870565b505050509050019250505060405180910390f35b3480156108ab57600080fd5b506108ca600480360381019080803590602001909291905050506125e7565b604051808581526020018481526020018373ffffffffffffffffffffffffffffffffffffffff1673ffffffffffffffffffffffffffffffffffffffff16815260200180602001828103825283818151815260200191508051906020019080838360005b8381101561094857808201518184015260208101905061092d565b50505050905090810190601f1680156109755780820380516001836020036101000a031916815260200191505b509550505050505060405180910390f35b600080600080858060038281548110151561099d57fe5b906000526020600020906006020160000154141515610a24576040517f08c379a00000000000000000000000000000000000000000000000000000000081526004018080602001828103825260198152602001807f446576656c6f70657220646f6573206e6f742065786973742e0000000000000081525060200191505060405180910390fd5b600381815481101515610a3357fe5b906000526020600020906006020160020160009054906101000a900473ffffffffffffffffffffffffffffffffffffffff1673ffffffffffffffffffffffffffffffffffffffff163373ffffffffffffffffffffffffffffffffffffffff16141515610b2d576040517f08c379a000000000000000000000000000000000000000000000000000000000815260040180806020018281038252602b8152602001807f4164647265737320646f6573206e6f74206d617463682073706563696669656481526020017f20646576656c6f7065722e00000000000000000000000000000000000000000081525060400191505060405180910390fd5b600073ffffffffffffffffffffffffffffffffffffffff16600160009054906101000a900473ffffffffffffffffffffffffffffffffffffffff1673ffffffffffffffffffffffffffffffffffffffff1614151515610bf4576040517f08c379a000000000000000000000000000000000000000000000000000000000815260040180806020018281038252601e8152602001807f4e6f2070726f6a65637420666163746f727920726567697374657265642e000081525060200191505060405180910390fd5b600160009054906101000a900473ffffffffffffffffffffffffffffffffffffffff16945060088054905093508473ffffffffffffffffffffffffffffffffffffffff16637daeeb96858c8c8c338d8d6040518863ffffffff167c0100000000000000000000000000000000000000000000000000000000028152600401808881526020018060200180602001806020018773ffffffffffffffffffffffffffffffffffffffff1673ffffffffffffffffffffffffffffffffffffffff16815260200186815260200185815260200184810384528a818151815260200191508051906020019080838360005b83811015610cfb578082015181840152602081019050610ce0565b50505050905090810190601f168015610d285780820380516001836020036101000a031916815260200191505b50848103835289818151815260200191508051906020019080838360005b83811015610d61578082015181840152602081019050610d46565b50505050905090810190601f168015610d8e5780820380516001836020036101000a031916815260200191505b50848103825288818151815260200191508051906020019080838360005b83811015610dc7578082015181840152602081019050610dac565b50505050905090810190601f168015610df45780820380516001836020036101000a031916815260200191505b509a5050505050505050505050602060405180830381600087803b158015610e1b57600080fd5b505af1158015610e2f573d6000803e3d6000fd5b505050506040513d6020811015610e4557600080fd5b8101908080519060200190929190505050925083600760008573ffffffffffffffffffffffffffffffffffffffff1673ffffffffffffffffffffffffffffffffffffffff1681526020019081526020016000208190555060088390806001815401808255809150509060018203906000526020600020016000909192909190916101000a81548173ffffffffffffffffffffffffffffffffffffffff021916908373ffffffffffffffffffffffffffffffffffffffff16021790555050600387815481101515610f1157fe5b90600052602060002090600602019150816005018054905082600401600086815260200190815260200160002081905550816005018490806001815401808255809150509060018203906000526020600020016000909192909190915055507f20bfd29f3d906f96fc35742fac45a554b19cbd4e21f8c4c1d84cb58fdfc32c898385604051808373ffffffffffffffffffffffffffffffffffffffff1673ffffffffffffffffffffffffffffffffffffffff1681526020018281526020019250505060405180910390a150505050505050505050565b600881815481101515610ff657fe5b906000526020600020016000915054906101000a900473ffffffffffffffffffffffffffffffffffffffff1681565b60008083600080600760003373ffffffffffffffffffffffffffffffffffffffff1673ffffffffffffffffffffffffffffffffffffffff168152602001908152602001600020549150600082141515156110e7576040517f08c379a00000000000000000000000000000000000000000000000000000000081526004018080602001828103825260198152602001807f43616c6c6572206d75737420626520612070726f6a6563742e0000000000000081525060200191505060405180910390fd5b6003838154811015156110f657fe5b90600052602060002090600602019050600081600401600084815260200190815260200160002054141515156111ba576040517f08c379a000000000000000000000000000000000000000000000000000000000815260040180806020018281038252603c8152602001807f43616c6c6572206d75737420626520612070726f6a656374206372656174656481526020017f206279207468652073706563696669656420646576656c6f7065722e0000000081525060400191505060405180910390fd5b6003878154811015156111c957fe5b9060005260206000209060060201945084600101549350858401856001018190555050505050505050565b60046020528060005260406000206000915090508060000160009054906101000a900473ffffffffffffffffffffffffffffffffffffffff16905081565b6060600660008373ffffffffffffffffffffffffffffffffffffffff1673ffffffffffffffffffffffffffffffffffffffff1681526020019081526020016000208054806020026020016040519081016040528092919081815260200182805480156112f357602002820191906000526020600020905b8160009054906101000a900473ffffffffffffffffffffffffffffffffffffffff1673ffffffffffffffffffffffffffffffffffffffff16815260200190600101908083116112a9575b50505050509050919050565b6005602052816000526040600020602052806000526040600020600091509150505481565b60026020528060005260406000206000915090505481565b60076020528060005260406000206000915090505481565b600080606080611362612c45565b8560038781548110151561137257fe5b9060005260206000209060060201600001541415156113f9576040517f08c379a00000000000000000000000000000000000000000000000000000000081526004018080602001828103825260198152602001807f446576656c6f70657220646f6573206e6f742065786973742e0000000000000081525060200191505060405180910390fd5b60038681548110151561140857fe5b906000526020600020906006020160a0604051908101604052908160008201548152602001600182015481526020016002820160009054906101000a900473ffffffffffffffffffffffffffffffffffffffff1673ffffffffffffffffffffffffffffffffffffffff1673ffffffffffffffffffffffffffffffffffffffff168152602001600382018054600181600116156101000203166002900480601f0160208091040260200160405190810160405280929190818152602001828054600181600116156101000203166002900480156115255780601f106114fa57610100808354040283529160200191611525565b820191906000526020600020905b81548152906001019060200180831161150857829003601f168201915b505050505081526020016005820180548060200260200160405190810160405280929190818152602001828054801561157d57602002820191906000526020600020905b815481526020019060010190808311611569575b505050505081525050905080602001518160400151826060015183608001518191508090509450945094509450509193509193565b6000809054906101000a900473ffffffffffffffffffffffffffffffffffffffff1673ffffffffffffffffffffffffffffffffffffffff163373ffffffffffffffffffffffffffffffffffffffff1614151561160d57600080fd5b80600160006101000a81548173ffffffffffffffffffffffffffffffffffffffff021916908373ffffffffffffffffffffffffffffffffffffffff16021790555050565b6000809054906101000a900473ffffffffffffffffffffffffffffffffffffffff1681565b600080828060038281548110151561168a57fe5b906000526020600020906006020160000154141515611711576040517f08c379a00000000000000000000000000000000000000000000000000000000081526004018080602001828103825260198152602001807f446576656c6f70657220646f6573206e6f742065786973742e0000000000000081525060200191505060405180910390fd5b60038181548110151561172057fe5b906000526020600020906006020160020160009054906101000a900473ffffffffffffffffffffffffffffffffffffffff1673ffffffffffffffffffffffffffffffffffffffff163373ffffffffffffffffffffffffffffffffffffffff1614151561181a576040517f08c379a000000000000000000000000000000000000000000000000000000000815260040180806020018281038252602b8152602001807f4164647265737320646f6573206e6f74206d617463682073706563696669656481526020017f20646576656c6f7065722e00000000000000000000000000000000000000000081525060400191505060405180910390fd5b60088581548110151561182957fe5b9060005260206000200160009054906101000a900473ffffffffffffffffffffffffffffffffffffffff169250600073ffffffffffffffffffffffffffffffffffffffff168373ffffffffffffffffffffffffffffffffffffffff16141515156118fb576040517f08c379a00000000000000000000000000000000000000000000000000000000081526004018080602001828103825260178152602001807f50726f6a65637420646f6573206e6f742065786973742e00000000000000000081525060200191505060405180910390fd5b829150611907826126de565b61191082612afb565b8173ffffffffffffffffffffffffffffffffffffffff1663927f6d416040518163ffffffff167c0100000000000000000000000000000000000000000000000000000000028152600401600060405180830381600087803b15801561197457600080fd5b505af1158015611988573d6000803e3d6000fd5b505050505050505050565b600061199d612c8b565b6000806008858154811015156119af57fe5b9060005260206000200160009054906101000a900473ffffffffffffffffffffffffffffffffffffffff16935060008473ffffffffffffffffffffffffffffffffffffffff1614151515611a6b576040517f08c379a00000000000000000000000000000000000000000000000000000000081526004018080602001828103825260178152602001807f50726f6a65637420646f6573206e6f742065786973742e00000000000000000081525060200191505060405180910390fd5b6000600460003373ffffffffffffffffffffffffffffffffffffffff1673ffffffffffffffffffffffffffffffffffffffff16815260200190815260200160002060000160009054906101000a900473ffffffffffffffffffffffffffffffffffffffff1673ffffffffffffffffffffffffffffffffffffffff161415611bf15760408051908101604052803373ffffffffffffffffffffffffffffffffffffffff1681526020016000604051908082528060200260200182016040528015611b435781602001602082028038833980820191505090505b50815250925082600460003373ffffffffffffffffffffffffffffffffffffffff1673ffffffffffffffffffffffffffffffffffffffff16815260200190815260200160002060008201518160000160006101000a81548173ffffffffffffffffffffffffffffffffffffffff021916908373ffffffffffffffffffffffffffffffffffffffff1602179055506020820151816002019080519060200190611bec929190612cbb565b509050505b600460003373ffffffffffffffffffffffffffffffffffffffff1673ffffffffffffffffffffffffffffffffffffffff16815260200190815260200160002091508160010160008573ffffffffffffffffffffffffffffffffffffffff1673ffffffffffffffffffffffffffffffffffffffff16815260200190815260200160002060009054906101000a900460ff161515611d4a5760018260010160008673ffffffffffffffffffffffffffffffffffffffff1673ffffffffffffffffffffffffffffffffffffffff16815260200190815260200160002060006101000a81548160ff021916908315150217905550816002018490806001815401808255809150509060018203906000526020600020016000909192909190916101000a81548173ffffffffffffffffffffffffffffffffffffffff021916908373ffffffffffffffffffffffffffffffffffffffff160217905550505b6000600560008673ffffffffffffffffffffffffffffffffffffffff1673ffffffffffffffffffffffffffffffffffffffff16815260200190815260200160002060003373ffffffffffffffffffffffffffffffffffffffff1673ffffffffffffffffffffffffffffffffffffffff168152602001908152602001600020541415611e7357600660008573ffffffffffffffffffffffffffffffffffffffff1673ffffffffffffffffffffffffffffffffffffffff1681526020019081526020016000203390806001815401808255809150509060018203906000526020600020016000909192909190916101000a81548173ffffffffffffffffffffffffffffffffffffffff021916908373ffffffffffffffffffffffffffffffffffffffff160217905550505b600560008573ffffffffffffffffffffffffffffffffffffffff1673ffffffffffffffffffffffffffffffffffffffff16815260200190815260200160002060003373ffffffffffffffffffffffffffffffffffffffff1673ffffffffffffffffffffffffffffffffffffffff168152602001908152602001600020549050348101600560008673ffffffffffffffffffffffffffffffffffffffff1673ffffffffffffffffffffffffffffffffffffffff16815260200190815260200160002060003373ffffffffffffffffffffffffffffffffffffffff1673ffffffffffffffffffffffffffffffffffffffff168152602001908152602001600020819055508373ffffffffffffffffffffffffffffffffffffffff166108fc349081150290604051600060405180830381858888f19350505050158015611fbb573d6000803e3d6000fd5b505050505050565b600160009054906101000a900473ffffffffffffffffffffffffffffffffffffffff1681565b6060806000611ff6612c45565b60016003805490500360405190808252806020026020018201604052801561202d5781602001602082028038833980820191505090505b509250600191505b6003805490508210156122305760038281548110151561205157fe5b906000526020600020906006020160a0604051908101604052908160008201548152602001600182015481526020016002820160009054906101000a900473ffffffffffffffffffffffffffffffffffffffff1673ffffffffffffffffffffffffffffffffffffffff1673ffffffffffffffffffffffffffffffffffffffff168152602001600382018054600181600116156101000203166002900480601f01602080910402602001604051908101604052809291908181526020018280546001816001161561010002031660029004801561216e5780601f106121435761010080835404028352916020019161216e565b820191906000526020600020905b81548152906001019060200180831161215157829003601f168201915b50505050508152602001600582018054806020026020016040519081016040528092919081815260200182805480156121c657602002820191906000526020600020905b8154815260200190600101908083116121b2575b5050505050815250509050806040015183600184038151811015156121e757fe5b9060200190602002019073ffffffffffffffffffffffffffffffffffffffff16908173ffffffffffffffffffffffffffffffffffffffff16815250508180600101925050612035565b82935050505090565b612241612c45565b600080600260003373ffffffffffffffffffffffffffffffffffffffff1673ffffffffffffffffffffffffffffffffffffffff1681526020019081526020016000205414151561231f576040517f08c379a00000000000000000000000000000000000000000000000000000000081526004018080602001828103825260248152602001807f54686973206163636f756e7420697320616c7265616479206120646576656c6f81526020017f7065722e0000000000000000000000000000000000000000000000000000000081525060400191505060405180910390fd5b60a0604051908101604052806003805490508152602001600081526020013373ffffffffffffffffffffffffffffffffffffffff168152602001848152602001600060405190808252806020026020018201604052801561238f5781602001602082028038833980820191505090505b50815250915060038290806001815401808255809150509060018203906000526020600020906006020160009091929091909150600082015181600001556020820151816001015560408201518160020160006101000a81548173ffffffffffffffffffffffffffffffffffffffff021916908373ffffffffffffffffffffffffffffffffffffffff160217905550606082015181600301908051906020019061243a929190612d45565b506080820151816005019080519060200190612457929190612dc5565b505050508160000151600260003373ffffffffffffffffffffffffffffffffffffffff1673ffffffffffffffffffffffffffffffffffffffff16815260200190815260200160002081905550600382600001518154811015156124b657fe5b906000526020600020906006020190508060050160009080600181540180825580915050906001820390600052602060002001600090919290919091505550505050565b60608060006001600880549050036040519080825280602002602001820160405280156125365781602001602082028038833980820191505090505b509150600190505b6008805490508110156125df5760088181548110151561255a57fe5b9060005260206000200160009054906101000a900473ffffffffffffffffffffffffffffffffffffffff16826001830381518110151561259657fe5b9060200190602002019073ffffffffffffffffffffffffffffffffffffffff16908173ffffffffffffffffffffffffffffffffffffffff1681525050808060010191505061253e565b819250505090565b6003818154811015156125f657fe5b90600052602060002090600602016000915090508060000154908060010154908060020160009054906101000a900473ffffffffffffffffffffffffffffffffffffffff1690806003018054600181600116156101000203166002900480601f0160208091040260200160405190810160405280929190818152602001828054600181600116156101000203166002900480156126d45780601f106126a9576101008083540402835291602001916126d4565b820191906000526020600020905b8154815290600101906020018083116126b757829003601f168201915b5050505050905084565b6000806000806060806000808897508773ffffffffffffffffffffffffffffffffffffffff16635e07425b6040518163ffffffff167c0100000000000000000000000000000000000000000000000000000000028152600401602060405180830381600087803b15801561275157600080fd5b505af1158015612765573d6000803e3d6000fd5b505050506040513d602081101561277b57600080fd5b81019080805190602001909291905050501515612af0578773ffffffffffffffffffffffffffffffffffffffff166355a566026040518163ffffffff167c0100000000000000000000000000000000000000000000000000000000028152600401602060405180830381600087803b1580156127f657600080fd5b505af115801561280a573d6000803e3d6000fd5b505050506040513d602081101561282057600080fd5b810190808051906020019092919050505096506000871115156128ab576040517f08c379a000000000000000000000000000000000000000000000000000000000815260040180806020018281038252601a8152602001807f50726f6a65637420686173206e6f206d696c6573746f6e65732e00000000000081525060200191505060405180910390fd5b60009550600094505b86851015612a51578773ffffffffffffffffffffffffffffffffffffffff1663c45bbae98660006040518363ffffffff167c0100000000000000000000000000000000000000000000000000000000028152600401808381526020018215151515815260200192505050600060405180830381600087803b15801561293857600080fd5b505af115801561294c573d6000803e3d6000fd5b505050506040513d6000823e3d601f19601f82011682018060405250608081101561297657600080fd5b81019080805164010000000081111561298e57600080fd5b828101905060208101848111156129a457600080fd5b81518560018202830111640100000000821117156129c157600080fd5b505092919060200180516401000000008111156129dd57600080fd5b828101905060208101848111156129f357600080fd5b8151856001820283011164010000000082111715612a1057600080fd5b5050929190602001805190602001909291908051906020019092919050505080945081955082965083975050505050818601955084806001019550506128b4565b606486141515612aef576040517f08c379a00000000000000000000000000000000000000000000000000000000081526004018080602001828103825260268152602001807f4d696c6573746f6e652070657263656e7461676573206d75737420616464207481526020017f6f203130302e000000000000000000000000000000000000000000000000000081525060400191505060405180910390fd5b5b505050505050505050565b6000808291508173ffffffffffffffffffffffffffffffffffffffff16637b94c18e6040518163ffffffff167c0100000000000000000000000000000000000000000000000000000000028152600401602060405180830381600087803b158015612b6557600080fd5b505af1158015612b79573d6000803e3d6000fd5b505050506040513d6020811015612b8f57600080fd5b81019080805190602001909291905050509050600081111515612c40576040517f08c379a00000000000000000000000000000000000000000000000000000000081526004018080602001828103825260228152602001807f50726f6a65637420686173206e6f20636f6e747269627574696f6e207469657281526020017f732e00000000000000000000000000000000000000000000000000000000000081525060400191505060405180910390fd5b505050565b60a0604051908101604052806000815260200160008152602001600073ffffffffffffffffffffffffffffffffffffffff16815260200160608152602001606081525090565b6040805190810160405280600073ffffffffffffffffffffffffffffffffffffffff168152602001606081525090565b828054828255906000526020600020908101928215612d34579160200282015b82811115612d335782518260006101000a81548173ffffffffffffffffffffffffffffffffffffffff021916908373ffffffffffffffffffffffffffffffffffffffff16021790555091602001919060010190612cdb565b5b509050612d419190612e12565b5090565b828054600181600116156101000203166002900490600052602060002090601f016020900481019282601f10612d8657805160ff1916838001178555612db4565b82800160010185558215612db4579182015b82811115612db3578251825591602001919060010190612d98565b5b509050612dc19190612e55565b5090565b828054828255906000526020600020908101928215612e01579160200282015b82811115612e00578251825591602001919060010190612de5565b5b509050612e0e9190612e55565b5090565b612e5291905b80821115612e4e57600081816101000a81549073ffffffffffffffffffffffffffffffffffffffff021916905550600101612e18565b5090565b90565b612e7791905b80821115612e73576000816000905550600101612e5b565b5090565b905600a165627a7a72305820d479d5eae623a001be6305c27841176bfd42ed73ade7d4edf69fb736c711bf8d0029",
  "source": "pragma solidity ^0.4.23;\n\nimport \"./Project.sol\";\nimport \"./ProjectFactory.sol\";\n\ncontract FundingService {\n\n    struct Developer {\n        uint id;\n        uint reputation;\n        address addr;\n        string name;\n        mapping(uint => uint) projectIdIndex; // mapping of project id to index in Developer.projectIds\n        uint[] projectIds; // the projects belonging to this developer\n    }\n\n    struct Contributor {\n        address addr;\n        mapping(address => bool) projectExists;\n        address[] activeProjects;\n    }\n\n    address public owner;\n\n    address public projectFactory;\n\n    mapping(address => uint) public developerMap; // address => id\n    Developer[] public developers; // indexed by developer id\n\n    mapping(address => Contributor) public contributors;\n\n    mapping(address => mapping(address => uint)) public projectContributionAmount; // project address => (contributor address => contribution amount)\n    mapping(address => address[]) projectContributorList; // project address => Contributors[]\n\n    mapping(address => uint) public projectMap; // address => id\n    address[] public projects; // indexed by project id\n\n    modifier devRestricted(uint _developerId) {\n        require(developers[_developerId].id == _developerId, \"Developer does not exist.\"); // check that developer exists\n        require(msg.sender == developers[_developerId].addr, \"Address does not match specified developer.\");\n        _;\n    }\n\n    modifier validProjectOnly(uint _developerId) {\n        // Caller must be a project\n        uint projectId = projectMap[msg.sender];\n        require(projectId != 0, \"Caller must be a project.\");\n\n        // Caller must be a project created by the specified developer\n        Developer storage developer = developers[_developerId];\n        require(developer.projectIdIndex[projectId] != 0, \"Caller must be a project created by the specified developer.\");\n\n        _;\n    }\n\n    modifier ownerOnly() {\n        require(msg.sender == owner);\n        _;\n    }\n\n    event ProjectCreated(address projectAddress, uint projectId);\n\n    constructor() public {\n        owner = msg.sender;\n\n        // reserve 0\n        developers.length++;\n        projects.push(0);\n    }\n\n    function registerProjectFactory(address _factoryAddr) public ownerOnly {\n        projectFactory = _factoryAddr;\n    }\n\n    function createDeveloper(string _name) public {\n        require(developerMap[msg.sender] == 0, \"This account is already a developer.\"); // require that this account is not already a developer\n\n        Developer memory newDeveloper = Developer({\n            id: developers.length,\n            reputation: 0,\n            addr: msg.sender,\n            name: _name,\n            projectIds: new uint[](0)\n            });\n\n        developers.push(newDeveloper);\n        developerMap[msg.sender] = newDeveloper.id;\n\n        // Reserve 0 in developer's projectIds\n        Developer storage createdDeveloper = developers[newDeveloper.id];\n        createdDeveloper.projectIds.push(0);\n    }\n\n    function getDeveloper(uint _id) public view returns (uint reputation, address addr, string name, uint[] projectIds) {\n        require(developers[_id].id == _id, \"Developer does not exist.\"); // check that developer exists\n\n        Developer memory dev = developers[_id];\n        return (dev.reputation, dev.addr, dev.name, dev.projectIds);\n    }\n\n    function updateDeveloperReputation(uint _developerId, uint _val) public validProjectOnly(_developerId) {\n        Developer storage developer = developers[_developerId];\n\n        uint currentRep = developer.reputation;\n\n        developer.reputation = currentRep + _val;\n    }\n\n    function getDevelopers() public view returns (address[]) {\n        address[] memory addresses = new address[](developers.length - 1);\n\n        for (uint i = 1; i < developers.length; i++) {\n            Developer memory developer = developers[i];\n            addresses[i - 1] = (developer.addr);\n        }\n\n        return addresses;\n    }\n\n    function createProject(string _title, string _description, string _about, uint _developerId, uint _contributionGoal) public devRestricted(_developerId) {\n        require(projectFactory != address(0), \"No project factory registered.\");\n\n        ProjectFactory factory = ProjectFactory(projectFactory);\n\n        uint newProjectId = projects.length;\n\n        address newProject = factory.createProject(newProjectId, _title, _description, _about,  msg.sender,  _developerId, _contributionGoal);\n\n        projectMap[newProject] = newProjectId;\n        projects.push(newProject);\n\n        Developer storage dev = developers[_developerId];\n\n        dev.projectIdIndex[newProjectId] = dev.projectIds.length;\n        dev.projectIds.push(newProjectId);\n\n        emit ProjectCreated(newProject, newProjectId);\n    }\n\n    function submitProjectForReview(uint _projectId, uint _developerId) public devRestricted(_developerId) {\n        address projectAddress = projects[_projectId];\n\n        // check that project exists\n        require(projectAddress != address(0), \"Project does not exist.\");\n\n        Project project = Project(projectAddress);\n\n        verifyProjectMilestones(project);\n\n        verifyProjectTiers(project);\n\n        // Set project status to \"Pending\" and change timeline to active\n        project.initializeTimeline();\n    }\n\n    function verifyProjectMilestones(address _project) private view {\n        Project project = Project(_project);\n\n        // If project has a timeline, verify:\n        // - Milestones are present\n        // - Milestone percentages add up to 100\n        if (!project.noTimeline()) {\n            uint timelineLength = project.getTimelineMilestoneLength();\n\n            require(timelineLength > 0, \"Project has no milestones.\");\n\n            uint percentageAcc = 0;\n            for (uint j = 0; j < timelineLength; j++) {\n                // todo - is there a way to ignore multiple returns?\n                string memory title;\n                string memory description;\n                uint percentage;\n                bool isComplete;\n                (title, description, percentage, isComplete) = project.getMilestone(j, false);\n                percentageAcc = percentageAcc + percentage;\n            }\n            require(percentageAcc == 100, \"Milestone percentages must add to 100.\");\n        }\n    }\n\n    function verifyProjectTiers(address _project) private view {\n        Project project = Project(_project);\n\n        // Verify that project has contribution tiers\n        uint tiersLength = project.getTiersLength();\n        require(tiersLength > 0, \"Project has no contribution tiers.\");\n    }\n\n    function getProjects() public view returns (address[]) {\n        address[] memory addresses = new address[](projects.length - 1);\n\n        for (uint i = 1; i < projects.length; i++) {\n            addresses[i - 1] = projects[i];\n        }\n\n        return addresses;\n    }\n\n    function contributeToProject(uint _projectId) public payable {\n        address projectAddress = projects[_projectId];\n\n        require(projectAddress != 0, \"Project does not exist.\"); // check that project exists\n\n        // if contributor doesn't exist, create it\n        if (contributors[msg.sender].addr == 0) {\n            Contributor memory newContributor = Contributor({\n                addr: msg.sender,\n                activeProjects: new address[](0)\n                });\n\n            // add contributor to global contributors mapping\n            contributors[msg.sender] = newContributor;\n        }\n\n        Contributor storage contributor = contributors[msg.sender];\n\n        // if project is not in contributor's project list, add it\n        if (!contributor.projectExists[projectAddress]) {\n            contributor.projectExists[projectAddress] = true;\n            contributor.activeProjects.push(projectAddress);\n        }\n\n        // add to projectContributorList, if not already present\n        if (projectContributionAmount[projectAddress][msg.sender] == 0) {\n            projectContributorList[projectAddress].push(msg.sender);\n        }\n\n        // add contribution amount to project\n        uint currentProjectContributionAmount = projectContributionAmount[projectAddress][msg.sender];\n        projectContributionAmount[projectAddress][msg.sender] = currentProjectContributionAmount + msg.value;\n\n        // transfer money to project\n        projectAddress.transfer(msg.value);\n    }\n\n    function getProjectContributorList(address _projectAddress) public view returns (address[]) {\n        return projectContributorList[_projectAddress];\n    }\n}\n",
  "sourcePath": "/home/jordan/Projects/hyperbridge/funding-protocol/smart-contracts/ethereum/contracts/FundingService.sol",
  "compiler": {
    "name": "solc",
    "version": "0.4.23+commit.124ca40d.Emscripten.clang"
  },
  "schemaVersion": "2.0.0",
  "updatedAt": "2018-06-16T00:59:03.042Z"
}