{
  "contractName": "FundingService",
  "abi": [
    {
      "constant": true,
      "inputs": [
        {
          "name": "",
          "type": "uint256"
        }
      ],
      "name": "projects",
      "outputs": [
        {
          "name": "",
          "type": "address"
        }
      ],
      "payable": false,
      "stateMutability": "view",
      "type": "function"
    },
    {
      "constant": true,
      "inputs": [
        {
          "name": "",
          "type": "address"
        }
      ],
      "name": "contributors",
      "outputs": [
        {
          "name": "addr",
          "type": "address"
        }
      ],
      "payable": false,
      "stateMutability": "view",
      "type": "function"
    },
    {
      "constant": true,
      "inputs": [
        {
          "name": "",
          "type": "address"
        },
        {
          "name": "",
          "type": "address"
        }
      ],
      "name": "projectContributionAmount",
      "outputs": [
        {
          "name": "",
          "type": "uint256"
        }
      ],
      "payable": false,
      "stateMutability": "view",
      "type": "function"
    },
    {
      "constant": true,
      "inputs": [
        {
          "name": "",
          "type": "address"
        }
      ],
      "name": "developerMap",
      "outputs": [
        {
          "name": "",
          "type": "uint256"
        }
      ],
      "payable": false,
      "stateMutability": "view",
      "type": "function"
    },
    {
      "constant": true,
      "inputs": [
        {
          "name": "",
          "type": "address"
        }
      ],
      "name": "projectMap",
      "outputs": [
        {
          "name": "",
          "type": "uint256"
        }
      ],
      "payable": false,
      "stateMutability": "view",
      "type": "function"
    },
    {
      "constant": true,
      "inputs": [],
      "name": "owner",
      "outputs": [
        {
          "name": "",
          "type": "address"
        }
      ],
      "payable": false,
      "stateMutability": "view",
      "type": "function"
    },
    {
      "constant": true,
      "inputs": [
        {
          "name": "",
          "type": "address"
        },
        {
          "name": "",
          "type": "uint256"
        }
      ],
      "name": "projectContributorList",
      "outputs": [
        {
          "name": "",
          "type": "address"
        }
      ],
      "payable": false,
      "stateMutability": "view",
      "type": "function"
    },
    {
      "constant": true,
      "inputs": [
        {
          "name": "",
          "type": "uint256"
        }
      ],
      "name": "developers",
      "outputs": [
        {
          "name": "id",
          "type": "uint256"
        },
        {
          "name": "addr",
          "type": "address"
        },
        {
          "name": "name",
          "type": "string"
        }
      ],
      "payable": false,
      "stateMutability": "view",
      "type": "function"
    },
    {
      "inputs": [],
      "payable": false,
      "stateMutability": "nonpayable",
      "type": "constructor"
    },
    {
      "constant": false,
      "inputs": [
        {
          "name": "_name",
          "type": "string"
        }
      ],
      "name": "createDeveloper",
      "outputs": [],
      "payable": false,
      "stateMutability": "nonpayable",
      "type": "function"
    },
    {
      "constant": true,
      "inputs": [
        {
          "name": "_id",
          "type": "uint256"
        }
      ],
      "name": "getDeveloper",
      "outputs": [
        {
          "name": "addr",
          "type": "address"
        },
        {
          "name": "name",
          "type": "string"
        },
        {
          "name": "projectIds",
          "type": "uint256[]"
        }
      ],
      "payable": false,
      "stateMutability": "view",
      "type": "function"
    },
    {
      "constant": true,
      "inputs": [],
      "name": "getDevelopers",
      "outputs": [
        {
          "name": "",
          "type": "address[]"
        }
      ],
      "payable": false,
      "stateMutability": "view",
      "type": "function"
    },
    {
      "constant": false,
      "inputs": [
        {
          "name": "_title",
          "type": "string"
        },
        {
          "name": "_description",
          "type": "string"
        },
        {
          "name": "_about",
          "type": "string"
        },
        {
          "name": "_developerId",
          "type": "uint256"
        },
        {
          "name": "_contributionGoal",
          "type": "uint256"
        }
      ],
      "name": "createProject",
      "outputs": [],
      "payable": false,
      "stateMutability": "nonpayable",
      "type": "function"
    },
    {
      "constant": false,
      "inputs": [
        {
          "name": "_projectId",
          "type": "uint256"
        },
        {
          "name": "_developerId",
          "type": "uint256"
        }
      ],
      "name": "submitProjectForReview",
      "outputs": [],
      "payable": false,
      "stateMutability": "nonpayable",
      "type": "function"
    },
    {
      "constant": true,
      "inputs": [],
      "name": "getProjects",
      "outputs": [
        {
          "name": "",
          "type": "address[]"
        }
      ],
      "payable": false,
      "stateMutability": "view",
      "type": "function"
    },
    {
      "constant": false,
      "inputs": [
        {
          "name": "_projectId",
          "type": "uint256"
        }
      ],
      "name": "contributeToProject",
      "outputs": [],
      "payable": true,
      "stateMutability": "payable",
      "type": "function"
    },
    {
      "constant": true,
      "inputs": [
        {
          "name": "_project",
          "type": "address"
        }
      ],
      "name": "getProjectContributorList",
      "outputs": [
        {
          "name": "",
          "type": "address[]"
        }
      ],
      "payable": false,
      "stateMutability": "view",
      "type": "function"
    }
  ],
  "bytecode": "0x60806040523480156200001157600080fd5b50336000806101000a81548173ffffffffffffffffffffffffffffffffffffffff021916908373ffffffffffffffffffffffffffffffffffffffff16021790555060028054809190600101620000689190620000d6565b506007600090806001815401808255809150509060018203906000526020600020016000909192909190916101000a81548173ffffffffffffffffffffffffffffffffffffffff021916908373ffffffffffffffffffffffffffffffffffffffff1602179055505062000217565b81548183558181111562000106576005028160050283600052602060002091820191016200010591906200010b565b5b505050565b6200017d91905b8082111562000179576000808201600090556001820160006101000a81549073ffffffffffffffffffffffffffffffffffffffff02191690556002820160006200015d919062000180565b6004820160006200016f9190620001cc565b5060050162000112565b5090565b90565b50805460018160011615610100020316600290046000825580601f10620001a85750620001c9565b601f016020900490600052602060002090810190620001c89190620001ef565b5b50565b5080546000825590600052602060002090810190620001ec9190620001ef565b50565b6200021491905b8082111562000210576000816000905550600101620001f6565b5090565b90565b6159bf80620002276000396000f300608060405260043610620000f7576000357c0100000000000000000000000000000000000000000000000000000000900463ffffffff168063056c29ee14620000fc578063107046bd14620002085780631f6d494214620002785780633851375a14620002fe5780635ca9611c146200039b57806370e16d7e14620004155780637258113d146200046f5780637a276bb614620004c95780638da5cb5b14620005f257806391740aa6146200064c578063939f69c91462000686578063b0f2ccc514620006a8578063bc8f58721462000719578063dcc601281462000785578063e016400c14620007f6578063eff25cd61462000886575b600080fd5b3480156200010957600080fd5b5062000206600480360381019080803590602001908201803590602001908080601f0160208091040260200160405190810160405280939291908181526020018383808284378201915050505050509192919290803590602001908201803590602001908080601f0160208091040260200160405190810160405280939291908181526020018383808284378201915050505050509192919290803590602001908201803590602001908080601f016020809104026020016040519081016040528093929190818152602001838380828437820191505050505050919291929080359060200190929190803590602001909291905050506200096c565b005b3480156200021557600080fd5b50620002366004803603810190808035906020019092919050505062000d26565b604051808273ffffffffffffffffffffffffffffffffffffffff1673ffffffffffffffffffffffffffffffffffffffff16815260200191505060405180910390f35b3480156200028557600080fd5b50620002bc600480360381019080803573ffffffffffffffffffffffffffffffffffffffff16906020019092919050505062000d65565b604051808273ffffffffffffffffffffffffffffffffffffffff1673ffffffffffffffffffffffffffffffffffffffff16815260200191505060405180910390f35b3480156200030b57600080fd5b5062000342600480360381019080803573ffffffffffffffffffffffffffffffffffffffff16906020019092919050505062000da3565b6040518080602001828103825283818151815260200191508051906020019060200280838360005b83811015620003875780820151818401526020810190506200036a565b505050509050019250505060405180910390f35b348015620003a857600080fd5b50620003ff600480360381019080803573ffffffffffffffffffffffffffffffffffffffff169060200190929190803573ffffffffffffffffffffffffffffffffffffffff16906020019092919050505062000e72565b6040518082815260200191505060405180910390f35b3480156200042257600080fd5b5062000459600480360381019080803573ffffffffffffffffffffffffffffffffffffffff16906020019092919050505062000e97565b6040518082815260200191505060405180910390f35b3480156200047c57600080fd5b50620004b3600480360381019080803573ffffffffffffffffffffffffffffffffffffffff16906020019092919050505062000eaf565b6040518082815260200191505060405180910390f35b348015620004d657600080fd5b50620004f76004803603810190808035906020019092919050505062000ec7565b604051808473ffffffffffffffffffffffffffffffffffffffff1673ffffffffffffffffffffffffffffffffffffffff1681526020018060200180602001838103835285818151815260200191508051906020019080838360005b838110156200056f57808201518184015260208101905062000552565b50505050905090810190601f1680156200059d5780820380516001836020036101000a031916815260200191505b50838103825284818151815260200191508051906020019060200280838360005b83811015620005db578082015181840152602081019050620005be565b505050509050019550505050505060405180910390f35b348015620005ff57600080fd5b506200060a620010b5565b604051808273ffffffffffffffffffffffffffffffffffffffff1673ffffffffffffffffffffffffffffffffffffffff16815260200191505060405180910390f35b3480156200065957600080fd5b50620006846004803603810190808035906020019092919080359060200190929190505050620010da565b005b620006a660048036038101908080359060200190929190505050620012bd565b005b348015620006b557600080fd5b50620006c0620018a1565b6040518080602001828103825283818151815260200191508051906020019060200280838360005b8381101562000705578082015181840152602081019050620006e8565b505050509050019250505060405180910390f35b3480156200072657600080fd5b5062000783600480360381019080803590602001908201803590602001908080601f016020809104026020016040519081016040528093929190818152602001838380828437820191505050505050919291929050505062001af4565b005b3480156200079257600080fd5b506200079d62001cc9565b6040518080602001828103825283818151815260200191508051906020019060200280838360005b83811015620007e2578082015181840152602081019050620007c5565b505050509050019250505060405180910390f35b3480156200080357600080fd5b5062000844600480360381019080803573ffffffffffffffffffffffffffffffffffffffff1690602001909291908035906020019092919050505062001dbb565b604051808273ffffffffffffffffffffffffffffffffffffffff1673ffffffffffffffffffffffffffffffffffffffff16815260200191505060405180910390f35b3480156200089357600080fd5b50620008b46004803603810190808035906020019092919050505062001e09565b604051808481526020018373ffffffffffffffffffffffffffffffffffffffff1673ffffffffffffffffffffffffffffffffffffffff16815260200180602001828103825283818151815260200191508051906020019080838360005b838110156200092e57808201518184015260208101905062000911565b50505050905090810190601f1680156200095c5780820380516001836020036101000a031916815260200191505b5094505050505060405180910390f35b600080600084806002828154811015156200098357fe5b906000526020600020906005020160000154141515620009a257600080fd5b600281815481101515620009b257fe5b906000526020600020906005020160010160009054906101000a900473ffffffffffffffffffffffffffffffffffffffff1673ffffffffffffffffffffffffffffffffffffffff163373ffffffffffffffffffffffffffffffffffffffff1614151562000a1e57600080fd5b600780549050935030848a8a8a338b8b62000a386200231a565b808973ffffffffffffffffffffffffffffffffffffffff1673ffffffffffffffffffffffffffffffffffffffff1681526020018881526020018060200180602001806020018773ffffffffffffffffffffffffffffffffffffffff1673ffffffffffffffffffffffffffffffffffffffff16815260200186815260200185815260200184810384528a818151815260200191508051906020019080838360005b8381101562000af557808201518184015260208101905062000ad8565b50505050905090810190601f16801562000b235780820380516001836020036101000a031916815260200191505b50848103835289818151815260200191508051906020019080838360005b8381101562000b5e57808201518184015260208101905062000b41565b50505050905090810190601f16801562000b8c5780820380516001836020036101000a031916815260200191505b50848103825288818151815260200191508051906020019080838360005b8381101562000bc757808201518184015260208101905062000baa565b50505050905090810190601f16801562000bf55780820380516001836020036101000a031916815260200191505b509b505050505050505050505050604051809103906000f08015801562000c20573d6000803e3d6000fd5b50925083600660008573ffffffffffffffffffffffffffffffffffffffff1673ffffffffffffffffffffffffffffffffffffffff1681526020019081526020016000208190555060078390806001815401808255809150509060018203906000526020600020016000909192909190916101000a81548173ffffffffffffffffffffffffffffffffffffffff021916908373ffffffffffffffffffffffffffffffffffffffff1602179055505060028681548110151562000cdd57fe5b9060005260206000209060050201915081600401849080600181540180825580915050906001820390600052602060002001600090919290919091505550505050505050505050565b60078181548110151562000d3657fe5b906000526020600020016000915054906101000a900473ffffffffffffffffffffffffffffffffffffffff1681565b60036020528060005260406000206000915090508060000160009054906101000a900473ffffffffffffffffffffffffffffffffffffffff16905081565b6060600560008373ffffffffffffffffffffffffffffffffffffffff1673ffffffffffffffffffffffffffffffffffffffff16815260200190815260200160002080548060200260200160405190810160405280929190818152602001828054801562000e6657602002820191906000526020600020905b8160009054906101000a900473ffffffffffffffffffffffffffffffffffffffff1673ffffffffffffffffffffffffffffffffffffffff168152602001906001019080831162000e1b575b50505050509050919050565b6004602052816000526040600020602052806000526040600020600091509150505481565b60016020528060005260406000206000915090505481565b60066020528060005260406000206000915090505481565b600060608062000ed66200232b565b8460028681548110151562000ee757fe5b90600052602060002090600502016000015414151562000f0657600080fd5b60028581548110151562000f1657fe5b906000526020600020906005020160806040519081016040529081600082015481526020016001820160009054906101000a900473ffffffffffffffffffffffffffffffffffffffff1673ffffffffffffffffffffffffffffffffffffffff1673ffffffffffffffffffffffffffffffffffffffff168152602001600282018054600181600116156101000203166002900480601f0160208091040260200160405190810160405280929190818152602001828054600181600116156101000203166002900480156200102d5780601f1062001001576101008083540402835291602001916200102d565b820191906000526020600020905b8154815290600101906020018083116200100f57829003601f168201915b50505050508152602001600482018054806020026020016040519081016040528092919081815260200182805480156200108757602002820191906000526020600020905b81548152602001906001019080831162001072575b5050505050815250509050806020015181604001518260600151819150809050935093509350509193909250565b6000809054906101000a900473ffffffffffffffffffffffffffffffffffffffff1681565b6000808280600282815481101515620010ef57fe5b9060005260206000209060050201600001541415156200110e57600080fd5b6002818154811015156200111e57fe5b906000526020600020906005020160010160009054906101000a900473ffffffffffffffffffffffffffffffffffffffff1673ffffffffffffffffffffffffffffffffffffffff163373ffffffffffffffffffffffffffffffffffffffff161415156200118a57600080fd5b6007858154811015156200119a57fe5b9060005260206000200160009054906101000a900473ffffffffffffffffffffffffffffffffffffffff169250600073ffffffffffffffffffffffffffffffffffffffff168373ffffffffffffffffffffffffffffffffffffffff16141515156200120457600080fd5b829150620012128262001eff565b6200121d826200223c565b8173ffffffffffffffffffffffffffffffffffffffff16632e49d78b60016040518263ffffffff167c0100000000000000000000000000000000000000000000000000000000028152600401808260048111156200127757fe5b60ff168152602001915050600060405180830381600087803b1580156200129d57600080fd5b505af1158015620012b2573d6000803e3d6000fd5b505050505050505050565b6000620012c96200236a565b600080600785815481101515620012dc57fe5b9060005260206000200160009054906101000a900473ffffffffffffffffffffffffffffffffffffffff16935060008473ffffffffffffffffffffffffffffffffffffffff16141515156200133057600080fd5b6000600360003373ffffffffffffffffffffffffffffffffffffffff1673ffffffffffffffffffffffffffffffffffffffff16815260200190815260200160002060000160009054906101000a900473ffffffffffffffffffffffffffffffffffffffff1673ffffffffffffffffffffffffffffffffffffffff161415620014ba5760408051908101604052803373ffffffffffffffffffffffffffffffffffffffff16815260200160006040519080825280602002602001820160405280156200140a5781602001602082028038833980820191505090505b50815250925082600360003373ffffffffffffffffffffffffffffffffffffffff1673ffffffffffffffffffffffffffffffffffffffff16815260200190815260200160002060008201518160000160006101000a81548173ffffffffffffffffffffffffffffffffffffffff021916908373ffffffffffffffffffffffffffffffffffffffff1602179055506020820151816002019080519060200190620014b59291906200239a565b509050505b600360003373ffffffffffffffffffffffffffffffffffffffff1673ffffffffffffffffffffffffffffffffffffffff16815260200190815260200160002091508160010160008573ffffffffffffffffffffffffffffffffffffffff1673ffffffffffffffffffffffffffffffffffffffff16815260200190815260200160002060009054906101000a900460ff161515620016145760018260010160008673ffffffffffffffffffffffffffffffffffffffff1673ffffffffffffffffffffffffffffffffffffffff16815260200190815260200160002060006101000a81548160ff021916908315150217905550816002018490806001815401808255809150509060018203906000526020600020016000909192909190916101000a81548173ffffffffffffffffffffffffffffffffffffffff021916908373ffffffffffffffffffffffffffffffffffffffff160217905550505b6000600460008673ffffffffffffffffffffffffffffffffffffffff1673ffffffffffffffffffffffffffffffffffffffff16815260200190815260200160002060003373ffffffffffffffffffffffffffffffffffffffff1673ffffffffffffffffffffffffffffffffffffffff1681526020019081526020016000205414156200173e57600560008573ffffffffffffffffffffffffffffffffffffffff1673ffffffffffffffffffffffffffffffffffffffff1681526020019081526020016000203390806001815401808255809150509060018203906000526020600020016000909192909190916101000a81548173ffffffffffffffffffffffffffffffffffffffff021916908373ffffffffffffffffffffffffffffffffffffffff160217905550505b600460008573ffffffffffffffffffffffffffffffffffffffff1673ffffffffffffffffffffffffffffffffffffffff16815260200190815260200160002060003373ffffffffffffffffffffffffffffffffffffffff1673ffffffffffffffffffffffffffffffffffffffff168152602001908152602001600020549050620017d23482620022fb90919063ffffffff16565b600460008673ffffffffffffffffffffffffffffffffffffffff1673ffffffffffffffffffffffffffffffffffffffff16815260200190815260200160002060003373ffffffffffffffffffffffffffffffffffffffff1673ffffffffffffffffffffffffffffffffffffffff168152602001908152602001600020819055508373ffffffffffffffffffffffffffffffffffffffff166108fc349081150290604051600060405180830381858888f1935050505015801562001899573d6000803e3d6000fd5b505050505050565b6060806000620018b06200232b565b600160028054905003604051908082528060200260200182016040528015620018e85781602001602082028038833980820191505090505b509250600191505b60028054905082101562001aeb576002828154811015156200190e57fe5b906000526020600020906005020160806040519081016040529081600082015481526020016001820160009054906101000a900473ffffffffffffffffffffffffffffffffffffffff1673ffffffffffffffffffffffffffffffffffffffff1673ffffffffffffffffffffffffffffffffffffffff168152602001600282018054600181600116156101000203166002900480601f01602080910402602001604051908101604052809291908181526020018280546001816001161561010002031660029004801562001a255780601f10620019f95761010080835404028352916020019162001a25565b820191906000526020600020905b81548152906001019060200180831162001a0757829003601f168201915b505050505081526020016004820180548060200260200160405190810160405280929190818152602001828054801562001a7f57602002820191906000526020600020905b81548152602001906001019080831162001a6a575b50505050508152505090508060200151836001840381518110151562001aa157fe5b9060200190602002019073ffffffffffffffffffffffffffffffffffffffff16908173ffffffffffffffffffffffffffffffffffffffff16815250508180600101925050620018f0565b82935050505090565b62001afe6200232b565b6000600160003373ffffffffffffffffffffffffffffffffffffffff1673ffffffffffffffffffffffffffffffffffffffff1681526020019081526020016000205414151562001b4d57600080fd5b60806040519081016040528060028054905081526020013373ffffffffffffffffffffffffffffffffffffffff168152602001838152602001600060405190808252806020026020018201604052801562001bb75781602001602082028038833980820191505090505b508152509050600281908060018154018082558091505090600182039060005260206000209060050201600090919290919091506000820151816000015560208201518160010160006101000a81548173ffffffffffffffffffffffffffffffffffffffff021916908373ffffffffffffffffffffffffffffffffffffffff160217905550604082015181600201908051906020019062001c5a92919062002429565b50606082015181600401908051906020019062001c79929190620024b0565b505050508060000151600160003373ffffffffffffffffffffffffffffffffffffffff1673ffffffffffffffffffffffffffffffffffffffff168152602001908152602001600020819055505050565b606080600060016007805490500360405190808252806020026020018201604052801562001d065781602001602082028038833980820191505090505b509150600190505b60078054905081101562001db35760078181548110151562001d2c57fe5b9060005260206000200160009054906101000a900473ffffffffffffffffffffffffffffffffffffffff16826001830381518110151562001d6957fe5b9060200190602002019073ffffffffffffffffffffffffffffffffffffffff16908173ffffffffffffffffffffffffffffffffffffffff1681525050808060010191505062001d0e565b819250505090565b60056020528160005260406000208181548110151562001dd757fe5b906000526020600020016000915091509054906101000a900473ffffffffffffffffffffffffffffffffffffffff1681565b60028181548110151562001e1957fe5b90600052602060002090600502016000915090508060000154908060010160009054906101000a900473ffffffffffffffffffffffffffffffffffffffff1690806002018054600181600116156101000203166002900480601f01602080910402602001604051908101604052809291908181526020018280546001816001161561010002031660029004801562001ef55780601f1062001ec95761010080835404028352916020019162001ef5565b820191906000526020600020905b81548152906001019060200180831162001ed757829003601f168201915b5050505050905083565b6000806000806060806000808897508773ffffffffffffffffffffffffffffffffffffffff16635e07425b6040518163ffffffff167c0100000000000000000000000000000000000000000000000000000000028152600401602060405180830381600087803b15801562001f7357600080fd5b505af115801562001f88573d6000803e3d6000fd5b505050506040513d602081101562001f9f57600080fd5b81019080805190602001909291905050501562002231578773ffffffffffffffffffffffffffffffffffffffff166355a566026040518163ffffffff167c0100000000000000000000000000000000000000000000000000000000028152600401602060405180830381600087803b1580156200201b57600080fd5b505af115801562002030573d6000803e3d6000fd5b505050506040513d60208110156200204757600080fd5b810190808051906020019092919050505096506000871115156200206a57600080fd5b60009550600094505b8685101562002220578773ffffffffffffffffffffffffffffffffffffffff1663c920a6d3866040518263ffffffff167c010000000000000000000000000000000000000000000000000000000002815260040180828152602001915050600060405180830381600087803b158015620020ec57600080fd5b505af115801562002101573d6000803e3d6000fd5b505050506040513d6000823e3d601f19601f8201168201806040525060808110156200212c57600080fd5b8101908080516401000000008111156200214557600080fd5b828101905060208101848111156200215c57600080fd5b81518560018202830111640100000000821117156200217a57600080fd5b505092919060200180516401000000008111156200219757600080fd5b82810190506020810184811115620021ae57600080fd5b8151856001820283011164010000000082111715620021cc57600080fd5b5050929190602001805190602001909291908051906020019092919050505080945081955082965083975050505050620022108287620022fb90919063ffffffff16565b9550848060010195505062002073565b6064861415156200223057600080fd5b5b505050505050505050565b6000808291508173ffffffffffffffffffffffffffffffffffffffff16637b94c18e6040518163ffffffff167c0100000000000000000000000000000000000000000000000000000000028152600401602060405180830381600087803b158015620022a757600080fd5b505af1158015620022bc573d6000803e3d6000fd5b505050506040513d6020811015620022d357600080fd5b81019080805190602001909291905050509050600081111515620022f657600080fd5b505050565b60008082840190508381101515156200231057fe5b8091505092915050565b604051613423806200257183390190565b60806040519081016040528060008152602001600073ffffffffffffffffffffffffffffffffffffffff16815260200160608152602001606081525090565b6040805190810160405280600073ffffffffffffffffffffffffffffffffffffffff168152602001606081525090565b82805482825590600052602060002090810192821562002416579160200282015b82811115620024155782518260006101000a81548173ffffffffffffffffffffffffffffffffffffffff021916908373ffffffffffffffffffffffffffffffffffffffff16021790555091602001919060010190620023bb565b5b50905062002425919062002502565b5090565b828054600181600116156101000203166002900490600052602060002090601f016020900481019282601f106200246c57805160ff19168380011785556200249d565b828001600101855582156200249d579182015b828111156200249c5782518255916020019190600101906200247f565b5b509050620024ac919062002548565b5090565b828054828255906000526020600020908101928215620024ef579160200282015b82811115620024ee578251825591602001919060010190620024d1565b5b509050620024fe919062002548565b5090565b6200254591905b808211156200254157600081816101000a81549073ffffffffffffffffffffffffffffffffffffffff02191690555060010162002509565b5090565b90565b6200256d91905b80821115620025695760008160009055506001016200254f565b5090565b90560060806040523480156200001157600080fd5b5060405162003423380380620034238339810180604052810190808051906020019092919080519060200190929190805182019291906020018051820192919060200180518201929190602001805190602001909291908051906020019092919080519060200190929190505050876000806101000a81548173ffffffffffffffffffffffffffffffffffffffff021916908373ffffffffffffffffffffffffffffffffffffffff160217905550866001819055506000600260006101000a81548160ff02191690836004811115620000e657fe5b021790555085600390805190602001906200010392919062000193565b5084600490805190602001906200011c92919062000193565b5083600590805190602001906200013592919062000193565b5082600660006101000a81548173ffffffffffffffffffffffffffffffffffffffff021916908373ffffffffffffffffffffffffffffffffffffffff1602179055508160078190555080600881905550505050505050505062000242565b828054600181600116156101000203166002900490600052602060002090601f016020900481019282601f10620001d657805160ff191683800117855562000207565b8280016001018555821562000207579182015b8281111562000206578251825591602001919060010190620001e9565b5b5090506200021691906200021a565b5090565b6200023f91905b808211156200023b57600081600090555060010162000221565b5090565b90565b6131d180620002526000396000f3006080604052600436106200019f576000357c0100000000000000000000000000000000000000000000000000000000900463ffffffff1680630f1a92e114620001a15780631aa470bb14620001cf5780631ab794241462000201578063200d2ed214620002335780632e49d78b146200027057806334f2a35a14620002a35780633fa47c8114620002d55780634518dff4146200039b578063486c46a214620004255780634a79d50c146200055257806355a5660214620005e8578063595f1378146200061657806359ef407a14620006d75780635e07425b14620006f15780635e1d548214620007235780637284e41614620007b957806375d36dc5146200084f5780637b94c18e146200087d578063814e4ec614620008ab578063a847e5ea146200093f578063ad477c4714620009fb578063af640d0f1462000a29578063b1efc0241462000a57578063b99810171462000b18578063bde0e7ac1462000b32578063c920a6d31462000b60578063ca4b208b1462000c8d578063cba24e411462000ce7578063d1d2ba8f1462000d41578063db6f8d6b1462000e39575b005b348015620001ae57600080fd5b50620001b962000e67565b6040518082815260200191505060405180910390f35b348015620001dc57600080fd5b50620001ff60048036038101908080351515906020019092919050505062000e74565b005b3480156200020e57600080fd5b506200023160048036038101908080351515906020019092919050505062000eee565b005b3480156200024057600080fd5b506200024b62000f68565b604051808260048111156200025c57fe5b60ff16815260200191505060405180910390f35b3480156200027d57600080fd5b50620002a1600480360381019080803560ff16906020019092919050505062000f7b565b005b348015620002b057600080fd5b50620002bb62000ffe565b604051808215151515815260200191505060405180910390f35b348015620002e257600080fd5b506200039960048036038101908080359060200190929190803590602001908201803590602001908080601f0160208091040260200160405190810160405280939291908181526020018383808284378201915050505050509192919290803590602001908201803590602001908080601f01602080910402602001604051908101604052809392919081815260200183838082843782019150505050505091929192908035906020019092919050505062001011565b005b348015620003a857600080fd5b5062000423600480360381019080803590602001909291908035906020019092919080359060200190929190803590602001908201803590602001908080601f0160208091040260200160405190810160405280939291908181526020018383808284378201915050505050509192919290505050620010d6565b005b3480156200043257600080fd5b506200045360048036038101908080359060200190929190505050620011d6565b60405180806020018060200185815260200184151515158152602001838103835287818151815260200191508051906020019080838360005b83811015620004a95780820151818401526020810190506200048c565b50505050905090810190601f168015620004d75780820380516001836020036101000a031916815260200191505b50838103825286818151815260200191508051906020019080838360005b8381101562000512578082015181840152602081019050620004f5565b50505050905090810190601f168015620005405780820380516001836020036101000a031916815260200191505b50965050505050505060405180910390f35b3480156200055f57600080fd5b506200056a620013ad565b6040518080602001828103825283818151815260200191508051906020019080838360005b83811015620005ac5780820151818401526020810190506200058f565b50505050905090810190601f168015620005da5780820380516001836020036101000a031916815260200191505b509250505060405180910390f35b348015620005f557600080fd5b50620006006200144f565b6040518082815260200191505060405180910390f35b3480156200062357600080fd5b5062000644600480360381019080803590602001909291905050506200145c565b6040518085815260200184815260200183815260200180602001828103825283818151815260200191508051906020019080838360005b83811015620006985780820151818401526020810190506200067b565b50505050905090810190601f168015620006c65780820380516001836020036101000a031916815260200191505b509550505050505060405180910390f35b348015620006e457600080fd5b50620006ef62001584565b005b348015620006fe57600080fd5b506200070962001656565b604051808215151515815260200191505060405180910390f35b3480156200073057600080fd5b506200073b62001669565b6040518080602001828103825283818151815260200191508051906020019080838360005b838110156200077d57808201518184015260208101905062000760565b50505050905090810190601f168015620007ab5780820380516001836020036101000a031916815260200191505b509250505060405180910390f35b348015620007c657600080fd5b50620007d16200170b565b6040518080602001828103825283818151815260200191508051906020019080838360005b8381101562000813578082015181840152602081019050620007f6565b50505050905090810190601f168015620008415780820380516001836020036101000a031916815260200191505b509250505060405180910390f35b3480156200085c57600080fd5b5062000867620017ad565b6040518082815260200191505060405180910390f35b3480156200088a57600080fd5b5062000895620017ba565b6040518082815260200191505060405180910390f35b348015620008b857600080fd5b506200093d60048036038101908080359060200190929190803590602001909291908035906020019092919080359060200190929190803590602001908201803590602001908080601f0160208091040260200160405190810160405280939291908181526020018383808284378201915050505050509192919290505050620017c7565b005b3480156200094c57600080fd5b50620009f9600480360381019080803590602001908201803590602001908080601f0160208091040260200160405190810160405280939291908181526020018383808284378201915050505050509192919290803590602001908201803590602001908080601f01602080910402602001604051908101604052809392919081815260200183838082843782019150505050505091929192908035906020019092919050505062001884565b005b34801562000a0857600080fd5b5062000a13620019c2565b6040518082815260200191505060405180910390f35b34801562000a3657600080fd5b5062000a41620019c8565b6040518082815260200191505060405180910390f35b34801562000a6457600080fd5b5062000a8560048036038101908080359060200190929190505050620019ce565b6040518085815260200184815260200183815260200180602001828103825283818151815260200191508051906020019080838360005b8381101562000ad957808201518184015260208101905062000abc565b50505050905090810190601f16801562000b075780820380516001836020036101000a031916815260200191505b509550505050505060405180910390f35b34801562000b2557600080fd5b5062000b3062001af6565b005b34801562000b3f57600080fd5b5062000b4a62001b7a565b6040518082815260200191505060405180910390f35b34801562000b6d57600080fd5b5062000b8e6004803603810190808035906020019092919050505062001b80565b60405180806020018060200185815260200184151515158152602001838103835287818151815260200191508051906020019080838360005b8381101562000be457808201518184015260208101905062000bc7565b50505050905090810190601f16801562000c125780820380516001836020036101000a031916815260200191505b50838103825286818151815260200191508051906020019080838360005b8381101562000c4d57808201518184015260208101905062000c30565b50505050905090810190601f16801562000c7b5780820380516001836020036101000a031916815260200191505b50965050505050505060405180910390f35b34801562000c9a57600080fd5b5062000ca562001d57565b604051808273ffffffffffffffffffffffffffffffffffffffff1673ffffffffffffffffffffffffffffffffffffffff16815260200191505060405180910390f35b34801562000cf457600080fd5b5062000cff62001d7d565b604051808273ffffffffffffffffffffffffffffffffffffffff1673ffffffffffffffffffffffffffffffffffffffff16815260200191505060405180910390f35b34801562000d4e57600080fd5b5062000e37600480360381019080803590602001908201803590602001908080601f0160208091040260200160405190810160405280939291908181526020018383808284378201915050505050509192919290803590602001908201803590602001908080601f0160208091040260200160405190810160405280939291908181526020018383808284378201915050505050509192919290803590602001908201803590602001908080601f016020809104026020016040519081016040528093929190818152602001838380828437820191505050505050919291929050505062001da2565b005b34801562000e4657600080fd5b5062000e5162001fea565b6040518082815260200191505060405180910390f35b6000600a80549050905090565b600660009054906101000a900473ffffffffffffffffffffffffffffffffffffffff1673ffffffffffffffffffffffffffffffffffffffff163373ffffffffffffffffffffffffffffffffffffffff1614151562000ed157600080fd5b80600b60006101000a81548160ff02191690831515021790555050565b600660009054906101000a900473ffffffffffffffffffffffffffffffffffffffff1673ffffffffffffffffffffffffffffffffffffffff163373ffffffffffffffffffffffffffffffffffffffff1614151562000f4b57600080fd5b80600b60016101000a81548160ff02191690831515021790555050565b600260009054906101000a900460ff1681565b6000809054906101000a900473ffffffffffffffffffffffffffffffffffffffff1673ffffffffffffffffffffffffffffffffffffffff163373ffffffffffffffffffffffffffffffffffffffff1614151562000fd757600080fd5b80600260006101000a81548160ff0219169083600481111562000ff657fe5b021790555050565b600b60009054906101000a900460ff1681565b6000600660009054906101000a900473ffffffffffffffffffffffffffffffffffffffff1673ffffffffffffffffffffffffffffffffffffffff163373ffffffffffffffffffffffffffffffffffffffff161415156200107057600080fd5b600e858154811015156200108057fe5b9060005260206000209060040201905083816000019080519060200190620010aa92919062001ff7565b5082816001019080519060200190620010c592919062001ff7565b508181600201819055505050505050565b620010e06200207e565b600660009054906101000a900473ffffffffffffffffffffffffffffffffffffffff1673ffffffffffffffffffffffffffffffffffffffff163373ffffffffffffffffffffffffffffffffffffffff161415156200113d57600080fd5b608060405190810160405280868152602001848152602001858152602001838152509050600a81908060018154018082558091505090600182039060005260206000209060040201600090919290919091506000820151816000015560208201518160010155604082015181600201556060820151816003019080519060200190620011cb929190620020a7565b505050505050505050565b606080600080620011e66200212e565b600e86815481101515620011f657fe5b906000526020600020906004020160806040519081016040529081600082018054600181600116156101000203166002900480601f016020809104026020016040519081016040528092919081815260200182805460018160011615610100020316600290048015620012ad5780601f106200128157610100808354040283529160200191620012ad565b820191906000526020600020905b8154815290600101906020018083116200128f57829003601f168201915b50505050508152602001600182018054600181600116156101000203166002900480601f016020809104026020016040519081016040528092919081815260200182805460018160011615610100020316600290048015620013535780601f10620013275761010080835404028352916020019162001353565b820191906000526020600020905b8154815290600101906020018083116200133557829003601f168201915b50505050508152602001600282015481526020016003820160009054906101000a900460ff161515151581525050905080600001518160200151826040015183606001518393508292509450945094509450509193509193565b60038054600181600116156101000203166002900480601f016020809104026020016040519081016040528092919081815260200182805460018160011615610100020316600290048015620014475780601f106200141b5761010080835404028352916020019162001447565b820191906000526020600020905b8154815290600101906020018083116200142957829003601f168201915b505050505081565b6000600c80549050905090565b600080600060606200146d6200207e565b6009868154811015156200147d57fe5b906000526020600020906004020160806040519081016040529081600082015481526020016001820154815260200160028201548152602001600382018054600181600116156101000203166002900480601f016020809104026020016040519081016040528092919081815260200182805460018160011615610100020316600290048015620015525780601f10620015265761010080835404028352916020019162001552565b820191906000526020600020905b8154815290600101906020018083116200153457829003601f168201915b505050505081525050905080600001518160400151826020015183606001518090509450945094509450509193509193565b600660009054906101000a900473ffffffffffffffffffffffffffffffffffffffff1673ffffffffffffffffffffffffffffffffffffffff163373ffffffffffffffffffffffffffffffffffffffff16141515620015e157600080fd5b6000600c805490501415156200162f57600d600c9080600181540180825580915050906001820390600052602060002001600090919290919091509080546200162c92919062002159565b50505b600e600c9080546200164392919062002159565b50600e600062001654919062002241565b565b600b60019054906101000a900460ff1681565b60058054600181600116156101000203166002900480601f016020809104026020016040519081016040528092919081815260200182805460018160011615610100020316600290048015620017035780601f10620016d75761010080835404028352916020019162001703565b820191906000526020600020905b815481529060010190602001808311620016e557829003601f168201915b505050505081565b60048054600181600116156101000203166002900480601f016020809104026020016040519081016040528092919081815260200182805460018160011615610100020316600290048015620017a55780601f106200177957610100808354040283529160200191620017a5565b820191906000526020600020905b8154815290600101906020018083116200178757829003601f168201915b505050505081565b6000600e80549050905090565b6000600980549050905090565b6000600660009054906101000a900473ffffffffffffffffffffffffffffffffffffffff1673ffffffffffffffffffffffffffffffffffffffff163373ffffffffffffffffffffffffffffffffffffffff161415156200182657600080fd5b600a868154811015156200183657fe5b90600052602060002090600402019050848160000181905550838160020181905550828160010181905550818160030190805190602001906200187b92919062001ff7565b50505050505050565b6200188e6200212e565b600660009054906101000a900473ffffffffffffffffffffffffffffffffffffffff1673ffffffffffffffffffffffffffffffffffffffff163373ffffffffffffffffffffffffffffffffffffffff16141515620018eb57600080fd5b60648211151515620018fc57600080fd5b608060405190810160405280858152602001848152602001838152602001600015158152509050600e819080600181540180825580915050906001820390600052602060002090600402016000909192909190915060008201518160000190805190602001906200196f929190620020a7565b5060208201518160010190805190602001906200198e929190620020a7565b506040820151816002015560608201518160030160006101000a81548160ff02191690831515021790555050505050505050565b60085481565b60015481565b60008060006060620019df6200207e565b600a86815481101515620019ef57fe5b906000526020600020906004020160806040519081016040529081600082015481526020016001820154815260200160028201548152602001600382018054600181600116156101000203166002900480601f01602080910402602001604051908101604052809291908181526020018280546001816001161561010002031660029004801562001ac45780601f1062001a985761010080835404028352916020019162001ac4565b820191906000526020600020905b81548152906001019060200180831162001aa657829003601f168201915b505050505081525050905080600001518160400151826020015183606001518090509450945094509450509193509193565b600660009054906101000a900473ffffffffffffffffffffffffffffffffffffffff1673ffffffffffffffffffffffffffffffffffffffff163373ffffffffffffffffffffffffffffffffffffffff1614151562001b5357600080fd5b600a600990805462001b6792919062002267565b50600a600062001b7891906200230c565b565b60075481565b60608060008062001b906200212e565b600c8681548110151562001ba057fe5b906000526020600020906004020160806040519081016040529081600082018054600181600116156101000203166002900480601f01602080910402602001604051908101604052809291908181526020018280546001816001161561010002031660029004801562001c575780601f1062001c2b5761010080835404028352916020019162001c57565b820191906000526020600020905b81548152906001019060200180831162001c3957829003601f168201915b50505050508152602001600182018054600181600116156101000203166002900480601f01602080910402602001604051908101604052809291908181526020018280546001816001161561010002031660029004801562001cfd5780601f1062001cd15761010080835404028352916020019162001cfd565b820191906000526020600020905b81548152906001019060200180831162001cdf57829003601f168201915b50505050508152602001600282015481526020016003820160009054906101000a900460ff161515151581525050905080600001518160200151826040015183606001518393508292509450945094509450509193509193565b600660009054906101000a900473ffffffffffffffffffffffffffffffffffffffff1681565b6000809054906101000a900473ffffffffffffffffffffffffffffffffffffffff1681565b6000600660009054906101000a900473ffffffffffffffffffffffffffffffffffffffff1673ffffffffffffffffffffffffffffffffffffffff163373ffffffffffffffffffffffffffffffffffffffff1614151562001e0157600080fd5b83838362001e0e62002332565b80806020018060200180602001848103845287818151815260200191508051906020019080838360005b8381101562001e5557808201518184015260208101905062001e38565b50505050905090810190601f16801562001e835780820380516001836020036101000a031916815260200191505b50848103835286818151815260200191508051906020019080838360005b8381101562001ebe57808201518184015260208101905062001ea1565b50505050905090810190601f16801562001eec5780820380516001836020036101000a031916815260200191505b50848103825285818151815260200191508051906020019080838360005b8381101562001f2757808201518184015260208101905062001f0a565b50505050905090810190601f16801562001f555780820380516001836020036101000a031916815260200191505b509650505050505050604051809103906000f08015801562001f7b573d6000803e3d6000fd5b509050600f8190806001815401808255809150509060018203906000526020600020016000909192909190916101000a81548173ffffffffffffffffffffffffffffffffffffffff021916908373ffffffffffffffffffffffffffffffffffffffff1602179055505050505050565b6000600d80549050905090565b828054600181600116156101000203166002900490600052602060002090601f016020900481019282601f106200203a57805160ff19168380011785556200206b565b828001600101855582156200206b579182015b828111156200206a5782518255916020019190600101906200204d565b5b5090506200207a919062002343565b5090565b608060405190810160405280600081526020016000815260200160008152602001606081525090565b828054600181600116156101000203166002900490600052602060002090601f016020900481019282601f10620020ea57805160ff19168380011785556200211b565b828001600101855582156200211b579182015b828111156200211a578251825591602001919060010190620020fd565b5b5090506200212a919062002343565b5090565b6080604051908101604052806060815260200160608152602001600081526020016000151581525090565b8280548282559060005260206000209060040281019282156200222e5760005260206000209160040282015b828111156200222d57828260008201816000019080546001816001161561010002031660029004620021b99291906200236b565b5060018201816001019080546001816001161561010002031660029004620021e39291906200236b565b50600282015481600201556003820160009054906101000a900460ff168160030160006101000a81548160ff02191690831515021790555050509160040191906004019062002185565b5b5090506200223d9190620023f9565b5090565b5080546000825560040290600052602060002090810190620022649190620023f9565b50565b828054828255906000526020600020906004028101928215620022f95760005260206000209160040282015b82811115620022f857828260008201548160000155600182015481600101556002820154816002015560038201816003019080546001816001161561010002031660029004620022e59291906200236b565b5050509160040191906004019062002293565b5b5090506200230891906200245b565b5090565b50805460008255600402906000526020600020908101906200232f91906200245b565b50565b604051610cb280620024f483390190565b6200236891905b80821115620023645760008160009055506001016200234a565b5090565b90565b828054600181600116156101000203166002900490600052602060002090601f016020900481019282601f10620023a65780548555620023e6565b82800160010185558215620023e657600052602060002091601f016020900482015b82811115620023e5578254825591600101919060010190620023c8565b5b509050620023f5919062002343565b5090565b6200245891905b808211156200245457600080820160006200241c9190620024a7565b6001820160006200242e9190620024a7565b60028201600090556003820160006101000a81549060ff02191690555060040162002400565b5090565b90565b620024a491905b80821115620024a05760008082016000905560018201600090556002820160009055600382016000620024969190620024a7565b5060040162002462565b5090565b90565b50805460018160011615610100020316600290046000825580601f10620024cf5750620024f0565b601f016020900490600052602060002090810190620024ef919062002343565b5b505600608060405234801561001057600080fd5b50604051610cb2380380610cb2833981018060405281019080805182019291906020018051820192919060200180518201929190505050826001908051906020019061005d9291906100ef565b5081600290805190602001906100749291906100ef565b50806003908051906020019061008b9291906100ef565b506000600560006101000a81548160ff021916908315150217905550336000806101000a81548173ffffffffffffffffffffffffffffffffffffffff021916908373ffffffffffffffffffffffffffffffffffffffff160217905550505050610194565b828054600181600116156101000203166002900490600052602060002090601f016020900481019282601f1061013057805160ff191683800117855561015e565b8280016001018555821561015e579182015b8281111561015d578251825591602001919060010190610142565b5b50905061016b919061016f565b5090565b61019191905b8082111561018d576000816000905550600101610175565b5090565b90565b610b0f806101a36000396000f300608060405260043610610099576000357c0100000000000000000000000000000000000000000000000000000000900463ffffffff16806367905c0b1461009e5780637c0099541461014d5780638ac68dd8146101dd5780638d66f34814610299578063a04c7e8a146102a3578063b2fa1c9e14610333578063b3752fd014610362578063b7f9d6f71461038d578063f2f80248146103d0575b600080fd5b3480156100aa57600080fd5b5061014b600480360381019080803590602001908201803590602001908080601f0160208091040260200160405190810160405280939291908181526020018383808284378201915050505050509192919290803590602001908201803590602001908080601f0160208091040260200160405190810160405280939291908181526020018383808284378201915050505050509192919290505050610460565b005b34801561015957600080fd5b506101626105a7565b6040518080602001828103825283818151815260200191508051906020019080838360005b838110156101a2578082015181840152602081019050610187565b50505050905090810190601f1680156101cf5780820380516001836020036101000a031916815260200191505b509250505060405180910390f35b3480156101e957600080fd5b5061021e600480360381019080803573ffffffffffffffffffffffffffffffffffffffff169060200190929190505050610645565b6040518080602001828103825283818151815260200191508051906020019080838360005b8381101561025e578082015181840152602081019050610243565b50505050905090810190601f16801561028b5780820380516001836020036101000a031916815260200191505b509250505060405180910390f35b6102a1610726565b005b3480156102af57600080fd5b506102b861078a565b6040518080602001828103825283818151815260200191508051906020019080838360005b838110156102f85780820151818401526020810190506102dd565b50505050905090810190601f1680156103255780820380516001836020036101000a031916815260200191505b509250505060405180910390f35b34801561033f57600080fd5b50610348610828565b604051808215151515815260200191505060405180910390f35b34801561036e57600080fd5b5061037761083b565b6040518082815260200191505060405180910390f35b34801561039957600080fd5b506103ce600480360381019080803573ffffffffffffffffffffffffffffffffffffffff169060200190929190505050610841565b005b3480156103dc57600080fd5b506103e56108e8565b6040518080602001828103825283818151815260200191508051906020019080838360005b8381101561042557808201518184015260208101905061040a565b50505050905090810190601f1680156104525780820380516001836020036101000a031916815260200191505b509250505060405180910390f35b610468610986565b6060604051908101604052803373ffffffffffffffffffffffffffffffffffffffff1681526020018481526020018381525090506006819080600181540180825580915050906001820390600052602060002090600302016000909192909190915060008201518160000160006101000a81548173ffffffffffffffffffffffffffffffffffffffff021916908373ffffffffffffffffffffffffffffffffffffffff160217905550602082015181600101908051906020019061052d9291906109be565b50604082015181600201908051906020019061054a9291906109be565b5050505082600760003373ffffffffffffffffffffffffffffffffffffffff1673ffffffffffffffffffffffffffffffffffffffff16815260200190815260200160002090805190602001906105a1929190610a3e565b50505050565b60038054600181600116156101000203166002900480601f01602080910402602001604051908101604052809291908181526020018280546001816001161561010002031660029004801561063d5780601f106106125761010080835404028352916020019161063d565b820191906000526020600020905b81548152906001019060200180831161062057829003601f168201915b505050505081565b6060600760008373ffffffffffffffffffffffffffffffffffffffff1673ffffffffffffffffffffffffffffffffffffffff1681526020019081526020016000208054600181600116156101000203166002900480601f01602080910402602001604051908101604052809291908181526020018280546001816001161561010002031660029004801561071a5780601f106106ef5761010080835404028352916020019161071a565b820191906000526020600020905b8154815290600101906020018083116106fd57829003601f168201915b50505050509050919050565b6000809054906101000a900473ffffffffffffffffffffffffffffffffffffffff1673ffffffffffffffffffffffffffffffffffffffff163373ffffffffffffffffffffffffffffffffffffffff1614151561078157600080fd5b34600481905550565b60018054600181600116156101000203166002900480601f0160208091040260200160405190810160405280929190818152602001828054600181600116156101000203166002900480156108205780601f106107f557610100808354040283529160200191610820565b820191906000526020600020905b81548152906001019060200180831161080357829003601f168201915b505050505081565b600560009054906101000a900460ff1681565b60045481565b6000809054906101000a900473ffffffffffffffffffffffffffffffffffffffff1673ffffffffffffffffffffffffffffffffffffffff163373ffffffffffffffffffffffffffffffffffffffff1614151561089c57600080fd5b8073ffffffffffffffffffffffffffffffffffffffff166108fc6004549081150290604051600060405180830381858888f193505050501580156108e4573d6000803e3d6000fd5b5050565b60028054600181600116156101000203166002900480601f01602080910402602001604051908101604052809291908181526020018280546001816001161561010002031660029004801561097e5780601f106109535761010080835404028352916020019161097e565b820191906000526020600020905b81548152906001019060200180831161096157829003601f168201915b505050505081565b606060405190810160405280600073ffffffffffffffffffffffffffffffffffffffff16815260200160608152602001606081525090565b828054600181600116156101000203166002900490600052602060002090601f016020900481019282601f106109ff57805160ff1916838001178555610a2d565b82800160010185558215610a2d579182015b82811115610a2c578251825591602001919060010190610a11565b5b509050610a3a9190610abe565b5090565b828054600181600116156101000203166002900490600052602060002090601f016020900481019282601f10610a7f57805160ff1916838001178555610aad565b82800160010185558215610aad579182015b82811115610aac578251825591602001919060010190610a91565b5b509050610aba9190610abe565b5090565b610ae091905b80821115610adc576000816000905550600101610ac4565b5090565b905600a165627a7a723058201f14bb8c7da7bdac52adcc9d49aca77756b73163582cbb9a4bd365acb6a0daba0029a165627a7a72305820848e80920c719f00b1b0c451870c1da57d77a032b4eca86d0f779d3f247c31e80029a165627a7a723058203ca584d356a1a70402801ecbd6e50068e00ab3000decab43e36c7ab8644eb4ae0029",
  "source": "pragma solidity ^0.4.23;\nimport \"./Project.sol\";\nimport \"./SafeMath.sol\";\n\ncontract FundingService {\n\n    using SafeMath for uint256;\n\n    struct Developer {\n        uint id;\n        address addr;\n        string name;\n        mapping(uint => uint) projectIdIndex; // mapping of project id to index in Developer.projectIds\n        uint[] projectIds; // the projects belonging to this developer\n    }\n\n    struct Contributor {\n        address addr;\n        mapping(address => bool) projectExists;\n        address[] activeProjects;\n    }\n\n    address public owner;\n\n    mapping(address => uint) public developerMap; // address => id\n    Developer[] public developers; // indexed by developer id\n\n    mapping(address => Contributor) public contributors;\n\n    mapping(address => mapping(address => uint)) public projectContributionAmount; // project address => (contributor address => contribution amount)\n    mapping(address => address[]) public projectContributorList; // project address => Contributors[]\n\n    mapping(address => uint) public projectMap; // address => id\n    address[] public projects; // indexed by project id\n\n    modifier devRestricted(uint _developerId) {\n        require(developers[_developerId].id == _developerId); // check that developer exists\n        require(msg.sender == developers[_developerId].addr);\n        _;\n    }\n\n    constructor() public {\n        owner = msg.sender;\n\n        // reserve 0\n        developers.length++;\n        projects.push(0);\n    }\n\n    function createDeveloper(string _name) public {\n        require(developerMap[msg.sender] == 0); // require that this account is not already a developer\n\n        Developer memory newDeveloper = Developer({\n            id: developers.length,\n            addr: msg.sender,\n            name: _name,\n            projectIds: new uint[](0)\n            });\n\n        developers.push(newDeveloper);\n        developerMap[msg.sender] = newDeveloper.id;\n    }\n\n    function getDeveloper(uint _id) public view returns (address addr, string name, uint[] projectIds) {\n        require(developers[_id].id == _id); // check that developer exists\n\n        Developer memory dev = developers[_id];\n        return (dev.addr, dev.name, dev.projectIds);\n    }\n\n    function getDevelopers() public view returns (address[]) {\n        address[] memory addresses = new address[](developers.length - 1);\n\n        for (uint i = 1; i < developers.length; i++) {\n            Developer memory developer = developers[i];\n            addresses[i - 1] = (developer.addr);\n        }\n\n        return addresses;\n    }\n\n    function createProject(string _title, string _description, string _about, uint _developerId, uint _contributionGoal) public devRestricted(_developerId) {\n        uint newProjectId = projects.length;\n\n        Project newProject = new Project(this, newProjectId, _title, _description, _about,  msg.sender,  _developerId, _contributionGoal);\n\n        projectMap[newProject] = newProjectId;\n        projects.push(newProject);\n\n        Developer storage dev = developers[_developerId];\n\n        dev.projectIds.push(newProjectId);\n    }\n\n    function submitProjectForReview(uint _projectId, uint _developerId) public devRestricted(_developerId) {\n        address projectAddress = projects[_projectId];\n\n        // check that project exists\n        require(projectAddress != address(0));\n\n        Project project = Project(projectAddress);\n\n        verifyProjectMilestones(project);\n\n        verifyProjectTiers(project);\n\n        // Set project status to \"Pending\"\n        project.setStatus(Project.Status.Pending);\n    }\n\n    function verifyProjectMilestones(address _project) private view {\n        Project project = Project(_project);\n\n        // If project has a timeline, verify:\n        // - Milestones are present\n        // - Milestone percentages add up to 100\n        if (project.noTimeline()) {\n            uint timelineLength = project.getTimelineMilestoneLength();\n\n            require(timelineLength > 0);\n\n            uint percentageAcc = 0;\n            for (uint j = 0; j < timelineLength; j++) {\n                // todo - is there a way to ignore multiple returns?\n                string memory title;\n                string memory description;\n                uint percentage;\n                bool isComplete;\n                (title, description, percentage, isComplete) = project.getTimelineMilestone(j);\n                percentageAcc = percentageAcc.add(percentage);\n            }\n            require(percentageAcc == 100);\n        }\n    }\n\n    function verifyProjectTiers(address _project) private view {\n        Project project = Project(_project);\n\n        // Verify that project has contribution tiers\n        uint tiersLength = project.getTiersLength();\n        require(tiersLength > 0);\n    }\n\n    function getProjects() public view returns (address[]) {\n        address[] memory addresses = new address[](projects.length - 1);\n\n        for (uint i = 1; i < projects.length; i++) {\n            addresses[i - 1] = projects[i];\n        }\n\n        return addresses;\n    }\n\n    function contributeToProject(uint _projectId) public payable {\n        address projectAddress = projects[_projectId];\n\n        require(projectAddress != 0); // check that project exists\n\n        // if contributor doesn't exist, create it\n        if (contributors[msg.sender].addr == 0) {\n            Contributor memory newContributor = Contributor({\n                addr: msg.sender,\n                activeProjects: new address[](0)\n                });\n\n            // add contributor to global contributors mapping\n            contributors[msg.sender] = newContributor;\n        }\n\n        Contributor storage contributor = contributors[msg.sender];\n\n        // if project is not in contributor's project list, add it\n        if (!contributor.projectExists[projectAddress]) {\n            contributor.projectExists[projectAddress] = true;\n            contributor.activeProjects.push(projectAddress);\n        }\n\n        // add to projectContributorList, if not already present\n        if (projectContributionAmount[projectAddress][msg.sender] == 0) {\n            projectContributorList[projectAddress].push(msg.sender);\n        }\n\n        // add contribution amount to project\n        uint currentProjectContributionAmount = projectContributionAmount[projectAddress][msg.sender];\n        projectContributionAmount[projectAddress][msg.sender] = currentProjectContributionAmount.add(msg.value);\n\n        // transfer money to project\n        projectAddress.transfer(msg.value);\n    }\n\n    function getProjectContributorList(address _project) public view returns (address[]) {\n        return projectContributorList[_project];\n    }\n}\n",
  "sourcePath": "/Users/AshTanz/Documents/HyperBridge/funding-protocol/smart-contracts/ethereum/contracts/FundingService.sol",
  "compiler": {
    "name": "solc",
    "version": "0.4.24+commit.e67f0147.Emscripten.clang"
  },
  "schemaVersion": "2.0.0",
  "updatedAt": "2018-06-12T22:47:46.690Z"
}