{
  "contractName": "ProjectRegistration",
  "abi": [
    {
      "inputs": [
        {
          "name": "_fundingStorage",
          "type": "address"
        }
      ],
      "payable": false,
      "stateMutability": "nonpayable",
      "type": "constructor"
    },
    {
      "anonymous": false,
      "inputs": [
        {
          "indexed": false,
          "name": "projectId",
          "type": "uint256"
        }
      ],
      "name": "ProjectCreated",
      "type": "event"
    },
    {
      "constant": false,
      "inputs": [],
      "name": "initialize",
      "outputs": [],
      "payable": false,
      "stateMutability": "nonpayable",
      "type": "function"
    },
    {
      "constant": false,
      "inputs": [
        {
          "name": "_title",
          "type": "string"
        },
        {
          "name": "_description",
          "type": "string"
        },
        {
          "name": "_about",
          "type": "string"
        },
        {
          "name": "_minContributionGoal",
          "type": "uint256"
        },
        {
          "name": "_maxContributionGoal",
          "type": "uint256"
        },
        {
          "name": "_contributionPeriod",
          "type": "uint256"
        },
        {
          "name": "_noRefunds",
          "type": "bool"
        },
        {
          "name": "_noTimeline",
          "type": "bool"
        }
      ],
      "name": "createProject",
      "outputs": [],
      "payable": false,
      "stateMutability": "nonpayable",
      "type": "function"
    },
    {
      "constant": false,
      "inputs": [
        {
          "name": "_projectId",
          "type": "uint256"
        },
        {
          "name": "_title",
          "type": "string"
        },
        {
          "name": "_description",
          "type": "string"
        },
        {
          "name": "_about",
          "type": "string"
        },
        {
          "name": "_minContributionGoal",
          "type": "uint256"
        },
        {
          "name": "_maxContributionGoal",
          "type": "uint256"
        },
        {
          "name": "_contributionPeriod",
          "type": "uint256"
        },
        {
          "name": "_noRefunds",
          "type": "bool"
        },
        {
          "name": "_noTimeline",
          "type": "bool"
        }
      ],
      "name": "editProject",
      "outputs": [],
      "payable": false,
      "stateMutability": "nonpayable",
      "type": "function"
    },
    {
      "constant": true,
      "inputs": [
        {
          "name": "_projectId",
          "type": "uint256"
        }
      ],
      "name": "getProject",
      "outputs": [
        {
          "name": "id",
          "type": "uint256"
        },
        {
          "name": "status",
          "type": "uint256"
        },
        {
          "name": "title",
          "type": "string"
        },
        {
          "name": "description",
          "type": "string"
        },
        {
          "name": "about",
          "type": "string"
        },
        {
          "name": "minContributionGoal",
          "type": "uint256"
        },
        {
          "name": "maxContributionGoal",
          "type": "uint256"
        },
        {
          "name": "contributionPeriod",
          "type": "uint256"
        },
        {
          "name": "noRefunds",
          "type": "bool"
        },
        {
          "name": "noTimeline",
          "type": "bool"
        },
        {
          "name": "developer",
          "type": "address"
        },
        {
          "name": "developerId",
          "type": "uint256"
        }
      ],
      "payable": false,
      "stateMutability": "view",
      "type": "function"
    },
    {
      "constant": false,
      "inputs": [
        {
          "name": "_projectId",
          "type": "uint256"
        }
      ],
      "name": "submitProjectForReview",
      "outputs": [],
      "payable": false,
      "stateMutability": "nonpayable",
      "type": "function"
    },
    {
      "constant": false,
      "inputs": [
        {
          "name": "_projectId",
          "type": "uint256"
        }
      ],
      "name": "beginProjectDevelopment",
      "outputs": [],
      "payable": false,
      "stateMutability": "nonpayable",
      "type": "function"
    }
  ],
  "bytecode": "0x608060405234801561001057600080fd5b506040516020806149c183398101806040528101908080519060200190929190505050806000806101000a81548173ffffffffffffffffffffffffffffffffffffffff021916908373ffffffffffffffffffffffffffffffffffffffff1602179055505061493e806100836000396000f300608060405260043610610078576000357c0100000000000000000000000000000000000000000000000000000000900463ffffffff168063234a40c91461007d578063299430cf146100aa5780632ddff5fb146101555780638129fc1c14610182578063ab72d21a14610199578063f0f3f2c81461023a575b600080fd5b34801561008957600080fd5b506100a86004803603810190808035906020019092919050505061042b565b005b3480156100b657600080fd5b5061015360048036038101908080359060200190929190803590602001908201803590602001919091929391929390803590602001908201803590602001919091929391929390803590602001908201803590602001919091929391929390803590602001909291908035906020019092919080359060200190929190803515159060200190929190803515159060200190929190505050610a6d565b005b34801561016157600080fd5b5061018060048036038101908080359060200190929190505050610f8f565b005b34801561018e57600080fd5b506101976113ed565b005b3480156101a557600080fd5b506102386004803603810190808035906020019082018035906020019190919293919293908035906020019082018035906020019190919293919293908035906020019082018035906020019190919293919293908035906020019092919080359060200190929190803590602001909291908035151590602001909291908035151590602001909291905050506115c0565b005b34801561024657600080fd5b5061026560048036038101908080359060200190929190505050611af6565b604051808d81526020018c81526020018060200180602001806020018b81526020018a815260200189815260200188151515158152602001871515151581526020018673ffffffffffffffffffffffffffffffffffffffff1673ffffffffffffffffffffffffffffffffffffffff16815260200185815260200184810384528e818151815260200191508051906020019080838360005b838110156103175780820151818401526020810190506102fc565b50505050905090810190601f1680156103445780820380516001836020036101000a031916815260200191505b5084810383528d818151815260200191508051906020019080838360005b8381101561037d578082015181840152602081019050610362565b50505050905090810190601f1680156103aa5780820380516001836020036101000a031916815260200191505b5084810382528c818151815260200191508051906020019080838360005b838110156103e35780820151818401526020810190506103c8565b50505050905090810190601f1680156104105780820380516001836020036101000a031916815260200191505b509f5050505050505050505050505050505060405180910390f35b600081610478816000809054906101000a900473ffffffffffffffffffffffffffffffffffffffff1673ffffffffffffffffffffffffffffffffffffffff16611e8390919063ffffffff16565b73ffffffffffffffffffffffffffffffffffffffff163373ffffffffffffffffffffffffffffffffffffffff16141515610540576040517f08c379a00000000000000000000000000000000000000000000000000000000081526004018080602001828103825260398152602001807f596f75206d757374206265207468652070726f6a65637420646576656c6f706581526020017f7220746f20706572666f726d207468697320616374696f6e2e0000000000000081525060400191505060405180910390fd5b826000600681111561054e57fe5b610598826000809054906101000a900473ffffffffffffffffffffffffffffffffffffffff1673ffffffffffffffffffffffffffffffffffffffff16611fe890919063ffffffff16565b60068111156105a357fe5b60068111156105ae57fe5b141515610649576040517f08c379a00000000000000000000000000000000000000000000000000000000081526004018080602001828103825260358152602001807f5468697320616374696f6e2063616e206f6e6c7920626520706572666f726d6581526020017f64206f6e20612064726166742070726f6a6563742e000000000000000000000081525060400191505060405180910390fd5b610693846000809054906101000a900473ffffffffffffffffffffffffffffffffffffffff1673ffffffffffffffffffffffffffffffffffffffff1661214d90919063ffffffff16565b925061069e846122b2565b821515610976576000809054906101000a900473ffffffffffffffffffffffffffffffffffffffff1673ffffffffffffffffffffffffffffffffffffffff1673__ProjectTimelineHelpersLibrary_________637b9ee6589091866040518363ffffffff167c0100000000000000000000000000000000000000000000000000000000028152600401808373ffffffffffffffffffffffffffffffffffffffff1673ffffffffffffffffffffffffffffffffffffffff1681526020018281526020019250505060006040518083038186803b15801561077d57600080fd5b505af4158015610791573d6000803e3d6000fd5b505050506000809054906101000a900473ffffffffffffffffffffffffffffffffffffffff1673ffffffffffffffffffffffffffffffffffffffff1673__ProjectTimelineHelpersLibrary_________6331a26acf9091866040518363ffffffff167c0100000000000000000000000000000000000000000000000000000000028152600401808373ffffffffffffffffffffffffffffffffffffffff1673ffffffffffffffffffffffffffffffffffffffff1681526020018281526020019250505060006040518083038186803b15801561086d57600080fd5b505af4158015610881573d6000803e3d6000fd5b505050506000809054906101000a900473ffffffffffffffffffffffffffffffffffffffff1673ffffffffffffffffffffffffffffffffffffffff1673__ProjectContributionTierHelpersLibrary_636237c6369091866040518363ffffffff167c0100000000000000000000000000000000000000000000000000000000028152600401808373ffffffffffffffffffffffffffffffffffffffff1673ffffffffffffffffffffffffffffffffffffffff1681526020018281526020019250505060006040518083038186803b15801561095d57600080fd5b505af4158015610971573d6000803e3d6000fd5b505050505b6109ce846001600681111561098757fe5b6000809054906101000a900473ffffffffffffffffffffffffffffffffffffffff1673ffffffffffffffffffffffffffffffffffffffff166123a29092919063ffffffff16565b610a1a84426000809054906101000a900473ffffffffffffffffffffffffffffffffffffffff1673ffffffffffffffffffffffffffffffffffffffff166124e79092919063ffffffff16565b610a678460016000809054906101000a900473ffffffffffffffffffffffffffffffffffffffff1673ffffffffffffffffffffffffffffffffffffffff1661262c9092919063ffffffff16565b50505050565b8b610ab8816000809054906101000a900473ffffffffffffffffffffffffffffffffffffffff1673ffffffffffffffffffffffffffffffffffffffff16611e8390919063ffffffff16565b73ffffffffffffffffffffffffffffffffffffffff163373ffffffffffffffffffffffffffffffffffffffff16141515610b80576040517f08c379a00000000000000000000000000000000000000000000000000000000081526004018080602001828103825260398152602001807f596f75206d757374206265207468652070726f6a65637420646576656c6f706581526020017f7220746f20706572666f726d207468697320616374696f6e2e0000000000000081525060400191505060405180910390fd5b8c60006006811115610b8e57fe5b610bd8826000809054906101000a900473ffffffffffffffffffffffffffffffffffffffff1673ffffffffffffffffffffffffffffffffffffffff16611fe890919063ffffffff16565b6006811115610be357fe5b6006811115610bee57fe5b141515610c89576040517f08c379a00000000000000000000000000000000000000000000000000000000081526004018080602001828103825260358152602001807f5468697320616374696f6e2063616e206f6e6c7920626520706572666f726d6581526020017f64206f6e20612064726166742070726f6a6563742e000000000000000000000081525060400191505060405180910390fd5b610d078e8e8e8080601f0160208091040260200160405190810160405280939291908181526020018383808284378201915050505050506000809054906101000a900473ffffffffffffffffffffffffffffffffffffffff1673ffffffffffffffffffffffffffffffffffffffff166127759092919063ffffffff16565b610d858e8c8c8080601f0160208091040260200160405190810160405280939291908181526020018383808284378201915050505050506000809054906101000a900473ffffffffffffffffffffffffffffffffffffffff1673ffffffffffffffffffffffffffffffffffffffff1661291f9092919063ffffffff16565b610e038e8a8a8080601f0160208091040260200160405190810160405280939291908181526020018383808284378201915050505050506000809054906101000a900473ffffffffffffffffffffffffffffffffffffffff1673ffffffffffffffffffffffffffffffffffffffff16612ac99092919063ffffffff16565b610e4f8e886000809054906101000a900473ffffffffffffffffffffffffffffffffffffffff1673ffffffffffffffffffffffffffffffffffffffff16612c739092919063ffffffff16565b610e9b8e876000809054906101000a900473ffffffffffffffffffffffffffffffffffffffff1673ffffffffffffffffffffffffffffffffffffffff16612db89092919063ffffffff16565b610ee78e866000809054906101000a900473ffffffffffffffffffffffffffffffffffffffff1673ffffffffffffffffffffffffffffffffffffffff16612efd9092919063ffffffff16565b610f338e856000809054906101000a900473ffffffffffffffffffffffffffffffffffffffff1673ffffffffffffffffffffffffffffffffffffffff166130429092919063ffffffff16565b610f7f8e846000809054906101000a900473ffffffffffffffffffffffffffffffffffffffff1673ffffffffffffffffffffffffffffffffffffffff1661318b9092919063ffffffff16565b5050505050505050505050505050565b60008082610fdd816000809054906101000a900473ffffffffffffffffffffffffffffffffffffffff1673ffffffffffffffffffffffffffffffffffffffff16611e8390919063ffffffff16565b73ffffffffffffffffffffffffffffffffffffffff163373ffffffffffffffffffffffffffffffffffffffff161415156110a5576040517f08c379a00000000000000000000000000000000000000000000000000000000081526004018080602001828103825260398152602001807f596f75206d757374206265207468652070726f6a65637420646576656c6f706581526020017f7220746f20706572666f726d207468697320616374696f6e2e0000000000000081525060400191505060405180910390fd5b600260068111156110b257fe5b6110fc856000809054906101000a900473ffffffffffffffffffffffffffffffffffffffff1673ffffffffffffffffffffffffffffffffffffffff16611fe890919063ffffffff16565b141515611197576040517f08c379a00000000000000000000000000000000000000000000000000000000081526004018080602001828103825260368152602001807f546869732070726f6a656374206973206e6f742063757272656e746c7920616381526020017f63657074696e6720636f6e747269627574696f6e732e0000000000000000000081525060400191505060405180910390fd5b6111e1846000809054906101000a900473ffffffffffffffffffffffffffffffffffffffff1673ffffffffffffffffffffffffffffffffffffffff166132d490919063ffffffff16565b925061122d846000809054906101000a900473ffffffffffffffffffffffffffffffffffffffff1673ffffffffffffffffffffffffffffffffffffffff1661343990919063ffffffff16565b9150818310151561138e57611290846003600681111561124957fe5b6000809054906101000a900473ffffffffffffffffffffffffffffffffffffffff1673ffffffffffffffffffffffffffffffffffffffff166123a29092919063ffffffff16565b6000809054906101000a900473ffffffffffffffffffffffffffffffffffffffff1673ffffffffffffffffffffffffffffffffffffffff1673__ProjectTimelineHelpersLibrary_________633a8bbae590918660006040518463ffffffff167c0100000000000000000000000000000000000000000000000000000000028152600401808473ffffffffffffffffffffffffffffffffffffffff1673ffffffffffffffffffffffffffffffffffffffff168152602001838152602001828152602001935050505060006040518083038186803b15801561137157600080fd5b505af4158015611385573d6000803e3d6000fd5b505050506113e7565b6113e6846004600681111561139f57fe5b6000809054906101000a900473ffffffffffffffffffffffffffffffffffffffff1673ffffffffffffffffffffffffffffffffffffffff166123a29092919063ffffffff16565b5b50505050565b6000809054906101000a900473ffffffffffffffffffffffffffffffffffffffff1673ffffffffffffffffffffffffffffffffffffffff1663043c2677306040518263ffffffff167c0100000000000000000000000000000000000000000000000000000000028152600401808273ffffffffffffffffffffffffffffffffffffffff1673ffffffffffffffffffffffffffffffffffffffff168152602001915050602060405180830381600087803b1580156114a957600080fd5b505af11580156114bd573d6000803e3d6000fd5b505050506040513d60208110156114d357600080fd5b8101908080519060200190929190505050151561157e576040517f08c379a00000000000000000000000000000000000000000000000000000000081526004018080602001828103825260328152602001807f5468697320636f6e7472616374206973206e6f7420726567697374657265642081526020017f696e2046756e64696e6753746f726167652e000000000000000000000000000081525060400191505060405180910390fd5b6115be6000809054906101000a900473ffffffffffffffffffffffffffffffffffffffff1673ffffffffffffffffffffffffffffffffffffffff1661359e565b565b60008061160d336000809054906101000a900473ffffffffffffffffffffffffffffffffffffffff1673ffffffffffffffffffffffffffffffffffffffff1661375c90919063ffffffff16565b915060008214151515611688576040517f08c379a00000000000000000000000000000000000000000000000000000000081526004018080602001828103825260208152602001807f546869732061646472657373206973206e6f74206120646576656c6f7065722e81525060200191505060405180910390fd5b6116c86000809054906101000a900473ffffffffffffffffffffffffffffffffffffffff1673ffffffffffffffffffffffffffffffffffffffff166138fc565b905061172281600060068111156116db57fe5b6000809054906101000a900473ffffffffffffffffffffffffffffffffffffffff1673ffffffffffffffffffffffffffffffffffffffff166123a29092919063ffffffff16565b6117a0818e8e8080601f0160208091040260200160405190810160405280939291908181526020018383808284378201915050505050506000809054906101000a900473ffffffffffffffffffffffffffffffffffffffff1673ffffffffffffffffffffffffffffffffffffffff166127759092919063ffffffff16565b61181e818c8c8080601f0160208091040260200160405190810160405280939291908181526020018383808284378201915050505050506000809054906101000a900473ffffffffffffffffffffffffffffffffffffffff1673ffffffffffffffffffffffffffffffffffffffff1661291f9092919063ffffffff16565b61189c818a8a8080601f0160208091040260200160405190810160405280939291908181526020018383808284378201915050505050506000809054906101000a900473ffffffffffffffffffffffffffffffffffffffff1673ffffffffffffffffffffffffffffffffffffffff16612ac99092919063ffffffff16565b6118e881886000809054906101000a900473ffffffffffffffffffffffffffffffffffffffff1673ffffffffffffffffffffffffffffffffffffffff16612c739092919063ffffffff16565b61193481876000809054906101000a900473ffffffffffffffffffffffffffffffffffffffff1673ffffffffffffffffffffffffffffffffffffffff16612db89092919063ffffffff16565b61198081866000809054906101000a900473ffffffffffffffffffffffffffffffffffffffff1673ffffffffffffffffffffffffffffffffffffffff16612efd9092919063ffffffff16565b6119cc81856000809054906101000a900473ffffffffffffffffffffffffffffffffffffffff1673ffffffffffffffffffffffffffffffffffffffff166130429092919063ffffffff16565b611a1881846000809054906101000a900473ffffffffffffffffffffffffffffffffffffffff1673ffffffffffffffffffffffffffffffffffffffff1661318b9092919063ffffffff16565b611a6481336000809054906101000a900473ffffffffffffffffffffffffffffffffffffffff1673ffffffffffffffffffffffffffffffffffffffff1661391c9092919063ffffffff16565b611ab081836000809054906101000a900473ffffffffffffffffffffffffffffffffffffffff1673ffffffffffffffffffffffffffffffffffffffff16613a8d9092919063ffffffff16565b7f1ac2092e16e28eef29d1832f3dc69da1b21284a1f3159d3b26cb238b22fe4f8a816040518082815260200191505060405180910390a150505050505050505050505050565b600080606080606060008060008060008060008c9b50611b568d6000809054906101000a900473ffffffffffffffffffffffffffffffffffffffff1673ffffffffffffffffffffffffffffffffffffffff16611fe890919063ffffffff16565b9a50611ba28d6000809054906101000a900473ffffffffffffffffffffffffffffffffffffffff1673ffffffffffffffffffffffffffffffffffffffff16613bd290919063ffffffff16565b9950611bee8d6000809054906101000a900473ffffffffffffffffffffffffffffffffffffffff1673ffffffffffffffffffffffffffffffffffffffff16613d8d90919063ffffffff16565b9850611c3a8d6000809054906101000a900473ffffffffffffffffffffffffffffffffffffffff1673ffffffffffffffffffffffffffffffffffffffff16613f4890919063ffffffff16565b9750611c868d6000809054906101000a900473ffffffffffffffffffffffffffffffffffffffff1673ffffffffffffffffffffffffffffffffffffffff1661343990919063ffffffff16565b9650611cd28d6000809054906101000a900473ffffffffffffffffffffffffffffffffffffffff1673ffffffffffffffffffffffffffffffffffffffff1661410390919063ffffffff16565b9550611d1e8d6000809054906101000a900473ffffffffffffffffffffffffffffffffffffffff1673ffffffffffffffffffffffffffffffffffffffff1661426890919063ffffffff16565b9450611d6a8d6000809054906101000a900473ffffffffffffffffffffffffffffffffffffffff1673ffffffffffffffffffffffffffffffffffffffff16611e8390919063ffffffff16565b9150611db68d6000809054906101000a900473ffffffffffffffffffffffffffffffffffffffff1673ffffffffffffffffffffffffffffffffffffffff166143cd90919063ffffffff16565b9350611e028d6000809054906101000a900473ffffffffffffffffffffffffffffffffffffffff1673ffffffffffffffffffffffffffffffffffffffff1661214d90919063ffffffff16565b9250611e4e8d6000809054906101000a900473ffffffffffffffffffffffffffffffffffffffff1673ffffffffffffffffffffffffffffffffffffffff1661453290919063ffffffff16565b90508b8b8b8b8b8b8b8b8b8b8b8b9b509b509b509b509b509b509b509b509b509b509b509b5091939597999b5091939597999b565b60008273ffffffffffffffffffffffffffffffffffffffff166321f8a7218360405160200180807f70726f6a6563742e646576656c6f7065720000000000000000000000000000008152506011018281526020019150506040516020818303038152906040526040518082805190602001908083835b602083101515611f1e5780518252602082019150602081019050602083039250611ef9565b6001836020036101000a03801982511681845116808217855250505050505090500191505060405180910390206040518263ffffffff167c0100000000000000000000000000000000000000000000000000000000028152600401808260001916600019168152602001915050602060405180830381600087803b158015611fa557600080fd5b505af1158015611fb9573d6000803e3d6000fd5b505050506040513d6020811015611fcf57600080fd5b8101908080519060200190929190505050905092915050565b60008273ffffffffffffffffffffffffffffffffffffffff1663bd02d0f58360405160200180807f70726f6a6563742e737461747573000000000000000000000000000000000000815250600e018281526020019150506040516020818303038152906040526040518082805190602001908083835b602083101515612083578051825260208201915060208101905060208303925061205e565b6001836020036101000a03801982511681845116808217855250505050505090500191505060405180910390206040518263ffffffff167c0100000000000000000000000000000000000000000000000000000000028152600401808260001916600019168152602001915050602060405180830381600087803b15801561210a57600080fd5b505af115801561211e573d6000803e3d6000fd5b505050506040513d602081101561213457600080fd5b8101908080519060200190929190505050905092915050565b60008273ffffffffffffffffffffffffffffffffffffffff16637ae1cfca8360405160200180807f70726f6a6563742e6e6f54696d656c696e6500000000000000000000000000008152506012018281526020019150506040516020818303038152906040526040518082805190602001908083835b6020831015156121e857805182526020820191506020810190506020830392506121c3565b6001836020036101000a03801982511681845116808217855250505050505090500191505060405180910390206040518263ffffffff167c0100000000000000000000000000000000000000000000000000000000028152600401808260001916600019168152602001915050602060405180830381600087803b15801561226f57600080fd5b505af1158015612283573d6000803e3d6000fd5b505050506040513d602081101561229957600080fd5b8101908080519060200190929190505050905092915050565b60006122fe826000809054906101000a900473ffffffffffffffffffffffffffffffffffffffff1673ffffffffffffffffffffffffffffffffffffffff1661469790919063ffffffff16565b905060008111151561239e576040517f08c379a00000000000000000000000000000000000000000000000000000000081526004018080602001828103825260228152602001807f50726f6a65637420686173206e6f20636f6e747269627574696f6e207469657281526020017f732e00000000000000000000000000000000000000000000000000000000000081525060400191505060405180910390fd5b5050565b8273ffffffffffffffffffffffffffffffffffffffff1663e2a4853a8360405160200180807f70726f6a6563742e737461747573000000000000000000000000000000000000815250600e018281526020019150506040516020818303038152906040526040518082805190602001908083835b60208310151561243b5780518252602082019150602081019050602083039250612416565b6001836020036101000a0380198251168184511680821785525050505050509050019150506040518091039020836040518363ffffffff167c010000000000000000000000000000000000000000000000000000000002815260040180836000191660001916815260200182815260200192505050600060405180830381600087803b1580156124ca57600080fd5b505af11580156124de573d6000803e3d6000fd5b50505050505050565b8273ffffffffffffffffffffffffffffffffffffffff1663e2a4853a8360405160200180807f6375726174696f6e2e64726166744375726174696f6e2e74696d657374616d708152506020018281526020019150506040516020818303038152906040526040518082805190602001908083835b602083101515612580578051825260208201915060208101905060208303925061255b565b6001836020036101000a0380198251168184511680821785525050505050509050019150506040518091039020836040518363ffffffff167c010000000000000000000000000000000000000000000000000000000002815260040180836000191660001916815260200182815260200192505050600060405180830381600087803b15801561260f57600080fd5b505af1158015612623573d6000803e3d6000fd5b50505050505050565b8273ffffffffffffffffffffffffffffffffffffffff1663abfdcced8360405160200180807f6375726174696f6e2e64726166744375726174696f6e2e697341637469766500815250601f018281526020019150506040516020818303038152906040526040518082805190602001908083835b6020831015156126c557805182526020820191506020810190506020830392506126a0565b6001836020036101000a0380198251168184511680821785525050505050509050019150506040518091039020836040518363ffffffff167c01000000000000000000000000000000000000000000000000000000000281526004018083600019166000191681526020018215151515815260200192505050600060405180830381600087803b15801561275857600080fd5b505af115801561276c573d6000803e3d6000fd5b50505050505050565b8273ffffffffffffffffffffffffffffffffffffffff16636e8995508360405160200180807f70726f6a6563742e7469746c6500000000000000000000000000000000000000815250600d018281526020019150506040516020818303038152906040526040518082805190602001908083835b60208310151561280e57805182526020820191506020810190506020830392506127e9565b6001836020036101000a0380198251168184511680821785525050505050509050019150506040518091039020836040518363ffffffff167c010000000000000000000000000000000000000000000000000000000002815260040180836000191660001916815260200180602001828103825283818151815260200191508051906020019080838360005b838110156128b557808201518184015260208101905061289a565b50505050905090810190601f1680156128e25780820380516001836020036101000a031916815260200191505b509350505050600060405180830381600087803b15801561290257600080fd5b505af1158015612916573d6000803e3d6000fd5b50505050505050565b8273ffffffffffffffffffffffffffffffffffffffff16636e8995508360405160200180807f70726f6a6563742e6465736372697074696f6e000000000000000000000000008152506013018281526020019150506040516020818303038152906040526040518082805190602001908083835b6020831015156129b85780518252602082019150602081019050602083039250612993565b6001836020036101000a0380198251168184511680821785525050505050509050019150506040518091039020836040518363ffffffff167c010000000000000000000000000000000000000000000000000000000002815260040180836000191660001916815260200180602001828103825283818151815260200191508051906020019080838360005b83811015612a5f578082015181840152602081019050612a44565b50505050905090810190601f168015612a8c5780820380516001836020036101000a031916815260200191505b509350505050600060405180830381600087803b158015612aac57600080fd5b505af1158015612ac0573d6000803e3d6000fd5b50505050505050565b8273ffffffffffffffffffffffffffffffffffffffff16636e8995508360405160200180807f70726f6a6563742e61626f757400000000000000000000000000000000000000815250600d018281526020019150506040516020818303038152906040526040518082805190602001908083835b602083101515612b625780518252602082019150602081019050602083039250612b3d565b6001836020036101000a0380198251168184511680821785525050505050509050019150506040518091039020836040518363ffffffff167c010000000000000000000000000000000000000000000000000000000002815260040180836000191660001916815260200180602001828103825283818151815260200191508051906020019080838360005b83811015612c09578082015181840152602081019050612bee565b50505050905090810190601f168015612c365780820380516001836020036101000a031916815260200191505b509350505050600060405180830381600087803b158015612c5657600080fd5b505af1158015612c6a573d6000803e3d6000fd5b50505050505050565b8273ffffffffffffffffffffffffffffffffffffffff1663e2a4853a8360405160200180807f70726f6a6563742e6d696e436f6e747269627574696f6e476f616c0000000000815250601b018281526020019150506040516020818303038152906040526040518082805190602001908083835b602083101515612d0c5780518252602082019150602081019050602083039250612ce7565b6001836020036101000a0380198251168184511680821785525050505050509050019150506040518091039020836040518363ffffffff167c010000000000000000000000000000000000000000000000000000000002815260040180836000191660001916815260200182815260200192505050600060405180830381600087803b158015612d9b57600080fd5b505af1158015612daf573d6000803e3d6000fd5b50505050505050565b8273ffffffffffffffffffffffffffffffffffffffff1663e2a4853a8360405160200180807f70726f6a6563742e6d6178436f6e747269627574696f6e476f616c0000000000815250601b018281526020019150506040516020818303038152906040526040518082805190602001908083835b602083101515612e515780518252602082019150602081019050602083039250612e2c565b6001836020036101000a0380198251168184511680821785525050505050509050019150506040518091039020836040518363ffffffff167c010000000000000000000000000000000000000000000000000000000002815260040180836000191660001916815260200182815260200192505050600060405180830381600087803b158015612ee057600080fd5b505af1158015612ef4573d6000803e3d6000fd5b50505050505050565b8273ffffffffffffffffffffffffffffffffffffffff1663e2a4853a8360405160200180807f70726f6a6563742e636f6e747269627574696f6e506572696f64000000000000815250601a018281526020019150506040516020818303038152906040526040518082805190602001908083835b602083101515612f965780518252602082019150602081019050602083039250612f71565b6001836020036101000a0380198251168184511680821785525050505050509050019150506040518091039020836040518363ffffffff167c010000000000000000000000000000000000000000000000000000000002815260040180836000191660001916815260200182815260200192505050600060405180830381600087803b15801561302557600080fd5b505af1158015613039573d6000803e3d6000fd5b50505050505050565b8273ffffffffffffffffffffffffffffffffffffffff1663abfdcced8360405160200180807f70726f6a6563742e6e6f526566756e64730000000000000000000000000000008152506011018281526020019150506040516020818303038152906040526040518082805190602001908083835b6020831015156130db57805182526020820191506020810190506020830392506130b6565b6001836020036101000a0380198251168184511680821785525050505050509050019150506040518091039020836040518363ffffffff167c01000000000000000000000000000000000000000000000000000000000281526004018083600019166000191681526020018215151515815260200192505050600060405180830381600087803b15801561316e57600080fd5b505af1158015613182573d6000803e3d6000fd5b50505050505050565b8273ffffffffffffffffffffffffffffffffffffffff1663abfdcced8360405160200180807f70726f6a6563742e6e6f54696d656c696e6500000000000000000000000000008152506012018281526020019150506040516020818303038152906040526040518082805190602001908083835b60208310151561322457805182526020820191506020810190506020830392506131ff565b6001836020036101000a0380198251168184511680821785525050505050509050019150506040518091039020836040518363ffffffff167c01000000000000000000000000000000000000000000000000000000000281526004018083600019166000191681526020018215151515815260200192505050600060405180830381600087803b1580156132b757600080fd5b505af11580156132cb573d6000803e3d6000fd5b50505050505050565b60008273ffffffffffffffffffffffffffffffffffffffff1663bd02d0f58360405160200180807f636f6e747269627574696f6e2e66756e647352616973656400000000000000008152506018018281526020019150506040516020818303038152906040526040518082805190602001908083835b60208310151561336f578051825260208201915060208101905060208303925061334a565b6001836020036101000a03801982511681845116808217855250505050505090500191505060405180910390206040518263ffffffff167c0100000000000000000000000000000000000000000000000000000000028152600401808260001916600019168152602001915050602060405180830381600087803b1580156133f657600080fd5b505af115801561340a573d6000803e3d6000fd5b505050506040513d602081101561342057600080fd5b8101908080519060200190929190505050905092915050565b60008273ffffffffffffffffffffffffffffffffffffffff1663bd02d0f58360405160200180807f70726f6a6563742e6d696e436f6e747269627574696f6e476f616c0000000000815250601b018281526020019150506040516020818303038152906040526040518082805190602001908083835b6020831015156134d457805182526020820191506020810190506020830392506134af565b6001836020036101000a03801982511681845116808217855250505050505090500191505060405180910390206040518263ffffffff167c0100000000000000000000000000000000000000000000000000000000028152600401808260001916600019168152602001915050602060405180830381600087803b15801561355b57600080fd5b505af115801561356f573d6000803e3d6000fd5b505050506040513d602081101561358557600080fd5b8101908080519060200190929190505050905092915050565b60008173ffffffffffffffffffffffffffffffffffffffff1663bd02d0f560405180807f70726f6a6563742e6e6578744964000000000000000000000000000000000000815250600e01905060405180910390206040518263ffffffff167c0100000000000000000000000000000000000000000000000000000000028152600401808260001916600019168152602001915050602060405180830381600087803b15801561364c57600080fd5b505af1158015613660573d6000803e3d6000fd5b505050506040513d602081101561367657600080fd5b810190808051906020019092919050505090508173ffffffffffffffffffffffffffffffffffffffff1663e2a4853a60405180807f70726f6a6563742e6e6578744964000000000000000000000000000000000000815250600e0190506040518091039020600184016040518363ffffffff167c010000000000000000000000000000000000000000000000000000000002815260040180836000191660001916815260200182815260200192505050600060405180830381600087803b15801561374057600080fd5b505af1158015613754573d6000803e3d6000fd5b505050505050565b60008273ffffffffffffffffffffffffffffffffffffffff1663bd02d0f58360405160200180807f646576656c6f7065722e646576656c6f7065724d6170000000000000000000008152506016018273ffffffffffffffffffffffffffffffffffffffff1673ffffffffffffffffffffffffffffffffffffffff166c010000000000000000000000000281526014019150506040516020818303038152906040526040518082805190602001908083835b602083101515613832578051825260208201915060208101905060208303925061380d565b6001836020036101000a03801982511681845116808217855250505050505090500191505060405180910390206040518263ffffffff167c0100000000000000000000000000000000000000000000000000000000028152600401808260001916600019168152602001915050602060405180830381600087803b1580156138b957600080fd5b505af11580156138cd573d6000803e3d6000fd5b505050506040513d60208110156138e357600080fd5b8101908080519060200190929190505050905092915050565b60008061390883614822565b90506139138361359e565b80915050919050565b8273ffffffffffffffffffffffffffffffffffffffff1663ca446dd98360405160200180807f70726f6a6563742e646576656c6f7065720000000000000000000000000000008152506011018281526020019150506040516020818303038152906040526040518082805190602001908083835b6020831015156139b55780518252602082019150602081019050602083039250613990565b6001836020036101000a0380198251168184511680821785525050505050509050019150506040518091039020836040518363ffffffff167c01000000000000000000000000000000000000000000000000000000000281526004018083600019166000191681526020018273ffffffffffffffffffffffffffffffffffffffff1673ffffffffffffffffffffffffffffffffffffffff16815260200192505050600060405180830381600087803b158015613a7057600080fd5b505af1158015613a84573d6000803e3d6000fd5b50505050505050565b8273ffffffffffffffffffffffffffffffffffffffff1663e2a4853a8360405160200180807f70726f6a6563742e646576656c6f7065724964000000000000000000000000008152506013018281526020019150506040516020818303038152906040526040518082805190602001908083835b602083101515613b265780518252602082019150602081019050602083039250613b01565b6001836020036101000a0380198251168184511680821785525050505050509050019150506040518091039020836040518363ffffffff167c010000000000000000000000000000000000000000000000000000000002815260040180836000191660001916815260200182815260200192505050600060405180830381600087803b158015613bb557600080fd5b505af1158015613bc9573d6000803e3d6000fd5b50505050505050565b60608273ffffffffffffffffffffffffffffffffffffffff1663986e791a8360405160200180807f70726f6a6563742e7469746c6500000000000000000000000000000000000000815250600d018281526020019150506040516020818303038152906040526040518082805190602001908083835b602083101515613c6d5780518252602082019150602081019050602083039250613c48565b6001836020036101000a03801982511681845116808217855250505050505090500191505060405180910390206040518263ffffffff167c0100000000000000000000000000000000000000000000000000000000028152600401808260001916600019168152602001915050600060405180830381600087803b158015613cf457600080fd5b505af1158015613d08573d6000803e3d6000fd5b505050506040513d6000823e3d601f19601f820116820180604052506020811015613d3257600080fd5b810190808051640100000000811115613d4a57600080fd5b82810190506020810184811115613d6057600080fd5b8151856001820283011164010000000082111715613d7d57600080fd5b5050929190505050905092915050565b60608273ffffffffffffffffffffffffffffffffffffffff1663986e791a8360405160200180807f70726f6a6563742e6465736372697074696f6e000000000000000000000000008152506013018281526020019150506040516020818303038152906040526040518082805190602001908083835b602083101515613e285780518252602082019150602081019050602083039250613e03565b6001836020036101000a03801982511681845116808217855250505050505090500191505060405180910390206040518263ffffffff167c0100000000000000000000000000000000000000000000000000000000028152600401808260001916600019168152602001915050600060405180830381600087803b158015613eaf57600080fd5b505af1158015613ec3573d6000803e3d6000fd5b505050506040513d6000823e3d601f19601f820116820180604052506020811015613eed57600080fd5b810190808051640100000000811115613f0557600080fd5b82810190506020810184811115613f1b57600080fd5b8151856001820283011164010000000082111715613f3857600080fd5b5050929190505050905092915050565b60608273ffffffffffffffffffffffffffffffffffffffff1663986e791a8360405160200180807f70726f6a6563742e61626f757400000000000000000000000000000000000000815250600d018281526020019150506040516020818303038152906040526040518082805190602001908083835b602083101515613fe35780518252602082019150602081019050602083039250613fbe565b6001836020036101000a03801982511681845116808217855250505050505090500191505060405180910390206040518263ffffffff167c0100000000000000000000000000000000000000000000000000000000028152600401808260001916600019168152602001915050600060405180830381600087803b15801561406a57600080fd5b505af115801561407e573d6000803e3d6000fd5b505050506040513d6000823e3d601f19601f8201168201806040525060208110156140a857600080fd5b8101908080516401000000008111156140c057600080fd5b828101905060208101848111156140d657600080fd5b81518560018202830111640100000000821117156140f357600080fd5b5050929190505050905092915050565b60008273ffffffffffffffffffffffffffffffffffffffff1663bd02d0f58360405160200180807f70726f6a6563742e6d6178436f6e747269627574696f6e476f616c0000000000815250601b018281526020019150506040516020818303038152906040526040518082805190602001908083835b60208310151561419e5780518252602082019150602081019050602083039250614179565b6001836020036101000a03801982511681845116808217855250505050505090500191505060405180910390206040518263ffffffff167c0100000000000000000000000000000000000000000000000000000000028152600401808260001916600019168152602001915050602060405180830381600087803b15801561422557600080fd5b505af1158015614239573d6000803e3d6000fd5b505050506040513d602081101561424f57600080fd5b8101908080519060200190929190505050905092915050565b60008273ffffffffffffffffffffffffffffffffffffffff1663bd02d0f58360405160200180807f70726f6a6563742e636f6e747269627574696f6e506572696f64000000000000815250601a018281526020019150506040516020818303038152906040526040518082805190602001908083835b60208310151561430357805182526020820191506020810190506020830392506142de565b6001836020036101000a03801982511681845116808217855250505050505090500191505060405180910390206040518263ffffffff167c0100000000000000000000000000000000000000000000000000000000028152600401808260001916600019168152602001915050602060405180830381600087803b15801561438a57600080fd5b505af115801561439e573d6000803e3d6000fd5b505050506040513d60208110156143b457600080fd5b8101908080519060200190929190505050905092915050565b60008273ffffffffffffffffffffffffffffffffffffffff16637ae1cfca8360405160200180807f70726f6a6563742e6e6f526566756e64730000000000000000000000000000008152506011018281526020019150506040516020818303038152906040526040518082805190602001908083835b6020831015156144685780518252602082019150602081019050602083039250614443565b6001836020036101000a03801982511681845116808217855250505050505090500191505060405180910390206040518263ffffffff167c0100000000000000000000000000000000000000000000000000000000028152600401808260001916600019168152602001915050602060405180830381600087803b1580156144ef57600080fd5b505af1158015614503573d6000803e3d6000fd5b505050506040513d602081101561451957600080fd5b8101908080519060200190929190505050905092915050565b60008273ffffffffffffffffffffffffffffffffffffffff1663bd02d0f58360405160200180807f70726f6a6563742e646576656c6f7065724964000000000000000000000000008152506013018281526020019150506040516020818303038152906040526040518082805190602001908083835b6020831015156145cd57805182526020820191506020810190506020830392506145a8565b6001836020036101000a03801982511681845116808217855250505050505090500191505060405180910390206040518263ffffffff167c0100000000000000000000000000000000000000000000000000000000028152600401808260001916600019168152602001915050602060405180830381600087803b15801561465457600080fd5b505af1158015614668573d6000803e3d6000fd5b505050506040513d602081101561467e57600080fd5b8101908080519060200190929190505050905092915050565b60008273ffffffffffffffffffffffffffffffffffffffff1663bd02d0f58360405160200180807f70726f6a6563742e70656e64696e67436f6e747269627574696f6e546965727381526020017f2e6c656e677468000000000000000000000000000000000000000000000000008152506027018281526020019150506040516020818303038152906040526040518082805190602001908083835b6020831015156147585780518252602082019150602081019050602083039250614733565b6001836020036101000a03801982511681845116808217855250505050505090500191505060405180910390206040518263ffffffff167c0100000000000000000000000000000000000000000000000000000000028152600401808260001916600019168152602001915050602060405180830381600087803b1580156147df57600080fd5b505af11580156147f3573d6000803e3d6000fd5b505050506040513d602081101561480957600080fd5b8101908080519060200190929190505050905092915050565b60008173ffffffffffffffffffffffffffffffffffffffff1663bd02d0f560405180807f70726f6a6563742e6e6578744964000000000000000000000000000000000000815250600e01905060405180910390206040518263ffffffff167c0100000000000000000000000000000000000000000000000000000000028152600401808260001916600019168152602001915050602060405180830381600087803b1580156148d057600080fd5b505af11580156148e4573d6000803e3d6000fd5b505050506040513d60208110156148fa57600080fd5b810190808051906020019092919050505090509190505600a165627a7a7230582097d1350800f9be49b23e9f4a7ff54cf5698caf91ffc4b7eff8d8e0a64fb3aab50029",
  "source": "pragma solidity ^0.4.24;\n\nimport \"../FundingStorage.sol\";\nimport \"./ProjectBase.sol\";\nimport \"../libraries/storage/CurationStorageAccess.sol\";\nimport \"../libraries/ProjectTimelineHelpersLibrary.sol\";\nimport \"../libraries/ProjectContributionTierHelpersLibrary.sol\";\n\ncontract ProjectRegistration is ProjectBase {\n\n    using ProjectTimelineHelpersLibrary for address;\n    using ProjectContributionTierHelpersLibrary for address;\n    using CurationStorageAccess for address;\n\n    event ProjectCreated(uint projectId);\n\n    constructor(address _fundingStorage) public {\n        fundingStorage = _fundingStorage;\n    }\n\n    function initialize() external {\n        require(FundingStorage(fundingStorage).getContractIsValid(this), \"This contract is not registered in FundingStorage.\");\n\n        // reserve projectId 0\n        fundingStorage.incrementNextProjectId();\n    }\n\n    function createProject(\n        string _title,\n        string _description,\n        string _about,\n        uint _minContributionGoal,\n        uint _maxContributionGoal,\n        uint _contributionPeriod,\n        bool _noRefunds,\n        bool _noTimeline\n    )\n        external\n    {\n        // Verify that sender is a developer\n        uint developerId = fundingStorage.getDeveloperId(msg.sender);\n        require(developerId != 0, \"This address is not a developer.\");\n\n        // Get next ID from storage + increment next ID\n        uint projectId = fundingStorage.generateNewProjectId();\n\n        // Set new project attributes\n        fundingStorage.setProjectStatus(projectId, uint(Status.Draft));\n        fundingStorage.setProjectTitle(projectId, _title);\n        fundingStorage.setProjectDescription(projectId, _description);\n        fundingStorage.setProjectAbout(projectId, _about);\n        fundingStorage.setProjectMinContributionGoal(projectId, _minContributionGoal);\n        fundingStorage.setProjectMaxContributionGoal(projectId, _maxContributionGoal);\n        fundingStorage.setProjectContributionPeriod(projectId, _contributionPeriod);\n        fundingStorage.setProjectNoRefunds(projectId, _noRefunds);\n        fundingStorage.setProjectNoTimeline(projectId, _noTimeline);\n        fundingStorage.setProjectDeveloper(projectId, msg.sender);\n        fundingStorage.setProjectDeveloperId(projectId, developerId);\n\n        emit ProjectCreated(projectId);\n    }\n\n    function editProject(\n        uint _projectId,\n        string _title,\n        string _description,\n        string _about,\n        uint _minContributionGoal,\n        uint _maxContributionGoal,\n        uint _contributionPeriod,\n        bool _noRefunds,\n        bool _noTimeline\n    )\n        external\n        onlyProjectDeveloper(_projectId)\n        onlyDraftProject(_projectId)\n    {\n        // Set project attributes\n        fundingStorage.setProjectTitle(_projectId, _title);\n        fundingStorage.setProjectDescription(_projectId, _description);\n        fundingStorage.setProjectAbout(_projectId, _about);\n        fundingStorage.setProjectMinContributionGoal(_projectId, _minContributionGoal);\n        fundingStorage.setProjectMaxContributionGoal(_projectId, _maxContributionGoal);\n        fundingStorage.setProjectContributionPeriod(_projectId, _contributionPeriod);\n        fundingStorage.setProjectNoRefunds(_projectId, _noRefunds);\n        fundingStorage.setProjectNoTimeline(_projectId, _noTimeline);\n    }\n\n    function getProject(\n        uint _projectId\n    )\n        external\n        view\n        returns (\n            uint id,\n            uint status,\n            string title,\n            string description,\n            string about,\n            uint minContributionGoal,\n            uint maxContributionGoal,\n            uint contributionPeriod,\n            bool noRefunds,\n            bool noTimeline,\n            address developer,\n            uint developerId\n        )\n    {\n        id = _projectId;\n        status = fundingStorage.getProjectStatus(_projectId);\n        title = fundingStorage.getProjectTitle(_projectId);\n        description = fundingStorage.getProjectDescription(_projectId);\n        about = fundingStorage.getProjectAbout(_projectId);\n        minContributionGoal = fundingStorage.getProjectMinContributionGoal(_projectId);\n        maxContributionGoal = fundingStorage.getProjectMaxContributionGoal(_projectId);\n        contributionPeriod = fundingStorage.getProjectContributionPeriod(_projectId);\n        developer = fundingStorage.getProjectDeveloper(_projectId);\n        noRefunds = fundingStorage.getProjectNoRefunds(_projectId);\n        noTimeline = fundingStorage.getProjectNoTimeline(_projectId);\n        developerId = fundingStorage.getProjectDeveloperId(_projectId);\n\n        return (id, status, title, description, about, minContributionGoal, maxContributionGoal, contributionPeriod, noRefunds, noTimeline, developer, developerId);\n    }\n\n    function submitProjectForReview(uint _projectId) external onlyProjectDeveloper(_projectId) onlyDraftProject(_projectId) {\n        bool noTimeline = fundingStorage.getProjectNoTimeline(_projectId);\n\n        // Make sure project has outlined contribution tiers\n        verifyProjectTiers(_projectId);\n\n        // If project has a timeline, verify that milestone percentages add up to 100% and set active timeline\n        if (!noTimeline) {\n            fundingStorage.verifyPendingMilestones(_projectId);\n            fundingStorage.movePendingMilestonesIntoTimeline(_projectId);\n            fundingStorage.movePendingContributionTiersIntoActiveContributionTiers(_projectId);\n        }\n\n        // Change project status to \"Pending\"\n        fundingStorage.setProjectStatus(_projectId, uint(Status.Pending));\n\n        // Open curation\n        fundingStorage.setDraftCurationTimestamp(_projectId, now);\n        fundingStorage.setDraftCurationIsActive(_projectId, true);\n    }\n\n    function verifyProjectTiers(uint _projectId) private view {\n        // Verify that project has contribution tiers\n        uint tiersLength = fundingStorage.getPendingContributionTiersLength(_projectId);\n        require(tiersLength > 0, \"Project has no contribution tiers.\");\n    }\n\n    function beginProjectDevelopment(uint _projectId) external onlyProjectDeveloper(_projectId) {\n        require(fundingStorage.getProjectStatus(_projectId) == uint(Status.Contributable), \"This project is not currently accepting contributions.\");\n\n        uint fundsRaised = fundingStorage.getProjectFundsRaised(_projectId);\n        uint minGoal = fundingStorage.getProjectMinContributionGoal(_projectId);\n\n        if (fundsRaised >= minGoal) {\n            fundingStorage.setProjectStatus(_projectId, uint(Status.InDevelopment));\n            fundingStorage.releaseMilestoneFunds(_projectId, 0);\n        } else {\n            fundingStorage.setProjectStatus(_projectId, uint(Status.Refundable));\n        }\n    }\n}\n",
  "sourcePath": "/ude/hb/projects/funding-protocol/smart-contracts/ethereum/contracts/project/ProjectRegistration.sol",
  "compiler": {
    "name": "solc",
    "version": "0.4.24+commit.e67f0147.Emscripten.clang"
  },
  "schemaVersion": "2.0.0",
  "updatedAt": "2018-07-22T20:27:18.090Z"
}