{
  "contractName": "ProjectContributionTier",
  "abi": [
    {
      "inputs": [
        {
          "name": "_fundingStorage",
          "type": "address"
        }
      ],
      "payable": false,
      "stateMutability": "nonpayable",
      "type": "constructor"
    },
    {
      "constant": false,
      "inputs": [
        {
          "name": "_projectId",
          "type": "uint256"
        },
        {
          "name": "_contributorLimit",
          "type": "uint256"
        },
        {
          "name": "_maxContribution",
          "type": "uint256"
        },
        {
          "name": "_minContribution",
          "type": "uint256"
        },
        {
          "name": "_rewards",
          "type": "string"
        }
      ],
      "name": "addContributionTier",
      "outputs": [],
      "payable": false,
      "stateMutability": "nonpayable",
      "type": "function"
    },
    {
      "constant": false,
      "inputs": [
        {
          "name": "_projectId",
          "type": "uint256"
        },
        {
          "name": "_index",
          "type": "uint256"
        },
        {
          "name": "_contributorLimit",
          "type": "uint256"
        },
        {
          "name": "_maxContribution",
          "type": "uint256"
        },
        {
          "name": "_minContribution",
          "type": "uint256"
        },
        {
          "name": "_rewards",
          "type": "string"
        }
      ],
      "name": "editContributionTier",
      "outputs": [],
      "payable": false,
      "stateMutability": "nonpayable",
      "type": "function"
    },
    {
      "constant": false,
      "inputs": [
        {
          "name": "_projectId",
          "type": "uint256"
        }
      ],
      "name": "clearPendingContributionTiers",
      "outputs": [],
      "payable": false,
      "stateMutability": "nonpayable",
      "type": "function"
    },
    {
      "constant": true,
      "inputs": [
        {
          "name": "_projectId",
          "type": "uint256"
        }
      ],
      "name": "getPendingContributionTiersLength",
      "outputs": [
        {
          "name": "length",
          "type": "uint256"
        }
      ],
      "payable": false,
      "stateMutability": "view",
      "type": "function"
    },
    {
      "constant": true,
      "inputs": [
        {
          "name": "_projectId",
          "type": "uint256"
        },
        {
          "name": "_index",
          "type": "uint256"
        }
      ],
      "name": "getPendingContributionTier",
      "outputs": [
        {
          "name": "contributorLimit",
          "type": "uint256"
        },
        {
          "name": "maxContribution",
          "type": "uint256"
        },
        {
          "name": "minContribution",
          "type": "uint256"
        },
        {
          "name": "rewards",
          "type": "string"
        }
      ],
      "payable": false,
      "stateMutability": "view",
      "type": "function"
    },
    {
      "constant": true,
      "inputs": [
        {
          "name": "_projectId",
          "type": "uint256"
        }
      ],
      "name": "getContributionTiersLength",
      "outputs": [
        {
          "name": "length",
          "type": "uint256"
        }
      ],
      "payable": false,
      "stateMutability": "view",
      "type": "function"
    },
    {
      "constant": true,
      "inputs": [
        {
          "name": "_projectId",
          "type": "uint256"
        },
        {
          "name": "_index",
          "type": "uint256"
        }
      ],
      "name": "getContributionTier",
      "outputs": [
        {
          "name": "contributorLimit",
          "type": "uint256"
        },
        {
          "name": "maxContribution",
          "type": "uint256"
        },
        {
          "name": "minContribution",
          "type": "uint256"
        },
        {
          "name": "rewards",
          "type": "string"
        }
      ],
      "payable": false,
      "stateMutability": "view",
      "type": "function"
    }
  ],
  "bytecode": "0x608060405234801561001057600080fd5b506040516020806128d683398101806040528101908080519060200190929190505050806000806101000a81548173ffffffffffffffffffffffffffffffffffffffff021916908373ffffffffffffffffffffffffffffffffffffffff16021790555050612853806100836000396000f300608060405260043610610083576000357c0100000000000000000000000000000000000000000000000000000000900463ffffffff16806331151cde14610088578063452a47ba146100eb578063590e866b1461012c57806359f1e43b146101f15780635ca38b481461021e578063739c2b8c1461025f578063cb231664146102cc575b600080fd5b34801561009457600080fd5b506100e960048036038101908080359060200190929190803590602001909291908035906020019092919080359060200190929190803590602001908201803590602001919091929391929390505050610391565b005b3480156100f757600080fd5b5061011660048036038101908080359060200190929190505050610531565b6040518082815260200191505060405180910390f35b34801561013857600080fd5b506101616004803603810190808035906020019092919080359060200190929190505050610587565b6040518085815260200184815260200183815260200180602001828103825283818151815260200191508051906020019080838360005b838110156101b3578082015181840152602081019050610198565b50505050905090810190601f1680156101e05780820380516001836020036101000a031916815260200191505b509550505050505060405180910390f35b3480156101fd57600080fd5b5061021c6004803603810190808035906020019092919050505061060d565b005b34801561022a57600080fd5b5061024960048036038101908080359060200190929190505050610771565b6040518082815260200191505060405180910390f35b34801561026b57600080fd5b506102ca60048036038101908080359060200190929190803590602001909291908035906020019092919080359060200190929190803590602001909291908035906020019082018035906020019190919293919293905050506107c7565b005b3480156102d857600080fd5b50610301600480360381019080803590602001909291908035906020019092919050505061096a565b6040518085815260200184815260200183815260200180602001828103825283818151815260200191508051906020019080838360005b83811015610353578082015181840152602081019050610338565b50505050905090810190601f1680156103805780820380516001836020036101000a031916815260200191505b509550505050505060405180910390f35b856103dc816000809054906101000a900473ffffffffffffffffffffffffffffffffffffffff1673ffffffffffffffffffffffffffffffffffffffff166109f090919063ffffffff16565b73ffffffffffffffffffffffffffffffffffffffff163373ffffffffffffffffffffffffffffffffffffffff161415156104a4576040517f08c379a00000000000000000000000000000000000000000000000000000000081526004018080602001828103825260398152602001807f596f75206d757374206265207468652070726f6a65637420646576656c6f706581526020017f7220746f20706572666f726d207468697320616374696f6e2e0000000000000081525060400191505060405180910390fd5b6105288787878787878080601f0160208091040260200160405190810160405280939291908181526020018383808284378201915050505050506000809054906101000a900473ffffffffffffffffffffffffffffffffffffffff1673ffffffffffffffffffffffffffffffffffffffff16610b559095949392919063ffffffff16565b50505050505050565b600061057d826000809054906101000a900473ffffffffffffffffffffffffffffffffffffffff1673ffffffffffffffffffffffffffffffffffffffff16610b8990919063ffffffff16565b9050809050919050565b600080600060606105966127fe565b6105e287876000809054906101000a900473ffffffffffffffffffffffffffffffffffffffff1673ffffffffffffffffffffffffffffffffffffffff16610cee9092919063ffffffff16565b9050806000015181604001518260200151836060015180905094509450945094505092959194509250565b80610658816000809054906101000a900473ffffffffffffffffffffffffffffffffffffffff1673ffffffffffffffffffffffffffffffffffffffff166109f090919063ffffffff16565b73ffffffffffffffffffffffffffffffffffffffff163373ffffffffffffffffffffffffffffffffffffffff16141515610720576040517f08c379a00000000000000000000000000000000000000000000000000000000081526004018080602001828103825260398152602001807f596f75206d757374206265207468652070726f6a65637420646576656c6f706581526020017f7220746f20706572666f726d207468697320616374696f6e2e0000000000000081525060400191505060405180910390fd5b61076d8260008060009054906101000a900473ffffffffffffffffffffffffffffffffffffffff1673ffffffffffffffffffffffffffffffffffffffff166115b19092919063ffffffff16565b5050565b60006107bd826000809054906101000a900473ffffffffffffffffffffffffffffffffffffffff1673ffffffffffffffffffffffffffffffffffffffff1661171c90919063ffffffff16565b9050809050919050565b86610812816000809054906101000a900473ffffffffffffffffffffffffffffffffffffffff1673ffffffffffffffffffffffffffffffffffffffff166109f090919063ffffffff16565b73ffffffffffffffffffffffffffffffffffffffff163373ffffffffffffffffffffffffffffffffffffffff161415156108da576040517f08c379a00000000000000000000000000000000000000000000000000000000081526004018080602001828103825260398152602001807f596f75206d757374206265207468652070726f6a65637420646576656c6f706581526020017f7220746f20706572666f726d207468697320616374696f6e2e0000000000000081525060400191505060405180910390fd5b610960888888888888888080601f0160208091040260200160405190810160405280939291908181526020018383808284378201915050505050506000809054906101000a900473ffffffffffffffffffffffffffffffffffffffff1673ffffffffffffffffffffffffffffffffffffffff166118a7909695949392919063ffffffff16565b5050505050505050565b600080600060606109796127fe565b6109c587876000809054906101000a900473ffffffffffffffffffffffffffffffffffffffff1673ffffffffffffffffffffffffffffffffffffffff166118e09092919063ffffffff16565b9050806000015181604001518260200151836060015180905094509450945094505092959194509250565b60008273ffffffffffffffffffffffffffffffffffffffff166321f8a7218360405160200180807f70726f6a6563742e646576656c6f7065720000000000000000000000000000008152506011018281526020019150506040516020818303038152906040526040518082805190602001908083835b602083101515610a8b5780518252602082019150602081019050602083039250610a66565b6001836020036101000a03801982511681845116808217855250505050505090500191505060405180910390206040518263ffffffff167c0100000000000000000000000000000000000000000000000000000000028152600401808260001916600019168152602001915050602060405180830381600087803b158015610b1257600080fd5b505af1158015610b26573d6000803e3d6000fd5b505050506040513d6020811015610b3c57600080fd5b8101908080519060200190929190505050905092915050565b6000610b61878761171c565b9050610b72878783888888886118a7565b610b808787600184016115b1565b50505050505050565b60008273ffffffffffffffffffffffffffffffffffffffff1663bd02d0f58360405160200180807f70726f6a6563742e636f6e747269627574696f6e54696572732e6c656e6774688152506020018281526020019150506040516020818303038152906040526040518082805190602001908083835b602083101515610c245780518252602082019150602081019050602083039250610bff565b6001836020036101000a03801982511681845116808217855250505050505090500191505060405180910390206040518263ffffffff167c0100000000000000000000000000000000000000000000000000000000028152600401808260001916600019168152602001915050602060405180830381600087803b158015610cab57600080fd5b505af1158015610cbf573d6000803e3d6000fd5b505050506040513d6020811015610cd557600080fd5b8101908080519060200190929190505050905092915050565b610cf66127fe565b60008060006060610d056127fe565b8873ffffffffffffffffffffffffffffffffffffffff1663bd02d0f58960405160200180807f70726f6a6563742e636f6e747269627574696f6e54696572732e6c656e6774688152506020018281526020019150506040516020818303038152906040526040518082805190602001908083835b602083101515610d9e5780518252602082019150602081019050602083039250610d79565b6001836020036101000a03801982511681845116808217855250505050505090500191505060405180910390206040518263ffffffff167c0100000000000000000000000000000000000000000000000000000000028152600401808260001916600019168152602001915050602060405180830381600087803b158015610e2557600080fd5b505af1158015610e39573d6000803e3d6000fd5b505050506040513d6020811015610e4f57600080fd5b810190808051906020019092919050505087101515610efc576040517f08c379a00000000000000000000000000000000000000000000000000000000081526004018080602001828103825260258152602001807f496e646578206973206f757473696465206f662061636365737369626c65207281526020017f616e67652e00000000000000000000000000000000000000000000000000000081525060400191505060405180910390fd5b8873ffffffffffffffffffffffffffffffffffffffff1663bd02d0f5888a60405160200180807f70726f6a6563742e636f6e747269627574696f6e54696572732e636f6e74726981526020017f6275746f724c696d697400000000000000000000000000000000000000000000815250602a01838152602001828152602001925050506040516020818303038152906040526040518082805190602001908083835b602083101515610fc35780518252602082019150602081019050602083039250610f9e565b6001836020036101000a03801982511681845116808217855250505050505090500191505060405180910390206040518263ffffffff167c0100000000000000000000000000000000000000000000000000000000028152600401808260001916600019168152602001915050602060405180830381600087803b15801561104a57600080fd5b505af115801561105e573d6000803e3d6000fd5b505050506040513d602081101561107457600080fd5b810190808051906020019092919050505094508873ffffffffffffffffffffffffffffffffffffffff1663bd02d0f5888a60405160200180807f70726f6a6563742e636f6e747269627574696f6e54696572732e6d696e436f6e81526020017f747269627574696f6e0000000000000000000000000000000000000000000000815250602901838152602001828152602001925050506040516020818303038152906040526040518082805190602001908083835b60208310151561114e5780518252602082019150602081019050602083039250611129565b6001836020036101000a03801982511681845116808217855250505050505090500191505060405180910390206040518263ffffffff167c0100000000000000000000000000000000000000000000000000000000028152600401808260001916600019168152602001915050602060405180830381600087803b1580156111d557600080fd5b505af11580156111e9573d6000803e3d6000fd5b505050506040513d60208110156111ff57600080fd5b810190808051906020019092919050505093508873ffffffffffffffffffffffffffffffffffffffff1663bd02d0f5888a60405160200180807f70726f6a6563742e636f6e747269627574696f6e54696572732e6d6178436f6e81526020017f747269627574696f6e0000000000000000000000000000000000000000000000815250602901838152602001828152602001925050506040516020818303038152906040526040518082805190602001908083835b6020831015156112d957805182526020820191506020810190506020830392506112b4565b6001836020036101000a03801982511681845116808217855250505050505090500191505060405180910390206040518263ffffffff167c0100000000000000000000000000000000000000000000000000000000028152600401808260001916600019168152602001915050602060405180830381600087803b15801561136057600080fd5b505af1158015611374573d6000803e3d6000fd5b505050506040513d602081101561138a57600080fd5b810190808051906020019092919050505092508873ffffffffffffffffffffffffffffffffffffffff1663986e791a888a60405160200180807f70726f6a6563742e636f6e747269627574696f6e54696572732e72657761726481526020017f7300000000000000000000000000000000000000000000000000000000000000815250602101838152602001828152602001925050506040516020818303038152906040526040518082805190602001908083835b602083101515611464578051825260208201915060208101905060208303925061143f565b6001836020036101000a03801982511681845116808217855250505050505090500191505060405180910390206040518263ffffffff167c0100000000000000000000000000000000000000000000000000000000028152600401808260001916600019168152602001915050600060405180830381600087803b1580156114eb57600080fd5b505af11580156114ff573d6000803e3d6000fd5b505050506040513d6000823e3d601f19601f82011682018060405250602081101561152957600080fd5b81019080805164010000000081111561154157600080fd5b8281019050602081018481111561155757600080fd5b815185600182028301116401000000008211171561157457600080fd5b5050929190505050915060806040519081016040528086815260200185815260200184815260200183815250905080955050505050509392505050565b8273ffffffffffffffffffffffffffffffffffffffff1663e2a4853a8360405160200180807f70726f6a6563742e70656e64696e67436f6e747269627574696f6e546965727381526020017f2e6c656e677468000000000000000000000000000000000000000000000000008152506027018281526020019150506040516020818303038152906040526040518082805190602001908083835b602083101515611670578051825260208201915060208101905060208303925061164b565b6001836020036101000a0380198251168184511680821785525050505050509050019150506040518091039020836040518363ffffffff167c010000000000000000000000000000000000000000000000000000000002815260040180836000191660001916815260200182815260200192505050600060405180830381600087803b1580156116ff57600080fd5b505af1158015611713573d6000803e3d6000fd5b50505050505050565b60008273ffffffffffffffffffffffffffffffffffffffff1663bd02d0f58360405160200180807f70726f6a6563742e70656e64696e67436f6e747269627574696f6e546965727381526020017f2e6c656e677468000000000000000000000000000000000000000000000000008152506027018281526020019150506040516020818303038152906040526040518082805190602001908083835b6020831015156117dd57805182526020820191506020810190506020830392506117b8565b6001836020036101000a03801982511681845116808217855250505050505090500191505060405180910390206040518263ffffffff167c0100000000000000000000000000000000000000000000000000000000028152600401808260001916600019168152602001915050602060405180830381600087803b15801561186457600080fd5b505af1158015611878573d6000803e3d6000fd5b505050506040513d602081101561188e57600080fd5b8101908080519060200190929190505050905092915050565b6118b3878787876121c9565b6118bf8787878661233d565b6118cb878787856124b1565b6118d787878784612625565b50505050505050565b6118e86127fe565b600080600060606118f76127fe565b8873ffffffffffffffffffffffffffffffffffffffff1663bd02d0f58960405160200180807f70726f6a6563742e70656e64696e67436f6e747269627574696f6e546965727381526020017f2e6c656e677468000000000000000000000000000000000000000000000000008152506027018281526020019150506040516020818303038152906040526040518082805190602001908083835b6020831015156119b65780518252602082019150602081019050602083039250611991565b6001836020036101000a03801982511681845116808217855250505050505090500191505060405180910390206040518263ffffffff167c0100000000000000000000000000000000000000000000000000000000028152600401808260001916600019168152602001915050602060405180830381600087803b158015611a3d57600080fd5b505af1158015611a51573d6000803e3d6000fd5b505050506040513d6020811015611a6757600080fd5b810190808051906020019092919050505087101515611b14576040517f08c379a00000000000000000000000000000000000000000000000000000000081526004018080602001828103825260258152602001807f496e646578206973206f757473696465206f662061636365737369626c65207281526020017f616e67652e00000000000000000000000000000000000000000000000000000081525060400191505060405180910390fd5b8873ffffffffffffffffffffffffffffffffffffffff1663bd02d0f5888a60405160200180807f70726f6a6563742e70656e64696e67436f6e747269627574696f6e546965727381526020017f2e636f6e7472696275746f724c696d6974000000000000000000000000000000815250603101838152602001828152602001925050506040516020818303038152906040526040518082805190602001908083835b602083101515611bdb5780518252602082019150602081019050602083039250611bb6565b6001836020036101000a03801982511681845116808217855250505050505090500191505060405180910390206040518263ffffffff167c0100000000000000000000000000000000000000000000000000000000028152600401808260001916600019168152602001915050602060405180830381600087803b158015611c6257600080fd5b505af1158015611c76573d6000803e3d6000fd5b505050506040513d6020811015611c8c57600080fd5b810190808051906020019092919050505094508873ffffffffffffffffffffffffffffffffffffffff1663bd02d0f5888a60405160200180807f70726f6a6563742e70656e64696e67436f6e747269627574696f6e546965727381526020017f2e6d696e436f6e747269627574696f6e00000000000000000000000000000000815250603001838152602001828152602001925050506040516020818303038152906040526040518082805190602001908083835b602083101515611d665780518252602082019150602081019050602083039250611d41565b6001836020036101000a03801982511681845116808217855250505050505090500191505060405180910390206040518263ffffffff167c0100000000000000000000000000000000000000000000000000000000028152600401808260001916600019168152602001915050602060405180830381600087803b158015611ded57600080fd5b505af1158015611e01573d6000803e3d6000fd5b505050506040513d6020811015611e1757600080fd5b810190808051906020019092919050505093508873ffffffffffffffffffffffffffffffffffffffff1663bd02d0f5888a60405160200180807f70726f6a6563742e70656e64696e67436f6e747269627574696f6e546965727381526020017f2e6d6178436f6e747269627574696f6e00000000000000000000000000000000815250603001838152602001828152602001925050506040516020818303038152906040526040518082805190602001908083835b602083101515611ef15780518252602082019150602081019050602083039250611ecc565b6001836020036101000a03801982511681845116808217855250505050505090500191505060405180910390206040518263ffffffff167c0100000000000000000000000000000000000000000000000000000000028152600401808260001916600019168152602001915050602060405180830381600087803b158015611f7857600080fd5b505af1158015611f8c573d6000803e3d6000fd5b505050506040513d6020811015611fa257600080fd5b810190808051906020019092919050505092508873ffffffffffffffffffffffffffffffffffffffff1663986e791a888a60405160200180807f70726f6a6563742e70656e64696e67436f6e747269627574696f6e546965727381526020017f2e72657761726473000000000000000000000000000000000000000000000000815250602801838152602001828152602001925050506040516020818303038152906040526040518082805190602001908083835b60208310151561207c5780518252602082019150602081019050602083039250612057565b6001836020036101000a03801982511681845116808217855250505050505090500191505060405180910390206040518263ffffffff167c0100000000000000000000000000000000000000000000000000000000028152600401808260001916600019168152602001915050600060405180830381600087803b15801561210357600080fd5b505af1158015612117573d6000803e3d6000fd5b505050506040513d6000823e3d601f19601f82011682018060405250602081101561214157600080fd5b81019080805164010000000081111561215957600080fd5b8281019050602081018481111561216f57600080fd5b815185600182028301116401000000008211171561218c57600080fd5b5050929190505050915060806040519081016040528086815260200185815260200184815260200183815250905080955050505050509392505050565b8373ffffffffffffffffffffffffffffffffffffffff1663e2a4853a838560405160200180807f70726f6a6563742e70656e64696e67436f6e747269627574696f6e546965727381526020017f2e636f6e7472696275746f724c696d6974000000000000000000000000000000815250603101838152602001828152602001925050506040516020818303038152906040526040518082805190602001908083835b602083101515612290578051825260208201915060208101905060208303925061226b565b6001836020036101000a0380198251168184511680821785525050505050509050019150506040518091039020836040518363ffffffff167c010000000000000000000000000000000000000000000000000000000002815260040180836000191660001916815260200182815260200192505050600060405180830381600087803b15801561231f57600080fd5b505af1158015612333573d6000803e3d6000fd5b5050505050505050565b8373ffffffffffffffffffffffffffffffffffffffff1663e2a4853a838560405160200180807f70726f6a6563742e70656e64696e67436f6e747269627574696f6e546965727381526020017f2e6d6178436f6e747269627574696f6e00000000000000000000000000000000815250603001838152602001828152602001925050506040516020818303038152906040526040518082805190602001908083835b60208310151561240457805182526020820191506020810190506020830392506123df565b6001836020036101000a0380198251168184511680821785525050505050509050019150506040518091039020836040518363ffffffff167c010000000000000000000000000000000000000000000000000000000002815260040180836000191660001916815260200182815260200192505050600060405180830381600087803b15801561249357600080fd5b505af11580156124a7573d6000803e3d6000fd5b5050505050505050565b8373ffffffffffffffffffffffffffffffffffffffff1663e2a4853a838560405160200180807f70726f6a6563742e70656e64696e67436f6e747269627574696f6e546965727381526020017f2e6d696e436f6e747269627574696f6e00000000000000000000000000000000815250603001838152602001828152602001925050506040516020818303038152906040526040518082805190602001908083835b6020831015156125785780518252602082019150602081019050602083039250612553565b6001836020036101000a0380198251168184511680821785525050505050509050019150506040518091039020836040518363ffffffff167c010000000000000000000000000000000000000000000000000000000002815260040180836000191660001916815260200182815260200192505050600060405180830381600087803b15801561260757600080fd5b505af115801561261b573d6000803e3d6000fd5b5050505050505050565b8373ffffffffffffffffffffffffffffffffffffffff16636e899550838560405160200180807f70726f6a6563742e70656e64696e67436f6e747269627574696f6e546965727381526020017f2e72657761726473000000000000000000000000000000000000000000000000815250602801838152602001828152602001925050506040516020818303038152906040526040518082805190602001908083835b6020831015156126ec57805182526020820191506020810190506020830392506126c7565b6001836020036101000a0380198251168184511680821785525050505050509050019150506040518091039020836040518363ffffffff167c010000000000000000000000000000000000000000000000000000000002815260040180836000191660001916815260200180602001828103825283818151815260200191508051906020019080838360005b83811015612793578082015181840152602081019050612778565b50505050905090810190601f1680156127c05780820380516001836020036101000a031916815260200191505b509350505050600060405180830381600087803b1580156127e057600080fd5b505af11580156127f4573d6000803e3d6000fd5b5050505050505050565b6080604051908101604052806000815260200160008152602001600081526020016060815250905600a165627a7a7230582015702a0adbaacfc013edcc0add21835ec76cc15d370a4eba1c37117a254012ca0029",
  "source": "pragma solidity ^0.4.24;\n\nimport \"../FundingStorage.sol\";\nimport \"./ProjectBase.sol\";\n\ncontract ProjectContributionTier is ProjectBase {\n\n    constructor(address _fundingStorage) public {\n        fundingStorage = _fundingStorage;\n    }\n\n    function addContributionTier(\n        uint _projectId,\n        uint _contributorLimit,\n        uint _maxContribution,\n        uint _minContribution,\n        string _rewards\n    )\n        external\n        onlyProjectDeveloper(_projectId)\n    {\n        fundingStorage.pushPendingContributionTier(_projectId, _contributorLimit, _maxContribution, _minContribution, _rewards);\n    }\n\n    function editContributionTier(\n        uint _projectId,\n        uint _index,\n        uint _contributorLimit,\n        uint _maxContribution,\n        uint _minContribution,\n        string _rewards\n    )\n        external\n        onlyProjectDeveloper(_projectId)\n    {\n        fundingStorage.setPendingContributionTier(_projectId, _index, _contributorLimit, _maxContribution, _minContribution, _rewards);\n    }\n\n    function clearPendingContributionTiers(uint _projectId) external onlyProjectDeveloper(_projectId) {\n        fundingStorage.setPendingContributionTiersLength(_projectId, 0);\n    }\n\n    function getPendingContributionTiersLength(uint _projectId) external view returns (uint length) {\n        length = fundingStorage.getPendingContributionTiersLength(_projectId);\n        return length;\n    }\n\n    function getPendingContributionTier(uint _projectId, uint _index) external view returns (uint contributorLimit, uint maxContribution, uint minContribution, string rewards) {\n        ProjectStorageAccess.ContributionTier memory tier = fundingStorage.getPendingContributionTier(_projectId, _index);\n\n        return (tier.contributorLimit, tier.maxContribution, tier.minContribution, tier.rewards);\n    }\n\n    function getContributionTiersLength(uint _projectId) external view returns (uint length) {\n        length = fundingStorage.getContributionTiersLength(_projectId);\n        return length;\n    }\n\n    function getContributionTier(uint _projectId, uint _index) external view returns (uint contributorLimit, uint maxContribution, uint minContribution, string rewards) {\n        ProjectStorageAccess.ContributionTier memory tier = fundingStorage.getContributionTier(_projectId, _index);\n\n        return (tier.contributorLimit, tier.maxContribution, tier.minContribution, tier.rewards);\n    }\n}\n",
  "sourcePath": "/home/jordan/Projects/hyperbridge/funding-protocol/smart-contracts/ethereum/contracts/project/ProjectContributionTier.sol",
  "compiler": {
    "name": "solc",
    "version": "0.4.24+commit.e67f0147.Emscripten.clang"
  },
  "schemaVersion": "2.0.1",
  "updatedAt": "2018-07-21T07:36:54.715Z"
}