{
  "contractName": "ProjectMilestoneCompletion",
  "abi": [
    {
      "inputs": [
        {
          "name": "_fundingStorage",
          "type": "address"
        }
      ],
      "payable": false,
      "stateMutability": "nonpayable",
      "type": "constructor"
    },
    {
      "constant": false,
      "inputs": [
        {
          "name": "_projectId",
          "type": "uint256"
        },
        {
          "name": "_report",
          "type": "string"
        }
      ],
      "name": "submitMilestoneCompletion",
      "outputs": [],
      "payable": false,
      "stateMutability": "nonpayable",
      "type": "function"
    },
    {
      "constant": false,
      "inputs": [
        {
          "name": "_projectId",
          "type": "uint256"
        },
        {
          "name": "_approved",
          "type": "bool"
        }
      ],
      "name": "voteOnMilestoneCompletion",
      "outputs": [],
      "payable": false,
      "stateMutability": "nonpayable",
      "type": "function"
    },
    {
      "constant": false,
      "inputs": [
        {
          "name": "_projectId",
          "type": "uint256"
        }
      ],
      "name": "finalizeMilestoneCompletion",
      "outputs": [],
      "payable": false,
      "stateMutability": "nonpayable",
      "type": "function"
    },
    {
      "constant": true,
      "inputs": [
        {
          "name": "_projectId",
          "type": "uint256"
        }
      ],
      "name": "getMilestoneCompletionSubmission",
      "outputs": [
        {
          "name": "timestamp",
          "type": "uint256"
        },
        {
          "name": "approvalCount",
          "type": "uint256"
        },
        {
          "name": "disapprovalCount",
          "type": "uint256"
        },
        {
          "name": "report",
          "type": "string"
        },
        {
          "name": "isActive",
          "type": "bool"
        },
        {
          "name": "hasFailed",
          "type": "bool"
        }
      ],
      "payable": false,
      "stateMutability": "view",
      "type": "function"
    }
  ],
  "bytecode": "0x608060405234801561001057600080fd5b5060405160208062005d6b83398101806040528101908080519060200190929190505050806000806101000a81548173ffffffffffffffffffffffffffffffffffffffff021916908373ffffffffffffffffffffffffffffffffffffffff16021790555050615ce680620000856000396000f300608060405260043610610062576000357c0100000000000000000000000000000000000000000000000000000000900463ffffffff168063175f54b1146100675780635bfd35b914610094578063bba929ad146100cd578063fd1e98171461019e575b600080fd5b34801561007357600080fd5b50610092600480360381019080803590602001909291905050506101e3565b005b3480156100a057600080fd5b506100cb60048036038101908080359060200190929190803515159060200190929190505050610448565b005b3480156100d957600080fd5b506100f860048036038101908080359060200190929190505050610983565b60405180878152602001868152602001858152602001806020018415151515815260200183151515158152602001828103825285818151815260200191508051906020019080838360005b8381101561015e578082015181840152602081019050610143565b50505050905090810190601f16801561018b5780820380516001836020036101000a031916815260200191505b5097505050505050505060405180910390f35b3480156101aa57600080fd5b506101e160048036038101908080359060200190929190803590602001908201803590602001919091929391929390505050610a18565b005b8061022e816000809054906101000a900473ffffffffffffffffffffffffffffffffffffffff1673ffffffffffffffffffffffffffffffffffffffff16610eb690919063ffffffff16565b73ffffffffffffffffffffffffffffffffffffffff163373ffffffffffffffffffffffffffffffffffffffff161415156102f6576040517f08c379a00000000000000000000000000000000000000000000000000000000081526004018080602001828103825260398152602001807f596f75206d757374206265207468652070726f6a65637420646576656c6f706581526020017f7220746f20706572666f726d207468697320616374696f6e2e0000000000000081525060400191505060405180910390fd5b610340826000809054906101000a900473ffffffffffffffffffffffffffffffffffffffff1673ffffffffffffffffffffffffffffffffffffffff1661101b90919063ffffffff16565b15156103da576040517f08c379a00000000000000000000000000000000000000000000000000000000081526004018080602001828103825260278152602001807f4e6f20766f7465206f6e206d696c6573746f6e6520636f6d706c6574696f6e2081526020017f6163746976652e0000000000000000000000000000000000000000000000000081525060400191505060405180910390fd5b6103e3826111a6565b156103f6576103f1826113ea565b610444565b6104438260016000809054906101000a900473ffffffffffffffffffffffffffffffffffffffff1673ffffffffffffffffffffffffffffffffffffffff1661191d9092919063ffffffff16565b5b5050565b600080836000610498336000809054906101000a900473ffffffffffffffffffffffffffffffffffffffff1673ffffffffffffffffffffffffffffffffffffffff16611a8c90919063ffffffff16565b905060008114151515610539576040517f08c379a00000000000000000000000000000000000000000000000000000000081526004018080602001828103825260228152602001807f546869732061646472657373206973206e6f74206120636f6e7472696275746f81526020017f722e00000000000000000000000000000000000000000000000000000000000081525060400191505060405180910390fd5b61058581836000809054906101000a900473ffffffffffffffffffffffffffffffffffffffff1673ffffffffffffffffffffffffffffffffffffffff16611c2c9092919063ffffffff16565b151561061f576040517f08c379a00000000000000000000000000000000000000000000000000000000081526004018080602001828103825260328152602001807f546869732061646472657373206973206e6f74206120636f6e7472696275746f81526020017f7220746f20746869732070726f6a6563742e000000000000000000000000000081525060400191505060405180910390fd5b610669866000809054906101000a900473ffffffffffffffffffffffffffffffffffffffff1673ffffffffffffffffffffffffffffffffffffffff1661101b90919063ffffffff16565b1515610703576040517f08c379a00000000000000000000000000000000000000000000000000000000081526004018080602001828103825260278152602001807f4e6f20766f7465206f6e206d696c6573746f6e6520636f6d706c6574696f6e2081526020017f6163746976652e0000000000000000000000000000000000000000000000000081525060400191505060405180910390fd5b61074f86336000809054906101000a900473ffffffffffffffffffffffffffffffffffffffff1673ffffffffffffffffffffffffffffffffffffffff16611d9a9092919063ffffffff16565b1515156107ea576040517f08c379a000000000000000000000000000000000000000000000000000000000815260040180806020018281038252602b8152602001807f5468697320636f6e7472696275746f7220616464726573732068617320616c7281526020017f6561647920766f7465642e00000000000000000000000000000000000000000081525060400191505060405180910390fd5b84156108905761083a866000809054906101000a900473ffffffffffffffffffffffffffffffffffffffff1673ffffffffffffffffffffffffffffffffffffffff16611f6990919063ffffffff16565b935061088b86600186016000809054906101000a900473ffffffffffffffffffffffffffffffffffffffff1673ffffffffffffffffffffffffffffffffffffffff166120f49092919063ffffffff16565b61092c565b6108da866000809054906101000a900473ffffffffffffffffffffffffffffffffffffffff1673ffffffffffffffffffffffffffffffffffffffff1661225f90919063ffffffff16565b925061092b86600185016000809054906101000a900473ffffffffffffffffffffffffffffffffffffffff1673ffffffffffffffffffffffffffffffffffffffff166123ea9092919063ffffffff16565b5b61097b863360016000809054906101000a900473ffffffffffffffffffffffffffffffffffffffff1673ffffffffffffffffffffffffffffffffffffffff16612555909392919063ffffffff16565b505050505050565b60008060006060600080610995615c54565b6109df886000809054906101000a900473ffffffffffffffffffffffffffffffffffffffff1673ffffffffffffffffffffffffffffffffffffffff1661270890919063ffffffff16565b9050806000015181602001518260400151836060015184608001518560a001518292509650965096509650965096505091939550919395565b82610a63816000809054906101000a900473ffffffffffffffffffffffffffffffffffffffff1673ffffffffffffffffffffffffffffffffffffffff16610eb690919063ffffffff16565b73ffffffffffffffffffffffffffffffffffffffff163373ffffffffffffffffffffffffffffffffffffffff16141515610b2b576040517f08c379a00000000000000000000000000000000000000000000000000000000081526004018080602001828103825260398152602001807f596f75206d757374206265207468652070726f6a65637420646576656c6f706581526020017f7220746f20706572666f726d207468697320616374696f6e2e0000000000000081525060400191505060405180910390fd5b8360026004811115610b3957fe5b610b83826000809054906101000a900473ffffffffffffffffffffffffffffffffffffffff1673ffffffffffffffffffffffffffffffffffffffff166130ce90919063ffffffff16565b6004811115610b8e57fe5b6004811115610b9957fe5b141515610c34576040517f08c379a00000000000000000000000000000000000000000000000000000000081526004018080602001828103825260398152602001807f5468697320616374696f6e2063616e206f6e6c7920626520706572666f726d6581526020017f64206f6e2061207075626c69736865642070726f6a6563742e0000000000000081525060400191505060405180910390fd5b610c7e856000809054906101000a900473ffffffffffffffffffffffffffffffffffffffff1673ffffffffffffffffffffffffffffffffffffffff1661101b90919063ffffffff16565b151515610d19576040517f08c379a00000000000000000000000000000000000000000000000000000000081526004018080602001828103825260378152602001807f546865726520697320616c7265616479206120766f7465206f6e206d696c657381526020017f746f6e6520636f6d706c6574696f6e206163746976652e00000000000000000081525060400191505060405180910390fd5b610d63856000809054906101000a900473ffffffffffffffffffffffffffffffffffffffff1673ffffffffffffffffffffffffffffffffffffffff1661323390919063ffffffff16565b151515610e24576040517f08c379a00000000000000000000000000000000000000000000000000000000081526004018080602001828103825260558152602001807f43616e6e6f74207375626d6974206d696c6573746f6e6520636f6d706c65746981526020017f6f6e20696620746865726520697320616e2061637469766520766f746520746f81526020017f206368616e6765207468652074696d656c696e652e000000000000000000000081525060600191505060405180910390fd5b610eaf854260008088888080601f016020809104026020016040519081016040528093929190818152602001838380828437820191505050505050600160008060009054906101000a900473ffffffffffffffffffffffffffffffffffffffff1673ffffffffffffffffffffffffffffffffffffffff166133be90979695949392919063ffffffff16565b5050505050565b60008273ffffffffffffffffffffffffffffffffffffffff166321f8a7218360405160200180807f70726f6a6563742e646576656c6f7065720000000000000000000000000000008152506011018281526020019150506040516020818303038152906040526040518082805190602001908083835b602083101515610f515780518252602082019150602081019050602083039250610f2c565b6001836020036101000a03801982511681845116808217855250505050505090500191505060405180910390206040518263ffffffff167c0100000000000000000000000000000000000000000000000000000000028152600401808260001916600019168152602001915050602060405180830381600087803b158015610fd857600080fd5b505af1158015610fec573d6000803e3d6000fd5b505050506040513d602081101561100257600080fd5b8101908080519060200190929190505050905092915050565b60008273ffffffffffffffffffffffffffffffffffffffff16637ae1cfca8360405160200180807f70726f6a6563742e6d696c6573746f6e65436f6d706c6574696f6e5375626d6981526020017f7373696f6e2e6973416374697665000000000000000000000000000000000000815250602e018281526020019150506040516020818303038152906040526040518082805190602001908083835b6020831015156110dc57805182526020820191506020810190506020830392506110b7565b6001836020036101000a03801982511681845116808217855250505050505090500191505060405180910390206040518263ffffffff167c0100000000000000000000000000000000000000000000000000000000028152600401808260001916600019168152602001915050602060405180830381600087803b15801561116357600080fd5b505af1158015611177573d6000803e3d6000fd5b505050506040513d602081101561118d57600080fd5b8101908080519060200190929190505050905092915050565b60008060008060008060006111fb886000809054906101000a900473ffffffffffffffffffffffffffffffffffffffff1673ffffffffffffffffffffffffffffffffffffffff1661340a90919063ffffffff16565b9550611247886000809054906101000a900473ffffffffffffffffffffffffffffffffffffffff1673ffffffffffffffffffffffffffffffffffffffff16611f6990919063ffffffff16565b945062127500611297896000809054906101000a900473ffffffffffffffffffffffffffffffffffffffff1673ffffffffffffffffffffffffffffffffffffffff1661359590919063ffffffff16565b0142101593506064604b87028115156112ac57fe5b048511806112b75750835b1515611377576040517f08c379a000000000000000000000000000000000000000000000000000000000815260040180806020018281038252604a8152602001807f436f6e646974696f6e7320666f722066696e616c697a696e67206d696c65737481526020017f6f6e6520636f6d706c6574696f6e2068617665206e6f7420796574206265656e81526020017f2061636869657665642e0000000000000000000000000000000000000000000081525060600191505060405180910390fd5b6113c1886000809054906101000a900473ffffffffffffffffffffffffffffffffffffffff1673ffffffffffffffffffffffffffffffffffffffff1661225f90919063ffffffff16565b925082850191506064604b83028115156113d757fe5b0490508085119650505050505050919050565b6000806113f5615c8f565b6113fd615c8f565b611447856000809054906101000a900473ffffffffffffffffffffffffffffffffffffffff1673ffffffffffffffffffffffffffffffffffffffff1661372090919063ffffffff16565b9350611498858560016000809054906101000a900473ffffffffffffffffffffffffffffffffffffffff1673ffffffffffffffffffffffffffffffffffffffff16613885909392919063ffffffff16565b6114e58560008060009054906101000a900473ffffffffffffffffffffffffffffffffffffffff1673ffffffffffffffffffffffffffffffffffffffff166139fd9092919063ffffffff16565b61152f856000809054906101000a900473ffffffffffffffffffffffffffffffffffffffff1673ffffffffffffffffffffffffffffffffffffffff16613b6c90919063ffffffff16565b925061157d85856000809054906101000a900473ffffffffffffffffffffffffffffffffffffffff1673ffffffffffffffffffffffffffffffffffffffff16613cf79092919063ffffffff16565b91506115e3858484600001518560200151866040015187606001516000809054906101000a900473ffffffffffffffffffffffffffffffffffffffff1673ffffffffffffffffffffffffffffffffffffffff16614611909695949392919063ffffffff16565b61163285600185016000809054906101000a900473ffffffffffffffffffffffffffffffffffffffff1673ffffffffffffffffffffffffffffffffffffffff1661464a9092919063ffffffff16565b6000809054906101000a900473ffffffffffffffffffffffffffffffffffffffff1673ffffffffffffffffffffffffffffffffffffffff1673__ProjectHelpersLibrary_________________63c064263a9091876040518363ffffffff167c0100000000000000000000000000000000000000000000000000000000028152600401808373ffffffffffffffffffffffffffffffffffffffff1673ffffffffffffffffffffffffffffffffffffffff1681526020018281526020019250505060006040518083038186803b15801561170a57600080fd5b505af415801561171e573d6000803e3d6000fd5b50505050600161176e866000809054906101000a900473ffffffffffffffffffffffffffffffffffffffff1673ffffffffffffffffffffffffffffffffffffffff166147b590919063ffffffff16565b03841015611916576117c885856001019550856000809054906101000a900473ffffffffffffffffffffffffffffffffffffffff1673ffffffffffffffffffffffffffffffffffffffff1661491a9092919063ffffffff16565b61181485856000809054906101000a900473ffffffffffffffffffffffffffffffffffffffff1673ffffffffffffffffffffffffffffffffffffffff16613cf79092919063ffffffff16565b9050611860856000809054906101000a900473ffffffffffffffffffffffffffffffffffffffff1673ffffffffffffffffffffffffffffffffffffffff16613b6c90919063ffffffff16565b92506118c6858483600001518460200151856040015186606001516000809054906101000a900473ffffffffffffffffffffffffffffffffffffffff1673ffffffffffffffffffffffffffffffffffffffff16614a5f909695949392919063ffffffff16565b61191585600185016000809054906101000a900473ffffffffffffffffffffffffffffffffffffffff1673ffffffffffffffffffffffffffffffffffffffff16614a989092919063ffffffff16565b5b5050505050565b8273ffffffffffffffffffffffffffffffffffffffff1663abfdcced8360405160200180807f70726f6a6563742e6d696c6573746f6e65436f6d706c6574696f6e5375626d6981526020017f7373696f6e2e6861734661696c65640000000000000000000000000000000000815250602f018281526020019150506040516020818303038152906040526040518082805190602001908083835b6020831015156119dc57805182526020820191506020810190506020830392506119b7565b6001836020036101000a0380198251168184511680821785525050505050509050019150506040518091039020836040518363ffffffff167c01000000000000000000000000000000000000000000000000000000000281526004018083600019166000191681526020018215151515815260200192505050600060405180830381600087803b158015611a6f57600080fd5b505af1158015611a83573d6000803e3d6000fd5b50505050505050565b60008273ffffffffffffffffffffffffffffffffffffffff1663bd02d0f58360405160200180807f636f6e747269627574696f6e2e636f6e7472696275746f724d61700000000000815250601b018273ffffffffffffffffffffffffffffffffffffffff1673ffffffffffffffffffffffffffffffffffffffff166c010000000000000000000000000281526014019150506040516020818303038152906040526040518082805190602001908083835b602083101515611b625780518252602082019150602081019050602083039250611b3d565b6001836020036101000a03801982511681845116808217855250505050505090500191505060405180910390206040518263ffffffff167c0100000000000000000000000000000000000000000000000000000000028152600401808260001916600019168152602001915050602060405180830381600087803b158015611be957600080fd5b505af1158015611bfd573d6000803e3d6000fd5b505050506040513d6020811015611c1357600080fd5b8101908080519060200190929190505050905092915050565b60008373ffffffffffffffffffffffffffffffffffffffff16637ae1cfca848460405160200180807f636f6e7472696275746f722e636f6e7472696275746573546f50726f6a656374815250602001838152602001828152602001925050506040516020818303038152906040526040518082805190602001908083835b602083101515611ccf5780518252602082019150602081019050602083039250611caa565b6001836020036101000a03801982511681845116808217855250505050505090500191505060405180910390206040518263ffffffff167c0100000000000000000000000000000000000000000000000000000000028152600401808260001916600019168152602001915050602060405180830381600087803b158015611d5657600080fd5b505af1158015611d6a573d6000803e3d6000fd5b505050506040513d6020811015611d8057600080fd5b810190808051906020019092919050505090509392505050565b60008373ffffffffffffffffffffffffffffffffffffffff16637ae1cfca838560405160200180807f70726f6a6563742e6d696c6573746f6e65436f6d706c6574696f6e5375626d6981526020017f7373696f6e2e766f746572730000000000000000000000000000000000000000815250602c018373ffffffffffffffffffffffffffffffffffffffff1673ffffffffffffffffffffffffffffffffffffffff166c01000000000000000000000000028152601401828152602001925050506040516020818303038152906040526040518082805190602001908083835b602083101515611e9e5780518252602082019150602081019050602083039250611e79565b6001836020036101000a03801982511681845116808217855250505050505090500191505060405180910390206040518263ffffffff167c0100000000000000000000000000000000000000000000000000000000028152600401808260001916600019168152602001915050602060405180830381600087803b158015611f2557600080fd5b505af1158015611f39573d6000803e3d6000fd5b505050506040513d6020811015611f4f57600080fd5b810190808051906020019092919050505090509392505050565b60008273ffffffffffffffffffffffffffffffffffffffff1663bd02d0f58360405160200180807f70726f6a6563742e6d696c6573746f6e65436f6d706c6574696f6e5375626d6981526020017f7373696f6e2e617070726f76616c436f756e74000000000000000000000000008152506033018281526020019150506040516020818303038152906040526040518082805190602001908083835b60208310151561202a5780518252602082019150602081019050602083039250612005565b6001836020036101000a03801982511681845116808217855250505050505090500191505060405180910390206040518263ffffffff167c0100000000000000000000000000000000000000000000000000000000028152600401808260001916600019168152602001915050602060405180830381600087803b1580156120b157600080fd5b505af11580156120c5573d6000803e3d6000fd5b505050506040513d60208110156120db57600080fd5b8101908080519060200190929190505050905092915050565b8273ffffffffffffffffffffffffffffffffffffffff1663e2a4853a8360405160200180807f70726f6a6563742e6d696c6573746f6e65436f6d706c6574696f6e5375626d6981526020017f7373696f6e2e617070726f76616c436f756e74000000000000000000000000008152506033018281526020019150506040516020818303038152906040526040518082805190602001908083835b6020831015156121b3578051825260208201915060208101905060208303925061218e565b6001836020036101000a0380198251168184511680821785525050505050509050019150506040518091039020836040518363ffffffff167c010000000000000000000000000000000000000000000000000000000002815260040180836000191660001916815260200182815260200192505050600060405180830381600087803b15801561224257600080fd5b505af1158015612256573d6000803e3d6000fd5b50505050505050565b60008273ffffffffffffffffffffffffffffffffffffffff1663bd02d0f58360405160200180807f70726f6a6563742e6d696c6573746f6e65436f6d706c6574696f6e5375626d6981526020017f7373696f6e2e646973617070726f76616c436f756e74000000000000000000008152506036018281526020019150506040516020818303038152906040526040518082805190602001908083835b60208310151561232057805182526020820191506020810190506020830392506122fb565b6001836020036101000a03801982511681845116808217855250505050505090500191505060405180910390206040518263ffffffff167c0100000000000000000000000000000000000000000000000000000000028152600401808260001916600019168152602001915050602060405180830381600087803b1580156123a757600080fd5b505af11580156123bb573d6000803e3d6000fd5b505050506040513d60208110156123d157600080fd5b8101908080519060200190929190505050905092915050565b8273ffffffffffffffffffffffffffffffffffffffff1663e2a4853a8360405160200180807f70726f6a6563742e6d696c6573746f6e65436f6d706c6574696f6e5375626d6981526020017f7373696f6e2e646973617070726f76616c436f756e74000000000000000000008152506036018281526020019150506040516020818303038152906040526040518082805190602001908083835b6020831015156124a95780518252602082019150602081019050602083039250612484565b6001836020036101000a0380198251168184511680821785525050505050509050019150506040518091039020836040518363ffffffff167c010000000000000000000000000000000000000000000000000000000002815260040180836000191660001916815260200182815260200192505050600060405180830381600087803b15801561253857600080fd5b505af115801561254c573d6000803e3d6000fd5b50505050505050565b8373ffffffffffffffffffffffffffffffffffffffff1663abfdcced838560405160200180807f70726f6a6563742e6d696c6573746f6e65436f6d706c6574696f6e5375626d6981526020017f7373696f6e2e766f746572730000000000000000000000000000000000000000815250602c018373ffffffffffffffffffffffffffffffffffffffff1673ffffffffffffffffffffffffffffffffffffffff166c01000000000000000000000000028152601401828152602001925050506040516020818303038152906040526040518082805190602001908083835b6020831015156126575780518252602082019150602081019050602083039250612632565b6001836020036101000a0380198251168184511680821785525050505050509050019150506040518091039020836040518363ffffffff167c01000000000000000000000000000000000000000000000000000000000281526004018083600019166000191681526020018215151515815260200192505050600060405180830381600087803b1580156126ea57600080fd5b505af11580156126fe573d6000803e3d6000fd5b5050505050505050565b612710615c54565b60008060006060600080612722615c54565b8973ffffffffffffffffffffffffffffffffffffffff1663bd02d0f58a60405160200180807f70726f6a6563742e6d696c6573746f6e65436f6d706c6574696f6e5375626d6981526020017f7373696f6e2e74696d657374616d700000000000000000000000000000000000815250602f018281526020019150506040516020818303038152906040526040518082805190602001908083835b6020831015156127e157805182526020820191506020810190506020830392506127bc565b6001836020036101000a03801982511681845116808217855250505050505090500191505060405180910390206040518263ffffffff167c0100000000000000000000000000000000000000000000000000000000028152600401808260001916600019168152602001915050602060405180830381600087803b15801561286857600080fd5b505af115801561287c573d6000803e3d6000fd5b505050506040513d602081101561289257600080fd5b810190808051906020019092919050505096508973ffffffffffffffffffffffffffffffffffffffff1663bd02d0f58a60405160200180807f70726f6a6563742e6d696c6573746f6e65436f6d706c6574696f6e5375626d6981526020017f7373696f6e2e617070726f76616c436f756e74000000000000000000000000008152506033018281526020019150506040516020818303038152906040526040518082805190602001908083835b602083101515612964578051825260208201915060208101905060208303925061293f565b6001836020036101000a03801982511681845116808217855250505050505090500191505060405180910390206040518263ffffffff167c0100000000000000000000000000000000000000000000000000000000028152600401808260001916600019168152602001915050602060405180830381600087803b1580156129eb57600080fd5b505af11580156129ff573d6000803e3d6000fd5b505050506040513d6020811015612a1557600080fd5b810190808051906020019092919050505095508973ffffffffffffffffffffffffffffffffffffffff1663bd02d0f58a60405160200180807f70726f6a6563742e6d696c6573746f6e65436f6d706c6574696f6e5375626d6981526020017f7373696f6e2e646973617070726f76616c436f756e74000000000000000000008152506036018281526020019150506040516020818303038152906040526040518082805190602001908083835b602083101515612ae75780518252602082019150602081019050602083039250612ac2565b6001836020036101000a03801982511681845116808217855250505050505090500191505060405180910390206040518263ffffffff167c0100000000000000000000000000000000000000000000000000000000028152600401808260001916600019168152602001915050602060405180830381600087803b158015612b6e57600080fd5b505af1158015612b82573d6000803e3d6000fd5b505050506040513d6020811015612b9857600080fd5b810190808051906020019092919050505094508973ffffffffffffffffffffffffffffffffffffffff1663986e791a8a60405160200180807f70726f6a6563742e6d696c6573746f6e65436f6d706c6574696f6e5375626d6981526020017f7373696f6e2e7265706f72740000000000000000000000000000000000000000815250602c018281526020019150506040516020818303038152906040526040518082805190602001908083835b602083101515612c6a5780518252602082019150602081019050602083039250612c45565b6001836020036101000a03801982511681845116808217855250505050505090500191505060405180910390206040518263ffffffff167c0100000000000000000000000000000000000000000000000000000000028152600401808260001916600019168152602001915050600060405180830381600087803b158015612cf157600080fd5b505af1158015612d05573d6000803e3d6000fd5b505050506040513d6000823e3d601f19601f820116820180604052506020811015612d2f57600080fd5b810190808051640100000000811115612d4757600080fd5b82810190506020810184811115612d5d57600080fd5b8151856001820283011164010000000082111715612d7a57600080fd5b505092919050505093508973ffffffffffffffffffffffffffffffffffffffff16637ae1cfca8a60405160200180807f70726f6a6563742e6d696c6573746f6e65436f6d706c6574696f6e5375626d6981526020017f7373696f6e2e6973416374697665000000000000000000000000000000000000815250602e018281526020019150506040516020818303038152906040526040518082805190602001908083835b602083101515612e435780518252602082019150602081019050602083039250612e1e565b6001836020036101000a03801982511681845116808217855250505050505090500191505060405180910390206040518263ffffffff167c0100000000000000000000000000000000000000000000000000000000028152600401808260001916600019168152602001915050602060405180830381600087803b158015612eca57600080fd5b505af1158015612ede573d6000803e3d6000fd5b505050506040513d6020811015612ef457600080fd5b810190808051906020019092919050505092508973ffffffffffffffffffffffffffffffffffffffff16637ae1cfca8a60405160200180807f70726f6a6563742e6d696c6573746f6e65436f6d706c6574696f6e5375626d6981526020017f7373696f6e2e6861734661696c65640000000000000000000000000000000000815250602f018281526020019150506040516020818303038152906040526040518082805190602001908083835b602083101515612fc65780518252602082019150602081019050602083039250612fa1565b6001836020036101000a03801982511681845116808217855250505050505090500191505060405180910390206040518263ffffffff167c0100000000000000000000000000000000000000000000000000000000028152600401808260001916600019168152602001915050602060405180830381600087803b15801561304d57600080fd5b505af1158015613061573d6000803e3d6000fd5b505050506040513d602081101561307757600080fd5b8101908080519060200190929190505050915060c060405190810160405280888152602001878152602001868152602001858152602001841515815260200183151581525090508097505050505050505092915050565b60008273ffffffffffffffffffffffffffffffffffffffff1663bd02d0f58360405160200180807f70726f6a6563742e737461747573000000000000000000000000000000000000815250600e018281526020019150506040516020818303038152906040526040518082805190602001908083835b6020831015156131695780518252602082019150602081019050602083039250613144565b6001836020036101000a03801982511681845116808217855250505050505090500191505060405180910390206040518263ffffffff167c0100000000000000000000000000000000000000000000000000000000028152600401808260001916600019168152602001915050602060405180830381600087803b1580156131f057600080fd5b505af1158015613204573d6000803e3d6000fd5b505050506040513d602081101561321a57600080fd5b8101908080519060200190929190505050905092915050565b60008273ffffffffffffffffffffffffffffffffffffffff16637ae1cfca8360405160200180807f70726f6a6563742e74696d656c696e6550726f706f73616c2e6973416374697681526020017f65000000000000000000000000000000000000000000000000000000000000008152506021018281526020019150506040516020818303038152906040526040518082805190602001908083835b6020831015156132f457805182526020820191506020810190506020830392506132cf565b6001836020036101000a03801982511681845116808217855250505050505090500191505060405180910390206040518263ffffffff167c0100000000000000000000000000000000000000000000000000000000028152600401808260001916600019168152602001915050602060405180830381600087803b15801561337b57600080fd5b505af115801561338f573d6000803e3d6000fd5b505050506040513d60208110156133a557600080fd5b8101908080519060200190929190505050905092915050565b6133c9888888614bdd565b6133d48888876120f4565b6133df8888866123ea565b6133ea888885614d48565b6133f58888846139fd565b61340088888361191d565b5050505050505050565b60008273ffffffffffffffffffffffffffffffffffffffff1663bd02d0f58360405160200180807f636f6e747269627574696f6e2e636f6e7472696275746f724c6973742e6c656e81526020017f67746800000000000000000000000000000000000000000000000000000000008152506023018281526020019150506040516020818303038152906040526040518082805190602001908083835b6020831015156134cb57805182526020820191506020810190506020830392506134a6565b6001836020036101000a03801982511681845116808217855250505050505090500191505060405180910390206040518263ffffffff167c0100000000000000000000000000000000000000000000000000000000028152600401808260001916600019168152602001915050602060405180830381600087803b15801561355257600080fd5b505af1158015613566573d6000803e3d6000fd5b505050506040513d602081101561357c57600080fd5b8101908080519060200190929190505050905092915050565b60008273ffffffffffffffffffffffffffffffffffffffff1663bd02d0f58360405160200180807f70726f6a6563742e6d696c6573746f6e65436f6d706c6574696f6e5375626d6981526020017f7373696f6e2e74696d657374616d700000000000000000000000000000000000815250602f018281526020019150506040516020818303038152906040526040518082805190602001908083835b6020831015156136565780518252602082019150602081019050602083039250613631565b6001836020036101000a03801982511681845116808217855250505050505090500191505060405180910390206040518263ffffffff167c0100000000000000000000000000000000000000000000000000000000028152600401808260001916600019168152602001915050602060405180830381600087803b1580156136dd57600080fd5b505af11580156136f1573d6000803e3d6000fd5b505050506040513d602081101561370757600080fd5b8101908080519060200190929190505050905092915050565b60008273ffffffffffffffffffffffffffffffffffffffff1663bd02d0f58360405160200180807f70726f6a6563742e6163746976654d696c6573746f6e65496e64657800000000815250601c018281526020019150506040516020818303038152906040526040518082805190602001908083835b6020831015156137bb5780518252602082019150602081019050602083039250613796565b6001836020036101000a03801982511681845116808217855250505050505090500191505060405180910390206040518263ffffffff167c0100000000000000000000000000000000000000000000000000000000028152600401808260001916600019168152602001915050602060405180830381600087803b15801561384257600080fd5b505af1158015613856573d6000803e3d6000fd5b505050506040513d602081101561386c57600080fd5b8101908080519060200190929190505050905092915050565b8373ffffffffffffffffffffffffffffffffffffffff1663abfdcced838560405160200180807f70726f6a6563742e74696d656c696e652e6d696c6573746f6e65732e6973436f81526020017f6d706c6574650000000000000000000000000000000000000000000000000000815250602601838152602001828152602001925050506040516020818303038152906040526040518082805190602001908083835b60208310151561394c5780518252602082019150602081019050602083039250613927565b6001836020036101000a0380198251168184511680821785525050505050509050019150506040518091039020836040518363ffffffff167c01000000000000000000000000000000000000000000000000000000000281526004018083600019166000191681526020018215151515815260200192505050600060405180830381600087803b1580156139df57600080fd5b505af11580156139f3573d6000803e3d6000fd5b5050505050505050565b8273ffffffffffffffffffffffffffffffffffffffff1663abfdcced8360405160200180807f70726f6a6563742e6d696c6573746f6e65436f6d706c6574696f6e5375626d6981526020017f7373696f6e2e6973416374697665000000000000000000000000000000000000815250602e018281526020019150506040516020818303038152906040526040518082805190602001908083835b602083101515613abc5780518252602082019150602081019050602083039250613a97565b6001836020036101000a0380198251168184511680821785525050505050509050019150506040518091039020836040518363ffffffff167c01000000000000000000000000000000000000000000000000000000000281526004018083600019166000191681526020018215151515815260200192505050600060405180830381600087803b158015613b4f57600080fd5b505af1158015613b63573d6000803e3d6000fd5b50505050505050565b60008273ffffffffffffffffffffffffffffffffffffffff1663bd02d0f58360405160200180807f70726f6a6563742e636f6d706c657465644d696c6573746f6e65732e6c656e6781526020017f74680000000000000000000000000000000000000000000000000000000000008152506022018281526020019150506040516020818303038152906040526040518082805190602001908083835b602083101515613c2d5780518252602082019150602081019050602083039250613c08565b6001836020036101000a03801982511681845116808217855250505050505090500191505060405180910390206040518263ffffffff167c0100000000000000000000000000000000000000000000000000000000028152600401808260001916600019168152602001915050602060405180830381600087803b158015613cb457600080fd5b505af1158015613cc8573d6000803e3d6000fd5b505050506040513d6020811015613cde57600080fd5b8101908080519060200190929190505050905092915050565b613cff615c8f565b606080600080613d0d615c8f565b8873ffffffffffffffffffffffffffffffffffffffff1663bd02d0f58960405160200180807f70726f6a6563742e74696d656c696e652e6c656e6774680000000000000000008152506017018281526020019150506040516020818303038152906040526040518082805190602001908083835b602083101515613da65780518252602082019150602081019050602083039250613d81565b6001836020036101000a03801982511681845116808217855250505050505090500191505060405180910390206040518263ffffffff167c0100000000000000000000000000000000000000000000000000000000028152600401808260001916600019168152602001915050602060405180830381600087803b158015613e2d57600080fd5b505af1158015613e41573d6000803e3d6000fd5b505050506040513d6020811015613e5757600080fd5b810190808051906020019092919050505087101515613f04576040517f08c379a00000000000000000000000000000000000000000000000000000000081526004018080602001828103825260258152602001807f496e646578206973206f757473696465206f662061636365737369626c65207281526020017f616e67652e00000000000000000000000000000000000000000000000000000081525060400191505060405180910390fd5b8873ffffffffffffffffffffffffffffffffffffffff1663986e791a888a60405160200180807f70726f6a6563742e74696d656c696e652e6d696c6573746f6e65732e7469746c81526020017f6500000000000000000000000000000000000000000000000000000000000000815250602101838152602001828152602001925050506040516020818303038152906040526040518082805190602001908083835b602083101515613fcb5780518252602082019150602081019050602083039250613fa6565b6001836020036101000a03801982511681845116808217855250505050505090500191505060405180910390206040518263ffffffff167c0100000000000000000000000000000000000000000000000000000000028152600401808260001916600019168152602001915050600060405180830381600087803b15801561405257600080fd5b505af1158015614066573d6000803e3d6000fd5b505050506040513d6000823e3d601f19601f82011682018060405250602081101561409057600080fd5b8101908080516401000000008111156140a857600080fd5b828101905060208101848111156140be57600080fd5b81518560018202830111640100000000821117156140db57600080fd5b505092919050505094508873ffffffffffffffffffffffffffffffffffffffff1663986e791a888a60405160200180807f70726f6a6563742e74696d656c696e652e6d696c6573746f6e65732e6465736381526020017f72697074696f6e00000000000000000000000000000000000000000000000000815250602701838152602001828152602001925050506040516020818303038152906040526040518082805190602001908083835b6020831015156141ac5780518252602082019150602081019050602083039250614187565b6001836020036101000a03801982511681845116808217855250505050505090500191505060405180910390206040518263ffffffff167c0100000000000000000000000000000000000000000000000000000000028152600401808260001916600019168152602001915050600060405180830381600087803b15801561423357600080fd5b505af1158015614247573d6000803e3d6000fd5b505050506040513d6000823e3d601f19601f82011682018060405250602081101561427157600080fd5b81019080805164010000000081111561428957600080fd5b8281019050602081018481111561429f57600080fd5b81518560018202830111640100000000821117156142bc57600080fd5b505092919050505093508873ffffffffffffffffffffffffffffffffffffffff1663bd02d0f5888a60405160200180807f70726f6a6563742e74696d656c696e652e6d696c6573746f6e65732e7065726381526020017f656e746167650000000000000000000000000000000000000000000000000000815250602601838152602001828152602001925050506040516020818303038152906040526040518082805190602001908083835b60208310151561438d5780518252602082019150602081019050602083039250614368565b6001836020036101000a03801982511681845116808217855250505050505090500191505060405180910390206040518263ffffffff167c0100000000000000000000000000000000000000000000000000000000028152600401808260001916600019168152602001915050602060405180830381600087803b15801561441457600080fd5b505af1158015614428573d6000803e3d6000fd5b505050506040513d602081101561443e57600080fd5b810190808051906020019092919050505092508873ffffffffffffffffffffffffffffffffffffffff16637ae1cfca888a60405160200180807f70726f6a6563742e74696d656c696e652e6d696c6573746f6e65732e6973436f81526020017f6d706c6574650000000000000000000000000000000000000000000000000000815250602601838152602001828152602001925050506040516020818303038152906040526040518082805190602001908083835b60208310151561451857805182526020820191506020810190506020830392506144f3565b6001836020036101000a03801982511681845116808217855250505050505090500191505060405180910390206040518263ffffffff167c0100000000000000000000000000000000000000000000000000000000028152600401808260001916600019168152602001915050602060405180830381600087803b15801561459f57600080fd5b505af11580156145b3573d6000803e3d6000fd5b505050506040513d60208110156145c957600080fd5b81019080805190602001909291905050509150608060405190810160405280868152602001858152602001848152602001831515815250905080955050505050509392505050565b61461d87878787614f18565b614629878787866150f1565b614635878787856152ca565b6146418787878461543e565b50505050505050565b8273ffffffffffffffffffffffffffffffffffffffff1663e2a4853a8360405160200180807f70726f6a6563742e636f6d706c657465644d696c6573746f6e65732e6c656e6781526020017f74680000000000000000000000000000000000000000000000000000000000008152506022018281526020019150506040516020818303038152906040526040518082805190602001908083835b60208310151561470957805182526020820191506020810190506020830392506146e4565b6001836020036101000a0380198251168184511680821785525050505050509050019150506040518091039020836040518363ffffffff167c010000000000000000000000000000000000000000000000000000000002815260040180836000191660001916815260200182815260200192505050600060405180830381600087803b15801561479857600080fd5b505af11580156147ac573d6000803e3d6000fd5b50505050505050565b60008273ffffffffffffffffffffffffffffffffffffffff1663bd02d0f58360405160200180807f70726f6a6563742e74696d656c696e652e6c656e6774680000000000000000008152506017018281526020019150506040516020818303038152906040526040518082805190602001908083835b602083101515614850578051825260208201915060208101905060208303925061482b565b6001836020036101000a03801982511681845116808217855250505050505090500191505060405180910390206040518263ffffffff167c0100000000000000000000000000000000000000000000000000000000028152600401808260001916600019168152602001915050602060405180830381600087803b1580156148d757600080fd5b505af11580156148eb573d6000803e3d6000fd5b505050506040513d602081101561490157600080fd5b8101908080519060200190929190505050905092915050565b8273ffffffffffffffffffffffffffffffffffffffff1663e2a4853a8360405160200180807f70726f6a6563742e6163746976654d696c6573746f6e65496e64657800000000815250601c018281526020019150506040516020818303038152906040526040518082805190602001908083835b6020831015156149b3578051825260208201915060208101905060208303925061498e565b6001836020036101000a0380198251168184511680821785525050505050509050019150506040518091039020836040518363ffffffff167c010000000000000000000000000000000000000000000000000000000002815260040180836000191660001916815260200182815260200192505050600060405180830381600087803b158015614a4257600080fd5b505af1158015614a56573d6000803e3d6000fd5b50505050505050565b614a6b878787876155b6565b614a778787878661578f565b614a8387878785615968565b614a8f87878784615adc565b50505050505050565b8273ffffffffffffffffffffffffffffffffffffffff1663e2a4853a8360405160200180807f70726f6a6563742e70656e64696e6754696d656c696e652e6c656e6774680000815250601e018281526020019150506040516020818303038152906040526040518082805190602001908083835b602083101515614b315780518252602082019150602081019050602083039250614b0c565b6001836020036101000a0380198251168184511680821785525050505050509050019150506040518091039020836040518363ffffffff167c010000000000000000000000000000000000000000000000000000000002815260040180836000191660001916815260200182815260200192505050600060405180830381600087803b158015614bc057600080fd5b505af1158015614bd4573d6000803e3d6000fd5b50505050505050565b8273ffffffffffffffffffffffffffffffffffffffff1663e2a4853a8360405160200180807f70726f6a6563742e6d696c6573746f6e65436f6d706c6574696f6e5375626d6981526020017f7373696f6e2e74696d657374616d700000000000000000000000000000000000815250602f018281526020019150506040516020818303038152906040526040518082805190602001908083835b602083101515614c9c5780518252602082019150602081019050602083039250614c77565b6001836020036101000a0380198251168184511680821785525050505050509050019150506040518091039020836040518363ffffffff167c010000000000000000000000000000000000000000000000000000000002815260040180836000191660001916815260200182815260200192505050600060405180830381600087803b158015614d2b57600080fd5b505af1158015614d3f573d6000803e3d6000fd5b50505050505050565b8273ffffffffffffffffffffffffffffffffffffffff16636e8995508360405160200180807f70726f6a6563742e6d696c6573746f6e65436f6d706c6574696f6e5375626d6981526020017f7373696f6e2e7265706f72740000000000000000000000000000000000000000815250602c018281526020019150506040516020818303038152906040526040518082805190602001908083835b602083101515614e075780518252602082019150602081019050602083039250614de2565b6001836020036101000a0380198251168184511680821785525050505050509050019150506040518091039020836040518363ffffffff167c010000000000000000000000000000000000000000000000000000000002815260040180836000191660001916815260200180602001828103825283818151815260200191508051906020019080838360005b83811015614eae578082015181840152602081019050614e93565b50505050905090810190601f168015614edb5780820380516001836020036101000a031916815260200191505b509350505050600060405180830381600087803b158015614efb57600080fd5b505af1158015614f0f573d6000803e3d6000fd5b50505050505050565b8373ffffffffffffffffffffffffffffffffffffffff16636e899550838560405160200180807f70726f6a6563742e636f6d706c657465644d696c6573746f6e65732e7469746c81526020017f6500000000000000000000000000000000000000000000000000000000000000815250602101838152602001828152602001925050506040516020818303038152906040526040518082805190602001908083835b602083101515614fdf5780518252602082019150602081019050602083039250614fba565b6001836020036101000a0380198251168184511680821785525050505050509050019150506040518091039020836040518363ffffffff167c010000000000000000000000000000000000000000000000000000000002815260040180836000191660001916815260200180602001828103825283818151815260200191508051906020019080838360005b8381101561508657808201518184015260208101905061506b565b50505050905090810190601f1680156150b35780820380516001836020036101000a031916815260200191505b509350505050600060405180830381600087803b1580156150d357600080fd5b505af11580156150e7573d6000803e3d6000fd5b5050505050505050565b8373ffffffffffffffffffffffffffffffffffffffff16636e899550838560405160200180807f70726f6a6563742e636f6d706c657465644d696c6573746f6e65732e6465736381526020017f72697074696f6e00000000000000000000000000000000000000000000000000815250602701838152602001828152602001925050506040516020818303038152906040526040518082805190602001908083835b6020831015156151b85780518252602082019150602081019050602083039250615193565b6001836020036101000a0380198251168184511680821785525050505050509050019150506040518091039020836040518363ffffffff167c010000000000000000000000000000000000000000000000000000000002815260040180836000191660001916815260200180602001828103825283818151815260200191508051906020019080838360005b8381101561525f578082015181840152602081019050615244565b50505050905090810190601f16801561528c5780820380516001836020036101000a031916815260200191505b509350505050600060405180830381600087803b1580156152ac57600080fd5b505af11580156152c0573d6000803e3d6000fd5b5050505050505050565b8373ffffffffffffffffffffffffffffffffffffffff1663e2a4853a838560405160200180807f70726f6a6563742e636f6d706c657465644d696c6573746f6e65732e7065726381526020017f656e746167650000000000000000000000000000000000000000000000000000815250602601838152602001828152602001925050506040516020818303038152906040526040518082805190602001908083835b602083101515615391578051825260208201915060208101905060208303925061536c565b6001836020036101000a0380198251168184511680821785525050505050509050019150506040518091039020836040518363ffffffff167c010000000000000000000000000000000000000000000000000000000002815260040180836000191660001916815260200182815260200192505050600060405180830381600087803b15801561542057600080fd5b505af1158015615434573d6000803e3d6000fd5b5050505050505050565b8373ffffffffffffffffffffffffffffffffffffffff1663abfdcced838560405160200180807f70726f6a6563742e636f6d706c657465644d696c6573746f6e65732e6973436f81526020017f6d706c6574650000000000000000000000000000000000000000000000000000815250602601838152602001828152602001925050506040516020818303038152906040526040518082805190602001908083835b60208310151561550557805182526020820191506020810190506020830392506154e0565b6001836020036101000a0380198251168184511680821785525050505050509050019150506040518091039020836040518363ffffffff167c01000000000000000000000000000000000000000000000000000000000281526004018083600019166000191681526020018215151515815260200192505050600060405180830381600087803b15801561559857600080fd5b505af11580156155ac573d6000803e3d6000fd5b5050505050505050565b8373ffffffffffffffffffffffffffffffffffffffff16636e899550838560405160200180807f70726f6a6563742e70656e64696e6754696d656c696e652e6d696c6573746f6e81526020017f65732e7469746c65000000000000000000000000000000000000000000000000815250602801838152602001828152602001925050506040516020818303038152906040526040518082805190602001908083835b60208310151561567d5780518252602082019150602081019050602083039250615658565b6001836020036101000a0380198251168184511680821785525050505050509050019150506040518091039020836040518363ffffffff167c010000000000000000000000000000000000000000000000000000000002815260040180836000191660001916815260200180602001828103825283818151815260200191508051906020019080838360005b83811015615724578082015181840152602081019050615709565b50505050905090810190601f1680156157515780820380516001836020036101000a031916815260200191505b509350505050600060405180830381600087803b15801561577157600080fd5b505af1158015615785573d6000803e3d6000fd5b5050505050505050565b8373ffffffffffffffffffffffffffffffffffffffff16636e899550838560405160200180807f70726f6a6563742e70656e64696e6754696d656c696e652e6d696c6573746f6e81526020017f65732e6465736372697074696f6e000000000000000000000000000000000000815250602e01838152602001828152602001925050506040516020818303038152906040526040518082805190602001908083835b6020831015156158565780518252602082019150602081019050602083039250615831565b6001836020036101000a0380198251168184511680821785525050505050509050019150506040518091039020836040518363ffffffff167c010000000000000000000000000000000000000000000000000000000002815260040180836000191660001916815260200180602001828103825283818151815260200191508051906020019080838360005b838110156158fd5780820151818401526020810190506158e2565b50505050905090810190601f16801561592a5780820380516001836020036101000a031916815260200191505b509350505050600060405180830381600087803b15801561594a57600080fd5b505af115801561595e573d6000803e3d6000fd5b5050505050505050565b8373ffffffffffffffffffffffffffffffffffffffff1663e2a4853a838560405160200180807f70726f6a6563742e70656e64696e6754696d656c696e652e6d696c6573746f6e81526020017f65732e70657263656e7461676500000000000000000000000000000000000000815250602d01838152602001828152602001925050506040516020818303038152906040526040518082805190602001908083835b602083101515615a2f5780518252602082019150602081019050602083039250615a0a565b6001836020036101000a0380198251168184511680821785525050505050509050019150506040518091039020836040518363ffffffff167c010000000000000000000000000000000000000000000000000000000002815260040180836000191660001916815260200182815260200192505050600060405180830381600087803b158015615abe57600080fd5b505af1158015615ad2573d6000803e3d6000fd5b5050505050505050565b8373ffffffffffffffffffffffffffffffffffffffff1663abfdcced838560405160200180807f70726f6a6563742e70656e64696e6754696d656c696e652e6d696c6573746f6e81526020017f65732e6973436f6d706c65746500000000000000000000000000000000000000815250602d01838152602001828152602001925050506040516020818303038152906040526040518082805190602001908083835b602083101515615ba35780518252602082019150602081019050602083039250615b7e565b6001836020036101000a0380198251168184511680821785525050505050509050019150506040518091039020836040518363ffffffff167c01000000000000000000000000000000000000000000000000000000000281526004018083600019166000191681526020018215151515815260200192505050600060405180830381600087803b158015615c3657600080fd5b505af1158015615c4a573d6000803e3d6000fd5b5050505050505050565b60c060405190810160405280600081526020016000815260200160008152602001606081526020016000151581526020016000151581525090565b60806040519081016040528060608152602001606081526020016000815260200160001515815250905600a165627a7a723058205de7ac13849a5aa78a16c12e415f9461c69ad216f15fd85cc14582cb9aa3457d0029",
  "source": "pragma solidity ^0.4.24;\n\nimport \"../FundingStorage.sol\";\nimport \"./ProjectBase.sol\";\nimport \"../Developer.sol\";\nimport \"../FundingVault.sol\";\nimport \"../libraries/project/ProjectHelpersLibrary.sol\";\n\ncontract ProjectMilestoneCompletion is ProjectBase {\n\n    using ProjectHelpersLibrary for address;\n\n    constructor(address _fundingStorage) public {\n        fundingStorage = _fundingStorage;\n    }\n\n    function submitMilestoneCompletion(uint _projectId, string _report) external onlyProjectDeveloper(_projectId) onlyPublishedProject(_projectId) {\n        // Can only submit for milestone completion if there is not already a vote on milestone completion\n        require(!fundingStorage.getMilestoneCompletionSubmissionIsActive(_projectId), \"There is already a vote on milestone completion active.\");\n        // Can only submit for milestone completion if there is not already a vote on a timeline proposal\n        require(!fundingStorage.getTimelineProposalIsActive(_projectId), \"Cannot submit milestone completion if there is an active vote to change the timeline.\");\n\n        fundingStorage.setMilestoneCompletionSubmission(_projectId, now, 0, 0, _report, true, false);\n    }\n\n    function voteOnMilestoneCompletion(uint _projectId, bool _approved) external onlyProjectContributor(_projectId) {\n        // MilestoneCompletionSubmission must be active\n        require(fundingStorage.getMilestoneCompletionSubmissionIsActive(_projectId), \"No vote on milestone completion active.\");\n\n        // Contributor must not have already voted\n        require(!fundingStorage.getMilestoneCompletionSubmissionHasVoted(_projectId, msg.sender), \"This contributor address has already voted.\");\n\n        if (_approved) {\n            uint currentApprovalCount = fundingStorage.getMilestoneCompletionSubmissionApprovalCount(_projectId);\n            fundingStorage.setMilestoneCompletionSubmissionApprovalCount(_projectId, currentApprovalCount + 1);\n        } else {\n            uint currentDisapprovalCount = fundingStorage.getMilestoneCompletionSubmissionDisapprovalCount(_projectId);\n            fundingStorage.setMilestoneCompletionSubmissionDisapprovalCount(_projectId, currentDisapprovalCount + 1);\n        }\n\n        fundingStorage.setMilestoneCompletionSubmissionHasVoted(_projectId, msg.sender, true);\n    }\n\n    function finalizeMilestoneCompletion(uint _projectId) external onlyProjectDeveloper(_projectId) {\n        // MilestoneCompletionSubmission must be active\n        require(fundingStorage.getMilestoneCompletionSubmissionIsActive(_projectId), \"No vote on milestone completion active.\");\n\n        if (hasPassedMilestoneCompletionVote(_projectId)) {\n            succeedMilestoneCompletion(_projectId);\n        } else {\n            // Set milestone completion submission has failed\n            fundingStorage.setMilestoneCompletionSubmissionHasFailed(_projectId, true);\n        }\n    }\n\n    function hasPassedMilestoneCompletionVote(uint _projectId) private view returns (bool) {\n        uint numContributors = fundingStorage.getProjectContributorListLength(_projectId);\n        uint approvalCount = fundingStorage.getMilestoneCompletionSubmissionApprovalCount(_projectId);\n        bool isTwoWeeksLater = now >= fundingStorage.getMilestoneCompletionSubmissionTimestamp(_projectId) + 2 weeks;\n\n        // Proposal needs >75% total approval, or for 2 days to have passed and >75% approval among voters\n        require(((approvalCount > numContributors * 75 / 100) || isTwoWeeksLater),\n            \"Conditions for finalizing milestone completion have not yet been achieved.\");\n\n        uint disapprovalCount = fundingStorage.getMilestoneCompletionSubmissionDisapprovalCount(_projectId);\n        uint numVoters = approvalCount + disapprovalCount;\n        uint votingThreshold = numVoters * 75 / 100;\n\n        return (approvalCount > votingThreshold);\n    }\n\n    function succeedMilestoneCompletion(uint _projectId) private {\n        uint activeIndex = fundingStorage.getActiveMilestoneIndex(_projectId);\n        fundingStorage.setTimelineMilestoneIsComplete(_projectId, activeIndex, true);\n\n        // Set milestone completion submission to inactive\n        fundingStorage.setMilestoneCompletionSubmissionIsActive(_projectId, false);\n\n        // Update completedMilestones, remove any pending milestones, and add the completed milestones + current active\n        // milestone to the start of the pending timeline. This is to ensure that any future timeline proposals take\n        // into account the milestones that have already released their funds.\n\n        // Add current milestone to completed milestones list\n        uint completedMilestonesLength = fundingStorage.getCompletedMilestonesLength(_projectId);\n\n        ProjectStorageAccess.Milestone memory activeMilestone = fundingStorage.getTimelineMilestone(_projectId, activeIndex);\n\n        fundingStorage.setCompletedMilestone(_projectId, completedMilestonesLength, activeMilestone.title, activeMilestone.description, activeMilestone.percentage, activeMilestone.isComplete);\n\n        fundingStorage.setCompletedMilestonesLength(_projectId, completedMilestonesLength + 1);\n\n        fundingStorage.moveCompletedMilestonesIntoPendingTimeline(_projectId);\n\n        // Increment active milestone and release funds if this was not the last milestone\n        if (activeIndex < fundingStorage.getTimelineLength(_projectId) - 1) {\n            // Increment the active milestone\n            fundingStorage.setActiveMilestoneIndex(_projectId, ++activeIndex);\n\n            // Add currently active milestone to pendingTimeline\n            ProjectStorageAccess.Milestone memory currentMilestone = fundingStorage.getTimelineMilestone(_projectId, activeIndex);\n            completedMilestonesLength = fundingStorage.getCompletedMilestonesLength(_projectId);\n\n            fundingStorage.setPendingTimelineMilestone(_projectId, completedMilestonesLength, currentMilestone.title, currentMilestone.description, currentMilestone.percentage, currentMilestone.isComplete);\n            fundingStorage.setPendingTimelineLength(_projectId, completedMilestonesLength + 1);\n\n            // TODO - transfer money for next milestone to developer\n        }\n    }\n\n    function getMilestoneCompletionSubmission(uint _projectId) external view returns (uint timestamp, uint approvalCount, uint disapprovalCount, string report, bool isActive, bool hasFailed) {\n        ProjectStorageAccess.MilestoneCompletionSubmission memory submission = fundingStorage.getMilestoneCompletionSubmission(_projectId);\n\n        return (submission.timestamp, submission.approvalCount, submission.disapprovalCount, submission.report, submission.isActive, submission.hasFailed);\n    }\n}\n",
  "sourcePath": "/home/jordan/Projects/hyperbridge/funding-protocol/smart-contracts/ethereum/contracts/project/ProjectMilestoneCompletion.sol",
  "compiler": {
    "name": "solc",
    "version": "0.4.24+commit.e67f0147.Emscripten.clang"
  },
  "schemaVersion": "2.0.1",
  "updatedAt": "2018-07-21T07:36:54.719Z"
}