{
  "contractName": "ProjectTimelineProposalVoting",
  "abi": [
    {
      "constant": false,
      "inputs": [
        {
          "name": "_time",
          "type": "uint256"
        }
      ],
      "name": "setTestTime",
      "outputs": [],
      "payable": false,
      "stateMutability": "nonpayable",
      "type": "function"
    },
    {
      "inputs": [
        {
          "name": "_fundingStorage",
          "type": "address"
        },
        {
          "name": "_inTest",
          "type": "bool"
        }
      ],
      "payable": false,
      "stateMutability": "nonpayable",
      "type": "constructor"
    },
    {
      "constant": false,
      "inputs": [
        {
          "name": "_projectId",
          "type": "uint256"
        },
        {
          "name": "_approved",
          "type": "bool"
        }
      ],
      "name": "vote",
      "outputs": [],
      "payable": false,
      "stateMutability": "nonpayable",
      "type": "function"
    },
    {
      "constant": false,
      "inputs": [
        {
          "name": "_projectId",
          "type": "uint256"
        }
      ],
      "name": "finalizeVoting",
      "outputs": [],
      "payable": false,
      "stateMutability": "nonpayable",
      "type": "function"
    }
  ],
  "bytecode": "0x608060405234801561001057600080fd5b50604051604080612329833981018060405281019080805190602001909291908051906020019092919050505080806000806101000a81548160ff0219169083151502179055505081600260006101000a81548173ffffffffffffffffffffffffffffffffffffffff021916908373ffffffffffffffffffffffffffffffffffffffff160217905550505061227f806100aa6000396000f300608060405260043610610057576000357c0100000000000000000000000000000000000000000000000000000000900463ffffffff168063097c74061461005c5780634944483114610089578063c9d27afe146100b6575b600080fd5b34801561006857600080fd5b50610087600480360381019080803590602001909291905050506100ef565b005b34801561009557600080fd5b506100b460048036038101908080359060200190929190505050610113565b005b3480156100c257600080fd5b506100ed6004803603810190808035906020019092919080351515906020019092919050505061037b565b005b6000809054906101000a900460ff16151561010957600080fd5b8060018190555050565b8061015f81600260009054906101000a900473ffffffffffffffffffffffffffffffffffffffff1673ffffffffffffffffffffffffffffffffffffffff1661089990919063ffffffff16565b73ffffffffffffffffffffffffffffffffffffffff163373ffffffffffffffffffffffffffffffffffffffff16141515610227576040517f08c379a00000000000000000000000000000000000000000000000000000000081526004018080602001828103825260398152602001807f596f75206d757374206265207468652070726f6a65637420646576656c6f706581526020017f7220746f20706572666f726d207468697320616374696f6e2e0000000000000081525060400191505060405180910390fd5b61027282600260009054906101000a900473ffffffffffffffffffffffffffffffffffffffff1673ffffffffffffffffffffffffffffffffffffffff166109fe90919063ffffffff16565b151561030c576040517f08c379a00000000000000000000000000000000000000000000000000000000081526004018080602001828103825260258152602001807f5468657265206973206e6f2074696d656c696e652070726f706f73616c20616381526020017f746976652e00000000000000000000000000000000000000000000000000000081525060400191505060405180910390fd5b61031582610b89565b156103285761032382610dd8565b610377565b610376826001600260009054906101000a900473ffffffffffffffffffffffffffffffffffffffff1673ffffffffffffffffffffffffffffffffffffffff1661100b9092919063ffffffff16565b5b5050565b6000808360006103cc33600260009054906101000a900473ffffffffffffffffffffffffffffffffffffffff1673ffffffffffffffffffffffffffffffffffffffff1661117a90919063ffffffff16565b90506000811415151561046d576040517f08c379a00000000000000000000000000000000000000000000000000000000081526004018080602001828103825260228152602001807f546869732061646472657373206973206e6f74206120636f6e7472696275746f81526020017f722e00000000000000000000000000000000000000000000000000000000000081525060400191505060405180910390fd5b6104ba8183600260009054906101000a900473ffffffffffffffffffffffffffffffffffffffff1673ffffffffffffffffffffffffffffffffffffffff1661131a9092919063ffffffff16565b1515610554576040517f08c379a00000000000000000000000000000000000000000000000000000000081526004018080602001828103825260328152602001807f546869732061646472657373206973206e6f74206120636f6e7472696275746f81526020017f7220746f20746869732070726f6a6563742e000000000000000000000000000081525060400191505060405180910390fd5b61059f86600260009054906101000a900473ffffffffffffffffffffffffffffffffffffffff1673ffffffffffffffffffffffffffffffffffffffff166109fe90919063ffffffff16565b1515610613576040517f08c379a000000000000000000000000000000000000000000000000000000000815260040180806020018281038252601c8152602001807f4e6f2074696d656c696e652070726f706f73616c206163746976652e0000000081525060200191505060405180910390fd5b6106608633600260009054906101000a900473ffffffffffffffffffffffffffffffffffffffff1673ffffffffffffffffffffffffffffffffffffffff166114889092919063ffffffff16565b1515156106fb576040517f08c379a000000000000000000000000000000000000000000000000000000000815260040180806020018281038252602b8152602001807f5468697320636f6e7472696275746f7220616464726573732068617320616c7281526020017f6561647920766f7465642e00000000000000000000000000000000000000000081525060400191505060405180910390fd5b84156107a35761074c86600260009054906101000a900473ffffffffffffffffffffffffffffffffffffffff1673ffffffffffffffffffffffffffffffffffffffff1661163190919063ffffffff16565b935061079e8660018601600260009054906101000a900473ffffffffffffffffffffffffffffffffffffffff1673ffffffffffffffffffffffffffffffffffffffff166117bc9092919063ffffffff16565b610841565b6107ee86600260009054906101000a900473ffffffffffffffffffffffffffffffffffffffff1673ffffffffffffffffffffffffffffffffffffffff1661192790919063ffffffff16565b92506108408660018501600260009054906101000a900473ffffffffffffffffffffffffffffffffffffffff1673ffffffffffffffffffffffffffffffffffffffff16611ab29092919063ffffffff16565b5b61089186336001600260009054906101000a900473ffffffffffffffffffffffffffffffffffffffff1673ffffffffffffffffffffffffffffffffffffffff16611c1d909392919063ffffffff16565b505050505050565b60008273ffffffffffffffffffffffffffffffffffffffff166321f8a7218360405160200180807f70726f6a6563742e646576656c6f7065720000000000000000000000000000008152506011018281526020019150506040516020818303038152906040526040518082805190602001908083835b602083101515610934578051825260208201915060208101905060208303925061090f565b6001836020036101000a03801982511681845116808217855250505050505090500191505060405180910390206040518263ffffffff167c0100000000000000000000000000000000000000000000000000000000028152600401808260001916600019168152602001915050602060405180830381600087803b1580156109bb57600080fd5b505af11580156109cf573d6000803e3d6000fd5b505050506040513d60208110156109e557600080fd5b8101908080519060200190929190505050905092915050565b60008273ffffffffffffffffffffffffffffffffffffffff16637ae1cfca8360405160200180807f70726f6a6563742e74696d656c696e6550726f706f73616c2e6973416374697681526020017f65000000000000000000000000000000000000000000000000000000000000008152506021018281526020019150506040516020818303038152906040526040518082805190602001908083835b602083101515610abf5780518252602082019150602081019050602083039250610a9a565b6001836020036101000a03801982511681845116808217855250505050505090500191505060405180910390206040518263ffffffff167c0100000000000000000000000000000000000000000000000000000000028152600401808260001916600019168152602001915050602060405180830381600087803b158015610b4657600080fd5b505af1158015610b5a573d6000803e3d6000fd5b505050506040513d6020811015610b7057600080fd5b8101908080519060200190929190505050905092915050565b6000806000806000806000610bdf88600260009054906101000a900473ffffffffffffffffffffffffffffffffffffffff1673ffffffffffffffffffffffffffffffffffffffff16611daa90919063ffffffff16565b9550610c2c88600260009054906101000a900473ffffffffffffffffffffffffffffffffffffffff1673ffffffffffffffffffffffffffffffffffffffff1661163190919063ffffffff16565b945062127500610c7d89600260009054906101000a900473ffffffffffffffffffffffffffffffffffffffff1673ffffffffffffffffffffffffffffffffffffffff16611f3590919063ffffffff16565b01610c866120c0565b101593506064604b8702811515610c9957fe5b04851180610ca45750835b1515610d64576040517f08c379a00000000000000000000000000000000000000000000000000000000081526004018080602001828103825260478152602001807f436f6e646974696f6e7320666f722066696e616c697a696e672074696d656c6981526020017f6e652070726f706f73616c2068617665206e6f7420796574206265656e20616381526020017f6869657665642e0000000000000000000000000000000000000000000000000081525060600191505060405180910390fd5b610daf88600260009054906101000a900473ffffffffffffffffffffffffffffffffffffffff1673ffffffffffffffffffffffffffffffffffffffff1661192790919063ffffffff16565b925082850191506064604b8302811515610dc557fe5b0490508085119650505050505050919050565b600260009054906101000a900473ffffffffffffffffffffffffffffffffffffffff1673ffffffffffffffffffffffffffffffffffffffff1673__ProjectTimelineHelpersLibrary_________63c6f114499091836040518363ffffffff167c0100000000000000000000000000000000000000000000000000000000028152600401808373ffffffffffffffffffffffffffffffffffffffff1673ffffffffffffffffffffffffffffffffffffffff1681526020018281526020019250505060006040518083038186803b158015610eb157600080fd5b505af4158015610ec5573d6000803e3d6000fd5b50505050600260009054906101000a900473ffffffffffffffffffffffffffffffffffffffff1673ffffffffffffffffffffffffffffffffffffffff1673__ProjectTimelineHelpersLibrary_________6331a26acf9091836040518363ffffffff167c0100000000000000000000000000000000000000000000000000000000028152600401808373ffffffffffffffffffffffffffffffffffffffff1673ffffffffffffffffffffffffffffffffffffffff1681526020018281526020019250505060006040518083038186803b158015610fa257600080fd5b505af4158015610fb6573d6000803e3d6000fd5b50505050611008816000600260009054906101000a900473ffffffffffffffffffffffffffffffffffffffff1673ffffffffffffffffffffffffffffffffffffffff166120e49092919063ffffffff16565b50565b8273ffffffffffffffffffffffffffffffffffffffff1663abfdcced8360405160200180807f70726f6a6563742e74696d656c696e6550726f706f73616c2e6861734661696c81526020017f65640000000000000000000000000000000000000000000000000000000000008152506022018281526020019150506040516020818303038152906040526040518082805190602001908083835b6020831015156110ca57805182526020820191506020810190506020830392506110a5565b6001836020036101000a0380198251168184511680821785525050505050509050019150506040518091039020836040518363ffffffff167c01000000000000000000000000000000000000000000000000000000000281526004018083600019166000191681526020018215151515815260200192505050600060405180830381600087803b15801561115d57600080fd5b505af1158015611171573d6000803e3d6000fd5b50505050505050565b60008273ffffffffffffffffffffffffffffffffffffffff1663bd02d0f58360405160200180807f636f6e747269627574696f6e2e636f6e7472696275746f724d61700000000000815250601b018273ffffffffffffffffffffffffffffffffffffffff1673ffffffffffffffffffffffffffffffffffffffff166c010000000000000000000000000281526014019150506040516020818303038152906040526040518082805190602001908083835b602083101515611250578051825260208201915060208101905060208303925061122b565b6001836020036101000a03801982511681845116808217855250505050505090500191505060405180910390206040518263ffffffff167c0100000000000000000000000000000000000000000000000000000000028152600401808260001916600019168152602001915050602060405180830381600087803b1580156112d757600080fd5b505af11580156112eb573d6000803e3d6000fd5b505050506040513d602081101561130157600080fd5b8101908080519060200190929190505050905092915050565b60008373ffffffffffffffffffffffffffffffffffffffff16637ae1cfca848460405160200180807f636f6e7472696275746f722e636f6e7472696275746573546f50726f6a656374815250602001838152602001828152602001925050506040516020818303038152906040526040518082805190602001908083835b6020831015156113bd5780518252602082019150602081019050602083039250611398565b6001836020036101000a03801982511681845116808217855250505050505090500191505060405180910390206040518263ffffffff167c0100000000000000000000000000000000000000000000000000000000028152600401808260001916600019168152602001915050602060405180830381600087803b15801561144457600080fd5b505af1158015611458573d6000803e3d6000fd5b505050506040513d602081101561146e57600080fd5b810190808051906020019092919050505090509392505050565b60008373ffffffffffffffffffffffffffffffffffffffff16637ae1cfca838560405160200180807f70726f6a6563742e74696d656c696e6550726f706f73616c2e766f7465727300815250601f018373ffffffffffffffffffffffffffffffffffffffff1673ffffffffffffffffffffffffffffffffffffffff166c01000000000000000000000000028152601401828152602001925050506040516020818303038152906040526040518082805190602001908083835b6020831015156115665780518252602082019150602081019050602083039250611541565b6001836020036101000a03801982511681845116808217855250505050505090500191505060405180910390206040518263ffffffff167c0100000000000000000000000000000000000000000000000000000000028152600401808260001916600019168152602001915050602060405180830381600087803b1580156115ed57600080fd5b505af1158015611601573d6000803e3d6000fd5b505050506040513d602081101561161757600080fd5b810190808051906020019092919050505090509392505050565b60008273ffffffffffffffffffffffffffffffffffffffff1663bd02d0f58360405160200180807f70726f6a6563742e74696d656c696e6550726f706f73616c2e617070726f766181526020017f6c436f756e7400000000000000000000000000000000000000000000000000008152506026018281526020019150506040516020818303038152906040526040518082805190602001908083835b6020831015156116f257805182526020820191506020810190506020830392506116cd565b6001836020036101000a03801982511681845116808217855250505050505090500191505060405180910390206040518263ffffffff167c0100000000000000000000000000000000000000000000000000000000028152600401808260001916600019168152602001915050602060405180830381600087803b15801561177957600080fd5b505af115801561178d573d6000803e3d6000fd5b505050506040513d60208110156117a357600080fd5b8101908080519060200190929190505050905092915050565b8273ffffffffffffffffffffffffffffffffffffffff1663e2a4853a8360405160200180807f70726f6a6563742e74696d656c696e6550726f706f73616c2e617070726f766181526020017f6c436f756e7400000000000000000000000000000000000000000000000000008152506026018281526020019150506040516020818303038152906040526040518082805190602001908083835b60208310151561187b5780518252602082019150602081019050602083039250611856565b6001836020036101000a0380198251168184511680821785525050505050509050019150506040518091039020836040518363ffffffff167c010000000000000000000000000000000000000000000000000000000002815260040180836000191660001916815260200182815260200192505050600060405180830381600087803b15801561190a57600080fd5b505af115801561191e573d6000803e3d6000fd5b50505050505050565b60008273ffffffffffffffffffffffffffffffffffffffff1663bd02d0f58360405160200180807f70726f6a6563742e74696d656c696e6550726f706f73616c2e6469736170707281526020017f6f76616c436f756e7400000000000000000000000000000000000000000000008152506029018281526020019150506040516020818303038152906040526040518082805190602001908083835b6020831015156119e857805182526020820191506020810190506020830392506119c3565b6001836020036101000a03801982511681845116808217855250505050505090500191505060405180910390206040518263ffffffff167c0100000000000000000000000000000000000000000000000000000000028152600401808260001916600019168152602001915050602060405180830381600087803b158015611a6f57600080fd5b505af1158015611a83573d6000803e3d6000fd5b505050506040513d6020811015611a9957600080fd5b8101908080519060200190929190505050905092915050565b8273ffffffffffffffffffffffffffffffffffffffff1663e2a4853a8360405160200180807f70726f6a6563742e74696d656c696e6550726f706f73616c2e6469736170707281526020017f6f76616c436f756e7400000000000000000000000000000000000000000000008152506029018281526020019150506040516020818303038152906040526040518082805190602001908083835b602083101515611b715780518252602082019150602081019050602083039250611b4c565b6001836020036101000a0380198251168184511680821785525050505050509050019150506040518091039020836040518363ffffffff167c010000000000000000000000000000000000000000000000000000000002815260040180836000191660001916815260200182815260200192505050600060405180830381600087803b158015611c0057600080fd5b505af1158015611c14573d6000803e3d6000fd5b50505050505050565b8373ffffffffffffffffffffffffffffffffffffffff1663abfdcced838560405160200180807f70726f6a6563742e74696d656c696e6550726f706f73616c2e766f7465727300815250601f018373ffffffffffffffffffffffffffffffffffffffff1673ffffffffffffffffffffffffffffffffffffffff166c01000000000000000000000000028152601401828152602001925050506040516020818303038152906040526040518082805190602001908083835b602083101515611cf95780518252602082019150602081019050602083039250611cd4565b6001836020036101000a0380198251168184511680821785525050505050509050019150506040518091039020836040518363ffffffff167c01000000000000000000000000000000000000000000000000000000000281526004018083600019166000191681526020018215151515815260200192505050600060405180830381600087803b158015611d8c57600080fd5b505af1158015611da0573d6000803e3d6000fd5b5050505050505050565b60008273ffffffffffffffffffffffffffffffffffffffff1663bd02d0f58360405160200180807f636f6e747269627574696f6e2e636f6e7472696275746f724c6973742e6c656e81526020017f67746800000000000000000000000000000000000000000000000000000000008152506023018281526020019150506040516020818303038152906040526040518082805190602001908083835b602083101515611e6b5780518252602082019150602081019050602083039250611e46565b6001836020036101000a03801982511681845116808217855250505050505090500191505060405180910390206040518263ffffffff167c0100000000000000000000000000000000000000000000000000000000028152600401808260001916600019168152602001915050602060405180830381600087803b158015611ef257600080fd5b505af1158015611f06573d6000803e3d6000fd5b505050506040513d6020811015611f1c57600080fd5b8101908080519060200190929190505050905092915050565b60008273ffffffffffffffffffffffffffffffffffffffff1663bd02d0f58360405160200180807f70726f6a6563742e74696d656c696e6550726f706f73616c2e74696d6573746181526020017f6d700000000000000000000000000000000000000000000000000000000000008152506022018281526020019150506040516020818303038152906040526040518082805190602001908083835b602083101515611ff65780518252602082019150602081019050602083039250611fd1565b6001836020036101000a03801982511681845116808217855250505050505090500191505060405180910390206040518263ffffffff167c0100000000000000000000000000000000000000000000000000000000028152600401808260001916600019168152602001915050602060405180830381600087803b15801561207d57600080fd5b505af1158015612091573d6000803e3d6000fd5b505050506040513d60208110156120a757600080fd5b8101908080519060200190929190505050905092915050565b60008060009054906101000a900460ff166120db57426120df565b6001545b905090565b8273ffffffffffffffffffffffffffffffffffffffff1663abfdcced8360405160200180807f70726f6a6563742e74696d656c696e6550726f706f73616c2e6973416374697681526020017f65000000000000000000000000000000000000000000000000000000000000008152506021018281526020019150506040516020818303038152906040526040518082805190602001908083835b6020831015156121a3578051825260208201915060208101905060208303925061217e565b6001836020036101000a0380198251168184511680821785525050505050509050019150506040518091039020836040518363ffffffff167c01000000000000000000000000000000000000000000000000000000000281526004018083600019166000191681526020018215151515815260200192505050600060405180830381600087803b15801561223657600080fd5b505af115801561224a573d6000803e3d6000fd5b505050505050505600a165627a7a7230582026709305fc8ff67643d9bade9ebb348e0964f02000813471abc3cb0b9441e1760029",
  "source": "pragma solidity ^0.4.24;\n\nimport \"../FundingStorage.sol\";\nimport \"./ProjectBase.sol\";\nimport \"../libraries/ProjectTimelineHelpersLibrary.sol\";\nimport \"../libraries/storage/ContributionStorageAccess.sol\";\nimport \"../IVoting.sol\";\n\ncontract ProjectTimelineProposalVoting is ProjectBase, IVoting {\n\n    using ProjectTimelineHelpersLibrary for address;\n    using ContributionStorageAccess for address;\n\n    modifier onlyProjectContributor(uint _projectId) {\n        uint contributorId = fundingStorage.getContributorId(msg.sender);\n        require(contributorId != 0, \"This address is not a contributor.\");\n        require(fundingStorage.getContributesToProject(contributorId, _projectId), \"This address is not a contributor to this project.\");\n        _;\n    }\n\n    constructor(address _fundingStorage, bool _inTest) public Testable(_inTest) {\n        fundingStorage = _fundingStorage;\n    }\n\n    function vote(uint _projectId, bool _approved) external onlyProjectContributor(_projectId) {\n        // TimelineProposal must be active\n        require(fundingStorage.getTimelineProposalIsActive(_projectId), \"No timeline proposal active.\");\n\n        // Contributor must not have already voted\n        require(!fundingStorage.getTimelineProposalHasVoted(_projectId, msg.sender), \"This contributor address has already voted.\");\n\n        if (_approved) {\n            uint currentApprovalCount = fundingStorage.getTimelineProposalApprovalCount(_projectId);\n            fundingStorage.setTimelineProposalApprovalCount(_projectId, currentApprovalCount + 1);\n        } else {\n            uint currentDisapprovalCount = fundingStorage.getTimelineProposalDisapprovalCount(_projectId);\n            fundingStorage.setTimelineProposalDisapprovalCount(_projectId, currentDisapprovalCount + 1);\n        }\n\n        fundingStorage.setTimelineProposalHasVoted(_projectId, msg.sender, true);\n    }\n\n    function finalizeVoting(uint _projectId) external onlyProjectDeveloper(_projectId) {\n        // TimelineProposal must be active\n        require(fundingStorage.getTimelineProposalIsActive(_projectId), \"There is no timeline proposal active.\");\n\n        if (hasPassedTimelineProposalVote(_projectId)) {\n            succeedTimelineProposal(_projectId);\n        } else {\n            // Timeline proposal has failed\n            fundingStorage.setTimelineProposalHasFailed(_projectId, true);\n        }\n    }\n\n    function hasPassedTimelineProposalVote(uint _projectId) private view returns (bool) {\n        uint numContributors = fundingStorage.getProjectContributorListLength(_projectId);\n        uint approvalCount = fundingStorage.getTimelineProposalApprovalCount(_projectId);\n        bool isTwoWeeksLater = getCurrentTime() >= fundingStorage.getTimelineProposalTimestamp(_projectId) + 2 weeks;\n\n        // Proposal needs >75% total approval, or for 2 weeks to have passed and >75% approval among voters\n        require(((approvalCount > numContributors * 75 / 100) || isTwoWeeksLater),\n            \"Conditions for finalizing timeline proposal have not yet been achieved.\");\n\n        uint disapprovalCount = fundingStorage.getTimelineProposalDisapprovalCount(_projectId);\n        uint numVoters = approvalCount + disapprovalCount;\n        uint votingThreshold = numVoters * 75 / 100;\n\n        return (approvalCount > votingThreshold);\n    }\n\n    function succeedTimelineProposal(uint _projectId) private {\n        // Push old timeline into timeline history\n        fundingStorage.moveTimelineIntoTimelineHistory(_projectId);\n\n        // Move pending timeline into timeline\n        fundingStorage.movePendingMilestonesIntoTimeline(_projectId);\n\n        // Set timeline proposal to inactive\n        fundingStorage.setTimelineProposalIsActive(_projectId, false);\n    }\n}\n",
  "sourcePath": "/home/jordan/Projects/hyperbridge/funding-protocol/smart-contracts/ethereum/contracts/project/ProjectTimelineProposalVoting.sol",
  "compiler": {
    "name": "solc",
    "version": "0.4.24+commit.e67f0147.Emscripten.clang"
  },
  "schemaVersion": "2.0.1",
  "updatedAt": "2018-07-26T16:56:23.151Z"
}