{
  "contractName": "ProjectTimelineProposal",
  "abi": [
    {
      "inputs": [
        {
          "name": "_fundingStorage",
          "type": "address"
        }
      ],
      "payable": false,
      "stateMutability": "nonpayable",
      "type": "constructor"
    },
    {
      "constant": false,
      "inputs": [
        {
          "name": "_projectId",
          "type": "uint256"
        }
      ],
      "name": "proposeNewTimeline",
      "outputs": [],
      "payable": false,
      "stateMutability": "nonpayable",
      "type": "function"
    },
    {
      "constant": false,
      "inputs": [
        {
          "name": "_projectId",
          "type": "uint256"
        },
        {
          "name": "_approved",
          "type": "bool"
        }
      ],
      "name": "voteOnTimelineProposal",
      "outputs": [],
      "payable": false,
      "stateMutability": "nonpayable",
      "type": "function"
    },
    {
      "constant": false,
      "inputs": [
        {
          "name": "_projectId",
          "type": "uint256"
        }
      ],
      "name": "finalizeTimelineProposal",
      "outputs": [],
      "payable": false,
      "stateMutability": "nonpayable",
      "type": "function"
    },
    {
      "constant": true,
      "inputs": [
        {
          "name": "_projectId",
          "type": "uint256"
        }
      ],
      "name": "getTimelineProposal",
      "outputs": [
        {
          "name": "timestamp",
          "type": "uint256"
        },
        {
          "name": "approvalCount",
          "type": "uint256"
        },
        {
          "name": "disapprovalCount",
          "type": "uint256"
        },
        {
          "name": "isActive",
          "type": "bool"
        },
        {
          "name": "hasFailed",
          "type": "bool"
        }
      ],
      "payable": false,
      "stateMutability": "view",
      "type": "function"
    }
  ],
  "bytecode": "0x608060405234801561001057600080fd5b506040516020806135ca83398101806040528101908080519060200190929190505050806000806101000a81548173ffffffffffffffffffffffffffffffffffffffff021916908373ffffffffffffffffffffffffffffffffffffffff16021790555050613547806100836000396000f300608060405260043610610062576000357c0100000000000000000000000000000000000000000000000000000000900463ffffffff1680631e3aafc2146100675780637cd88e7c146100cc578063a934343d146100f9578063f7efd51614610132575b600080fd5b34801561007357600080fd5b506100926004803603810190808035906020019092919050505061015f565b6040518086815260200185815260200184815260200183151515158152602001821515151581526020019550505050505060405180910390f35b3480156100d857600080fd5b506100f7600480360381019080803590602001909291905050506101e8565b005b34801561010557600080fd5b5061013060048036038101908080359060200190929190803515159060200190929190505050610766565b005b34801561013e57600080fd5b5061015d60048036038101908080359060200190929190505050610c7b565b005b600080600080600061016f6134e7565b6101b9876000809054906101000a900473ffffffffffffffffffffffffffffffffffffffff1673ffffffffffffffffffffffffffffffffffffffff16610ee090919063ffffffff16565b905080600001518160200151826040015183606001518460800151955095509550955095505091939590929450565b80610233816000809054906101000a900473ffffffffffffffffffffffffffffffffffffffff1673ffffffffffffffffffffffffffffffffffffffff166116c490919063ffffffff16565b73ffffffffffffffffffffffffffffffffffffffff163373ffffffffffffffffffffffffffffffffffffffff161415156102fb576040517f08c379a00000000000000000000000000000000000000000000000000000000081526004018080602001828103825260398152602001807f596f75206d757374206265207468652070726f6a65637420646576656c6f706581526020017f7220746f20706572666f726d207468697320616374696f6e2e0000000000000081525060400191505060405180910390fd5b816002600481111561030957fe5b610353826000809054906101000a900473ffffffffffffffffffffffffffffffffffffffff1673ffffffffffffffffffffffffffffffffffffffff1661182990919063ffffffff16565b600481111561035e57fe5b600481111561036957fe5b141515610404576040517f08c379a00000000000000000000000000000000000000000000000000000000081526004018080602001828103825260398152602001807f5468697320616374696f6e2063616e206f6e6c7920626520706572666f726d6581526020017f64206f6e2061207075626c69736865642070726f6a6563742e0000000000000081525060400191505060405180910390fd5b61044e836000809054906101000a900473ffffffffffffffffffffffffffffffffffffffff1673ffffffffffffffffffffffffffffffffffffffff1661198e90919063ffffffff16565b15151561050f576040517f08c379a00000000000000000000000000000000000000000000000000000000081526004018080602001828103825260508152602001807f4e65772074696d656c696e652063616e6e6f742062652070726f706f7365642081526020017f696620746865726520697320616c726561647920616e2061637469766520746981526020017f6d656c696e652070726f706f73616c2e0000000000000000000000000000000081525060600191505060405180910390fd5b610559836000809054906101000a900473ffffffffffffffffffffffffffffffffffffffff1673ffffffffffffffffffffffffffffffffffffffff16611b1990919063ffffffff16565b15151561061a576040517f08c379a00000000000000000000000000000000000000000000000000000000081526004018080602001828103825260538152602001807f4e65772074696d656c696e652063616e6e6f742062652070726f706f7365642081526020017f696620746865726520697320616e2061637469766520766f7465206f6e206d6981526020017f6c6573746f6e6520636f6d706c6574696f6e2e0000000000000000000000000081525060600191505060405180910390fd5b6000809054906101000a900473ffffffffffffffffffffffffffffffffffffffff1673ffffffffffffffffffffffffffffffffffffffff1673__ProjectHelpersLibrary_________________637b9ee6589091856040518363ffffffff167c0100000000000000000000000000000000000000000000000000000000028152600401808373ffffffffffffffffffffffffffffffffffffffff1673ffffffffffffffffffffffffffffffffffffffff1681526020018281526020019250505060006040518083038186803b1580156106f257600080fd5b505af4158015610706573d6000803e3d6000fd5b505050506107618342600080600160008060009054906101000a900473ffffffffffffffffffffffffffffffffffffffff1673ffffffffffffffffffffffffffffffffffffffff16611ca4909695949392919063ffffffff16565b505050565b6000808360006107b6336000809054906101000a900473ffffffffffffffffffffffffffffffffffffffff1673ffffffffffffffffffffffffffffffffffffffff16611ce490919063ffffffff16565b905060008114151515610857576040517f08c379a00000000000000000000000000000000000000000000000000000000081526004018080602001828103825260228152602001807f546869732061646472657373206973206e6f74206120636f6e7472696275746f81526020017f722e00000000000000000000000000000000000000000000000000000000000081525060400191505060405180910390fd5b6108a381836000809054906101000a900473ffffffffffffffffffffffffffffffffffffffff1673ffffffffffffffffffffffffffffffffffffffff16611e849092919063ffffffff16565b151561093d576040517f08c379a00000000000000000000000000000000000000000000000000000000081526004018080602001828103825260328152602001807f546869732061646472657373206973206e6f74206120636f6e7472696275746f81526020017f7220746f20746869732070726f6a6563742e000000000000000000000000000081525060400191505060405180910390fd5b610987866000809054906101000a900473ffffffffffffffffffffffffffffffffffffffff1673ffffffffffffffffffffffffffffffffffffffff1661198e90919063ffffffff16565b15156109fb576040517f08c379a000000000000000000000000000000000000000000000000000000000815260040180806020018281038252601c8152602001807f4e6f2074696d656c696e652070726f706f73616c206163746976652e0000000081525060200191505060405180910390fd5b610a4786336000809054906101000a900473ffffffffffffffffffffffffffffffffffffffff1673ffffffffffffffffffffffffffffffffffffffff16611ff29092919063ffffffff16565b151515610ae2576040517f08c379a000000000000000000000000000000000000000000000000000000000815260040180806020018281038252602b8152602001807f5468697320636f6e7472696275746f7220616464726573732068617320616c7281526020017f6561647920766f7465642e00000000000000000000000000000000000000000081525060400191505060405180910390fd5b8415610b8857610b32866000809054906101000a900473ffffffffffffffffffffffffffffffffffffffff1673ffffffffffffffffffffffffffffffffffffffff1661219b90919063ffffffff16565b9350610b8386600186016000809054906101000a900473ffffffffffffffffffffffffffffffffffffffff1673ffffffffffffffffffffffffffffffffffffffff166123269092919063ffffffff16565b610c24565b610bd2866000809054906101000a900473ffffffffffffffffffffffffffffffffffffffff1673ffffffffffffffffffffffffffffffffffffffff1661249190919063ffffffff16565b9250610c2386600185016000809054906101000a900473ffffffffffffffffffffffffffffffffffffffff1673ffffffffffffffffffffffffffffffffffffffff1661261c9092919063ffffffff16565b5b610c73863360016000809054906101000a900473ffffffffffffffffffffffffffffffffffffffff1673ffffffffffffffffffffffffffffffffffffffff16612787909392919063ffffffff16565b505050505050565b80610cc6816000809054906101000a900473ffffffffffffffffffffffffffffffffffffffff1673ffffffffffffffffffffffffffffffffffffffff166116c490919063ffffffff16565b73ffffffffffffffffffffffffffffffffffffffff163373ffffffffffffffffffffffffffffffffffffffff16141515610d8e576040517f08c379a00000000000000000000000000000000000000000000000000000000081526004018080602001828103825260398152602001807f596f75206d757374206265207468652070726f6a65637420646576656c6f706581526020017f7220746f20706572666f726d207468697320616374696f6e2e0000000000000081525060400191505060405180910390fd5b610dd8826000809054906101000a900473ffffffffffffffffffffffffffffffffffffffff1673ffffffffffffffffffffffffffffffffffffffff1661198e90919063ffffffff16565b1515610e72576040517f08c379a00000000000000000000000000000000000000000000000000000000081526004018080602001828103825260258152602001807f5468657265206973206e6f2074696d656c696e652070726f706f73616c20616381526020017f746976652e00000000000000000000000000000000000000000000000000000081525060400191505060405180910390fd5b610e7b82612914565b15610e8e57610e8982612b58565b610edc565b610edb8260016000809054906101000a900473ffffffffffffffffffffffffffffffffffffffff1673ffffffffffffffffffffffffffffffffffffffff16612d889092919063ffffffff16565b5b5050565b610ee86134e7565b6000806000806000610ef86134e7565b8873ffffffffffffffffffffffffffffffffffffffff1663bd02d0f58960405160200180807f70726f6a6563742e74696d656c696e6550726f706f73616c2e74696d6573746181526020017f6d700000000000000000000000000000000000000000000000000000000000008152506022018281526020019150506040516020818303038152906040526040518082805190602001908083835b602083101515610fb75780518252602082019150602081019050602083039250610f92565b6001836020036101000a03801982511681845116808217855250505050505090500191505060405180910390206040518263ffffffff167c0100000000000000000000000000000000000000000000000000000000028152600401808260001916600019168152602001915050602060405180830381600087803b15801561103e57600080fd5b505af1158015611052573d6000803e3d6000fd5b505050506040513d602081101561106857600080fd5b810190808051906020019092919050505095508873ffffffffffffffffffffffffffffffffffffffff1663bd02d0f58960405160200180807f70726f6a6563742e74696d656c696e6550726f706f73616c2e617070726f766181526020017f6c436f756e7400000000000000000000000000000000000000000000000000008152506026018281526020019150506040516020818303038152906040526040518082805190602001908083835b60208310151561113a5780518252602082019150602081019050602083039250611115565b6001836020036101000a03801982511681845116808217855250505050505090500191505060405180910390206040518263ffffffff167c0100000000000000000000000000000000000000000000000000000000028152600401808260001916600019168152602001915050602060405180830381600087803b1580156111c157600080fd5b505af11580156111d5573d6000803e3d6000fd5b505050506040513d60208110156111eb57600080fd5b810190808051906020019092919050505094508873ffffffffffffffffffffffffffffffffffffffff1663bd02d0f58960405160200180807f70726f6a6563742e74696d656c696e6550726f706f73616c2e6469736170707281526020017f6f76616c436f756e7400000000000000000000000000000000000000000000008152506029018281526020019150506040516020818303038152906040526040518082805190602001908083835b6020831015156112bd5780518252602082019150602081019050602083039250611298565b6001836020036101000a03801982511681845116808217855250505050505090500191505060405180910390206040518263ffffffff167c0100000000000000000000000000000000000000000000000000000000028152600401808260001916600019168152602001915050602060405180830381600087803b15801561134457600080fd5b505af1158015611358573d6000803e3d6000fd5b505050506040513d602081101561136e57600080fd5b810190808051906020019092919050505093508873ffffffffffffffffffffffffffffffffffffffff16637ae1cfca8960405160200180807f70726f6a6563742e74696d656c696e6550726f706f73616c2e6973416374697681526020017f65000000000000000000000000000000000000000000000000000000000000008152506021018281526020019150506040516020818303038152906040526040518082805190602001908083835b602083101515611440578051825260208201915060208101905060208303925061141b565b6001836020036101000a03801982511681845116808217855250505050505090500191505060405180910390206040518263ffffffff167c0100000000000000000000000000000000000000000000000000000000028152600401808260001916600019168152602001915050602060405180830381600087803b1580156114c757600080fd5b505af11580156114db573d6000803e3d6000fd5b505050506040513d60208110156114f157600080fd5b810190808051906020019092919050505092508873ffffffffffffffffffffffffffffffffffffffff16637ae1cfca8960405160200180807f70726f6a6563742e74696d656c696e6550726f706f73616c2e6861734661696c81526020017f65640000000000000000000000000000000000000000000000000000000000008152506022018281526020019150506040516020818303038152906040526040518082805190602001908083835b6020831015156115c3578051825260208201915060208101905060208303925061159e565b6001836020036101000a03801982511681845116808217855250505050505090500191505060405180910390206040518263ffffffff167c0100000000000000000000000000000000000000000000000000000000028152600401808260001916600019168152602001915050602060405180830381600087803b15801561164a57600080fd5b505af115801561165e573d6000803e3d6000fd5b505050506040513d602081101561167457600080fd5b8101908080519060200190929190505050915060a0604051908101604052808781526020018681526020018581526020018415158152602001831515815250905080965050505050505092915050565b60008273ffffffffffffffffffffffffffffffffffffffff166321f8a7218360405160200180807f70726f6a6563742e646576656c6f7065720000000000000000000000000000008152506011018281526020019150506040516020818303038152906040526040518082805190602001908083835b60208310151561175f578051825260208201915060208101905060208303925061173a565b6001836020036101000a03801982511681845116808217855250505050505090500191505060405180910390206040518263ffffffff167c0100000000000000000000000000000000000000000000000000000000028152600401808260001916600019168152602001915050602060405180830381600087803b1580156117e657600080fd5b505af11580156117fa573d6000803e3d6000fd5b505050506040513d602081101561181057600080fd5b8101908080519060200190929190505050905092915050565b60008273ffffffffffffffffffffffffffffffffffffffff1663bd02d0f58360405160200180807f70726f6a6563742e737461747573000000000000000000000000000000000000815250600e018281526020019150506040516020818303038152906040526040518082805190602001908083835b6020831015156118c4578051825260208201915060208101905060208303925061189f565b6001836020036101000a03801982511681845116808217855250505050505090500191505060405180910390206040518263ffffffff167c0100000000000000000000000000000000000000000000000000000000028152600401808260001916600019168152602001915050602060405180830381600087803b15801561194b57600080fd5b505af115801561195f573d6000803e3d6000fd5b505050506040513d602081101561197557600080fd5b8101908080519060200190929190505050905092915050565b60008273ffffffffffffffffffffffffffffffffffffffff16637ae1cfca8360405160200180807f70726f6a6563742e74696d656c696e6550726f706f73616c2e6973416374697681526020017f65000000000000000000000000000000000000000000000000000000000000008152506021018281526020019150506040516020818303038152906040526040518082805190602001908083835b602083101515611a4f5780518252602082019150602081019050602083039250611a2a565b6001836020036101000a03801982511681845116808217855250505050505090500191505060405180910390206040518263ffffffff167c0100000000000000000000000000000000000000000000000000000000028152600401808260001916600019168152602001915050602060405180830381600087803b158015611ad657600080fd5b505af1158015611aea573d6000803e3d6000fd5b505050506040513d6020811015611b0057600080fd5b8101908080519060200190929190505050905092915050565b60008273ffffffffffffffffffffffffffffffffffffffff16637ae1cfca8360405160200180807f70726f6a6563742e6d696c6573746f6e65436f6d706c6574696f6e5375626d6981526020017f7373696f6e2e6973416374697665000000000000000000000000000000000000815250602e018281526020019150506040516020818303038152906040526040518082805190602001908083835b602083101515611bda5780518252602082019150602081019050602083039250611bb5565b6001836020036101000a03801982511681845116808217855250505050505090500191505060405180910390206040518263ffffffff167c0100000000000000000000000000000000000000000000000000000000028152600401808260001916600019168152602001915050602060405180830381600087803b158015611c6157600080fd5b505af1158015611c75573d6000803e3d6000fd5b505050506040513d6020811015611c8b57600080fd5b8101908080519060200190929190505050905092915050565b611caf878787612ef7565b611cba878786612326565b611cc587878561261c565b611cd0878784613062565b611cdb878783612d88565b50505050505050565b60008273ffffffffffffffffffffffffffffffffffffffff1663bd02d0f58360405160200180807f636f6e747269627574696f6e2e636f6e7472696275746f724d61700000000000815250601b018273ffffffffffffffffffffffffffffffffffffffff1673ffffffffffffffffffffffffffffffffffffffff166c010000000000000000000000000281526014019150506040516020818303038152906040526040518082805190602001908083835b602083101515611dba5780518252602082019150602081019050602083039250611d95565b6001836020036101000a03801982511681845116808217855250505050505090500191505060405180910390206040518263ffffffff167c0100000000000000000000000000000000000000000000000000000000028152600401808260001916600019168152602001915050602060405180830381600087803b158015611e4157600080fd5b505af1158015611e55573d6000803e3d6000fd5b505050506040513d6020811015611e6b57600080fd5b8101908080519060200190929190505050905092915050565b60008373ffffffffffffffffffffffffffffffffffffffff16637ae1cfca848460405160200180807f636f6e7472696275746f722e636f6e7472696275746573546f50726f6a656374815250602001838152602001828152602001925050506040516020818303038152906040526040518082805190602001908083835b602083101515611f275780518252602082019150602081019050602083039250611f02565b6001836020036101000a03801982511681845116808217855250505050505090500191505060405180910390206040518263ffffffff167c0100000000000000000000000000000000000000000000000000000000028152600401808260001916600019168152602001915050602060405180830381600087803b158015611fae57600080fd5b505af1158015611fc2573d6000803e3d6000fd5b505050506040513d6020811015611fd857600080fd5b810190808051906020019092919050505090509392505050565b60008373ffffffffffffffffffffffffffffffffffffffff16637ae1cfca838560405160200180807f70726f6a6563742e74696d656c696e6550726f706f73616c2e766f7465727300815250601f018373ffffffffffffffffffffffffffffffffffffffff1673ffffffffffffffffffffffffffffffffffffffff166c01000000000000000000000000028152601401828152602001925050506040516020818303038152906040526040518082805190602001908083835b6020831015156120d057805182526020820191506020810190506020830392506120ab565b6001836020036101000a03801982511681845116808217855250505050505090500191505060405180910390206040518263ffffffff167c0100000000000000000000000000000000000000000000000000000000028152600401808260001916600019168152602001915050602060405180830381600087803b15801561215757600080fd5b505af115801561216b573d6000803e3d6000fd5b505050506040513d602081101561218157600080fd5b810190808051906020019092919050505090509392505050565b60008273ffffffffffffffffffffffffffffffffffffffff1663bd02d0f58360405160200180807f70726f6a6563742e74696d656c696e6550726f706f73616c2e617070726f766181526020017f6c436f756e7400000000000000000000000000000000000000000000000000008152506026018281526020019150506040516020818303038152906040526040518082805190602001908083835b60208310151561225c5780518252602082019150602081019050602083039250612237565b6001836020036101000a03801982511681845116808217855250505050505090500191505060405180910390206040518263ffffffff167c0100000000000000000000000000000000000000000000000000000000028152600401808260001916600019168152602001915050602060405180830381600087803b1580156122e357600080fd5b505af11580156122f7573d6000803e3d6000fd5b505050506040513d602081101561230d57600080fd5b8101908080519060200190929190505050905092915050565b8273ffffffffffffffffffffffffffffffffffffffff1663e2a4853a8360405160200180807f70726f6a6563742e74696d656c696e6550726f706f73616c2e617070726f766181526020017f6c436f756e7400000000000000000000000000000000000000000000000000008152506026018281526020019150506040516020818303038152906040526040518082805190602001908083835b6020831015156123e557805182526020820191506020810190506020830392506123c0565b6001836020036101000a0380198251168184511680821785525050505050509050019150506040518091039020836040518363ffffffff167c010000000000000000000000000000000000000000000000000000000002815260040180836000191660001916815260200182815260200192505050600060405180830381600087803b15801561247457600080fd5b505af1158015612488573d6000803e3d6000fd5b50505050505050565b60008273ffffffffffffffffffffffffffffffffffffffff1663bd02d0f58360405160200180807f70726f6a6563742e74696d656c696e6550726f706f73616c2e6469736170707281526020017f6f76616c436f756e7400000000000000000000000000000000000000000000008152506029018281526020019150506040516020818303038152906040526040518082805190602001908083835b602083101515612552578051825260208201915060208101905060208303925061252d565b6001836020036101000a03801982511681845116808217855250505050505090500191505060405180910390206040518263ffffffff167c0100000000000000000000000000000000000000000000000000000000028152600401808260001916600019168152602001915050602060405180830381600087803b1580156125d957600080fd5b505af11580156125ed573d6000803e3d6000fd5b505050506040513d602081101561260357600080fd5b8101908080519060200190929190505050905092915050565b8273ffffffffffffffffffffffffffffffffffffffff1663e2a4853a8360405160200180807f70726f6a6563742e74696d656c696e6550726f706f73616c2e6469736170707281526020017f6f76616c436f756e7400000000000000000000000000000000000000000000008152506029018281526020019150506040516020818303038152906040526040518082805190602001908083835b6020831015156126db57805182526020820191506020810190506020830392506126b6565b6001836020036101000a0380198251168184511680821785525050505050509050019150506040518091039020836040518363ffffffff167c010000000000000000000000000000000000000000000000000000000002815260040180836000191660001916815260200182815260200192505050600060405180830381600087803b15801561276a57600080fd5b505af115801561277e573d6000803e3d6000fd5b50505050505050565b8373ffffffffffffffffffffffffffffffffffffffff1663abfdcced838560405160200180807f70726f6a6563742e74696d656c696e6550726f706f73616c2e766f7465727300815250601f018373ffffffffffffffffffffffffffffffffffffffff1673ffffffffffffffffffffffffffffffffffffffff166c01000000000000000000000000028152601401828152602001925050506040516020818303038152906040526040518082805190602001908083835b602083101515612863578051825260208201915060208101905060208303925061283e565b6001836020036101000a0380198251168184511680821785525050505050509050019150506040518091039020836040518363ffffffff167c01000000000000000000000000000000000000000000000000000000000281526004018083600019166000191681526020018215151515815260200192505050600060405180830381600087803b1580156128f657600080fd5b505af115801561290a573d6000803e3d6000fd5b5050505050505050565b6000806000806000806000612969886000809054906101000a900473ffffffffffffffffffffffffffffffffffffffff1673ffffffffffffffffffffffffffffffffffffffff166131d190919063ffffffff16565b95506129b5886000809054906101000a900473ffffffffffffffffffffffffffffffffffffffff1673ffffffffffffffffffffffffffffffffffffffff1661219b90919063ffffffff16565b945062127500612a05896000809054906101000a900473ffffffffffffffffffffffffffffffffffffffff1673ffffffffffffffffffffffffffffffffffffffff1661335c90919063ffffffff16565b0142101593506064604b8702811515612a1a57fe5b04851180612a255750835b1515612ae5576040517f08c379a00000000000000000000000000000000000000000000000000000000081526004018080602001828103825260478152602001807f436f6e646974696f6e7320666f722066696e616c697a696e672074696d656c6981526020017f6e652070726f706f73616c2068617665206e6f7420796574206265656e20616381526020017f6869657665642e0000000000000000000000000000000000000000000000000081525060600191505060405180910390fd5b612b2f886000809054906101000a900473ffffffffffffffffffffffffffffffffffffffff1673ffffffffffffffffffffffffffffffffffffffff1661249190919063ffffffff16565b925082850191506064604b8302811515612b4557fe5b0490508085119650505050505050919050565b6000809054906101000a900473ffffffffffffffffffffffffffffffffffffffff1673ffffffffffffffffffffffffffffffffffffffff1673__ProjectHelpersLibrary_________________63c6f114499091836040518363ffffffff167c0100000000000000000000000000000000000000000000000000000000028152600401808373ffffffffffffffffffffffffffffffffffffffff1673ffffffffffffffffffffffffffffffffffffffff1681526020018281526020019250505060006040518083038186803b158015612c3057600080fd5b505af4158015612c44573d6000803e3d6000fd5b505050506000809054906101000a900473ffffffffffffffffffffffffffffffffffffffff1673ffffffffffffffffffffffffffffffffffffffff1673__ProjectHelpersLibrary_________________6331a26acf9091836040518363ffffffff167c0100000000000000000000000000000000000000000000000000000000028152600401808373ffffffffffffffffffffffffffffffffffffffff1673ffffffffffffffffffffffffffffffffffffffff1681526020018281526020019250505060006040518083038186803b158015612d2057600080fd5b505af4158015612d34573d6000803e3d6000fd5b50505050612d858160008060009054906101000a900473ffffffffffffffffffffffffffffffffffffffff1673ffffffffffffffffffffffffffffffffffffffff166130629092919063ffffffff16565b50565b8273ffffffffffffffffffffffffffffffffffffffff1663abfdcced8360405160200180807f70726f6a6563742e74696d656c696e6550726f706f73616c2e6861734661696c81526020017f65640000000000000000000000000000000000000000000000000000000000008152506022018281526020019150506040516020818303038152906040526040518082805190602001908083835b602083101515612e475780518252602082019150602081019050602083039250612e22565b6001836020036101000a0380198251168184511680821785525050505050509050019150506040518091039020836040518363ffffffff167c01000000000000000000000000000000000000000000000000000000000281526004018083600019166000191681526020018215151515815260200192505050600060405180830381600087803b158015612eda57600080fd5b505af1158015612eee573d6000803e3d6000fd5b50505050505050565b8273ffffffffffffffffffffffffffffffffffffffff1663e2a4853a8360405160200180807f70726f6a6563742e74696d656c696e6550726f706f73616c2e74696d6573746181526020017f6d700000000000000000000000000000000000000000000000000000000000008152506022018281526020019150506040516020818303038152906040526040518082805190602001908083835b602083101515612fb65780518252602082019150602081019050602083039250612f91565b6001836020036101000a0380198251168184511680821785525050505050509050019150506040518091039020836040518363ffffffff167c010000000000000000000000000000000000000000000000000000000002815260040180836000191660001916815260200182815260200192505050600060405180830381600087803b15801561304557600080fd5b505af1158015613059573d6000803e3d6000fd5b50505050505050565b8273ffffffffffffffffffffffffffffffffffffffff1663abfdcced8360405160200180807f70726f6a6563742e74696d656c696e6550726f706f73616c2e6973416374697681526020017f65000000000000000000000000000000000000000000000000000000000000008152506021018281526020019150506040516020818303038152906040526040518082805190602001908083835b60208310151561312157805182526020820191506020810190506020830392506130fc565b6001836020036101000a0380198251168184511680821785525050505050509050019150506040518091039020836040518363ffffffff167c01000000000000000000000000000000000000000000000000000000000281526004018083600019166000191681526020018215151515815260200192505050600060405180830381600087803b1580156131b457600080fd5b505af11580156131c8573d6000803e3d6000fd5b50505050505050565b60008273ffffffffffffffffffffffffffffffffffffffff1663bd02d0f58360405160200180807f636f6e747269627574696f6e2e636f6e7472696275746f724c6973742e6c656e81526020017f67746800000000000000000000000000000000000000000000000000000000008152506023018281526020019150506040516020818303038152906040526040518082805190602001908083835b602083101515613292578051825260208201915060208101905060208303925061326d565b6001836020036101000a03801982511681845116808217855250505050505090500191505060405180910390206040518263ffffffff167c0100000000000000000000000000000000000000000000000000000000028152600401808260001916600019168152602001915050602060405180830381600087803b15801561331957600080fd5b505af115801561332d573d6000803e3d6000fd5b505050506040513d602081101561334357600080fd5b8101908080519060200190929190505050905092915050565b60008273ffffffffffffffffffffffffffffffffffffffff1663bd02d0f58360405160200180807f70726f6a6563742e74696d656c696e6550726f706f73616c2e74696d6573746181526020017f6d700000000000000000000000000000000000000000000000000000000000008152506022018281526020019150506040516020818303038152906040526040518082805190602001908083835b60208310151561341d57805182526020820191506020810190506020830392506133f8565b6001836020036101000a03801982511681845116808217855250505050505090500191505060405180910390206040518263ffffffff167c0100000000000000000000000000000000000000000000000000000000028152600401808260001916600019168152602001915050602060405180830381600087803b1580156134a457600080fd5b505af11580156134b8573d6000803e3d6000fd5b505050506040513d60208110156134ce57600080fd5b8101908080519060200190929190505050905092915050565b60a06040519081016040528060008152602001600081526020016000815260200160001515815260200160001515815250905600a165627a7a723058205bba9da506a7995a17356c1d0b5d6eaec56aeaa94c546233a9c6cfc20295d6b50029",
  "source": "pragma solidity ^0.4.24;\n\nimport \"../FundingStorage.sol\";\nimport \"./ProjectBase.sol\";\nimport \"../libraries/project/ProjectHelpersLibrary.sol\";\n\ncontract ProjectTimelineProposal is ProjectBase {\n\n    using ProjectHelpersLibrary for address;\n\n    constructor(address _fundingStorage) public {\n        fundingStorage = _fundingStorage;\n    }\n\n    function proposeNewTimeline(uint _projectId) external onlyProjectDeveloper(_projectId) onlyPublishedProject(_projectId) {\n        // Can only suggest new timeline if there is not already a timeline proposal active\n        require(!fundingStorage.getTimelineProposalIsActive(_projectId), \"New timeline cannot be proposed if there is already an active timeline proposal.\");\n        // Can only suggest new timeline if there is not currently a vote on milestone completion\n        require(!fundingStorage.getMilestoneCompletionSubmissionIsActive(_projectId), \"New timeline cannot be proposed if there is an active vote on milestone completion.\");\n\n        fundingStorage.verifyPendingMilestones(_projectId);\n\n        fundingStorage.setTimelineProposal(_projectId, now, 0, 0, true, false);\n    }\n\n    function voteOnTimelineProposal(uint _projectId, bool _approved) external onlyProjectContributor(_projectId) {\n        // TimelineProposal must be active\n        require(fundingStorage.getTimelineProposalIsActive(_projectId), \"No timeline proposal active.\");\n\n        // Contributor must not have already voted\n        require(!fundingStorage.getTimelineProposalHasVoted(_projectId, msg.sender), \"This contributor address has already voted.\");\n\n        if (_approved) {\n            uint currentApprovalCount = fundingStorage.getTimelineProposalApprovalCount(_projectId);\n            fundingStorage.setTimelineProposalApprovalCount(_projectId, currentApprovalCount + 1);\n        } else {\n            uint currentDisapprovalCount = fundingStorage.getTimelineProposalDisapprovalCount(_projectId);\n            fundingStorage.setTimelineProposalDisapprovalCount(_projectId, currentDisapprovalCount + 1);\n        }\n\n        fundingStorage.setTimelineProposalHasVoted(_projectId, msg.sender, true);\n    }\n\n    function finalizeTimelineProposal(uint _projectId) external onlyProjectDeveloper(_projectId) {\n        // TimelineProposal must be active\n        require(fundingStorage.getTimelineProposalIsActive(_projectId), \"There is no timeline proposal active.\");\n\n        if (hasPassedTimelineProposalVote(_projectId)) {\n            succeedTimelineProposal(_projectId);\n        } else {\n            // Timeline proposal has failed\n            fundingStorage.setTimelineProposalHasFailed(_projectId, true);\n        }\n    }\n\n    function hasPassedTimelineProposalVote(uint _projectId) private view returns (bool) {\n        uint numContributors = fundingStorage.getProjectContributorListLength(_projectId);\n        uint approvalCount = fundingStorage.getTimelineProposalApprovalCount(_projectId);\n        bool isTwoWeeksLater = now >= fundingStorage.getTimelineProposalTimestamp(_projectId) + 2 weeks;\n\n        // Proposal needs >75% total approval, or for 2 weeks to have passed and >75% approval among voters\n        require(((approvalCount > numContributors * 75 / 100) || isTwoWeeksLater),\n            \"Conditions for finalizing timeline proposal have not yet been achieved.\");\n\n        uint disapprovalCount = fundingStorage.getTimelineProposalDisapprovalCount(_projectId);\n        uint numVoters = approvalCount + disapprovalCount;\n        uint votingThreshold = numVoters * 75 / 100;\n\n        return (approvalCount > votingThreshold);\n    }\n\n    function succeedTimelineProposal(uint _projectId) private {\n        // Push old timeline into timeline history\n        fundingStorage.moveTimelineIntoTimelineHistory(_projectId);\n\n        // Move pending timeline into timeline\n        fundingStorage.movePendingMilestonesIntoTimeline(_projectId);\n\n        // Set timeline proposal to inactive\n        fundingStorage.setTimelineProposalIsActive(_projectId, false);\n    }\n\n    function getTimelineProposal(uint _projectId) external view returns (uint timestamp, uint approvalCount, uint disapprovalCount, bool isActive, bool hasFailed) {\n        ProjectStorageAccess.TimelineProposal memory proposal = fundingStorage.getTimelineProposal(_projectId);\n\n        return (proposal.timestamp, proposal.approvalCount, proposal.disapprovalCount, proposal.isActive, proposal.hasFailed);\n    }\n}\n",
  "sourcePath": "/home/jordan/Projects/hyperbridge/funding-protocol/smart-contracts/ethereum/contracts/project/ProjectTimelineProposal.sol",
  "compiler": {
    "name": "solc",
    "version": "0.4.24+commit.e67f0147.Emscripten.clang"
  },
  "schemaVersion": "2.0.1",
  "updatedAt": "2018-07-21T07:36:54.733Z"
}