{
  "contractName": "ProjectTimelineHelpersLibrary",
  "abi": [
    {
      "constant": false,
      "inputs": [
        {
          "name": "_fundingStorage",
          "type": "address"
        },
        {
          "name": "_projectId",
          "type": "uint256"
        }
      ],
      "name": "moveTimelineIntoTimelineHistory",
      "outputs": [],
      "payable": false,
      "stateMutability": "nonpayable",
      "type": "function"
    },
    {
      "constant": false,
      "inputs": [
        {
          "name": "_fundingStorage",
          "type": "address"
        },
        {
          "name": "_projectId",
          "type": "uint256"
        }
      ],
      "name": "movePendingMilestonesIntoTimeline",
      "outputs": [],
      "payable": false,
      "stateMutability": "nonpayable",
      "type": "function"
    },
    {
      "constant": false,
      "inputs": [
        {
          "name": "_fundingStorage",
          "type": "address"
        },
        {
          "name": "_projectId",
          "type": "uint256"
        }
      ],
      "name": "moveCompletedMilestonesIntoPendingTimeline",
      "outputs": [],
      "payable": false,
      "stateMutability": "nonpayable",
      "type": "function"
    },
    {
      "constant": true,
      "inputs": [
        {
          "name": "_fundingStorage",
          "type": "address"
        },
        {
          "name": "_projectId",
          "type": "uint256"
        }
      ],
      "name": "verifyPendingMilestones",
      "outputs": [],
      "payable": false,
      "stateMutability": "view",
      "type": "function"
    },
    {
      "constant": false,
      "inputs": [
        {
          "name": "_fundingStorage",
          "type": "address"
        },
        {
          "name": "_projectId",
          "type": "uint256"
        },
        {
          "name": "_index",
          "type": "uint256"
        }
      ],
      "name": "releaseMilestoneFunds",
      "outputs": [],
      "payable": false,
      "stateMutability": "nonpayable",
      "type": "function"
    }
  ],
  "bytecode": "0x614ef362000031600b82828239805160001a6073146000811461002157610023565bfe5b5030600052607381538281f3007300000000000000000000000000000000000000003014608060405260043610610084576000357c0100000000000000000000000000000000000000000000000000000000900463ffffffff16806331a26acf146100895780633a8bbae5146100d65780637b9ee6581461012d578063c064263a1461016d578063c6f11449146101ba575b600080fd5b81801561009557600080fd5b506100d4600480360381019080803573ffffffffffffffffffffffffffffffffffffffff16906020019092919080359060200190929190505050610207565b005b8180156100e257600080fd5b5061012b600480360381019080803573ffffffffffffffffffffffffffffffffffffffff1690602001909291908035906020019092919080359060200190929190505050610325565b005b61016b600480360381019080803573ffffffffffffffffffffffffffffffffffffffff16906020019092919080359060200190929190505050610568565b005b81801561017957600080fd5b506101b8600480360381019080803573ffffffffffffffffffffffffffffffffffffffff1690602001909291908035906020019092919050505061072d565b005b8180156101c657600080fd5b50610205600480360381019080803573ffffffffffffffffffffffffffffffffffffffff1690602001909291908035906020019092919050505061081f565b005b600080610212614e9c565b61023b848673ffffffffffffffffffffffffffffffffffffffff1661099d90919063ffffffff16565b9250600091505b828210156102c75761027584838773ffffffffffffffffffffffffffffffffffffffff16610b029092919063ffffffff16565b90506102ba848383600001518460200151856040015186606001518b73ffffffffffffffffffffffffffffffffffffffff1661141c909695949392919063ffffffff16565b8180600101925050610242565b6102f284848773ffffffffffffffffffffffffffffffffffffffff166114559092919063ffffffff16565b61031e8460008773ffffffffffffffffffffffffffffffffffffffff1661159a9092919063ffffffff16565b5050505050565b600080600080600080610357888a73ffffffffffffffffffffffffffffffffffffffff166116df90919063ffffffff16565b955061038488888b73ffffffffffffffffffffffffffffffffffffffff166118449092919063ffffffff16565b9450606485870281151561039457fe5b0493506103c0888a73ffffffffffffffffffffffffffffffffffffffff16611bcf90919063ffffffff16565b92508891508173ffffffffffffffffffffffffffffffffffffffff166304433bbc6040518163ffffffff167c010000000000000000000000000000000000000000000000000000000002815260040180806020018281038252600c8152602001807f46756e64696e675661756c740000000000000000000000000000000000000000815250602001915050602060405180830381600087803b15801561046557600080fd5b505af1158015610479573d6000803e3d6000fd5b505050506040513d602081101561048f57600080fd5b810190808051906020019092919050505090508073ffffffffffffffffffffffffffffffffffffffff1663a158657c85856040518363ffffffff167c0100000000000000000000000000000000000000000000000000000000028152600401808381526020018273ffffffffffffffffffffffffffffffffffffffff1673ffffffffffffffffffffffffffffffffffffffff16815260200192505050600060405180830381600087803b15801561054557600080fd5b505af1158015610559573d6000803e3d6000fd5b50505050505050505050505050565b600080600080610597858773ffffffffffffffffffffffffffffffffffffffff1661099d90919063ffffffff16565b9350600084111515610637576040517f08c379a00000000000000000000000000000000000000000000000000000000081526004018080602001828103825260228152602001807f50726f6a65637420686173206e6f2070656e64696e67206d696c6573746f6e6581526020017f732e00000000000000000000000000000000000000000000000000000000000081525060400191505060405180910390fd5b60009250600091505b838210156106875761067385838873ffffffffffffffffffffffffffffffffffffffff16611d349092919063ffffffff16565b905080830192508180600101925050610640565b606483141515610725576040517f08c379a00000000000000000000000000000000000000000000000000000000081526004018080602001828103825260268152602001807f4d696c6573746f6e652070657263656e7461676573206d75737420616464207481526020017f6f203130302e000000000000000000000000000000000000000000000000000081525060400191505060405180910390fd5b505050505050565b600080610738614e9c565b610761848673ffffffffffffffffffffffffffffffffffffffff166120bf90919063ffffffff16565b9250600091505b828210156107ed5761079b84838773ffffffffffffffffffffffffffffffffffffffff1661224a9092919063ffffffff16565b90506107e0848383600001518460200151856040015186606001518b73ffffffffffffffffffffffffffffffffffffffff16612b8a909695949392919063ffffffff16565b8180600101925050610768565b61081884848773ffffffffffffffffffffffffffffffffffffffff1661159a9092919063ffffffff16565b5050505050565b600080600061082c614e9c565b610855858773ffffffffffffffffffffffffffffffffffffffff16612bc390919063ffffffff16565b9350610880858773ffffffffffffffffffffffffffffffffffffffff16612d2890919063ffffffff16565b9250600091505b8282101561090e576108ba85838873ffffffffffffffffffffffffffffffffffffffff16612e8d9092919063ffffffff16565b905061090185858484600001518560200151866040015187606001518d73ffffffffffffffffffffffffffffffffffffffff166137a790979695949392919063ffffffff16565b8180600101925050610887565b61093c85600186018873ffffffffffffffffffffffffffffffffffffffff166137e59092919063ffffffff16565b6109698585858973ffffffffffffffffffffffffffffffffffffffff1661392a909392919063ffffffff16565b6109958560008873ffffffffffffffffffffffffffffffffffffffff166114559092919063ffffffff16565b505050505050565b60008273ffffffffffffffffffffffffffffffffffffffff1663bd02d0f58360405160200180807f70726f6a6563742e70656e64696e6754696d656c696e652e6c656e6774680000815250601e018281526020019150506040516020818303038152906040526040518082805190602001908083835b602083101515610a385780518252602082019150602081019050602083039250610a13565b6001836020036101000a03801982511681845116808217855250505050505090500191505060405180910390206040518263ffffffff167c0100000000000000000000000000000000000000000000000000000000028152600401808260001916600019168152602001915050602060405180830381600087803b158015610abf57600080fd5b505af1158015610ad3573d6000803e3d6000fd5b505050506040513d6020811015610ae957600080fd5b8101908080519060200190929190505050905092915050565b610b0a614e9c565b606080600080610b18614e9c565b8873ffffffffffffffffffffffffffffffffffffffff1663bd02d0f58960405160200180807f70726f6a6563742e70656e64696e6754696d656c696e652e6c656e6774680000815250601e018281526020019150506040516020818303038152906040526040518082805190602001908083835b602083101515610bb15780518252602082019150602081019050602083039250610b8c565b6001836020036101000a03801982511681845116808217855250505050505090500191505060405180910390206040518263ffffffff167c0100000000000000000000000000000000000000000000000000000000028152600401808260001916600019168152602001915050602060405180830381600087803b158015610c3857600080fd5b505af1158015610c4c573d6000803e3d6000fd5b505050506040513d6020811015610c6257600080fd5b810190808051906020019092919050505087101515610d0f576040517f08c379a00000000000000000000000000000000000000000000000000000000081526004018080602001828103825260258152602001807f496e646578206973206f757473696465206f662061636365737369626c65207281526020017f616e67652e00000000000000000000000000000000000000000000000000000081525060400191505060405180910390fd5b8873ffffffffffffffffffffffffffffffffffffffff1663986e791a888a60405160200180807f70726f6a6563742e70656e64696e6754696d656c696e652e6d696c6573746f6e81526020017f65732e7469746c65000000000000000000000000000000000000000000000000815250602801838152602001828152602001925050506040516020818303038152906040526040518082805190602001908083835b602083101515610dd65780518252602082019150602081019050602083039250610db1565b6001836020036101000a03801982511681845116808217855250505050505090500191505060405180910390206040518263ffffffff167c0100000000000000000000000000000000000000000000000000000000028152600401808260001916600019168152602001915050600060405180830381600087803b158015610e5d57600080fd5b505af1158015610e71573d6000803e3d6000fd5b505050506040513d6000823e3d601f19601f820116820180604052506020811015610e9b57600080fd5b810190808051640100000000811115610eb357600080fd5b82810190506020810184811115610ec957600080fd5b8151856001820283011164010000000082111715610ee657600080fd5b505092919050505094508873ffffffffffffffffffffffffffffffffffffffff1663986e791a888a60405160200180807f70726f6a6563742e70656e64696e6754696d656c696e652e6d696c6573746f6e81526020017f65732e6465736372697074696f6e000000000000000000000000000000000000815250602e01838152602001828152602001925050506040516020818303038152906040526040518082805190602001908083835b602083101515610fb75780518252602082019150602081019050602083039250610f92565b6001836020036101000a03801982511681845116808217855250505050505090500191505060405180910390206040518263ffffffff167c0100000000000000000000000000000000000000000000000000000000028152600401808260001916600019168152602001915050600060405180830381600087803b15801561103e57600080fd5b505af1158015611052573d6000803e3d6000fd5b505050506040513d6000823e3d601f19601f82011682018060405250602081101561107c57600080fd5b81019080805164010000000081111561109457600080fd5b828101905060208101848111156110aa57600080fd5b81518560018202830111640100000000821117156110c757600080fd5b505092919050505093508873ffffffffffffffffffffffffffffffffffffffff1663bd02d0f5888a60405160200180807f70726f6a6563742e70656e64696e6754696d656c696e652e6d696c6573746f6e81526020017f65732e70657263656e7461676500000000000000000000000000000000000000815250602d01838152602001828152602001925050506040516020818303038152906040526040518082805190602001908083835b6020831015156111985780518252602082019150602081019050602083039250611173565b6001836020036101000a03801982511681845116808217855250505050505090500191505060405180910390206040518263ffffffff167c0100000000000000000000000000000000000000000000000000000000028152600401808260001916600019168152602001915050602060405180830381600087803b15801561121f57600080fd5b505af1158015611233573d6000803e3d6000fd5b505050506040513d602081101561124957600080fd5b810190808051906020019092919050505092508873ffffffffffffffffffffffffffffffffffffffff16637ae1cfca888a60405160200180807f70726f6a6563742e70656e64696e6754696d656c696e652e6d696c6573746f6e81526020017f65732e6973436f6d706c65746500000000000000000000000000000000000000815250602d01838152602001828152602001925050506040516020818303038152906040526040518082805190602001908083835b60208310151561132357805182526020820191506020810190506020830392506112fe565b6001836020036101000a03801982511681845116808217855250505050505090500191505060405180910390206040518263ffffffff167c0100000000000000000000000000000000000000000000000000000000028152600401808260001916600019168152602001915050602060405180830381600087803b1580156113aa57600080fd5b505af11580156113be573d6000803e3d6000fd5b505050506040513d60208110156113d457600080fd5b81019080805190602001909291905050509150608060405190810160405280868152602001858152602001848152602001831515815250905080955050505050509392505050565b61142887878787613a9e565b61143487878786613c77565b61144087878785613e50565b61144c87878784613fc4565b50505050505050565b8273ffffffffffffffffffffffffffffffffffffffff1663e2a4853a8360405160200180807f70726f6a6563742e74696d656c696e652e6c656e6774680000000000000000008152506017018281526020019150506040516020818303038152906040526040518082805190602001908083835b6020831015156114ee57805182526020820191506020810190506020830392506114c9565b6001836020036101000a0380198251168184511680821785525050505050509050019150506040518091039020836040518363ffffffff167c010000000000000000000000000000000000000000000000000000000002815260040180836000191660001916815260200182815260200192505050600060405180830381600087803b15801561157d57600080fd5b505af1158015611591573d6000803e3d6000fd5b50505050505050565b8273ffffffffffffffffffffffffffffffffffffffff1663e2a4853a8360405160200180807f70726f6a6563742e70656e64696e6754696d656c696e652e6c656e6774680000815250601e018281526020019150506040516020818303038152906040526040518082805190602001908083835b602083101515611633578051825260208201915060208101905060208303925061160e565b6001836020036101000a0380198251168184511680821785525050505050509050019150506040518091039020836040518363ffffffff167c010000000000000000000000000000000000000000000000000000000002815260040180836000191660001916815260200182815260200192505050600060405180830381600087803b1580156116c257600080fd5b505af11580156116d6573d6000803e3d6000fd5b50505050505050565b60008273ffffffffffffffffffffffffffffffffffffffff1663bd02d0f58360405160200180807f636f6e747269627574696f6e2e66756e647352616973656400000000000000008152506018018281526020019150506040516020818303038152906040526040518082805190602001908083835b60208310151561177a5780518252602082019150602081019050602083039250611755565b6001836020036101000a03801982511681845116808217855250505050505090500191505060405180910390206040518263ffffffff167c0100000000000000000000000000000000000000000000000000000000028152600401808260001916600019168152602001915050602060405180830381600087803b15801561180157600080fd5b505af1158015611815573d6000803e3d6000fd5b505050506040513d602081101561182b57600080fd5b8101908080519060200190929190505050905092915050565b60008373ffffffffffffffffffffffffffffffffffffffff1663bd02d0f58460405160200180807f70726f6a6563742e74696d656c696e652e6c656e6774680000000000000000008152506017018281526020019150506040516020818303038152906040526040518082805190602001908083835b6020831015156118df57805182526020820191506020810190506020830392506118ba565b6001836020036101000a03801982511681845116808217855250505050505090500191505060405180910390206040518263ffffffff167c0100000000000000000000000000000000000000000000000000000000028152600401808260001916600019168152602001915050602060405180830381600087803b15801561196657600080fd5b505af115801561197a573d6000803e3d6000fd5b505050506040513d602081101561199057600080fd5b810190808051906020019092919050505082101515611a3d576040517f08c379a00000000000000000000000000000000000000000000000000000000081526004018080602001828103825260258152602001807f496e646578206973206f757473696465206f662061636365737369626c65207281526020017f616e67652e00000000000000000000000000000000000000000000000000000081525060400191505060405180910390fd5b8373ffffffffffffffffffffffffffffffffffffffff1663bd02d0f5838560405160200180807f70726f6a6563742e74696d656c696e652e6d696c6573746f6e65732e7065726381526020017f656e746167650000000000000000000000000000000000000000000000000000815250602601838152602001828152602001925050506040516020818303038152906040526040518082805190602001908083835b602083101515611b045780518252602082019150602081019050602083039250611adf565b6001836020036101000a03801982511681845116808217855250505050505090500191505060405180910390206040518263ffffffff167c0100000000000000000000000000000000000000000000000000000000028152600401808260001916600019168152602001915050602060405180830381600087803b158015611b8b57600080fd5b505af1158015611b9f573d6000803e3d6000fd5b505050506040513d6020811015611bb557600080fd5b810190808051906020019092919050505090509392505050565b60008273ffffffffffffffffffffffffffffffffffffffff166321f8a7218360405160200180807f70726f6a6563742e646576656c6f7065720000000000000000000000000000008152506011018281526020019150506040516020818303038152906040526040518082805190602001908083835b602083101515611c6a5780518252602082019150602081019050602083039250611c45565b6001836020036101000a03801982511681845116808217855250505050505090500191505060405180910390206040518263ffffffff167c0100000000000000000000000000000000000000000000000000000000028152600401808260001916600019168152602001915050602060405180830381600087803b158015611cf157600080fd5b505af1158015611d05573d6000803e3d6000fd5b505050506040513d6020811015611d1b57600080fd5b8101908080519060200190929190505050905092915050565b60008373ffffffffffffffffffffffffffffffffffffffff1663bd02d0f58460405160200180807f70726f6a6563742e70656e64696e6754696d656c696e652e6c656e6774680000815250601e018281526020019150506040516020818303038152906040526040518082805190602001908083835b602083101515611dcf5780518252602082019150602081019050602083039250611daa565b6001836020036101000a03801982511681845116808217855250505050505090500191505060405180910390206040518263ffffffff167c0100000000000000000000000000000000000000000000000000000000028152600401808260001916600019168152602001915050602060405180830381600087803b158015611e5657600080fd5b505af1158015611e6a573d6000803e3d6000fd5b505050506040513d6020811015611e8057600080fd5b810190808051906020019092919050505082101515611f2d576040517f08c379a00000000000000000000000000000000000000000000000000000000081526004018080602001828103825260258152602001807f496e646578206973206f757473696465206f662061636365737369626c65207281526020017f616e67652e00000000000000000000000000000000000000000000000000000081525060400191505060405180910390fd5b8373ffffffffffffffffffffffffffffffffffffffff1663bd02d0f5838560405160200180807f70726f6a6563742e70656e64696e6754696d656c696e652e6d696c6573746f6e81526020017f65732e70657263656e7461676500000000000000000000000000000000000000815250602d01838152602001828152602001925050506040516020818303038152906040526040518082805190602001908083835b602083101515611ff45780518252602082019150602081019050602083039250611fcf565b6001836020036101000a03801982511681845116808217855250505050505090500191505060405180910390206040518263ffffffff167c0100000000000000000000000000000000000000000000000000000000028152600401808260001916600019168152602001915050602060405180830381600087803b15801561207b57600080fd5b505af115801561208f573d6000803e3d6000fd5b505050506040513d60208110156120a557600080fd5b810190808051906020019092919050505090509392505050565b60008273ffffffffffffffffffffffffffffffffffffffff1663bd02d0f58360405160200180807f70726f6a6563742e636f6d706c657465644d696c6573746f6e65732e6c656e6781526020017f74680000000000000000000000000000000000000000000000000000000000008152506022018281526020019150506040516020818303038152906040526040518082805190602001908083835b602083101515612180578051825260208201915060208101905060208303925061215b565b6001836020036101000a03801982511681845116808217855250505050505090500191505060405180910390206040518263ffffffff167c0100000000000000000000000000000000000000000000000000000000028152600401808260001916600019168152602001915050602060405180830381600087803b15801561220757600080fd5b505af115801561221b573d6000803e3d6000fd5b505050506040513d602081101561223157600080fd5b8101908080519060200190929190505050905092915050565b612252614e9c565b606080600080612260614e9c565b8873ffffffffffffffffffffffffffffffffffffffff1663bd02d0f58960405160200180807f70726f6a6563742e636f6d706c657465644d696c6573746f6e65732e6c656e6781526020017f74680000000000000000000000000000000000000000000000000000000000008152506022018281526020019150506040516020818303038152906040526040518082805190602001908083835b60208310151561231f57805182526020820191506020810190506020830392506122fa565b6001836020036101000a03801982511681845116808217855250505050505090500191505060405180910390206040518263ffffffff167c0100000000000000000000000000000000000000000000000000000000028152600401808260001916600019168152602001915050602060405180830381600087803b1580156123a657600080fd5b505af11580156123ba573d6000803e3d6000fd5b505050506040513d60208110156123d057600080fd5b81019080805190602001909291905050508710151561247d576040517f08c379a00000000000000000000000000000000000000000000000000000000081526004018080602001828103825260258152602001807f496e646578206973206f757473696465206f662061636365737369626c65207281526020017f616e67652e00000000000000000000000000000000000000000000000000000081525060400191505060405180910390fd5b8873ffffffffffffffffffffffffffffffffffffffff1663986e791a888a60405160200180807f70726f6a6563742e636f6d706c657465644d696c6573746f6e65732e7469746c81526020017f6500000000000000000000000000000000000000000000000000000000000000815250602101838152602001828152602001925050506040516020818303038152906040526040518082805190602001908083835b602083101515612544578051825260208201915060208101905060208303925061251f565b6001836020036101000a03801982511681845116808217855250505050505090500191505060405180910390206040518263ffffffff167c0100000000000000000000000000000000000000000000000000000000028152600401808260001916600019168152602001915050600060405180830381600087803b1580156125cb57600080fd5b505af11580156125df573d6000803e3d6000fd5b505050506040513d6000823e3d601f19601f82011682018060405250602081101561260957600080fd5b81019080805164010000000081111561262157600080fd5b8281019050602081018481111561263757600080fd5b815185600182028301116401000000008211171561265457600080fd5b505092919050505094508873ffffffffffffffffffffffffffffffffffffffff1663986e791a888a60405160200180807f70726f6a6563742e636f6d706c657465644d696c6573746f6e65732e6465736381526020017f72697074696f6e00000000000000000000000000000000000000000000000000815250602701838152602001828152602001925050506040516020818303038152906040526040518082805190602001908083835b6020831015156127255780518252602082019150602081019050602083039250612700565b6001836020036101000a03801982511681845116808217855250505050505090500191505060405180910390206040518263ffffffff167c0100000000000000000000000000000000000000000000000000000000028152600401808260001916600019168152602001915050600060405180830381600087803b1580156127ac57600080fd5b505af11580156127c0573d6000803e3d6000fd5b505050506040513d6000823e3d601f19601f8201168201806040525060208110156127ea57600080fd5b81019080805164010000000081111561280257600080fd5b8281019050602081018481111561281857600080fd5b815185600182028301116401000000008211171561283557600080fd5b505092919050505093508873ffffffffffffffffffffffffffffffffffffffff1663bd02d0f5888a60405160200180807f70726f6a6563742e636f6d706c657465644d696c6573746f6e65732e7065726381526020017f656e746167650000000000000000000000000000000000000000000000000000815250602601838152602001828152602001925050506040516020818303038152906040526040518082805190602001908083835b60208310151561290657805182526020820191506020810190506020830392506128e1565b6001836020036101000a03801982511681845116808217855250505050505090500191505060405180910390206040518263ffffffff167c0100000000000000000000000000000000000000000000000000000000028152600401808260001916600019168152602001915050602060405180830381600087803b15801561298d57600080fd5b505af11580156129a1573d6000803e3d6000fd5b505050506040513d60208110156129b757600080fd5b810190808051906020019092919050505092508873ffffffffffffffffffffffffffffffffffffffff16637ae1cfca888a60405160200180807f70726f6a6563742e636f6d706c657465644d696c6573746f6e65732e6973436f81526020017f6d706c6574650000000000000000000000000000000000000000000000000000815250602601838152602001828152602001925050506040516020818303038152906040526040518082805190602001908083835b602083101515612a915780518252602082019150602081019050602083039250612a6c565b6001836020036101000a03801982511681845116808217855250505050505090500191505060405180910390206040518263ffffffff167c0100000000000000000000000000000000000000000000000000000000028152600401808260001916600019168152602001915050602060405180830381600087803b158015612b1857600080fd5b505af1158015612b2c573d6000803e3d6000fd5b505050506040513d6020811015612b4257600080fd5b81019080805190602001909291905050509150608060405190810160405280868152602001858152602001848152602001831515815250905080955050505050509392505050565b612b968787878761413c565b612ba287878786614315565b612bae878787856144ee565b612bba87878784614662565b50505050505050565b60008273ffffffffffffffffffffffffffffffffffffffff1663bd02d0f58360405160200180807f70726f6a6563742e74696d656c696e65486973746f72792e6c656e6774680000815250601e018281526020019150506040516020818303038152906040526040518082805190602001908083835b602083101515612c5e5780518252602082019150602081019050602083039250612c39565b6001836020036101000a03801982511681845116808217855250505050505090500191505060405180910390206040518263ffffffff167c0100000000000000000000000000000000000000000000000000000000028152600401808260001916600019168152602001915050602060405180830381600087803b158015612ce557600080fd5b505af1158015612cf9573d6000803e3d6000fd5b505050506040513d6020811015612d0f57600080fd5b8101908080519060200190929190505050905092915050565b60008273ffffffffffffffffffffffffffffffffffffffff1663bd02d0f58360405160200180807f70726f6a6563742e74696d656c696e652e6c656e6774680000000000000000008152506017018281526020019150506040516020818303038152906040526040518082805190602001908083835b602083101515612dc35780518252602082019150602081019050602083039250612d9e565b6001836020036101000a03801982511681845116808217855250505050505090500191505060405180910390206040518263ffffffff167c0100000000000000000000000000000000000000000000000000000000028152600401808260001916600019168152602001915050602060405180830381600087803b158015612e4a57600080fd5b505af1158015612e5e573d6000803e3d6000fd5b505050506040513d6020811015612e7457600080fd5b8101908080519060200190929190505050905092915050565b612e95614e9c565b606080600080612ea3614e9c565b8873ffffffffffffffffffffffffffffffffffffffff1663bd02d0f58960405160200180807f70726f6a6563742e74696d656c696e652e6c656e6774680000000000000000008152506017018281526020019150506040516020818303038152906040526040518082805190602001908083835b602083101515612f3c5780518252602082019150602081019050602083039250612f17565b6001836020036101000a03801982511681845116808217855250505050505090500191505060405180910390206040518263ffffffff167c0100000000000000000000000000000000000000000000000000000000028152600401808260001916600019168152602001915050602060405180830381600087803b158015612fc357600080fd5b505af1158015612fd7573d6000803e3d6000fd5b505050506040513d6020811015612fed57600080fd5b81019080805190602001909291905050508710151561309a576040517f08c379a00000000000000000000000000000000000000000000000000000000081526004018080602001828103825260258152602001807f496e646578206973206f757473696465206f662061636365737369626c65207281526020017f616e67652e00000000000000000000000000000000000000000000000000000081525060400191505060405180910390fd5b8873ffffffffffffffffffffffffffffffffffffffff1663986e791a888a60405160200180807f70726f6a6563742e74696d656c696e652e6d696c6573746f6e65732e7469746c81526020017f6500000000000000000000000000000000000000000000000000000000000000815250602101838152602001828152602001925050506040516020818303038152906040526040518082805190602001908083835b602083101515613161578051825260208201915060208101905060208303925061313c565b6001836020036101000a03801982511681845116808217855250505050505090500191505060405180910390206040518263ffffffff167c0100000000000000000000000000000000000000000000000000000000028152600401808260001916600019168152602001915050600060405180830381600087803b1580156131e857600080fd5b505af11580156131fc573d6000803e3d6000fd5b505050506040513d6000823e3d601f19601f82011682018060405250602081101561322657600080fd5b81019080805164010000000081111561323e57600080fd5b8281019050602081018481111561325457600080fd5b815185600182028301116401000000008211171561327157600080fd5b505092919050505094508873ffffffffffffffffffffffffffffffffffffffff1663986e791a888a60405160200180807f70726f6a6563742e74696d656c696e652e6d696c6573746f6e65732e6465736381526020017f72697074696f6e00000000000000000000000000000000000000000000000000815250602701838152602001828152602001925050506040516020818303038152906040526040518082805190602001908083835b602083101515613342578051825260208201915060208101905060208303925061331d565b6001836020036101000a03801982511681845116808217855250505050505090500191505060405180910390206040518263ffffffff167c0100000000000000000000000000000000000000000000000000000000028152600401808260001916600019168152602001915050600060405180830381600087803b1580156133c957600080fd5b505af11580156133dd573d6000803e3d6000fd5b505050506040513d6000823e3d601f19601f82011682018060405250602081101561340757600080fd5b81019080805164010000000081111561341f57600080fd5b8281019050602081018481111561343557600080fd5b815185600182028301116401000000008211171561345257600080fd5b505092919050505093508873ffffffffffffffffffffffffffffffffffffffff1663bd02d0f5888a60405160200180807f70726f6a6563742e74696d656c696e652e6d696c6573746f6e65732e7065726381526020017f656e746167650000000000000000000000000000000000000000000000000000815250602601838152602001828152602001925050506040516020818303038152906040526040518082805190602001908083835b60208310151561352357805182526020820191506020810190506020830392506134fe565b6001836020036101000a03801982511681845116808217855250505050505090500191505060405180910390206040518263ffffffff167c0100000000000000000000000000000000000000000000000000000000028152600401808260001916600019168152602001915050602060405180830381600087803b1580156135aa57600080fd5b505af11580156135be573d6000803e3d6000fd5b505050506040513d60208110156135d457600080fd5b810190808051906020019092919050505092508873ffffffffffffffffffffffffffffffffffffffff16637ae1cfca888a60405160200180807f70726f6a6563742e74696d656c696e652e6d696c6573746f6e65732e6973436f81526020017f6d706c6574650000000000000000000000000000000000000000000000000000815250602601838152602001828152602001925050506040516020818303038152906040526040518082805190602001908083835b6020831015156136ae5780518252602082019150602081019050602083039250613689565b6001836020036101000a03801982511681845116808217855250505050505090500191505060405180910390206040518263ffffffff167c0100000000000000000000000000000000000000000000000000000000028152600401808260001916600019168152602001915050602060405180830381600087803b15801561373557600080fd5b505af1158015613749573d6000803e3d6000fd5b505050506040513d602081101561375f57600080fd5b81019080805190602001909291905050509150608060405190810160405280868152602001858152602001848152602001831515815250905080955050505050509392505050565b6137b488888888886147da565b6137c188888888876149bc565b6137ce8888888886614b9e565b6137db8888888885614d1b565b5050505050505050565b8273ffffffffffffffffffffffffffffffffffffffff1663e2a4853a8360405160200180807f70726f6a6563742e74696d656c696e65486973746f72792e6c656e6774680000815250601e018281526020019150506040516020818303038152906040526040518082805190602001908083835b60208310151561387e5780518252602082019150602081019050602083039250613859565b6001836020036101000a0380198251168184511680821785525050505050509050019150506040518091039020836040518363ffffffff167c010000000000000000000000000000000000000000000000000000000002815260040180836000191660001916815260200182815260200192505050600060405180830381600087803b15801561390d57600080fd5b505af1158015613921573d6000803e3d6000fd5b50505050505050565b8373ffffffffffffffffffffffffffffffffffffffff1663e2a4853a848460405160200180807f70726f6a6563742e74696d656c696e65486973746f72792e6d696c6573746f6e81526020017f65732e6c656e6774680000000000000000000000000000000000000000000000815250602901838152602001828152602001925050506040516020818303038152906040526040518082805190602001908083835b6020831015156139f157805182526020820191506020810190506020830392506139cc565b6001836020036101000a0380198251168184511680821785525050505050509050019150506040518091039020836040518363ffffffff167c010000000000000000000000000000000000000000000000000000000002815260040180836000191660001916815260200182815260200192505050600060405180830381600087803b158015613a8057600080fd5b505af1158015613a94573d6000803e3d6000fd5b5050505050505050565b8373ffffffffffffffffffffffffffffffffffffffff16636e899550838560405160200180807f70726f6a6563742e74696d656c696e652e6d696c6573746f6e65732e7469746c81526020017f6500000000000000000000000000000000000000000000000000000000000000815250602101838152602001828152602001925050506040516020818303038152906040526040518082805190602001908083835b602083101515613b655780518252602082019150602081019050602083039250613b40565b6001836020036101000a0380198251168184511680821785525050505050509050019150506040518091039020836040518363ffffffff167c010000000000000000000000000000000000000000000000000000000002815260040180836000191660001916815260200180602001828103825283818151815260200191508051906020019080838360005b83811015613c0c578082015181840152602081019050613bf1565b50505050905090810190601f168015613c395780820380516001836020036101000a031916815260200191505b509350505050600060405180830381600087803b158015613c5957600080fd5b505af1158015613c6d573d6000803e3d6000fd5b5050505050505050565b8373ffffffffffffffffffffffffffffffffffffffff16636e899550838560405160200180807f70726f6a6563742e74696d656c696e652e6d696c6573746f6e65732e6465736381526020017f72697074696f6e00000000000000000000000000000000000000000000000000815250602701838152602001828152602001925050506040516020818303038152906040526040518082805190602001908083835b602083101515613d3e5780518252602082019150602081019050602083039250613d19565b6001836020036101000a0380198251168184511680821785525050505050509050019150506040518091039020836040518363ffffffff167c010000000000000000000000000000000000000000000000000000000002815260040180836000191660001916815260200180602001828103825283818151815260200191508051906020019080838360005b83811015613de5578082015181840152602081019050613dca565b50505050905090810190601f168015613e125780820380516001836020036101000a031916815260200191505b509350505050600060405180830381600087803b158015613e3257600080fd5b505af1158015613e46573d6000803e3d6000fd5b5050505050505050565b8373ffffffffffffffffffffffffffffffffffffffff1663e2a4853a838560405160200180807f70726f6a6563742e74696d656c696e652e6d696c6573746f6e65732e7065726381526020017f656e746167650000000000000000000000000000000000000000000000000000815250602601838152602001828152602001925050506040516020818303038152906040526040518082805190602001908083835b602083101515613f175780518252602082019150602081019050602083039250613ef2565b6001836020036101000a0380198251168184511680821785525050505050509050019150506040518091039020836040518363ffffffff167c010000000000000000000000000000000000000000000000000000000002815260040180836000191660001916815260200182815260200192505050600060405180830381600087803b158015613fa657600080fd5b505af1158015613fba573d6000803e3d6000fd5b5050505050505050565b8373ffffffffffffffffffffffffffffffffffffffff1663abfdcced838560405160200180807f70726f6a6563742e74696d656c696e652e6d696c6573746f6e65732e6973436f81526020017f6d706c6574650000000000000000000000000000000000000000000000000000815250602601838152602001828152602001925050506040516020818303038152906040526040518082805190602001908083835b60208310151561408b5780518252602082019150602081019050602083039250614066565b6001836020036101000a0380198251168184511680821785525050505050509050019150506040518091039020836040518363ffffffff167c01000000000000000000000000000000000000000000000000000000000281526004018083600019166000191681526020018215151515815260200192505050600060405180830381600087803b15801561411e57600080fd5b505af1158015614132573d6000803e3d6000fd5b5050505050505050565b8373ffffffffffffffffffffffffffffffffffffffff16636e899550838560405160200180807f70726f6a6563742e70656e64696e6754696d656c696e652e6d696c6573746f6e81526020017f65732e7469746c65000000000000000000000000000000000000000000000000815250602801838152602001828152602001925050506040516020818303038152906040526040518082805190602001908083835b60208310151561420357805182526020820191506020810190506020830392506141de565b6001836020036101000a0380198251168184511680821785525050505050509050019150506040518091039020836040518363ffffffff167c010000000000000000000000000000000000000000000000000000000002815260040180836000191660001916815260200180602001828103825283818151815260200191508051906020019080838360005b838110156142aa57808201518184015260208101905061428f565b50505050905090810190601f1680156142d75780820380516001836020036101000a031916815260200191505b509350505050600060405180830381600087803b1580156142f757600080fd5b505af115801561430b573d6000803e3d6000fd5b5050505050505050565b8373ffffffffffffffffffffffffffffffffffffffff16636e899550838560405160200180807f70726f6a6563742e70656e64696e6754696d656c696e652e6d696c6573746f6e81526020017f65732e6465736372697074696f6e000000000000000000000000000000000000815250602e01838152602001828152602001925050506040516020818303038152906040526040518082805190602001908083835b6020831015156143dc57805182526020820191506020810190506020830392506143b7565b6001836020036101000a0380198251168184511680821785525050505050509050019150506040518091039020836040518363ffffffff167c010000000000000000000000000000000000000000000000000000000002815260040180836000191660001916815260200180602001828103825283818151815260200191508051906020019080838360005b83811015614483578082015181840152602081019050614468565b50505050905090810190601f1680156144b05780820380516001836020036101000a031916815260200191505b509350505050600060405180830381600087803b1580156144d057600080fd5b505af11580156144e4573d6000803e3d6000fd5b5050505050505050565b8373ffffffffffffffffffffffffffffffffffffffff1663e2a4853a838560405160200180807f70726f6a6563742e70656e64696e6754696d656c696e652e6d696c6573746f6e81526020017f65732e70657263656e7461676500000000000000000000000000000000000000815250602d01838152602001828152602001925050506040516020818303038152906040526040518082805190602001908083835b6020831015156145b55780518252602082019150602081019050602083039250614590565b6001836020036101000a0380198251168184511680821785525050505050509050019150506040518091039020836040518363ffffffff167c010000000000000000000000000000000000000000000000000000000002815260040180836000191660001916815260200182815260200192505050600060405180830381600087803b15801561464457600080fd5b505af1158015614658573d6000803e3d6000fd5b5050505050505050565b8373ffffffffffffffffffffffffffffffffffffffff1663abfdcced838560405160200180807f70726f6a6563742e70656e64696e6754696d656c696e652e6d696c6573746f6e81526020017f65732e6973436f6d706c65746500000000000000000000000000000000000000815250602d01838152602001828152602001925050506040516020818303038152906040526040518082805190602001908083835b6020831015156147295780518252602082019150602081019050602083039250614704565b6001836020036101000a0380198251168184511680821785525050505050509050019150506040518091039020836040518363ffffffff167c01000000000000000000000000000000000000000000000000000000000281526004018083600019166000191681526020018215151515815260200192505050600060405180830381600087803b1580156147bc57600080fd5b505af11580156147d0573d6000803e3d6000fd5b5050505050505050565b8473ffffffffffffffffffffffffffffffffffffffff16636e89955085858560405160200180807f70726f6a6563742e74696d656c696e65486973746f72792e6d696c6573746f6e81526020017f65732e7469746c6500000000000000000000000000000000000000000000000081525060280184815260200183815260200182815260200193505050506040516020818303038152906040526040518082805190602001908083835b6020831015156148a95780518252602082019150602081019050602083039250614884565b6001836020036101000a0380198251168184511680821785525050505050509050019150506040518091039020836040518363ffffffff167c010000000000000000000000000000000000000000000000000000000002815260040180836000191660001916815260200180602001828103825283818151815260200191508051906020019080838360005b83811015614950578082015181840152602081019050614935565b50505050905090810190601f16801561497d5780820380516001836020036101000a031916815260200191505b509350505050600060405180830381600087803b15801561499d57600080fd5b505af11580156149b1573d6000803e3d6000fd5b505050505050505050565b8473ffffffffffffffffffffffffffffffffffffffff16636e89955085858560405160200180807f70726f6a6563742e74696d656c696e65486973746f72792e6d696c6573746f6e81526020017f65732e6465736372697074696f6e000000000000000000000000000000000000815250602e0184815260200183815260200182815260200193505050506040516020818303038152906040526040518082805190602001908083835b602083101515614a8b5780518252602082019150602081019050602083039250614a66565b6001836020036101000a0380198251168184511680821785525050505050509050019150506040518091039020836040518363ffffffff167c010000000000000000000000000000000000000000000000000000000002815260040180836000191660001916815260200180602001828103825283818151815260200191508051906020019080838360005b83811015614b32578082015181840152602081019050614b17565b50505050905090810190601f168015614b5f5780820380516001836020036101000a031916815260200191505b509350505050600060405180830381600087803b158015614b7f57600080fd5b505af1158015614b93573d6000803e3d6000fd5b505050505050505050565b8473ffffffffffffffffffffffffffffffffffffffff1663e2a4853a85858560405160200180807f70726f6a6563742e74696d656c696e65486973746f72792e6d696c6573746f6e81526020017f65732e70657263656e7461676500000000000000000000000000000000000000815250602d0184815260200183815260200182815260200193505050506040516020818303038152906040526040518082805190602001908083835b602083101515614c6d5780518252602082019150602081019050602083039250614c48565b6001836020036101000a0380198251168184511680821785525050505050509050019150506040518091039020836040518363ffffffff167c010000000000000000000000000000000000000000000000000000000002815260040180836000191660001916815260200182815260200192505050600060405180830381600087803b158015614cfc57600080fd5b505af1158015614d10573d6000803e3d6000fd5b505050505050505050565b8473ffffffffffffffffffffffffffffffffffffffff1663abfdcced85858560405160200180807f70726f6a6563742e74696d656c696e65486973746f72792e6d696c6573746f6e81526020017f65732e6973436f6d706c65746500000000000000000000000000000000000000815250602d0184815260200183815260200182815260200193505050506040516020818303038152906040526040518082805190602001908083835b602083101515614dea5780518252602082019150602081019050602083039250614dc5565b6001836020036101000a0380198251168184511680821785525050505050509050019150506040518091039020836040518363ffffffff167c01000000000000000000000000000000000000000000000000000000000281526004018083600019166000191681526020018215151515815260200192505050600060405180830381600087803b158015614e7d57600080fd5b505af1158015614e91573d6000803e3d6000fd5b505050505050505050565b60806040519081016040528060608152602001606081526020016000815260200160001515815250905600a165627a7a723058209ccef194ec6c89875892f93b64032edb50496e680e2734baa56c87ee7dac42bb0029",
  "source": "pragma solidity ^0.4.24;\n\nimport \"./storage/ProjectStorageAccess.sol\";\nimport \"./storage/ContributionStorageAccess.sol\";\nimport \"../FundingVault.sol\";\nimport \"../FundingStorage.sol\";\n\nlibrary ProjectTimelineHelpersLibrary {\n\n    using ProjectStorageAccess for address;\n    using ContributionStorageAccess for address;\n\n    function moveTimelineIntoTimelineHistory(address _fundingStorage, uint _projectId) external {\n        uint historyLength = _fundingStorage.getTimelineHistoryLength(_projectId);\n        uint timelineLength = _fundingStorage.getTimelineLength(_projectId);\n\n        for (uint i = 0; i < timelineLength; i++) {\n            ProjectStorageAccess.Milestone memory milestone = _fundingStorage.getTimelineMilestone(_projectId, i);\n            _fundingStorage.setTimelineHistoryMilestone(_projectId, historyLength, i, milestone.title, milestone.description, milestone.percentage, milestone.isComplete);\n        }\n\n        _fundingStorage.setTimelineHistoryLength(_projectId, historyLength + 1);\n        _fundingStorage.setTimelineHistoryMilestonesLength(_projectId, historyLength, timelineLength);\n        _fundingStorage.setTimelineLength(_projectId, 0);\n    }\n\n    function movePendingMilestonesIntoTimeline(address _fundingStorage, uint _projectId) external {\n        uint pendingTimelineLength = _fundingStorage.getPendingTimelineLength(_projectId);\n\n        for (uint j = 0; j < pendingTimelineLength; j++) {\n            ProjectStorageAccess.Milestone memory pendingMilestone = _fundingStorage.getPendingTimelineMilestone(_projectId, j);\n            _fundingStorage.setTimelineMilestone(_projectId, j, pendingMilestone.title, pendingMilestone.description, pendingMilestone.percentage, pendingMilestone.isComplete);\n        }\n\n        _fundingStorage.setTimelineLength(_projectId, pendingTimelineLength);\n        _fundingStorage.setPendingTimelineLength(_projectId, 0);\n    }\n\n    function moveCompletedMilestonesIntoPendingTimeline(address _fundingStorage, uint _projectId) external {\n        uint completedMilestonesLength = _fundingStorage.getCompletedMilestonesLength(_projectId);\n\n        // Add the completed milestones to the start of the pending timeline\n        for (uint i = 0; i < completedMilestonesLength; i++) {\n            ProjectStorageAccess.Milestone memory completedMilestone = _fundingStorage.getCompletedMilestone(_projectId, i);\n            _fundingStorage.setPendingTimelineMilestone(_projectId, i, completedMilestone.title, completedMilestone.description, completedMilestone.percentage, completedMilestone.isComplete);\n        }\n\n        _fundingStorage.setPendingTimelineLength(_projectId, completedMilestonesLength);\n    }\n\n    function verifyPendingMilestones(address _fundingStorage, uint _projectId) external view {\n        // Verify:\n        // - Milestones are present\n        // - Milestone percentages add up to 100\n\n        uint timelineLength = _fundingStorage.getPendingTimelineLength(_projectId);\n\n        require(timelineLength > 0, \"Project has no pending milestones.\");\n\n        uint percentageAcc = 0;\n        for (uint i = 0; i < timelineLength; i++) {\n            uint percentage = _fundingStorage.getPendingTimelineMilestonePercentage(_projectId, i);\n            percentageAcc = percentageAcc + percentage;\n        }\n\n        require(percentageAcc == 100, \"Milestone percentages must add to 100.\");\n    }\n\n    function releaseMilestoneFunds(address _fundingStorage, uint _projectId, uint _index) external {\n        uint fundsRaised = _fundingStorage.getProjectFundsRaised(_projectId);\n        uint percentageToSend = _fundingStorage.getTimelineMilestonePercentage(_projectId, _index);\n        uint amountToSend = fundsRaised * percentageToSend / 100;\n        address developer = _fundingStorage.getProjectDeveloper(_projectId);\n        FundingStorage fs = FundingStorage(_fundingStorage);\n        FundingVault fv = FundingVault(fs.getContractAddress(\"FundingVault\"));\n        fv.withdrawEth(amountToSend, developer);\n    }\n}\n",
  "sourcePath": "/ude/hb/projects/funding-protocol/smart-contracts/ethereum/contracts/libraries/ProjectTimelineHelpersLibrary.sol",
  "compiler": {
    "name": "solc",
    "version": "0.4.24+commit.e67f0147.Emscripten.clang"
  },
  "schemaVersion": "2.0.0",
  "updatedAt": "2018-07-22T20:27:18.141Z"
}