{
  "contractName": "ProjectTimelineProposal",
  "abi": [
    {
      "constant": false,
      "inputs": [
        {
          "name": "_time",
          "type": "uint256"
        }
      ],
      "name": "setTestTime",
      "outputs": [],
      "payable": false,
      "stateMutability": "nonpayable",
      "type": "function"
    },
    {
      "inputs": [
        {
          "name": "_fundingStorage",
          "type": "address"
        },
        {
          "name": "_inTest",
          "type": "bool"
        }
      ],
      "payable": false,
      "stateMutability": "nonpayable",
      "type": "constructor"
    },
    {
      "constant": false,
      "inputs": [
        {
          "name": "_projectId",
          "type": "uint256"
        }
      ],
      "name": "proposeNewTimeline",
      "outputs": [],
      "payable": false,
      "stateMutability": "nonpayable",
      "type": "function"
    },
    {
      "constant": true,
      "inputs": [
        {
          "name": "_projectId",
          "type": "uint256"
        }
      ],
      "name": "getTimelineProposal",
      "outputs": [
        {
          "name": "timestamp",
          "type": "uint256"
        },
        {
          "name": "approvalCount",
          "type": "uint256"
        },
        {
          "name": "disapprovalCount",
          "type": "uint256"
        },
        {
          "name": "isActive",
          "type": "bool"
        },
        {
          "name": "hasFailed",
          "type": "bool"
        }
      ],
      "payable": false,
      "stateMutability": "view",
      "type": "function"
    }
  ],
  "bytecode": "0x608060405234801561001057600080fd5b50604051604080611d7a833981018060405281019080805190602001909291908051906020019092919050505080806000806101000a81548160ff0219169083151502179055505081600260006101000a81548173ffffffffffffffffffffffffffffffffffffffff021916908373ffffffffffffffffffffffffffffffffffffffff1602179055505050611cd0806100aa6000396000f300608060405260043610610057576000357c0100000000000000000000000000000000000000000000000000000000900463ffffffff168063097c74061461005c5780631e3aafc2146100895780637cd88e7c146100ee575b600080fd5b34801561006857600080fd5b506100876004803603810190808035906020019092919050505061011b565b005b34801561009557600080fd5b506100b46004803603810190808035906020019092919050505061013f565b6040518086815260200185815260200184815260200183151515158152602001821515151581526020019550505050505060405180910390f35b3480156100fa57600080fd5b50610119600480360381019080803590602001909291905050506101c9565b005b6000809054906101000a900460ff16151561013557600080fd5b8060018190555050565b600080600080600061014f611c70565b61019a87600260009054906101000a900473ffffffffffffffffffffffffffffffffffffffff1673ffffffffffffffffffffffffffffffffffffffff1661074d90919063ffffffff16565b905080600001518160200151826040015183606001518460800151955095509550955095505091939590929450565b8061021581600260009054906101000a900473ffffffffffffffffffffffffffffffffffffffff1673ffffffffffffffffffffffffffffffffffffffff16610f3190919063ffffffff16565b73ffffffffffffffffffffffffffffffffffffffff163373ffffffffffffffffffffffffffffffffffffffff161415156102dd576040517f08c379a00000000000000000000000000000000000000000000000000000000081526004018080602001828103825260398152602001807f596f75206d757374206265207468652070726f6a65637420646576656c6f706581526020017f7220746f20706572666f726d207468697320616374696f6e2e0000000000000081525060400191505060405180910390fd5b81600460068111156102eb57fe5b61033682600260009054906101000a900473ffffffffffffffffffffffffffffffffffffffff1673ffffffffffffffffffffffffffffffffffffffff1661109690919063ffffffff16565b600681111561034157fe5b600681111561034c57fe5b1415156103e7576040517f08c379a000000000000000000000000000000000000000000000000000000000815260040180806020018281038252603e8152602001807f5468697320616374696f6e2063616e206f6e6c7920626520706572666f726d6581526020017f64206f6e20612070726f6a65637420696e20646576656c6f706d656e742e000081525060400191505060405180910390fd5b61043283600260009054906101000a900473ffffffffffffffffffffffffffffffffffffffff1673ffffffffffffffffffffffffffffffffffffffff166111fb90919063ffffffff16565b1515156104f3576040517f08c379a00000000000000000000000000000000000000000000000000000000081526004018080602001828103825260508152602001807f4e65772074696d656c696e652063616e6e6f742062652070726f706f7365642081526020017f696620746865726520697320616c726561647920616e2061637469766520746981526020017f6d656c696e652070726f706f73616c2e0000000000000000000000000000000081525060600191505060405180910390fd5b61053e83600260009054906101000a900473ffffffffffffffffffffffffffffffffffffffff1673ffffffffffffffffffffffffffffffffffffffff1661138690919063ffffffff16565b1515156105ff576040517f08c379a00000000000000000000000000000000000000000000000000000000081526004018080602001828103825260538152602001807f4e65772074696d656c696e652063616e6e6f742062652070726f706f7365642081526020017f696620746865726520697320616e2061637469766520766f7465206f6e206d6981526020017f6c6573746f6e6520636f6d706c6574696f6e2e0000000000000000000000000081525060600191505060405180910390fd5b600260009054906101000a900473ffffffffffffffffffffffffffffffffffffffff1673ffffffffffffffffffffffffffffffffffffffff1673__ProjectTimelineHelpersLibrary_________637b9ee6589091856040518363ffffffff167c0100000000000000000000000000000000000000000000000000000000028152600401808373ffffffffffffffffffffffffffffffffffffffff1673ffffffffffffffffffffffffffffffffffffffff1681526020018281526020019250505060006040518083038186803b1580156106d857600080fd5b505af41580156106ec573d6000803e3d6000fd5b50505050610748834260008060016000600260009054906101000a900473ffffffffffffffffffffffffffffffffffffffff1673ffffffffffffffffffffffffffffffffffffffff16611511909695949392919063ffffffff16565b505050565b610755611c70565b6000806000806000610765611c70565b8873ffffffffffffffffffffffffffffffffffffffff1663bd02d0f58960405160200180807f70726f6a6563742e74696d656c696e6550726f706f73616c2e74696d6573746181526020017f6d700000000000000000000000000000000000000000000000000000000000008152506022018281526020019150506040516020818303038152906040526040518082805190602001908083835b60208310151561082457805182526020820191506020810190506020830392506107ff565b6001836020036101000a03801982511681845116808217855250505050505090500191505060405180910390206040518263ffffffff167c0100000000000000000000000000000000000000000000000000000000028152600401808260001916600019168152602001915050602060405180830381600087803b1580156108ab57600080fd5b505af11580156108bf573d6000803e3d6000fd5b505050506040513d60208110156108d557600080fd5b810190808051906020019092919050505095508873ffffffffffffffffffffffffffffffffffffffff1663bd02d0f58960405160200180807f70726f6a6563742e74696d656c696e6550726f706f73616c2e617070726f766181526020017f6c436f756e7400000000000000000000000000000000000000000000000000008152506026018281526020019150506040516020818303038152906040526040518082805190602001908083835b6020831015156109a75780518252602082019150602081019050602083039250610982565b6001836020036101000a03801982511681845116808217855250505050505090500191505060405180910390206040518263ffffffff167c0100000000000000000000000000000000000000000000000000000000028152600401808260001916600019168152602001915050602060405180830381600087803b158015610a2e57600080fd5b505af1158015610a42573d6000803e3d6000fd5b505050506040513d6020811015610a5857600080fd5b810190808051906020019092919050505094508873ffffffffffffffffffffffffffffffffffffffff1663bd02d0f58960405160200180807f70726f6a6563742e74696d656c696e6550726f706f73616c2e6469736170707281526020017f6f76616c436f756e7400000000000000000000000000000000000000000000008152506029018281526020019150506040516020818303038152906040526040518082805190602001908083835b602083101515610b2a5780518252602082019150602081019050602083039250610b05565b6001836020036101000a03801982511681845116808217855250505050505090500191505060405180910390206040518263ffffffff167c0100000000000000000000000000000000000000000000000000000000028152600401808260001916600019168152602001915050602060405180830381600087803b158015610bb157600080fd5b505af1158015610bc5573d6000803e3d6000fd5b505050506040513d6020811015610bdb57600080fd5b810190808051906020019092919050505093508873ffffffffffffffffffffffffffffffffffffffff16637ae1cfca8960405160200180807f70726f6a6563742e74696d656c696e6550726f706f73616c2e6973416374697681526020017f65000000000000000000000000000000000000000000000000000000000000008152506021018281526020019150506040516020818303038152906040526040518082805190602001908083835b602083101515610cad5780518252602082019150602081019050602083039250610c88565b6001836020036101000a03801982511681845116808217855250505050505090500191505060405180910390206040518263ffffffff167c0100000000000000000000000000000000000000000000000000000000028152600401808260001916600019168152602001915050602060405180830381600087803b158015610d3457600080fd5b505af1158015610d48573d6000803e3d6000fd5b505050506040513d6020811015610d5e57600080fd5b810190808051906020019092919050505092508873ffffffffffffffffffffffffffffffffffffffff16637ae1cfca8960405160200180807f70726f6a6563742e74696d656c696e6550726f706f73616c2e6861734661696c81526020017f65640000000000000000000000000000000000000000000000000000000000008152506022018281526020019150506040516020818303038152906040526040518082805190602001908083835b602083101515610e305780518252602082019150602081019050602083039250610e0b565b6001836020036101000a03801982511681845116808217855250505050505090500191505060405180910390206040518263ffffffff167c0100000000000000000000000000000000000000000000000000000000028152600401808260001916600019168152602001915050602060405180830381600087803b158015610eb757600080fd5b505af1158015610ecb573d6000803e3d6000fd5b505050506040513d6020811015610ee157600080fd5b8101908080519060200190929190505050915060a0604051908101604052808781526020018681526020018581526020018415158152602001831515815250905080965050505050505092915050565b60008273ffffffffffffffffffffffffffffffffffffffff166321f8a7218360405160200180807f70726f6a6563742e646576656c6f7065720000000000000000000000000000008152506011018281526020019150506040516020818303038152906040526040518082805190602001908083835b602083101515610fcc5780518252602082019150602081019050602083039250610fa7565b6001836020036101000a03801982511681845116808217855250505050505090500191505060405180910390206040518263ffffffff167c0100000000000000000000000000000000000000000000000000000000028152600401808260001916600019168152602001915050602060405180830381600087803b15801561105357600080fd5b505af1158015611067573d6000803e3d6000fd5b505050506040513d602081101561107d57600080fd5b8101908080519060200190929190505050905092915050565b60008273ffffffffffffffffffffffffffffffffffffffff1663bd02d0f58360405160200180807f70726f6a6563742e737461747573000000000000000000000000000000000000815250600e018281526020019150506040516020818303038152906040526040518082805190602001908083835b602083101515611131578051825260208201915060208101905060208303925061110c565b6001836020036101000a03801982511681845116808217855250505050505090500191505060405180910390206040518263ffffffff167c0100000000000000000000000000000000000000000000000000000000028152600401808260001916600019168152602001915050602060405180830381600087803b1580156111b857600080fd5b505af11580156111cc573d6000803e3d6000fd5b505050506040513d60208110156111e257600080fd5b8101908080519060200190929190505050905092915050565b60008273ffffffffffffffffffffffffffffffffffffffff16637ae1cfca8360405160200180807f70726f6a6563742e74696d656c696e6550726f706f73616c2e6973416374697681526020017f65000000000000000000000000000000000000000000000000000000000000008152506021018281526020019150506040516020818303038152906040526040518082805190602001908083835b6020831015156112bc5780518252602082019150602081019050602083039250611297565b6001836020036101000a03801982511681845116808217855250505050505090500191505060405180910390206040518263ffffffff167c0100000000000000000000000000000000000000000000000000000000028152600401808260001916600019168152602001915050602060405180830381600087803b15801561134357600080fd5b505af1158015611357573d6000803e3d6000fd5b505050506040513d602081101561136d57600080fd5b8101908080519060200190929190505050905092915050565b60008273ffffffffffffffffffffffffffffffffffffffff16637ae1cfca8360405160200180807f70726f6a6563742e6d696c6573746f6e65436f6d706c6574696f6e5375626d6981526020017f7373696f6e2e6973416374697665000000000000000000000000000000000000815250602e018281526020019150506040516020818303038152906040526040518082805190602001908083835b6020831015156114475780518252602082019150602081019050602083039250611422565b6001836020036101000a03801982511681845116808217855250505050505090500191505060405180910390206040518263ffffffff167c0100000000000000000000000000000000000000000000000000000000028152600401808260001916600019168152602001915050602060405180830381600087803b1580156114ce57600080fd5b505af11580156114e2573d6000803e3d6000fd5b505050506040513d60208110156114f857600080fd5b8101908080519060200190929190505050905092915050565b61151c878787611551565b6115278787866116bc565b611532878785611827565b61153d878784611992565b611548878783611b01565b50505050505050565b8273ffffffffffffffffffffffffffffffffffffffff1663e2a4853a8360405160200180807f70726f6a6563742e74696d656c696e6550726f706f73616c2e74696d6573746181526020017f6d700000000000000000000000000000000000000000000000000000000000008152506022018281526020019150506040516020818303038152906040526040518082805190602001908083835b60208310151561161057805182526020820191506020810190506020830392506115eb565b6001836020036101000a0380198251168184511680821785525050505050509050019150506040518091039020836040518363ffffffff167c010000000000000000000000000000000000000000000000000000000002815260040180836000191660001916815260200182815260200192505050600060405180830381600087803b15801561169f57600080fd5b505af11580156116b3573d6000803e3d6000fd5b50505050505050565b8273ffffffffffffffffffffffffffffffffffffffff1663e2a4853a8360405160200180807f70726f6a6563742e74696d656c696e6550726f706f73616c2e617070726f766181526020017f6c436f756e7400000000000000000000000000000000000000000000000000008152506026018281526020019150506040516020818303038152906040526040518082805190602001908083835b60208310151561177b5780518252602082019150602081019050602083039250611756565b6001836020036101000a0380198251168184511680821785525050505050509050019150506040518091039020836040518363ffffffff167c010000000000000000000000000000000000000000000000000000000002815260040180836000191660001916815260200182815260200192505050600060405180830381600087803b15801561180a57600080fd5b505af115801561181e573d6000803e3d6000fd5b50505050505050565b8273ffffffffffffffffffffffffffffffffffffffff1663e2a4853a8360405160200180807f70726f6a6563742e74696d656c696e6550726f706f73616c2e6469736170707281526020017f6f76616c436f756e7400000000000000000000000000000000000000000000008152506029018281526020019150506040516020818303038152906040526040518082805190602001908083835b6020831015156118e657805182526020820191506020810190506020830392506118c1565b6001836020036101000a0380198251168184511680821785525050505050509050019150506040518091039020836040518363ffffffff167c010000000000000000000000000000000000000000000000000000000002815260040180836000191660001916815260200182815260200192505050600060405180830381600087803b15801561197557600080fd5b505af1158015611989573d6000803e3d6000fd5b50505050505050565b8273ffffffffffffffffffffffffffffffffffffffff1663abfdcced8360405160200180807f70726f6a6563742e74696d656c696e6550726f706f73616c2e6973416374697681526020017f65000000000000000000000000000000000000000000000000000000000000008152506021018281526020019150506040516020818303038152906040526040518082805190602001908083835b602083101515611a515780518252602082019150602081019050602083039250611a2c565b6001836020036101000a0380198251168184511680821785525050505050509050019150506040518091039020836040518363ffffffff167c01000000000000000000000000000000000000000000000000000000000281526004018083600019166000191681526020018215151515815260200192505050600060405180830381600087803b158015611ae457600080fd5b505af1158015611af8573d6000803e3d6000fd5b50505050505050565b8273ffffffffffffffffffffffffffffffffffffffff1663abfdcced8360405160200180807f70726f6a6563742e74696d656c696e6550726f706f73616c2e6861734661696c81526020017f65640000000000000000000000000000000000000000000000000000000000008152506022018281526020019150506040516020818303038152906040526040518082805190602001908083835b602083101515611bc05780518252602082019150602081019050602083039250611b9b565b6001836020036101000a0380198251168184511680821785525050505050509050019150506040518091039020836040518363ffffffff167c01000000000000000000000000000000000000000000000000000000000281526004018083600019166000191681526020018215151515815260200192505050600060405180830381600087803b158015611c5357600080fd5b505af1158015611c67573d6000803e3d6000fd5b50505050505050565b60a06040519081016040528060008152602001600081526020016000815260200160001515815260200160001515815250905600a165627a7a723058208bd8bebe5c52d09147c77330f5d4b0fd270c2393f1c97c17c4a8375c439f0e730029",
  "source": "pragma solidity ^0.4.24;\n\nimport \"../FundingStorage.sol\";\nimport \"./ProjectBase.sol\";\nimport \"../libraries/ProjectTimelineHelpersLibrary.sol\";\n\ncontract ProjectTimelineProposal is ProjectBase {\n\n    using ProjectTimelineHelpersLibrary for address;\n\n    constructor(address _fundingStorage, bool _inTest) public Testable(_inTest) {\n        fundingStorage = _fundingStorage;\n    }\n\n    function proposeNewTimeline(uint _projectId) external onlyProjectDeveloper(_projectId) onlyInDevelopmentProject(_projectId) {\n        // Can only suggest new timeline if there is not already a timeline proposal active\n        require(!fundingStorage.getTimelineProposalIsActive(_projectId), \"New timeline cannot be proposed if there is already an active timeline proposal.\");\n        // Can only suggest new timeline if there is not currently a vote on milestone completion\n        require(!fundingStorage.getMilestoneCompletionSubmissionIsActive(_projectId), \"New timeline cannot be proposed if there is an active vote on milestone completion.\");\n\n        fundingStorage.verifyPendingMilestones(_projectId);\n\n        fundingStorage.setTimelineProposal(_projectId, now, 0, 0, true, false);\n    }\n\n    function getTimelineProposal(uint _projectId) external view returns (uint timestamp, uint approvalCount, uint disapprovalCount, bool isActive, bool hasFailed) {\n        ProjectStorageAccess.TimelineProposal memory proposal = fundingStorage.getTimelineProposal(_projectId);\n\n        return (proposal.timestamp, proposal.approvalCount, proposal.disapprovalCount, proposal.isActive, proposal.hasFailed);\n    }\n}\n",
  "sourcePath": "/home/jordan/Projects/hyperbridge/funding-protocol/smart-contracts/ethereum/contracts/project/ProjectTimelineProposal.sol",
  "compiler": {
    "name": "solc",
    "version": "0.4.24+commit.e67f0147.Emscripten.clang"
  },
  "schemaVersion": "2.0.1",
  "updatedAt": "2018-07-26T16:56:23.148Z"
}