{
  "contractName": "ProjectTimeline",
  "abi": [
    {
      "constant": false,
      "inputs": [
        {
          "name": "_time",
          "type": "uint256"
        }
      ],
      "name": "setTestTime",
      "outputs": [],
      "payable": false,
      "stateMutability": "nonpayable",
      "type": "function"
    },
    {
      "inputs": [
        {
          "name": "_fundingStorage",
          "type": "address"
        },
        {
          "name": "_inTest",
          "type": "bool"
        }
      ],
      "payable": false,
      "stateMutability": "nonpayable",
      "type": "constructor"
    },
    {
      "constant": false,
      "inputs": [
        {
          "name": "_projectId",
          "type": "uint256"
        },
        {
          "name": "_title",
          "type": "string"
        },
        {
          "name": "_description",
          "type": "string"
        },
        {
          "name": "_percentage",
          "type": "uint256"
        }
      ],
      "name": "addMilestone",
      "outputs": [],
      "payable": false,
      "stateMutability": "nonpayable",
      "type": "function"
    },
    {
      "constant": false,
      "inputs": [
        {
          "name": "_projectId",
          "type": "uint256"
        },
        {
          "name": "_index",
          "type": "uint256"
        },
        {
          "name": "_title",
          "type": "string"
        },
        {
          "name": "_description",
          "type": "string"
        },
        {
          "name": "_percentage",
          "type": "uint256"
        }
      ],
      "name": "editMilestone",
      "outputs": [],
      "payable": false,
      "stateMutability": "nonpayable",
      "type": "function"
    },
    {
      "constant": true,
      "inputs": [
        {
          "name": "_projectId",
          "type": "uint256"
        }
      ],
      "name": "getPendingTimelineLength",
      "outputs": [
        {
          "name": "length",
          "type": "uint256"
        }
      ],
      "payable": false,
      "stateMutability": "view",
      "type": "function"
    },
    {
      "constant": true,
      "inputs": [
        {
          "name": "_projectId",
          "type": "uint256"
        },
        {
          "name": "_index",
          "type": "uint256"
        }
      ],
      "name": "getPendingTimelineMilestone",
      "outputs": [
        {
          "name": "title",
          "type": "string"
        },
        {
          "name": "description",
          "type": "string"
        },
        {
          "name": "percentage",
          "type": "uint256"
        },
        {
          "name": "isComplete",
          "type": "bool"
        }
      ],
      "payable": false,
      "stateMutability": "view",
      "type": "function"
    },
    {
      "constant": true,
      "inputs": [
        {
          "name": "_projectId",
          "type": "uint256"
        }
      ],
      "name": "getTimelineLength",
      "outputs": [
        {
          "name": "length",
          "type": "uint256"
        }
      ],
      "payable": false,
      "stateMutability": "view",
      "type": "function"
    },
    {
      "constant": true,
      "inputs": [
        {
          "name": "_projectId",
          "type": "uint256"
        },
        {
          "name": "_index",
          "type": "uint256"
        }
      ],
      "name": "getTimelineMilestone",
      "outputs": [
        {
          "name": "title",
          "type": "string"
        },
        {
          "name": "description",
          "type": "string"
        },
        {
          "name": "percentage",
          "type": "uint256"
        },
        {
          "name": "isComplete",
          "type": "bool"
        }
      ],
      "payable": false,
      "stateMutability": "view",
      "type": "function"
    },
    {
      "constant": true,
      "inputs": [
        {
          "name": "_projectId",
          "type": "uint256"
        },
        {
          "name": "_historyIndex",
          "type": "uint256"
        }
      ],
      "name": "getTimelineHistoryLength",
      "outputs": [
        {
          "name": "length",
          "type": "uint256"
        }
      ],
      "payable": false,
      "stateMutability": "view",
      "type": "function"
    },
    {
      "constant": true,
      "inputs": [
        {
          "name": "_projectId",
          "type": "uint256"
        }
      ],
      "name": "getTimelineHistoryLength",
      "outputs": [
        {
          "name": "length",
          "type": "uint256"
        }
      ],
      "payable": false,
      "stateMutability": "view",
      "type": "function"
    },
    {
      "constant": true,
      "inputs": [
        {
          "name": "_projectId",
          "type": "uint256"
        },
        {
          "name": "_timelineIndex",
          "type": "uint256"
        },
        {
          "name": "_milestoneIndex",
          "type": "uint256"
        }
      ],
      "name": "getTimelineHistoryMilestone",
      "outputs": [
        {
          "name": "title",
          "type": "string"
        },
        {
          "name": "description",
          "type": "string"
        },
        {
          "name": "percentage",
          "type": "uint256"
        },
        {
          "name": "isComplete",
          "type": "bool"
        }
      ],
      "payable": false,
      "stateMutability": "view",
      "type": "function"
    },
    {
      "constant": false,
      "inputs": [
        {
          "name": "_projectId",
          "type": "uint256"
        }
      ],
      "name": "clearPendingTimeline",
      "outputs": [],
      "payable": false,
      "stateMutability": "nonpayable",
      "type": "function"
    }
  ],
  "bytecode": "0x608060405234801561001057600080fd5b50604051604080614e8d833981018060405281019080805190602001909291908051906020019092919050505080806000806101000a81548160ff0219169083151502179055505081600260006101000a81548173ffffffffffffffffffffffffffffffffffffffff021916908373ffffffffffffffffffffffffffffffffffffffff1602179055505050614de3806100aa6000396000f3006080604052600436106100af576000357c0100000000000000000000000000000000000000000000000000000000900463ffffffff168063097c7406146100b45780632b6e01ab146100e15780633e59df161461020f57806345b089911461025a578063466a0e73146102cb578063638278a21461030c5780636616fcff146103395780639194b8a214610471578063d25e9dca146104d8578063f017840214610519578063fec5a6f114610647575b600080fd5b3480156100c057600080fd5b506100df60048036038101908080359060200190929190505050610688565b005b3480156100ed57600080fd5b5061011660048036038101908080359060200190929190803590602001909291905050506106ac565b60405180806020018060200185815260200184151515158152602001838103835287818151815260200191508051906020019080838360005b8381101561016a57808201518184015260208101905061014f565b50505050905090810190601f1680156101975780820380516001836020036101000a031916815260200191505b50838103825286818151815260200191508051906020019080838360005b838110156101d05780820151818401526020810190506101b5565b50505050905090810190601f1680156101fd5780820380516001836020036101000a031916815260200191505b50965050505050505060405180910390f35b34801561021b57600080fd5b506102446004803603810190808035906020019092919080359060200190929190505050610735565b6040518082815260200191505060405180910390f35b34801561026657600080fd5b506102c960048036038101908080359060200190929190803590602001909291908035906020019082018035906020019190919293919293908035906020019082018035906020019190919293919293908035906020019092919050505061078f565b005b3480156102d757600080fd5b506102f660048036038101908080359060200190929190505050610bfa565b6040518082815260200191505060405180910390f35b34801561031857600080fd5b5061033760048036038101908080359060200190929190505050610c51565b005b34801561034557600080fd5b50610378600480360381019080803590602001909291908035906020019092919080359060200190929190505050611113565b60405180806020018060200185815260200184151515158152602001838103835287818151815260200191508051906020019080838360005b838110156103cc5780820151818401526020810190506103b1565b50505050905090810190601f1680156103f95780820380516001836020036101000a031916815260200191505b50838103825286818151815260200191508051906020019080838360005b83811015610432578082015181840152602081019050610417565b50505050905090810190601f16801561045f5780820380516001836020036101000a031916815260200191505b50965050505050505060405180910390f35b34801561047d57600080fd5b506104d6600480360381019080803590602001909291908035906020019082018035906020019190919293919293908035906020019082018035906020019190919293919293908035906020019092919050505061119e565b005b3480156104e457600080fd5b5061050360048036038101908080359060200190929190505050611604565b6040518082815260200191505060405180910390f35b34801561052557600080fd5b5061054e600480360381019080803590602001909291908035906020019092919050505061165b565b60405180806020018060200185815260200184151515158152602001838103835287818151815260200191508051906020019080838360005b838110156105a2578082015181840152602081019050610587565b50505050905090810190601f1680156105cf5780820380516001836020036101000a031916815260200191505b50838103825286818151815260200191508051906020019080838360005b838110156106085780820151818401526020810190506105ed565b50505050905090810190601f1680156106355780820380516001836020036101000a031916815260200191505b50965050505050505060405180910390f35b34801561065357600080fd5b50610672600480360381019080803590602001909291905050506116e4565b6040518082815260200191505060405180910390f35b6000809054906101000a900460ff1615156106a257600080fd5b8060018190555050565b6060806000806106ba614d8c565b6107078787600260009054906101000a900473ffffffffffffffffffffffffffffffffffffffff1673ffffffffffffffffffffffffffffffffffffffff1661173b9092919063ffffffff16565b9050806000015181602001518260400151836060015183935082925094509450945094505092959194509250565b60006107848383600260009054906101000a900473ffffffffffffffffffffffffffffffffffffffff1673ffffffffffffffffffffffffffffffffffffffff166120559092919063ffffffff16565b905080905092915050565b866107db81600260009054906101000a900473ffffffffffffffffffffffffffffffffffffffff1673ffffffffffffffffffffffffffffffffffffffff166121e990919063ffffffff16565b73ffffffffffffffffffffffffffffffffffffffff163373ffffffffffffffffffffffffffffffffffffffff161415156108a3576040517f08c379a00000000000000000000000000000000000000000000000000000000081526004018080602001828103825260398152602001807f596f75206d757374206265207468652070726f6a65637420646576656c6f706581526020017f7220746f20706572666f726d207468697320616374696f6e2e0000000000000081525060400191505060405180910390fd5b60648211151515610942576040517f08c379a00000000000000000000000000000000000000000000000000000000081526004018080602001828103825260308152602001807f4d696c6573746f6e652070657263656e746167652063616e6e6f74206265206781526020017f726561746572207468616e203130302e0000000000000000000000000000000081525060400191505060405180910390fd5b61098d88600260009054906101000a900473ffffffffffffffffffffffffffffffffffffffff1673ffffffffffffffffffffffffffffffffffffffff1661234e90919063ffffffff16565b151515610a4e576040517f08c379a000000000000000000000000000000000000000000000000000000000815260040180806020018281038252604d8152602001807f50656e64696e67206d696c6573746f6e65732063616e6e6f742062652065646981526020017f746564207768696c6520612074696d656c696e652070726f706f73616c20766f81526020017f7465206973206163746976652e0000000000000000000000000000000000000081525060600191505060405180910390fd5b610a9b8888600260009054906101000a900473ffffffffffffffffffffffffffffffffffffffff1673ffffffffffffffffffffffffffffffffffffffff166124d99092919063ffffffff16565b151515610b36576040517f08c379a00000000000000000000000000000000000000000000000000000000081526004018080602001828103825260228152602001807f43616e6e6f742065646974206120636f6d706c65746564206d696c6573746f6e81526020017f652e00000000000000000000000000000000000000000000000000000000000081525060400191505060405180910390fd5b610bf0888888888080601f01602080910402602001604051908101604052809392919081815260200183838082843782019150505050505087878080601f016020809104026020016040519081016040528093929190818152602001838380828437820191505050505050866000600260009054906101000a900473ffffffffffffffffffffffffffffffffffffffff1673ffffffffffffffffffffffffffffffffffffffff16612864909695949392919063ffffffff16565b5050505050505050565b6000610c4782600260009054906101000a900473ffffffffffffffffffffffffffffffffffffffff1673ffffffffffffffffffffffffffffffffffffffff1661289d90919063ffffffff16565b9050809050919050565b600080610c5c614d8c565b83610ca881600260009054906101000a900473ffffffffffffffffffffffffffffffffffffffff1673ffffffffffffffffffffffffffffffffffffffff166121e990919063ffffffff16565b73ffffffffffffffffffffffffffffffffffffffff163373ffffffffffffffffffffffffffffffffffffffff16141515610d70576040517f08c379a00000000000000000000000000000000000000000000000000000000081526004018080602001828103825260398152602001807f596f75206d757374206265207468652070726f6a65637420646576656c6f706581526020017f7220746f20706572666f726d207468697320616374696f6e2e0000000000000081525060400191505060405180910390fd5b610dbb85600260009054906101000a900473ffffffffffffffffffffffffffffffffffffffff1673ffffffffffffffffffffffffffffffffffffffff1661234e90919063ffffffff16565b151515610e56576040517f08c379a00000000000000000000000000000000000000000000000000000000081526004018080602001828103825260238152602001807f412074696d656c696e652070726f706f73616c20766f7465206973206163746981526020017f76652e000000000000000000000000000000000000000000000000000000000081525060400191505060405180910390fd5b610ea4856000600260009054906101000a900473ffffffffffffffffffffffffffffffffffffffff1673ffffffffffffffffffffffffffffffffffffffff16612a029092919063ffffffff16565b60046006811115610eb157fe5b846006811115610ebd57fe5b141561110c57600260009054906101000a900473ffffffffffffffffffffffffffffffffffffffff1673ffffffffffffffffffffffffffffffffffffffff1673__ProjectTimelineHelpersLibrary_________63c064263a9091876040518363ffffffff167c0100000000000000000000000000000000000000000000000000000000028152600401808373ffffffffffffffffffffffffffffffffffffffff1673ffffffffffffffffffffffffffffffffffffffff1681526020018281526020019250505060006040518083038186803b158015610f9c57600080fd5b505af4158015610fb0573d6000803e3d6000fd5b50505050610fff85600260009054906101000a900473ffffffffffffffffffffffffffffffffffffffff1673ffffffffffffffffffffffffffffffffffffffff16612b4790919063ffffffff16565b600681111561100a57fe5b935061105785600260009054906101000a900473ffffffffffffffffffffffffffffffffffffffff1673ffffffffffffffffffffffffffffffffffffffff16612cac90919063ffffffff16565b92506110a68584600260009054906101000a900473ffffffffffffffffffffffffffffffffffffffff1673ffffffffffffffffffffffffffffffffffffffff1661173b9092919063ffffffff16565b915061110b858360000151846020015185604001518660600151600260009054906101000a900473ffffffffffffffffffffffffffffffffffffffff1673ffffffffffffffffffffffffffffffffffffffff16612e119095949392919063ffffffff16565b5b5050505050565b606080600080611121614d8c565b611170888888600260009054906101000a900473ffffffffffffffffffffffffffffffffffffffff1673ffffffffffffffffffffffffffffffffffffffff16612e45909392919063ffffffff16565b9050806000015181602001518260400151836060015183935082925094509450945094505093509350935093565b856111ea81600260009054906101000a900473ffffffffffffffffffffffffffffffffffffffff1673ffffffffffffffffffffffffffffffffffffffff166121e990919063ffffffff16565b73ffffffffffffffffffffffffffffffffffffffff163373ffffffffffffffffffffffffffffffffffffffff161415156112b2576040517f08c379a00000000000000000000000000000000000000000000000000000000081526004018080602001828103825260398152602001807f596f75206d757374206265207468652070726f6a65637420646576656c6f706581526020017f7220746f20706572666f726d207468697320616374696f6e2e0000000000000081525060400191505060405180910390fd5b60648211151515611351576040517f08c379a00000000000000000000000000000000000000000000000000000000081526004018080602001828103825260308152602001807f4d696c6573746f6e652070657263656e746167652063616e6e6f74206265206781526020017f726561746572207468616e203130302e0000000000000000000000000000000081525060400191505060405180910390fd5b61139c87600260009054906101000a900473ffffffffffffffffffffffffffffffffffffffff1673ffffffffffffffffffffffffffffffffffffffff166139a590919063ffffffff16565b151515611437576040517f08c379a00000000000000000000000000000000000000000000000000000000081526004018080602001828103825260358152602001807f43616e6e6f74206164642061206d696c6573746f6e6520746f20612070726f6a81526020017f6563742077697468206e6f2074696d656c696e652e000000000000000000000081525060400191505060405180910390fd5b61148287600260009054906101000a900473ffffffffffffffffffffffffffffffffffffffff1673ffffffffffffffffffffffffffffffffffffffff1661234e90919063ffffffff16565b151515611543576040517f08c379a000000000000000000000000000000000000000000000000000000000815260040180806020018281038252604c8152602001807f50656e64696e67206d696c6573746f6e65732063616e6e6f742062652061646481526020017f6564207768696c6520612074696d656c696e652070726f706f73616c20766f7481526020017f65206973206163746976652e000000000000000000000000000000000000000081525060600191505060405180910390fd5b6115fb8787878080601f01602080910402602001604051908101604052809392919081815260200183838082843782019150505050505086868080601f016020809104026020016040519081016040528093929190818152602001838380828437820191505050505050856000600260009054906101000a900473ffffffffffffffffffffffffffffffffffffffff1673ffffffffffffffffffffffffffffffffffffffff16612e119095949392919063ffffffff16565b50505050505050565b600061165182600260009054906101000a900473ffffffffffffffffffffffffffffffffffffffff1673ffffffffffffffffffffffffffffffffffffffff16613b0a90919063ffffffff16565b9050809050919050565b606080600080611669614d8c565b6116b68787600260009054906101000a900473ffffffffffffffffffffffffffffffffffffffff1673ffffffffffffffffffffffffffffffffffffffff16613c6f9092919063ffffffff16565b9050806000015181602001518260400151836060015183935082925094509450945094505092959194509250565b600061173182600260009054906101000a900473ffffffffffffffffffffffffffffffffffffffff1673ffffffffffffffffffffffffffffffffffffffff1661458990919063ffffffff16565b9050809050919050565b611743614d8c565b606080600080611751614d8c565b8873ffffffffffffffffffffffffffffffffffffffff1663bd02d0f58960405160200180807f70726f6a6563742e74696d656c696e652e6c656e6774680000000000000000008152506017018281526020019150506040516020818303038152906040526040518082805190602001908083835b6020831015156117ea57805182526020820191506020810190506020830392506117c5565b6001836020036101000a03801982511681845116808217855250505050505090500191505060405180910390206040518263ffffffff167c0100000000000000000000000000000000000000000000000000000000028152600401808260001916600019168152602001915050602060405180830381600087803b15801561187157600080fd5b505af1158015611885573d6000803e3d6000fd5b505050506040513d602081101561189b57600080fd5b810190808051906020019092919050505087101515611948576040517f08c379a00000000000000000000000000000000000000000000000000000000081526004018080602001828103825260258152602001807f496e646578206973206f757473696465206f662061636365737369626c65207281526020017f616e67652e00000000000000000000000000000000000000000000000000000081525060400191505060405180910390fd5b8873ffffffffffffffffffffffffffffffffffffffff1663986e791a888a60405160200180807f70726f6a6563742e74696d656c696e652e6d696c6573746f6e65732e7469746c81526020017f6500000000000000000000000000000000000000000000000000000000000000815250602101838152602001828152602001925050506040516020818303038152906040526040518082805190602001908083835b602083101515611a0f57805182526020820191506020810190506020830392506119ea565b6001836020036101000a03801982511681845116808217855250505050505090500191505060405180910390206040518263ffffffff167c0100000000000000000000000000000000000000000000000000000000028152600401808260001916600019168152602001915050600060405180830381600087803b158015611a9657600080fd5b505af1158015611aaa573d6000803e3d6000fd5b505050506040513d6000823e3d601f19601f820116820180604052506020811015611ad457600080fd5b810190808051640100000000811115611aec57600080fd5b82810190506020810184811115611b0257600080fd5b8151856001820283011164010000000082111715611b1f57600080fd5b505092919050505094508873ffffffffffffffffffffffffffffffffffffffff1663986e791a888a60405160200180807f70726f6a6563742e74696d656c696e652e6d696c6573746f6e65732e6465736381526020017f72697074696f6e00000000000000000000000000000000000000000000000000815250602701838152602001828152602001925050506040516020818303038152906040526040518082805190602001908083835b602083101515611bf05780518252602082019150602081019050602083039250611bcb565b6001836020036101000a03801982511681845116808217855250505050505090500191505060405180910390206040518263ffffffff167c0100000000000000000000000000000000000000000000000000000000028152600401808260001916600019168152602001915050600060405180830381600087803b158015611c7757600080fd5b505af1158015611c8b573d6000803e3d6000fd5b505050506040513d6000823e3d601f19601f820116820180604052506020811015611cb557600080fd5b810190808051640100000000811115611ccd57600080fd5b82810190506020810184811115611ce357600080fd5b8151856001820283011164010000000082111715611d0057600080fd5b505092919050505093508873ffffffffffffffffffffffffffffffffffffffff1663bd02d0f5888a60405160200180807f70726f6a6563742e74696d656c696e652e6d696c6573746f6e65732e7065726381526020017f656e746167650000000000000000000000000000000000000000000000000000815250602601838152602001828152602001925050506040516020818303038152906040526040518082805190602001908083835b602083101515611dd15780518252602082019150602081019050602083039250611dac565b6001836020036101000a03801982511681845116808217855250505050505090500191505060405180910390206040518263ffffffff167c0100000000000000000000000000000000000000000000000000000000028152600401808260001916600019168152602001915050602060405180830381600087803b158015611e5857600080fd5b505af1158015611e6c573d6000803e3d6000fd5b505050506040513d6020811015611e8257600080fd5b810190808051906020019092919050505092508873ffffffffffffffffffffffffffffffffffffffff16637ae1cfca888a60405160200180807f70726f6a6563742e74696d656c696e652e6d696c6573746f6e65732e6973436f81526020017f6d706c6574650000000000000000000000000000000000000000000000000000815250602601838152602001828152602001925050506040516020818303038152906040526040518082805190602001908083835b602083101515611f5c5780518252602082019150602081019050602083039250611f37565b6001836020036101000a03801982511681845116808217855250505050505090500191505060405180910390206040518263ffffffff167c0100000000000000000000000000000000000000000000000000000000028152600401808260001916600019168152602001915050602060405180830381600087803b158015611fe357600080fd5b505af1158015611ff7573d6000803e3d6000fd5b505050506040513d602081101561200d57600080fd5b81019080805190602001909291905050509150608060405190810160405280868152602001858152602001848152602001831515815250905080955050505050509392505050565b60008373ffffffffffffffffffffffffffffffffffffffff1663bd02d0f5848460405160200180807f70726f6a6563742e74696d656c696e65486973746f72792e6d696c6573746f6e81526020017f65732e6c656e6774680000000000000000000000000000000000000000000000815250602901838152602001828152602001925050506040516020818303038152906040526040518082805190602001908083835b60208310151561211e57805182526020820191506020810190506020830392506120f9565b6001836020036101000a03801982511681845116808217855250505050505090500191505060405180910390206040518263ffffffff167c0100000000000000000000000000000000000000000000000000000000028152600401808260001916600019168152602001915050602060405180830381600087803b1580156121a557600080fd5b505af11580156121b9573d6000803e3d6000fd5b505050506040513d60208110156121cf57600080fd5b810190808051906020019092919050505090509392505050565b60008273ffffffffffffffffffffffffffffffffffffffff166321f8a7218360405160200180807f70726f6a6563742e646576656c6f7065720000000000000000000000000000008152506011018281526020019150506040516020818303038152906040526040518082805190602001908083835b602083101515612284578051825260208201915060208101905060208303925061225f565b6001836020036101000a03801982511681845116808217855250505050505090500191505060405180910390206040518263ffffffff167c0100000000000000000000000000000000000000000000000000000000028152600401808260001916600019168152602001915050602060405180830381600087803b15801561230b57600080fd5b505af115801561231f573d6000803e3d6000fd5b505050506040513d602081101561233557600080fd5b8101908080519060200190929190505050905092915050565b60008273ffffffffffffffffffffffffffffffffffffffff16637ae1cfca8360405160200180807f70726f6a6563742e74696d656c696e6550726f706f73616c2e6973416374697681526020017f65000000000000000000000000000000000000000000000000000000000000008152506021018281526020019150506040516020818303038152906040526040518082805190602001908083835b60208310151561240f57805182526020820191506020810190506020830392506123ea565b6001836020036101000a03801982511681845116808217855250505050505090500191505060405180910390206040518263ffffffff167c0100000000000000000000000000000000000000000000000000000000028152600401808260001916600019168152602001915050602060405180830381600087803b15801561249657600080fd5b505af11580156124aa573d6000803e3d6000fd5b505050506040513d60208110156124c057600080fd5b8101908080519060200190929190505050905092915050565b60008373ffffffffffffffffffffffffffffffffffffffff1663bd02d0f58460405160200180807f70726f6a6563742e70656e64696e6754696d656c696e652e6c656e6774680000815250601e018281526020019150506040516020818303038152906040526040518082805190602001908083835b602083101515612574578051825260208201915060208101905060208303925061254f565b6001836020036101000a03801982511681845116808217855250505050505090500191505060405180910390206040518263ffffffff167c0100000000000000000000000000000000000000000000000000000000028152600401808260001916600019168152602001915050602060405180830381600087803b1580156125fb57600080fd5b505af115801561260f573d6000803e3d6000fd5b505050506040513d602081101561262557600080fd5b8101908080519060200190929190505050821015156126d2576040517f08c379a00000000000000000000000000000000000000000000000000000000081526004018080602001828103825260258152602001807f496e646578206973206f757473696465206f662061636365737369626c65207281526020017f616e67652e00000000000000000000000000000000000000000000000000000081525060400191505060405180910390fd5b8373ffffffffffffffffffffffffffffffffffffffff16637ae1cfca838560405160200180807f70726f6a6563742e70656e64696e6754696d656c696e652e6d696c6573746f6e81526020017f65732e6973436f6d706c65746500000000000000000000000000000000000000815250602d01838152602001828152602001925050506040516020818303038152906040526040518082805190602001908083835b6020831015156127995780518252602082019150602081019050602083039250612774565b6001836020036101000a03801982511681845116808217855250505050505090500191505060405180910390206040518263ffffffff167c0100000000000000000000000000000000000000000000000000000000028152600401808260001916600019168152602001915050602060405180830381600087803b15801561282057600080fd5b505af1158015612834573d6000803e3d6000fd5b505050506040513d602081101561284a57600080fd5b810190808051906020019092919050505090509392505050565b612870878787876146ee565b61287c878787866148c7565b61288887878785614aa0565b61289487878784614c14565b50505050505050565b60008273ffffffffffffffffffffffffffffffffffffffff1663bd02d0f58360405160200180807f70726f6a6563742e70656e64696e6754696d656c696e652e6c656e6774680000815250601e018281526020019150506040516020818303038152906040526040518082805190602001908083835b6020831015156129385780518252602082019150602081019050602083039250612913565b6001836020036101000a03801982511681845116808217855250505050505090500191505060405180910390206040518263ffffffff167c0100000000000000000000000000000000000000000000000000000000028152600401808260001916600019168152602001915050602060405180830381600087803b1580156129bf57600080fd5b505af11580156129d3573d6000803e3d6000fd5b505050506040513d60208110156129e957600080fd5b8101908080519060200190929190505050905092915050565b8273ffffffffffffffffffffffffffffffffffffffff1663e2a4853a8360405160200180807f70726f6a6563742e70656e64696e6754696d656c696e652e6c656e6774680000815250601e018281526020019150506040516020818303038152906040526040518082805190602001908083835b602083101515612a9b5780518252602082019150602081019050602083039250612a76565b6001836020036101000a0380198251168184511680821785525050505050509050019150506040518091039020836040518363ffffffff167c010000000000000000000000000000000000000000000000000000000002815260040180836000191660001916815260200182815260200192505050600060405180830381600087803b158015612b2a57600080fd5b505af1158015612b3e573d6000803e3d6000fd5b50505050505050565b60008273ffffffffffffffffffffffffffffffffffffffff1663bd02d0f58360405160200180807f70726f6a6563742e737461747573000000000000000000000000000000000000815250600e018281526020019150506040516020818303038152906040526040518082805190602001908083835b602083101515612be25780518252602082019150602081019050602083039250612bbd565b6001836020036101000a03801982511681845116808217855250505050505090500191505060405180910390206040518263ffffffff167c0100000000000000000000000000000000000000000000000000000000028152600401808260001916600019168152602001915050602060405180830381600087803b158015612c6957600080fd5b505af1158015612c7d573d6000803e3d6000fd5b505050506040513d6020811015612c9357600080fd5b8101908080519060200190929190505050905092915050565b60008273ffffffffffffffffffffffffffffffffffffffff1663bd02d0f58360405160200180807f70726f6a6563742e6163746976654d696c6573746f6e65496e64657800000000815250601c018281526020019150506040516020818303038152906040526040518082805190602001908083835b602083101515612d475780518252602082019150602081019050602083039250612d22565b6001836020036101000a03801982511681845116808217855250505050505090500191505060405180910390206040518263ffffffff167c0100000000000000000000000000000000000000000000000000000000028152600401808260001916600019168152602001915050602060405180830381600087803b158015612dce57600080fd5b505af1158015612de2573d6000803e3d6000fd5b505050506040513d6020811015612df857600080fd5b8101908080519060200190929190505050905092915050565b6000612e1d878761289d565b9050612e2e87878388888888612864565b612e3c878760018401612a02565b50505050505050565b612e4d614d8c565b606080600080612e5b614d8c565b8973ffffffffffffffffffffffffffffffffffffffff1663bd02d0f58a60405160200180807f70726f6a6563742e74696d656c696e65486973746f72792e6c656e6774680000815250601e018281526020019150506040516020818303038152906040526040518082805190602001908083835b602083101515612ef45780518252602082019150602081019050602083039250612ecf565b6001836020036101000a03801982511681845116808217855250505050505090500191505060405180910390206040518263ffffffff167c0100000000000000000000000000000000000000000000000000000000028152600401808260001916600019168152602001915050602060405180830381600087803b158015612f7b57600080fd5b505af1158015612f8f573d6000803e3d6000fd5b505050506040513d6020811015612fa557600080fd5b810190808051906020019092919050505088101515613052576040517f08c379a000000000000000000000000000000000000000000000000000000000815260040180806020018281038252602e8152602001807f54696d656c696e6520696e646578206973206f757473696465206f662061636381526020017f65737369626c652072616e67652e00000000000000000000000000000000000081525060400191505060405180910390fd5b8973ffffffffffffffffffffffffffffffffffffffff1663bd02d0f58a8a60405160200180807f70726f6a6563742e74696d656c696e65486973746f72792e6d696c6573746f6e81526020017f65732e6c656e6774680000000000000000000000000000000000000000000000815250602901838152602001828152602001925050506040516020818303038152906040526040518082805190602001908083835b60208310151561311957805182526020820191506020810190506020830392506130f4565b6001836020036101000a03801982511681845116808217855250505050505090500191505060405180910390206040518263ffffffff167c0100000000000000000000000000000000000000000000000000000000028152600401808260001916600019168152602001915050602060405180830381600087803b1580156131a057600080fd5b505af11580156131b4573d6000803e3d6000fd5b505050506040513d60208110156131ca57600080fd5b810190808051906020019092919050505087101515613277576040517f08c379a000000000000000000000000000000000000000000000000000000000815260040180806020018281038252602f8152602001807f4d696c6573746f6e6520696e646578206973206f757473696465206f6620616381526020017f6365737369626c652072616e67652e000000000000000000000000000000000081525060400191505060405180910390fd5b8973ffffffffffffffffffffffffffffffffffffffff1663986e791a89898c60405160200180807f70726f6a6563742e74696d656c696e65486973746f72792e6d696c6573746f6e81526020017f65732e7469746c6500000000000000000000000000000000000000000000000081525060280184815260200183815260200182815260200193505050506040516020818303038152906040526040518082805190602001908083835b6020831015156133465780518252602082019150602081019050602083039250613321565b6001836020036101000a03801982511681845116808217855250505050505090500191505060405180910390206040518263ffffffff167c0100000000000000000000000000000000000000000000000000000000028152600401808260001916600019168152602001915050600060405180830381600087803b1580156133cd57600080fd5b505af11580156133e1573d6000803e3d6000fd5b505050506040513d6000823e3d601f19601f82011682018060405250602081101561340b57600080fd5b81019080805164010000000081111561342357600080fd5b8281019050602081018481111561343957600080fd5b815185600182028301116401000000008211171561345657600080fd5b505092919050505094508973ffffffffffffffffffffffffffffffffffffffff1663986e791a89898c60405160200180807f70726f6a6563742e74696d656c696e65486973746f72792e6d696c6573746f6e81526020017f65732e6465736372697074696f6e000000000000000000000000000000000000815250602e0184815260200183815260200182815260200193505050506040516020818303038152906040526040518082805190602001908083835b60208310151561352f578051825260208201915060208101905060208303925061350a565b6001836020036101000a03801982511681845116808217855250505050505090500191505060405180910390206040518263ffffffff167c0100000000000000000000000000000000000000000000000000000000028152600401808260001916600019168152602001915050600060405180830381600087803b1580156135b657600080fd5b505af11580156135ca573d6000803e3d6000fd5b505050506040513d6000823e3d601f19601f8201168201806040525060208110156135f457600080fd5b81019080805164010000000081111561360c57600080fd5b8281019050602081018481111561362257600080fd5b815185600182028301116401000000008211171561363f57600080fd5b505092919050505093508973ffffffffffffffffffffffffffffffffffffffff1663bd02d0f589898c60405160200180807f70726f6a6563742e74696d656c696e65486973746f72792e6d696c6573746f6e81526020017f65732e70657263656e7461676500000000000000000000000000000000000000815250602d0184815260200183815260200182815260200193505050506040516020818303038152906040526040518082805190602001908083835b60208310151561371857805182526020820191506020810190506020830392506136f3565b6001836020036101000a03801982511681845116808217855250505050505090500191505060405180910390206040518263ffffffff167c0100000000000000000000000000000000000000000000000000000000028152600401808260001916600019168152602001915050602060405180830381600087803b15801561379f57600080fd5b505af11580156137b3573d6000803e3d6000fd5b505050506040513d60208110156137c957600080fd5b810190808051906020019092919050505092508973ffffffffffffffffffffffffffffffffffffffff16637ae1cfca89898c60405160200180807f70726f6a6563742e74696d656c696e65486973746f72792e6d696c6573746f6e81526020017f65732e6973436f6d706c65746500000000000000000000000000000000000000815250602d0184815260200183815260200182815260200193505050506040516020818303038152906040526040518082805190602001908083835b6020831015156138ab5780518252602082019150602081019050602083039250613886565b6001836020036101000a03801982511681845116808217855250505050505090500191505060405180910390206040518263ffffffff167c0100000000000000000000000000000000000000000000000000000000028152600401808260001916600019168152602001915050602060405180830381600087803b15801561393257600080fd5b505af1158015613946573d6000803e3d6000fd5b505050506040513d602081101561395c57600080fd5b8101908080519060200190929190505050915060806040519081016040528086815260200185815260200184815260200183151581525090508095505050505050949350505050565b60008273ffffffffffffffffffffffffffffffffffffffff16637ae1cfca8360405160200180807f70726f6a6563742e6e6f54696d656c696e6500000000000000000000000000008152506012018281526020019150506040516020818303038152906040526040518082805190602001908083835b602083101515613a405780518252602082019150602081019050602083039250613a1b565b6001836020036101000a03801982511681845116808217855250505050505090500191505060405180910390206040518263ffffffff167c0100000000000000000000000000000000000000000000000000000000028152600401808260001916600019168152602001915050602060405180830381600087803b158015613ac757600080fd5b505af1158015613adb573d6000803e3d6000fd5b505050506040513d6020811015613af157600080fd5b8101908080519060200190929190505050905092915050565b60008273ffffffffffffffffffffffffffffffffffffffff1663bd02d0f58360405160200180807f70726f6a6563742e74696d656c696e652e6c656e6774680000000000000000008152506017018281526020019150506040516020818303038152906040526040518082805190602001908083835b602083101515613ba55780518252602082019150602081019050602083039250613b80565b6001836020036101000a03801982511681845116808217855250505050505090500191505060405180910390206040518263ffffffff167c0100000000000000000000000000000000000000000000000000000000028152600401808260001916600019168152602001915050602060405180830381600087803b158015613c2c57600080fd5b505af1158015613c40573d6000803e3d6000fd5b505050506040513d6020811015613c5657600080fd5b8101908080519060200190929190505050905092915050565b613c77614d8c565b606080600080613c85614d8c565b8873ffffffffffffffffffffffffffffffffffffffff1663bd02d0f58960405160200180807f70726f6a6563742e70656e64696e6754696d656c696e652e6c656e6774680000815250601e018281526020019150506040516020818303038152906040526040518082805190602001908083835b602083101515613d1e5780518252602082019150602081019050602083039250613cf9565b6001836020036101000a03801982511681845116808217855250505050505090500191505060405180910390206040518263ffffffff167c0100000000000000000000000000000000000000000000000000000000028152600401808260001916600019168152602001915050602060405180830381600087803b158015613da557600080fd5b505af1158015613db9573d6000803e3d6000fd5b505050506040513d6020811015613dcf57600080fd5b810190808051906020019092919050505087101515613e7c576040517f08c379a00000000000000000000000000000000000000000000000000000000081526004018080602001828103825260258152602001807f496e646578206973206f757473696465206f662061636365737369626c65207281526020017f616e67652e00000000000000000000000000000000000000000000000000000081525060400191505060405180910390fd5b8873ffffffffffffffffffffffffffffffffffffffff1663986e791a888a60405160200180807f70726f6a6563742e70656e64696e6754696d656c696e652e6d696c6573746f6e81526020017f65732e7469746c65000000000000000000000000000000000000000000000000815250602801838152602001828152602001925050506040516020818303038152906040526040518082805190602001908083835b602083101515613f435780518252602082019150602081019050602083039250613f1e565b6001836020036101000a03801982511681845116808217855250505050505090500191505060405180910390206040518263ffffffff167c0100000000000000000000000000000000000000000000000000000000028152600401808260001916600019168152602001915050600060405180830381600087803b158015613fca57600080fd5b505af1158015613fde573d6000803e3d6000fd5b505050506040513d6000823e3d601f19601f82011682018060405250602081101561400857600080fd5b81019080805164010000000081111561402057600080fd5b8281019050602081018481111561403657600080fd5b815185600182028301116401000000008211171561405357600080fd5b505092919050505094508873ffffffffffffffffffffffffffffffffffffffff1663986e791a888a60405160200180807f70726f6a6563742e70656e64696e6754696d656c696e652e6d696c6573746f6e81526020017f65732e6465736372697074696f6e000000000000000000000000000000000000815250602e01838152602001828152602001925050506040516020818303038152906040526040518082805190602001908083835b60208310151561412457805182526020820191506020810190506020830392506140ff565b6001836020036101000a03801982511681845116808217855250505050505090500191505060405180910390206040518263ffffffff167c0100000000000000000000000000000000000000000000000000000000028152600401808260001916600019168152602001915050600060405180830381600087803b1580156141ab57600080fd5b505af11580156141bf573d6000803e3d6000fd5b505050506040513d6000823e3d601f19601f8201168201806040525060208110156141e957600080fd5b81019080805164010000000081111561420157600080fd5b8281019050602081018481111561421757600080fd5b815185600182028301116401000000008211171561423457600080fd5b505092919050505093508873ffffffffffffffffffffffffffffffffffffffff1663bd02d0f5888a60405160200180807f70726f6a6563742e70656e64696e6754696d656c696e652e6d696c6573746f6e81526020017f65732e70657263656e7461676500000000000000000000000000000000000000815250602d01838152602001828152602001925050506040516020818303038152906040526040518082805190602001908083835b60208310151561430557805182526020820191506020810190506020830392506142e0565b6001836020036101000a03801982511681845116808217855250505050505090500191505060405180910390206040518263ffffffff167c0100000000000000000000000000000000000000000000000000000000028152600401808260001916600019168152602001915050602060405180830381600087803b15801561438c57600080fd5b505af11580156143a0573d6000803e3d6000fd5b505050506040513d60208110156143b657600080fd5b810190808051906020019092919050505092508873ffffffffffffffffffffffffffffffffffffffff16637ae1cfca888a60405160200180807f70726f6a6563742e70656e64696e6754696d656c696e652e6d696c6573746f6e81526020017f65732e6973436f6d706c65746500000000000000000000000000000000000000815250602d01838152602001828152602001925050506040516020818303038152906040526040518082805190602001908083835b602083101515614490578051825260208201915060208101905060208303925061446b565b6001836020036101000a03801982511681845116808217855250505050505090500191505060405180910390206040518263ffffffff167c0100000000000000000000000000000000000000000000000000000000028152600401808260001916600019168152602001915050602060405180830381600087803b15801561451757600080fd5b505af115801561452b573d6000803e3d6000fd5b505050506040513d602081101561454157600080fd5b81019080805190602001909291905050509150608060405190810160405280868152602001858152602001848152602001831515815250905080955050505050509392505050565b60008273ffffffffffffffffffffffffffffffffffffffff1663bd02d0f58360405160200180807f70726f6a6563742e74696d656c696e65486973746f72792e6c656e6774680000815250601e018281526020019150506040516020818303038152906040526040518082805190602001908083835b60208310151561462457805182526020820191506020810190506020830392506145ff565b6001836020036101000a03801982511681845116808217855250505050505090500191505060405180910390206040518263ffffffff167c0100000000000000000000000000000000000000000000000000000000028152600401808260001916600019168152602001915050602060405180830381600087803b1580156146ab57600080fd5b505af11580156146bf573d6000803e3d6000fd5b505050506040513d60208110156146d557600080fd5b8101908080519060200190929190505050905092915050565b8373ffffffffffffffffffffffffffffffffffffffff16636e899550838560405160200180807f70726f6a6563742e70656e64696e6754696d656c696e652e6d696c6573746f6e81526020017f65732e7469746c65000000000000000000000000000000000000000000000000815250602801838152602001828152602001925050506040516020818303038152906040526040518082805190602001908083835b6020831015156147b55780518252602082019150602081019050602083039250614790565b6001836020036101000a0380198251168184511680821785525050505050509050019150506040518091039020836040518363ffffffff167c010000000000000000000000000000000000000000000000000000000002815260040180836000191660001916815260200180602001828103825283818151815260200191508051906020019080838360005b8381101561485c578082015181840152602081019050614841565b50505050905090810190601f1680156148895780820380516001836020036101000a031916815260200191505b509350505050600060405180830381600087803b1580156148a957600080fd5b505af11580156148bd573d6000803e3d6000fd5b5050505050505050565b8373ffffffffffffffffffffffffffffffffffffffff16636e899550838560405160200180807f70726f6a6563742e70656e64696e6754696d656c696e652e6d696c6573746f6e81526020017f65732e6465736372697074696f6e000000000000000000000000000000000000815250602e01838152602001828152602001925050506040516020818303038152906040526040518082805190602001908083835b60208310151561498e5780518252602082019150602081019050602083039250614969565b6001836020036101000a0380198251168184511680821785525050505050509050019150506040518091039020836040518363ffffffff167c010000000000000000000000000000000000000000000000000000000002815260040180836000191660001916815260200180602001828103825283818151815260200191508051906020019080838360005b83811015614a35578082015181840152602081019050614a1a565b50505050905090810190601f168015614a625780820380516001836020036101000a031916815260200191505b509350505050600060405180830381600087803b158015614a8257600080fd5b505af1158015614a96573d6000803e3d6000fd5b5050505050505050565b8373ffffffffffffffffffffffffffffffffffffffff1663e2a4853a838560405160200180807f70726f6a6563742e70656e64696e6754696d656c696e652e6d696c6573746f6e81526020017f65732e70657263656e7461676500000000000000000000000000000000000000815250602d01838152602001828152602001925050506040516020818303038152906040526040518082805190602001908083835b602083101515614b675780518252602082019150602081019050602083039250614b42565b6001836020036101000a0380198251168184511680821785525050505050509050019150506040518091039020836040518363ffffffff167c010000000000000000000000000000000000000000000000000000000002815260040180836000191660001916815260200182815260200192505050600060405180830381600087803b158015614bf657600080fd5b505af1158015614c0a573d6000803e3d6000fd5b5050505050505050565b8373ffffffffffffffffffffffffffffffffffffffff1663abfdcced838560405160200180807f70726f6a6563742e70656e64696e6754696d656c696e652e6d696c6573746f6e81526020017f65732e6973436f6d706c65746500000000000000000000000000000000000000815250602d01838152602001828152602001925050506040516020818303038152906040526040518082805190602001908083835b602083101515614cdb5780518252602082019150602081019050602083039250614cb6565b6001836020036101000a0380198251168184511680821785525050505050509050019150506040518091039020836040518363ffffffff167c01000000000000000000000000000000000000000000000000000000000281526004018083600019166000191681526020018215151515815260200192505050600060405180830381600087803b158015614d6e57600080fd5b505af1158015614d82573d6000803e3d6000fd5b5050505050505050565b60806040519081016040528060608152602001606081526020016000815260200160001515815250905600a165627a7a72305820d32106f6adfb9e3bb784ef2966f6bbca82f5eca3ceff57a5138e50905c9bfaa90029",
  "source": "pragma solidity ^0.4.24;\n\nimport \"../FundingStorage.sol\";\nimport \"./ProjectBase.sol\";\nimport \"../libraries/ProjectTimelineHelpersLibrary.sol\";\n\ncontract ProjectTimeline is ProjectBase {\n\n    using ProjectTimelineHelpersLibrary for address;\n\n    constructor(address _fundingStorage, bool _inTest) public Testable(_inTest) {\n        fundingStorage = _fundingStorage;\n    }\n\n    function addMilestone(\n        uint _projectId,\n        string _title,\n        string _description,\n        uint _percentage\n    )\n        external\n        onlyProjectDeveloper(_projectId)\n    {\n        require(_percentage <= 100, \"Milestone percentage cannot be greater than 100.\");\n        require(!fundingStorage.getProjectNoTimeline(_projectId), \"Cannot add a milestone to a project with no timeline.\");\n        require(!fundingStorage.getTimelineProposalIsActive(_projectId), \"Pending milestones cannot be added while a timeline proposal vote is active.\");\n\n        fundingStorage.pushPendingTimelineMilestone(_projectId, _title, _description, _percentage, false);\n    }\n\n    function editMilestone(\n        uint _projectId,\n        uint _index,\n        string _title,\n        string _description,\n        uint _percentage\n    )\n        external\n        onlyProjectDeveloper(_projectId)\n    {\n        require(_percentage <= 100, \"Milestone percentage cannot be greater than 100.\");\n        require(!fundingStorage.getTimelineProposalIsActive(_projectId), \"Pending milestones cannot be edited while a timeline proposal vote is active.\");\n        require(!fundingStorage.getPendingTimelineMilestoneIsComplete(_projectId, _index), \"Cannot edit a completed milestone.\");\n\n        fundingStorage.setPendingTimelineMilestone(_projectId, _index, _title, _description, _percentage, false);\n    }\n\n    function getPendingTimelineLength(uint _projectId) external view returns (uint length) {\n        length = fundingStorage.getPendingTimelineLength(_projectId);\n        return length;\n    }\n\n    function getPendingTimelineMilestone(uint _projectId, uint _index) external view returns (string title, string description, uint percentage, bool isComplete) {\n        ProjectStorageAccess.Milestone memory milestone = fundingStorage.getPendingTimelineMilestone(_projectId, _index);\n\n        return (milestone.title, milestone.description, milestone.percentage, milestone.isComplete);\n    }\n\n    function getTimelineLength(uint _projectId) external view returns (uint length) {\n        length = fundingStorage.getTimelineLength(_projectId);\n        return length;\n    }\n\n    function getTimelineMilestone(uint _projectId, uint _index) external view returns (string title, string description, uint percentage, bool isComplete) {\n        ProjectStorageAccess.Milestone memory milestone = fundingStorage.getTimelineMilestone(_projectId, _index);\n\n        return (milestone.title, milestone.description, milestone.percentage, milestone.isComplete);\n    }\n\n    function getTimelineHistoryLength(uint _projectId) external view returns (uint length) {\n        length = fundingStorage.getTimelineHistoryLength(_projectId);\n        return length;\n    }\n\n    function getTimelineHistoryLength(uint _projectId, uint _historyIndex) external view returns (uint length) {\n        length = fundingStorage.getTimelineHistoryMilestonesLength(_projectId, _historyIndex);\n        return length;\n    }\n\n    function getTimelineHistoryMilestone(uint _projectId, uint _timelineIndex, uint _milestoneIndex) external view returns (string title, string description, uint percentage, bool isComplete) {\n        ProjectStorageAccess.Milestone memory milestone = fundingStorage.getTimelineHistoryMilestone(_projectId, _timelineIndex, _milestoneIndex);\n\n        return (milestone.title, milestone.description, milestone.percentage, milestone.isComplete);\n    }\n\n    function clearPendingTimeline(uint _projectId) external onlyProjectDeveloper(_projectId) {\n        // There must not be an active timeline proposal\n        require(!fundingStorage.getTimelineProposalIsActive(_projectId), \"A timeline proposal vote is active.\");\n\n        fundingStorage.setPendingTimelineLength(_projectId, 0);\n\n        if (status == Status.InDevelopment) {\n\n            fundingStorage.moveCompletedMilestonesIntoPendingTimeline(_projectId);\n\n            Status status = Status(fundingStorage.getProjectStatus(_projectId));\n\n            uint activeMilestoneIndex = fundingStorage.getActiveMilestoneIndex(_projectId);\n\n            ProjectStorageAccess.Milestone memory activeMilestone = fundingStorage.getTimelineMilestone(_projectId, activeMilestoneIndex);\n\n            fundingStorage.pushPendingTimelineMilestone(_projectId, activeMilestone.title, activeMilestone.description, activeMilestone.percentage, activeMilestone.isComplete);\n        }\n    }\n}\n",
  "sourcePath": "/home/jordan/Projects/hyperbridge/funding-protocol/smart-contracts/ethereum/contracts/project/ProjectTimeline.sol",
  "compiler": {
    "name": "solc",
    "version": "0.4.24+commit.e67f0147.Emscripten.clang"
  },
  "schemaVersion": "2.0.1",
  "updatedAt": "2018-07-26T16:56:22.991Z"
}