{
  "contractName": "ProjectRegistration",
  "abi": [
    {
      "inputs": [
        {
          "name": "_fundingStorage",
          "type": "address"
        }
      ],
      "payable": false,
      "stateMutability": "nonpayable",
      "type": "constructor"
    },
    {
      "anonymous": false,
      "inputs": [
        {
          "indexed": false,
          "name": "projectId",
          "type": "uint256"
        }
      ],
      "name": "ProjectCreated",
      "type": "event"
    },
    {
      "constant": false,
      "inputs": [
        {
          "name": "_title",
          "type": "string"
        },
        {
          "name": "_description",
          "type": "string"
        },
        {
          "name": "_about",
          "type": "string"
        },
        {
          "name": "_contributionGoal",
          "type": "uint256"
        },
        {
          "name": "_noRefunds",
          "type": "bool"
        },
        {
          "name": "_noTimeline",
          "type": "bool"
        }
      ],
      "name": "createProject",
      "outputs": [],
      "payable": false,
      "stateMutability": "nonpayable",
      "type": "function"
    },
    {
      "constant": false,
      "inputs": [
        {
          "name": "_projectId",
          "type": "uint256"
        },
        {
          "name": "_title",
          "type": "string"
        },
        {
          "name": "_description",
          "type": "string"
        },
        {
          "name": "_about",
          "type": "string"
        },
        {
          "name": "_contributionGoal",
          "type": "uint256"
        },
        {
          "name": "_noRefunds",
          "type": "bool"
        },
        {
          "name": "_noTimeline",
          "type": "bool"
        }
      ],
      "name": "editProject",
      "outputs": [],
      "payable": false,
      "stateMutability": "nonpayable",
      "type": "function"
    },
    {
      "constant": true,
      "inputs": [
        {
          "name": "_projectId",
          "type": "uint256"
        }
      ],
      "name": "getProject",
      "outputs": [
        {
          "name": "id",
          "type": "uint256"
        },
        {
          "name": "status",
          "type": "uint256"
        },
        {
          "name": "title",
          "type": "string"
        },
        {
          "name": "description",
          "type": "string"
        },
        {
          "name": "about",
          "type": "string"
        },
        {
          "name": "contributionGoal",
          "type": "uint256"
        },
        {
          "name": "noRefunds",
          "type": "bool"
        },
        {
          "name": "noTimeline",
          "type": "bool"
        },
        {
          "name": "developer",
          "type": "address"
        },
        {
          "name": "developerId",
          "type": "uint256"
        }
      ],
      "payable": false,
      "stateMutability": "view",
      "type": "function"
    },
    {
      "constant": false,
      "inputs": [
        {
          "name": "_projectId",
          "type": "uint256"
        }
      ],
      "name": "submitProjectForReview",
      "outputs": [],
      "payable": false,
      "stateMutability": "nonpayable",
      "type": "function"
    }
  ],
  "bytecode": "0x608060405234801561001057600080fd5b5060405160208061374983398101806040528101908080519060200190929190505050806000806101000a81548173ffffffffffffffffffffffffffffffffffffffff021916908373ffffffffffffffffffffffffffffffffffffffff160217905550506136c6806100836000396000f300608060405260043610610062576000357c0100000000000000000000000000000000000000000000000000000000900463ffffffff1680630f1fdb4b14610067578063234a40c9146100fe578063c592d7c71461012b578063f0f3f2c8146101b8575b600080fd5b34801561007357600080fd5b506100fc600480360381019080803590602001909291908035906020019082018035906020019190919293919293908035906020019082018035906020019190919293919293908035906020019082018035906020019190919293919293908035906020019092919080351515906020019092919080351515906020019092919050505061039b565b005b34801561010a57600080fd5b5061012960048036038101908080359060200190929190505050610823565b005b34801561013757600080fd5b506101b660048036038101908080359060200190820180359060200191909192939192939080359060200190820180359060200191909192939192939080359060200190820180359060200191909192939192939080359060200190929190803515159060200190929190803515159060200190929190505050610dcc565b005b3480156101c457600080fd5b506101e360048036038101908080359060200190929190505050611268565b604051808b81526020018a815260200180602001806020018060200189815260200188151515158152602001871515151581526020018673ffffffffffffffffffffffffffffffffffffffff1673ffffffffffffffffffffffffffffffffffffffff16815260200185815260200184810384528c818151815260200191508051906020019080838360005b8381101561028957808201518184015260208101905061026e565b50505050905090810190601f1680156102b65780820380516001836020036101000a031916815260200191505b5084810383528b818151815260200191508051906020019080838360005b838110156102ef5780820151818401526020810190506102d4565b50505050905090810190601f16801561031c5780820380516001836020036101000a031916815260200191505b5084810382528a818151815260200191508051906020019080838360005b8381101561035557808201518184015260208101905061033a565b50505050905090810190601f1680156103825780820380516001836020036101000a031916815260200191505b509d505050505050505050505050505060405180910390f35b896103e6816000809054906101000a900473ffffffffffffffffffffffffffffffffffffffff1673ffffffffffffffffffffffffffffffffffffffff1661155290919063ffffffff16565b73ffffffffffffffffffffffffffffffffffffffff163373ffffffffffffffffffffffffffffffffffffffff161415156104ae576040517f08c379a00000000000000000000000000000000000000000000000000000000081526004018080602001828103825260398152602001807f596f75206d757374206265207468652070726f6a65637420646576656c6f706581526020017f7220746f20706572666f726d207468697320616374696f6e2e0000000000000081525060400191505060405180910390fd5b8a600060048111156104bc57fe5b610506826000809054906101000a900473ffffffffffffffffffffffffffffffffffffffff1673ffffffffffffffffffffffffffffffffffffffff166116b790919063ffffffff16565b600481111561051157fe5b600481111561051c57fe5b1415156105b7576040517f08c379a00000000000000000000000000000000000000000000000000000000081526004018080602001828103825260358152602001807f5468697320616374696f6e2063616e206f6e6c7920626520706572666f726d6581526020017f64206f6e20612064726166742070726f6a6563742e000000000000000000000081525060400191505060405180910390fd5b6106358c8c8c8080601f0160208091040260200160405190810160405280939291908181526020018383808284378201915050505050506000809054906101000a900473ffffffffffffffffffffffffffffffffffffffff1673ffffffffffffffffffffffffffffffffffffffff1661181c9092919063ffffffff16565b6106b38c8a8a8080601f0160208091040260200160405190810160405280939291908181526020018383808284378201915050505050506000809054906101000a900473ffffffffffffffffffffffffffffffffffffffff1673ffffffffffffffffffffffffffffffffffffffff166119c69092919063ffffffff16565b6107318c88888080601f0160208091040260200160405190810160405280939291908181526020018383808284378201915050505050506000809054906101000a900473ffffffffffffffffffffffffffffffffffffffff1673ffffffffffffffffffffffffffffffffffffffff16611b709092919063ffffffff16565b61077d8c866000809054906101000a900473ffffffffffffffffffffffffffffffffffffffff1673ffffffffffffffffffffffffffffffffffffffff16611d1a9092919063ffffffff16565b6107c98c856000809054906101000a900473ffffffffffffffffffffffffffffffffffffffff1673ffffffffffffffffffffffffffffffffffffffff16611e5f9092919063ffffffff16565b6108158c846000809054906101000a900473ffffffffffffffffffffffffffffffffffffffff1673ffffffffffffffffffffffffffffffffffffffff16611fa89092919063ffffffff16565b505050505050505050505050565b600081610870816000809054906101000a900473ffffffffffffffffffffffffffffffffffffffff1673ffffffffffffffffffffffffffffffffffffffff1661155290919063ffffffff16565b73ffffffffffffffffffffffffffffffffffffffff163373ffffffffffffffffffffffffffffffffffffffff16141515610938576040517f08c379a00000000000000000000000000000000000000000000000000000000081526004018080602001828103825260398152602001807f596f75206d757374206265207468652070726f6a65637420646576656c6f706581526020017f7220746f20706572666f726d207468697320616374696f6e2e0000000000000081525060400191505060405180910390fd5b826000600481111561094657fe5b610990826000809054906101000a900473ffffffffffffffffffffffffffffffffffffffff1673ffffffffffffffffffffffffffffffffffffffff166116b790919063ffffffff16565b600481111561099b57fe5b60048111156109a657fe5b141515610a41576040517f08c379a00000000000000000000000000000000000000000000000000000000081526004018080602001828103825260358152602001807f5468697320616374696f6e2063616e206f6e6c7920626520706572666f726d6581526020017f64206f6e20612064726166742070726f6a6563742e000000000000000000000081525060400191505060405180910390fd5b610a8b846000809054906101000a900473ffffffffffffffffffffffffffffffffffffffff1673ffffffffffffffffffffffffffffffffffffffff166120f190919063ffffffff16565b9250610a9684612256565b821515610d6e576000809054906101000a900473ffffffffffffffffffffffffffffffffffffffff1673ffffffffffffffffffffffffffffffffffffffff1673__ProjectHelpersLibrary_________________637b9ee6589091866040518363ffffffff167c0100000000000000000000000000000000000000000000000000000000028152600401808373ffffffffffffffffffffffffffffffffffffffff1673ffffffffffffffffffffffffffffffffffffffff1681526020018281526020019250505060006040518083038186803b158015610b7557600080fd5b505af4158015610b89573d6000803e3d6000fd5b505050506000809054906101000a900473ffffffffffffffffffffffffffffffffffffffff1673ffffffffffffffffffffffffffffffffffffffff1673__ProjectHelpersLibrary_________________6331a26acf9091866040518363ffffffff167c0100000000000000000000000000000000000000000000000000000000028152600401808373ffffffffffffffffffffffffffffffffffffffff1673ffffffffffffffffffffffffffffffffffffffff1681526020018281526020019250505060006040518083038186803b158015610c6557600080fd5b505af4158015610c79573d6000803e3d6000fd5b505050506000809054906101000a900473ffffffffffffffffffffffffffffffffffffffff1673ffffffffffffffffffffffffffffffffffffffff1673__ProjectHelpersLibrary_________________636237c6369091866040518363ffffffff167c0100000000000000000000000000000000000000000000000000000000028152600401808373ffffffffffffffffffffffffffffffffffffffff1673ffffffffffffffffffffffffffffffffffffffff1681526020018281526020019250505060006040518083038186803b158015610d5557600080fd5b505af4158015610d69573d6000803e3d6000fd5b505050505b610dc68460016004811115610d7f57fe5b6000809054906101000a900473ffffffffffffffffffffffffffffffffffffffff1673ffffffffffffffffffffffffffffffffffffffff166123469092919063ffffffff16565b50505050565b600080610e19336000809054906101000a900473ffffffffffffffffffffffffffffffffffffffff1673ffffffffffffffffffffffffffffffffffffffff1661248b90919063ffffffff16565b915060008214151515610e94576040517f08c379a00000000000000000000000000000000000000000000000000000000081526004018080602001828103825260208152602001807f546869732061646472657373206973206e6f74206120646576656c6f7065722e81525060200191505060405180910390fd5b610ed46000809054906101000a900473ffffffffffffffffffffffffffffffffffffffff1673ffffffffffffffffffffffffffffffffffffffff1661262b565b9050610f2e8160006004811115610ee757fe5b6000809054906101000a900473ffffffffffffffffffffffffffffffffffffffff1673ffffffffffffffffffffffffffffffffffffffff166123469092919063ffffffff16565b610fac818c8c8080601f0160208091040260200160405190810160405280939291908181526020018383808284378201915050505050506000809054906101000a900473ffffffffffffffffffffffffffffffffffffffff1673ffffffffffffffffffffffffffffffffffffffff1661181c9092919063ffffffff16565b61102a818a8a8080601f0160208091040260200160405190810160405280939291908181526020018383808284378201915050505050506000809054906101000a900473ffffffffffffffffffffffffffffffffffffffff1673ffffffffffffffffffffffffffffffffffffffff166119c69092919063ffffffff16565b6110a88188888080601f0160208091040260200160405190810160405280939291908181526020018383808284378201915050505050506000809054906101000a900473ffffffffffffffffffffffffffffffffffffffff1673ffffffffffffffffffffffffffffffffffffffff16611b709092919063ffffffff16565b6110f481866000809054906101000a900473ffffffffffffffffffffffffffffffffffffffff1673ffffffffffffffffffffffffffffffffffffffff16611d1a9092919063ffffffff16565b61114081856000809054906101000a900473ffffffffffffffffffffffffffffffffffffffff1673ffffffffffffffffffffffffffffffffffffffff16611e5f9092919063ffffffff16565b61118c81846000809054906101000a900473ffffffffffffffffffffffffffffffffffffffff1673ffffffffffffffffffffffffffffffffffffffff16611fa89092919063ffffffff16565b6111d881336000809054906101000a900473ffffffffffffffffffffffffffffffffffffffff1673ffffffffffffffffffffffffffffffffffffffff1661264b9092919063ffffffff16565b61122481836000809054906101000a900473ffffffffffffffffffffffffffffffffffffffff1673ffffffffffffffffffffffffffffffffffffffff166127bc9092919063ffffffff16565b7f1ac2092e16e28eef29d1832f3dc69da1b21284a1f3159d3b26cb238b22fe4f8a816040518082815260200191505060405180910390a15050505050505050505050565b600080606080606060008060008060008a99506112c58b6000809054906101000a900473ffffffffffffffffffffffffffffffffffffffff1673ffffffffffffffffffffffffffffffffffffffff166116b790919063ffffffff16565b98506113118b6000809054906101000a900473ffffffffffffffffffffffffffffffffffffffff1673ffffffffffffffffffffffffffffffffffffffff1661290190919063ffffffff16565b975061135d8b6000809054906101000a900473ffffffffffffffffffffffffffffffffffffffff1673ffffffffffffffffffffffffffffffffffffffff16612abc90919063ffffffff16565b96506113a98b6000809054906101000a900473ffffffffffffffffffffffffffffffffffffffff1673ffffffffffffffffffffffffffffffffffffffff16612c7790919063ffffffff16565b95506113f58b6000809054906101000a900473ffffffffffffffffffffffffffffffffffffffff1673ffffffffffffffffffffffffffffffffffffffff16612e3290919063ffffffff16565b94506114418b6000809054906101000a900473ffffffffffffffffffffffffffffffffffffffff1673ffffffffffffffffffffffffffffffffffffffff1661155290919063ffffffff16565b915061148d8b6000809054906101000a900473ffffffffffffffffffffffffffffffffffffffff1673ffffffffffffffffffffffffffffffffffffffff16612f9790919063ffffffff16565b93506114d98b6000809054906101000a900473ffffffffffffffffffffffffffffffffffffffff1673ffffffffffffffffffffffffffffffffffffffff166120f190919063ffffffff16565b92506115258b6000809054906101000a900473ffffffffffffffffffffffffffffffffffffffff1673ffffffffffffffffffffffffffffffffffffffff166130fc90919063ffffffff16565b90508989898989898989898999509950995099509950995099509950995099509193959799509193959799565b60008273ffffffffffffffffffffffffffffffffffffffff166321f8a7218360405160200180807f70726f6a6563742e646576656c6f7065720000000000000000000000000000008152506011018281526020019150506040516020818303038152906040526040518082805190602001908083835b6020831015156115ed57805182526020820191506020810190506020830392506115c8565b6001836020036101000a03801982511681845116808217855250505050505090500191505060405180910390206040518263ffffffff167c0100000000000000000000000000000000000000000000000000000000028152600401808260001916600019168152602001915050602060405180830381600087803b15801561167457600080fd5b505af1158015611688573d6000803e3d6000fd5b505050506040513d602081101561169e57600080fd5b8101908080519060200190929190505050905092915050565b60008273ffffffffffffffffffffffffffffffffffffffff1663bd02d0f58360405160200180807f70726f6a6563742e737461747573000000000000000000000000000000000000815250600e018281526020019150506040516020818303038152906040526040518082805190602001908083835b602083101515611752578051825260208201915060208101905060208303925061172d565b6001836020036101000a03801982511681845116808217855250505050505090500191505060405180910390206040518263ffffffff167c0100000000000000000000000000000000000000000000000000000000028152600401808260001916600019168152602001915050602060405180830381600087803b1580156117d957600080fd5b505af11580156117ed573d6000803e3d6000fd5b505050506040513d602081101561180357600080fd5b8101908080519060200190929190505050905092915050565b8273ffffffffffffffffffffffffffffffffffffffff16636e8995508360405160200180807f70726f6a6563742e7469746c6500000000000000000000000000000000000000815250600d018281526020019150506040516020818303038152906040526040518082805190602001908083835b6020831015156118b55780518252602082019150602081019050602083039250611890565b6001836020036101000a0380198251168184511680821785525050505050509050019150506040518091039020836040518363ffffffff167c010000000000000000000000000000000000000000000000000000000002815260040180836000191660001916815260200180602001828103825283818151815260200191508051906020019080838360005b8381101561195c578082015181840152602081019050611941565b50505050905090810190601f1680156119895780820380516001836020036101000a031916815260200191505b509350505050600060405180830381600087803b1580156119a957600080fd5b505af11580156119bd573d6000803e3d6000fd5b50505050505050565b8273ffffffffffffffffffffffffffffffffffffffff16636e8995508360405160200180807f70726f6a6563742e6465736372697074696f6e000000000000000000000000008152506013018281526020019150506040516020818303038152906040526040518082805190602001908083835b602083101515611a5f5780518252602082019150602081019050602083039250611a3a565b6001836020036101000a0380198251168184511680821785525050505050509050019150506040518091039020836040518363ffffffff167c010000000000000000000000000000000000000000000000000000000002815260040180836000191660001916815260200180602001828103825283818151815260200191508051906020019080838360005b83811015611b06578082015181840152602081019050611aeb565b50505050905090810190601f168015611b335780820380516001836020036101000a031916815260200191505b509350505050600060405180830381600087803b158015611b5357600080fd5b505af1158015611b67573d6000803e3d6000fd5b50505050505050565b8273ffffffffffffffffffffffffffffffffffffffff16636e8995508360405160200180807f70726f6a6563742e61626f757400000000000000000000000000000000000000815250600d018281526020019150506040516020818303038152906040526040518082805190602001908083835b602083101515611c095780518252602082019150602081019050602083039250611be4565b6001836020036101000a0380198251168184511680821785525050505050509050019150506040518091039020836040518363ffffffff167c010000000000000000000000000000000000000000000000000000000002815260040180836000191660001916815260200180602001828103825283818151815260200191508051906020019080838360005b83811015611cb0578082015181840152602081019050611c95565b50505050905090810190601f168015611cdd5780820380516001836020036101000a031916815260200191505b509350505050600060405180830381600087803b158015611cfd57600080fd5b505af1158015611d11573d6000803e3d6000fd5b50505050505050565b8273ffffffffffffffffffffffffffffffffffffffff1663e2a4853a8360405160200180807f70726f6a6563742e636f6e747269627574696f6e476f616c00000000000000008152506018018281526020019150506040516020818303038152906040526040518082805190602001908083835b602083101515611db35780518252602082019150602081019050602083039250611d8e565b6001836020036101000a0380198251168184511680821785525050505050509050019150506040518091039020836040518363ffffffff167c010000000000000000000000000000000000000000000000000000000002815260040180836000191660001916815260200182815260200192505050600060405180830381600087803b158015611e4257600080fd5b505af1158015611e56573d6000803e3d6000fd5b50505050505050565b8273ffffffffffffffffffffffffffffffffffffffff1663abfdcced8360405160200180807f70726f6a6563742e6e6f526566756e64730000000000000000000000000000008152506011018281526020019150506040516020818303038152906040526040518082805190602001908083835b602083101515611ef85780518252602082019150602081019050602083039250611ed3565b6001836020036101000a0380198251168184511680821785525050505050509050019150506040518091039020836040518363ffffffff167c01000000000000000000000000000000000000000000000000000000000281526004018083600019166000191681526020018215151515815260200192505050600060405180830381600087803b158015611f8b57600080fd5b505af1158015611f9f573d6000803e3d6000fd5b50505050505050565b8273ffffffffffffffffffffffffffffffffffffffff1663abfdcced8360405160200180807f70726f6a6563742e6e6f54696d656c696e6500000000000000000000000000008152506012018281526020019150506040516020818303038152906040526040518082805190602001908083835b602083101515612041578051825260208201915060208101905060208303925061201c565b6001836020036101000a0380198251168184511680821785525050505050509050019150506040518091039020836040518363ffffffff167c01000000000000000000000000000000000000000000000000000000000281526004018083600019166000191681526020018215151515815260200192505050600060405180830381600087803b1580156120d457600080fd5b505af11580156120e8573d6000803e3d6000fd5b50505050505050565b60008273ffffffffffffffffffffffffffffffffffffffff16637ae1cfca8360405160200180807f70726f6a6563742e6e6f54696d656c696e6500000000000000000000000000008152506012018281526020019150506040516020818303038152906040526040518082805190602001908083835b60208310151561218c5780518252602082019150602081019050602083039250612167565b6001836020036101000a03801982511681845116808217855250505050505090500191505060405180910390206040518263ffffffff167c0100000000000000000000000000000000000000000000000000000000028152600401808260001916600019168152602001915050602060405180830381600087803b15801561221357600080fd5b505af1158015612227573d6000803e3d6000fd5b505050506040513d602081101561223d57600080fd5b8101908080519060200190929190505050905092915050565b60006122a2826000809054906101000a900473ffffffffffffffffffffffffffffffffffffffff1673ffffffffffffffffffffffffffffffffffffffff1661326190919063ffffffff16565b9050600081111515612342576040517f08c379a00000000000000000000000000000000000000000000000000000000081526004018080602001828103825260228152602001807f50726f6a65637420686173206e6f20636f6e747269627574696f6e207469657281526020017f732e00000000000000000000000000000000000000000000000000000000000081525060400191505060405180910390fd5b5050565b8273ffffffffffffffffffffffffffffffffffffffff1663e2a4853a8360405160200180807f70726f6a6563742e737461747573000000000000000000000000000000000000815250600e018281526020019150506040516020818303038152906040526040518082805190602001908083835b6020831015156123df57805182526020820191506020810190506020830392506123ba565b6001836020036101000a0380198251168184511680821785525050505050509050019150506040518091039020836040518363ffffffff167c010000000000000000000000000000000000000000000000000000000002815260040180836000191660001916815260200182815260200192505050600060405180830381600087803b15801561246e57600080fd5b505af1158015612482573d6000803e3d6000fd5b50505050505050565b60008273ffffffffffffffffffffffffffffffffffffffff1663bd02d0f58360405160200180807f646576656c6f7065722e646576656c6f7065724d6170000000000000000000008152506016018273ffffffffffffffffffffffffffffffffffffffff1673ffffffffffffffffffffffffffffffffffffffff166c010000000000000000000000000281526014019150506040516020818303038152906040526040518082805190602001908083835b602083101515612561578051825260208201915060208101905060208303925061253c565b6001836020036101000a03801982511681845116808217855250505050505090500191505060405180910390206040518263ffffffff167c0100000000000000000000000000000000000000000000000000000000028152600401808260001916600019168152602001915050602060405180830381600087803b1580156125e857600080fd5b505af11580156125fc573d6000803e3d6000fd5b505050506040513d602081101561261257600080fd5b8101908080519060200190929190505050905092915050565b600080612637836133ec565b9050612642836134dc565b80915050919050565b8273ffffffffffffffffffffffffffffffffffffffff1663ca446dd98360405160200180807f70726f6a6563742e646576656c6f7065720000000000000000000000000000008152506011018281526020019150506040516020818303038152906040526040518082805190602001908083835b6020831015156126e457805182526020820191506020810190506020830392506126bf565b6001836020036101000a0380198251168184511680821785525050505050509050019150506040518091039020836040518363ffffffff167c01000000000000000000000000000000000000000000000000000000000281526004018083600019166000191681526020018273ffffffffffffffffffffffffffffffffffffffff1673ffffffffffffffffffffffffffffffffffffffff16815260200192505050600060405180830381600087803b15801561279f57600080fd5b505af11580156127b3573d6000803e3d6000fd5b50505050505050565b8273ffffffffffffffffffffffffffffffffffffffff1663e2a4853a8360405160200180807f70726f6a6563742e646576656c6f7065724964000000000000000000000000008152506013018281526020019150506040516020818303038152906040526040518082805190602001908083835b6020831015156128555780518252602082019150602081019050602083039250612830565b6001836020036101000a0380198251168184511680821785525050505050509050019150506040518091039020836040518363ffffffff167c010000000000000000000000000000000000000000000000000000000002815260040180836000191660001916815260200182815260200192505050600060405180830381600087803b1580156128e457600080fd5b505af11580156128f8573d6000803e3d6000fd5b50505050505050565b60608273ffffffffffffffffffffffffffffffffffffffff1663986e791a8360405160200180807f70726f6a6563742e7469746c6500000000000000000000000000000000000000815250600d018281526020019150506040516020818303038152906040526040518082805190602001908083835b60208310151561299c5780518252602082019150602081019050602083039250612977565b6001836020036101000a03801982511681845116808217855250505050505090500191505060405180910390206040518263ffffffff167c0100000000000000000000000000000000000000000000000000000000028152600401808260001916600019168152602001915050600060405180830381600087803b158015612a2357600080fd5b505af1158015612a37573d6000803e3d6000fd5b505050506040513d6000823e3d601f19601f820116820180604052506020811015612a6157600080fd5b810190808051640100000000811115612a7957600080fd5b82810190506020810184811115612a8f57600080fd5b8151856001820283011164010000000082111715612aac57600080fd5b5050929190505050905092915050565b60608273ffffffffffffffffffffffffffffffffffffffff1663986e791a8360405160200180807f70726f6a6563742e6465736372697074696f6e000000000000000000000000008152506013018281526020019150506040516020818303038152906040526040518082805190602001908083835b602083101515612b575780518252602082019150602081019050602083039250612b32565b6001836020036101000a03801982511681845116808217855250505050505090500191505060405180910390206040518263ffffffff167c0100000000000000000000000000000000000000000000000000000000028152600401808260001916600019168152602001915050600060405180830381600087803b158015612bde57600080fd5b505af1158015612bf2573d6000803e3d6000fd5b505050506040513d6000823e3d601f19601f820116820180604052506020811015612c1c57600080fd5b810190808051640100000000811115612c3457600080fd5b82810190506020810184811115612c4a57600080fd5b8151856001820283011164010000000082111715612c6757600080fd5b5050929190505050905092915050565b60608273ffffffffffffffffffffffffffffffffffffffff1663986e791a8360405160200180807f70726f6a6563742e61626f757400000000000000000000000000000000000000815250600d018281526020019150506040516020818303038152906040526040518082805190602001908083835b602083101515612d125780518252602082019150602081019050602083039250612ced565b6001836020036101000a03801982511681845116808217855250505050505090500191505060405180910390206040518263ffffffff167c0100000000000000000000000000000000000000000000000000000000028152600401808260001916600019168152602001915050600060405180830381600087803b158015612d9957600080fd5b505af1158015612dad573d6000803e3d6000fd5b505050506040513d6000823e3d601f19601f820116820180604052506020811015612dd757600080fd5b810190808051640100000000811115612def57600080fd5b82810190506020810184811115612e0557600080fd5b8151856001820283011164010000000082111715612e2257600080fd5b5050929190505050905092915050565b60008273ffffffffffffffffffffffffffffffffffffffff1663bd02d0f58360405160200180807f70726f6a6563742e636f6e747269627574696f6e476f616c00000000000000008152506018018281526020019150506040516020818303038152906040526040518082805190602001908083835b602083101515612ecd5780518252602082019150602081019050602083039250612ea8565b6001836020036101000a03801982511681845116808217855250505050505090500191505060405180910390206040518263ffffffff167c0100000000000000000000000000000000000000000000000000000000028152600401808260001916600019168152602001915050602060405180830381600087803b158015612f5457600080fd5b505af1158015612f68573d6000803e3d6000fd5b505050506040513d6020811015612f7e57600080fd5b8101908080519060200190929190505050905092915050565b60008273ffffffffffffffffffffffffffffffffffffffff16637ae1cfca8360405160200180807f70726f6a6563742e6e6f526566756e64730000000000000000000000000000008152506011018281526020019150506040516020818303038152906040526040518082805190602001908083835b602083101515613032578051825260208201915060208101905060208303925061300d565b6001836020036101000a03801982511681845116808217855250505050505090500191505060405180910390206040518263ffffffff167c0100000000000000000000000000000000000000000000000000000000028152600401808260001916600019168152602001915050602060405180830381600087803b1580156130b957600080fd5b505af11580156130cd573d6000803e3d6000fd5b505050506040513d60208110156130e357600080fd5b8101908080519060200190929190505050905092915050565b60008273ffffffffffffffffffffffffffffffffffffffff1663bd02d0f58360405160200180807f70726f6a6563742e646576656c6f7065724964000000000000000000000000008152506013018281526020019150506040516020818303038152906040526040518082805190602001908083835b6020831015156131975780518252602082019150602081019050602083039250613172565b6001836020036101000a03801982511681845116808217855250505050505090500191505060405180910390206040518263ffffffff167c0100000000000000000000000000000000000000000000000000000000028152600401808260001916600019168152602001915050602060405180830381600087803b15801561321e57600080fd5b505af1158015613232573d6000803e3d6000fd5b505050506040513d602081101561324857600080fd5b8101908080519060200190929190505050905092915050565b60008273ffffffffffffffffffffffffffffffffffffffff1663bd02d0f58360405160200180807f70726f6a6563742e70656e64696e67436f6e747269627574696f6e546965727381526020017f2e6c656e677468000000000000000000000000000000000000000000000000008152506027018281526020019150506040516020818303038152906040526040518082805190602001908083835b60208310151561332257805182526020820191506020810190506020830392506132fd565b6001836020036101000a03801982511681845116808217855250505050505090500191505060405180910390206040518263ffffffff167c0100000000000000000000000000000000000000000000000000000000028152600401808260001916600019168152602001915050602060405180830381600087803b1580156133a957600080fd5b505af11580156133bd573d6000803e3d6000fd5b505050506040513d60208110156133d357600080fd5b8101908080519060200190929190505050905092915050565b60008173ffffffffffffffffffffffffffffffffffffffff1663bd02d0f560405180807f70726f6a6563742e6e6578744964000000000000000000000000000000000000815250600e01905060405180910390206040518263ffffffff167c0100000000000000000000000000000000000000000000000000000000028152600401808260001916600019168152602001915050602060405180830381600087803b15801561349a57600080fd5b505af11580156134ae573d6000803e3d6000fd5b505050506040513d60208110156134c457600080fd5b81019080805190602001909291905050509050919050565b60008173ffffffffffffffffffffffffffffffffffffffff1663bd02d0f560405180807f70726f6a6563742e6e6578744964000000000000000000000000000000000000815250600e01905060405180910390206040518263ffffffff167c0100000000000000000000000000000000000000000000000000000000028152600401808260001916600019168152602001915050602060405180830381600087803b15801561358a57600080fd5b505af115801561359e573d6000803e3d6000fd5b505050506040513d60208110156135b457600080fd5b810190808051906020019092919050505090508173ffffffffffffffffffffffffffffffffffffffff1663e2a4853a60405180807f70726f6a6563742e6e6578744964000000000000000000000000000000000000815250600e0190506040518091039020600184016040518363ffffffff167c010000000000000000000000000000000000000000000000000000000002815260040180836000191660001916815260200182815260200192505050600060405180830381600087803b15801561367e57600080fd5b505af1158015613692573d6000803e3d6000fd5b5050505050505600a165627a7a72305820f7c7021693a44330ee00d10c4ff7ea6fba2275b1cd239294392da83b4313cc680029",
  "source": "pragma solidity ^0.4.24;\n\nimport \"../FundingStorage.sol\";\nimport \"./ProjectBase.sol\";\nimport \"../libraries/project/ProjectHelpersLibrary.sol\";\n\ncontract ProjectRegistration is ProjectBase {\n\n    using ProjectHelpersLibrary for address;\n\n    event ProjectCreated(uint projectId);\n\n    constructor(address _fundingStorage) public {\n        fundingStorage = _fundingStorage;\n    }\n\n    function createProject(\n        string _title,\n        string _description,\n        string _about,\n        uint _contributionGoal,\n        bool _noRefunds,\n        bool _noTimeline\n    )\n        external\n    {\n        // Verify that sender is a developer\n        uint developerId = fundingStorage.getDeveloperId(msg.sender);\n        require(developerId != 0, \"This address is not a developer.\");\n\n        // Get next ID from storage + increment next ID\n        uint projectId = fundingStorage.generateNewProjectId();\n\n        // Set new project attributes\n        fundingStorage.setProjectStatus(projectId, uint(Status.Draft));\n        fundingStorage.setProjectTitle(projectId, _title);\n        fundingStorage.setProjectDescription(projectId, _description);\n        fundingStorage.setProjectAbout(projectId, _about);\n        fundingStorage.setProjectContributionGoal(projectId, _contributionGoal);\n        fundingStorage.setProjectNoRefunds(projectId, _noRefunds);\n        fundingStorage.setProjectNoTimeline(projectId, _noTimeline);\n        fundingStorage.setProjectDeveloper(projectId, msg.sender);\n        fundingStorage.setProjectDeveloperId(projectId, developerId);\n\n        emit ProjectCreated(projectId);\n    }\n\n    function editProject(\n        uint _projectId,\n        string _title,\n        string _description,\n        string _about,\n        uint _contributionGoal,\n        bool _noRefunds,\n        bool _noTimeline\n    )\n        external\n        onlyProjectDeveloper(_projectId)\n        onlyDraftProject(_projectId)\n    {\n        // Set project attributes\n        fundingStorage.setProjectTitle(_projectId, _title);\n        fundingStorage.setProjectDescription(_projectId, _description);\n        fundingStorage.setProjectAbout(_projectId, _about);\n        fundingStorage.setProjectContributionGoal(_projectId, _contributionGoal);\n        fundingStorage.setProjectNoRefunds(_projectId, _noRefunds);\n        fundingStorage.setProjectNoTimeline(_projectId, _noTimeline);\n    }\n\n    function getProject(\n        uint _projectId\n    )\n        external\n        view\n        returns (\n            uint id,\n            uint status,\n            string title,\n            string description,\n            string about,\n            uint contributionGoal,\n            bool noRefunds,\n            bool noTimeline,\n            address developer,\n            uint developerId\n        )\n    {\n        id = _projectId;\n        status = fundingStorage.getProjectStatus(_projectId);\n        title = fundingStorage.getProjectTitle(_projectId);\n        description = fundingStorage.getProjectDescription(_projectId);\n        about = fundingStorage.getProjectAbout(_projectId);\n        contributionGoal = fundingStorage.getProjectContributionGoal(_projectId);\n        developer = fundingStorage.getProjectDeveloper(_projectId);\n        noRefunds = fundingStorage.getProjectNoRefunds(_projectId);\n        noTimeline = fundingStorage.getProjectNoTimeline(_projectId);\n        developerId = fundingStorage.getProjectDeveloperId(_projectId);\n\n        return (id, status, title, description, about, contributionGoal, noRefunds, noTimeline, developer, developerId);\n    }\n\n    function submitProjectForReview(uint _projectId) external onlyProjectDeveloper(_projectId) onlyDraftProject(_projectId) {\n        bool noTimeline = fundingStorage.getProjectNoTimeline(_projectId);\n\n        // Make sure project has outlined contribution tiers\n        verifyProjectTiers(_projectId);\n\n        // If project has a timeline, verify that milestone percentages add up to 100% and set active timeline\n        if (!noTimeline) {\n            fundingStorage.verifyPendingMilestones(_projectId);\n            fundingStorage.movePendingMilestonesIntoTimeline(_projectId);\n            fundingStorage.movePendingContributionTiersIntoActiveContributionTiers(_projectId);\n        }\n\n        // Change project status to \"Pending\"\n        fundingStorage.setProjectStatus(_projectId, uint(Status.Pending));\n    }\n\n    function verifyProjectTiers(uint _projectId) private view {\n        // Verify that project has contribution tiers\n        uint tiersLength = fundingStorage.getPendingContributionTiersLength(_projectId);\n        require(tiersLength > 0, \"Project has no contribution tiers.\");\n    }\n}\n",
  "sourcePath": "/ude/hb/projects/funding-protocol/smart-contracts/ethereum/contracts/project/ProjectRegistration.sol",
  "compiler": {
    "name": "solc",
    "version": "0.4.24+commit.e67f0147.Emscripten.clang"
  },
  "schemaVersion": "2.0.0",
  "updatedAt": "2018-07-21T05:29:00.595Z"
}