{
  "contractName": "ProjectHelpersLibrary",
  "abi": [
    {
      "constant": false,
      "inputs": [
        {
          "name": "_fundingStorage",
          "type": "address"
        },
        {
          "name": "_projectId",
          "type": "uint256"
        }
      ],
      "name": "moveTimelineIntoTimelineHistory",
      "outputs": [],
      "payable": false,
      "stateMutability": "nonpayable",
      "type": "function"
    },
    {
      "constant": false,
      "inputs": [
        {
          "name": "_fundingStorage",
          "type": "address"
        },
        {
          "name": "_projectId",
          "type": "uint256"
        }
      ],
      "name": "movePendingMilestonesIntoTimeline",
      "outputs": [],
      "payable": false,
      "stateMutability": "nonpayable",
      "type": "function"
    },
    {
      "constant": false,
      "inputs": [
        {
          "name": "_fundingStorage",
          "type": "address"
        },
        {
          "name": "_projectId",
          "type": "uint256"
        }
      ],
      "name": "movePendingContributionTiersIntoActiveContributionTiers",
      "outputs": [],
      "payable": false,
      "stateMutability": "nonpayable",
      "type": "function"
    },
    {
      "constant": false,
      "inputs": [
        {
          "name": "_fundingStorage",
          "type": "address"
        },
        {
          "name": "_projectId",
          "type": "uint256"
        }
      ],
      "name": "moveCompletedMilestonesIntoPendingTimeline",
      "outputs": [],
      "payable": false,
      "stateMutability": "nonpayable",
      "type": "function"
    },
    {
      "constant": true,
      "inputs": [
        {
          "name": "_fundingStorage",
          "type": "address"
        },
        {
          "name": "_projectId",
          "type": "uint256"
        }
      ],
      "name": "verifyPendingMilestones",
      "outputs": [],
      "payable": false,
      "stateMutability": "view",
      "type": "function"
    }
  ],
  "bytecode": "0x615b2a62000033600b82828239805160001a60731460008114620000235762000025565bfe5b5030600052607381538281f3007300000000000000000000000000000000000000003014608060405260043610610084576000357c0100000000000000000000000000000000000000000000000000000000900463ffffffff16806331a26acf146100895780636237c636146100d65780637b9ee65814610123578063c064263a14610163578063c6f11449146101b0575b600080fd5b81801561009557600080fd5b506100d4600480360381019080803573ffffffffffffffffffffffffffffffffffffffff169060200190929190803590602001909291905050506101fd565b005b8180156100e257600080fd5b50610121600480360381019080803573ffffffffffffffffffffffffffffffffffffffff1690602001909291908035906020019092919050505061031b565b005b610161600480360381019080803573ffffffffffffffffffffffffffffffffffffffff16906020019092919080359060200190929190505050610439565b005b81801561016f57600080fd5b506101ae600480360381019080803573ffffffffffffffffffffffffffffffffffffffff169060200190929190803590602001909291905050506105fe565b005b8180156101bc57600080fd5b506101fb600480360381019080803573ffffffffffffffffffffffffffffffffffffffff169060200190929190803590602001909291905050506106f0565b005b600080610208615aaa565b610231848673ffffffffffffffffffffffffffffffffffffffff1661086e90919063ffffffff16565b9250600091505b828210156102bd5761026b84838773ffffffffffffffffffffffffffffffffffffffff166109d39092919063ffffffff16565b90506102b0848383600001518460200151856040015186606001518b73ffffffffffffffffffffffffffffffffffffffff166112ed909695949392919063ffffffff16565b8180600101925050610238565b6102e884848773ffffffffffffffffffffffffffffffffffffffff166113269092919063ffffffff16565b6103148460008773ffffffffffffffffffffffffffffffffffffffff1661146b9092919063ffffffff16565b5050505050565b600080610326615ad5565b61034f848673ffffffffffffffffffffffffffffffffffffffff166115b090919063ffffffff16565b9250600091505b828210156103db5761038984838773ffffffffffffffffffffffffffffffffffffffff1661173b9092919063ffffffff16565b90506103ce848383600001518460200151856040015186606001518b73ffffffffffffffffffffffffffffffffffffffff16612024909695949392919063ffffffff16565b8180600101925050610356565b61040684848773ffffffffffffffffffffffffffffffffffffffff1661205d9092919063ffffffff16565b6104328460008773ffffffffffffffffffffffffffffffffffffffff166121a29092919063ffffffff16565b5050505050565b600080600080610468858773ffffffffffffffffffffffffffffffffffffffff1661086e90919063ffffffff16565b9350600084111515610508576040517f08c379a00000000000000000000000000000000000000000000000000000000081526004018080602001828103825260228152602001807f50726f6a65637420686173206e6f2070656e64696e67206d696c6573746f6e6581526020017f732e00000000000000000000000000000000000000000000000000000000000081525060400191505060405180910390fd5b60009250600091505b838210156105585761054485838873ffffffffffffffffffffffffffffffffffffffff1661230d9092919063ffffffff16565b905080830192508180600101925050610511565b6064831415156105f6576040517f08c379a00000000000000000000000000000000000000000000000000000000081526004018080602001828103825260268152602001807f4d696c6573746f6e652070657263656e7461676573206d75737420616464207481526020017f6f203130302e000000000000000000000000000000000000000000000000000081525060400191505060405180910390fd5b505050505050565b600080610609615aaa565b610632848673ffffffffffffffffffffffffffffffffffffffff1661269890919063ffffffff16565b9250600091505b828210156106be5761066c84838773ffffffffffffffffffffffffffffffffffffffff166128239092919063ffffffff16565b90506106b1848383600001518460200151856040015186606001518b73ffffffffffffffffffffffffffffffffffffffff16613163909695949392919063ffffffff16565b8180600101925050610639565b6106e984848773ffffffffffffffffffffffffffffffffffffffff1661146b9092919063ffffffff16565b5050505050565b60008060006106fd615aaa565b610726858773ffffffffffffffffffffffffffffffffffffffff1661319c90919063ffffffff16565b9350610751858773ffffffffffffffffffffffffffffffffffffffff1661330190919063ffffffff16565b9250600091505b828210156107df5761078b85838873ffffffffffffffffffffffffffffffffffffffff166134669092919063ffffffff16565b90506107d285858484600001518560200151866040015187606001518d73ffffffffffffffffffffffffffffffffffffffff16613d8090979695949392919063ffffffff16565b8180600101925050610758565b61080d85600186018873ffffffffffffffffffffffffffffffffffffffff16613dbe9092919063ffffffff16565b61083a8585858973ffffffffffffffffffffffffffffffffffffffff16613f03909392919063ffffffff16565b6108668560008873ffffffffffffffffffffffffffffffffffffffff166113269092919063ffffffff16565b505050505050565b60008273ffffffffffffffffffffffffffffffffffffffff1663bd02d0f58360405160200180807f70726f6a6563742e70656e64696e6754696d656c696e652e6c656e6774680000815250601e018281526020019150506040516020818303038152906040526040518082805190602001908083835b60208310151561090957805182526020820191506020810190506020830392506108e4565b6001836020036101000a03801982511681845116808217855250505050505090500191505060405180910390206040518263ffffffff167c0100000000000000000000000000000000000000000000000000000000028152600401808260001916600019168152602001915050602060405180830381600087803b15801561099057600080fd5b505af11580156109a4573d6000803e3d6000fd5b505050506040513d60208110156109ba57600080fd5b8101908080519060200190929190505050905092915050565b6109db615aaa565b6060806000806109e9615aaa565b8873ffffffffffffffffffffffffffffffffffffffff1663bd02d0f58960405160200180807f70726f6a6563742e70656e64696e6754696d656c696e652e6c656e6774680000815250601e018281526020019150506040516020818303038152906040526040518082805190602001908083835b602083101515610a825780518252602082019150602081019050602083039250610a5d565b6001836020036101000a03801982511681845116808217855250505050505090500191505060405180910390206040518263ffffffff167c0100000000000000000000000000000000000000000000000000000000028152600401808260001916600019168152602001915050602060405180830381600087803b158015610b0957600080fd5b505af1158015610b1d573d6000803e3d6000fd5b505050506040513d6020811015610b3357600080fd5b810190808051906020019092919050505087101515610be0576040517f08c379a00000000000000000000000000000000000000000000000000000000081526004018080602001828103825260258152602001807f496e646578206973206f757473696465206f662061636365737369626c65207281526020017f616e67652e00000000000000000000000000000000000000000000000000000081525060400191505060405180910390fd5b8873ffffffffffffffffffffffffffffffffffffffff1663986e791a888a60405160200180807f70726f6a6563742e70656e64696e6754696d656c696e652e6d696c6573746f6e81526020017f65732e7469746c65000000000000000000000000000000000000000000000000815250602801838152602001828152602001925050506040516020818303038152906040526040518082805190602001908083835b602083101515610ca75780518252602082019150602081019050602083039250610c82565b6001836020036101000a03801982511681845116808217855250505050505090500191505060405180910390206040518263ffffffff167c0100000000000000000000000000000000000000000000000000000000028152600401808260001916600019168152602001915050600060405180830381600087803b158015610d2e57600080fd5b505af1158015610d42573d6000803e3d6000fd5b505050506040513d6000823e3d601f19601f820116820180604052506020811015610d6c57600080fd5b810190808051640100000000811115610d8457600080fd5b82810190506020810184811115610d9a57600080fd5b8151856001820283011164010000000082111715610db757600080fd5b505092919050505094508873ffffffffffffffffffffffffffffffffffffffff1663986e791a888a60405160200180807f70726f6a6563742e70656e64696e6754696d656c696e652e6d696c6573746f6e81526020017f65732e6465736372697074696f6e000000000000000000000000000000000000815250602e01838152602001828152602001925050506040516020818303038152906040526040518082805190602001908083835b602083101515610e885780518252602082019150602081019050602083039250610e63565b6001836020036101000a03801982511681845116808217855250505050505090500191505060405180910390206040518263ffffffff167c0100000000000000000000000000000000000000000000000000000000028152600401808260001916600019168152602001915050600060405180830381600087803b158015610f0f57600080fd5b505af1158015610f23573d6000803e3d6000fd5b505050506040513d6000823e3d601f19601f820116820180604052506020811015610f4d57600080fd5b810190808051640100000000811115610f6557600080fd5b82810190506020810184811115610f7b57600080fd5b8151856001820283011164010000000082111715610f9857600080fd5b505092919050505093508873ffffffffffffffffffffffffffffffffffffffff1663bd02d0f5888a60405160200180807f70726f6a6563742e70656e64696e6754696d656c696e652e6d696c6573746f6e81526020017f65732e70657263656e7461676500000000000000000000000000000000000000815250602d01838152602001828152602001925050506040516020818303038152906040526040518082805190602001908083835b6020831015156110695780518252602082019150602081019050602083039250611044565b6001836020036101000a03801982511681845116808217855250505050505090500191505060405180910390206040518263ffffffff167c0100000000000000000000000000000000000000000000000000000000028152600401808260001916600019168152602001915050602060405180830381600087803b1580156110f057600080fd5b505af1158015611104573d6000803e3d6000fd5b505050506040513d602081101561111a57600080fd5b810190808051906020019092919050505092508873ffffffffffffffffffffffffffffffffffffffff16637ae1cfca888a60405160200180807f70726f6a6563742e70656e64696e6754696d656c696e652e6d696c6573746f6e81526020017f65732e6973436f6d706c65746500000000000000000000000000000000000000815250602d01838152602001828152602001925050506040516020818303038152906040526040518082805190602001908083835b6020831015156111f457805182526020820191506020810190506020830392506111cf565b6001836020036101000a03801982511681845116808217855250505050505090500191505060405180910390206040518263ffffffff167c0100000000000000000000000000000000000000000000000000000000028152600401808260001916600019168152602001915050602060405180830381600087803b15801561127b57600080fd5b505af115801561128f573d6000803e3d6000fd5b505050506040513d60208110156112a557600080fd5b81019080805190602001909291905050509150608060405190810160405280868152602001858152602001848152602001831515815250905080955050505050509392505050565b6112f987878787614077565b61130587878786614250565b61131187878785614429565b61131d8787878461459d565b50505050505050565b8273ffffffffffffffffffffffffffffffffffffffff1663e2a4853a8360405160200180807f70726f6a6563742e74696d656c696e652e6c656e6774680000000000000000008152506017018281526020019150506040516020818303038152906040526040518082805190602001908083835b6020831015156113bf578051825260208201915060208101905060208303925061139a565b6001836020036101000a0380198251168184511680821785525050505050509050019150506040518091039020836040518363ffffffff167c010000000000000000000000000000000000000000000000000000000002815260040180836000191660001916815260200182815260200192505050600060405180830381600087803b15801561144e57600080fd5b505af1158015611462573d6000803e3d6000fd5b50505050505050565b8273ffffffffffffffffffffffffffffffffffffffff1663e2a4853a8360405160200180807f70726f6a6563742e70656e64696e6754696d656c696e652e6c656e6774680000815250601e018281526020019150506040516020818303038152906040526040518082805190602001908083835b60208310151561150457805182526020820191506020810190506020830392506114df565b6001836020036101000a0380198251168184511680821785525050505050509050019150506040518091039020836040518363ffffffff167c010000000000000000000000000000000000000000000000000000000002815260040180836000191660001916815260200182815260200192505050600060405180830381600087803b15801561159357600080fd5b505af11580156115a7573d6000803e3d6000fd5b50505050505050565b60008273ffffffffffffffffffffffffffffffffffffffff1663bd02d0f58360405160200180807f70726f6a6563742e70656e64696e67436f6e747269627574696f6e546965727381526020017f2e6c656e677468000000000000000000000000000000000000000000000000008152506027018281526020019150506040516020818303038152906040526040518082805190602001908083835b602083101515611671578051825260208201915060208101905060208303925061164c565b6001836020036101000a03801982511681845116808217855250505050505090500191505060405180910390206040518263ffffffff167c0100000000000000000000000000000000000000000000000000000000028152600401808260001916600019168152602001915050602060405180830381600087803b1580156116f857600080fd5b505af115801561170c573d6000803e3d6000fd5b505050506040513d602081101561172257600080fd5b8101908080519060200190929190505050905092915050565b611743615ad5565b60008060006060611752615ad5565b8873ffffffffffffffffffffffffffffffffffffffff1663bd02d0f58960405160200180807f70726f6a6563742e70656e64696e67436f6e747269627574696f6e546965727381526020017f2e6c656e677468000000000000000000000000000000000000000000000000008152506027018281526020019150506040516020818303038152906040526040518082805190602001908083835b60208310151561181157805182526020820191506020810190506020830392506117ec565b6001836020036101000a03801982511681845116808217855250505050505090500191505060405180910390206040518263ffffffff167c0100000000000000000000000000000000000000000000000000000000028152600401808260001916600019168152602001915050602060405180830381600087803b15801561189857600080fd5b505af11580156118ac573d6000803e3d6000fd5b505050506040513d60208110156118c257600080fd5b81019080805190602001909291905050508710151561196f576040517f08c379a00000000000000000000000000000000000000000000000000000000081526004018080602001828103825260258152602001807f496e646578206973206f757473696465206f662061636365737369626c65207281526020017f616e67652e00000000000000000000000000000000000000000000000000000081525060400191505060405180910390fd5b8873ffffffffffffffffffffffffffffffffffffffff1663bd02d0f5888a60405160200180807f70726f6a6563742e70656e64696e67436f6e747269627574696f6e546965727381526020017f2e636f6e7472696275746f724c696d6974000000000000000000000000000000815250603101838152602001828152602001925050506040516020818303038152906040526040518082805190602001908083835b602083101515611a365780518252602082019150602081019050602083039250611a11565b6001836020036101000a03801982511681845116808217855250505050505090500191505060405180910390206040518263ffffffff167c0100000000000000000000000000000000000000000000000000000000028152600401808260001916600019168152602001915050602060405180830381600087803b158015611abd57600080fd5b505af1158015611ad1573d6000803e3d6000fd5b505050506040513d6020811015611ae757600080fd5b810190808051906020019092919050505094508873ffffffffffffffffffffffffffffffffffffffff1663bd02d0f5888a60405160200180807f70726f6a6563742e70656e64696e67436f6e747269627574696f6e546965727381526020017f2e6d696e436f6e747269627574696f6e00000000000000000000000000000000815250603001838152602001828152602001925050506040516020818303038152906040526040518082805190602001908083835b602083101515611bc15780518252602082019150602081019050602083039250611b9c565b6001836020036101000a03801982511681845116808217855250505050505090500191505060405180910390206040518263ffffffff167c0100000000000000000000000000000000000000000000000000000000028152600401808260001916600019168152602001915050602060405180830381600087803b158015611c4857600080fd5b505af1158015611c5c573d6000803e3d6000fd5b505050506040513d6020811015611c7257600080fd5b810190808051906020019092919050505093508873ffffffffffffffffffffffffffffffffffffffff1663bd02d0f5888a60405160200180807f70726f6a6563742e70656e64696e67436f6e747269627574696f6e546965727381526020017f2e6d6178436f6e747269627574696f6e00000000000000000000000000000000815250603001838152602001828152602001925050506040516020818303038152906040526040518082805190602001908083835b602083101515611d4c5780518252602082019150602081019050602083039250611d27565b6001836020036101000a03801982511681845116808217855250505050505090500191505060405180910390206040518263ffffffff167c0100000000000000000000000000000000000000000000000000000000028152600401808260001916600019168152602001915050602060405180830381600087803b158015611dd357600080fd5b505af1158015611de7573d6000803e3d6000fd5b505050506040513d6020811015611dfd57600080fd5b810190808051906020019092919050505092508873ffffffffffffffffffffffffffffffffffffffff1663986e791a888a60405160200180807f70726f6a6563742e70656e64696e67436f6e747269627574696f6e546965727381526020017f2e72657761726473000000000000000000000000000000000000000000000000815250602801838152602001828152602001925050506040516020818303038152906040526040518082805190602001908083835b602083101515611ed75780518252602082019150602081019050602083039250611eb2565b6001836020036101000a03801982511681845116808217855250505050505090500191505060405180910390206040518263ffffffff167c0100000000000000000000000000000000000000000000000000000000028152600401808260001916600019168152602001915050600060405180830381600087803b158015611f5e57600080fd5b505af1158015611f72573d6000803e3d6000fd5b505050506040513d6000823e3d601f19601f820116820180604052506020811015611f9c57600080fd5b810190808051640100000000811115611fb457600080fd5b82810190506020810184811115611fca57600080fd5b8151856001820283011164010000000082111715611fe757600080fd5b5050929190505050915060806040519081016040528086815260200185815260200184815260200183815250905080955050505050509392505050565b61203087878787614715565b61203c87878786614889565b612048878787856149fd565b61205487878784614b71565b50505050505050565b8273ffffffffffffffffffffffffffffffffffffffff1663e2a4853a8360405160200180807f70726f6a6563742e636f6e747269627574696f6e54696572732e6c656e6774688152506020018281526020019150506040516020818303038152906040526040518082805190602001908083835b6020831015156120f657805182526020820191506020810190506020830392506120d1565b6001836020036101000a0380198251168184511680821785525050505050509050019150506040518091039020836040518363ffffffff167c010000000000000000000000000000000000000000000000000000000002815260040180836000191660001916815260200182815260200192505050600060405180830381600087803b15801561218557600080fd5b505af1158015612199573d6000803e3d6000fd5b50505050505050565b8273ffffffffffffffffffffffffffffffffffffffff1663e2a4853a8360405160200180807f70726f6a6563742e70656e64696e67436f6e747269627574696f6e546965727381526020017f2e6c656e677468000000000000000000000000000000000000000000000000008152506027018281526020019150506040516020818303038152906040526040518082805190602001908083835b602083101515612261578051825260208201915060208101905060208303925061223c565b6001836020036101000a0380198251168184511680821785525050505050509050019150506040518091039020836040518363ffffffff167c010000000000000000000000000000000000000000000000000000000002815260040180836000191660001916815260200182815260200192505050600060405180830381600087803b1580156122f057600080fd5b505af1158015612304573d6000803e3d6000fd5b50505050505050565b60008373ffffffffffffffffffffffffffffffffffffffff1663bd02d0f58460405160200180807f70726f6a6563742e70656e64696e6754696d656c696e652e6c656e6774680000815250601e018281526020019150506040516020818303038152906040526040518082805190602001908083835b6020831015156123a85780518252602082019150602081019050602083039250612383565b6001836020036101000a03801982511681845116808217855250505050505090500191505060405180910390206040518263ffffffff167c0100000000000000000000000000000000000000000000000000000000028152600401808260001916600019168152602001915050602060405180830381600087803b15801561242f57600080fd5b505af1158015612443573d6000803e3d6000fd5b505050506040513d602081101561245957600080fd5b810190808051906020019092919050505082101515612506576040517f08c379a00000000000000000000000000000000000000000000000000000000081526004018080602001828103825260258152602001807f496e646578206973206f757473696465206f662061636365737369626c65207281526020017f616e67652e00000000000000000000000000000000000000000000000000000081525060400191505060405180910390fd5b8373ffffffffffffffffffffffffffffffffffffffff1663bd02d0f5838560405160200180807f70726f6a6563742e70656e64696e6754696d656c696e652e6d696c6573746f6e81526020017f65732e70657263656e7461676500000000000000000000000000000000000000815250602d01838152602001828152602001925050506040516020818303038152906040526040518082805190602001908083835b6020831015156125cd57805182526020820191506020810190506020830392506125a8565b6001836020036101000a03801982511681845116808217855250505050505090500191505060405180910390206040518263ffffffff167c0100000000000000000000000000000000000000000000000000000000028152600401808260001916600019168152602001915050602060405180830381600087803b15801561265457600080fd5b505af1158015612668573d6000803e3d6000fd5b505050506040513d602081101561267e57600080fd5b810190808051906020019092919050505090509392505050565b60008273ffffffffffffffffffffffffffffffffffffffff1663bd02d0f58360405160200180807f70726f6a6563742e636f6d706c657465644d696c6573746f6e65732e6c656e6781526020017f74680000000000000000000000000000000000000000000000000000000000008152506022018281526020019150506040516020818303038152906040526040518082805190602001908083835b6020831015156127595780518252602082019150602081019050602083039250612734565b6001836020036101000a03801982511681845116808217855250505050505090500191505060405180910390206040518263ffffffff167c0100000000000000000000000000000000000000000000000000000000028152600401808260001916600019168152602001915050602060405180830381600087803b1580156127e057600080fd5b505af11580156127f4573d6000803e3d6000fd5b505050506040513d602081101561280a57600080fd5b8101908080519060200190929190505050905092915050565b61282b615aaa565b606080600080612839615aaa565b8873ffffffffffffffffffffffffffffffffffffffff1663bd02d0f58960405160200180807f70726f6a6563742e636f6d706c657465644d696c6573746f6e65732e6c656e6781526020017f74680000000000000000000000000000000000000000000000000000000000008152506022018281526020019150506040516020818303038152906040526040518082805190602001908083835b6020831015156128f857805182526020820191506020810190506020830392506128d3565b6001836020036101000a03801982511681845116808217855250505050505090500191505060405180910390206040518263ffffffff167c0100000000000000000000000000000000000000000000000000000000028152600401808260001916600019168152602001915050602060405180830381600087803b15801561297f57600080fd5b505af1158015612993573d6000803e3d6000fd5b505050506040513d60208110156129a957600080fd5b810190808051906020019092919050505087101515612a56576040517f08c379a00000000000000000000000000000000000000000000000000000000081526004018080602001828103825260258152602001807f496e646578206973206f757473696465206f662061636365737369626c65207281526020017f616e67652e00000000000000000000000000000000000000000000000000000081525060400191505060405180910390fd5b8873ffffffffffffffffffffffffffffffffffffffff1663986e791a888a60405160200180807f70726f6a6563742e636f6d706c657465644d696c6573746f6e65732e7469746c81526020017f6500000000000000000000000000000000000000000000000000000000000000815250602101838152602001828152602001925050506040516020818303038152906040526040518082805190602001908083835b602083101515612b1d5780518252602082019150602081019050602083039250612af8565b6001836020036101000a03801982511681845116808217855250505050505090500191505060405180910390206040518263ffffffff167c0100000000000000000000000000000000000000000000000000000000028152600401808260001916600019168152602001915050600060405180830381600087803b158015612ba457600080fd5b505af1158015612bb8573d6000803e3d6000fd5b505050506040513d6000823e3d601f19601f820116820180604052506020811015612be257600080fd5b810190808051640100000000811115612bfa57600080fd5b82810190506020810184811115612c1057600080fd5b8151856001820283011164010000000082111715612c2d57600080fd5b505092919050505094508873ffffffffffffffffffffffffffffffffffffffff1663986e791a888a60405160200180807f70726f6a6563742e636f6d706c657465644d696c6573746f6e65732e6465736381526020017f72697074696f6e00000000000000000000000000000000000000000000000000815250602701838152602001828152602001925050506040516020818303038152906040526040518082805190602001908083835b602083101515612cfe5780518252602082019150602081019050602083039250612cd9565b6001836020036101000a03801982511681845116808217855250505050505090500191505060405180910390206040518263ffffffff167c0100000000000000000000000000000000000000000000000000000000028152600401808260001916600019168152602001915050600060405180830381600087803b158015612d8557600080fd5b505af1158015612d99573d6000803e3d6000fd5b505050506040513d6000823e3d601f19601f820116820180604052506020811015612dc357600080fd5b810190808051640100000000811115612ddb57600080fd5b82810190506020810184811115612df157600080fd5b8151856001820283011164010000000082111715612e0e57600080fd5b505092919050505093508873ffffffffffffffffffffffffffffffffffffffff1663bd02d0f5888a60405160200180807f70726f6a6563742e636f6d706c657465644d696c6573746f6e65732e7065726381526020017f656e746167650000000000000000000000000000000000000000000000000000815250602601838152602001828152602001925050506040516020818303038152906040526040518082805190602001908083835b602083101515612edf5780518252602082019150602081019050602083039250612eba565b6001836020036101000a03801982511681845116808217855250505050505090500191505060405180910390206040518263ffffffff167c0100000000000000000000000000000000000000000000000000000000028152600401808260001916600019168152602001915050602060405180830381600087803b158015612f6657600080fd5b505af1158015612f7a573d6000803e3d6000fd5b505050506040513d6020811015612f9057600080fd5b810190808051906020019092919050505092508873ffffffffffffffffffffffffffffffffffffffff16637ae1cfca888a60405160200180807f70726f6a6563742e636f6d706c657465644d696c6573746f6e65732e6973436f81526020017f6d706c6574650000000000000000000000000000000000000000000000000000815250602601838152602001828152602001925050506040516020818303038152906040526040518082805190602001908083835b60208310151561306a5780518252602082019150602081019050602083039250613045565b6001836020036101000a03801982511681845116808217855250505050505090500191505060405180910390206040518263ffffffff167c0100000000000000000000000000000000000000000000000000000000028152600401808260001916600019168152602001915050602060405180830381600087803b1580156130f157600080fd5b505af1158015613105573d6000803e3d6000fd5b505050506040513d602081101561311b57600080fd5b81019080805190602001909291905050509150608060405190810160405280868152602001858152602001848152602001831515815250905080955050505050509392505050565b61316f87878787614d4a565b61317b87878786614f23565b613187878787856150fc565b61319387878784615270565b50505050505050565b60008273ffffffffffffffffffffffffffffffffffffffff1663bd02d0f58360405160200180807f70726f6a6563742e74696d656c696e65486973746f72792e6c656e6774680000815250601e018281526020019150506040516020818303038152906040526040518082805190602001908083835b6020831015156132375780518252602082019150602081019050602083039250613212565b6001836020036101000a03801982511681845116808217855250505050505090500191505060405180910390206040518263ffffffff167c0100000000000000000000000000000000000000000000000000000000028152600401808260001916600019168152602001915050602060405180830381600087803b1580156132be57600080fd5b505af11580156132d2573d6000803e3d6000fd5b505050506040513d60208110156132e857600080fd5b8101908080519060200190929190505050905092915050565b60008273ffffffffffffffffffffffffffffffffffffffff1663bd02d0f58360405160200180807f70726f6a6563742e74696d656c696e652e6c656e6774680000000000000000008152506017018281526020019150506040516020818303038152906040526040518082805190602001908083835b60208310151561339c5780518252602082019150602081019050602083039250613377565b6001836020036101000a03801982511681845116808217855250505050505090500191505060405180910390206040518263ffffffff167c0100000000000000000000000000000000000000000000000000000000028152600401808260001916600019168152602001915050602060405180830381600087803b15801561342357600080fd5b505af1158015613437573d6000803e3d6000fd5b505050506040513d602081101561344d57600080fd5b8101908080519060200190929190505050905092915050565b61346e615aaa565b60608060008061347c615aaa565b8873ffffffffffffffffffffffffffffffffffffffff1663bd02d0f58960405160200180807f70726f6a6563742e74696d656c696e652e6c656e6774680000000000000000008152506017018281526020019150506040516020818303038152906040526040518082805190602001908083835b60208310151561351557805182526020820191506020810190506020830392506134f0565b6001836020036101000a03801982511681845116808217855250505050505090500191505060405180910390206040518263ffffffff167c0100000000000000000000000000000000000000000000000000000000028152600401808260001916600019168152602001915050602060405180830381600087803b15801561359c57600080fd5b505af11580156135b0573d6000803e3d6000fd5b505050506040513d60208110156135c657600080fd5b810190808051906020019092919050505087101515613673576040517f08c379a00000000000000000000000000000000000000000000000000000000081526004018080602001828103825260258152602001807f496e646578206973206f757473696465206f662061636365737369626c65207281526020017f616e67652e00000000000000000000000000000000000000000000000000000081525060400191505060405180910390fd5b8873ffffffffffffffffffffffffffffffffffffffff1663986e791a888a60405160200180807f70726f6a6563742e74696d656c696e652e6d696c6573746f6e65732e7469746c81526020017f6500000000000000000000000000000000000000000000000000000000000000815250602101838152602001828152602001925050506040516020818303038152906040526040518082805190602001908083835b60208310151561373a5780518252602082019150602081019050602083039250613715565b6001836020036101000a03801982511681845116808217855250505050505090500191505060405180910390206040518263ffffffff167c0100000000000000000000000000000000000000000000000000000000028152600401808260001916600019168152602001915050600060405180830381600087803b1580156137c157600080fd5b505af11580156137d5573d6000803e3d6000fd5b505050506040513d6000823e3d601f19601f8201168201806040525060208110156137ff57600080fd5b81019080805164010000000081111561381757600080fd5b8281019050602081018481111561382d57600080fd5b815185600182028301116401000000008211171561384a57600080fd5b505092919050505094508873ffffffffffffffffffffffffffffffffffffffff1663986e791a888a60405160200180807f70726f6a6563742e74696d656c696e652e6d696c6573746f6e65732e6465736381526020017f72697074696f6e00000000000000000000000000000000000000000000000000815250602701838152602001828152602001925050506040516020818303038152906040526040518082805190602001908083835b60208310151561391b57805182526020820191506020810190506020830392506138f6565b6001836020036101000a03801982511681845116808217855250505050505090500191505060405180910390206040518263ffffffff167c0100000000000000000000000000000000000000000000000000000000028152600401808260001916600019168152602001915050600060405180830381600087803b1580156139a257600080fd5b505af11580156139b6573d6000803e3d6000fd5b505050506040513d6000823e3d601f19601f8201168201806040525060208110156139e057600080fd5b8101908080516401000000008111156139f857600080fd5b82810190506020810184811115613a0e57600080fd5b8151856001820283011164010000000082111715613a2b57600080fd5b505092919050505093508873ffffffffffffffffffffffffffffffffffffffff1663bd02d0f5888a60405160200180807f70726f6a6563742e74696d656c696e652e6d696c6573746f6e65732e7065726381526020017f656e746167650000000000000000000000000000000000000000000000000000815250602601838152602001828152602001925050506040516020818303038152906040526040518082805190602001908083835b602083101515613afc5780518252602082019150602081019050602083039250613ad7565b6001836020036101000a03801982511681845116808217855250505050505090500191505060405180910390206040518263ffffffff167c0100000000000000000000000000000000000000000000000000000000028152600401808260001916600019168152602001915050602060405180830381600087803b158015613b8357600080fd5b505af1158015613b97573d6000803e3d6000fd5b505050506040513d6020811015613bad57600080fd5b810190808051906020019092919050505092508873ffffffffffffffffffffffffffffffffffffffff16637ae1cfca888a60405160200180807f70726f6a6563742e74696d656c696e652e6d696c6573746f6e65732e6973436f81526020017f6d706c6574650000000000000000000000000000000000000000000000000000815250602601838152602001828152602001925050506040516020818303038152906040526040518082805190602001908083835b602083101515613c875780518252602082019150602081019050602083039250613c62565b6001836020036101000a03801982511681845116808217855250505050505090500191505060405180910390206040518263ffffffff167c0100000000000000000000000000000000000000000000000000000000028152600401808260001916600019168152602001915050602060405180830381600087803b158015613d0e57600080fd5b505af1158015613d22573d6000803e3d6000fd5b505050506040513d6020811015613d3857600080fd5b81019080805190602001909291905050509150608060405190810160405280868152602001858152602001848152602001831515815250905080955050505050509392505050565b613d8d88888888886153e8565b613d9a88888888876155ca565b613da788888888866157ac565b613db48888888885615929565b5050505050505050565b8273ffffffffffffffffffffffffffffffffffffffff1663e2a4853a8360405160200180807f70726f6a6563742e74696d656c696e65486973746f72792e6c656e6774680000815250601e018281526020019150506040516020818303038152906040526040518082805190602001908083835b602083101515613e575780518252602082019150602081019050602083039250613e32565b6001836020036101000a0380198251168184511680821785525050505050509050019150506040518091039020836040518363ffffffff167c010000000000000000000000000000000000000000000000000000000002815260040180836000191660001916815260200182815260200192505050600060405180830381600087803b158015613ee657600080fd5b505af1158015613efa573d6000803e3d6000fd5b50505050505050565b8373ffffffffffffffffffffffffffffffffffffffff1663e2a4853a848460405160200180807f70726f6a6563742e74696d656c696e65486973746f72792e6d696c6573746f6e81526020017f65732e6c656e6774680000000000000000000000000000000000000000000000815250602901838152602001828152602001925050506040516020818303038152906040526040518082805190602001908083835b602083101515613fca5780518252602082019150602081019050602083039250613fa5565b6001836020036101000a0380198251168184511680821785525050505050509050019150506040518091039020836040518363ffffffff167c010000000000000000000000000000000000000000000000000000000002815260040180836000191660001916815260200182815260200192505050600060405180830381600087803b15801561405957600080fd5b505af115801561406d573d6000803e3d6000fd5b5050505050505050565b8373ffffffffffffffffffffffffffffffffffffffff16636e899550838560405160200180807f70726f6a6563742e74696d656c696e652e6d696c6573746f6e65732e7469746c81526020017f6500000000000000000000000000000000000000000000000000000000000000815250602101838152602001828152602001925050506040516020818303038152906040526040518082805190602001908083835b60208310151561413e5780518252602082019150602081019050602083039250614119565b6001836020036101000a0380198251168184511680821785525050505050509050019150506040518091039020836040518363ffffffff167c010000000000000000000000000000000000000000000000000000000002815260040180836000191660001916815260200180602001828103825283818151815260200191508051906020019080838360005b838110156141e55780820151818401526020810190506141ca565b50505050905090810190601f1680156142125780820380516001836020036101000a031916815260200191505b509350505050600060405180830381600087803b15801561423257600080fd5b505af1158015614246573d6000803e3d6000fd5b5050505050505050565b8373ffffffffffffffffffffffffffffffffffffffff16636e899550838560405160200180807f70726f6a6563742e74696d656c696e652e6d696c6573746f6e65732e6465736381526020017f72697074696f6e00000000000000000000000000000000000000000000000000815250602701838152602001828152602001925050506040516020818303038152906040526040518082805190602001908083835b60208310151561431757805182526020820191506020810190506020830392506142f2565b6001836020036101000a0380198251168184511680821785525050505050509050019150506040518091039020836040518363ffffffff167c010000000000000000000000000000000000000000000000000000000002815260040180836000191660001916815260200180602001828103825283818151815260200191508051906020019080838360005b838110156143be5780820151818401526020810190506143a3565b50505050905090810190601f1680156143eb5780820380516001836020036101000a031916815260200191505b509350505050600060405180830381600087803b15801561440b57600080fd5b505af115801561441f573d6000803e3d6000fd5b5050505050505050565b8373ffffffffffffffffffffffffffffffffffffffff1663e2a4853a838560405160200180807f70726f6a6563742e74696d656c696e652e6d696c6573746f6e65732e7065726381526020017f656e746167650000000000000000000000000000000000000000000000000000815250602601838152602001828152602001925050506040516020818303038152906040526040518082805190602001908083835b6020831015156144f057805182526020820191506020810190506020830392506144cb565b6001836020036101000a0380198251168184511680821785525050505050509050019150506040518091039020836040518363ffffffff167c010000000000000000000000000000000000000000000000000000000002815260040180836000191660001916815260200182815260200192505050600060405180830381600087803b15801561457f57600080fd5b505af1158015614593573d6000803e3d6000fd5b5050505050505050565b8373ffffffffffffffffffffffffffffffffffffffff1663abfdcced838560405160200180807f70726f6a6563742e74696d656c696e652e6d696c6573746f6e65732e6973436f81526020017f6d706c6574650000000000000000000000000000000000000000000000000000815250602601838152602001828152602001925050506040516020818303038152906040526040518082805190602001908083835b602083101515614664578051825260208201915060208101905060208303925061463f565b6001836020036101000a0380198251168184511680821785525050505050509050019150506040518091039020836040518363ffffffff167c01000000000000000000000000000000000000000000000000000000000281526004018083600019166000191681526020018215151515815260200192505050600060405180830381600087803b1580156146f757600080fd5b505af115801561470b573d6000803e3d6000fd5b5050505050505050565b8373ffffffffffffffffffffffffffffffffffffffff1663e2a4853a838560405160200180807f70726f6a6563742e636f6e747269627574696f6e54696572732e636f6e74726981526020017f6275746f724c696d697400000000000000000000000000000000000000000000815250602a01838152602001828152602001925050506040516020818303038152906040526040518082805190602001908083835b6020831015156147dc57805182526020820191506020810190506020830392506147b7565b6001836020036101000a0380198251168184511680821785525050505050509050019150506040518091039020836040518363ffffffff167c010000000000000000000000000000000000000000000000000000000002815260040180836000191660001916815260200182815260200192505050600060405180830381600087803b15801561486b57600080fd5b505af115801561487f573d6000803e3d6000fd5b5050505050505050565b8373ffffffffffffffffffffffffffffffffffffffff1663e2a4853a838560405160200180807f70726f6a6563742e636f6e747269627574696f6e54696572732e6d6178436f6e81526020017f747269627574696f6e0000000000000000000000000000000000000000000000815250602901838152602001828152602001925050506040516020818303038152906040526040518082805190602001908083835b602083101515614950578051825260208201915060208101905060208303925061492b565b6001836020036101000a0380198251168184511680821785525050505050509050019150506040518091039020836040518363ffffffff167c010000000000000000000000000000000000000000000000000000000002815260040180836000191660001916815260200182815260200192505050600060405180830381600087803b1580156149df57600080fd5b505af11580156149f3573d6000803e3d6000fd5b5050505050505050565b8373ffffffffffffffffffffffffffffffffffffffff1663e2a4853a838560405160200180807f70726f6a6563742e636f6e747269627574696f6e54696572732e6d696e436f6e81526020017f747269627574696f6e0000000000000000000000000000000000000000000000815250602901838152602001828152602001925050506040516020818303038152906040526040518082805190602001908083835b602083101515614ac45780518252602082019150602081019050602083039250614a9f565b6001836020036101000a0380198251168184511680821785525050505050509050019150506040518091039020836040518363ffffffff167c010000000000000000000000000000000000000000000000000000000002815260040180836000191660001916815260200182815260200192505050600060405180830381600087803b158015614b5357600080fd5b505af1158015614b67573d6000803e3d6000fd5b5050505050505050565b8373ffffffffffffffffffffffffffffffffffffffff16636e899550838560405160200180807f70726f6a6563742e636f6e747269627574696f6e54696572732e72657761726481526020017f7300000000000000000000000000000000000000000000000000000000000000815250602101838152602001828152602001925050506040516020818303038152906040526040518082805190602001908083835b602083101515614c385780518252602082019150602081019050602083039250614c13565b6001836020036101000a0380198251168184511680821785525050505050509050019150506040518091039020836040518363ffffffff167c010000000000000000000000000000000000000000000000000000000002815260040180836000191660001916815260200180602001828103825283818151815260200191508051906020019080838360005b83811015614cdf578082015181840152602081019050614cc4565b50505050905090810190601f168015614d0c5780820380516001836020036101000a031916815260200191505b509350505050600060405180830381600087803b158015614d2c57600080fd5b505af1158015614d40573d6000803e3d6000fd5b5050505050505050565b8373ffffffffffffffffffffffffffffffffffffffff16636e899550838560405160200180807f70726f6a6563742e70656e64696e6754696d656c696e652e6d696c6573746f6e81526020017f65732e7469746c65000000000000000000000000000000000000000000000000815250602801838152602001828152602001925050506040516020818303038152906040526040518082805190602001908083835b602083101515614e115780518252602082019150602081019050602083039250614dec565b6001836020036101000a0380198251168184511680821785525050505050509050019150506040518091039020836040518363ffffffff167c010000000000000000000000000000000000000000000000000000000002815260040180836000191660001916815260200180602001828103825283818151815260200191508051906020019080838360005b83811015614eb8578082015181840152602081019050614e9d565b50505050905090810190601f168015614ee55780820380516001836020036101000a031916815260200191505b509350505050600060405180830381600087803b158015614f0557600080fd5b505af1158015614f19573d6000803e3d6000fd5b5050505050505050565b8373ffffffffffffffffffffffffffffffffffffffff16636e899550838560405160200180807f70726f6a6563742e70656e64696e6754696d656c696e652e6d696c6573746f6e81526020017f65732e6465736372697074696f6e000000000000000000000000000000000000815250602e01838152602001828152602001925050506040516020818303038152906040526040518082805190602001908083835b602083101515614fea5780518252602082019150602081019050602083039250614fc5565b6001836020036101000a0380198251168184511680821785525050505050509050019150506040518091039020836040518363ffffffff167c010000000000000000000000000000000000000000000000000000000002815260040180836000191660001916815260200180602001828103825283818151815260200191508051906020019080838360005b83811015615091578082015181840152602081019050615076565b50505050905090810190601f1680156150be5780820380516001836020036101000a031916815260200191505b509350505050600060405180830381600087803b1580156150de57600080fd5b505af11580156150f2573d6000803e3d6000fd5b5050505050505050565b8373ffffffffffffffffffffffffffffffffffffffff1663e2a4853a838560405160200180807f70726f6a6563742e70656e64696e6754696d656c696e652e6d696c6573746f6e81526020017f65732e70657263656e7461676500000000000000000000000000000000000000815250602d01838152602001828152602001925050506040516020818303038152906040526040518082805190602001908083835b6020831015156151c3578051825260208201915060208101905060208303925061519e565b6001836020036101000a0380198251168184511680821785525050505050509050019150506040518091039020836040518363ffffffff167c010000000000000000000000000000000000000000000000000000000002815260040180836000191660001916815260200182815260200192505050600060405180830381600087803b15801561525257600080fd5b505af1158015615266573d6000803e3d6000fd5b5050505050505050565b8373ffffffffffffffffffffffffffffffffffffffff1663abfdcced838560405160200180807f70726f6a6563742e70656e64696e6754696d656c696e652e6d696c6573746f6e81526020017f65732e6973436f6d706c65746500000000000000000000000000000000000000815250602d01838152602001828152602001925050506040516020818303038152906040526040518082805190602001908083835b6020831015156153375780518252602082019150602081019050602083039250615312565b6001836020036101000a0380198251168184511680821785525050505050509050019150506040518091039020836040518363ffffffff167c01000000000000000000000000000000000000000000000000000000000281526004018083600019166000191681526020018215151515815260200192505050600060405180830381600087803b1580156153ca57600080fd5b505af11580156153de573d6000803e3d6000fd5b5050505050505050565b8473ffffffffffffffffffffffffffffffffffffffff16636e89955085858560405160200180807f70726f6a6563742e74696d656c696e65486973746f72792e6d696c6573746f6e81526020017f65732e7469746c6500000000000000000000000000000000000000000000000081525060280184815260200183815260200182815260200193505050506040516020818303038152906040526040518082805190602001908083835b6020831015156154b75780518252602082019150602081019050602083039250615492565b6001836020036101000a0380198251168184511680821785525050505050509050019150506040518091039020836040518363ffffffff167c010000000000000000000000000000000000000000000000000000000002815260040180836000191660001916815260200180602001828103825283818151815260200191508051906020019080838360005b8381101561555e578082015181840152602081019050615543565b50505050905090810190601f16801561558b5780820380516001836020036101000a031916815260200191505b509350505050600060405180830381600087803b1580156155ab57600080fd5b505af11580156155bf573d6000803e3d6000fd5b505050505050505050565b8473ffffffffffffffffffffffffffffffffffffffff16636e89955085858560405160200180807f70726f6a6563742e74696d656c696e65486973746f72792e6d696c6573746f6e81526020017f65732e6465736372697074696f6e000000000000000000000000000000000000815250602e0184815260200183815260200182815260200193505050506040516020818303038152906040526040518082805190602001908083835b6020831015156156995780518252602082019150602081019050602083039250615674565b6001836020036101000a0380198251168184511680821785525050505050509050019150506040518091039020836040518363ffffffff167c010000000000000000000000000000000000000000000000000000000002815260040180836000191660001916815260200180602001828103825283818151815260200191508051906020019080838360005b83811015615740578082015181840152602081019050615725565b50505050905090810190601f16801561576d5780820380516001836020036101000a031916815260200191505b509350505050600060405180830381600087803b15801561578d57600080fd5b505af11580156157a1573d6000803e3d6000fd5b505050505050505050565b8473ffffffffffffffffffffffffffffffffffffffff1663e2a4853a85858560405160200180807f70726f6a6563742e74696d656c696e65486973746f72792e6d696c6573746f6e81526020017f65732e70657263656e7461676500000000000000000000000000000000000000815250602d0184815260200183815260200182815260200193505050506040516020818303038152906040526040518082805190602001908083835b60208310151561587b5780518252602082019150602081019050602083039250615856565b6001836020036101000a0380198251168184511680821785525050505050509050019150506040518091039020836040518363ffffffff167c010000000000000000000000000000000000000000000000000000000002815260040180836000191660001916815260200182815260200192505050600060405180830381600087803b15801561590a57600080fd5b505af115801561591e573d6000803e3d6000fd5b505050505050505050565b8473ffffffffffffffffffffffffffffffffffffffff1663abfdcced85858560405160200180807f70726f6a6563742e74696d656c696e65486973746f72792e6d696c6573746f6e81526020017f65732e6973436f6d706c65746500000000000000000000000000000000000000815250602d0184815260200183815260200182815260200193505050506040516020818303038152906040526040518082805190602001908083835b6020831015156159f857805182526020820191506020810190506020830392506159d3565b6001836020036101000a0380198251168184511680821785525050505050509050019150506040518091039020836040518363ffffffff167c01000000000000000000000000000000000000000000000000000000000281526004018083600019166000191681526020018215151515815260200192505050600060405180830381600087803b158015615a8b57600080fd5b505af1158015615a9f573d6000803e3d6000fd5b505050505050505050565b6080604051908101604052806060815260200160608152602001600081526020016000151581525090565b6080604051908101604052806000815260200160008152602001600081526020016060815250905600a165627a7a723058201dc36ebfe2b2e88772f782ca25cbf4a018b35528258709d28d9cce5e968c89960029",
  "source": "pragma solidity ^0.4.24;\n\nimport \"../storage/ProjectStorageAccess.sol\";\n\nlibrary ProjectHelpersLibrary {\n\n    using ProjectStorageAccess for address;\n\n    function moveTimelineIntoTimelineHistory(address _fundingStorage, uint _projectId) external {\n        uint historyLength = _fundingStorage.getTimelineHistoryLength(_projectId);\n        uint timelineLength = _fundingStorage.getTimelineLength(_projectId);\n\n        for (uint i = 0; i < timelineLength; i++) {\n            ProjectStorageAccess.Milestone memory milestone = _fundingStorage.getTimelineMilestone(_projectId, i);\n            _fundingStorage.setTimelineHistoryMilestone(_projectId, historyLength, i, milestone.title, milestone.description, milestone.percentage, milestone.isComplete);\n        }\n\n        _fundingStorage.setTimelineHistoryLength(_projectId, historyLength + 1);\n        _fundingStorage.setTimelineHistoryMilestonesLength(_projectId, historyLength, timelineLength);\n        _fundingStorage.setTimelineLength(_projectId, 0);\n    }\n\n    function movePendingMilestonesIntoTimeline(address _fundingStorage, uint _projectId) external {\n        uint pendingTimelineLength = _fundingStorage.getPendingTimelineLength(_projectId);\n\n        for (uint j = 0; j < pendingTimelineLength; j++) {\n            ProjectStorageAccess.Milestone memory pendingMilestone = _fundingStorage.getPendingTimelineMilestone(_projectId, j);\n            _fundingStorage.setTimelineMilestone(_projectId, j, pendingMilestone.title, pendingMilestone.description, pendingMilestone.percentage, pendingMilestone.isComplete);\n        }\n\n        _fundingStorage.setTimelineLength(_projectId, pendingTimelineLength);\n        _fundingStorage.setPendingTimelineLength(_projectId, 0);\n    }\n\n    function movePendingContributionTiersIntoActiveContributionTiers(address _fundingStorage, uint _projectId) external {\n        uint length = _fundingStorage.getPendingContributionTiersLength(_projectId);\n\n        for (uint i = 0; i < length; i++) {\n            ProjectStorageAccess.ContributionTier memory tier = _fundingStorage.getPendingContributionTier(_projectId, i);\n\n            _fundingStorage.setContributionTier(_projectId, i, tier.contributorLimit, tier.minContribution, tier.maxContribution, tier.rewards);\n        }\n\n        _fundingStorage.setContributionTiersLength(_projectId, length);\n        _fundingStorage.setPendingContributionTiersLength(_projectId, 0);\n    }\n\n    function moveCompletedMilestonesIntoPendingTimeline(address _fundingStorage, uint _projectId) external {\n        uint completedMilestonesLength = _fundingStorage.getCompletedMilestonesLength(_projectId);\n\n        // Add the completed milestones to the start of the pending timeline\n        for (uint i = 0; i < completedMilestonesLength; i++) {\n            ProjectStorageAccess.Milestone memory completedMilestone = _fundingStorage.getCompletedMilestone(_projectId, i);\n            _fundingStorage.setPendingTimelineMilestone(_projectId, i, completedMilestone.title, completedMilestone.description, completedMilestone.percentage, completedMilestone.isComplete);\n        }\n\n        _fundingStorage.setPendingTimelineLength(_projectId, completedMilestonesLength);\n    }\n\n    function verifyPendingMilestones(address _fundingStorage, uint _projectId) external view {\n        // Verify:\n        // - Milestones are present\n        // - Milestone percentages add up to 100\n\n        uint timelineLength = _fundingStorage.getPendingTimelineLength(_projectId);\n\n        require(timelineLength > 0, \"Project has no pending milestones.\");\n\n        uint percentageAcc = 0;\n        for (uint i = 0; i < timelineLength; i++) {\n            uint percentage = _fundingStorage.getPendingTimelineMilestonePercentage(_projectId, i);\n            percentageAcc = percentageAcc + percentage;\n        }\n\n        require(percentageAcc == 100, \"Milestone percentages must add to 100.\");\n    }\n}\n",
  "sourcePath": "/ude/hb/projects/funding-protocol/smart-contracts/ethereum/contracts/libraries/project/ProjectHelpersLibrary.sol",
  "compiler": {
    "name": "solc",
    "version": "0.4.24+commit.e67f0147.Emscripten.clang"
  },
  "schemaVersion": "2.0.0",
  "updatedAt": "2018-07-21T05:29:00.634Z"
}