{
  "contractName": "Project",
  "abi": [
    {
      "constant": true,
      "inputs": [],
      "name": "status",
      "outputs": [
        {
          "name": "",
          "type": "uint8"
        }
      ],
      "payable": false,
      "stateMutability": "view",
      "type": "function"
    },
    {
      "constant": true,
      "inputs": [],
      "name": "noRefunds",
      "outputs": [
        {
          "name": "",
          "type": "bool"
        }
      ],
      "payable": false,
      "stateMutability": "view",
      "type": "function"
    },
    {
      "constant": true,
      "inputs": [],
      "name": "title",
      "outputs": [
        {
          "name": "",
          "type": "string"
        }
      ],
      "payable": false,
      "stateMutability": "view",
      "type": "function"
    },
    {
      "constant": true,
      "inputs": [],
      "name": "noTimeline",
      "outputs": [
        {
          "name": "",
          "type": "bool"
        }
      ],
      "payable": false,
      "stateMutability": "view",
      "type": "function"
    },
    {
      "constant": true,
      "inputs": [],
      "name": "about",
      "outputs": [
        {
          "name": "",
          "type": "string"
        }
      ],
      "payable": false,
      "stateMutability": "view",
      "type": "function"
    },
    {
      "constant": true,
      "inputs": [],
      "name": "description",
      "outputs": [
        {
          "name": "",
          "type": "string"
        }
      ],
      "payable": false,
      "stateMutability": "view",
      "type": "function"
    },
    {
      "constant": true,
      "inputs": [],
      "name": "contributionGoal",
      "outputs": [
        {
          "name": "",
          "type": "uint256"
        }
      ],
      "payable": false,
      "stateMutability": "view",
      "type": "function"
    },
    {
      "constant": true,
      "inputs": [],
      "name": "id",
      "outputs": [
        {
          "name": "",
          "type": "uint256"
        }
      ],
      "payable": false,
      "stateMutability": "view",
      "type": "function"
    },
    {
      "constant": true,
      "inputs": [],
      "name": "developerId",
      "outputs": [
        {
          "name": "",
          "type": "uint256"
        }
      ],
      "payable": false,
      "stateMutability": "view",
      "type": "function"
    },
    {
      "constant": true,
      "inputs": [],
      "name": "developer",
      "outputs": [
        {
          "name": "",
          "type": "address"
        }
      ],
      "payable": false,
      "stateMutability": "view",
      "type": "function"
    },
    {
      "constant": true,
      "inputs": [],
      "name": "fundingService",
      "outputs": [
        {
          "name": "",
          "type": "address"
        }
      ],
      "payable": false,
      "stateMutability": "view",
      "type": "function"
    },
    {
      "inputs": [
        {
          "name": "_fundingService",
          "type": "address"
        },
        {
          "name": "_id",
          "type": "uint256"
        },
        {
          "name": "_title",
          "type": "string"
        },
        {
          "name": "_description",
          "type": "string"
        },
        {
          "name": "_about",
          "type": "string"
        },
        {
          "name": "_developer",
          "type": "address"
        },
        {
          "name": "_developerId",
          "type": "uint256"
        },
        {
          "name": "_contributionGoal",
          "type": "uint256"
        }
      ],
      "payable": false,
      "stateMutability": "nonpayable",
      "type": "constructor"
    },
    {
      "payable": true,
      "stateMutability": "payable",
      "type": "fallback"
    },
    {
      "constant": false,
      "inputs": [
        {
          "name": "_milestoneTitle",
          "type": "string"
        },
        {
          "name": "_milestoneDescription",
          "type": "string"
        },
        {
          "name": "_percentage",
          "type": "uint256"
        }
      ],
      "name": "addMilestone",
      "outputs": [],
      "payable": false,
      "stateMutability": "nonpayable",
      "type": "function"
    },
    {
      "constant": false,
      "inputs": [
        {
          "name": "_index",
          "type": "uint256"
        },
        {
          "name": "_milestoneTitle",
          "type": "string"
        },
        {
          "name": "_milestoneDescription",
          "type": "string"
        },
        {
          "name": "_milestonePercentage",
          "type": "uint256"
        }
      ],
      "name": "editMilestone",
      "outputs": [],
      "payable": false,
      "stateMutability": "nonpayable",
      "type": "function"
    },
    {
      "constant": true,
      "inputs": [
        {
          "name": "_index",
          "type": "uint256"
        }
      ],
      "name": "getPendingTimelineMilestone",
      "outputs": [
        {
          "name": "milestoneTitle",
          "type": "string"
        },
        {
          "name": "milestoneDescription",
          "type": "string"
        },
        {
          "name": "milestonePercentage",
          "type": "uint256"
        },
        {
          "name": "milestoneIsComplete",
          "type": "bool"
        }
      ],
      "payable": false,
      "stateMutability": "view",
      "type": "function"
    },
    {
      "constant": true,
      "inputs": [
        {
          "name": "_index",
          "type": "uint256"
        }
      ],
      "name": "getTimelineMilestone",
      "outputs": [
        {
          "name": "milestoneTitle",
          "type": "string"
        },
        {
          "name": "milestoneDescription",
          "type": "string"
        },
        {
          "name": "milestonePercentage",
          "type": "uint256"
        },
        {
          "name": "milestoneIsComplete",
          "type": "bool"
        }
      ],
      "payable": false,
      "stateMutability": "view",
      "type": "function"
    },
    {
      "constant": true,
      "inputs": [],
      "name": "getPendingTimelineMilestoneLength",
      "outputs": [
        {
          "name": "",
          "type": "uint256"
        }
      ],
      "payable": false,
      "stateMutability": "view",
      "type": "function"
    },
    {
      "constant": true,
      "inputs": [],
      "name": "getTimelineMilestoneLength",
      "outputs": [
        {
          "name": "",
          "type": "uint256"
        }
      ],
      "payable": false,
      "stateMutability": "view",
      "type": "function"
    },
    {
      "constant": true,
      "inputs": [],
      "name": "getTimelineHistoryLength",
      "outputs": [
        {
          "name": "",
          "type": "uint256"
        }
      ],
      "payable": false,
      "stateMutability": "view",
      "type": "function"
    },
    {
      "constant": false,
      "inputs": [],
      "name": "finalizeTimeline",
      "outputs": [],
      "payable": false,
      "stateMutability": "nonpayable",
      "type": "function"
    },
    {
      "constant": false,
      "inputs": [
        {
          "name": "_status",
          "type": "uint8"
        }
      ],
      "name": "setStatus",
      "outputs": [],
      "payable": false,
      "stateMutability": "nonpayable",
      "type": "function"
    },
    {
      "constant": false,
      "inputs": [
        {
          "name": "val",
          "type": "bool"
        }
      ],
      "name": "setNoRefunds",
      "outputs": [],
      "payable": false,
      "stateMutability": "nonpayable",
      "type": "function"
    },
    {
      "constant": false,
      "inputs": [
        {
          "name": "val",
          "type": "bool"
        }
      ],
      "name": "setNoTimeline",
      "outputs": [],
      "payable": false,
      "stateMutability": "nonpayable",
      "type": "function"
    },
    {
      "constant": false,
      "inputs": [
        {
          "name": "_contributorLimit",
          "type": "uint256"
        },
        {
          "name": "_maxContribution",
          "type": "uint256"
        },
        {
          "name": "_minContribution",
          "type": "uint256"
        },
        {
          "name": "_rewards",
          "type": "string"
        }
      ],
      "name": "addTier",
      "outputs": [],
      "payable": false,
      "stateMutability": "nonpayable",
      "type": "function"
    },
    {
      "constant": false,
      "inputs": [
        {
          "name": "_index",
          "type": "uint256"
        },
        {
          "name": "_contributorLimit",
          "type": "uint256"
        },
        {
          "name": "_maxContribution",
          "type": "uint256"
        },
        {
          "name": "_minContribution",
          "type": "uint256"
        },
        {
          "name": "_rewards",
          "type": "string"
        }
      ],
      "name": "editTier",
      "outputs": [],
      "payable": false,
      "stateMutability": "nonpayable",
      "type": "function"
    },
    {
      "constant": true,
      "inputs": [],
      "name": "getPendingTiersLength",
      "outputs": [
        {
          "name": "",
          "type": "uint256"
        }
      ],
      "payable": false,
      "stateMutability": "view",
      "type": "function"
    },
    {
      "constant": true,
      "inputs": [],
      "name": "getTiersLength",
      "outputs": [
        {
          "name": "",
          "type": "uint256"
        }
      ],
      "payable": false,
      "stateMutability": "view",
      "type": "function"
    },
    {
      "constant": true,
      "inputs": [
        {
          "name": "_index",
          "type": "uint256"
        }
      ],
      "name": "getPendingContributionTier",
      "outputs": [
        {
          "name": "tierContributorLimit",
          "type": "uint256"
        },
        {
          "name": "tierMaxContribution",
          "type": "uint256"
        },
        {
          "name": "tierMinContribution",
          "type": "uint256"
        },
        {
          "name": "tierRewards",
          "type": "string"
        }
      ],
      "payable": false,
      "stateMutability": "view",
      "type": "function"
    },
    {
      "constant": true,
      "inputs": [
        {
          "name": "_index",
          "type": "uint256"
        }
      ],
      "name": "getContributionTier",
      "outputs": [
        {
          "name": "tierContributorLimit",
          "type": "uint256"
        },
        {
          "name": "tierMaxContribution",
          "type": "uint256"
        },
        {
          "name": "tierMinContribution",
          "type": "uint256"
        },
        {
          "name": "tierRewards",
          "type": "string"
        }
      ],
      "payable": false,
      "stateMutability": "view",
      "type": "function"
    },
    {
      "constant": false,
      "inputs": [],
      "name": "finalizeTiers",
      "outputs": [],
      "payable": false,
      "stateMutability": "nonpayable",
      "type": "function"
    },
    {
      "constant": false,
      "inputs": [
        {
          "name": "_bountyName",
          "type": "string"
        },
        {
          "name": "_bountyDescription",
          "type": "string"
        },
        {
          "name": "_bountyLink",
          "type": "string"
        }
      ],
      "name": "createBounty",
      "outputs": [],
      "payable": false,
      "stateMutability": "nonpayable",
      "type": "function"
    }
  ],
  "bytecode": "0x60806040523480156200001157600080fd5b5060405162003441380380620034418339810180604052810190808051906020019092919080519060200190929190805182019291906020018051820192919060200180518201929190602001805190602001909291908051906020019092919080519060200190929190505050876000806101000a81548173ffffffffffffffffffffffffffffffffffffffff021916908373ffffffffffffffffffffffffffffffffffffffff160217905550866001819055506000600260006101000a81548160ff02191690836004811115620000e657fe5b021790555085600390805190602001906200010392919062000193565b5084600490805190602001906200011c92919062000193565b5083600590805190602001906200013592919062000193565b5082600660006101000a81548173ffffffffffffffffffffffffffffffffffffffff021916908373ffffffffffffffffffffffffffffffffffffffff1602179055508160078190555080600881905550505050505050505062000242565b828054600181600116156101000203166002900490600052602060002090601f016020900481019282601f10620001d657805160ff191683800117855562000207565b8280016001018555821562000207579182015b8281111562000206578251825591602001919060010190620001e9565b5b5090506200021691906200021a565b5090565b6200023f91905b808211156200023b57600081600090555060010162000221565b5090565b90565b6131ef80620002526000396000f3006080604052600436106200019f576000357c0100000000000000000000000000000000000000000000000000000000900463ffffffff1680630f1a92e114620001a15780631aa470bb14620001cf5780631ab794241462000201578063200d2ed214620002335780632e49d78b146200027057806334f2a35a14620002a35780633fa47c8114620002d55780634518dff4146200039b578063486c46a214620004255780634a79d50c146200055257806355a5660214620005e8578063595f1378146200061657806359ef407a14620006d75780635e07425b14620006f15780635e1d548214620007235780637284e41614620007b957806375d36dc5146200084f5780637b94c18e146200087d578063814e4ec614620008ab578063a847e5ea146200093f578063ad477c4714620009fb578063af640d0f1462000a29578063b1efc0241462000a57578063b99810171462000b18578063bde0e7ac1462000b32578063c920a6d31462000b60578063ca4b208b1462000c8d578063cba24e411462000ce7578063d1d2ba8f1462000d41578063db6f8d6b1462000e39575b005b348015620001ae57600080fd5b50620001b962000e67565b6040518082815260200191505060405180910390f35b348015620001dc57600080fd5b50620001ff60048036038101908080351515906020019092919050505062000e74565b005b3480156200020e57600080fd5b506200023160048036038101908080351515906020019092919050505062000eee565b005b3480156200024057600080fd5b506200024b62000f68565b604051808260048111156200025c57fe5b60ff16815260200191505060405180910390f35b3480156200027d57600080fd5b50620002a1600480360381019080803560ff16906020019092919050505062000f7b565b005b348015620002b057600080fd5b50620002bb62000ffe565b604051808215151515815260200191505060405180910390f35b348015620002e257600080fd5b506200039960048036038101908080359060200190929190803590602001908201803590602001908080601f0160208091040260200160405190810160405280939291908181526020018383808284378201915050505050509192919290803590602001908201803590602001908080601f01602080910402602001604051908101604052809392919081815260200183838082843782019150505050505091929192908035906020019092919050505062001011565b005b348015620003a857600080fd5b5062000423600480360381019080803590602001909291908035906020019092919080359060200190929190803590602001908201803590602001908080601f0160208091040260200160405190810160405280939291908181526020018383808284378201915050505050509192919290505050620010d6565b005b3480156200043257600080fd5b506200045360048036038101908080359060200190929190505050620011d6565b60405180806020018060200185815260200184151515158152602001838103835287818151815260200191508051906020019080838360005b83811015620004a95780820151818401526020810190506200048c565b50505050905090810190601f168015620004d75780820380516001836020036101000a031916815260200191505b50838103825286818151815260200191508051906020019080838360005b8381101562000512578082015181840152602081019050620004f5565b50505050905090810190601f168015620005405780820380516001836020036101000a031916815260200191505b50965050505050505060405180910390f35b3480156200055f57600080fd5b506200056a620013ad565b6040518080602001828103825283818151815260200191508051906020019080838360005b83811015620005ac5780820151818401526020810190506200058f565b50505050905090810190601f168015620005da5780820380516001836020036101000a031916815260200191505b509250505060405180910390f35b348015620005f557600080fd5b50620006006200144f565b6040518082815260200191505060405180910390f35b3480156200062357600080fd5b5062000644600480360381019080803590602001909291905050506200145c565b6040518085815260200184815260200183815260200180602001828103825283818151815260200191508051906020019080838360005b83811015620006985780820151818401526020810190506200067b565b50505050905090810190601f168015620006c65780820380516001836020036101000a031916815260200191505b509550505050505060405180910390f35b348015620006e457600080fd5b50620006ef62001584565b005b348015620006fe57600080fd5b506200070962001656565b604051808215151515815260200191505060405180910390f35b3480156200073057600080fd5b506200073b62001669565b6040518080602001828103825283818151815260200191508051906020019080838360005b838110156200077d57808201518184015260208101905062000760565b50505050905090810190601f168015620007ab5780820380516001836020036101000a031916815260200191505b509250505060405180910390f35b348015620007c657600080fd5b50620007d16200170b565b6040518080602001828103825283818151815260200191508051906020019080838360005b8381101562000813578082015181840152602081019050620007f6565b50505050905090810190601f168015620008415780820380516001836020036101000a031916815260200191505b509250505060405180910390f35b3480156200085c57600080fd5b5062000867620017ad565b6040518082815260200191505060405180910390f35b3480156200088a57600080fd5b5062000895620017ba565b6040518082815260200191505060405180910390f35b348015620008b857600080fd5b506200093d60048036038101908080359060200190929190803590602001909291908035906020019092919080359060200190929190803590602001908201803590602001908080601f0160208091040260200160405190810160405280939291908181526020018383808284378201915050505050509192919290505050620017c7565b005b3480156200094c57600080fd5b50620009f9600480360381019080803590602001908201803590602001908080601f0160208091040260200160405190810160405280939291908181526020018383808284378201915050505050509192919290803590602001908201803590602001908080601f01602080910402602001604051908101604052809392919081815260200183838082843782019150505050505091929192908035906020019092919050505062001884565b005b34801562000a0857600080fd5b5062000a13620019c2565b6040518082815260200191505060405180910390f35b34801562000a3657600080fd5b5062000a41620019c8565b6040518082815260200191505060405180910390f35b34801562000a6457600080fd5b5062000a8560048036038101908080359060200190929190505050620019ce565b6040518085815260200184815260200183815260200180602001828103825283818151815260200191508051906020019080838360005b8381101562000ad957808201518184015260208101905062000abc565b50505050905090810190601f16801562000b075780820380516001836020036101000a031916815260200191505b509550505050505060405180910390f35b34801562000b2557600080fd5b5062000b3062001af6565b005b34801562000b3f57600080fd5b5062000b4a62001b7a565b6040518082815260200191505060405180910390f35b34801562000b6d57600080fd5b5062000b8e6004803603810190808035906020019092919050505062001b80565b60405180806020018060200185815260200184151515158152602001838103835287818151815260200191508051906020019080838360005b8381101562000be457808201518184015260208101905062000bc7565b50505050905090810190601f16801562000c125780820380516001836020036101000a031916815260200191505b50838103825286818151815260200191508051906020019080838360005b8381101562000c4d57808201518184015260208101905062000c30565b50505050905090810190601f16801562000c7b5780820380516001836020036101000a031916815260200191505b50965050505050505060405180910390f35b34801562000c9a57600080fd5b5062000ca562001d57565b604051808273ffffffffffffffffffffffffffffffffffffffff1673ffffffffffffffffffffffffffffffffffffffff16815260200191505060405180910390f35b34801562000cf457600080fd5b5062000cff62001d7d565b604051808273ffffffffffffffffffffffffffffffffffffffff1673ffffffffffffffffffffffffffffffffffffffff16815260200191505060405180910390f35b34801562000d4e57600080fd5b5062000e37600480360381019080803590602001908201803590602001908080601f0160208091040260200160405190810160405280939291908181526020018383808284378201915050505050509192919290803590602001908201803590602001908080601f0160208091040260200160405190810160405280939291908181526020018383808284378201915050505050509192919290803590602001908201803590602001908080601f016020809104026020016040519081016040528093929190818152602001838380828437820191505050505050919291929050505062001da2565b005b34801562000e4657600080fd5b5062000e5162001fea565b6040518082815260200191505060405180910390f35b6000600a80549050905090565b600660009054906101000a900473ffffffffffffffffffffffffffffffffffffffff1673ffffffffffffffffffffffffffffffffffffffff163373ffffffffffffffffffffffffffffffffffffffff1614151562000ed157600080fd5b80600b60006101000a81548160ff02191690831515021790555050565b600660009054906101000a900473ffffffffffffffffffffffffffffffffffffffff1673ffffffffffffffffffffffffffffffffffffffff163373ffffffffffffffffffffffffffffffffffffffff1614151562000f4b57600080fd5b80600b60016101000a81548160ff02191690831515021790555050565b600260009054906101000a900460ff1681565b6000809054906101000a900473ffffffffffffffffffffffffffffffffffffffff1673ffffffffffffffffffffffffffffffffffffffff163373ffffffffffffffffffffffffffffffffffffffff1614151562000fd757600080fd5b80600260006101000a81548160ff0219169083600481111562000ff657fe5b021790555050565b600b60009054906101000a900460ff1681565b6000600660009054906101000a900473ffffffffffffffffffffffffffffffffffffffff1673ffffffffffffffffffffffffffffffffffffffff163373ffffffffffffffffffffffffffffffffffffffff161415156200107057600080fd5b600e858154811015156200108057fe5b9060005260206000209060040201905083816000019080519060200190620010aa92919062001ff7565b5082816001019080519060200190620010c592919062001ff7565b508181600201819055505050505050565b620010e06200207e565b600660009054906101000a900473ffffffffffffffffffffffffffffffffffffffff1673ffffffffffffffffffffffffffffffffffffffff163373ffffffffffffffffffffffffffffffffffffffff161415156200113d57600080fd5b608060405190810160405280868152602001848152602001858152602001838152509050600a81908060018154018082558091505090600182039060005260206000209060040201600090919290919091506000820151816000015560208201518160010155604082015181600201556060820151816003019080519060200190620011cb929190620020a7565b505050505050505050565b606080600080620011e66200212e565b600e86815481101515620011f657fe5b906000526020600020906004020160806040519081016040529081600082018054600181600116156101000203166002900480601f016020809104026020016040519081016040528092919081815260200182805460018160011615610100020316600290048015620012ad5780601f106200128157610100808354040283529160200191620012ad565b820191906000526020600020905b8154815290600101906020018083116200128f57829003601f168201915b50505050508152602001600182018054600181600116156101000203166002900480601f016020809104026020016040519081016040528092919081815260200182805460018160011615610100020316600290048015620013535780601f10620013275761010080835404028352916020019162001353565b820191906000526020600020905b8154815290600101906020018083116200133557829003601f168201915b50505050508152602001600282015481526020016003820160009054906101000a900460ff161515151581525050905080600001518160200151826040015183606001518393508292509450945094509450509193509193565b60038054600181600116156101000203166002900480601f016020809104026020016040519081016040528092919081815260200182805460018160011615610100020316600290048015620014475780601f106200141b5761010080835404028352916020019162001447565b820191906000526020600020905b8154815290600101906020018083116200142957829003601f168201915b505050505081565b6000600c80549050905090565b600080600060606200146d6200207e565b6009868154811015156200147d57fe5b906000526020600020906004020160806040519081016040529081600082015481526020016001820154815260200160028201548152602001600382018054600181600116156101000203166002900480601f016020809104026020016040519081016040528092919081815260200182805460018160011615610100020316600290048015620015525780601f10620015265761010080835404028352916020019162001552565b820191906000526020600020905b8154815290600101906020018083116200153457829003601f168201915b505050505081525050905080600001518160400151826020015183606001518090509450945094509450509193509193565b600660009054906101000a900473ffffffffffffffffffffffffffffffffffffffff1673ffffffffffffffffffffffffffffffffffffffff163373ffffffffffffffffffffffffffffffffffffffff16141515620015e157600080fd5b6000600c805490501415156200162f57600d600c9080600181540180825580915050906001820390600052602060002001600090919290919091509080546200162c92919062002159565b50505b600e600c9080546200164392919062002159565b50600e600062001654919062002241565b565b600b60019054906101000a900460ff1681565b60058054600181600116156101000203166002900480601f016020809104026020016040519081016040528092919081815260200182805460018160011615610100020316600290048015620017035780601f10620016d75761010080835404028352916020019162001703565b820191906000526020600020905b815481529060010190602001808311620016e557829003601f168201915b505050505081565b60048054600181600116156101000203166002900480601f016020809104026020016040519081016040528092919081815260200182805460018160011615610100020316600290048015620017a55780601f106200177957610100808354040283529160200191620017a5565b820191906000526020600020905b8154815290600101906020018083116200178757829003601f168201915b505050505081565b6000600e80549050905090565b6000600980549050905090565b6000600660009054906101000a900473ffffffffffffffffffffffffffffffffffffffff1673ffffffffffffffffffffffffffffffffffffffff163373ffffffffffffffffffffffffffffffffffffffff161415156200182657600080fd5b600a868154811015156200183657fe5b90600052602060002090600402019050848160000181905550838160020181905550828160010181905550818160030190805190602001906200187b92919062001ff7565b50505050505050565b6200188e6200212e565b600660009054906101000a900473ffffffffffffffffffffffffffffffffffffffff1673ffffffffffffffffffffffffffffffffffffffff163373ffffffffffffffffffffffffffffffffffffffff16141515620018eb57600080fd5b60648211151515620018fc57600080fd5b608060405190810160405280858152602001848152602001838152602001600015158152509050600e819080600181540180825580915050906001820390600052602060002090600402016000909192909190915060008201518160000190805190602001906200196f929190620020a7565b5060208201518160010190805190602001906200198e929190620020a7565b506040820151816002015560608201518160030160006101000a81548160ff02191690831515021790555050505050505050565b60085481565b60015481565b60008060006060620019df6200207e565b600a86815481101515620019ef57fe5b906000526020600020906004020160806040519081016040529081600082015481526020016001820154815260200160028201548152602001600382018054600181600116156101000203166002900480601f01602080910402602001604051908101604052809291908181526020018280546001816001161561010002031660029004801562001ac45780601f1062001a985761010080835404028352916020019162001ac4565b820191906000526020600020905b81548152906001019060200180831162001aa657829003601f168201915b505050505081525050905080600001518160400151826020015183606001518090509450945094509450509193509193565b600660009054906101000a900473ffffffffffffffffffffffffffffffffffffffff1673ffffffffffffffffffffffffffffffffffffffff163373ffffffffffffffffffffffffffffffffffffffff1614151562001b5357600080fd5b600a600990805462001b6792919062002267565b50600a600062001b7891906200230c565b565b60075481565b60608060008062001b906200212e565b600c8681548110151562001ba057fe5b906000526020600020906004020160806040519081016040529081600082018054600181600116156101000203166002900480601f01602080910402602001604051908101604052809291908181526020018280546001816001161561010002031660029004801562001c575780601f1062001c2b5761010080835404028352916020019162001c57565b820191906000526020600020905b81548152906001019060200180831162001c3957829003601f168201915b50505050508152602001600182018054600181600116156101000203166002900480601f01602080910402602001604051908101604052809291908181526020018280546001816001161561010002031660029004801562001cfd5780601f1062001cd15761010080835404028352916020019162001cfd565b820191906000526020600020905b81548152906001019060200180831162001cdf57829003601f168201915b50505050508152602001600282015481526020016003820160009054906101000a900460ff161515151581525050905080600001518160200151826040015183606001518393508292509450945094509450509193509193565b600660009054906101000a900473ffffffffffffffffffffffffffffffffffffffff1681565b6000809054906101000a900473ffffffffffffffffffffffffffffffffffffffff1681565b6000600660009054906101000a900473ffffffffffffffffffffffffffffffffffffffff1673ffffffffffffffffffffffffffffffffffffffff163373ffffffffffffffffffffffffffffffffffffffff1614151562001e0157600080fd5b83838362001e0e62002332565b80806020018060200180602001848103845287818151815260200191508051906020019080838360005b8381101562001e5557808201518184015260208101905062001e38565b50505050905090810190601f16801562001e835780820380516001836020036101000a031916815260200191505b50848103835286818151815260200191508051906020019080838360005b8381101562001ebe57808201518184015260208101905062001ea1565b50505050905090810190601f16801562001eec5780820380516001836020036101000a031916815260200191505b50848103825285818151815260200191508051906020019080838360005b8381101562001f2757808201518184015260208101905062001f0a565b50505050905090810190601f16801562001f555780820380516001836020036101000a031916815260200191505b509650505050505050604051809103906000f08015801562001f7b573d6000803e3d6000fd5b509050600f8190806001815401808255809150509060018203906000526020600020016000909192909190916101000a81548173ffffffffffffffffffffffffffffffffffffffff021916908373ffffffffffffffffffffffffffffffffffffffff1602179055505050505050565b6000600d80549050905090565b828054600181600116156101000203166002900490600052602060002090601f016020900481019282601f106200203a57805160ff19168380011785556200206b565b828001600101855582156200206b579182015b828111156200206a5782518255916020019190600101906200204d565b5b5090506200207a919062002343565b5090565b608060405190810160405280600081526020016000815260200160008152602001606081525090565b828054600181600116156101000203166002900490600052602060002090601f016020900481019282601f10620020ea57805160ff19168380011785556200211b565b828001600101855582156200211b579182015b828111156200211a578251825591602001919060010190620020fd565b5b5090506200212a919062002343565b5090565b6080604051908101604052806060815260200160608152602001600081526020016000151581525090565b8280548282559060005260206000209060040281019282156200222e5760005260206000209160040282015b828111156200222d57828260008201816000019080546001816001161561010002031660029004620021b99291906200236b565b5060018201816001019080546001816001161561010002031660029004620021e39291906200236b565b50600282015481600201556003820160009054906101000a900460ff168160030160006101000a81548160ff02191690831515021790555050509160040191906004019062002185565b5b5090506200223d9190620023f9565b5090565b5080546000825560040290600052602060002090810190620022649190620023f9565b50565b828054828255906000526020600020906004028101928215620022f95760005260206000209160040282015b82811115620022f857828260008201548160000155600182015481600101556002820154816002015560038201816003019080546001816001161561010002031660029004620022e59291906200236b565b5050509160040191906004019062002293565b5b5090506200230891906200245b565b5090565b50805460008255600402906000526020600020908101906200232f91906200245b565b50565b604051610cd080620024f483390190565b6200236891905b80821115620023645760008160009055506001016200234a565b5090565b90565b828054600181600116156101000203166002900490600052602060002090601f016020900481019282601f10620023a65780548555620023e6565b82800160010185558215620023e657600052602060002091601f016020900482015b82811115620023e5578254825591600101919060010190620023c8565b5b509050620023f5919062002343565b5090565b6200245891905b808211156200245457600080820160006200241c9190620024a7565b6001820160006200242e9190620024a7565b60028201600090556003820160006101000a81549060ff02191690555060040162002400565b5090565b90565b620024a491905b80821115620024a05760008082016000905560018201600090556002820160009055600382016000620024969190620024a7565b5060040162002462565b5090565b90565b50805460018160011615610100020316600290046000825580601f10620024cf5750620024f0565b601f016020900490600052602060002090810190620024ef919062002343565b5b505600608060405234801561001057600080fd5b50604051610cd0380380610cd0833981018060405281019080805182019291906020018051820192919060200180518201929190505050826001908051906020019061005d9291906100ef565b5081600290805190602001906100749291906100ef565b50806003908051906020019061008b9291906100ef565b506000600560006101000a81548160ff021916908315150217905550336000806101000a81548173ffffffffffffffffffffffffffffffffffffffff021916908373ffffffffffffffffffffffffffffffffffffffff160217905550505050610194565b828054600181600116156101000203166002900490600052602060002090601f016020900481019282601f1061013057805160ff191683800117855561015e565b8280016001018555821561015e579182015b8281111561015d578251825591602001919060010190610142565b5b50905061016b919061016f565b5090565b61019191905b8082111561018d576000816000905550600101610175565b5090565b90565b610b2d806101a36000396000f300608060405260043610610099576000357c0100000000000000000000000000000000000000000000000000000000900463ffffffff16806367905c0b1461009e5780637c0099541461014d5780638ac68dd8146101dd5780638d66f34814610299578063a04c7e8a146102a3578063b2fa1c9e14610333578063b3752fd014610362578063b7f9d6f71461038d578063f2f80248146103d0575b600080fd5b3480156100aa57600080fd5b5061014b600480360381019080803590602001908201803590602001908080601f0160208091040260200160405190810160405280939291908181526020018383808284378201915050505050509192919290803590602001908201803590602001908080601f0160208091040260200160405190810160405280939291908181526020018383808284378201915050505050509192919290505050610460565b005b34801561015957600080fd5b506101626105a7565b6040518080602001828103825283818151815260200191508051906020019080838360005b838110156101a2578082015181840152602081019050610187565b50505050905090810190601f1680156101cf5780820380516001836020036101000a031916815260200191505b509250505060405180910390f35b3480156101e957600080fd5b5061021e600480360381019080803573ffffffffffffffffffffffffffffffffffffffff169060200190929190505050610645565b6040518080602001828103825283818151815260200191508051906020019080838360005b8381101561025e578082015181840152602081019050610243565b50505050905090810190601f16801561028b5780820380516001836020036101000a031916815260200191505b509250505060405180910390f35b6102a1610726565b005b3480156102af57600080fd5b506102b861078a565b6040518080602001828103825283818151815260200191508051906020019080838360005b838110156102f85780820151818401526020810190506102dd565b50505050905090810190601f1680156103255780820380516001836020036101000a031916815260200191505b509250505060405180910390f35b34801561033f57600080fd5b50610348610828565b604051808215151515815260200191505060405180910390f35b34801561036e57600080fd5b5061037761083b565b6040518082815260200191505060405180910390f35b34801561039957600080fd5b506103ce600480360381019080803573ffffffffffffffffffffffffffffffffffffffff169060200190929190505050610841565b005b3480156103dc57600080fd5b506103e5610906565b6040518080602001828103825283818151815260200191508051906020019080838360005b8381101561042557808201518184015260208101905061040a565b50505050905090810190601f1680156104525780820380516001836020036101000a031916815260200191505b509250505060405180910390f35b6104686109a4565b6060604051908101604052803373ffffffffffffffffffffffffffffffffffffffff1681526020018481526020018381525090506006819080600181540180825580915050906001820390600052602060002090600302016000909192909190915060008201518160000160006101000a81548173ffffffffffffffffffffffffffffffffffffffff021916908373ffffffffffffffffffffffffffffffffffffffff160217905550602082015181600101908051906020019061052d9291906109dc565b50604082015181600201908051906020019061054a9291906109dc565b5050505082600760003373ffffffffffffffffffffffffffffffffffffffff1673ffffffffffffffffffffffffffffffffffffffff16815260200190815260200160002090805190602001906105a1929190610a5c565b50505050565b60038054600181600116156101000203166002900480601f01602080910402602001604051908101604052809291908181526020018280546001816001161561010002031660029004801561063d5780601f106106125761010080835404028352916020019161063d565b820191906000526020600020905b81548152906001019060200180831161062057829003601f168201915b505050505081565b6060600760008373ffffffffffffffffffffffffffffffffffffffff1673ffffffffffffffffffffffffffffffffffffffff1681526020019081526020016000208054600181600116156101000203166002900480601f01602080910402602001604051908101604052809291908181526020018280546001816001161561010002031660029004801561071a5780601f106106ef5761010080835404028352916020019161071a565b820191906000526020600020905b8154815290600101906020018083116106fd57829003601f168201915b50505050509050919050565b6000809054906101000a900473ffffffffffffffffffffffffffffffffffffffff1673ffffffffffffffffffffffffffffffffffffffff163373ffffffffffffffffffffffffffffffffffffffff1614151561078157600080fd5b34600481905550565b60018054600181600116156101000203166002900480601f0160208091040260200160405190810160405280929190818152602001828054600181600116156101000203166002900480156108205780601f106107f557610100808354040283529160200191610820565b820191906000526020600020905b81548152906001019060200180831161080357829003601f168201915b505050505081565b600560009054906101000a900460ff1681565b60045481565b6000809054906101000a900473ffffffffffffffffffffffffffffffffffffffff1673ffffffffffffffffffffffffffffffffffffffff163373ffffffffffffffffffffffffffffffffffffffff1614151561089c57600080fd5b8073ffffffffffffffffffffffffffffffffffffffff166108fc6004549081150290604051600060405180830381858888f193505050501580156108e4573d6000803e3d6000fd5b503073ffffffffffffffffffffffffffffffffffffffff163160048190555050565b60028054600181600116156101000203166002900480601f01602080910402602001604051908101604052809291908181526020018280546001816001161561010002031660029004801561099c5780601f106109715761010080835404028352916020019161099c565b820191906000526020600020905b81548152906001019060200180831161097f57829003601f168201915b505050505081565b606060405190810160405280600073ffffffffffffffffffffffffffffffffffffffff16815260200160608152602001606081525090565b828054600181600116156101000203166002900490600052602060002090601f016020900481019282601f10610a1d57805160ff1916838001178555610a4b565b82800160010185558215610a4b579182015b82811115610a4a578251825591602001919060010190610a2f565b5b509050610a589190610adc565b5090565b828054600181600116156101000203166002900490600052602060002090601f016020900481019282601f10610a9d57805160ff1916838001178555610acb565b82800160010185558215610acb579182015b82811115610aca578251825591602001919060010190610aaf565b5b509050610ad89190610adc565b5090565b610afe91905b80821115610afa576000816000905550600101610ae2565b5090565b905600a165627a7a7230582051d081c722431d2740b32529c8740ac2b4923f571ae8b160f9bfd19595d93e2b0029a165627a7a723058206047b22bd38963b92d09738595b07fedd9216684f792aadd23c5d37bcec182740029",
  "source": "pragma solidity ^0.4.23;\nimport \"./FundingService.sol\";\nimport \"./Bounty.sol\";\n\ncontract Project {\n    struct ProjectMilestone {\n        string title;\n        string description;\n        uint percentage;\n        bool isComplete;\n    }\n\n    struct ProjectTier {\n        uint contributorLimit;\n        uint minContribution;\n        uint maxContribution;\n        string rewards;\n    }\n\n    enum Status {Draft, Pending, Published, Removed, Rejected}\n\n    address public fundingService;\n    uint public id;\n    Status public status;\n    string public title;\n    string public description;\n    string public about;\n    address public developer;\n    uint public developerId;\n    uint public contributionGoal;\n    ProjectTier[] contributionTiers;\n    ProjectTier[] pendingContributionTiers;\n    bool public noRefunds;\n    bool public noTimeline;\n    ProjectMilestone[] timeline;\n    ProjectMilestone[][] timelineHistory;\n    ProjectMilestone[] pendingTimeline;\n\n    Bounty[] bounties;\n\n    modifier devRestricted() {\n        require(msg.sender == developer);\n        _;\n    }\n\n    modifier fundingServiceRestricted() {\n        require(msg.sender == fundingService);\n        _;\n    }\n\n    constructor(address _fundingService, uint _id, string _title, string _description, string _about, address _developer, uint _developerId, uint _contributionGoal) public {\n        fundingService = _fundingService;\n        id = _id;\n        status = Status.Draft;\n        title = _title;\n        description = _description;\n        about = _about;\n        developer = _developer;\n        developerId = _developerId;\n        contributionGoal = _contributionGoal;\n    }\n\n    function addMilestone(string _milestoneTitle, string _milestoneDescription, uint _percentage) public devRestricted {\n        require(_percentage <= 100);\n\n        ProjectMilestone memory newMilestone = ProjectMilestone({\n            title: _milestoneTitle,\n            description: _milestoneDescription,\n            percentage: _percentage,\n            isComplete: false\n            });\n\n        pendingTimeline.push(newMilestone);\n    }\n\n    function editMilestone(\n        uint _index,\n        string _milestoneTitle,\n        string _milestoneDescription,\n        uint _milestonePercentage)\n    public devRestricted {\n        ProjectMilestone storage milestone = pendingTimeline[_index];\n\n        milestone.title = _milestoneTitle;\n        milestone.description = _milestoneDescription;\n        milestone.percentage = _milestonePercentage;\n    }\n\n    function getPendingTimelineMilestone(uint _index) public view\n    returns (\n        string milestoneTitle,\n        string milestoneDescription,\n        uint milestonePercentage,\n        bool milestoneIsComplete\n    ) {\n\n        ProjectMilestone memory milestone = pendingTimeline[_index];\n\n        return (milestone.title, milestone.description, milestone.percentage, milestone.isComplete);\n    }\n\n    function getTimelineMilestone(uint _index) public view\n    returns (\n        string milestoneTitle,\n        string milestoneDescription,\n        uint milestonePercentage,\n        bool milestoneIsComplete\n    ) {\n\n        ProjectMilestone memory milestone = timeline[_index];\n\n        return (milestone.title, milestone.description, milestone.percentage, milestone.isComplete);\n    }\n\n    function getPendingTimelineMilestoneLength() public view returns (uint) {\n        return pendingTimeline.length;\n    }\n\n    function getTimelineMilestoneLength() public view returns (uint) {\n        return timeline.length;\n    }\n\n    function getTimelineHistoryLength() public view returns (uint) {\n        return timelineHistory.length;\n    }\n\n    function finalizeTimeline() public devRestricted {\n        if (timeline.length != 0) {\n            timelineHistory.push(timeline);\n        }\n\n        timeline = pendingTimeline;\n\n        delete(pendingTimeline);\n    }\n\n    function setStatus(Status _status) public fundingServiceRestricted {\n        status = _status;\n    }\n\n    function setNoRefunds(bool val) public devRestricted {\n        noRefunds = val;\n    }\n\n    function setNoTimeline(bool val) public devRestricted {\n        noTimeline = val;\n    }\n\n    function addTier(uint _contributorLimit, uint _maxContribution, uint _minContribution, string _rewards) public devRestricted {\n        ProjectTier memory newTier = ProjectTier({\n            contributorLimit: _contributorLimit,\n            maxContribution: _maxContribution,\n            minContribution: _minContribution,\n            rewards: _rewards\n            });\n\n        pendingContributionTiers.push(newTier);\n    }\n\n    function editTier(\n        uint _index,\n        uint _contributorLimit,\n        uint _maxContribution,\n        uint _minContribution,\n        string _rewards)\n    public devRestricted {\n        ProjectTier storage tier = pendingContributionTiers[_index];\n\n        tier.contributorLimit = _contributorLimit;\n        tier.maxContribution = _maxContribution;\n        tier.minContribution = _minContribution;\n        tier.rewards = _rewards;\n    }\n\n    function getPendingTiersLength() public view returns (uint) {\n        return pendingContributionTiers.length;\n    }\n\n    function getTiersLength() public view returns (uint) {\n        return contributionTiers.length;\n    }\n\n    function getPendingContributionTier(uint _index) public view\n    returns (\n        uint tierContributorLimit,\n        uint tierMaxContribution,\n        uint tierMinContribution,\n        string tierRewards\n    ) {\n        ProjectTier memory tier = pendingContributionTiers[_index];\n\n        return (tier.contributorLimit, tier.maxContribution, tier.minContribution, tier.rewards);\n    }\n\n    function getContributionTier(uint _index) public view\n    returns (\n        uint tierContributorLimit,\n        uint tierMaxContribution,\n        uint tierMinContribution,\n        string tierRewards\n    ) {\n        ProjectTier memory tier = contributionTiers[_index];\n\n        return (tier.contributorLimit, tier.maxContribution, tier.minContribution, tier.rewards);\n    }\n\n    function finalizeTiers() public devRestricted {\n        contributionTiers = pendingContributionTiers;\n\n        delete(pendingContributionTiers);\n    }\n\n    function createBounty (string _bountyName, string _bountyDescription, string _bountyLink) public devRestricted {\n        Bounty newBounty = new Bounty(_bountyName, _bountyDescription, _bountyLink);\n\n        bounties.push(newBounty);\n    }\n\n    function() public payable { }\n}\n",
  "sourcePath": "/Users/AshTanz/Documents/HyperBridge/funding-protocol/smart-contracts/ethereum/contracts/Project.sol",
  "compiler": {
    "name": "solc",
    "version": "0.4.24+commit.e67f0147.Emscripten.clang"
  },
  "schemaVersion": "2.0.0",
  "updatedAt": "2018-06-14T18:59:26.922Z"
}