{
  "contractName": "ProjectTimeline",
  "abi": [
    {
      "inputs": [
        {
          "name": "_fundingStorage",
          "type": "address"
        }
      ],
      "payable": false,
      "stateMutability": "nonpayable",
      "type": "constructor"
    },
    {
      "constant": false,
      "inputs": [
        {
          "name": "_projectId",
          "type": "uint256"
        },
        {
          "name": "_title",
          "type": "string"
        },
        {
          "name": "_description",
          "type": "string"
        },
        {
          "name": "_percentage",
          "type": "uint256"
        }
      ],
      "name": "addMilestone",
      "outputs": [],
      "payable": false,
      "stateMutability": "nonpayable",
      "type": "function"
    },
    {
      "constant": false,
      "inputs": [
        {
          "name": "_projectId",
          "type": "uint256"
        },
        {
          "name": "_index",
          "type": "uint256"
        },
        {
          "name": "_title",
          "type": "string"
        },
        {
          "name": "_description",
          "type": "string"
        },
        {
          "name": "_percentage",
          "type": "uint256"
        }
      ],
      "name": "editMilestone",
      "outputs": [],
      "payable": false,
      "stateMutability": "nonpayable",
      "type": "function"
    },
    {
      "constant": true,
      "inputs": [
        {
          "name": "_projectId",
          "type": "uint256"
        }
      ],
      "name": "getPendingTimelineLength",
      "outputs": [
        {
          "name": "length",
          "type": "uint256"
        }
      ],
      "payable": false,
      "stateMutability": "view",
      "type": "function"
    },
    {
      "constant": true,
      "inputs": [
        {
          "name": "_projectId",
          "type": "uint256"
        },
        {
          "name": "_index",
          "type": "uint256"
        }
      ],
      "name": "getPendingTimelineMilestone",
      "outputs": [
        {
          "name": "title",
          "type": "string"
        },
        {
          "name": "description",
          "type": "string"
        },
        {
          "name": "percentage",
          "type": "uint256"
        },
        {
          "name": "isComplete",
          "type": "bool"
        }
      ],
      "payable": false,
      "stateMutability": "view",
      "type": "function"
    },
    {
      "constant": true,
      "inputs": [
        {
          "name": "_projectId",
          "type": "uint256"
        }
      ],
      "name": "getTimelineLength",
      "outputs": [
        {
          "name": "length",
          "type": "uint256"
        }
      ],
      "payable": false,
      "stateMutability": "view",
      "type": "function"
    },
    {
      "constant": true,
      "inputs": [
        {
          "name": "_projectId",
          "type": "uint256"
        },
        {
          "name": "_index",
          "type": "uint256"
        }
      ],
      "name": "getTimelineMilestone",
      "outputs": [
        {
          "name": "title",
          "type": "string"
        },
        {
          "name": "description",
          "type": "string"
        },
        {
          "name": "percentage",
          "type": "uint256"
        },
        {
          "name": "isComplete",
          "type": "bool"
        }
      ],
      "payable": false,
      "stateMutability": "view",
      "type": "function"
    },
    {
      "constant": true,
      "inputs": [
        {
          "name": "_projectId",
          "type": "uint256"
        },
        {
          "name": "_historyIndex",
          "type": "uint256"
        }
      ],
      "name": "getTimelineHistoryLength",
      "outputs": [
        {
          "name": "length",
          "type": "uint256"
        }
      ],
      "payable": false,
      "stateMutability": "view",
      "type": "function"
    },
    {
      "constant": true,
      "inputs": [
        {
          "name": "_projectId",
          "type": "uint256"
        }
      ],
      "name": "getTimelineHistoryLength",
      "outputs": [
        {
          "name": "length",
          "type": "uint256"
        }
      ],
      "payable": false,
      "stateMutability": "view",
      "type": "function"
    },
    {
      "constant": true,
      "inputs": [
        {
          "name": "_projectId",
          "type": "uint256"
        },
        {
          "name": "_timelineIndex",
          "type": "uint256"
        },
        {
          "name": "_milestoneIndex",
          "type": "uint256"
        }
      ],
      "name": "getTimelineHistoryMilestone",
      "outputs": [
        {
          "name": "title",
          "type": "string"
        },
        {
          "name": "description",
          "type": "string"
        },
        {
          "name": "percentage",
          "type": "uint256"
        },
        {
          "name": "isComplete",
          "type": "bool"
        }
      ],
      "payable": false,
      "stateMutability": "view",
      "type": "function"
    },
    {
      "constant": false,
      "inputs": [
        {
          "name": "_projectId",
          "type": "uint256"
        }
      ],
      "name": "clearPendingTimeline",
      "outputs": [],
      "payable": false,
      "stateMutability": "nonpayable",
      "type": "function"
    }
  ],
  "bytecode": "0x608060405234801561001057600080fd5b506040516020806200594783398101806040528101908080519060200190929190505050806000806101000a81548173ffffffffffffffffffffffffffffffffffffffff021916908373ffffffffffffffffffffffffffffffffffffffff160217905550506158c280620000856000396000f3006080604052600436106100a4576000357c0100000000000000000000000000000000000000000000000000000000900463ffffffff1680632b6e01ab146100a95780633e59df16146101d757806345b0899114610222578063466a0e7314610293578063638278a2146102d45780636616fcff146103015780639194b8a214610439578063d25e9dca146104a0578063f0178402146104e1578063fec5a6f11461060f575b600080fd5b3480156100b557600080fd5b506100de6004803603810190808035906020019092919080359060200190929190505050610650565b60405180806020018060200185815260200184151515158152602001838103835287818151815260200191508051906020019080838360005b83811015610132578082015181840152602081019050610117565b50505050905090810190601f16801561015f5780820380516001836020036101000a031916815260200191505b50838103825286818151815260200191508051906020019080838360005b8381101561019857808201518184015260208101905061017d565b50505050905090810190601f1680156101c55780820380516001836020036101000a031916815260200191505b50965050505050505060405180910390f35b3480156101e357600080fd5b5061020c60048036038101908080359060200190929190803590602001909291905050506106d8565b6040518082815260200191505060405180910390f35b34801561022e57600080fd5b50610291600480360381019080803590602001909291908035906020019092919080359060200190820180359060200191909192939192939080359060200190820180359060200191909192939192939080359060200190929190505050610731565b005b34801561029f57600080fd5b506102be60048036038101908080359060200190929190505050610b98565b6040518082815260200191505060405180910390f35b3480156102e057600080fd5b506102ff60048036038101908080359060200190929190505050610bee565b005b34801561030d57600080fd5b5061034060048036038101908080359060200190929190803590602001909291908035906020019092919050505061112f565b60405180806020018060200185815260200184151515158152602001838103835287818151815260200191508051906020019080838360005b83811015610394578082015181840152602081019050610379565b50505050905090810190601f1680156103c15780820380516001836020036101000a031916815260200191505b50838103825286818151815260200191508051906020019080838360005b838110156103fa5780820151818401526020810190506103df565b50505050905090810190601f1680156104275780820380516001836020036101000a031916815260200191505b50965050505050505060405180910390f35b34801561044557600080fd5b5061049e60048036038101908080359060200190929190803590602001908201803590602001919091929391929390803590602001908201803590602001919091929391929390803590602001909291905050506111b9565b005b3480156104ac57600080fd5b506104cb6004803603810190808035906020019092919050505061161b565b6040518082815260200191505060405180910390f35b3480156104ed57600080fd5b506105166004803603810190808035906020019092919080359060200190929190505050611671565b60405180806020018060200185815260200184151515158152602001838103835287818151815260200191508051906020019080838360005b8381101561056a57808201518184015260208101905061054f565b50505050905090810190601f1680156105975780820380516001836020036101000a031916815260200191505b50838103825286818151815260200191508051906020019080838360005b838110156105d05780820151818401526020810190506105b5565b50505050905090810190601f1680156105fd5780820380516001836020036101000a031916815260200191505b50965050505050505060405180910390f35b34801561061b57600080fd5b5061063a600480360381019080803590602001909291905050506116f9565b6040518082815260200191505060405180910390f35b60608060008061065e61586b565b6106aa87876000809054906101000a900473ffffffffffffffffffffffffffffffffffffffff1673ffffffffffffffffffffffffffffffffffffffff1661174f9092919063ffffffff16565b9050806000015181602001518260400151836060015183935082925094509450945094505092959194509250565b600061072683836000809054906101000a900473ffffffffffffffffffffffffffffffffffffffff1673ffffffffffffffffffffffffffffffffffffffff166120699092919063ffffffff16565b905080905092915050565b8661077c816000809054906101000a900473ffffffffffffffffffffffffffffffffffffffff1673ffffffffffffffffffffffffffffffffffffffff166121fd90919063ffffffff16565b73ffffffffffffffffffffffffffffffffffffffff163373ffffffffffffffffffffffffffffffffffffffff16141515610844576040517f08c379a00000000000000000000000000000000000000000000000000000000081526004018080602001828103825260398152602001807f596f75206d757374206265207468652070726f6a65637420646576656c6f706581526020017f7220746f20706572666f726d207468697320616374696f6e2e0000000000000081525060400191505060405180910390fd5b606482111515156108e3576040517f08c379a00000000000000000000000000000000000000000000000000000000081526004018080602001828103825260308152602001807f4d696c6573746f6e652070657263656e746167652063616e6e6f74206265206781526020017f726561746572207468616e203130302e0000000000000000000000000000000081525060400191505060405180910390fd5b61092d886000809054906101000a900473ffffffffffffffffffffffffffffffffffffffff1673ffffffffffffffffffffffffffffffffffffffff1661236290919063ffffffff16565b1515156109ee576040517f08c379a000000000000000000000000000000000000000000000000000000000815260040180806020018281038252604d8152602001807f50656e64696e67206d696c6573746f6e65732063616e6e6f742062652065646981526020017f746564207768696c6520612074696d656c696e652070726f706f73616c20766f81526020017f7465206973206163746976652e0000000000000000000000000000000000000081525060600191505060405180910390fd5b610a3a88886000809054906101000a900473ffffffffffffffffffffffffffffffffffffffff1673ffffffffffffffffffffffffffffffffffffffff166124ed9092919063ffffffff16565b151515610ad5576040517f08c379a00000000000000000000000000000000000000000000000000000000081526004018080602001828103825260228152602001807f43616e6e6f742065646974206120636f6d706c65746564206d696c6573746f6e81526020017f652e00000000000000000000000000000000000000000000000000000000000081525060400191505060405180910390fd5b610b8e888888888080601f01602080910402602001604051908101604052809392919081815260200183838082843782019150505050505087878080601f0160208091040260200160405190810160405280939291908181526020018383808284378201915050505050508660008060009054906101000a900473ffffffffffffffffffffffffffffffffffffffff1673ffffffffffffffffffffffffffffffffffffffff16612878909695949392919063ffffffff16565b5050505050505050565b6000610be4826000809054906101000a900473ffffffffffffffffffffffffffffffffffffffff1673ffffffffffffffffffffffffffffffffffffffff166128b190919063ffffffff16565b9050809050919050565b600080610bf961586b565b600080610c0461586b565b86610c4f816000809054906101000a900473ffffffffffffffffffffffffffffffffffffffff1673ffffffffffffffffffffffffffffffffffffffff166121fd90919063ffffffff16565b73ffffffffffffffffffffffffffffffffffffffff163373ffffffffffffffffffffffffffffffffffffffff16141515610d17576040517f08c379a00000000000000000000000000000000000000000000000000000000081526004018080602001828103825260398152602001807f596f75206d757374206265207468652070726f6a65637420646576656c6f706581526020017f7220746f20706572666f726d207468697320616374696f6e2e0000000000000081525060400191505060405180910390fd5b610d61886000809054906101000a900473ffffffffffffffffffffffffffffffffffffffff1673ffffffffffffffffffffffffffffffffffffffff1661236290919063ffffffff16565b151515610dfc576040517f08c379a00000000000000000000000000000000000000000000000000000000081526004018080602001828103825260238152602001807f412074696d656c696e652070726f706f73616c20766f7465206973206163746981526020017f76652e000000000000000000000000000000000000000000000000000000000081525060400191505060405180910390fd5b610e498860008060009054906101000a900473ffffffffffffffffffffffffffffffffffffffff1673ffffffffffffffffffffffffffffffffffffffff16612a169092919063ffffffff16565b610e93886000809054906101000a900473ffffffffffffffffffffffffffffffffffffffff1673ffffffffffffffffffffffffffffffffffffffff16612b5b90919063ffffffff16565b9650600095505b86861015610f6157610eee88876000809054906101000a900473ffffffffffffffffffffffffffffffffffffffff1673ffffffffffffffffffffffffffffffffffffffff16612ce69092919063ffffffff16565b9450610f5488878760000151886020015189604001518a606001516000809054906101000a900473ffffffffffffffffffffffffffffffffffffffff1673ffffffffffffffffffffffffffffffffffffffff16612878909695949392919063ffffffff16565b8580600101965050610e9a565b610fab886000809054906101000a900473ffffffffffffffffffffffffffffffffffffffff1673ffffffffffffffffffffffffffffffffffffffff1661362690919063ffffffff16565b6004811115610fb657fe5b935060026004811115610fc557fe5b846004811115610fd157fe5b141561112557611021886000809054906101000a900473ffffffffffffffffffffffffffffffffffffffff1673ffffffffffffffffffffffffffffffffffffffff1661378b90919063ffffffff16565b925061106f88846000809054906101000a900473ffffffffffffffffffffffffffffffffffffffff1673ffffffffffffffffffffffffffffffffffffffff1661174f9092919063ffffffff16565b91506110d5888884600001518560200151866040015187606001516000809054906101000a900473ffffffffffffffffffffffffffffffffffffffff1673ffffffffffffffffffffffffffffffffffffffff16612878909695949392919063ffffffff16565b61112488600189016000809054906101000a900473ffffffffffffffffffffffffffffffffffffffff1673ffffffffffffffffffffffffffffffffffffffff16612a169092919063ffffffff16565b5b5050505050505050565b60608060008061113d61586b565b61118b8888886000809054906101000a900473ffffffffffffffffffffffffffffffffffffffff1673ffffffffffffffffffffffffffffffffffffffff166138f0909392919063ffffffff16565b9050806000015181602001518260400151836060015183935082925094509450945094505093509350935093565b85611204816000809054906101000a900473ffffffffffffffffffffffffffffffffffffffff1673ffffffffffffffffffffffffffffffffffffffff166121fd90919063ffffffff16565b73ffffffffffffffffffffffffffffffffffffffff163373ffffffffffffffffffffffffffffffffffffffff161415156112cc576040517f08c379a00000000000000000000000000000000000000000000000000000000081526004018080602001828103825260398152602001807f596f75206d757374206265207468652070726f6a65637420646576656c6f706581526020017f7220746f20706572666f726d207468697320616374696f6e2e0000000000000081525060400191505060405180910390fd5b6064821115151561136b576040517f08c379a00000000000000000000000000000000000000000000000000000000081526004018080602001828103825260308152602001807f4d696c6573746f6e652070657263656e746167652063616e6e6f74206265206781526020017f726561746572207468616e203130302e0000000000000000000000000000000081525060400191505060405180910390fd5b6113b5876000809054906101000a900473ffffffffffffffffffffffffffffffffffffffff1673ffffffffffffffffffffffffffffffffffffffff1661445090919063ffffffff16565b151515611450576040517f08c379a00000000000000000000000000000000000000000000000000000000081526004018080602001828103825260358152602001807f43616e6e6f74206164642061206d696c6573746f6e6520746f20612070726f6a81526020017f6563742077697468206e6f2074696d656c696e652e000000000000000000000081525060400191505060405180910390fd5b61149a876000809054906101000a900473ffffffffffffffffffffffffffffffffffffffff1673ffffffffffffffffffffffffffffffffffffffff1661236290919063ffffffff16565b15151561155b576040517f08c379a000000000000000000000000000000000000000000000000000000000815260040180806020018281038252604c8152602001807f50656e64696e67206d696c6573746f6e65732063616e6e6f742062652061646481526020017f6564207768696c6520612074696d656c696e652070726f706f73616c20766f7481526020017f65206973206163746976652e000000000000000000000000000000000000000081525060600191505060405180910390fd5b6116128787878080601f01602080910402602001604051908101604052809392919081815260200183838082843782019150505050505086868080601f0160208091040260200160405190810160405280939291908181526020018383808284378201915050505050508560008060009054906101000a900473ffffffffffffffffffffffffffffffffffffffff1673ffffffffffffffffffffffffffffffffffffffff166145b59095949392919063ffffffff16565b50505050505050565b6000611667826000809054906101000a900473ffffffffffffffffffffffffffffffffffffffff1673ffffffffffffffffffffffffffffffffffffffff166145e990919063ffffffff16565b9050809050919050565b60608060008061167f61586b565b6116cb87876000809054906101000a900473ffffffffffffffffffffffffffffffffffffffff1673ffffffffffffffffffffffffffffffffffffffff1661474e9092919063ffffffff16565b9050806000015181602001518260400151836060015183935082925094509450945094505092959194509250565b6000611745826000809054906101000a900473ffffffffffffffffffffffffffffffffffffffff1673ffffffffffffffffffffffffffffffffffffffff1661506890919063ffffffff16565b9050809050919050565b61175761586b565b60608060008061176561586b565b8873ffffffffffffffffffffffffffffffffffffffff1663bd02d0f58960405160200180807f70726f6a6563742e74696d656c696e652e6c656e6774680000000000000000008152506017018281526020019150506040516020818303038152906040526040518082805190602001908083835b6020831015156117fe57805182526020820191506020810190506020830392506117d9565b6001836020036101000a03801982511681845116808217855250505050505090500191505060405180910390206040518263ffffffff167c0100000000000000000000000000000000000000000000000000000000028152600401808260001916600019168152602001915050602060405180830381600087803b15801561188557600080fd5b505af1158015611899573d6000803e3d6000fd5b505050506040513d60208110156118af57600080fd5b81019080805190602001909291905050508710151561195c576040517f08c379a00000000000000000000000000000000000000000000000000000000081526004018080602001828103825260258152602001807f496e646578206973206f757473696465206f662061636365737369626c65207281526020017f616e67652e00000000000000000000000000000000000000000000000000000081525060400191505060405180910390fd5b8873ffffffffffffffffffffffffffffffffffffffff1663986e791a888a60405160200180807f70726f6a6563742e74696d656c696e652e6d696c6573746f6e65732e7469746c81526020017f6500000000000000000000000000000000000000000000000000000000000000815250602101838152602001828152602001925050506040516020818303038152906040526040518082805190602001908083835b602083101515611a2357805182526020820191506020810190506020830392506119fe565b6001836020036101000a03801982511681845116808217855250505050505090500191505060405180910390206040518263ffffffff167c0100000000000000000000000000000000000000000000000000000000028152600401808260001916600019168152602001915050600060405180830381600087803b158015611aaa57600080fd5b505af1158015611abe573d6000803e3d6000fd5b505050506040513d6000823e3d601f19601f820116820180604052506020811015611ae857600080fd5b810190808051640100000000811115611b0057600080fd5b82810190506020810184811115611b1657600080fd5b8151856001820283011164010000000082111715611b3357600080fd5b505092919050505094508873ffffffffffffffffffffffffffffffffffffffff1663986e791a888a60405160200180807f70726f6a6563742e74696d656c696e652e6d696c6573746f6e65732e6465736381526020017f72697074696f6e00000000000000000000000000000000000000000000000000815250602701838152602001828152602001925050506040516020818303038152906040526040518082805190602001908083835b602083101515611c045780518252602082019150602081019050602083039250611bdf565b6001836020036101000a03801982511681845116808217855250505050505090500191505060405180910390206040518263ffffffff167c0100000000000000000000000000000000000000000000000000000000028152600401808260001916600019168152602001915050600060405180830381600087803b158015611c8b57600080fd5b505af1158015611c9f573d6000803e3d6000fd5b505050506040513d6000823e3d601f19601f820116820180604052506020811015611cc957600080fd5b810190808051640100000000811115611ce157600080fd5b82810190506020810184811115611cf757600080fd5b8151856001820283011164010000000082111715611d1457600080fd5b505092919050505093508873ffffffffffffffffffffffffffffffffffffffff1663bd02d0f5888a60405160200180807f70726f6a6563742e74696d656c696e652e6d696c6573746f6e65732e7065726381526020017f656e746167650000000000000000000000000000000000000000000000000000815250602601838152602001828152602001925050506040516020818303038152906040526040518082805190602001908083835b602083101515611de55780518252602082019150602081019050602083039250611dc0565b6001836020036101000a03801982511681845116808217855250505050505090500191505060405180910390206040518263ffffffff167c0100000000000000000000000000000000000000000000000000000000028152600401808260001916600019168152602001915050602060405180830381600087803b158015611e6c57600080fd5b505af1158015611e80573d6000803e3d6000fd5b505050506040513d6020811015611e9657600080fd5b810190808051906020019092919050505092508873ffffffffffffffffffffffffffffffffffffffff16637ae1cfca888a60405160200180807f70726f6a6563742e74696d656c696e652e6d696c6573746f6e65732e6973436f81526020017f6d706c6574650000000000000000000000000000000000000000000000000000815250602601838152602001828152602001925050506040516020818303038152906040526040518082805190602001908083835b602083101515611f705780518252602082019150602081019050602083039250611f4b565b6001836020036101000a03801982511681845116808217855250505050505090500191505060405180910390206040518263ffffffff167c0100000000000000000000000000000000000000000000000000000000028152600401808260001916600019168152602001915050602060405180830381600087803b158015611ff757600080fd5b505af115801561200b573d6000803e3d6000fd5b505050506040513d602081101561202157600080fd5b81019080805190602001909291905050509150608060405190810160405280868152602001858152602001848152602001831515815250905080955050505050509392505050565b60008373ffffffffffffffffffffffffffffffffffffffff1663bd02d0f5848460405160200180807f70726f6a6563742e74696d656c696e65486973746f72792e6d696c6573746f6e81526020017f65732e6c656e6774680000000000000000000000000000000000000000000000815250602901838152602001828152602001925050506040516020818303038152906040526040518082805190602001908083835b602083101515612132578051825260208201915060208101905060208303925061210d565b6001836020036101000a03801982511681845116808217855250505050505090500191505060405180910390206040518263ffffffff167c0100000000000000000000000000000000000000000000000000000000028152600401808260001916600019168152602001915050602060405180830381600087803b1580156121b957600080fd5b505af11580156121cd573d6000803e3d6000fd5b505050506040513d60208110156121e357600080fd5b810190808051906020019092919050505090509392505050565b60008273ffffffffffffffffffffffffffffffffffffffff166321f8a7218360405160200180807f70726f6a6563742e646576656c6f7065720000000000000000000000000000008152506011018281526020019150506040516020818303038152906040526040518082805190602001908083835b6020831015156122985780518252602082019150602081019050602083039250612273565b6001836020036101000a03801982511681845116808217855250505050505090500191505060405180910390206040518263ffffffff167c0100000000000000000000000000000000000000000000000000000000028152600401808260001916600019168152602001915050602060405180830381600087803b15801561231f57600080fd5b505af1158015612333573d6000803e3d6000fd5b505050506040513d602081101561234957600080fd5b8101908080519060200190929190505050905092915050565b60008273ffffffffffffffffffffffffffffffffffffffff16637ae1cfca8360405160200180807f70726f6a6563742e74696d656c696e6550726f706f73616c2e6973416374697681526020017f65000000000000000000000000000000000000000000000000000000000000008152506021018281526020019150506040516020818303038152906040526040518082805190602001908083835b60208310151561242357805182526020820191506020810190506020830392506123fe565b6001836020036101000a03801982511681845116808217855250505050505090500191505060405180910390206040518263ffffffff167c0100000000000000000000000000000000000000000000000000000000028152600401808260001916600019168152602001915050602060405180830381600087803b1580156124aa57600080fd5b505af11580156124be573d6000803e3d6000fd5b505050506040513d60208110156124d457600080fd5b8101908080519060200190929190505050905092915050565b60008373ffffffffffffffffffffffffffffffffffffffff1663bd02d0f58460405160200180807f70726f6a6563742e70656e64696e6754696d656c696e652e6c656e6774680000815250601e018281526020019150506040516020818303038152906040526040518082805190602001908083835b6020831015156125885780518252602082019150602081019050602083039250612563565b6001836020036101000a03801982511681845116808217855250505050505090500191505060405180910390206040518263ffffffff167c0100000000000000000000000000000000000000000000000000000000028152600401808260001916600019168152602001915050602060405180830381600087803b15801561260f57600080fd5b505af1158015612623573d6000803e3d6000fd5b505050506040513d602081101561263957600080fd5b8101908080519060200190929190505050821015156126e6576040517f08c379a00000000000000000000000000000000000000000000000000000000081526004018080602001828103825260258152602001807f496e646578206973206f757473696465206f662061636365737369626c65207281526020017f616e67652e00000000000000000000000000000000000000000000000000000081525060400191505060405180910390fd5b8373ffffffffffffffffffffffffffffffffffffffff16637ae1cfca838560405160200180807f70726f6a6563742e70656e64696e6754696d656c696e652e6d696c6573746f6e81526020017f65732e6973436f6d706c65746500000000000000000000000000000000000000815250602d01838152602001828152602001925050506040516020818303038152906040526040518082805190602001908083835b6020831015156127ad5780518252602082019150602081019050602083039250612788565b6001836020036101000a03801982511681845116808217855250505050505090500191505060405180910390206040518263ffffffff167c0100000000000000000000000000000000000000000000000000000000028152600401808260001916600019168152602001915050602060405180830381600087803b15801561283457600080fd5b505af1158015612848573d6000803e3d6000fd5b505050506040513d602081101561285e57600080fd5b810190808051906020019092919050505090509392505050565b612884878787876151cd565b612890878787866153a6565b61289c8787878561557f565b6128a8878787846156f3565b50505050505050565b60008273ffffffffffffffffffffffffffffffffffffffff1663bd02d0f58360405160200180807f70726f6a6563742e70656e64696e6754696d656c696e652e6c656e6774680000815250601e018281526020019150506040516020818303038152906040526040518082805190602001908083835b60208310151561294c5780518252602082019150602081019050602083039250612927565b6001836020036101000a03801982511681845116808217855250505050505090500191505060405180910390206040518263ffffffff167c0100000000000000000000000000000000000000000000000000000000028152600401808260001916600019168152602001915050602060405180830381600087803b1580156129d357600080fd5b505af11580156129e7573d6000803e3d6000fd5b505050506040513d60208110156129fd57600080fd5b8101908080519060200190929190505050905092915050565b8273ffffffffffffffffffffffffffffffffffffffff1663e2a4853a8360405160200180807f70726f6a6563742e70656e64696e6754696d656c696e652e6c656e6774680000815250601e018281526020019150506040516020818303038152906040526040518082805190602001908083835b602083101515612aaf5780518252602082019150602081019050602083039250612a8a565b6001836020036101000a0380198251168184511680821785525050505050509050019150506040518091039020836040518363ffffffff167c010000000000000000000000000000000000000000000000000000000002815260040180836000191660001916815260200182815260200192505050600060405180830381600087803b158015612b3e57600080fd5b505af1158015612b52573d6000803e3d6000fd5b50505050505050565b60008273ffffffffffffffffffffffffffffffffffffffff1663bd02d0f58360405160200180807f70726f6a6563742e636f6d706c657465644d696c6573746f6e65732e6c656e6781526020017f74680000000000000000000000000000000000000000000000000000000000008152506022018281526020019150506040516020818303038152906040526040518082805190602001908083835b602083101515612c1c5780518252602082019150602081019050602083039250612bf7565b6001836020036101000a03801982511681845116808217855250505050505090500191505060405180910390206040518263ffffffff167c0100000000000000000000000000000000000000000000000000000000028152600401808260001916600019168152602001915050602060405180830381600087803b158015612ca357600080fd5b505af1158015612cb7573d6000803e3d6000fd5b505050506040513d6020811015612ccd57600080fd5b8101908080519060200190929190505050905092915050565b612cee61586b565b606080600080612cfc61586b565b8873ffffffffffffffffffffffffffffffffffffffff1663bd02d0f58960405160200180807f70726f6a6563742e636f6d706c657465644d696c6573746f6e65732e6c656e6781526020017f74680000000000000000000000000000000000000000000000000000000000008152506022018281526020019150506040516020818303038152906040526040518082805190602001908083835b602083101515612dbb5780518252602082019150602081019050602083039250612d96565b6001836020036101000a03801982511681845116808217855250505050505090500191505060405180910390206040518263ffffffff167c0100000000000000000000000000000000000000000000000000000000028152600401808260001916600019168152602001915050602060405180830381600087803b158015612e4257600080fd5b505af1158015612e56573d6000803e3d6000fd5b505050506040513d6020811015612e6c57600080fd5b810190808051906020019092919050505087101515612f19576040517f08c379a00000000000000000000000000000000000000000000000000000000081526004018080602001828103825260258152602001807f496e646578206973206f757473696465206f662061636365737369626c65207281526020017f616e67652e00000000000000000000000000000000000000000000000000000081525060400191505060405180910390fd5b8873ffffffffffffffffffffffffffffffffffffffff1663986e791a888a60405160200180807f70726f6a6563742e636f6d706c657465644d696c6573746f6e65732e7469746c81526020017f6500000000000000000000000000000000000000000000000000000000000000815250602101838152602001828152602001925050506040516020818303038152906040526040518082805190602001908083835b602083101515612fe05780518252602082019150602081019050602083039250612fbb565b6001836020036101000a03801982511681845116808217855250505050505090500191505060405180910390206040518263ffffffff167c0100000000000000000000000000000000000000000000000000000000028152600401808260001916600019168152602001915050600060405180830381600087803b15801561306757600080fd5b505af115801561307b573d6000803e3d6000fd5b505050506040513d6000823e3d601f19601f8201168201806040525060208110156130a557600080fd5b8101908080516401000000008111156130bd57600080fd5b828101905060208101848111156130d357600080fd5b81518560018202830111640100000000821117156130f057600080fd5b505092919050505094508873ffffffffffffffffffffffffffffffffffffffff1663986e791a888a60405160200180807f70726f6a6563742e636f6d706c657465644d696c6573746f6e65732e6465736381526020017f72697074696f6e00000000000000000000000000000000000000000000000000815250602701838152602001828152602001925050506040516020818303038152906040526040518082805190602001908083835b6020831015156131c1578051825260208201915060208101905060208303925061319c565b6001836020036101000a03801982511681845116808217855250505050505090500191505060405180910390206040518263ffffffff167c0100000000000000000000000000000000000000000000000000000000028152600401808260001916600019168152602001915050600060405180830381600087803b15801561324857600080fd5b505af115801561325c573d6000803e3d6000fd5b505050506040513d6000823e3d601f19601f82011682018060405250602081101561328657600080fd5b81019080805164010000000081111561329e57600080fd5b828101905060208101848111156132b457600080fd5b81518560018202830111640100000000821117156132d157600080fd5b505092919050505093508873ffffffffffffffffffffffffffffffffffffffff1663bd02d0f5888a60405160200180807f70726f6a6563742e636f6d706c657465644d696c6573746f6e65732e7065726381526020017f656e746167650000000000000000000000000000000000000000000000000000815250602601838152602001828152602001925050506040516020818303038152906040526040518082805190602001908083835b6020831015156133a2578051825260208201915060208101905060208303925061337d565b6001836020036101000a03801982511681845116808217855250505050505090500191505060405180910390206040518263ffffffff167c0100000000000000000000000000000000000000000000000000000000028152600401808260001916600019168152602001915050602060405180830381600087803b15801561342957600080fd5b505af115801561343d573d6000803e3d6000fd5b505050506040513d602081101561345357600080fd5b810190808051906020019092919050505092508873ffffffffffffffffffffffffffffffffffffffff16637ae1cfca888a60405160200180807f70726f6a6563742e636f6d706c657465644d696c6573746f6e65732e6973436f81526020017f6d706c6574650000000000000000000000000000000000000000000000000000815250602601838152602001828152602001925050506040516020818303038152906040526040518082805190602001908083835b60208310151561352d5780518252602082019150602081019050602083039250613508565b6001836020036101000a03801982511681845116808217855250505050505090500191505060405180910390206040518263ffffffff167c0100000000000000000000000000000000000000000000000000000000028152600401808260001916600019168152602001915050602060405180830381600087803b1580156135b457600080fd5b505af11580156135c8573d6000803e3d6000fd5b505050506040513d60208110156135de57600080fd5b81019080805190602001909291905050509150608060405190810160405280868152602001858152602001848152602001831515815250905080955050505050509392505050565b60008273ffffffffffffffffffffffffffffffffffffffff1663bd02d0f58360405160200180807f70726f6a6563742e737461747573000000000000000000000000000000000000815250600e018281526020019150506040516020818303038152906040526040518082805190602001908083835b6020831015156136c1578051825260208201915060208101905060208303925061369c565b6001836020036101000a03801982511681845116808217855250505050505090500191505060405180910390206040518263ffffffff167c0100000000000000000000000000000000000000000000000000000000028152600401808260001916600019168152602001915050602060405180830381600087803b15801561374857600080fd5b505af115801561375c573d6000803e3d6000fd5b505050506040513d602081101561377257600080fd5b8101908080519060200190929190505050905092915050565b60008273ffffffffffffffffffffffffffffffffffffffff1663bd02d0f58360405160200180807f70726f6a6563742e6163746976654d696c6573746f6e65496e64657800000000815250601c018281526020019150506040516020818303038152906040526040518082805190602001908083835b6020831015156138265780518252602082019150602081019050602083039250613801565b6001836020036101000a03801982511681845116808217855250505050505090500191505060405180910390206040518263ffffffff167c0100000000000000000000000000000000000000000000000000000000028152600401808260001916600019168152602001915050602060405180830381600087803b1580156138ad57600080fd5b505af11580156138c1573d6000803e3d6000fd5b505050506040513d60208110156138d757600080fd5b8101908080519060200190929190505050905092915050565b6138f861586b565b60608060008061390661586b565b8973ffffffffffffffffffffffffffffffffffffffff1663bd02d0f58a60405160200180807f70726f6a6563742e74696d656c696e65486973746f72792e6c656e6774680000815250601e018281526020019150506040516020818303038152906040526040518082805190602001908083835b60208310151561399f578051825260208201915060208101905060208303925061397a565b6001836020036101000a03801982511681845116808217855250505050505090500191505060405180910390206040518263ffffffff167c0100000000000000000000000000000000000000000000000000000000028152600401808260001916600019168152602001915050602060405180830381600087803b158015613a2657600080fd5b505af1158015613a3a573d6000803e3d6000fd5b505050506040513d6020811015613a5057600080fd5b810190808051906020019092919050505088101515613afd576040517f08c379a000000000000000000000000000000000000000000000000000000000815260040180806020018281038252602e8152602001807f54696d656c696e6520696e646578206973206f757473696465206f662061636381526020017f65737369626c652072616e67652e00000000000000000000000000000000000081525060400191505060405180910390fd5b8973ffffffffffffffffffffffffffffffffffffffff1663bd02d0f58a8a60405160200180807f70726f6a6563742e74696d656c696e65486973746f72792e6d696c6573746f6e81526020017f65732e6c656e6774680000000000000000000000000000000000000000000000815250602901838152602001828152602001925050506040516020818303038152906040526040518082805190602001908083835b602083101515613bc45780518252602082019150602081019050602083039250613b9f565b6001836020036101000a03801982511681845116808217855250505050505090500191505060405180910390206040518263ffffffff167c0100000000000000000000000000000000000000000000000000000000028152600401808260001916600019168152602001915050602060405180830381600087803b158015613c4b57600080fd5b505af1158015613c5f573d6000803e3d6000fd5b505050506040513d6020811015613c7557600080fd5b810190808051906020019092919050505087101515613d22576040517f08c379a000000000000000000000000000000000000000000000000000000000815260040180806020018281038252602f8152602001807f4d696c6573746f6e6520696e646578206973206f757473696465206f6620616381526020017f6365737369626c652072616e67652e000000000000000000000000000000000081525060400191505060405180910390fd5b8973ffffffffffffffffffffffffffffffffffffffff1663986e791a89898c60405160200180807f70726f6a6563742e74696d656c696e65486973746f72792e6d696c6573746f6e81526020017f65732e7469746c6500000000000000000000000000000000000000000000000081525060280184815260200183815260200182815260200193505050506040516020818303038152906040526040518082805190602001908083835b602083101515613df15780518252602082019150602081019050602083039250613dcc565b6001836020036101000a03801982511681845116808217855250505050505090500191505060405180910390206040518263ffffffff167c0100000000000000000000000000000000000000000000000000000000028152600401808260001916600019168152602001915050600060405180830381600087803b158015613e7857600080fd5b505af1158015613e8c573d6000803e3d6000fd5b505050506040513d6000823e3d601f19601f820116820180604052506020811015613eb657600080fd5b810190808051640100000000811115613ece57600080fd5b82810190506020810184811115613ee457600080fd5b8151856001820283011164010000000082111715613f0157600080fd5b505092919050505094508973ffffffffffffffffffffffffffffffffffffffff1663986e791a89898c60405160200180807f70726f6a6563742e74696d656c696e65486973746f72792e6d696c6573746f6e81526020017f65732e6465736372697074696f6e000000000000000000000000000000000000815250602e0184815260200183815260200182815260200193505050506040516020818303038152906040526040518082805190602001908083835b602083101515613fda5780518252602082019150602081019050602083039250613fb5565b6001836020036101000a03801982511681845116808217855250505050505090500191505060405180910390206040518263ffffffff167c0100000000000000000000000000000000000000000000000000000000028152600401808260001916600019168152602001915050600060405180830381600087803b15801561406157600080fd5b505af1158015614075573d6000803e3d6000fd5b505050506040513d6000823e3d601f19601f82011682018060405250602081101561409f57600080fd5b8101908080516401000000008111156140b757600080fd5b828101905060208101848111156140cd57600080fd5b81518560018202830111640100000000821117156140ea57600080fd5b505092919050505093508973ffffffffffffffffffffffffffffffffffffffff1663bd02d0f589898c60405160200180807f70726f6a6563742e74696d656c696e65486973746f72792e6d696c6573746f6e81526020017f65732e70657263656e7461676500000000000000000000000000000000000000815250602d0184815260200183815260200182815260200193505050506040516020818303038152906040526040518082805190602001908083835b6020831015156141c3578051825260208201915060208101905060208303925061419e565b6001836020036101000a03801982511681845116808217855250505050505090500191505060405180910390206040518263ffffffff167c0100000000000000000000000000000000000000000000000000000000028152600401808260001916600019168152602001915050602060405180830381600087803b15801561424a57600080fd5b505af115801561425e573d6000803e3d6000fd5b505050506040513d602081101561427457600080fd5b810190808051906020019092919050505092508973ffffffffffffffffffffffffffffffffffffffff16637ae1cfca89898c60405160200180807f70726f6a6563742e74696d656c696e65486973746f72792e6d696c6573746f6e81526020017f65732e6973436f6d706c65746500000000000000000000000000000000000000815250602d0184815260200183815260200182815260200193505050506040516020818303038152906040526040518082805190602001908083835b6020831015156143565780518252602082019150602081019050602083039250614331565b6001836020036101000a03801982511681845116808217855250505050505090500191505060405180910390206040518263ffffffff167c0100000000000000000000000000000000000000000000000000000000028152600401808260001916600019168152602001915050602060405180830381600087803b1580156143dd57600080fd5b505af11580156143f1573d6000803e3d6000fd5b505050506040513d602081101561440757600080fd5b8101908080519060200190929190505050915060806040519081016040528086815260200185815260200184815260200183151581525090508095505050505050949350505050565b60008273ffffffffffffffffffffffffffffffffffffffff16637ae1cfca8360405160200180807f70726f6a6563742e6e6f54696d656c696e6500000000000000000000000000008152506012018281526020019150506040516020818303038152906040526040518082805190602001908083835b6020831015156144eb57805182526020820191506020810190506020830392506144c6565b6001836020036101000a03801982511681845116808217855250505050505090500191505060405180910390206040518263ffffffff167c0100000000000000000000000000000000000000000000000000000000028152600401808260001916600019168152602001915050602060405180830381600087803b15801561457257600080fd5b505af1158015614586573d6000803e3d6000fd5b505050506040513d602081101561459c57600080fd5b8101908080519060200190929190505050905092915050565b60006145c187876128b1565b90506145d287878388888888612878565b6145e0878760018401612a16565b50505050505050565b60008273ffffffffffffffffffffffffffffffffffffffff1663bd02d0f58360405160200180807f70726f6a6563742e74696d656c696e652e6c656e6774680000000000000000008152506017018281526020019150506040516020818303038152906040526040518082805190602001908083835b602083101515614684578051825260208201915060208101905060208303925061465f565b6001836020036101000a03801982511681845116808217855250505050505090500191505060405180910390206040518263ffffffff167c0100000000000000000000000000000000000000000000000000000000028152600401808260001916600019168152602001915050602060405180830381600087803b15801561470b57600080fd5b505af115801561471f573d6000803e3d6000fd5b505050506040513d602081101561473557600080fd5b8101908080519060200190929190505050905092915050565b61475661586b565b60608060008061476461586b565b8873ffffffffffffffffffffffffffffffffffffffff1663bd02d0f58960405160200180807f70726f6a6563742e70656e64696e6754696d656c696e652e6c656e6774680000815250601e018281526020019150506040516020818303038152906040526040518082805190602001908083835b6020831015156147fd57805182526020820191506020810190506020830392506147d8565b6001836020036101000a03801982511681845116808217855250505050505090500191505060405180910390206040518263ffffffff167c0100000000000000000000000000000000000000000000000000000000028152600401808260001916600019168152602001915050602060405180830381600087803b15801561488457600080fd5b505af1158015614898573d6000803e3d6000fd5b505050506040513d60208110156148ae57600080fd5b81019080805190602001909291905050508710151561495b576040517f08c379a00000000000000000000000000000000000000000000000000000000081526004018080602001828103825260258152602001807f496e646578206973206f757473696465206f662061636365737369626c65207281526020017f616e67652e00000000000000000000000000000000000000000000000000000081525060400191505060405180910390fd5b8873ffffffffffffffffffffffffffffffffffffffff1663986e791a888a60405160200180807f70726f6a6563742e70656e64696e6754696d656c696e652e6d696c6573746f6e81526020017f65732e7469746c65000000000000000000000000000000000000000000000000815250602801838152602001828152602001925050506040516020818303038152906040526040518082805190602001908083835b602083101515614a2257805182526020820191506020810190506020830392506149fd565b6001836020036101000a03801982511681845116808217855250505050505090500191505060405180910390206040518263ffffffff167c0100000000000000000000000000000000000000000000000000000000028152600401808260001916600019168152602001915050600060405180830381600087803b158015614aa957600080fd5b505af1158015614abd573d6000803e3d6000fd5b505050506040513d6000823e3d601f19601f820116820180604052506020811015614ae757600080fd5b810190808051640100000000811115614aff57600080fd5b82810190506020810184811115614b1557600080fd5b8151856001820283011164010000000082111715614b3257600080fd5b505092919050505094508873ffffffffffffffffffffffffffffffffffffffff1663986e791a888a60405160200180807f70726f6a6563742e70656e64696e6754696d656c696e652e6d696c6573746f6e81526020017f65732e6465736372697074696f6e000000000000000000000000000000000000815250602e01838152602001828152602001925050506040516020818303038152906040526040518082805190602001908083835b602083101515614c035780518252602082019150602081019050602083039250614bde565b6001836020036101000a03801982511681845116808217855250505050505090500191505060405180910390206040518263ffffffff167c0100000000000000000000000000000000000000000000000000000000028152600401808260001916600019168152602001915050600060405180830381600087803b158015614c8a57600080fd5b505af1158015614c9e573d6000803e3d6000fd5b505050506040513d6000823e3d601f19601f820116820180604052506020811015614cc857600080fd5b810190808051640100000000811115614ce057600080fd5b82810190506020810184811115614cf657600080fd5b8151856001820283011164010000000082111715614d1357600080fd5b505092919050505093508873ffffffffffffffffffffffffffffffffffffffff1663bd02d0f5888a60405160200180807f70726f6a6563742e70656e64696e6754696d656c696e652e6d696c6573746f6e81526020017f65732e70657263656e7461676500000000000000000000000000000000000000815250602d01838152602001828152602001925050506040516020818303038152906040526040518082805190602001908083835b602083101515614de45780518252602082019150602081019050602083039250614dbf565b6001836020036101000a03801982511681845116808217855250505050505090500191505060405180910390206040518263ffffffff167c0100000000000000000000000000000000000000000000000000000000028152600401808260001916600019168152602001915050602060405180830381600087803b158015614e6b57600080fd5b505af1158015614e7f573d6000803e3d6000fd5b505050506040513d6020811015614e9557600080fd5b810190808051906020019092919050505092508873ffffffffffffffffffffffffffffffffffffffff16637ae1cfca888a60405160200180807f70726f6a6563742e70656e64696e6754696d656c696e652e6d696c6573746f6e81526020017f65732e6973436f6d706c65746500000000000000000000000000000000000000815250602d01838152602001828152602001925050506040516020818303038152906040526040518082805190602001908083835b602083101515614f6f5780518252602082019150602081019050602083039250614f4a565b6001836020036101000a03801982511681845116808217855250505050505090500191505060405180910390206040518263ffffffff167c0100000000000000000000000000000000000000000000000000000000028152600401808260001916600019168152602001915050602060405180830381600087803b158015614ff657600080fd5b505af115801561500a573d6000803e3d6000fd5b505050506040513d602081101561502057600080fd5b81019080805190602001909291905050509150608060405190810160405280868152602001858152602001848152602001831515815250905080955050505050509392505050565b60008273ffffffffffffffffffffffffffffffffffffffff1663bd02d0f58360405160200180807f70726f6a6563742e74696d656c696e65486973746f72792e6c656e6774680000815250601e018281526020019150506040516020818303038152906040526040518082805190602001908083835b60208310151561510357805182526020820191506020810190506020830392506150de565b6001836020036101000a03801982511681845116808217855250505050505090500191505060405180910390206040518263ffffffff167c0100000000000000000000000000000000000000000000000000000000028152600401808260001916600019168152602001915050602060405180830381600087803b15801561518a57600080fd5b505af115801561519e573d6000803e3d6000fd5b505050506040513d60208110156151b457600080fd5b8101908080519060200190929190505050905092915050565b8373ffffffffffffffffffffffffffffffffffffffff16636e899550838560405160200180807f70726f6a6563742e70656e64696e6754696d656c696e652e6d696c6573746f6e81526020017f65732e7469746c65000000000000000000000000000000000000000000000000815250602801838152602001828152602001925050506040516020818303038152906040526040518082805190602001908083835b602083101515615294578051825260208201915060208101905060208303925061526f565b6001836020036101000a0380198251168184511680821785525050505050509050019150506040518091039020836040518363ffffffff167c010000000000000000000000000000000000000000000000000000000002815260040180836000191660001916815260200180602001828103825283818151815260200191508051906020019080838360005b8381101561533b578082015181840152602081019050615320565b50505050905090810190601f1680156153685780820380516001836020036101000a031916815260200191505b509350505050600060405180830381600087803b15801561538857600080fd5b505af115801561539c573d6000803e3d6000fd5b5050505050505050565b8373ffffffffffffffffffffffffffffffffffffffff16636e899550838560405160200180807f70726f6a6563742e70656e64696e6754696d656c696e652e6d696c6573746f6e81526020017f65732e6465736372697074696f6e000000000000000000000000000000000000815250602e01838152602001828152602001925050506040516020818303038152906040526040518082805190602001908083835b60208310151561546d5780518252602082019150602081019050602083039250615448565b6001836020036101000a0380198251168184511680821785525050505050509050019150506040518091039020836040518363ffffffff167c010000000000000000000000000000000000000000000000000000000002815260040180836000191660001916815260200180602001828103825283818151815260200191508051906020019080838360005b838110156155145780820151818401526020810190506154f9565b50505050905090810190601f1680156155415780820380516001836020036101000a031916815260200191505b509350505050600060405180830381600087803b15801561556157600080fd5b505af1158015615575573d6000803e3d6000fd5b5050505050505050565b8373ffffffffffffffffffffffffffffffffffffffff1663e2a4853a838560405160200180807f70726f6a6563742e70656e64696e6754696d656c696e652e6d696c6573746f6e81526020017f65732e70657263656e7461676500000000000000000000000000000000000000815250602d01838152602001828152602001925050506040516020818303038152906040526040518082805190602001908083835b6020831015156156465780518252602082019150602081019050602083039250615621565b6001836020036101000a0380198251168184511680821785525050505050509050019150506040518091039020836040518363ffffffff167c010000000000000000000000000000000000000000000000000000000002815260040180836000191660001916815260200182815260200192505050600060405180830381600087803b1580156156d557600080fd5b505af11580156156e9573d6000803e3d6000fd5b5050505050505050565b8373ffffffffffffffffffffffffffffffffffffffff1663abfdcced838560405160200180807f70726f6a6563742e70656e64696e6754696d656c696e652e6d696c6573746f6e81526020017f65732e6973436f6d706c65746500000000000000000000000000000000000000815250602d01838152602001828152602001925050506040516020818303038152906040526040518082805190602001908083835b6020831015156157ba5780518252602082019150602081019050602083039250615795565b6001836020036101000a0380198251168184511680821785525050505050509050019150506040518091039020836040518363ffffffff167c01000000000000000000000000000000000000000000000000000000000281526004018083600019166000191681526020018215151515815260200192505050600060405180830381600087803b15801561584d57600080fd5b505af1158015615861573d6000803e3d6000fd5b5050505050505050565b60806040519081016040528060608152602001606081526020016000815260200160001515815250905600a165627a7a72305820c819614c90668221311f2a06916f09c8f716356025c2d007d4bac7bac79926140029",
  "source": "pragma solidity ^0.4.24;\n\nimport \"../FundingStorage.sol\";\nimport \"./ProjectBase.sol\";\n\ncontract ProjectTimeline is ProjectBase {\n\n    constructor(address _fundingStorage) public {\n        fundingStorage = _fundingStorage;\n    }\n\n    function addMilestone(\n        uint _projectId,\n        string _title,\n        string _description,\n        uint _percentage\n    )\n        external\n        onlyProjectDeveloper(_projectId)\n    {\n        require(_percentage <= 100, \"Milestone percentage cannot be greater than 100.\");\n        require(!fundingStorage.getProjectNoTimeline(_projectId), \"Cannot add a milestone to a project with no timeline.\");\n        require(!fundingStorage.getTimelineProposalIsActive(_projectId), \"Pending milestones cannot be added while a timeline proposal vote is active.\");\n\n        fundingStorage.pushPendingTimelineMilestone(_projectId, _title, _description, _percentage, false);\n    }\n\n    function editMilestone(\n        uint _projectId,\n        uint _index,\n        string _title,\n        string _description,\n        uint _percentage\n    )\n        external\n        onlyProjectDeveloper(_projectId)\n    {\n        require(_percentage <= 100, \"Milestone percentage cannot be greater than 100.\");\n        require(!fundingStorage.getTimelineProposalIsActive(_projectId), \"Pending milestones cannot be edited while a timeline proposal vote is active.\");\n        require(!fundingStorage.getPendingTimelineMilestoneIsComplete(_projectId, _index), \"Cannot edit a completed milestone.\");\n\n        fundingStorage.setPendingTimelineMilestone(_projectId, _index, _title, _description, _percentage, false);\n    }\n\n    function getPendingTimelineLength(uint _projectId) external view returns (uint length) {\n        length = fundingStorage.getPendingTimelineLength(_projectId);\n        return length;\n    }\n\n    function getPendingTimelineMilestone(uint _projectId, uint _index) external view returns (string title, string description, uint percentage, bool isComplete) {\n        ProjectStorageAccess.Milestone memory milestone = fundingStorage.getPendingTimelineMilestone(_projectId, _index);\n\n        return (milestone.title, milestone.description, milestone.percentage, milestone.isComplete);\n    }\n\n    function getTimelineLength(uint _projectId) external view returns (uint length) {\n        length = fundingStorage.getTimelineLength(_projectId);\n        return length;\n    }\n\n    function getTimelineMilestone(uint _projectId, uint _index) external view returns (string title, string description, uint percentage, bool isComplete) {\n        ProjectStorageAccess.Milestone memory milestone = fundingStorage.getTimelineMilestone(_projectId, _index);\n\n        return (milestone.title, milestone.description, milestone.percentage, milestone.isComplete);\n    }\n\n    function getTimelineHistoryLength(uint _projectId) external view returns (uint length) {\n        length = fundingStorage.getTimelineHistoryLength(_projectId);\n        return length;\n    }\n\n    function getTimelineHistoryLength(uint _projectId, uint _historyIndex) external view returns (uint length) {\n        length = fundingStorage.getTimelineHistoryMilestonesLength(_projectId, _historyIndex);\n        return length;\n    }\n\n    function getTimelineHistoryMilestone(uint _projectId, uint _timelineIndex, uint _milestoneIndex) external view returns (string title, string description, uint percentage, bool isComplete) {\n        ProjectStorageAccess.Milestone memory milestone = fundingStorage.getTimelineHistoryMilestone(_projectId, _timelineIndex, _milestoneIndex);\n\n        return (milestone.title, milestone.description, milestone.percentage, milestone.isComplete);\n    }\n\n    function clearPendingTimeline(uint _projectId) external onlyProjectDeveloper(_projectId) {\n        // There must not be an active timeline proposal\n        require(!fundingStorage.getTimelineProposalIsActive(_projectId), \"A timeline proposal vote is active.\");\n\n        fundingStorage.setPendingTimelineLength(_projectId, 0);\n\n        uint completedMilestonesLength = fundingStorage.getCompletedMilestonesLength(_projectId);\n\n        for (uint i = 0; i < completedMilestonesLength; i++) {\n            ProjectStorageAccess.Milestone memory completedMilestone = fundingStorage.getCompletedMilestone(_projectId, i);\n            fundingStorage.setPendingTimelineMilestone(\n                _projectId,\n                i,\n                completedMilestone.title,\n                completedMilestone.description,\n                completedMilestone.percentage,\n                completedMilestone.isComplete\n            );\n        }\n\n        Status status = Status(fundingStorage.getProjectStatus(_projectId));\n\n        if (status == Status.Published) {\n            uint activeMilestoneIndex = fundingStorage.getActiveMilestoneIndex(_projectId);\n\n            ProjectStorageAccess.Milestone memory activeMilestone = fundingStorage.getTimelineMilestone(_projectId, activeMilestoneIndex);\n            fundingStorage.setPendingTimelineMilestone(\n                _projectId,\n                completedMilestonesLength,\n                activeMilestone.title,\n                activeMilestone.description,\n                activeMilestone.percentage,\n                activeMilestone.isComplete\n            );\n\n            fundingStorage.setPendingTimelineLength(_projectId, completedMilestonesLength + 1);\n        }\n    }\n}\n",
  "sourcePath": "/ude/hb/projects/funding-protocol/smart-contracts/ethereum/contracts/project/ProjectTimeline.sol",
  "compiler": {
    "name": "solc",
    "version": "0.4.24+commit.e67f0147.Emscripten.clang"
  },
  "schemaVersion": "2.0.0",
  "updatedAt": "2018-07-21T05:29:00.625Z"
}