{
  "contractName": "ProjectContributionTierHelpersLibrary",
  "abi": [
    {
      "constant": false,
      "inputs": [
        {
          "name": "_fundingStorage",
          "type": "address"
        },
        {
          "name": "_projectId",
          "type": "uint256"
        }
      ],
      "name": "movePendingContributionTiersIntoActiveContributionTiers",
      "outputs": [],
      "payable": false,
      "stateMutability": "nonpayable",
      "type": "function"
    }
  ],
  "bytecode": "0x6115af610030600b82828239805160001a6073146000811461002057610022565bfe5b5030600052607381538281f3007300000000000000000000000000000000000000003014608060405260043610610058576000357c0100000000000000000000000000000000000000000000000000000000900463ffffffff1680636237c6361461005d575b600080fd5b81801561006957600080fd5b506100a8600480360381019080803573ffffffffffffffffffffffffffffffffffffffff169060200190929190803590602001909291905050506100aa565b005b6000806100b561155a565b6100de848673ffffffffffffffffffffffffffffffffffffffff166101c890919063ffffffff16565b9250600091505b8282101561016a5761011884838773ffffffffffffffffffffffffffffffffffffffff166103539092919063ffffffff16565b905061015d848383600001518460200151856040015186606001518b73ffffffffffffffffffffffffffffffffffffffff16610c3c909695949392919063ffffffff16565b81806001019250506100e5565b61019584848773ffffffffffffffffffffffffffffffffffffffff16610c759092919063ffffffff16565b6101c18460008773ffffffffffffffffffffffffffffffffffffffff16610dba9092919063ffffffff16565b5050505050565b60008273ffffffffffffffffffffffffffffffffffffffff1663bd02d0f58360405160200180807f70726f6a6563742e70656e64696e67436f6e747269627574696f6e546965727381526020017f2e6c656e677468000000000000000000000000000000000000000000000000008152506027018281526020019150506040516020818303038152906040526040518082805190602001908083835b6020831015156102895780518252602082019150602081019050602083039250610264565b6001836020036101000a03801982511681845116808217855250505050505090500191505060405180910390206040518263ffffffff167c0100000000000000000000000000000000000000000000000000000000028152600401808260001916600019168152602001915050602060405180830381600087803b15801561031057600080fd5b505af1158015610324573d6000803e3d6000fd5b505050506040513d602081101561033a57600080fd5b8101908080519060200190929190505050905092915050565b61035b61155a565b6000806000606061036a61155a565b8873ffffffffffffffffffffffffffffffffffffffff1663bd02d0f58960405160200180807f70726f6a6563742e70656e64696e67436f6e747269627574696f6e546965727381526020017f2e6c656e677468000000000000000000000000000000000000000000000000008152506027018281526020019150506040516020818303038152906040526040518082805190602001908083835b6020831015156104295780518252602082019150602081019050602083039250610404565b6001836020036101000a03801982511681845116808217855250505050505090500191505060405180910390206040518263ffffffff167c0100000000000000000000000000000000000000000000000000000000028152600401808260001916600019168152602001915050602060405180830381600087803b1580156104b057600080fd5b505af11580156104c4573d6000803e3d6000fd5b505050506040513d60208110156104da57600080fd5b810190808051906020019092919050505087101515610587576040517f08c379a00000000000000000000000000000000000000000000000000000000081526004018080602001828103825260258152602001807f496e646578206973206f757473696465206f662061636365737369626c65207281526020017f616e67652e00000000000000000000000000000000000000000000000000000081525060400191505060405180910390fd5b8873ffffffffffffffffffffffffffffffffffffffff1663bd02d0f5888a60405160200180807f70726f6a6563742e70656e64696e67436f6e747269627574696f6e546965727381526020017f2e636f6e7472696275746f724c696d6974000000000000000000000000000000815250603101838152602001828152602001925050506040516020818303038152906040526040518082805190602001908083835b60208310151561064e5780518252602082019150602081019050602083039250610629565b6001836020036101000a03801982511681845116808217855250505050505090500191505060405180910390206040518263ffffffff167c0100000000000000000000000000000000000000000000000000000000028152600401808260001916600019168152602001915050602060405180830381600087803b1580156106d557600080fd5b505af11580156106e9573d6000803e3d6000fd5b505050506040513d60208110156106ff57600080fd5b810190808051906020019092919050505094508873ffffffffffffffffffffffffffffffffffffffff1663bd02d0f5888a60405160200180807f70726f6a6563742e70656e64696e67436f6e747269627574696f6e546965727381526020017f2e6d696e436f6e747269627574696f6e00000000000000000000000000000000815250603001838152602001828152602001925050506040516020818303038152906040526040518082805190602001908083835b6020831015156107d957805182526020820191506020810190506020830392506107b4565b6001836020036101000a03801982511681845116808217855250505050505090500191505060405180910390206040518263ffffffff167c0100000000000000000000000000000000000000000000000000000000028152600401808260001916600019168152602001915050602060405180830381600087803b15801561086057600080fd5b505af1158015610874573d6000803e3d6000fd5b505050506040513d602081101561088a57600080fd5b810190808051906020019092919050505093508873ffffffffffffffffffffffffffffffffffffffff1663bd02d0f5888a60405160200180807f70726f6a6563742e70656e64696e67436f6e747269627574696f6e546965727381526020017f2e6d6178436f6e747269627574696f6e00000000000000000000000000000000815250603001838152602001828152602001925050506040516020818303038152906040526040518082805190602001908083835b602083101515610964578051825260208201915060208101905060208303925061093f565b6001836020036101000a03801982511681845116808217855250505050505090500191505060405180910390206040518263ffffffff167c0100000000000000000000000000000000000000000000000000000000028152600401808260001916600019168152602001915050602060405180830381600087803b1580156109eb57600080fd5b505af11580156109ff573d6000803e3d6000fd5b505050506040513d6020811015610a1557600080fd5b810190808051906020019092919050505092508873ffffffffffffffffffffffffffffffffffffffff1663986e791a888a60405160200180807f70726f6a6563742e70656e64696e67436f6e747269627574696f6e546965727381526020017f2e72657761726473000000000000000000000000000000000000000000000000815250602801838152602001828152602001925050506040516020818303038152906040526040518082805190602001908083835b602083101515610aef5780518252602082019150602081019050602083039250610aca565b6001836020036101000a03801982511681845116808217855250505050505090500191505060405180910390206040518263ffffffff167c0100000000000000000000000000000000000000000000000000000000028152600401808260001916600019168152602001915050600060405180830381600087803b158015610b7657600080fd5b505af1158015610b8a573d6000803e3d6000fd5b505050506040513d6000823e3d601f19601f820116820180604052506020811015610bb457600080fd5b810190808051640100000000811115610bcc57600080fd5b82810190506020810184811115610be257600080fd5b8151856001820283011164010000000082111715610bff57600080fd5b5050929190505050915060806040519081016040528086815260200185815260200184815260200183815250905080955050505050509392505050565b610c4887878787610f25565b610c5487878786611099565b610c608787878561120d565b610c6c87878784611381565b50505050505050565b8273ffffffffffffffffffffffffffffffffffffffff1663e2a4853a8360405160200180807f70726f6a6563742e636f6e747269627574696f6e54696572732e6c656e6774688152506020018281526020019150506040516020818303038152906040526040518082805190602001908083835b602083101515610d0e5780518252602082019150602081019050602083039250610ce9565b6001836020036101000a0380198251168184511680821785525050505050509050019150506040518091039020836040518363ffffffff167c010000000000000000000000000000000000000000000000000000000002815260040180836000191660001916815260200182815260200192505050600060405180830381600087803b158015610d9d57600080fd5b505af1158015610db1573d6000803e3d6000fd5b50505050505050565b8273ffffffffffffffffffffffffffffffffffffffff1663e2a4853a8360405160200180807f70726f6a6563742e70656e64696e67436f6e747269627574696f6e546965727381526020017f2e6c656e677468000000000000000000000000000000000000000000000000008152506027018281526020019150506040516020818303038152906040526040518082805190602001908083835b602083101515610e795780518252602082019150602081019050602083039250610e54565b6001836020036101000a0380198251168184511680821785525050505050509050019150506040518091039020836040518363ffffffff167c010000000000000000000000000000000000000000000000000000000002815260040180836000191660001916815260200182815260200192505050600060405180830381600087803b158015610f0857600080fd5b505af1158015610f1c573d6000803e3d6000fd5b50505050505050565b8373ffffffffffffffffffffffffffffffffffffffff1663e2a4853a838560405160200180807f70726f6a6563742e636f6e747269627574696f6e54696572732e636f6e74726981526020017f6275746f724c696d697400000000000000000000000000000000000000000000815250602a01838152602001828152602001925050506040516020818303038152906040526040518082805190602001908083835b602083101515610fec5780518252602082019150602081019050602083039250610fc7565b6001836020036101000a0380198251168184511680821785525050505050509050019150506040518091039020836040518363ffffffff167c010000000000000000000000000000000000000000000000000000000002815260040180836000191660001916815260200182815260200192505050600060405180830381600087803b15801561107b57600080fd5b505af115801561108f573d6000803e3d6000fd5b5050505050505050565b8373ffffffffffffffffffffffffffffffffffffffff1663e2a4853a838560405160200180807f70726f6a6563742e636f6e747269627574696f6e54696572732e6d6178436f6e81526020017f747269627574696f6e0000000000000000000000000000000000000000000000815250602901838152602001828152602001925050506040516020818303038152906040526040518082805190602001908083835b602083101515611160578051825260208201915060208101905060208303925061113b565b6001836020036101000a0380198251168184511680821785525050505050509050019150506040518091039020836040518363ffffffff167c010000000000000000000000000000000000000000000000000000000002815260040180836000191660001916815260200182815260200192505050600060405180830381600087803b1580156111ef57600080fd5b505af1158015611203573d6000803e3d6000fd5b5050505050505050565b8373ffffffffffffffffffffffffffffffffffffffff1663e2a4853a838560405160200180807f70726f6a6563742e636f6e747269627574696f6e54696572732e6d696e436f6e81526020017f747269627574696f6e0000000000000000000000000000000000000000000000815250602901838152602001828152602001925050506040516020818303038152906040526040518082805190602001908083835b6020831015156112d457805182526020820191506020810190506020830392506112af565b6001836020036101000a0380198251168184511680821785525050505050509050019150506040518091039020836040518363ffffffff167c010000000000000000000000000000000000000000000000000000000002815260040180836000191660001916815260200182815260200192505050600060405180830381600087803b15801561136357600080fd5b505af1158015611377573d6000803e3d6000fd5b5050505050505050565b8373ffffffffffffffffffffffffffffffffffffffff16636e899550838560405160200180807f70726f6a6563742e636f6e747269627574696f6e54696572732e72657761726481526020017f7300000000000000000000000000000000000000000000000000000000000000815250602101838152602001828152602001925050506040516020818303038152906040526040518082805190602001908083835b6020831015156114485780518252602082019150602081019050602083039250611423565b6001836020036101000a0380198251168184511680821785525050505050509050019150506040518091039020836040518363ffffffff167c010000000000000000000000000000000000000000000000000000000002815260040180836000191660001916815260200180602001828103825283818151815260200191508051906020019080838360005b838110156114ef5780820151818401526020810190506114d4565b50505050905090810190601f16801561151c5780820380516001836020036101000a031916815260200191505b509350505050600060405180830381600087803b15801561153c57600080fd5b505af1158015611550573d6000803e3d6000fd5b5050505050505050565b6080604051908101604052806000815260200160008152602001600081526020016060815250905600a165627a7a72305820925faffc9adaeb49b5c5c0c341cf0639ebb8f1339381964c0d22fe37a79f4a1f0029",
  "source": "pragma solidity ^0.4.24;\n\nimport \"./storage/ProjectStorageAccess.sol\";\nimport \"./storage/ContributionStorageAccess.sol\";\n\nlibrary ProjectContributionTierHelpersLibrary {\n\n    using ProjectStorageAccess for address;\n    using ContributionStorageAccess for address;\n\n    function movePendingContributionTiersIntoActiveContributionTiers(address _fundingStorage, uint _projectId) external {\n        uint length = _fundingStorage.getPendingContributionTiersLength(_projectId);\n\n        for (uint i = 0; i < length; i++) {\n            ProjectStorageAccess.ContributionTier memory tier = _fundingStorage.getPendingContributionTier(_projectId, i);\n\n            _fundingStorage.setContributionTier(_projectId, i, tier.contributorLimit, tier.minContribution, tier.maxContribution, tier.rewards);\n        }\n\n        _fundingStorage.setContributionTiersLength(_projectId, length);\n        _fundingStorage.setPendingContributionTiersLength(_projectId, 0);\n    }\n}\n",
  "sourcePath": "/home/jordan/Projects/hyperbridge/funding-protocol/smart-contracts/ethereum/contracts/libraries/ProjectContributionTierHelpersLibrary.sol",
  "compiler": {
    "name": "solc",
    "version": "0.4.24+commit.e67f0147.Emscripten.clang"
  },
  "schemaVersion": "2.0.1",
  "updatedAt": "2018-07-26T16:56:23.250Z"
}