{
  "contractName": "ProjectRegistrationHelpersLibrary",
  "abi": [
    {
      "constant": false,
      "inputs": [
        {
          "name": "_fundingStorage",
          "type": "address"
        },
        {
          "name": "_projectId",
          "type": "uint256"
        },
        {
          "name": "_status",
          "type": "uint256"
        },
        {
          "name": "_title",
          "type": "string"
        },
        {
          "name": "_description",
          "type": "string"
        },
        {
          "name": "_about",
          "type": "string"
        },
        {
          "name": "_developer",
          "type": "address"
        },
        {
          "name": "_developerId",
          "type": "uint256"
        }
      ],
      "name": "setProjectInfo",
      "outputs": [],
      "payable": false,
      "stateMutability": "nonpayable",
      "type": "function"
    },
    {
      "constant": false,
      "inputs": [
        {
          "name": "_fundingStorage",
          "type": "address"
        },
        {
          "name": "_projectId",
          "type": "uint256"
        },
        {
          "name": "_minGoal",
          "type": "uint256"
        },
        {
          "name": "_maxGoal",
          "type": "uint256"
        },
        {
          "name": "_contributionPeriod",
          "type": "uint256"
        }
      ],
      "name": "setProjectContributionGoals",
      "outputs": [],
      "payable": false,
      "stateMutability": "nonpayable",
      "type": "function"
    },
    {
      "constant": false,
      "inputs": [
        {
          "name": "_fundingStorage",
          "type": "address"
        },
        {
          "name": "_projectId",
          "type": "uint256"
        },
        {
          "name": "_noRefunds",
          "type": "bool"
        },
        {
          "name": "_noTimeline",
          "type": "bool"
        }
      ],
      "name": "setProjectTerms",
      "outputs": [],
      "payable": false,
      "stateMutability": "nonpayable",
      "type": "function"
    }
  ],
  "bytecode": "0x61141b610030600b82828239805160001a6073146000811461002057610022565bfe5b5030600052607381538281f300730000000000000000000000000000000000000000301460806040526004361061006e576000357c0100000000000000000000000000000000000000000000000000000000900463ffffffff1680632edde14d146100735780637bb7097f146100d85780637c0c2c97146101a1575b600080fd5b81801561007f57600080fd5b506100d6600480360381019080803573ffffffffffffffffffffffffffffffffffffffff1690602001909291908035906020019092919080351515906020019092919080351515906020019092919050505061020c565b005b8180156100e457600080fd5b5061019f600480360381019080803573ffffffffffffffffffffffffffffffffffffffff1690602001909291908035906020019092919080359060200190929190803590602001908201803590602001919091929391929390803590602001908201803590602001919091929391929390803590602001908201803590602001919091929391929390803573ffffffffffffffffffffffffffffffffffffffff16906020019092919080359060200190929190505050610268565b005b8180156101ad57600080fd5b5061020a600480360381019080803573ffffffffffffffffffffffffffffffffffffffff1690602001909291908035906020019092919080359060200190929190803590602001909291908035906020019092919050505061040d565b005b61023783838673ffffffffffffffffffffffffffffffffffffffff166104959092919063ffffffff16565b61026283828673ffffffffffffffffffffffffffffffffffffffff166105de9092919063ffffffff16565b50505050565b6102938a8a8d73ffffffffffffffffffffffffffffffffffffffff166107279092919063ffffffff16565b6102f08a89898080601f0160208091040260200160405190810160405280939291908181526020018383808284378201915050505050508d73ffffffffffffffffffffffffffffffffffffffff1661086c9092919063ffffffff16565b61034d8a87878080601f0160208091040260200160405190810160405280939291908181526020018383808284378201915050505050508d73ffffffffffffffffffffffffffffffffffffffff16610a169092919063ffffffff16565b6103aa8a85858080601f0160208091040260200160405190810160405280939291908181526020018383808284378201915050505050508d73ffffffffffffffffffffffffffffffffffffffff16610bc09092919063ffffffff16565b6103d58a838d73ffffffffffffffffffffffffffffffffffffffff16610d6a9092919063ffffffff16565b6104008a828d73ffffffffffffffffffffffffffffffffffffffff16610edb9092919063ffffffff16565b5050505050505050505050565b61043884848773ffffffffffffffffffffffffffffffffffffffff166110209092919063ffffffff16565b61046384838773ffffffffffffffffffffffffffffffffffffffff166111659092919063ffffffff16565b61048e84828773ffffffffffffffffffffffffffffffffffffffff166112aa9092919063ffffffff16565b5050505050565b8273ffffffffffffffffffffffffffffffffffffffff1663abfdcced8360405160200180807f70726f6a6563742e6e6f526566756e64730000000000000000000000000000008152506011018281526020019150506040516020818303038152906040526040518082805190602001908083835b60208310151561052e5780518252602082019150602081019050602083039250610509565b6001836020036101000a0380198251168184511680821785525050505050509050019150506040518091039020836040518363ffffffff167c01000000000000000000000000000000000000000000000000000000000281526004018083600019166000191681526020018215151515815260200192505050600060405180830381600087803b1580156105c157600080fd5b505af11580156105d5573d6000803e3d6000fd5b50505050505050565b8273ffffffffffffffffffffffffffffffffffffffff1663abfdcced8360405160200180807f70726f6a6563742e6e6f54696d656c696e6500000000000000000000000000008152506012018281526020019150506040516020818303038152906040526040518082805190602001908083835b6020831015156106775780518252602082019150602081019050602083039250610652565b6001836020036101000a0380198251168184511680821785525050505050509050019150506040518091039020836040518363ffffffff167c01000000000000000000000000000000000000000000000000000000000281526004018083600019166000191681526020018215151515815260200192505050600060405180830381600087803b15801561070a57600080fd5b505af115801561071e573d6000803e3d6000fd5b50505050505050565b8273ffffffffffffffffffffffffffffffffffffffff1663e2a4853a8360405160200180807f70726f6a6563742e737461747573000000000000000000000000000000000000815250600e018281526020019150506040516020818303038152906040526040518082805190602001908083835b6020831015156107c0578051825260208201915060208101905060208303925061079b565b6001836020036101000a0380198251168184511680821785525050505050509050019150506040518091039020836040518363ffffffff167c010000000000000000000000000000000000000000000000000000000002815260040180836000191660001916815260200182815260200192505050600060405180830381600087803b15801561084f57600080fd5b505af1158015610863573d6000803e3d6000fd5b50505050505050565b8273ffffffffffffffffffffffffffffffffffffffff16636e8995508360405160200180807f70726f6a6563742e7469746c6500000000000000000000000000000000000000815250600d018281526020019150506040516020818303038152906040526040518082805190602001908083835b60208310151561090557805182526020820191506020810190506020830392506108e0565b6001836020036101000a0380198251168184511680821785525050505050509050019150506040518091039020836040518363ffffffff167c010000000000000000000000000000000000000000000000000000000002815260040180836000191660001916815260200180602001828103825283818151815260200191508051906020019080838360005b838110156109ac578082015181840152602081019050610991565b50505050905090810190601f1680156109d95780820380516001836020036101000a031916815260200191505b509350505050600060405180830381600087803b1580156109f957600080fd5b505af1158015610a0d573d6000803e3d6000fd5b50505050505050565b8273ffffffffffffffffffffffffffffffffffffffff16636e8995508360405160200180807f70726f6a6563742e6465736372697074696f6e000000000000000000000000008152506013018281526020019150506040516020818303038152906040526040518082805190602001908083835b602083101515610aaf5780518252602082019150602081019050602083039250610a8a565b6001836020036101000a0380198251168184511680821785525050505050509050019150506040518091039020836040518363ffffffff167c010000000000000000000000000000000000000000000000000000000002815260040180836000191660001916815260200180602001828103825283818151815260200191508051906020019080838360005b83811015610b56578082015181840152602081019050610b3b565b50505050905090810190601f168015610b835780820380516001836020036101000a031916815260200191505b509350505050600060405180830381600087803b158015610ba357600080fd5b505af1158015610bb7573d6000803e3d6000fd5b50505050505050565b8273ffffffffffffffffffffffffffffffffffffffff16636e8995508360405160200180807f70726f6a6563742e61626f757400000000000000000000000000000000000000815250600d018281526020019150506040516020818303038152906040526040518082805190602001908083835b602083101515610c595780518252602082019150602081019050602083039250610c34565b6001836020036101000a0380198251168184511680821785525050505050509050019150506040518091039020836040518363ffffffff167c010000000000000000000000000000000000000000000000000000000002815260040180836000191660001916815260200180602001828103825283818151815260200191508051906020019080838360005b83811015610d00578082015181840152602081019050610ce5565b50505050905090810190601f168015610d2d5780820380516001836020036101000a031916815260200191505b509350505050600060405180830381600087803b158015610d4d57600080fd5b505af1158015610d61573d6000803e3d6000fd5b50505050505050565b8273ffffffffffffffffffffffffffffffffffffffff1663ca446dd98360405160200180807f70726f6a6563742e646576656c6f7065720000000000000000000000000000008152506011018281526020019150506040516020818303038152906040526040518082805190602001908083835b602083101515610e035780518252602082019150602081019050602083039250610dde565b6001836020036101000a0380198251168184511680821785525050505050509050019150506040518091039020836040518363ffffffff167c01000000000000000000000000000000000000000000000000000000000281526004018083600019166000191681526020018273ffffffffffffffffffffffffffffffffffffffff1673ffffffffffffffffffffffffffffffffffffffff16815260200192505050600060405180830381600087803b158015610ebe57600080fd5b505af1158015610ed2573d6000803e3d6000fd5b50505050505050565b8273ffffffffffffffffffffffffffffffffffffffff1663e2a4853a8360405160200180807f70726f6a6563742e646576656c6f7065724964000000000000000000000000008152506013018281526020019150506040516020818303038152906040526040518082805190602001908083835b602083101515610f745780518252602082019150602081019050602083039250610f4f565b6001836020036101000a0380198251168184511680821785525050505050509050019150506040518091039020836040518363ffffffff167c010000000000000000000000000000000000000000000000000000000002815260040180836000191660001916815260200182815260200192505050600060405180830381600087803b15801561100357600080fd5b505af1158015611017573d6000803e3d6000fd5b50505050505050565b8273ffffffffffffffffffffffffffffffffffffffff1663e2a4853a8360405160200180807f70726f6a6563742e6d696e436f6e747269627574696f6e476f616c0000000000815250601b018281526020019150506040516020818303038152906040526040518082805190602001908083835b6020831015156110b95780518252602082019150602081019050602083039250611094565b6001836020036101000a0380198251168184511680821785525050505050509050019150506040518091039020836040518363ffffffff167c010000000000000000000000000000000000000000000000000000000002815260040180836000191660001916815260200182815260200192505050600060405180830381600087803b15801561114857600080fd5b505af115801561115c573d6000803e3d6000fd5b50505050505050565b8273ffffffffffffffffffffffffffffffffffffffff1663e2a4853a8360405160200180807f70726f6a6563742e6d6178436f6e747269627574696f6e476f616c0000000000815250601b018281526020019150506040516020818303038152906040526040518082805190602001908083835b6020831015156111fe57805182526020820191506020810190506020830392506111d9565b6001836020036101000a0380198251168184511680821785525050505050509050019150506040518091039020836040518363ffffffff167c010000000000000000000000000000000000000000000000000000000002815260040180836000191660001916815260200182815260200192505050600060405180830381600087803b15801561128d57600080fd5b505af11580156112a1573d6000803e3d6000fd5b50505050505050565b8273ffffffffffffffffffffffffffffffffffffffff1663e2a4853a8360405160200180807f70726f6a6563742e636f6e747269627574696f6e506572696f64000000000000815250601a018281526020019150506040516020818303038152906040526040518082805190602001908083835b602083101515611343578051825260208201915060208101905060208303925061131e565b6001836020036101000a0380198251168184511680821785525050505050509050019150506040518091039020836040518363ffffffff167c010000000000000000000000000000000000000000000000000000000002815260040180836000191660001916815260200182815260200192505050600060405180830381600087803b1580156113d257600080fd5b505af11580156113e6573d6000803e3d6000fd5b505050505050505600a165627a7a72305820dcf007e1cea77d4e83ec063971bf9843e43e9d31c976dbdcef408c94e55350940029",
  "source": "pragma solidity ^0.4.24;\n\nimport \"./storage/ProjectStorageAccess.sol\";\n\nlibrary ProjectRegistrationHelpersLibrary {\n\n    using ProjectStorageAccess for address;\n\n    function setProjectInfo(address _fundingStorage, uint _projectId, uint _status, string _title, string _description, string _about, address _developer, uint _developerId) external {\n        _fundingStorage.setProjectStatus(_projectId, _status);\n        _fundingStorage.setProjectTitle(_projectId, _title);\n        _fundingStorage.setProjectDescription(_projectId, _description);\n        _fundingStorage.setProjectAbout(_projectId, _about);\n        _fundingStorage.setProjectDeveloper(_projectId, _developer);\n        _fundingStorage.setProjectDeveloperId(_projectId, _developerId);\n    }\n\n    function setProjectContributionGoals(address _fundingStorage, uint _projectId, uint _minGoal, uint _maxGoal, uint _contributionPeriod) external {\n        _fundingStorage.setProjectMinContributionGoal(_projectId, _minGoal);\n        _fundingStorage.setProjectMaxContributionGoal(_projectId, _maxGoal);\n        _fundingStorage.setProjectContributionPeriod(_projectId, _contributionPeriod);\n    }\n\n    function setProjectTerms(address _fundingStorage, uint _projectId, bool _noRefunds, bool _noTimeline) external {\n        _fundingStorage.setProjectNoRefunds(_projectId, _noRefunds);\n        _fundingStorage.setProjectNoTimeline(_projectId, _noTimeline);\n    }\n}\n",
  "sourcePath": "/home/jordan/Projects/hyperbridge/funding-protocol/smart-contracts/ethereum/contracts/libraries/ProjectRegistrationHelpersLibrary.sol",
  "compiler": {
    "name": "solc",
    "version": "0.4.24+commit.e67f0147.Emscripten.clang"
  },
  "schemaVersion": "2.0.1",
  "updatedAt": "2018-07-26T16:56:23.254Z"
}