{
  "contractName": "ProjectMilestoneCompletionVoting",
  "abi": [
    {
      "constant": false,
      "inputs": [
        {
          "name": "_time",
          "type": "uint256"
        }
      ],
      "name": "setTestTime",
      "outputs": [],
      "payable": false,
      "stateMutability": "nonpayable",
      "type": "function"
    },
    {
      "inputs": [
        {
          "name": "_fundingStorage",
          "type": "address"
        },
        {
          "name": "_inTest",
          "type": "bool"
        }
      ],
      "payable": false,
      "stateMutability": "nonpayable",
      "type": "constructor"
    },
    {
      "constant": false,
      "inputs": [
        {
          "name": "_projectId",
          "type": "uint256"
        },
        {
          "name": "_approved",
          "type": "bool"
        }
      ],
      "name": "vote",
      "outputs": [],
      "payable": false,
      "stateMutability": "nonpayable",
      "type": "function"
    },
    {
      "constant": false,
      "inputs": [
        {
          "name": "_projectId",
          "type": "uint256"
        }
      ],
      "name": "finalizeVoting",
      "outputs": [],
      "payable": false,
      "stateMutability": "nonpayable",
      "type": "function"
    }
  ],
  "bytecode": "0x608060405234801561001057600080fd5b50604051604080615157833981018060405281019080805190602001909291908051906020019092919050505080806000806101000a81548160ff0219169083151502179055505081600260006101000a81548173ffffffffffffffffffffffffffffffffffffffff021916908373ffffffffffffffffffffffffffffffffffffffff16021790555050506150ad806100aa6000396000f300608060405260043610610057576000357c0100000000000000000000000000000000000000000000000000000000900463ffffffff168063097c74061461005c5780634944483114610089578063c9d27afe146100b6575b600080fd5b34801561006857600080fd5b50610087600480360381019080803590602001909291905050506100ef565b005b34801561009557600080fd5b506100b460048036038101908080359060200190929190505050610113565b005b3480156100c257600080fd5b506100ed60048036038101908080359060200190929190803515159060200190929190505050610422565b005b6000809054906101000a900460ff16151561010957600080fd5b8060018190555050565b8061015f81600260009054906101000a900473ffffffffffffffffffffffffffffffffffffffff1673ffffffffffffffffffffffffffffffffffffffff1661096690919063ffffffff16565b73ffffffffffffffffffffffffffffffffffffffff163373ffffffffffffffffffffffffffffffffffffffff16141515610227576040517f08c379a00000000000000000000000000000000000000000000000000000000081526004018080602001828103825260398152602001807f596f75206d757374206265207468652070726f6a65637420646576656c6f706581526020017f7220746f20706572666f726d207468697320616374696f6e2e0000000000000081525060400191505060405180910390fd5b61027282600260009054906101000a900473ffffffffffffffffffffffffffffffffffffffff1673ffffffffffffffffffffffffffffffffffffffff16610acb90919063ffffffff16565b151561030c576040517f08c379a00000000000000000000000000000000000000000000000000000000081526004018080602001828103825260278152602001807f4e6f20766f7465206f6e206d696c6573746f6e6520636f6d706c6574696f6e2081526020017f6163746976652e0000000000000000000000000000000000000000000000000081525060400191505060405180910390fd5b61031582610c56565b156103285761032382610ea5565b61041e565b610376826000600260009054906101000a900473ffffffffffffffffffffffffffffffffffffffff1673ffffffffffffffffffffffffffffffffffffffff166112f39092919063ffffffff16565b6103c4826001600260009054906101000a900473ffffffffffffffffffffffffffffffffffffffff1673ffffffffffffffffffffffffffffffffffffffff166114629092919063ffffffff16565b61041d82600560068111156103d557fe5b600260009054906101000a900473ffffffffffffffffffffffffffffffffffffffff1673ffffffffffffffffffffffffffffffffffffffff166115d19092919063ffffffff16565b5b5050565b60008083600061047333600260009054906101000a900473ffffffffffffffffffffffffffffffffffffffff1673ffffffffffffffffffffffffffffffffffffffff1661171690919063ffffffff16565b905060008114151515610514576040517f08c379a00000000000000000000000000000000000000000000000000000000081526004018080602001828103825260228152602001807f546869732061646472657373206973206e6f74206120636f6e7472696275746f81526020017f722e00000000000000000000000000000000000000000000000000000000000081525060400191505060405180910390fd5b6105618183600260009054906101000a900473ffffffffffffffffffffffffffffffffffffffff1673ffffffffffffffffffffffffffffffffffffffff166118b69092919063ffffffff16565b15156105fb576040517f08c379a00000000000000000000000000000000000000000000000000000000081526004018080602001828103825260328152602001807f546869732061646472657373206973206e6f74206120636f6e7472696275746f81526020017f7220746f20746869732070726f6a6563742e000000000000000000000000000081525060400191505060405180910390fd5b61064686600260009054906101000a900473ffffffffffffffffffffffffffffffffffffffff1673ffffffffffffffffffffffffffffffffffffffff16610acb90919063ffffffff16565b15156106e0576040517f08c379a00000000000000000000000000000000000000000000000000000000081526004018080602001828103825260278152602001807f4e6f20766f7465206f6e206d696c6573746f6e6520636f6d706c6574696f6e2081526020017f6163746976652e0000000000000000000000000000000000000000000000000081525060400191505060405180910390fd5b61072d8633600260009054906101000a900473ffffffffffffffffffffffffffffffffffffffff1673ffffffffffffffffffffffffffffffffffffffff16611a249092919063ffffffff16565b1515156107c8576040517f08c379a000000000000000000000000000000000000000000000000000000000815260040180806020018281038252602b8152602001807f5468697320636f6e7472696275746f7220616464726573732068617320616c7281526020017f6561647920766f7465642e00000000000000000000000000000000000000000081525060400191505060405180910390fd5b84156108705761081986600260009054906101000a900473ffffffffffffffffffffffffffffffffffffffff1673ffffffffffffffffffffffffffffffffffffffff16611bf390919063ffffffff16565b935061086b8660018601600260009054906101000a900473ffffffffffffffffffffffffffffffffffffffff1673ffffffffffffffffffffffffffffffffffffffff16611d7e9092919063ffffffff16565b61090e565b6108bb86600260009054906101000a900473ffffffffffffffffffffffffffffffffffffffff1673ffffffffffffffffffffffffffffffffffffffff16611ee990919063ffffffff16565b925061090d8660018501600260009054906101000a900473ffffffffffffffffffffffffffffffffffffffff1673ffffffffffffffffffffffffffffffffffffffff166120749092919063ffffffff16565b5b61095e86336001600260009054906101000a900473ffffffffffffffffffffffffffffffffffffffff1673ffffffffffffffffffffffffffffffffffffffff166121df909392919063ffffffff16565b505050505050565b60008273ffffffffffffffffffffffffffffffffffffffff166321f8a7218360405160200180807f70726f6a6563742e646576656c6f7065720000000000000000000000000000008152506011018281526020019150506040516020818303038152906040526040518082805190602001908083835b602083101515610a0157805182526020820191506020810190506020830392506109dc565b6001836020036101000a03801982511681845116808217855250505050505090500191505060405180910390206040518263ffffffff167c0100000000000000000000000000000000000000000000000000000000028152600401808260001916600019168152602001915050602060405180830381600087803b158015610a8857600080fd5b505af1158015610a9c573d6000803e3d6000fd5b505050506040513d6020811015610ab257600080fd5b8101908080519060200190929190505050905092915050565b60008273ffffffffffffffffffffffffffffffffffffffff16637ae1cfca8360405160200180807f70726f6a6563742e6d696c6573746f6e65436f6d706c6574696f6e5375626d6981526020017f7373696f6e2e6973416374697665000000000000000000000000000000000000815250602e018281526020019150506040516020818303038152906040526040518082805190602001908083835b602083101515610b8c5780518252602082019150602081019050602083039250610b67565b6001836020036101000a03801982511681845116808217855250505050505090500191505060405180910390206040518263ffffffff167c0100000000000000000000000000000000000000000000000000000000028152600401808260001916600019168152602001915050602060405180830381600087803b158015610c1357600080fd5b505af1158015610c27573d6000803e3d6000fd5b505050506040513d6020811015610c3d57600080fd5b8101908080519060200190929190505050905092915050565b6000806000806000806000610cac88600260009054906101000a900473ffffffffffffffffffffffffffffffffffffffff1673ffffffffffffffffffffffffffffffffffffffff1661239290919063ffffffff16565b9550610cf988600260009054906101000a900473ffffffffffffffffffffffffffffffffffffffff1673ffffffffffffffffffffffffffffffffffffffff16611bf390919063ffffffff16565b945062127500610d4a89600260009054906101000a900473ffffffffffffffffffffffffffffffffffffffff1673ffffffffffffffffffffffffffffffffffffffff1661251d90919063ffffffff16565b01610d536126a8565b101593506064604b8702811515610d6657fe5b04851180610d715750835b1515610e31576040517f08c379a000000000000000000000000000000000000000000000000000000000815260040180806020018281038252604a8152602001807f436f6e646974696f6e7320666f722066696e616c697a696e67206d696c65737481526020017f6f6e6520636f6d706c6574696f6e2068617665206e6f7420796574206265656e81526020017f2061636869657665642e0000000000000000000000000000000000000000000081525060600191505060405180910390fd5b610e7c88600260009054906101000a900473ffffffffffffffffffffffffffffffffffffffff1673ffffffffffffffffffffffffffffffffffffffff16611ee990919063ffffffff16565b925082850191506064604b8302811515610e9257fe5b0490508085119650505050505050919050565b6000610eaf615056565b610eb7615056565b610f0284600260009054906101000a900473ffffffffffffffffffffffffffffffffffffffff1673ffffffffffffffffffffffffffffffffffffffff166126cc90919063ffffffff16565b9250610f5484846001600260009054906101000a900473ffffffffffffffffffffffffffffffffffffffff1673ffffffffffffffffffffffffffffffffffffffff16612831909392919063ffffffff16565b610fa2846000600260009054906101000a900473ffffffffffffffffffffffffffffffffffffffff1673ffffffffffffffffffffffffffffffffffffffff166112f39092919063ffffffff16565b610fef8484600260009054906101000a900473ffffffffffffffffffffffffffffffffffffffff1673ffffffffffffffffffffffffffffffffffffffff166129a99092919063ffffffff16565b9150611054848360000151846020015185604001518660600151600260009054906101000a900473ffffffffffffffffffffffffffffffffffffffff1673ffffffffffffffffffffffffffffffffffffffff166132c39095949392919063ffffffff16565b600260009054906101000a900473ffffffffffffffffffffffffffffffffffffffff1673ffffffffffffffffffffffffffffffffffffffff1673__ProjectTimelineHelpersLibrary_________63c064263a9091866040518363ffffffff167c0100000000000000000000000000000000000000000000000000000000028152600401808373ffffffffffffffffffffffffffffffffffffffff1673ffffffffffffffffffffffffffffffffffffffff1681526020018281526020019250505060006040518083038186803b15801561112d57600080fd5b505af4158015611141573d6000803e3d6000fd5b50505050600161119285600260009054906101000a900473ffffffffffffffffffffffffffffffffffffffff1673ffffffffffffffffffffffffffffffffffffffff166132f790919063ffffffff16565b038310156112ed576111ed8484600101945084600260009054906101000a900473ffffffffffffffffffffffffffffffffffffffff1673ffffffffffffffffffffffffffffffffffffffff1661345c9092919063ffffffff16565b61123a8484600260009054906101000a900473ffffffffffffffffffffffffffffffffffffffff1673ffffffffffffffffffffffffffffffffffffffff166129a99092919063ffffffff16565b905061129f848260000151836020015184604001518560600151600260009054906101000a900473ffffffffffffffffffffffffffffffffffffffff1673ffffffffffffffffffffffffffffffffffffffff166135a19095949392919063ffffffff16565b6112ec8484600260009054906101000a900473ffffffffffffffffffffffffffffffffffffffff1673ffffffffffffffffffffffffffffffffffffffff166135d59092919063ffffffff16565b5b50505050565b8273ffffffffffffffffffffffffffffffffffffffff1663abfdcced8360405160200180807f70726f6a6563742e6d696c6573746f6e65436f6d706c6574696f6e5375626d6981526020017f7373696f6e2e6973416374697665000000000000000000000000000000000000815250602e018281526020019150506040516020818303038152906040526040518082805190602001908083835b6020831015156113b2578051825260208201915060208101905060208303925061138d565b6001836020036101000a0380198251168184511680821785525050505050509050019150506040518091039020836040518363ffffffff167c01000000000000000000000000000000000000000000000000000000000281526004018083600019166000191681526020018215151515815260200192505050600060405180830381600087803b15801561144557600080fd5b505af1158015611459573d6000803e3d6000fd5b50505050505050565b8273ffffffffffffffffffffffffffffffffffffffff1663abfdcced8360405160200180807f70726f6a6563742e6d696c6573746f6e65436f6d706c6574696f6e5375626d6981526020017f7373696f6e2e6861734661696c65640000000000000000000000000000000000815250602f018281526020019150506040516020818303038152906040526040518082805190602001908083835b60208310151561152157805182526020820191506020810190506020830392506114fc565b6001836020036101000a0380198251168184511680821785525050505050509050019150506040518091039020836040518363ffffffff167c01000000000000000000000000000000000000000000000000000000000281526004018083600019166000191681526020018215151515815260200192505050600060405180830381600087803b1580156115b457600080fd5b505af11580156115c8573d6000803e3d6000fd5b50505050505050565b8273ffffffffffffffffffffffffffffffffffffffff1663e2a4853a8360405160200180807f70726f6a6563742e737461747573000000000000000000000000000000000000815250600e018281526020019150506040516020818303038152906040526040518082805190602001908083835b60208310151561166a5780518252602082019150602081019050602083039250611645565b6001836020036101000a0380198251168184511680821785525050505050509050019150506040518091039020836040518363ffffffff167c010000000000000000000000000000000000000000000000000000000002815260040180836000191660001916815260200182815260200192505050600060405180830381600087803b1580156116f957600080fd5b505af115801561170d573d6000803e3d6000fd5b50505050505050565b60008273ffffffffffffffffffffffffffffffffffffffff1663bd02d0f58360405160200180807f636f6e747269627574696f6e2e636f6e7472696275746f724d61700000000000815250601b018273ffffffffffffffffffffffffffffffffffffffff1673ffffffffffffffffffffffffffffffffffffffff166c010000000000000000000000000281526014019150506040516020818303038152906040526040518082805190602001908083835b6020831015156117ec57805182526020820191506020810190506020830392506117c7565b6001836020036101000a03801982511681845116808217855250505050505090500191505060405180910390206040518263ffffffff167c0100000000000000000000000000000000000000000000000000000000028152600401808260001916600019168152602001915050602060405180830381600087803b15801561187357600080fd5b505af1158015611887573d6000803e3d6000fd5b505050506040513d602081101561189d57600080fd5b8101908080519060200190929190505050905092915050565b60008373ffffffffffffffffffffffffffffffffffffffff16637ae1cfca848460405160200180807f636f6e7472696275746f722e636f6e7472696275746573546f50726f6a656374815250602001838152602001828152602001925050506040516020818303038152906040526040518082805190602001908083835b6020831015156119595780518252602082019150602081019050602083039250611934565b6001836020036101000a03801982511681845116808217855250505050505090500191505060405180910390206040518263ffffffff167c0100000000000000000000000000000000000000000000000000000000028152600401808260001916600019168152602001915050602060405180830381600087803b1580156119e057600080fd5b505af11580156119f4573d6000803e3d6000fd5b505050506040513d6020811015611a0a57600080fd5b810190808051906020019092919050505090509392505050565b60008373ffffffffffffffffffffffffffffffffffffffff16637ae1cfca838560405160200180807f70726f6a6563742e6d696c6573746f6e65436f6d706c6574696f6e5375626d6981526020017f7373696f6e2e766f746572730000000000000000000000000000000000000000815250602c018373ffffffffffffffffffffffffffffffffffffffff1673ffffffffffffffffffffffffffffffffffffffff166c01000000000000000000000000028152601401828152602001925050506040516020818303038152906040526040518082805190602001908083835b602083101515611b285780518252602082019150602081019050602083039250611b03565b6001836020036101000a03801982511681845116808217855250505050505090500191505060405180910390206040518263ffffffff167c0100000000000000000000000000000000000000000000000000000000028152600401808260001916600019168152602001915050602060405180830381600087803b158015611baf57600080fd5b505af1158015611bc3573d6000803e3d6000fd5b505050506040513d6020811015611bd957600080fd5b810190808051906020019092919050505090509392505050565b60008273ffffffffffffffffffffffffffffffffffffffff1663bd02d0f58360405160200180807f70726f6a6563742e6d696c6573746f6e65436f6d706c6574696f6e5375626d6981526020017f7373696f6e2e617070726f76616c436f756e74000000000000000000000000008152506033018281526020019150506040516020818303038152906040526040518082805190602001908083835b602083101515611cb45780518252602082019150602081019050602083039250611c8f565b6001836020036101000a03801982511681845116808217855250505050505090500191505060405180910390206040518263ffffffff167c0100000000000000000000000000000000000000000000000000000000028152600401808260001916600019168152602001915050602060405180830381600087803b158015611d3b57600080fd5b505af1158015611d4f573d6000803e3d6000fd5b505050506040513d6020811015611d6557600080fd5b8101908080519060200190929190505050905092915050565b8273ffffffffffffffffffffffffffffffffffffffff1663e2a4853a8360405160200180807f70726f6a6563742e6d696c6573746f6e65436f6d706c6574696f6e5375626d6981526020017f7373696f6e2e617070726f76616c436f756e74000000000000000000000000008152506033018281526020019150506040516020818303038152906040526040518082805190602001908083835b602083101515611e3d5780518252602082019150602081019050602083039250611e18565b6001836020036101000a0380198251168184511680821785525050505050509050019150506040518091039020836040518363ffffffff167c010000000000000000000000000000000000000000000000000000000002815260040180836000191660001916815260200182815260200192505050600060405180830381600087803b158015611ecc57600080fd5b505af1158015611ee0573d6000803e3d6000fd5b50505050505050565b60008273ffffffffffffffffffffffffffffffffffffffff1663bd02d0f58360405160200180807f70726f6a6563742e6d696c6573746f6e65436f6d706c6574696f6e5375626d6981526020017f7373696f6e2e646973617070726f76616c436f756e74000000000000000000008152506036018281526020019150506040516020818303038152906040526040518082805190602001908083835b602083101515611faa5780518252602082019150602081019050602083039250611f85565b6001836020036101000a03801982511681845116808217855250505050505090500191505060405180910390206040518263ffffffff167c0100000000000000000000000000000000000000000000000000000000028152600401808260001916600019168152602001915050602060405180830381600087803b15801561203157600080fd5b505af1158015612045573d6000803e3d6000fd5b505050506040513d602081101561205b57600080fd5b8101908080519060200190929190505050905092915050565b8273ffffffffffffffffffffffffffffffffffffffff1663e2a4853a8360405160200180807f70726f6a6563742e6d696c6573746f6e65436f6d706c6574696f6e5375626d6981526020017f7373696f6e2e646973617070726f76616c436f756e74000000000000000000008152506036018281526020019150506040516020818303038152906040526040518082805190602001908083835b602083101515612133578051825260208201915060208101905060208303925061210e565b6001836020036101000a0380198251168184511680821785525050505050509050019150506040518091039020836040518363ffffffff167c010000000000000000000000000000000000000000000000000000000002815260040180836000191660001916815260200182815260200192505050600060405180830381600087803b1580156121c257600080fd5b505af11580156121d6573d6000803e3d6000fd5b50505050505050565b8373ffffffffffffffffffffffffffffffffffffffff1663abfdcced838560405160200180807f70726f6a6563742e6d696c6573746f6e65436f6d706c6574696f6e5375626d6981526020017f7373696f6e2e766f746572730000000000000000000000000000000000000000815250602c018373ffffffffffffffffffffffffffffffffffffffff1673ffffffffffffffffffffffffffffffffffffffff166c01000000000000000000000000028152601401828152602001925050506040516020818303038152906040526040518082805190602001908083835b6020831015156122e157805182526020820191506020810190506020830392506122bc565b6001836020036101000a0380198251168184511680821785525050505050509050019150506040518091039020836040518363ffffffff167c01000000000000000000000000000000000000000000000000000000000281526004018083600019166000191681526020018215151515815260200192505050600060405180830381600087803b15801561237457600080fd5b505af1158015612388573d6000803e3d6000fd5b5050505050505050565b60008273ffffffffffffffffffffffffffffffffffffffff1663bd02d0f58360405160200180807f636f6e747269627574696f6e2e636f6e7472696275746f724c6973742e6c656e81526020017f67746800000000000000000000000000000000000000000000000000000000008152506023018281526020019150506040516020818303038152906040526040518082805190602001908083835b602083101515612453578051825260208201915060208101905060208303925061242e565b6001836020036101000a03801982511681845116808217855250505050505090500191505060405180910390206040518263ffffffff167c0100000000000000000000000000000000000000000000000000000000028152600401808260001916600019168152602001915050602060405180830381600087803b1580156124da57600080fd5b505af11580156124ee573d6000803e3d6000fd5b505050506040513d602081101561250457600080fd5b8101908080519060200190929190505050905092915050565b60008273ffffffffffffffffffffffffffffffffffffffff1663bd02d0f58360405160200180807f70726f6a6563742e6d696c6573746f6e65436f6d706c6574696f6e5375626d6981526020017f7373696f6e2e74696d657374616d700000000000000000000000000000000000815250602f018281526020019150506040516020818303038152906040526040518082805190602001908083835b6020831015156125de57805182526020820191506020810190506020830392506125b9565b6001836020036101000a03801982511681845116808217855250505050505090500191505060405180910390206040518263ffffffff167c0100000000000000000000000000000000000000000000000000000000028152600401808260001916600019168152602001915050602060405180830381600087803b15801561266557600080fd5b505af1158015612679573d6000803e3d6000fd5b505050506040513d602081101561268f57600080fd5b8101908080519060200190929190505050905092915050565b60008060009054906101000a900460ff166126c357426126c7565b6001545b905090565b60008273ffffffffffffffffffffffffffffffffffffffff1663bd02d0f58360405160200180807f70726f6a6563742e6163746976654d696c6573746f6e65496e64657800000000815250601c018281526020019150506040516020818303038152906040526040518082805190602001908083835b6020831015156127675780518252602082019150602081019050602083039250612742565b6001836020036101000a03801982511681845116808217855250505050505090500191505060405180910390206040518263ffffffff167c0100000000000000000000000000000000000000000000000000000000028152600401808260001916600019168152602001915050602060405180830381600087803b1580156127ee57600080fd5b505af1158015612802573d6000803e3d6000fd5b505050506040513d602081101561281857600080fd5b8101908080519060200190929190505050905092915050565b8373ffffffffffffffffffffffffffffffffffffffff1663abfdcced838560405160200180807f70726f6a6563742e74696d656c696e652e6d696c6573746f6e65732e6973436f81526020017f6d706c6574650000000000000000000000000000000000000000000000000000815250602601838152602001828152602001925050506040516020818303038152906040526040518082805190602001908083835b6020831015156128f857805182526020820191506020810190506020830392506128d3565b6001836020036101000a0380198251168184511680821785525050505050509050019150506040518091039020836040518363ffffffff167c01000000000000000000000000000000000000000000000000000000000281526004018083600019166000191681526020018215151515815260200192505050600060405180830381600087803b15801561298b57600080fd5b505af115801561299f573d6000803e3d6000fd5b5050505050505050565b6129b1615056565b6060806000806129bf615056565b8873ffffffffffffffffffffffffffffffffffffffff1663bd02d0f58960405160200180807f70726f6a6563742e74696d656c696e652e6c656e6774680000000000000000008152506017018281526020019150506040516020818303038152906040526040518082805190602001908083835b602083101515612a585780518252602082019150602081019050602083039250612a33565b6001836020036101000a03801982511681845116808217855250505050505090500191505060405180910390206040518263ffffffff167c0100000000000000000000000000000000000000000000000000000000028152600401808260001916600019168152602001915050602060405180830381600087803b158015612adf57600080fd5b505af1158015612af3573d6000803e3d6000fd5b505050506040513d6020811015612b0957600080fd5b810190808051906020019092919050505087101515612bb6576040517f08c379a00000000000000000000000000000000000000000000000000000000081526004018080602001828103825260258152602001807f496e646578206973206f757473696465206f662061636365737369626c65207281526020017f616e67652e00000000000000000000000000000000000000000000000000000081525060400191505060405180910390fd5b8873ffffffffffffffffffffffffffffffffffffffff1663986e791a888a60405160200180807f70726f6a6563742e74696d656c696e652e6d696c6573746f6e65732e7469746c81526020017f6500000000000000000000000000000000000000000000000000000000000000815250602101838152602001828152602001925050506040516020818303038152906040526040518082805190602001908083835b602083101515612c7d5780518252602082019150602081019050602083039250612c58565b6001836020036101000a03801982511681845116808217855250505050505090500191505060405180910390206040518263ffffffff167c0100000000000000000000000000000000000000000000000000000000028152600401808260001916600019168152602001915050600060405180830381600087803b158015612d0457600080fd5b505af1158015612d18573d6000803e3d6000fd5b505050506040513d6000823e3d601f19601f820116820180604052506020811015612d4257600080fd5b810190808051640100000000811115612d5a57600080fd5b82810190506020810184811115612d7057600080fd5b8151856001820283011164010000000082111715612d8d57600080fd5b505092919050505094508873ffffffffffffffffffffffffffffffffffffffff1663986e791a888a60405160200180807f70726f6a6563742e74696d656c696e652e6d696c6573746f6e65732e6465736381526020017f72697074696f6e00000000000000000000000000000000000000000000000000815250602701838152602001828152602001925050506040516020818303038152906040526040518082805190602001908083835b602083101515612e5e5780518252602082019150602081019050602083039250612e39565b6001836020036101000a03801982511681845116808217855250505050505090500191505060405180910390206040518263ffffffff167c0100000000000000000000000000000000000000000000000000000000028152600401808260001916600019168152602001915050600060405180830381600087803b158015612ee557600080fd5b505af1158015612ef9573d6000803e3d6000fd5b505050506040513d6000823e3d601f19601f820116820180604052506020811015612f2357600080fd5b810190808051640100000000811115612f3b57600080fd5b82810190506020810184811115612f5157600080fd5b8151856001820283011164010000000082111715612f6e57600080fd5b505092919050505093508873ffffffffffffffffffffffffffffffffffffffff1663bd02d0f5888a60405160200180807f70726f6a6563742e74696d656c696e652e6d696c6573746f6e65732e7065726381526020017f656e746167650000000000000000000000000000000000000000000000000000815250602601838152602001828152602001925050506040516020818303038152906040526040518082805190602001908083835b60208310151561303f578051825260208201915060208101905060208303925061301a565b6001836020036101000a03801982511681845116808217855250505050505090500191505060405180910390206040518263ffffffff167c0100000000000000000000000000000000000000000000000000000000028152600401808260001916600019168152602001915050602060405180830381600087803b1580156130c657600080fd5b505af11580156130da573d6000803e3d6000fd5b505050506040513d60208110156130f057600080fd5b810190808051906020019092919050505092508873ffffffffffffffffffffffffffffffffffffffff16637ae1cfca888a60405160200180807f70726f6a6563742e74696d656c696e652e6d696c6573746f6e65732e6973436f81526020017f6d706c6574650000000000000000000000000000000000000000000000000000815250602601838152602001828152602001925050506040516020818303038152906040526040518082805190602001908083835b6020831015156131ca57805182526020820191506020810190506020830392506131a5565b6001836020036101000a03801982511681845116808217855250505050505090500191505060405180910390206040518263ffffffff167c0100000000000000000000000000000000000000000000000000000000028152600401808260001916600019168152602001915050602060405180830381600087803b15801561325157600080fd5b505af1158015613265573d6000803e3d6000fd5b505050506040513d602081101561327b57600080fd5b81019080805190602001909291905050509150608060405190810160405280868152602001858152602001848152602001831515815250905080955050505050509392505050565b60006132cf8787613818565b90506132e0878783888888886139a3565b6132ee8787600184016139dc565b50505050505050565b60008273ffffffffffffffffffffffffffffffffffffffff1663bd02d0f58360405160200180807f70726f6a6563742e74696d656c696e652e6c656e6774680000000000000000008152506017018281526020019150506040516020818303038152906040526040518082805190602001908083835b602083101515613392578051825260208201915060208101905060208303925061336d565b6001836020036101000a03801982511681845116808217855250505050505090500191505060405180910390206040518263ffffffff167c0100000000000000000000000000000000000000000000000000000000028152600401808260001916600019168152602001915050602060405180830381600087803b15801561341957600080fd5b505af115801561342d573d6000803e3d6000fd5b505050506040513d602081101561344357600080fd5b8101908080519060200190929190505050905092915050565b8273ffffffffffffffffffffffffffffffffffffffff1663e2a4853a8360405160200180807f70726f6a6563742e6163746976654d696c6573746f6e65496e64657800000000815250601c018281526020019150506040516020818303038152906040526040518082805190602001908083835b6020831015156134f557805182526020820191506020810190506020830392506134d0565b6001836020036101000a0380198251168184511680821785525050505050509050019150506040518091039020836040518363ffffffff167c010000000000000000000000000000000000000000000000000000000002815260040180836000191660001916815260200182815260200192505050600060405180830381600087803b15801561358457600080fd5b505af1158015613598573d6000803e3d6000fd5b50505050505050565b60006135ad8787613b47565b90506135be87878388888888613cac565b6135cc878760018401613ce5565b50505050505050565b600080600080600080613607888a73ffffffffffffffffffffffffffffffffffffffff16613e2a90919063ffffffff16565b955061363488888b73ffffffffffffffffffffffffffffffffffffffff16613f8f9092919063ffffffff16565b9450606485870281151561364457fe5b049350613670888a73ffffffffffffffffffffffffffffffffffffffff1661096690919063ffffffff16565b92508891508173ffffffffffffffffffffffffffffffffffffffff166304433bbc6040518163ffffffff167c010000000000000000000000000000000000000000000000000000000002815260040180806020018281038252600c8152602001807f46756e64696e675661756c740000000000000000000000000000000000000000815250602001915050602060405180830381600087803b15801561371557600080fd5b505af1158015613729573d6000803e3d6000fd5b505050506040513d602081101561373f57600080fd5b810190808051906020019092919050505090508073ffffffffffffffffffffffffffffffffffffffff1663a158657c85856040518363ffffffff167c0100000000000000000000000000000000000000000000000000000000028152600401808381526020018273ffffffffffffffffffffffffffffffffffffffff1673ffffffffffffffffffffffffffffffffffffffff16815260200192505050600060405180830381600087803b1580156137f557600080fd5b505af1158015613809573d6000803e3d6000fd5b50505050505050505050505050565b60008273ffffffffffffffffffffffffffffffffffffffff1663bd02d0f58360405160200180807f70726f6a6563742e636f6d706c657465644d696c6573746f6e65732e6c656e6781526020017f74680000000000000000000000000000000000000000000000000000000000008152506022018281526020019150506040516020818303038152906040526040518082805190602001908083835b6020831015156138d957805182526020820191506020810190506020830392506138b4565b6001836020036101000a03801982511681845116808217855250505050505090500191505060405180910390206040518263ffffffff167c0100000000000000000000000000000000000000000000000000000000028152600401808260001916600019168152602001915050602060405180830381600087803b15801561396057600080fd5b505af1158015613974573d6000803e3d6000fd5b505050506040513d602081101561398a57600080fd5b8101908080519060200190929190505050905092915050565b6139af8787878761431a565b6139bb878787866144f3565b6139c7878787856146cc565b6139d387878784614840565b50505050505050565b8273ffffffffffffffffffffffffffffffffffffffff1663e2a4853a8360405160200180807f70726f6a6563742e636f6d706c657465644d696c6573746f6e65732e6c656e6781526020017f74680000000000000000000000000000000000000000000000000000000000008152506022018281526020019150506040516020818303038152906040526040518082805190602001908083835b602083101515613a9b5780518252602082019150602081019050602083039250613a76565b6001836020036101000a0380198251168184511680821785525050505050509050019150506040518091039020836040518363ffffffff167c010000000000000000000000000000000000000000000000000000000002815260040180836000191660001916815260200182815260200192505050600060405180830381600087803b158015613b2a57600080fd5b505af1158015613b3e573d6000803e3d6000fd5b50505050505050565b60008273ffffffffffffffffffffffffffffffffffffffff1663bd02d0f58360405160200180807f70726f6a6563742e70656e64696e6754696d656c696e652e6c656e6774680000815250601e018281526020019150506040516020818303038152906040526040518082805190602001908083835b602083101515613be25780518252602082019150602081019050602083039250613bbd565b6001836020036101000a03801982511681845116808217855250505050505090500191505060405180910390206040518263ffffffff167c0100000000000000000000000000000000000000000000000000000000028152600401808260001916600019168152602001915050602060405180830381600087803b158015613c6957600080fd5b505af1158015613c7d573d6000803e3d6000fd5b505050506040513d6020811015613c9357600080fd5b8101908080519060200190929190505050905092915050565b613cb8878787876149b8565b613cc487878786614b91565b613cd087878785614d6a565b613cdc87878784614ede565b50505050505050565b8273ffffffffffffffffffffffffffffffffffffffff1663e2a4853a8360405160200180807f70726f6a6563742e70656e64696e6754696d656c696e652e6c656e6774680000815250601e018281526020019150506040516020818303038152906040526040518082805190602001908083835b602083101515613d7e5780518252602082019150602081019050602083039250613d59565b6001836020036101000a0380198251168184511680821785525050505050509050019150506040518091039020836040518363ffffffff167c010000000000000000000000000000000000000000000000000000000002815260040180836000191660001916815260200182815260200192505050600060405180830381600087803b158015613e0d57600080fd5b505af1158015613e21573d6000803e3d6000fd5b50505050505050565b60008273ffffffffffffffffffffffffffffffffffffffff1663bd02d0f58360405160200180807f636f6e747269627574696f6e2e66756e647352616973656400000000000000008152506018018281526020019150506040516020818303038152906040526040518082805190602001908083835b602083101515613ec55780518252602082019150602081019050602083039250613ea0565b6001836020036101000a03801982511681845116808217855250505050505090500191505060405180910390206040518263ffffffff167c0100000000000000000000000000000000000000000000000000000000028152600401808260001916600019168152602001915050602060405180830381600087803b158015613f4c57600080fd5b505af1158015613f60573d6000803e3d6000fd5b505050506040513d6020811015613f7657600080fd5b8101908080519060200190929190505050905092915050565b60008373ffffffffffffffffffffffffffffffffffffffff1663bd02d0f58460405160200180807f70726f6a6563742e74696d656c696e652e6c656e6774680000000000000000008152506017018281526020019150506040516020818303038152906040526040518082805190602001908083835b60208310151561402a5780518252602082019150602081019050602083039250614005565b6001836020036101000a03801982511681845116808217855250505050505090500191505060405180910390206040518263ffffffff167c0100000000000000000000000000000000000000000000000000000000028152600401808260001916600019168152602001915050602060405180830381600087803b1580156140b157600080fd5b505af11580156140c5573d6000803e3d6000fd5b505050506040513d60208110156140db57600080fd5b810190808051906020019092919050505082101515614188576040517f08c379a00000000000000000000000000000000000000000000000000000000081526004018080602001828103825260258152602001807f496e646578206973206f757473696465206f662061636365737369626c65207281526020017f616e67652e00000000000000000000000000000000000000000000000000000081525060400191505060405180910390fd5b8373ffffffffffffffffffffffffffffffffffffffff1663bd02d0f5838560405160200180807f70726f6a6563742e74696d656c696e652e6d696c6573746f6e65732e7065726381526020017f656e746167650000000000000000000000000000000000000000000000000000815250602601838152602001828152602001925050506040516020818303038152906040526040518082805190602001908083835b60208310151561424f578051825260208201915060208101905060208303925061422a565b6001836020036101000a03801982511681845116808217855250505050505090500191505060405180910390206040518263ffffffff167c0100000000000000000000000000000000000000000000000000000000028152600401808260001916600019168152602001915050602060405180830381600087803b1580156142d657600080fd5b505af11580156142ea573d6000803e3d6000fd5b505050506040513d602081101561430057600080fd5b810190808051906020019092919050505090509392505050565b8373ffffffffffffffffffffffffffffffffffffffff16636e899550838560405160200180807f70726f6a6563742e636f6d706c657465644d696c6573746f6e65732e7469746c81526020017f6500000000000000000000000000000000000000000000000000000000000000815250602101838152602001828152602001925050506040516020818303038152906040526040518082805190602001908083835b6020831015156143e157805182526020820191506020810190506020830392506143bc565b6001836020036101000a0380198251168184511680821785525050505050509050019150506040518091039020836040518363ffffffff167c010000000000000000000000000000000000000000000000000000000002815260040180836000191660001916815260200180602001828103825283818151815260200191508051906020019080838360005b8381101561448857808201518184015260208101905061446d565b50505050905090810190601f1680156144b55780820380516001836020036101000a031916815260200191505b509350505050600060405180830381600087803b1580156144d557600080fd5b505af11580156144e9573d6000803e3d6000fd5b5050505050505050565b8373ffffffffffffffffffffffffffffffffffffffff16636e899550838560405160200180807f70726f6a6563742e636f6d706c657465644d696c6573746f6e65732e6465736381526020017f72697074696f6e00000000000000000000000000000000000000000000000000815250602701838152602001828152602001925050506040516020818303038152906040526040518082805190602001908083835b6020831015156145ba5780518252602082019150602081019050602083039250614595565b6001836020036101000a0380198251168184511680821785525050505050509050019150506040518091039020836040518363ffffffff167c010000000000000000000000000000000000000000000000000000000002815260040180836000191660001916815260200180602001828103825283818151815260200191508051906020019080838360005b83811015614661578082015181840152602081019050614646565b50505050905090810190601f16801561468e5780820380516001836020036101000a031916815260200191505b509350505050600060405180830381600087803b1580156146ae57600080fd5b505af11580156146c2573d6000803e3d6000fd5b5050505050505050565b8373ffffffffffffffffffffffffffffffffffffffff1663e2a4853a838560405160200180807f70726f6a6563742e636f6d706c657465644d696c6573746f6e65732e7065726381526020017f656e746167650000000000000000000000000000000000000000000000000000815250602601838152602001828152602001925050506040516020818303038152906040526040518082805190602001908083835b602083101515614793578051825260208201915060208101905060208303925061476e565b6001836020036101000a0380198251168184511680821785525050505050509050019150506040518091039020836040518363ffffffff167c010000000000000000000000000000000000000000000000000000000002815260040180836000191660001916815260200182815260200192505050600060405180830381600087803b15801561482257600080fd5b505af1158015614836573d6000803e3d6000fd5b5050505050505050565b8373ffffffffffffffffffffffffffffffffffffffff1663abfdcced838560405160200180807f70726f6a6563742e636f6d706c657465644d696c6573746f6e65732e6973436f81526020017f6d706c6574650000000000000000000000000000000000000000000000000000815250602601838152602001828152602001925050506040516020818303038152906040526040518082805190602001908083835b60208310151561490757805182526020820191506020810190506020830392506148e2565b6001836020036101000a0380198251168184511680821785525050505050509050019150506040518091039020836040518363ffffffff167c01000000000000000000000000000000000000000000000000000000000281526004018083600019166000191681526020018215151515815260200192505050600060405180830381600087803b15801561499a57600080fd5b505af11580156149ae573d6000803e3d6000fd5b5050505050505050565b8373ffffffffffffffffffffffffffffffffffffffff16636e899550838560405160200180807f70726f6a6563742e70656e64696e6754696d656c696e652e6d696c6573746f6e81526020017f65732e7469746c65000000000000000000000000000000000000000000000000815250602801838152602001828152602001925050506040516020818303038152906040526040518082805190602001908083835b602083101515614a7f5780518252602082019150602081019050602083039250614a5a565b6001836020036101000a0380198251168184511680821785525050505050509050019150506040518091039020836040518363ffffffff167c010000000000000000000000000000000000000000000000000000000002815260040180836000191660001916815260200180602001828103825283818151815260200191508051906020019080838360005b83811015614b26578082015181840152602081019050614b0b565b50505050905090810190601f168015614b535780820380516001836020036101000a031916815260200191505b509350505050600060405180830381600087803b158015614b7357600080fd5b505af1158015614b87573d6000803e3d6000fd5b5050505050505050565b8373ffffffffffffffffffffffffffffffffffffffff16636e899550838560405160200180807f70726f6a6563742e70656e64696e6754696d656c696e652e6d696c6573746f6e81526020017f65732e6465736372697074696f6e000000000000000000000000000000000000815250602e01838152602001828152602001925050506040516020818303038152906040526040518082805190602001908083835b602083101515614c585780518252602082019150602081019050602083039250614c33565b6001836020036101000a0380198251168184511680821785525050505050509050019150506040518091039020836040518363ffffffff167c010000000000000000000000000000000000000000000000000000000002815260040180836000191660001916815260200180602001828103825283818151815260200191508051906020019080838360005b83811015614cff578082015181840152602081019050614ce4565b50505050905090810190601f168015614d2c5780820380516001836020036101000a031916815260200191505b509350505050600060405180830381600087803b158015614d4c57600080fd5b505af1158015614d60573d6000803e3d6000fd5b5050505050505050565b8373ffffffffffffffffffffffffffffffffffffffff1663e2a4853a838560405160200180807f70726f6a6563742e70656e64696e6754696d656c696e652e6d696c6573746f6e81526020017f65732e70657263656e7461676500000000000000000000000000000000000000815250602d01838152602001828152602001925050506040516020818303038152906040526040518082805190602001908083835b602083101515614e315780518252602082019150602081019050602083039250614e0c565b6001836020036101000a0380198251168184511680821785525050505050509050019150506040518091039020836040518363ffffffff167c010000000000000000000000000000000000000000000000000000000002815260040180836000191660001916815260200182815260200192505050600060405180830381600087803b158015614ec057600080fd5b505af1158015614ed4573d6000803e3d6000fd5b5050505050505050565b8373ffffffffffffffffffffffffffffffffffffffff1663abfdcced838560405160200180807f70726f6a6563742e70656e64696e6754696d656c696e652e6d696c6573746f6e81526020017f65732e6973436f6d706c65746500000000000000000000000000000000000000815250602d01838152602001828152602001925050506040516020818303038152906040526040518082805190602001908083835b602083101515614fa55780518252602082019150602081019050602083039250614f80565b6001836020036101000a0380198251168184511680821785525050505050509050019150506040518091039020836040518363ffffffff167c01000000000000000000000000000000000000000000000000000000000281526004018083600019166000191681526020018215151515815260200192505050600060405180830381600087803b15801561503857600080fd5b505af115801561504c573d6000803e3d6000fd5b5050505050505050565b60806040519081016040528060608152602001606081526020016000815260200160001515815250905600a165627a7a72305820f0c7c6d1b8902920996075ef998f9220f2fefd828867dc69d8811d1f4def62890029",
  "source": "pragma solidity ^0.4.24;\n\nimport \"../FundingStorage.sol\";\nimport \"./ProjectBase.sol\";\nimport \"../libraries/ProjectMilestoneCompletionHelpersLibrary.sol\";\nimport \"../IVoting.sol\";\nimport \"../libraries/ProjectTimelineHelpersLibrary.sol\";\n\ncontract ProjectMilestoneCompletionVoting is ProjectBase, IVoting {\n\n    using ProjectMilestoneCompletionHelpersLibrary for address;\n    using ProjectTimelineHelpersLibrary for address;\n    using ContributionStorageAccess for address;\n\n    modifier onlyProjectContributor(uint _projectId) {\n        uint contributorId = fundingStorage.getContributorId(msg.sender);\n        require(contributorId != 0, \"This address is not a contributor.\");\n        require(fundingStorage.getContributesToProject(contributorId, _projectId), \"This address is not a contributor to this project.\");\n        _;\n    }\n\n    constructor(address _fundingStorage, bool _inTest) public Testable(_inTest) {\n        fundingStorage = _fundingStorage;\n    }\n\n    function vote(uint _projectId, bool _approved) external onlyProjectContributor(_projectId) {\n        // MilestoneCompletionSubmission must be active\n        require(fundingStorage.getMilestoneCompletionSubmissionIsActive(_projectId), \"No vote on milestone completion active.\");\n\n        // Contributor must not have already voted\n        require(!fundingStorage.getMilestoneCompletionSubmissionHasVoted(_projectId, msg.sender), \"This contributor address has already voted.\");\n\n        if (_approved) {\n            uint currentApprovalCount = fundingStorage.getMilestoneCompletionSubmissionApprovalCount(_projectId);\n            fundingStorage.setMilestoneCompletionSubmissionApprovalCount(_projectId, currentApprovalCount + 1);\n        } else {\n            uint currentDisapprovalCount = fundingStorage.getMilestoneCompletionSubmissionDisapprovalCount(_projectId);\n            fundingStorage.setMilestoneCompletionSubmissionDisapprovalCount(_projectId, currentDisapprovalCount + 1);\n        }\n\n        fundingStorage.setMilestoneCompletionSubmissionHasVoted(_projectId, msg.sender, true);\n    }\n\n    function finalizeVoting(uint _projectId) external onlyProjectDeveloper(_projectId) {\n        // MilestoneCompletionSubmission must be active\n        require(fundingStorage.getMilestoneCompletionSubmissionIsActive(_projectId), \"No vote on milestone completion active.\");\n\n        if (hasPassedMilestoneCompletionVote(_projectId)) {\n            succeedMilestoneCompletion(_projectId);\n        } else {\n            // Set milestone completion submission to inactive\n            fundingStorage.setMilestoneCompletionSubmissionIsActive(_projectId, false);\n\n            // Set milestone completion submission has failed\n            fundingStorage.setMilestoneCompletionSubmissionHasFailed(_projectId, true);\n\n            fundingStorage.setProjectStatus(_projectId, uint(Status.Refundable));\n        }\n    }\n\n    function hasPassedMilestoneCompletionVote(uint _projectId) private view returns (bool) {\n        uint numContributors = fundingStorage.getProjectContributorListLength(_projectId);\n        uint approvalCount = fundingStorage.getMilestoneCompletionSubmissionApprovalCount(_projectId);\n        bool isTwoWeeksLater = getCurrentTime() >= fundingStorage.getMilestoneCompletionSubmissionTimestamp(_projectId) + 2 weeks;\n\n        // Proposal needs >75% total approval, or for 2 days to have passed and >75% approval among voters\n        require(((approvalCount > numContributors * 75 / 100) || isTwoWeeksLater),\n            \"Conditions for finalizing milestone completion have not yet been achieved.\");\n\n        uint disapprovalCount = fundingStorage.getMilestoneCompletionSubmissionDisapprovalCount(_projectId);\n        uint numVoters = approvalCount + disapprovalCount;\n        uint votingThreshold = numVoters * 75 / 100;\n\n        return (approvalCount > votingThreshold);\n    }\n\n    function succeedMilestoneCompletion(uint _projectId) private {\n        uint activeIndex = fundingStorage.getActiveMilestoneIndex(_projectId);\n        fundingStorage.setTimelineMilestoneIsComplete(_projectId, activeIndex, true);\n\n        // Set milestone completion submission to inactive\n        fundingStorage.setMilestoneCompletionSubmissionIsActive(_projectId, false);\n\n        // Update completedMilestones, remove any pending milestones, and add the completed milestones + current active\n        // milestone to the start of the pending timeline. This is to ensure that any future timeline proposals take\n        // into account the milestones that have already released their funds.\n\n        // Add current milestone to completed milestones list\n        ProjectStorageAccess.Milestone memory activeMilestone = fundingStorage.getTimelineMilestone(_projectId, activeIndex);\n\n        fundingStorage.pushCompletedMilestone(_projectId, activeMilestone.title, activeMilestone.description, activeMilestone.percentage, activeMilestone.isComplete);\n\n        fundingStorage.moveCompletedMilestonesIntoPendingTimeline(_projectId);\n\n        // Increment active milestone and release funds if this was not the last milestone\n        if (activeIndex < fundingStorage.getTimelineLength(_projectId) - 1) {\n            // Increment the active milestone\n            fundingStorage.setActiveMilestoneIndex(_projectId, ++activeIndex);\n\n            // Add currently active milestone to pendingTimeline\n            ProjectStorageAccess.Milestone memory currentMilestone = fundingStorage.getTimelineMilestone(_projectId, activeIndex);\n            fundingStorage.pushPendingTimelineMilestone(_projectId, currentMilestone.title, currentMilestone.description, currentMilestone.percentage, currentMilestone.isComplete);\n\n            fundingStorage.releaseMilestoneFunds(_projectId, activeIndex);\n        }\n    }\n}\n",
  "sourcePath": "/home/jordan/Projects/hyperbridge/funding-protocol/smart-contracts/ethereum/contracts/project/ProjectMilestoneCompletionVoting.sol",
  "compiler": {
    "name": "solc",
    "version": "0.4.24+commit.e67f0147.Emscripten.clang"
  },
  "schemaVersion": "2.0.1",
  "updatedAt": "2018-07-26T16:56:23.142Z"
}