{
  "contractName": "Project",
  "abi": [
    {
      "constant": true,
      "inputs": [],
      "name": "status",
      "outputs": [
        {
          "name": "",
          "type": "uint8"
        }
      ],
      "payable": false,
      "stateMutability": "view",
      "type": "function"
    },
    {
      "constant": true,
      "inputs": [],
      "name": "noRefunds",
      "outputs": [
        {
          "name": "",
          "type": "bool"
        }
      ],
      "payable": false,
      "stateMutability": "view",
      "type": "function"
    },
    {
      "constant": true,
      "inputs": [],
      "name": "title",
      "outputs": [
        {
          "name": "",
          "type": "string"
        }
      ],
      "payable": false,
      "stateMutability": "view",
      "type": "function"
    },
    {
      "constant": true,
      "inputs": [
        {
          "name": "",
          "type": "address"
        }
      ],
      "name": "bountyMap",
      "outputs": [
        {
          "name": "",
          "type": "uint256"
        }
      ],
      "payable": false,
      "stateMutability": "view",
      "type": "function"
    },
    {
      "constant": true,
      "inputs": [],
      "name": "noTimeline",
      "outputs": [
        {
          "name": "",
          "type": "bool"
        }
      ],
      "payable": false,
      "stateMutability": "view",
      "type": "function"
    },
    {
      "constant": true,
      "inputs": [],
      "name": "about",
      "outputs": [
        {
          "name": "",
          "type": "string"
        }
      ],
      "payable": false,
      "stateMutability": "view",
      "type": "function"
    },
    {
      "constant": true,
      "inputs": [],
      "name": "description",
      "outputs": [
        {
          "name": "",
          "type": "string"
        }
      ],
      "payable": false,
      "stateMutability": "view",
      "type": "function"
    },
    {
      "constant": true,
      "inputs": [],
      "name": "contributionGoal",
      "outputs": [
        {
          "name": "",
          "type": "uint256"
        }
      ],
      "payable": false,
      "stateMutability": "view",
      "type": "function"
    },
    {
      "constant": true,
      "inputs": [],
      "name": "id",
      "outputs": [
        {
          "name": "",
          "type": "uint256"
        }
      ],
      "payable": false,
      "stateMutability": "view",
      "type": "function"
    },
    {
      "constant": true,
      "inputs": [],
      "name": "developerId",
      "outputs": [
        {
          "name": "",
          "type": "uint256"
        }
      ],
      "payable": false,
      "stateMutability": "view",
      "type": "function"
    },
    {
      "constant": true,
      "inputs": [],
      "name": "developer",
      "outputs": [
        {
          "name": "",
          "type": "address"
        }
      ],
      "payable": false,
      "stateMutability": "view",
      "type": "function"
    },
    {
      "constant": true,
      "inputs": [],
      "name": "fundingService",
      "outputs": [
        {
          "name": "",
          "type": "address"
        }
      ],
      "payable": false,
      "stateMutability": "view",
      "type": "function"
    },
    {
      "constant": true,
      "inputs": [
        {
          "name": "",
          "type": "uint256"
        }
      ],
      "name": "bounties",
      "outputs": [
        {
          "name": "",
          "type": "address"
        }
      ],
      "payable": false,
      "stateMutability": "view",
      "type": "function"
    },
    {
      "inputs": [
        {
          "name": "_fundingService",
          "type": "address"
        },
        {
          "name": "_id",
          "type": "uint256"
        },
        {
          "name": "_title",
          "type": "string"
        },
        {
          "name": "_description",
          "type": "string"
        },
        {
          "name": "_about",
          "type": "string"
        },
        {
          "name": "_developer",
          "type": "address"
        },
        {
          "name": "_developerId",
          "type": "uint256"
        },
        {
          "name": "_contributionGoal",
          "type": "uint256"
        }
      ],
      "payable": false,
      "stateMutability": "nonpayable",
      "type": "constructor"
    },
    {
      "payable": true,
      "stateMutability": "payable",
      "type": "fallback"
    },
    {
      "constant": false,
      "inputs": [
        {
          "name": "_milestoneTitle",
          "type": "string"
        },
        {
          "name": "_milestoneDescription",
          "type": "string"
        },
        {
          "name": "_percentage",
          "type": "uint256"
        }
      ],
      "name": "addMilestone",
      "outputs": [],
      "payable": false,
      "stateMutability": "nonpayable",
      "type": "function"
    },
    {
      "constant": false,
      "inputs": [
        {
          "name": "_index",
          "type": "uint256"
        },
        {
          "name": "_milestoneTitle",
          "type": "string"
        },
        {
          "name": "_milestoneDescription",
          "type": "string"
        },
        {
          "name": "_milestonePercentage",
          "type": "uint256"
        }
      ],
      "name": "editMilestone",
      "outputs": [],
      "payable": false,
      "stateMutability": "nonpayable",
      "type": "function"
    },
    {
      "constant": true,
      "inputs": [
        {
          "name": "_index",
          "type": "uint256"
        }
      ],
      "name": "getPendingTimelineMilestone",
      "outputs": [
        {
          "name": "milestoneTitle",
          "type": "string"
        },
        {
          "name": "milestoneDescription",
          "type": "string"
        },
        {
          "name": "milestonePercentage",
          "type": "uint256"
        },
        {
          "name": "milestoneIsComplete",
          "type": "bool"
        }
      ],
      "payable": false,
      "stateMutability": "view",
      "type": "function"
    },
    {
      "constant": true,
      "inputs": [
        {
          "name": "_index",
          "type": "uint256"
        }
      ],
      "name": "getTimelineMilestone",
      "outputs": [
        {
          "name": "milestoneTitle",
          "type": "string"
        },
        {
          "name": "milestoneDescription",
          "type": "string"
        },
        {
          "name": "milestonePercentage",
          "type": "uint256"
        },
        {
          "name": "milestoneIsComplete",
          "type": "bool"
        }
      ],
      "payable": false,
      "stateMutability": "view",
      "type": "function"
    },
    {
      "constant": true,
      "inputs": [],
      "name": "getPendingTimelineMilestoneLength",
      "outputs": [
        {
          "name": "",
          "type": "uint256"
        }
      ],
      "payable": false,
      "stateMutability": "view",
      "type": "function"
    },
    {
      "constant": true,
      "inputs": [],
      "name": "getTimelineMilestoneLength",
      "outputs": [
        {
          "name": "",
          "type": "uint256"
        }
      ],
      "payable": false,
      "stateMutability": "view",
      "type": "function"
    },
    {
      "constant": true,
      "inputs": [],
      "name": "getTimelineHistoryLength",
      "outputs": [
        {
          "name": "",
          "type": "uint256"
        }
      ],
      "payable": false,
      "stateMutability": "view",
      "type": "function"
    },
    {
      "constant": false,
      "inputs": [],
      "name": "finalizeTimeline",
      "outputs": [],
      "payable": false,
      "stateMutability": "nonpayable",
      "type": "function"
    },
    {
      "constant": false,
      "inputs": [
        {
          "name": "_status",
          "type": "uint8"
        }
      ],
      "name": "setStatus",
      "outputs": [],
      "payable": false,
      "stateMutability": "nonpayable",
      "type": "function"
    },
    {
      "constant": false,
      "inputs": [
        {
          "name": "val",
          "type": "bool"
        }
      ],
      "name": "setNoRefunds",
      "outputs": [],
      "payable": false,
      "stateMutability": "nonpayable",
      "type": "function"
    },
    {
      "constant": false,
      "inputs": [
        {
          "name": "val",
          "type": "bool"
        }
      ],
      "name": "setNoTimeline",
      "outputs": [],
      "payable": false,
      "stateMutability": "nonpayable",
      "type": "function"
    },
    {
      "constant": false,
      "inputs": [
        {
          "name": "_contributorLimit",
          "type": "uint256"
        },
        {
          "name": "_maxContribution",
          "type": "uint256"
        },
        {
          "name": "_minContribution",
          "type": "uint256"
        },
        {
          "name": "_rewards",
          "type": "string"
        }
      ],
      "name": "addTier",
      "outputs": [],
      "payable": false,
      "stateMutability": "nonpayable",
      "type": "function"
    },
    {
      "constant": false,
      "inputs": [
        {
          "name": "_index",
          "type": "uint256"
        },
        {
          "name": "_contributorLimit",
          "type": "uint256"
        },
        {
          "name": "_maxContribution",
          "type": "uint256"
        },
        {
          "name": "_minContribution",
          "type": "uint256"
        },
        {
          "name": "_rewards",
          "type": "string"
        }
      ],
      "name": "editTier",
      "outputs": [],
      "payable": false,
      "stateMutability": "nonpayable",
      "type": "function"
    },
    {
      "constant": true,
      "inputs": [],
      "name": "getPendingTiersLength",
      "outputs": [
        {
          "name": "",
          "type": "uint256"
        }
      ],
      "payable": false,
      "stateMutability": "view",
      "type": "function"
    },
    {
      "constant": true,
      "inputs": [],
      "name": "getTiersLength",
      "outputs": [
        {
          "name": "",
          "type": "uint256"
        }
      ],
      "payable": false,
      "stateMutability": "view",
      "type": "function"
    },
    {
      "constant": true,
      "inputs": [
        {
          "name": "_index",
          "type": "uint256"
        }
      ],
      "name": "getPendingContributionTier",
      "outputs": [
        {
          "name": "tierContributorLimit",
          "type": "uint256"
        },
        {
          "name": "tierMaxContribution",
          "type": "uint256"
        },
        {
          "name": "tierMinContribution",
          "type": "uint256"
        },
        {
          "name": "tierRewards",
          "type": "string"
        }
      ],
      "payable": false,
      "stateMutability": "view",
      "type": "function"
    },
    {
      "constant": true,
      "inputs": [
        {
          "name": "_index",
          "type": "uint256"
        }
      ],
      "name": "getContributionTier",
      "outputs": [
        {
          "name": "tierContributorLimit",
          "type": "uint256"
        },
        {
          "name": "tierMaxContribution",
          "type": "uint256"
        },
        {
          "name": "tierMinContribution",
          "type": "uint256"
        },
        {
          "name": "tierRewards",
          "type": "string"
        }
      ],
      "payable": false,
      "stateMutability": "view",
      "type": "function"
    },
    {
      "constant": false,
      "inputs": [],
      "name": "finalizeTiers",
      "outputs": [],
      "payable": false,
      "stateMutability": "nonpayable",
      "type": "function"
    },
    {
      "constant": false,
      "inputs": [
        {
          "name": "_bountyName",
          "type": "string"
        },
        {
          "name": "_bountyDescription",
          "type": "string"
        },
        {
          "name": "_bountyLink",
          "type": "string"
        }
      ],
      "name": "createBounty",
      "outputs": [],
      "payable": false,
      "stateMutability": "nonpayable",
      "type": "function"
    },
    {
      "constant": true,
      "inputs": [],
      "name": "getBounties",
      "outputs": [
        {
          "name": "",
          "type": "address[]"
        }
      ],
      "payable": false,
      "stateMutability": "view",
      "type": "function"
    }
  ],
  "bytecode": "0x60806040523480156200001157600080fd5b5060405162003834380380620038348339810180604052810190808051906020019092919080519060200190929190805182019291906020018051820192919060200180518201929190602001805190602001909291908051906020019092919080519060200190929190505050876000806101000a81548173ffffffffffffffffffffffffffffffffffffffff021916908373ffffffffffffffffffffffffffffffffffffffff160217905550866001819055506000600260006101000a81548160ff02191690836004811115620000e657fe5b021790555085600390805190602001906200010392919062000193565b5084600490805190602001906200011c92919062000193565b5083600590805190602001906200013592919062000193565b5082600660006101000a81548173ffffffffffffffffffffffffffffffffffffffff021916908373ffffffffffffffffffffffffffffffffffffffff1602179055508160078190555080600881905550505050505050505062000242565b828054600181600116156101000203166002900490600052602060002090601f016020900481019282601f10620001d657805160ff191683800117855562000207565b8280016001018555821562000207579182015b8281111562000206578251825591602001919060010190620001e9565b5b5090506200021691906200021a565b5090565b6200023f91905b808211156200023b57600081600090555060010162000221565b5090565b90565b6135e280620002526000396000f300608060405260043610620001c3576000357c0100000000000000000000000000000000000000000000000000000000900463ffffffff1680630cf0ac1d14620001c55780630f1a92e114620002365780631aa470bb14620002645780631ab794241462000296578063200d2ed214620002c85780632e49d78b146200030557806334f2a35a14620003385780633fa47c81146200036a5780634518dff41462000430578063486c46a214620004ba5780634a79d50c14620005e75780634db48d26146200067d57806355a5660214620006d7578063595f1378146200070557806359ef407a14620007c65780635e07425b14620007e05780635e1d548214620008125780637284e41614620008a857806375d36dc5146200093e5780637b94c18e146200096c578063814e4ec6146200099a578063a847e5ea1462000a2e578063ad477c471462000aea578063af640d0f1462000b18578063b1efc0241462000b46578063b99810171462000c07578063bde0e7ac1462000c21578063c920a6d31462000c4f578063ca4b208b1462000d7c578063cba24e411462000dd6578063d1d2ba8f1462000e30578063db6f8d6b1462000f28578063dc2f87441462000f56575b005b348015620001d257600080fd5b50620001dd62000fc6565b6040518080602001828103825283818151815260200191508051906020019060200280838360005b838110156200022257808201518184015260208101905062000205565b505050509050019250505060405180910390f35b3480156200024357600080fd5b506200024e62001056565b6040518082815260200191505060405180910390f35b3480156200027157600080fd5b506200029460048036038101908080351515906020019092919050505062001063565b005b348015620002a357600080fd5b50620002c6600480360381019080803515159060200190929190505050620010dd565b005b348015620002d557600080fd5b50620002e062001157565b60405180826004811115620002f157fe5b60ff16815260200191505060405180910390f35b3480156200031257600080fd5b5062000336600480360381019080803560ff1690602001909291905050506200116a565b005b3480156200034557600080fd5b5062000350620011ed565b604051808215151515815260200191505060405180910390f35b3480156200037757600080fd5b506200042e60048036038101908080359060200190929190803590602001908201803590602001908080601f0160208091040260200160405190810160405280939291908181526020018383808284378201915050505050509192919290803590602001908201803590602001908080601f01602080910402602001604051908101604052809392919081815260200183838082843782019150505050505091929192908035906020019092919050505062001200565b005b3480156200043d57600080fd5b50620004b8600480360381019080803590602001909291908035906020019092919080359060200190929190803590602001908201803590602001908080601f0160208091040260200160405190810160405280939291908181526020018383808284378201915050505050509192919290505050620012c5565b005b348015620004c757600080fd5b50620004e860048036038101908080359060200190929190505050620013c5565b60405180806020018060200185815260200184151515158152602001838103835287818151815260200191508051906020019080838360005b838110156200053e57808201518184015260208101905062000521565b50505050905090810190601f1680156200056c5780820380516001836020036101000a031916815260200191505b50838103825286818151815260200191508051906020019080838360005b83811015620005a75780820151818401526020810190506200058a565b50505050905090810190601f168015620005d55780820380516001836020036101000a031916815260200191505b50965050505050505060405180910390f35b348015620005f457600080fd5b50620005ff6200159c565b6040518080602001828103825283818151815260200191508051906020019080838360005b838110156200064157808201518184015260208101905062000624565b50505050905090810190601f1680156200066f5780820380516001836020036101000a031916815260200191505b509250505060405180910390f35b3480156200068a57600080fd5b50620006c1600480360381019080803573ffffffffffffffffffffffffffffffffffffffff1690602001909291905050506200163e565b6040518082815260200191505060405180910390f35b348015620006e457600080fd5b50620006ef62001656565b6040518082815260200191505060405180910390f35b3480156200071257600080fd5b50620007336004803603810190808035906020019092919050505062001663565b6040518085815260200184815260200183815260200180602001828103825283818151815260200191508051906020019080838360005b83811015620007875780820151818401526020810190506200076a565b50505050905090810190601f168015620007b55780820380516001836020036101000a031916815260200191505b509550505050505060405180910390f35b348015620007d357600080fd5b50620007de6200178b565b005b348015620007ed57600080fd5b50620007f86200185d565b604051808215151515815260200191505060405180910390f35b3480156200081f57600080fd5b506200082a62001870565b6040518080602001828103825283818151815260200191508051906020019080838360005b838110156200086c5780820151818401526020810190506200084f565b50505050905090810190601f1680156200089a5780820380516001836020036101000a031916815260200191505b509250505060405180910390f35b348015620008b557600080fd5b50620008c062001912565b6040518080602001828103825283818151815260200191508051906020019080838360005b8381101562000902578082015181840152602081019050620008e5565b50505050905090810190601f168015620009305780820380516001836020036101000a031916815260200191505b509250505060405180910390f35b3480156200094b57600080fd5b5062000956620019b4565b6040518082815260200191505060405180910390f35b3480156200097957600080fd5b5062000984620019c1565b6040518082815260200191505060405180910390f35b348015620009a757600080fd5b5062000a2c60048036038101908080359060200190929190803590602001909291908035906020019092919080359060200190929190803590602001908201803590602001908080601f0160208091040260200160405190810160405280939291908181526020018383808284378201915050505050509192919290505050620019ce565b005b34801562000a3b57600080fd5b5062000ae8600480360381019080803590602001908201803590602001908080601f0160208091040260200160405190810160405280939291908181526020018383808284378201915050505050509192919290803590602001908201803590602001908080601f01602080910402602001604051908101604052809392919081815260200183838082843782019150505050505091929192908035906020019092919050505062001a8b565b005b34801562000af757600080fd5b5062000b0262001bc9565b6040518082815260200191505060405180910390f35b34801562000b2557600080fd5b5062000b3062001bcf565b6040518082815260200191505060405180910390f35b34801562000b5357600080fd5b5062000b746004803603810190808035906020019092919050505062001bd5565b6040518085815260200184815260200183815260200180602001828103825283818151815260200191508051906020019080838360005b8381101562000bc857808201518184015260208101905062000bab565b50505050905090810190601f16801562000bf65780820380516001836020036101000a031916815260200191505b509550505050505060405180910390f35b34801562000c1457600080fd5b5062000c1f62001cfd565b005b34801562000c2e57600080fd5b5062000c3962001d81565b6040518082815260200191505060405180910390f35b34801562000c5c57600080fd5b5062000c7d6004803603810190808035906020019092919050505062001d87565b60405180806020018060200185815260200184151515158152602001838103835287818151815260200191508051906020019080838360005b8381101562000cd357808201518184015260208101905062000cb6565b50505050905090810190601f16801562000d015780820380516001836020036101000a031916815260200191505b50838103825286818151815260200191508051906020019080838360005b8381101562000d3c57808201518184015260208101905062000d1f565b50505050905090810190601f16801562000d6a5780820380516001836020036101000a031916815260200191505b50965050505050505060405180910390f35b34801562000d8957600080fd5b5062000d9462001f5e565b604051808273ffffffffffffffffffffffffffffffffffffffff1673ffffffffffffffffffffffffffffffffffffffff16815260200191505060405180910390f35b34801562000de357600080fd5b5062000dee62001f84565b604051808273ffffffffffffffffffffffffffffffffffffffff1673ffffffffffffffffffffffffffffffffffffffff16815260200191505060405180910390f35b34801562000e3d57600080fd5b5062000f26600480360381019080803590602001908201803590602001908080601f0160208091040260200160405190810160405280939291908181526020018383808284378201915050505050509192919290803590602001908201803590602001908080601f0160208091040260200160405190810160405280939291908181526020018383808284378201915050505050509192919290803590602001908201803590602001908080601f016020809104026020016040519081016040528093929190818152602001838380828437820191505050505050919291929050505062001fa9565b005b34801562000f3557600080fd5b5062000f406200227b565b6040518082815260200191505060405180910390f35b34801562000f6357600080fd5b5062000f846004803603810190808035906020019092919050505062002288565b604051808273ffffffffffffffffffffffffffffffffffffffff1673ffffffffffffffffffffffffffffffffffffffff16815260200191505060405180910390f35b606060108054806020026020016040519081016040528092919081815260200182805480156200104c57602002820191906000526020600020905b8160009054906101000a900473ffffffffffffffffffffffffffffffffffffffff1673ffffffffffffffffffffffffffffffffffffffff168152602001906001019080831162001001575b5050505050905090565b6000600a80549050905090565b600660009054906101000a900473ffffffffffffffffffffffffffffffffffffffff1673ffffffffffffffffffffffffffffffffffffffff163373ffffffffffffffffffffffffffffffffffffffff16141515620010c057600080fd5b80600b60006101000a81548160ff02191690831515021790555050565b600660009054906101000a900473ffffffffffffffffffffffffffffffffffffffff1673ffffffffffffffffffffffffffffffffffffffff163373ffffffffffffffffffffffffffffffffffffffff161415156200113a57600080fd5b80600b60016101000a81548160ff02191690831515021790555050565b600260009054906101000a900460ff1681565b6000809054906101000a900473ffffffffffffffffffffffffffffffffffffffff1673ffffffffffffffffffffffffffffffffffffffff163373ffffffffffffffffffffffffffffffffffffffff16141515620011c657600080fd5b80600260006101000a81548160ff02191690836004811115620011e557fe5b021790555050565b600b60009054906101000a900460ff1681565b6000600660009054906101000a900473ffffffffffffffffffffffffffffffffffffffff1673ffffffffffffffffffffffffffffffffffffffff163373ffffffffffffffffffffffffffffffffffffffff161415156200125f57600080fd5b600e858154811015156200126f57fe5b906000526020600020906004020190508381600001908051906020019062001299929190620022c7565b5082816001019080519060200190620012b4929190620022c7565b508181600201819055505050505050565b620012cf6200234e565b600660009054906101000a900473ffffffffffffffffffffffffffffffffffffffff1673ffffffffffffffffffffffffffffffffffffffff163373ffffffffffffffffffffffffffffffffffffffff161415156200132c57600080fd5b608060405190810160405280868152602001848152602001858152602001838152509050600a81908060018154018082558091505090600182039060005260206000209060040201600090919290919091506000820151816000015560208201518160010155604082015181600201556060820151816003019080519060200190620013ba92919062002377565b505050505050505050565b606080600080620013d5620023fe565b600e86815481101515620013e557fe5b906000526020600020906004020160806040519081016040529081600082018054600181600116156101000203166002900480601f0160208091040260200160405190810160405280929190818152602001828054600181600116156101000203166002900480156200149c5780601f1062001470576101008083540402835291602001916200149c565b820191906000526020600020905b8154815290600101906020018083116200147e57829003601f168201915b50505050508152602001600182018054600181600116156101000203166002900480601f016020809104026020016040519081016040528092919081815260200182805460018160011615610100020316600290048015620015425780601f10620015165761010080835404028352916020019162001542565b820191906000526020600020905b8154815290600101906020018083116200152457829003601f168201915b50505050508152602001600282015481526020016003820160009054906101000a900460ff161515151581525050905080600001518160200151826040015183606001518393508292509450945094509450509193509193565b60038054600181600116156101000203166002900480601f016020809104026020016040519081016040528092919081815260200182805460018160011615610100020316600290048015620016365780601f106200160a5761010080835404028352916020019162001636565b820191906000526020600020905b8154815290600101906020018083116200161857829003601f168201915b505050505081565b600f6020528060005260406000206000915090505481565b6000600c80549050905090565b60008060006060620016746200234e565b6009868154811015156200168457fe5b906000526020600020906004020160806040519081016040529081600082015481526020016001820154815260200160028201548152602001600382018054600181600116156101000203166002900480601f016020809104026020016040519081016040528092919081815260200182805460018160011615610100020316600290048015620017595780601f106200172d5761010080835404028352916020019162001759565b820191906000526020600020905b8154815290600101906020018083116200173b57829003601f168201915b505050505081525050905080600001518160400151826020015183606001518090509450945094509450509193509193565b600660009054906101000a900473ffffffffffffffffffffffffffffffffffffffff1673ffffffffffffffffffffffffffffffffffffffff163373ffffffffffffffffffffffffffffffffffffffff16141515620017e857600080fd5b6000600c805490501415156200183657600d600c9080600181540180825580915050906001820390600052602060002001600090919290919091509080546200183392919062002429565b50505b600e600c9080546200184a92919062002429565b50600e60006200185b919062002511565b565b600b60019054906101000a900460ff1681565b60058054600181600116156101000203166002900480601f0160208091040260200160405190810160405280929190818152602001828054600181600116156101000203166002900480156200190a5780601f10620018de576101008083540402835291602001916200190a565b820191906000526020600020905b815481529060010190602001808311620018ec57829003601f168201915b505050505081565b60048054600181600116156101000203166002900480601f016020809104026020016040519081016040528092919081815260200182805460018160011615610100020316600290048015620019ac5780601f106200198057610100808354040283529160200191620019ac565b820191906000526020600020905b8154815290600101906020018083116200198e57829003601f168201915b505050505081565b6000600e80549050905090565b6000600980549050905090565b6000600660009054906101000a900473ffffffffffffffffffffffffffffffffffffffff1673ffffffffffffffffffffffffffffffffffffffff163373ffffffffffffffffffffffffffffffffffffffff1614151562001a2d57600080fd5b600a8681548110151562001a3d57fe5b906000526020600020906004020190508481600001819055508381600201819055508281600101819055508181600301908051906020019062001a82929190620022c7565b50505050505050565b62001a95620023fe565b600660009054906101000a900473ffffffffffffffffffffffffffffffffffffffff1673ffffffffffffffffffffffffffffffffffffffff163373ffffffffffffffffffffffffffffffffffffffff1614151562001af257600080fd5b6064821115151562001b0357600080fd5b608060405190810160405280858152602001848152602001838152602001600015158152509050600e8190806001815401808255809150509060018203906000526020600020906004020160009091929091909150600082015181600001908051906020019062001b7692919062002377565b50602082015181600101908051906020019062001b9592919062002377565b506040820151816002015560608201518160030160006101000a81548160ff02191690831515021790555050505050505050565b60085481565b60015481565b6000806000606062001be66200234e565b600a8681548110151562001bf657fe5b906000526020600020906004020160806040519081016040529081600082015481526020016001820154815260200160028201548152602001600382018054600181600116156101000203166002900480601f01602080910402602001604051908101604052809291908181526020018280546001816001161561010002031660029004801562001ccb5780601f1062001c9f5761010080835404028352916020019162001ccb565b820191906000526020600020905b81548152906001019060200180831162001cad57829003601f168201915b505050505081525050905080600001518160400151826020015183606001518090509450945094509450509193509193565b600660009054906101000a900473ffffffffffffffffffffffffffffffffffffffff1673ffffffffffffffffffffffffffffffffffffffff163373ffffffffffffffffffffffffffffffffffffffff1614151562001d5a57600080fd5b600a600990805462001d6e92919062002537565b50600a600062001d7f9190620025dc565b565b60075481565b60608060008062001d97620023fe565b600c8681548110151562001da757fe5b906000526020600020906004020160806040519081016040529081600082018054600181600116156101000203166002900480601f01602080910402602001604051908101604052809291908181526020018280546001816001161561010002031660029004801562001e5e5780601f1062001e325761010080835404028352916020019162001e5e565b820191906000526020600020905b81548152906001019060200180831162001e4057829003601f168201915b50505050508152602001600182018054600181600116156101000203166002900480601f01602080910402602001604051908101604052809291908181526020018280546001816001161561010002031660029004801562001f045780601f1062001ed85761010080835404028352916020019162001f04565b820191906000526020600020905b81548152906001019060200180831162001ee657829003601f168201915b50505050508152602001600282015481526020016003820160009054906101000a900460ff161515151581525050905080600001518160200151826040015183606001518393508292509450945094509450509193509193565b600660009054906101000a900473ffffffffffffffffffffffffffffffffffffffff1681565b6000809054906101000a900473ffffffffffffffffffffffffffffffffffffffff1681565b600080600660009054906101000a900473ffffffffffffffffffffffffffffffffffffffff1673ffffffffffffffffffffffffffffffffffffffff163373ffffffffffffffffffffffffffffffffffffffff161415156200200957600080fd5b601080549050915030828686866200202062002602565b808673ffffffffffffffffffffffffffffffffffffffff1673ffffffffffffffffffffffffffffffffffffffff168152602001858152602001806020018060200180602001848103845287818151815260200191508051906020019080838360005b838110156200209f57808201518184015260208101905062002082565b50505050905090810190601f168015620020cd5780820380516001836020036101000a031916815260200191505b50848103835286818151815260200191508051906020019080838360005b8381101562002108578082015181840152602081019050620020eb565b50505050905090810190601f168015620021365780820380516001836020036101000a031916815260200191505b50848103825285818151815260200191508051906020019080838360005b838110156200217157808201518184015260208101905062002154565b50505050905090810190601f1680156200219f5780820380516001836020036101000a031916815260200191505b5098505050505050505050604051809103906000f080158015620021c7573d6000803e3d6000fd5b50905081600f60008373ffffffffffffffffffffffffffffffffffffffff1673ffffffffffffffffffffffffffffffffffffffff1681526020019081526020016000208190555060108190806001815401808255809150509060018203906000526020600020016000909192909190916101000a81548173ffffffffffffffffffffffffffffffffffffffff021916908373ffffffffffffffffffffffffffffffffffffffff160217905550505050505050565b6000600d80549050905090565b6010818154811015156200229857fe5b906000526020600020016000915054906101000a900473ffffffffffffffffffffffffffffffffffffffff1681565b828054600181600116156101000203166002900490600052602060002090601f016020900481019282601f106200230a57805160ff19168380011785556200233b565b828001600101855582156200233b579182015b828111156200233a5782518255916020019190600101906200231d565b5b5090506200234a919062002613565b5090565b608060405190810160405280600081526020016000815260200160008152602001606081525090565b828054600181600116156101000203166002900490600052602060002090601f016020900481019282601f10620023ba57805160ff1916838001178555620023eb565b82800160010185558215620023eb579182015b82811115620023ea578251825591602001919060010190620023cd565b5b509050620023fa919062002613565b5090565b6080604051908101604052806060815260200160608152602001600081526020016000151581525090565b828054828255906000526020600020906004028101928215620024fe5760005260206000209160040282015b82811115620024fd57828260008201816000019080546001816001161561010002031660029004620024899291906200263b565b5060018201816001019080546001816001161561010002031660029004620024b39291906200263b565b50600282015481600201556003820160009054906101000a900460ff168160030160006101000a81548160ff02191690831515021790555050509160040191906004019062002455565b5b5090506200250d9190620026c9565b5090565b5080546000825560040290600052602060002090810190620025349190620026c9565b50565b828054828255906000526020600020906004028101928215620025c95760005260206000209160040282015b82811115620025c857828260008201548160000155600182015481600101556002820154816002015560038201816003019080546001816001161561010002031660029004620025b59291906200263b565b5050509160040191906004019062002563565b5b509050620025d891906200272b565b5090565b5080546000825560040290600052602060002090810190620025ff91906200272b565b50565b604051610df380620027c483390190565b6200263891905b80821115620026345760008160009055506001016200261a565b5090565b90565b828054600181600116156101000203166002900490600052602060002090601f016020900481019282601f10620026765780548555620026b6565b82800160010185558215620026b657600052602060002091601f016020900482015b82811115620026b557825482559160010191906001019062002698565b5b509050620026c5919062002613565b5090565b6200272891905b80821115620027245760008082016000620026ec919062002777565b600182016000620026fe919062002777565b60028201600090556003820160006101000a81549060ff021916905550600401620026d0565b5090565b90565b6200277491905b8082111562002770576000808201600090556001820160009055600282016000905560038201600062002766919062002777565b5060040162002732565b5090565b90565b50805460018160011615610100020316600290046000825580601f106200279f5750620027c0565b601f016020900490600052602060002090810190620027bf919062002613565b5b505600608060405234801561001057600080fd5b50604051610df3380380610df38339810180604052810190808051906020019092919080519060200190929190805182019291906020018051820192919060200180518201929190505050846000806101000a81548173ffffffffffffffffffffffffffffffffffffffff021916908373ffffffffffffffffffffffffffffffffffffffff1602179055508360018190555082600390805190602001906100b892919061014d565b5081600490805190602001906100cf92919061014d565b5080600590805190602001906100e692919061014d565b506000600760006101000a81548160ff02191690831515021790555033600260006101000a81548173ffffffffffffffffffffffffffffffffffffffff021916908373ffffffffffffffffffffffffffffffffffffffff16021790555050505050506101f2565b828054600181600116156101000203166002900490600052602060002090601f016020900481019282601f1061018e57805160ff19168380011785556101bc565b828001600101855582156101bc579182015b828111156101bb5782518255916020019190600101906101a0565b5b5090506101c991906101cd565b5090565b6101ef91905b808211156101eb5760008160009055506001016101d3565b5090565b90565b610bf2806102016000396000f3006080604052600436106100af576000357c0100000000000000000000000000000000000000000000000000000000900463ffffffff1680633cf96af1146100b457806367905c0b1461010b5780637c009954146101ba5780638ac68dd81461024a5780638d66f34814610306578063a04c7e8a14610310578063b2fa1c9e146103a0578063b3752fd0146103cf578063b7f9d6f7146103fa578063c17bd75e1461043d578063f2f8024814610468575b600080fd5b3480156100c057600080fd5b506100c96104f8565b604051808273ffffffffffffffffffffffffffffffffffffffff1673ffffffffffffffffffffffffffffffffffffffff16815260200191505060405180910390f35b34801561011757600080fd5b506101b8600480360381019080803590602001908201803590602001908080601f0160208091040260200160405190810160405280939291908181526020018383808284378201915050505050509192919290803590602001908201803590602001908080601f016020809104026020016040519081016040528093929190818152602001838380828437820191505050505050919291929050505061051d565b005b3480156101c657600080fd5b506101cf610664565b6040518080602001828103825283818151815260200191508051906020019080838360005b8381101561020f5780820151818401526020810190506101f4565b50505050905090810190601f16801561023c5780820380516001836020036101000a031916815260200191505b509250505060405180910390f35b34801561025657600080fd5b5061028b600480360381019080803573ffffffffffffffffffffffffffffffffffffffff169060200190929190505050610702565b6040518080602001828103825283818151815260200191508051906020019080838360005b838110156102cb5780820151818401526020810190506102b0565b50505050905090810190601f1680156102f85780820380516001836020036101000a031916815260200191505b509250505060405180910390f35b61030e6107e3565b005b34801561031c57600080fd5b50610325610848565b6040518080602001828103825283818151815260200191508051906020019080838360005b8381101561036557808201518184015260208101905061034a565b50505050905090810190601f1680156103925780820380516001836020036101000a031916815260200191505b509250505060405180910390f35b3480156103ac57600080fd5b506103b56108e6565b604051808215151515815260200191505060405180910390f35b3480156103db57600080fd5b506103e46108f9565b6040518082815260200191505060405180910390f35b34801561040657600080fd5b5061043b600480360381019080803573ffffffffffffffffffffffffffffffffffffffff1690602001909291905050506108ff565b005b34801561044957600080fd5b506104526109c5565b6040518082815260200191505060405180910390f35b34801561047457600080fd5b5061047d6109cb565b6040518080602001828103825283818151815260200191508051906020019080838360005b838110156104bd5780820151818401526020810190506104a2565b50505050905090810190601f1680156104ea5780820380516001836020036101000a031916815260200191505b509250505060405180910390f35b6000809054906101000a900473ffffffffffffffffffffffffffffffffffffffff1681565b610525610a69565b6060604051908101604052803373ffffffffffffffffffffffffffffffffffffffff1681526020018481526020018381525090506008819080600181540180825580915050906001820390600052602060002090600302016000909192909190915060008201518160000160006101000a81548173ffffffffffffffffffffffffffffffffffffffff021916908373ffffffffffffffffffffffffffffffffffffffff16021790555060208201518160010190805190602001906105ea929190610aa1565b506040820151816002019080519060200190610607929190610aa1565b5050505082600960003373ffffffffffffffffffffffffffffffffffffffff1673ffffffffffffffffffffffffffffffffffffffff168152602001908152602001600020908051906020019061065e929190610b21565b50505050565b60058054600181600116156101000203166002900480601f0160208091040260200160405190810160405280929190818152602001828054600181600116156101000203166002900480156106fa5780601f106106cf576101008083540402835291602001916106fa565b820191906000526020600020905b8154815290600101906020018083116106dd57829003601f168201915b505050505081565b6060600960008373ffffffffffffffffffffffffffffffffffffffff1673ffffffffffffffffffffffffffffffffffffffff1681526020019081526020016000208054600181600116156101000203166002900480601f0160208091040260200160405190810160405280929190818152602001828054600181600116156101000203166002900480156107d75780601f106107ac576101008083540402835291602001916107d7565b820191906000526020600020905b8154815290600101906020018083116107ba57829003601f168201915b50505050509050919050565b600260009054906101000a900473ffffffffffffffffffffffffffffffffffffffff1673ffffffffffffffffffffffffffffffffffffffff163373ffffffffffffffffffffffffffffffffffffffff1614151561083f57600080fd5b34600681905550565b60038054600181600116156101000203166002900480601f0160208091040260200160405190810160405280929190818152602001828054600181600116156101000203166002900480156108de5780601f106108b3576101008083540402835291602001916108de565b820191906000526020600020905b8154815290600101906020018083116108c157829003601f168201915b505050505081565b600760009054906101000a900460ff1681565b60065481565b600260009054906101000a900473ffffffffffffffffffffffffffffffffffffffff1673ffffffffffffffffffffffffffffffffffffffff163373ffffffffffffffffffffffffffffffffffffffff1614151561095b57600080fd5b8073ffffffffffffffffffffffffffffffffffffffff166108fc6006549081150290604051600060405180830381858888f193505050501580156109a3573d6000803e3d6000fd5b503073ffffffffffffffffffffffffffffffffffffffff163160068190555050565b60015481565b60048054600181600116156101000203166002900480601f016020809104026020016040519081016040528092919081815260200182805460018160011615610100020316600290048015610a615780601f10610a3657610100808354040283529160200191610a61565b820191906000526020600020905b815481529060010190602001808311610a4457829003601f168201915b505050505081565b606060405190810160405280600073ffffffffffffffffffffffffffffffffffffffff16815260200160608152602001606081525090565b828054600181600116156101000203166002900490600052602060002090601f016020900481019282601f10610ae257805160ff1916838001178555610b10565b82800160010185558215610b10579182015b82811115610b0f578251825591602001919060010190610af4565b5b509050610b1d9190610ba1565b5090565b828054600181600116156101000203166002900490600052602060002090601f016020900481019282601f10610b6257805160ff1916838001178555610b90565b82800160010185558215610b90579182015b82811115610b8f578251825591602001919060010190610b74565b5b509050610b9d9190610ba1565b5090565b610bc391905b80821115610bbf576000816000905550600101610ba7565b5090565b905600a165627a7a72305820fe072dfe43ccf2c75486a037e951df46648b0b49f541970dcd058d2e03138bbf0029a165627a7a72305820f4296a73d91456b7454649fc94e61b50c06532cfc529cf1ba59c9ee4941e16630029",
  "source": "pragma solidity ^0.4.23;\nimport \"./FundingService.sol\";\nimport \"./Bounty.sol\";\n\ncontract Project {\n    struct ProjectMilestone {\n        string title;\n        string description;\n        uint percentage;\n        bool isComplete;\n    }\n\n    struct ProjectTier {\n        uint contributorLimit;\n        uint minContribution;\n        uint maxContribution;\n        string rewards;\n    }\n\n    enum Status {Draft, Pending, Published, Removed, Rejected}\n\n    address public fundingService;\n    uint public id;\n    Status public status;\n    string public title;\n    string public description;\n    string public about;\n    address public developer;\n    uint public developerId;\n    uint public contributionGoal;\n    ProjectTier[] contributionTiers;\n    ProjectTier[] pendingContributionTiers;\n    bool public noRefunds;\n    bool public noTimeline;\n    ProjectMilestone[] timeline;\n    ProjectMilestone[][] timelineHistory;\n    ProjectMilestone[] pendingTimeline;\n\n    mapping(address => uint) public bountyMap; // address => id\n    address[] public bounties; // indexed by Bounty id\n\n\n\n    modifier devRestricted() {\n        require(msg.sender == developer);\n        _;\n    }\n\n    modifier fundingServiceRestricted() {\n        require(msg.sender == fundingService);\n        _;\n    }\n\n    constructor(address _fundingService, uint _id, string _title, string _description, string _about, address _developer, uint _developerId, uint _contributionGoal) public {\n        fundingService = _fundingService;\n        id = _id;\n        status = Status.Draft;\n        title = _title;\n        description = _description;\n        about = _about;\n        developer = _developer;\n        developerId = _developerId;\n        contributionGoal = _contributionGoal;\n    }\n    \n\n    function addMilestone(string _milestoneTitle, string _milestoneDescription, uint _percentage) public devRestricted {\n        require(_percentage <= 100);\n\n        ProjectMilestone memory newMilestone = ProjectMilestone({\n            title: _milestoneTitle,\n            description: _milestoneDescription,\n            percentage: _percentage,\n            isComplete: false\n            });\n\n        pendingTimeline.push(newMilestone);\n    }\n\n    function editMilestone(\n        uint _index,\n        string _milestoneTitle,\n        string _milestoneDescription,\n        uint _milestonePercentage)\n    public devRestricted {\n        ProjectMilestone storage milestone = pendingTimeline[_index];\n\n        milestone.title = _milestoneTitle;\n        milestone.description = _milestoneDescription;\n        milestone.percentage = _milestonePercentage;\n    }\n\n    function getPendingTimelineMilestone(uint _index) public view\n    returns (\n        string milestoneTitle,\n        string milestoneDescription,\n        uint milestonePercentage,\n        bool milestoneIsComplete\n    ) {\n\n        ProjectMilestone memory milestone = pendingTimeline[_index];\n\n        return (milestone.title, milestone.description, milestone.percentage, milestone.isComplete);\n    }\n\n    function getTimelineMilestone(uint _index) public view\n    returns (\n        string milestoneTitle,\n        string milestoneDescription,\n        uint milestonePercentage,\n        bool milestoneIsComplete\n    ) {\n\n        ProjectMilestone memory milestone = timeline[_index];\n\n        return (milestone.title, milestone.description, milestone.percentage, milestone.isComplete);\n    }\n\n    function getPendingTimelineMilestoneLength() public view returns (uint) {\n        return pendingTimeline.length;\n    }\n\n    function getTimelineMilestoneLength() public view returns (uint) {\n        return timeline.length;\n    }\n\n    function getTimelineHistoryLength() public view returns (uint) {\n        return timelineHistory.length;\n    }\n\n    function finalizeTimeline() public devRestricted {\n        if (timeline.length != 0) {\n            timelineHistory.push(timeline);\n        }\n\n        timeline = pendingTimeline;\n\n        delete(pendingTimeline);\n    }\n\n    function setStatus(Status _status) public fundingServiceRestricted {\n        status = _status;\n    }\n\n    function setNoRefunds(bool val) public devRestricted {\n        noRefunds = val;\n    }\n\n    function setNoTimeline(bool val) public devRestricted {\n        noTimeline = val;\n    }\n\n    function addTier(uint _contributorLimit, uint _maxContribution, uint _minContribution, string _rewards) public devRestricted {\n        ProjectTier memory newTier = ProjectTier({\n            contributorLimit: _contributorLimit,\n            maxContribution: _maxContribution,\n            minContribution: _minContribution,\n            rewards: _rewards\n            });\n\n        pendingContributionTiers.push(newTier);\n    }\n\n    function editTier(\n        uint _index,\n        uint _contributorLimit,\n        uint _maxContribution,\n        uint _minContribution,\n        string _rewards)\n    public devRestricted {\n        ProjectTier storage tier = pendingContributionTiers[_index];\n\n        tier.contributorLimit = _contributorLimit;\n        tier.maxContribution = _maxContribution;\n        tier.minContribution = _minContribution;\n        tier.rewards = _rewards;\n    }\n\n    function getPendingTiersLength() public view returns (uint) {\n        return pendingContributionTiers.length;\n    }\n\n    function getTiersLength() public view returns (uint) {\n        return contributionTiers.length;\n    }\n\n    function getPendingContributionTier(uint _index) public view\n    returns (\n        uint tierContributorLimit,\n        uint tierMaxContribution,\n        uint tierMinContribution,\n        string tierRewards\n    ) {\n        ProjectTier memory tier = pendingContributionTiers[_index];\n\n        return (tier.contributorLimit, tier.maxContribution, tier.minContribution, tier.rewards);\n    }\n\n    function getContributionTier(uint _index) public view\n    returns (\n        uint tierContributorLimit,\n        uint tierMaxContribution,\n        uint tierMinContribution,\n        string tierRewards\n    ) {\n        ProjectTier memory tier = contributionTiers[_index];\n\n        return (tier.contributorLimit, tier.maxContribution, tier.minContribution, tier.rewards);\n    }\n\n    function finalizeTiers() public devRestricted {\n        contributionTiers = pendingContributionTiers;\n\n        delete(pendingContributionTiers);\n    }\n\n    function createBounty (string _bountyName, string _bountyDescription, string _bountyLink) public devRestricted {\n        uint newBountyId = bounties.length;\n\n        Bounty newBounty = new Bounty(this, newBountyId, _bountyName, _bountyDescription, _bountyLink);\n\n        bountyMap[newBounty] = newBountyId;\n        bounties.push(newBounty);\n    }\n\n    function getBounties() public view returns (address[]) {\n        return bounties;\n    }\n\n    function() public payable { }\n}\n",
  "sourcePath": "/Users/AshTanz/Documents/HyperBridge/funding-protocol/smart-contracts/ethereum/contracts/Project.sol",
  "compiler": {
    "name": "solc",
    "version": "0.4.24+commit.e67f0147.Emscripten.clang"
  },
  "schemaVersion": "2.0.0",
  "updatedAt": "2018-06-15T22:49:46.112Z"
}