{
  "contractName": "ProjectMilestoneCompletion",
  "abi": [
    {
      "constant": false,
      "inputs": [
        {
          "name": "_time",
          "type": "uint256"
        }
      ],
      "name": "setTestTime",
      "outputs": [],
      "payable": false,
      "stateMutability": "nonpayable",
      "type": "function"
    },
    {
      "inputs": [
        {
          "name": "_fundingStorage",
          "type": "address"
        },
        {
          "name": "_inTest",
          "type": "bool"
        }
      ],
      "payable": false,
      "stateMutability": "nonpayable",
      "type": "constructor"
    },
    {
      "constant": false,
      "inputs": [
        {
          "name": "_projectId",
          "type": "uint256"
        },
        {
          "name": "_report",
          "type": "string"
        }
      ],
      "name": "submitMilestoneCompletion",
      "outputs": [],
      "payable": false,
      "stateMutability": "nonpayable",
      "type": "function"
    },
    {
      "constant": true,
      "inputs": [
        {
          "name": "_projectId",
          "type": "uint256"
        }
      ],
      "name": "getMilestoneCompletionSubmission",
      "outputs": [
        {
          "name": "timestamp",
          "type": "uint256"
        },
        {
          "name": "approvalCount",
          "type": "uint256"
        },
        {
          "name": "disapprovalCount",
          "type": "uint256"
        },
        {
          "name": "report",
          "type": "string"
        },
        {
          "name": "isActive",
          "type": "bool"
        },
        {
          "name": "hasFailed",
          "type": "bool"
        }
      ],
      "payable": false,
      "stateMutability": "view",
      "type": "function"
    }
  ],
  "bytecode": "0x608060405234801561001057600080fd5b506040516040806120ee833981018060405281019080805190602001909291908051906020019092919050505080806000806101000a81548160ff0219169083151502179055505081600260006101000a81548173ffffffffffffffffffffffffffffffffffffffff021916908373ffffffffffffffffffffffffffffffffffffffff1602179055505050612044806100aa6000396000f300608060405260043610610057576000357c0100000000000000000000000000000000000000000000000000000000900463ffffffff168063097c74061461005c578063bba929ad14610089578063fd1e98171461015a575b600080fd5b34801561006857600080fd5b506100876004803603810190808035906020019092919050505061019f565b005b34801561009557600080fd5b506100b4600480360381019080803590602001909291905050506101c3565b60405180878152602001868152602001858152602001806020018415151515815260200183151515158152602001828103825285818151815260200191508051906020019080838360005b8381101561011a5780820151818401526020810190506100ff565b50505050905090810190601f1680156101475780820380516001836020036101000a031916815260200191505b5097505050505050505060405180910390f35b34801561016657600080fd5b5061019d60048036038101908080359060200190929190803590602001908201803590602001919091929391929390505050610259565b005b6000809054906101000a900460ff1615156101b957600080fd5b8060018190555050565b600080600060606000806101d5611fdd565b61022088600260009054906101000a900473ffffffffffffffffffffffffffffffffffffffff1673ffffffffffffffffffffffffffffffffffffffff166106fc90919063ffffffff16565b9050806000015181602001518260400151836060015184608001518560a001518292509650965096509650965096505091939550919395565b826102a581600260009054906101000a900473ffffffffffffffffffffffffffffffffffffffff1673ffffffffffffffffffffffffffffffffffffffff166110c290919063ffffffff16565b73ffffffffffffffffffffffffffffffffffffffff163373ffffffffffffffffffffffffffffffffffffffff1614151561036d576040517f08c379a00000000000000000000000000000000000000000000000000000000081526004018080602001828103825260398152602001807f596f75206d757374206265207468652070726f6a65637420646576656c6f706581526020017f7220746f20706572666f726d207468697320616374696f6e2e0000000000000081525060400191505060405180910390fd5b836004600681111561037b57fe5b6103c682600260009054906101000a900473ffffffffffffffffffffffffffffffffffffffff1673ffffffffffffffffffffffffffffffffffffffff1661122790919063ffffffff16565b60068111156103d157fe5b60068111156103dc57fe5b141515610477576040517f08c379a000000000000000000000000000000000000000000000000000000000815260040180806020018281038252603e8152602001807f5468697320616374696f6e2063616e206f6e6c7920626520706572666f726d6581526020017f64206f6e20612070726f6a65637420696e20646576656c6f706d656e742e000081525060400191505060405180910390fd5b6104c285600260009054906101000a900473ffffffffffffffffffffffffffffffffffffffff1673ffffffffffffffffffffffffffffffffffffffff1661138c90919063ffffffff16565b15151561055d576040517f08c379a00000000000000000000000000000000000000000000000000000000081526004018080602001828103825260378152602001807f546865726520697320616c7265616479206120766f7465206f6e206d696c657381526020017f746f6e6520636f6d706c6574696f6e206163746976652e00000000000000000081525060400191505060405180910390fd5b6105a885600260009054906101000a900473ffffffffffffffffffffffffffffffffffffffff1673ffffffffffffffffffffffffffffffffffffffff1661151790919063ffffffff16565b151515610669576040517f08c379a00000000000000000000000000000000000000000000000000000000081526004018080602001828103825260558152602001807f43616e6e6f74207375626d6974206d696c6573746f6e6520636f6d706c65746981526020017f6f6e20696620746865726520697320616e2061637469766520766f746520746f81526020017f206368616e6765207468652074696d656c696e652e000000000000000000000081525060600191505060405180910390fd5b6106f5854260008088888080601f01602080910402602001604051908101604052809392919081815260200183838082843782019150505050505060016000600260009054906101000a900473ffffffffffffffffffffffffffffffffffffffff1673ffffffffffffffffffffffffffffffffffffffff166116a290979695949392919063ffffffff16565b5050505050565b610704611fdd565b60008060006060600080610716611fdd565b8973ffffffffffffffffffffffffffffffffffffffff1663bd02d0f58a60405160200180807f70726f6a6563742e6d696c6573746f6e65436f6d706c6574696f6e5375626d6981526020017f7373696f6e2e74696d657374616d700000000000000000000000000000000000815250602f018281526020019150506040516020818303038152906040526040518082805190602001908083835b6020831015156107d557805182526020820191506020810190506020830392506107b0565b6001836020036101000a03801982511681845116808217855250505050505090500191505060405180910390206040518263ffffffff167c0100000000000000000000000000000000000000000000000000000000028152600401808260001916600019168152602001915050602060405180830381600087803b15801561085c57600080fd5b505af1158015610870573d6000803e3d6000fd5b505050506040513d602081101561088657600080fd5b810190808051906020019092919050505096508973ffffffffffffffffffffffffffffffffffffffff1663bd02d0f58a60405160200180807f70726f6a6563742e6d696c6573746f6e65436f6d706c6574696f6e5375626d6981526020017f7373696f6e2e617070726f76616c436f756e74000000000000000000000000008152506033018281526020019150506040516020818303038152906040526040518082805190602001908083835b6020831015156109585780518252602082019150602081019050602083039250610933565b6001836020036101000a03801982511681845116808217855250505050505090500191505060405180910390206040518263ffffffff167c0100000000000000000000000000000000000000000000000000000000028152600401808260001916600019168152602001915050602060405180830381600087803b1580156109df57600080fd5b505af11580156109f3573d6000803e3d6000fd5b505050506040513d6020811015610a0957600080fd5b810190808051906020019092919050505095508973ffffffffffffffffffffffffffffffffffffffff1663bd02d0f58a60405160200180807f70726f6a6563742e6d696c6573746f6e65436f6d706c6574696f6e5375626d6981526020017f7373696f6e2e646973617070726f76616c436f756e74000000000000000000008152506036018281526020019150506040516020818303038152906040526040518082805190602001908083835b602083101515610adb5780518252602082019150602081019050602083039250610ab6565b6001836020036101000a03801982511681845116808217855250505050505090500191505060405180910390206040518263ffffffff167c0100000000000000000000000000000000000000000000000000000000028152600401808260001916600019168152602001915050602060405180830381600087803b158015610b6257600080fd5b505af1158015610b76573d6000803e3d6000fd5b505050506040513d6020811015610b8c57600080fd5b810190808051906020019092919050505094508973ffffffffffffffffffffffffffffffffffffffff1663986e791a8a60405160200180807f70726f6a6563742e6d696c6573746f6e65436f6d706c6574696f6e5375626d6981526020017f7373696f6e2e7265706f72740000000000000000000000000000000000000000815250602c018281526020019150506040516020818303038152906040526040518082805190602001908083835b602083101515610c5e5780518252602082019150602081019050602083039250610c39565b6001836020036101000a03801982511681845116808217855250505050505090500191505060405180910390206040518263ffffffff167c0100000000000000000000000000000000000000000000000000000000028152600401808260001916600019168152602001915050600060405180830381600087803b158015610ce557600080fd5b505af1158015610cf9573d6000803e3d6000fd5b505050506040513d6000823e3d601f19601f820116820180604052506020811015610d2357600080fd5b810190808051640100000000811115610d3b57600080fd5b82810190506020810184811115610d5157600080fd5b8151856001820283011164010000000082111715610d6e57600080fd5b505092919050505093508973ffffffffffffffffffffffffffffffffffffffff16637ae1cfca8a60405160200180807f70726f6a6563742e6d696c6573746f6e65436f6d706c6574696f6e5375626d6981526020017f7373696f6e2e6973416374697665000000000000000000000000000000000000815250602e018281526020019150506040516020818303038152906040526040518082805190602001908083835b602083101515610e375780518252602082019150602081019050602083039250610e12565b6001836020036101000a03801982511681845116808217855250505050505090500191505060405180910390206040518263ffffffff167c0100000000000000000000000000000000000000000000000000000000028152600401808260001916600019168152602001915050602060405180830381600087803b158015610ebe57600080fd5b505af1158015610ed2573d6000803e3d6000fd5b505050506040513d6020811015610ee857600080fd5b810190808051906020019092919050505092508973ffffffffffffffffffffffffffffffffffffffff16637ae1cfca8a60405160200180807f70726f6a6563742e6d696c6573746f6e65436f6d706c6574696f6e5375626d6981526020017f7373696f6e2e6861734661696c65640000000000000000000000000000000000815250602f018281526020019150506040516020818303038152906040526040518082805190602001908083835b602083101515610fba5780518252602082019150602081019050602083039250610f95565b6001836020036101000a03801982511681845116808217855250505050505090500191505060405180910390206040518263ffffffff167c0100000000000000000000000000000000000000000000000000000000028152600401808260001916600019168152602001915050602060405180830381600087803b15801561104157600080fd5b505af1158015611055573d6000803e3d6000fd5b505050506040513d602081101561106b57600080fd5b8101908080519060200190929190505050915060c060405190810160405280888152602001878152602001868152602001858152602001841515815260200183151581525090508097505050505050505092915050565b60008273ffffffffffffffffffffffffffffffffffffffff166321f8a7218360405160200180807f70726f6a6563742e646576656c6f7065720000000000000000000000000000008152506011018281526020019150506040516020818303038152906040526040518082805190602001908083835b60208310151561115d5780518252602082019150602081019050602083039250611138565b6001836020036101000a03801982511681845116808217855250505050505090500191505060405180910390206040518263ffffffff167c0100000000000000000000000000000000000000000000000000000000028152600401808260001916600019168152602001915050602060405180830381600087803b1580156111e457600080fd5b505af11580156111f8573d6000803e3d6000fd5b505050506040513d602081101561120e57600080fd5b8101908080519060200190929190505050905092915050565b60008273ffffffffffffffffffffffffffffffffffffffff1663bd02d0f58360405160200180807f70726f6a6563742e737461747573000000000000000000000000000000000000815250600e018281526020019150506040516020818303038152906040526040518082805190602001908083835b6020831015156112c2578051825260208201915060208101905060208303925061129d565b6001836020036101000a03801982511681845116808217855250505050505090500191505060405180910390206040518263ffffffff167c0100000000000000000000000000000000000000000000000000000000028152600401808260001916600019168152602001915050602060405180830381600087803b15801561134957600080fd5b505af115801561135d573d6000803e3d6000fd5b505050506040513d602081101561137357600080fd5b8101908080519060200190929190505050905092915050565b60008273ffffffffffffffffffffffffffffffffffffffff16637ae1cfca8360405160200180807f70726f6a6563742e6d696c6573746f6e65436f6d706c6574696f6e5375626d6981526020017f7373696f6e2e6973416374697665000000000000000000000000000000000000815250602e018281526020019150506040516020818303038152906040526040518082805190602001908083835b60208310151561144d5780518252602082019150602081019050602083039250611428565b6001836020036101000a03801982511681845116808217855250505050505090500191505060405180910390206040518263ffffffff167c0100000000000000000000000000000000000000000000000000000000028152600401808260001916600019168152602001915050602060405180830381600087803b1580156114d457600080fd5b505af11580156114e8573d6000803e3d6000fd5b505050506040513d60208110156114fe57600080fd5b8101908080519060200190929190505050905092915050565b60008273ffffffffffffffffffffffffffffffffffffffff16637ae1cfca8360405160200180807f70726f6a6563742e74696d656c696e6550726f706f73616c2e6973416374697681526020017f65000000000000000000000000000000000000000000000000000000000000008152506021018281526020019150506040516020818303038152906040526040518082805190602001908083835b6020831015156115d857805182526020820191506020810190506020830392506115b3565b6001836020036101000a03801982511681845116808217855250505050505090500191505060405180910390206040518263ffffffff167c0100000000000000000000000000000000000000000000000000000000028152600401808260001916600019168152602001915050602060405180830381600087803b15801561165f57600080fd5b505af1158015611673573d6000803e3d6000fd5b505050506040513d602081101561168957600080fd5b8101908080519060200190929190505050905092915050565b6116ad8888886116ee565b6116b8888887611859565b6116c38888866119c4565b6116ce888885611b2f565b6116d9888884611cff565b6116e4888883611e6e565b5050505050505050565b8273ffffffffffffffffffffffffffffffffffffffff1663e2a4853a8360405160200180807f70726f6a6563742e6d696c6573746f6e65436f6d706c6574696f6e5375626d6981526020017f7373696f6e2e74696d657374616d700000000000000000000000000000000000815250602f018281526020019150506040516020818303038152906040526040518082805190602001908083835b6020831015156117ad5780518252602082019150602081019050602083039250611788565b6001836020036101000a0380198251168184511680821785525050505050509050019150506040518091039020836040518363ffffffff167c010000000000000000000000000000000000000000000000000000000002815260040180836000191660001916815260200182815260200192505050600060405180830381600087803b15801561183c57600080fd5b505af1158015611850573d6000803e3d6000fd5b50505050505050565b8273ffffffffffffffffffffffffffffffffffffffff1663e2a4853a8360405160200180807f70726f6a6563742e6d696c6573746f6e65436f6d706c6574696f6e5375626d6981526020017f7373696f6e2e617070726f76616c436f756e74000000000000000000000000008152506033018281526020019150506040516020818303038152906040526040518082805190602001908083835b60208310151561191857805182526020820191506020810190506020830392506118f3565b6001836020036101000a0380198251168184511680821785525050505050509050019150506040518091039020836040518363ffffffff167c010000000000000000000000000000000000000000000000000000000002815260040180836000191660001916815260200182815260200192505050600060405180830381600087803b1580156119a757600080fd5b505af11580156119bb573d6000803e3d6000fd5b50505050505050565b8273ffffffffffffffffffffffffffffffffffffffff1663e2a4853a8360405160200180807f70726f6a6563742e6d696c6573746f6e65436f6d706c6574696f6e5375626d6981526020017f7373696f6e2e646973617070726f76616c436f756e74000000000000000000008152506036018281526020019150506040516020818303038152906040526040518082805190602001908083835b602083101515611a835780518252602082019150602081019050602083039250611a5e565b6001836020036101000a0380198251168184511680821785525050505050509050019150506040518091039020836040518363ffffffff167c010000000000000000000000000000000000000000000000000000000002815260040180836000191660001916815260200182815260200192505050600060405180830381600087803b158015611b1257600080fd5b505af1158015611b26573d6000803e3d6000fd5b50505050505050565b8273ffffffffffffffffffffffffffffffffffffffff16636e8995508360405160200180807f70726f6a6563742e6d696c6573746f6e65436f6d706c6574696f6e5375626d6981526020017f7373696f6e2e7265706f72740000000000000000000000000000000000000000815250602c018281526020019150506040516020818303038152906040526040518082805190602001908083835b602083101515611bee5780518252602082019150602081019050602083039250611bc9565b6001836020036101000a0380198251168184511680821785525050505050509050019150506040518091039020836040518363ffffffff167c010000000000000000000000000000000000000000000000000000000002815260040180836000191660001916815260200180602001828103825283818151815260200191508051906020019080838360005b83811015611c95578082015181840152602081019050611c7a565b50505050905090810190601f168015611cc25780820380516001836020036101000a031916815260200191505b509350505050600060405180830381600087803b158015611ce257600080fd5b505af1158015611cf6573d6000803e3d6000fd5b50505050505050565b8273ffffffffffffffffffffffffffffffffffffffff1663abfdcced8360405160200180807f70726f6a6563742e6d696c6573746f6e65436f6d706c6574696f6e5375626d6981526020017f7373696f6e2e6973416374697665000000000000000000000000000000000000815250602e018281526020019150506040516020818303038152906040526040518082805190602001908083835b602083101515611dbe5780518252602082019150602081019050602083039250611d99565b6001836020036101000a0380198251168184511680821785525050505050509050019150506040518091039020836040518363ffffffff167c01000000000000000000000000000000000000000000000000000000000281526004018083600019166000191681526020018215151515815260200192505050600060405180830381600087803b158015611e5157600080fd5b505af1158015611e65573d6000803e3d6000fd5b50505050505050565b8273ffffffffffffffffffffffffffffffffffffffff1663abfdcced8360405160200180807f70726f6a6563742e6d696c6573746f6e65436f6d706c6574696f6e5375626d6981526020017f7373696f6e2e6861734661696c65640000000000000000000000000000000000815250602f018281526020019150506040516020818303038152906040526040518082805190602001908083835b602083101515611f2d5780518252602082019150602081019050602083039250611f08565b6001836020036101000a0380198251168184511680821785525050505050509050019150506040518091039020836040518363ffffffff167c01000000000000000000000000000000000000000000000000000000000281526004018083600019166000191681526020018215151515815260200192505050600060405180830381600087803b158015611fc057600080fd5b505af1158015611fd4573d6000803e3d6000fd5b50505050505050565b60c0604051908101604052806000815260200160008152602001600081526020016060815260200160001515815260200160001515815250905600a165627a7a7230582031336639e108a6023f18a6da4ea796a73144447f177edf3ed5112f6b6bcad3c00029",
  "source": "pragma solidity ^0.4.24;\n\nimport \"../FundingStorage.sol\";\nimport \"./ProjectBase.sol\";\n\ncontract ProjectMilestoneCompletion is ProjectBase {\n\n    constructor(address _fundingStorage, bool _inTest) public Testable(_inTest) {\n        fundingStorage = _fundingStorage;\n    }\n\n    function submitMilestoneCompletion(uint _projectId, string _report) external onlyProjectDeveloper(_projectId) onlyInDevelopmentProject(_projectId) {\n        // Can only submit for milestone completion if there is not already a vote on milestone completion\n        require(!fundingStorage.getMilestoneCompletionSubmissionIsActive(_projectId), \"There is already a vote on milestone completion active.\");\n        // Can only submit for milestone completion if there is not already a vote on a timeline proposal\n        require(!fundingStorage.getTimelineProposalIsActive(_projectId), \"Cannot submit milestone completion if there is an active vote to change the timeline.\");\n\n        fundingStorage.setMilestoneCompletionSubmission(_projectId, now, 0, 0, _report, true, false);\n    }\n\n    function getMilestoneCompletionSubmission(uint _projectId) external view returns (uint timestamp, uint approvalCount, uint disapprovalCount, string report, bool isActive, bool hasFailed) {\n        ProjectStorageAccess.MilestoneCompletionSubmission memory submission = fundingStorage.getMilestoneCompletionSubmission(_projectId);\n\n        return (submission.timestamp, submission.approvalCount, submission.disapprovalCount, submission.report, submission.isActive, submission.hasFailed);\n    }\n}\n",
  "sourcePath": "/home/jordan/Projects/hyperbridge/funding-protocol/smart-contracts/ethereum/contracts/project/ProjectMilestoneCompletion.sol",
  "compiler": {
    "name": "solc",
    "version": "0.4.24+commit.e67f0147.Emscripten.clang"
  },
  "schemaVersion": "2.0.1",
  "updatedAt": "2018-07-26T16:56:23.137Z"
}