{
  "contractName": "ProjectContributionTier",
  "abi": [
    {
      "constant": false,
      "inputs": [
        {
          "name": "_time",
          "type": "uint256"
        }
      ],
      "name": "setTestTime",
      "outputs": [],
      "payable": false,
      "stateMutability": "nonpayable",
      "type": "function"
    },
    {
      "inputs": [
        {
          "name": "_fundingStorage",
          "type": "address"
        },
        {
          "name": "_inTest",
          "type": "bool"
        }
      ],
      "payable": false,
      "stateMutability": "nonpayable",
      "type": "constructor"
    },
    {
      "constant": false,
      "inputs": [
        {
          "name": "_projectId",
          "type": "uint256"
        },
        {
          "name": "_contributorLimit",
          "type": "uint256"
        },
        {
          "name": "_maxContribution",
          "type": "uint256"
        },
        {
          "name": "_minContribution",
          "type": "uint256"
        },
        {
          "name": "_rewards",
          "type": "string"
        }
      ],
      "name": "addContributionTier",
      "outputs": [],
      "payable": false,
      "stateMutability": "nonpayable",
      "type": "function"
    },
    {
      "constant": false,
      "inputs": [
        {
          "name": "_projectId",
          "type": "uint256"
        },
        {
          "name": "_index",
          "type": "uint256"
        },
        {
          "name": "_contributorLimit",
          "type": "uint256"
        },
        {
          "name": "_maxContribution",
          "type": "uint256"
        },
        {
          "name": "_minContribution",
          "type": "uint256"
        },
        {
          "name": "_rewards",
          "type": "string"
        }
      ],
      "name": "editContributionTier",
      "outputs": [],
      "payable": false,
      "stateMutability": "nonpayable",
      "type": "function"
    },
    {
      "constant": false,
      "inputs": [
        {
          "name": "_projectId",
          "type": "uint256"
        }
      ],
      "name": "clearPendingContributionTiers",
      "outputs": [],
      "payable": false,
      "stateMutability": "nonpayable",
      "type": "function"
    },
    {
      "constant": true,
      "inputs": [
        {
          "name": "_projectId",
          "type": "uint256"
        }
      ],
      "name": "getPendingContributionTiersLength",
      "outputs": [
        {
          "name": "length",
          "type": "uint256"
        }
      ],
      "payable": false,
      "stateMutability": "view",
      "type": "function"
    },
    {
      "constant": true,
      "inputs": [
        {
          "name": "_projectId",
          "type": "uint256"
        },
        {
          "name": "_index",
          "type": "uint256"
        }
      ],
      "name": "getPendingContributionTier",
      "outputs": [
        {
          "name": "contributorLimit",
          "type": "uint256"
        },
        {
          "name": "maxContribution",
          "type": "uint256"
        },
        {
          "name": "minContribution",
          "type": "uint256"
        },
        {
          "name": "rewards",
          "type": "string"
        }
      ],
      "payable": false,
      "stateMutability": "view",
      "type": "function"
    },
    {
      "constant": true,
      "inputs": [
        {
          "name": "_projectId",
          "type": "uint256"
        }
      ],
      "name": "getContributionTiersLength",
      "outputs": [
        {
          "name": "length",
          "type": "uint256"
        }
      ],
      "payable": false,
      "stateMutability": "view",
      "type": "function"
    },
    {
      "constant": true,
      "inputs": [
        {
          "name": "_projectId",
          "type": "uint256"
        },
        {
          "name": "_index",
          "type": "uint256"
        }
      ],
      "name": "getContributionTier",
      "outputs": [
        {
          "name": "contributorLimit",
          "type": "uint256"
        },
        {
          "name": "maxContribution",
          "type": "uint256"
        },
        {
          "name": "minContribution",
          "type": "uint256"
        },
        {
          "name": "rewards",
          "type": "string"
        }
      ],
      "payable": false,
      "stateMutability": "view",
      "type": "function"
    }
  ],
  "bytecode": "0x608060405234801561001057600080fd5b50604051604080612de9833981018060405281019080805190602001909291908051906020019092919050505080806000806101000a81548160ff0219169083151502179055505081600260006101000a81548173ffffffffffffffffffffffffffffffffffffffff021916908373ffffffffffffffffffffffffffffffffffffffff1602179055505050612d3f806100aa6000396000f30060806040526004361061008e576000357c0100000000000000000000000000000000000000000000000000000000900463ffffffff168063097c74061461009357806331151cde146100c0578063452a47ba14610123578063590e866b1461016457806359f1e43b146102295780635ca38b4814610256578063739c2b8c14610297578063cb23166414610304575b600080fd5b34801561009f57600080fd5b506100be600480360381019080803590602001909291905050506103c9565b005b3480156100cc57600080fd5b50610121600480360381019080803590602001909291908035906020019092919080359060200190929190803590602001909291908035906020019082018035906020019190919293919293905050506103ed565b005b34801561012f57600080fd5b5061014e6004803603810190808035906020019092919050505061069a565b6040518082815260200191505060405180910390f35b34801561017057600080fd5b5061019960048036038101908080359060200190929190803590602001909291905050506106f1565b6040518085815260200184815260200183815260200180602001828103825283818151815260200191508051906020019080838360005b838110156101eb5780820151818401526020810190506101d0565b50505050905090810190601f1680156102185780820380516001836020036101000a031916815260200191505b509550505050505060405180910390f35b34801561023557600080fd5b5061025460048036038101908080359060200190929190505050610778565b005b34801561026257600080fd5b50610281600480360381019080803590602001909291905050506109e9565b6040518082815260200191505060405180910390f35b3480156102a357600080fd5b506103026004803603810190808035906020019092919080359060200190929190803590602001909291908035906020019092919080359060200190929190803590602001908201803590602001919091929391929390505050610a40565b005b34801561031057600080fd5b506103396004803603810190808035906020019092919080359060200190929190505050610cf0565b6040518085815260200184815260200183815260200180602001828103825283818151815260200191508051906020019080838360005b8381101561038b578082015181840152602081019050610370565b50505050905090810190601f1680156103b85780820380516001836020036101000a031916815260200191505b509550505050505060405180910390f35b6000809054906101000a900460ff1615156103e357600080fd5b8060018190555050565b8561043981600260009054906101000a900473ffffffffffffffffffffffffffffffffffffffff1673ffffffffffffffffffffffffffffffffffffffff16610d7790919063ffffffff16565b73ffffffffffffffffffffffffffffffffffffffff163373ffffffffffffffffffffffffffffffffffffffff16141515610501576040517f08c379a00000000000000000000000000000000000000000000000000000000081526004018080602001828103825260398152602001807f596f75206d757374206265207468652070726f6a65637420646576656c6f706581526020017f7220746f20706572666f726d207468697320616374696f6e2e0000000000000081525060400191505060405180910390fd5b866001600681111561050f57fe5b61055a82600260009054906101000a900473ffffffffffffffffffffffffffffffffffffffff1673ffffffffffffffffffffffffffffffffffffffff16610edc90919063ffffffff16565b600681111561056557fe5b600681111561057057fe5b14151561060b576040517f08c379a00000000000000000000000000000000000000000000000000000000081526004018080602001828103825260358152602001807f5468697320616374696f6e2063616e206f6e6c7920626520706572666f726d6581526020017f64206f6e20612064726166742070726f6a6563742e000000000000000000000081525060400191505060405180910390fd5b6106908888888888888080601f016020809104026020016040519081016040528093929190818152602001838380828437820191505050505050600260009054906101000a900473ffffffffffffffffffffffffffffffffffffffff1673ffffffffffffffffffffffffffffffffffffffff166110419095949392919063ffffffff16565b5050505050505050565b60006106e782600260009054906101000a900473ffffffffffffffffffffffffffffffffffffffff1673ffffffffffffffffffffffffffffffffffffffff1661107590919063ffffffff16565b9050809050919050565b60008060006060610700612cea565b61074d8787600260009054906101000a900473ffffffffffffffffffffffffffffffffffffffff1673ffffffffffffffffffffffffffffffffffffffff166111da9092919063ffffffff16565b9050806000015181604001518260200151836060015180905094509450945094505092959194509250565b806107c481600260009054906101000a900473ffffffffffffffffffffffffffffffffffffffff1673ffffffffffffffffffffffffffffffffffffffff16610d7790919063ffffffff16565b73ffffffffffffffffffffffffffffffffffffffff163373ffffffffffffffffffffffffffffffffffffffff1614151561088c576040517f08c379a00000000000000000000000000000000000000000000000000000000081526004018080602001828103825260398152602001807f596f75206d757374206265207468652070726f6a65637420646576656c6f706581526020017f7220746f20706572666f726d207468697320616374696f6e2e0000000000000081525060400191505060405180910390fd5b816001600681111561089a57fe5b6108e582600260009054906101000a900473ffffffffffffffffffffffffffffffffffffffff1673ffffffffffffffffffffffffffffffffffffffff16610edc90919063ffffffff16565b60068111156108f057fe5b60068111156108fb57fe5b141515610996576040517f08c379a00000000000000000000000000000000000000000000000000000000081526004018080602001828103825260358152602001807f5468697320616374696f6e2063616e206f6e6c7920626520706572666f726d6581526020017f64206f6e20612064726166742070726f6a6563742e000000000000000000000081525060400191505060405180910390fd5b6109e4836000600260009054906101000a900473ffffffffffffffffffffffffffffffffffffffff1673ffffffffffffffffffffffffffffffffffffffff16611a9d9092919063ffffffff16565b505050565b6000610a3682600260009054906101000a900473ffffffffffffffffffffffffffffffffffffffff1673ffffffffffffffffffffffffffffffffffffffff16611c0890919063ffffffff16565b9050809050919050565b86610a8c81600260009054906101000a900473ffffffffffffffffffffffffffffffffffffffff1673ffffffffffffffffffffffffffffffffffffffff16610d7790919063ffffffff16565b73ffffffffffffffffffffffffffffffffffffffff163373ffffffffffffffffffffffffffffffffffffffff16141515610b54576040517f08c379a00000000000000000000000000000000000000000000000000000000081526004018080602001828103825260398152602001807f596f75206d757374206265207468652070726f6a65637420646576656c6f706581526020017f7220746f20706572666f726d207468697320616374696f6e2e0000000000000081525060400191505060405180910390fd5b8760016006811115610b6257fe5b610bad82600260009054906101000a900473ffffffffffffffffffffffffffffffffffffffff1673ffffffffffffffffffffffffffffffffffffffff16610edc90919063ffffffff16565b6006811115610bb857fe5b6006811115610bc357fe5b141515610c5e576040517f08c379a00000000000000000000000000000000000000000000000000000000081526004018080602001828103825260358152602001807f5468697320616374696f6e2063616e206f6e6c7920626520706572666f726d6581526020017f64206f6e20612064726166742070726f6a6563742e000000000000000000000081525060400191505060405180910390fd5b610ce5898989898989898080601f016020809104026020016040519081016040528093929190818152602001838380828437820191505050505050600260009054906101000a900473ffffffffffffffffffffffffffffffffffffffff1673ffffffffffffffffffffffffffffffffffffffff16611d93909695949392919063ffffffff16565b505050505050505050565b60008060006060610cff612cea565b610d4c8787600260009054906101000a900473ffffffffffffffffffffffffffffffffffffffff1673ffffffffffffffffffffffffffffffffffffffff16611dcc9092919063ffffffff16565b9050806000015181604001518260200151836060015180905094509450945094505092959194509250565b60008273ffffffffffffffffffffffffffffffffffffffff166321f8a7218360405160200180807f70726f6a6563742e646576656c6f7065720000000000000000000000000000008152506011018281526020019150506040516020818303038152906040526040518082805190602001908083835b602083101515610e125780518252602082019150602081019050602083039250610ded565b6001836020036101000a03801982511681845116808217855250505050505090500191505060405180910390206040518263ffffffff167c0100000000000000000000000000000000000000000000000000000000028152600401808260001916600019168152602001915050602060405180830381600087803b158015610e9957600080fd5b505af1158015610ead573d6000803e3d6000fd5b505050506040513d6020811015610ec357600080fd5b8101908080519060200190929190505050905092915050565b60008273ffffffffffffffffffffffffffffffffffffffff1663bd02d0f58360405160200180807f70726f6a6563742e737461747573000000000000000000000000000000000000815250600e018281526020019150506040516020818303038152906040526040518082805190602001908083835b602083101515610f775780518252602082019150602081019050602083039250610f52565b6001836020036101000a03801982511681845116808217855250505050505090500191505060405180910390206040518263ffffffff167c0100000000000000000000000000000000000000000000000000000000028152600401808260001916600019168152602001915050602060405180830381600087803b158015610ffe57600080fd5b505af1158015611012573d6000803e3d6000fd5b505050506040513d602081101561102857600080fd5b8101908080519060200190929190505050905092915050565b600061104d8787611c08565b905061105e87878388888888611d93565b61106c878760018401611a9d565b50505050505050565b60008273ffffffffffffffffffffffffffffffffffffffff1663bd02d0f58360405160200180807f70726f6a6563742e636f6e747269627574696f6e54696572732e6c656e6774688152506020018281526020019150506040516020818303038152906040526040518082805190602001908083835b60208310151561111057805182526020820191506020810190506020830392506110eb565b6001836020036101000a03801982511681845116808217855250505050505090500191505060405180910390206040518263ffffffff167c0100000000000000000000000000000000000000000000000000000000028152600401808260001916600019168152602001915050602060405180830381600087803b15801561119757600080fd5b505af11580156111ab573d6000803e3d6000fd5b505050506040513d60208110156111c157600080fd5b8101908080519060200190929190505050905092915050565b6111e2612cea565b600080600060606111f1612cea565b8873ffffffffffffffffffffffffffffffffffffffff1663bd02d0f58960405160200180807f70726f6a6563742e636f6e747269627574696f6e54696572732e6c656e6774688152506020018281526020019150506040516020818303038152906040526040518082805190602001908083835b60208310151561128a5780518252602082019150602081019050602083039250611265565b6001836020036101000a03801982511681845116808217855250505050505090500191505060405180910390206040518263ffffffff167c0100000000000000000000000000000000000000000000000000000000028152600401808260001916600019168152602001915050602060405180830381600087803b15801561131157600080fd5b505af1158015611325573d6000803e3d6000fd5b505050506040513d602081101561133b57600080fd5b8101908080519060200190929190505050871015156113e8576040517f08c379a00000000000000000000000000000000000000000000000000000000081526004018080602001828103825260258152602001807f496e646578206973206f757473696465206f662061636365737369626c65207281526020017f616e67652e00000000000000000000000000000000000000000000000000000081525060400191505060405180910390fd5b8873ffffffffffffffffffffffffffffffffffffffff1663bd02d0f5888a60405160200180807f70726f6a6563742e636f6e747269627574696f6e54696572732e636f6e74726981526020017f6275746f724c696d697400000000000000000000000000000000000000000000815250602a01838152602001828152602001925050506040516020818303038152906040526040518082805190602001908083835b6020831015156114af578051825260208201915060208101905060208303925061148a565b6001836020036101000a03801982511681845116808217855250505050505090500191505060405180910390206040518263ffffffff167c0100000000000000000000000000000000000000000000000000000000028152600401808260001916600019168152602001915050602060405180830381600087803b15801561153657600080fd5b505af115801561154a573d6000803e3d6000fd5b505050506040513d602081101561156057600080fd5b810190808051906020019092919050505094508873ffffffffffffffffffffffffffffffffffffffff1663bd02d0f5888a60405160200180807f70726f6a6563742e636f6e747269627574696f6e54696572732e6d696e436f6e81526020017f747269627574696f6e0000000000000000000000000000000000000000000000815250602901838152602001828152602001925050506040516020818303038152906040526040518082805190602001908083835b60208310151561163a5780518252602082019150602081019050602083039250611615565b6001836020036101000a03801982511681845116808217855250505050505090500191505060405180910390206040518263ffffffff167c0100000000000000000000000000000000000000000000000000000000028152600401808260001916600019168152602001915050602060405180830381600087803b1580156116c157600080fd5b505af11580156116d5573d6000803e3d6000fd5b505050506040513d60208110156116eb57600080fd5b810190808051906020019092919050505093508873ffffffffffffffffffffffffffffffffffffffff1663bd02d0f5888a60405160200180807f70726f6a6563742e636f6e747269627574696f6e54696572732e6d6178436f6e81526020017f747269627574696f6e0000000000000000000000000000000000000000000000815250602901838152602001828152602001925050506040516020818303038152906040526040518082805190602001908083835b6020831015156117c557805182526020820191506020810190506020830392506117a0565b6001836020036101000a03801982511681845116808217855250505050505090500191505060405180910390206040518263ffffffff167c0100000000000000000000000000000000000000000000000000000000028152600401808260001916600019168152602001915050602060405180830381600087803b15801561184c57600080fd5b505af1158015611860573d6000803e3d6000fd5b505050506040513d602081101561187657600080fd5b810190808051906020019092919050505092508873ffffffffffffffffffffffffffffffffffffffff1663986e791a888a60405160200180807f70726f6a6563742e636f6e747269627574696f6e54696572732e72657761726481526020017f7300000000000000000000000000000000000000000000000000000000000000815250602101838152602001828152602001925050506040516020818303038152906040526040518082805190602001908083835b602083101515611950578051825260208201915060208101905060208303925061192b565b6001836020036101000a03801982511681845116808217855250505050505090500191505060405180910390206040518263ffffffff167c0100000000000000000000000000000000000000000000000000000000028152600401808260001916600019168152602001915050600060405180830381600087803b1580156119d757600080fd5b505af11580156119eb573d6000803e3d6000fd5b505050506040513d6000823e3d601f19601f820116820180604052506020811015611a1557600080fd5b810190808051640100000000811115611a2d57600080fd5b82810190506020810184811115611a4357600080fd5b8151856001820283011164010000000082111715611a6057600080fd5b5050929190505050915060806040519081016040528086815260200185815260200184815260200183815250905080955050505050509392505050565b8273ffffffffffffffffffffffffffffffffffffffff1663e2a4853a8360405160200180807f70726f6a6563742e70656e64696e67436f6e747269627574696f6e546965727381526020017f2e6c656e677468000000000000000000000000000000000000000000000000008152506027018281526020019150506040516020818303038152906040526040518082805190602001908083835b602083101515611b5c5780518252602082019150602081019050602083039250611b37565b6001836020036101000a0380198251168184511680821785525050505050509050019150506040518091039020836040518363ffffffff167c010000000000000000000000000000000000000000000000000000000002815260040180836000191660001916815260200182815260200192505050600060405180830381600087803b158015611beb57600080fd5b505af1158015611bff573d6000803e3d6000fd5b50505050505050565b60008273ffffffffffffffffffffffffffffffffffffffff1663bd02d0f58360405160200180807f70726f6a6563742e70656e64696e67436f6e747269627574696f6e546965727381526020017f2e6c656e677468000000000000000000000000000000000000000000000000008152506027018281526020019150506040516020818303038152906040526040518082805190602001908083835b602083101515611cc95780518252602082019150602081019050602083039250611ca4565b6001836020036101000a03801982511681845116808217855250505050505090500191505060405180910390206040518263ffffffff167c0100000000000000000000000000000000000000000000000000000000028152600401808260001916600019168152602001915050602060405180830381600087803b158015611d5057600080fd5b505af1158015611d64573d6000803e3d6000fd5b505050506040513d6020811015611d7a57600080fd5b8101908080519060200190929190505050905092915050565b611d9f878787876126b5565b611dab87878786612829565b611db78787878561299d565b611dc387878784612b11565b50505050505050565b611dd4612cea565b60008060006060611de3612cea565b8873ffffffffffffffffffffffffffffffffffffffff1663bd02d0f58960405160200180807f70726f6a6563742e70656e64696e67436f6e747269627574696f6e546965727381526020017f2e6c656e677468000000000000000000000000000000000000000000000000008152506027018281526020019150506040516020818303038152906040526040518082805190602001908083835b602083101515611ea25780518252602082019150602081019050602083039250611e7d565b6001836020036101000a03801982511681845116808217855250505050505090500191505060405180910390206040518263ffffffff167c0100000000000000000000000000000000000000000000000000000000028152600401808260001916600019168152602001915050602060405180830381600087803b158015611f2957600080fd5b505af1158015611f3d573d6000803e3d6000fd5b505050506040513d6020811015611f5357600080fd5b810190808051906020019092919050505087101515612000576040517f08c379a00000000000000000000000000000000000000000000000000000000081526004018080602001828103825260258152602001807f496e646578206973206f757473696465206f662061636365737369626c65207281526020017f616e67652e00000000000000000000000000000000000000000000000000000081525060400191505060405180910390fd5b8873ffffffffffffffffffffffffffffffffffffffff1663bd02d0f5888a60405160200180807f70726f6a6563742e70656e64696e67436f6e747269627574696f6e546965727381526020017f2e636f6e7472696275746f724c696d6974000000000000000000000000000000815250603101838152602001828152602001925050506040516020818303038152906040526040518082805190602001908083835b6020831015156120c757805182526020820191506020810190506020830392506120a2565b6001836020036101000a03801982511681845116808217855250505050505090500191505060405180910390206040518263ffffffff167c0100000000000000000000000000000000000000000000000000000000028152600401808260001916600019168152602001915050602060405180830381600087803b15801561214e57600080fd5b505af1158015612162573d6000803e3d6000fd5b505050506040513d602081101561217857600080fd5b810190808051906020019092919050505094508873ffffffffffffffffffffffffffffffffffffffff1663bd02d0f5888a60405160200180807f70726f6a6563742e70656e64696e67436f6e747269627574696f6e546965727381526020017f2e6d696e436f6e747269627574696f6e00000000000000000000000000000000815250603001838152602001828152602001925050506040516020818303038152906040526040518082805190602001908083835b602083101515612252578051825260208201915060208101905060208303925061222d565b6001836020036101000a03801982511681845116808217855250505050505090500191505060405180910390206040518263ffffffff167c0100000000000000000000000000000000000000000000000000000000028152600401808260001916600019168152602001915050602060405180830381600087803b1580156122d957600080fd5b505af11580156122ed573d6000803e3d6000fd5b505050506040513d602081101561230357600080fd5b810190808051906020019092919050505093508873ffffffffffffffffffffffffffffffffffffffff1663bd02d0f5888a60405160200180807f70726f6a6563742e70656e64696e67436f6e747269627574696f6e546965727381526020017f2e6d6178436f6e747269627574696f6e00000000000000000000000000000000815250603001838152602001828152602001925050506040516020818303038152906040526040518082805190602001908083835b6020831015156123dd57805182526020820191506020810190506020830392506123b8565b6001836020036101000a03801982511681845116808217855250505050505090500191505060405180910390206040518263ffffffff167c0100000000000000000000000000000000000000000000000000000000028152600401808260001916600019168152602001915050602060405180830381600087803b15801561246457600080fd5b505af1158015612478573d6000803e3d6000fd5b505050506040513d602081101561248e57600080fd5b810190808051906020019092919050505092508873ffffffffffffffffffffffffffffffffffffffff1663986e791a888a60405160200180807f70726f6a6563742e70656e64696e67436f6e747269627574696f6e546965727381526020017f2e72657761726473000000000000000000000000000000000000000000000000815250602801838152602001828152602001925050506040516020818303038152906040526040518082805190602001908083835b6020831015156125685780518252602082019150602081019050602083039250612543565b6001836020036101000a03801982511681845116808217855250505050505090500191505060405180910390206040518263ffffffff167c0100000000000000000000000000000000000000000000000000000000028152600401808260001916600019168152602001915050600060405180830381600087803b1580156125ef57600080fd5b505af1158015612603573d6000803e3d6000fd5b505050506040513d6000823e3d601f19601f82011682018060405250602081101561262d57600080fd5b81019080805164010000000081111561264557600080fd5b8281019050602081018481111561265b57600080fd5b815185600182028301116401000000008211171561267857600080fd5b5050929190505050915060806040519081016040528086815260200185815260200184815260200183815250905080955050505050509392505050565b8373ffffffffffffffffffffffffffffffffffffffff1663e2a4853a838560405160200180807f70726f6a6563742e70656e64696e67436f6e747269627574696f6e546965727381526020017f2e636f6e7472696275746f724c696d6974000000000000000000000000000000815250603101838152602001828152602001925050506040516020818303038152906040526040518082805190602001908083835b60208310151561277c5780518252602082019150602081019050602083039250612757565b6001836020036101000a0380198251168184511680821785525050505050509050019150506040518091039020836040518363ffffffff167c010000000000000000000000000000000000000000000000000000000002815260040180836000191660001916815260200182815260200192505050600060405180830381600087803b15801561280b57600080fd5b505af115801561281f573d6000803e3d6000fd5b5050505050505050565b8373ffffffffffffffffffffffffffffffffffffffff1663e2a4853a838560405160200180807f70726f6a6563742e70656e64696e67436f6e747269627574696f6e546965727381526020017f2e6d6178436f6e747269627574696f6e00000000000000000000000000000000815250603001838152602001828152602001925050506040516020818303038152906040526040518082805190602001908083835b6020831015156128f057805182526020820191506020810190506020830392506128cb565b6001836020036101000a0380198251168184511680821785525050505050509050019150506040518091039020836040518363ffffffff167c010000000000000000000000000000000000000000000000000000000002815260040180836000191660001916815260200182815260200192505050600060405180830381600087803b15801561297f57600080fd5b505af1158015612993573d6000803e3d6000fd5b5050505050505050565b8373ffffffffffffffffffffffffffffffffffffffff1663e2a4853a838560405160200180807f70726f6a6563742e70656e64696e67436f6e747269627574696f6e546965727381526020017f2e6d696e436f6e747269627574696f6e00000000000000000000000000000000815250603001838152602001828152602001925050506040516020818303038152906040526040518082805190602001908083835b602083101515612a645780518252602082019150602081019050602083039250612a3f565b6001836020036101000a0380198251168184511680821785525050505050509050019150506040518091039020836040518363ffffffff167c010000000000000000000000000000000000000000000000000000000002815260040180836000191660001916815260200182815260200192505050600060405180830381600087803b158015612af357600080fd5b505af1158015612b07573d6000803e3d6000fd5b5050505050505050565b8373ffffffffffffffffffffffffffffffffffffffff16636e899550838560405160200180807f70726f6a6563742e70656e64696e67436f6e747269627574696f6e546965727381526020017f2e72657761726473000000000000000000000000000000000000000000000000815250602801838152602001828152602001925050506040516020818303038152906040526040518082805190602001908083835b602083101515612bd85780518252602082019150602081019050602083039250612bb3565b6001836020036101000a0380198251168184511680821785525050505050509050019150506040518091039020836040518363ffffffff167c010000000000000000000000000000000000000000000000000000000002815260040180836000191660001916815260200180602001828103825283818151815260200191508051906020019080838360005b83811015612c7f578082015181840152602081019050612c64565b50505050905090810190601f168015612cac5780820380516001836020036101000a031916815260200191505b509350505050600060405180830381600087803b158015612ccc57600080fd5b505af1158015612ce0573d6000803e3d6000fd5b5050505050505050565b6080604051908101604052806000815260200160008152602001600081526020016060815250905600a165627a7a72305820c9475cedcd484e847c9d75dabf7f40e28257f4a16896323173e871ab9da8b0ca0029",
  "source": "pragma solidity ^0.4.24;\n\nimport \"../FundingStorage.sol\";\nimport \"./ProjectBase.sol\";\n\ncontract ProjectContributionTier is ProjectBase {\n\n    constructor(address _fundingStorage, bool _inTest) public Testable(_inTest) {\n        fundingStorage = _fundingStorage;\n    }\n\n    function addContributionTier(\n        uint _projectId,\n        uint _contributorLimit,\n        uint _maxContribution,\n        uint _minContribution,\n        string _rewards\n    )\n        external\n        onlyProjectDeveloper(_projectId)\n        onlyDraftProject(_projectId)\n    {\n        fundingStorage.pushPendingContributionTier(_projectId, _contributorLimit, _maxContribution, _minContribution, _rewards);\n    }\n\n    function editContributionTier(\n        uint _projectId,\n        uint _index,\n        uint _contributorLimit,\n        uint _maxContribution,\n        uint _minContribution,\n        string _rewards\n    )\n        external\n        onlyProjectDeveloper(_projectId)\n        onlyDraftProject(_projectId)\n    {\n        fundingStorage.setPendingContributionTier(_projectId, _index, _contributorLimit, _maxContribution, _minContribution, _rewards);\n    }\n\n    function clearPendingContributionTiers(uint _projectId) external onlyProjectDeveloper(_projectId) onlyDraftProject(_projectId) {\n        fundingStorage.setPendingContributionTiersLength(_projectId, 0);\n    }\n\n    function getPendingContributionTiersLength(uint _projectId) external view returns (uint length) {\n        length = fundingStorage.getPendingContributionTiersLength(_projectId);\n        return length;\n    }\n\n    function getPendingContributionTier(uint _projectId, uint _index) external view returns (uint contributorLimit, uint maxContribution, uint minContribution, string rewards) {\n        ProjectStorageAccess.ContributionTier memory tier = fundingStorage.getPendingContributionTier(_projectId, _index);\n\n        return (tier.contributorLimit, tier.maxContribution, tier.minContribution, tier.rewards);\n    }\n\n    function getContributionTiersLength(uint _projectId) external view returns (uint length) {\n        length = fundingStorage.getContributionTiersLength(_projectId);\n        return length;\n    }\n\n    function getContributionTier(uint _projectId, uint _index) external view returns (uint contributorLimit, uint maxContribution, uint minContribution, string rewards) {\n        ProjectStorageAccess.ContributionTier memory tier = fundingStorage.getContributionTier(_projectId, _index);\n\n        return (tier.contributorLimit, tier.maxContribution, tier.minContribution, tier.rewards);\n    }\n}\n",
  "sourcePath": "/home/jordan/Projects/hyperbridge/funding-protocol/smart-contracts/ethereum/contracts/project/ProjectContributionTier.sol",
  "compiler": {
    "name": "solc",
    "version": "0.4.24+commit.e67f0147.Emscripten.clang"
  },
  "schemaVersion": "2.0.1",
  "updatedAt": "2018-07-26T16:56:23.118Z"
}