{
  "contractName": "ProjectFactory",
  "abi": [
    {
      "constant": false,
      "inputs": [
        {
          "name": "_id",
          "type": "uint256"
        },
        {
          "name": "_title",
          "type": "string"
        },
        {
          "name": "_description",
          "type": "string"
        },
        {
          "name": "_about",
          "type": "string"
        },
        {
          "name": "_developer",
          "type": "address"
        },
        {
          "name": "_developerId",
          "type": "uint256"
        },
        {
          "name": "_contributionGoal",
          "type": "uint256"
        }
      ],
      "name": "createProject",
      "outputs": [
        {
          "name": "",
          "type": "address"
        }
      ],
      "payable": false,
      "stateMutability": "nonpayable",
      "type": "function"
    }
  ],
  "bytecode": "0x608060405234801561001057600080fd5b506153c6806100206000396000f300608060405260043610610041576000357c0100000000000000000000000000000000000000000000000000000000900463ffffffff1680637daeeb9614610046575b600080fd5b34801561005257600080fd5b5061017760048036038101908080359060200190929190803590602001908201803590602001908080601f0160208091040260200160405190810160405280939291908181526020018383808284378201915050505050509192919290803590602001908201803590602001908080601f0160208091040260200160405190810160405280939291908181526020018383808284378201915050505050509192919290803590602001908201803590602001908080601f0160208091040260200160405190810160405280939291908181526020018383808284378201915050505050509192919290803573ffffffffffffffffffffffffffffffffffffffff16906020019092919080359060200190929190803590602001909291905050506101b9565b604051808273ffffffffffffffffffffffffffffffffffffffff1673ffffffffffffffffffffffffffffffffffffffff16815260200191505060405180910390f35b60008033898989898989896101cc6103bc565b808973ffffffffffffffffffffffffffffffffffffffff1673ffffffffffffffffffffffffffffffffffffffff1681526020018881526020018060200180602001806020018773ffffffffffffffffffffffffffffffffffffffff1673ffffffffffffffffffffffffffffffffffffffff16815260200186815260200185815260200184810384528a818151815260200191508051906020019080838360005b8381101561028757808201518184015260208101905061026c565b50505050905090810190601f1680156102b45780820380516001836020036101000a031916815260200191505b50848103835289818151815260200191508051906020019080838360005b838110156102ed5780820151818401526020810190506102d2565b50505050905090810190601f16801561031a5780820380516001836020036101000a031916815260200191505b50848103825288818151815260200191508051906020019080838360005b83811015610353578082015181840152602081019050610338565b50505050905090810190601f1680156103805780820380516001836020036101000a031916815260200191505b509b505050505050505050505050604051809103906000f0801580156103aa573d6000803e3d6000fd5b50905080915050979650505050505050565b604051614fce806103cd83390190560060806040523480156200001157600080fd5b5060405162004fce38038062004fce8339810180604052810190808051906020019092919080519060200190929190805182019291906020018051820192919060200180518201929190602001805190602001909291908051906020019092919080519060200190929190505050876000806101000a81548173ffffffffffffffffffffffffffffffffffffffff021916908373ffffffffffffffffffffffffffffffffffffffff160217905550866001819055506000600260006101000a81548160ff02191690836004811115620000e657fe5b021790555085600390805190602001906200010392919062000193565b5084600490805190602001906200011c92919062000193565b5083600590805190602001906200013592919062000193565b5082600660006101000a81548173ffffffffffffffffffffffffffffffffffffffff021916908373ffffffffffffffffffffffffffffffffffffffff1602179055508160078190555080600881905550505050505050505062000242565b828054600181600116156101000203166002900490600052602060002090601f016020900481019282601f10620001d657805160ff191683800117855562000207565b8280016001018555821562000207579182015b8281111562000206578251825591602001919060010190620001e9565b5b5090506200021691906200021a565b5090565b6200023f91905b808211156200023b57600081600090555060010162000221565b5090565b90565b614d7c80620002526000396000f300608060405260043610610204576000357c0100000000000000000000000000000000000000000000000000000000900463ffffffff168063041c87071461020657806305134100146102355780630f1a92e11461024c5780631aa470bb146102775780631ab79424146102a6578063200d2ed2146102d557806326fee2f01461030e5780632e49d78b146103dd578063308c2ee91461040d57806332de22bd1461042457806334f2a35a1461048d5780634518dff4146104bc5780634a79d50c1461054357806355a56602146105d3578063595f1378146105fe5780635c1635ad146106b95780635da43208146107085780635e07425b1461071f5780635e1d54821461074e5780635ea8d3f0146107de578063647db50c1461080d578063679e1bd9146108245780637284e416146108df57806375d36dc51461096f5780637b94c18e1461099a578063814e4ec6146109c5578063907f87db14610a56578063927f6d4114610a85578063a5f9c9ea14610a9c578063ad477c4714610acb578063af640d0f14610af6578063b1efc02414610b21578063b998101714610bdc578063bde0e7ac14610bf3578063c45bbae914610c1e578063c49a4a1014610d4e578063c81cf25114610d7d578063ca4b208b14610da8578063cba24e4114610dff578063cd2e91e814610e56578063db6f8d6b14610f1b578063ec88230f14610f46575b005b34801561021257600080fd5b5061021b610f71565b604051808215151515815260200191505060405180910390f35b34801561024157600080fd5b5061024a610f8b565b005b34801561025857600080fd5b506102616112be565b6040518082815260200191505060405180910390f35b34801561028357600080fd5b506102a46004803603810190808035151590602001909291905050506112cb565b005b3480156102b257600080fd5b506102d36004803603810190808035151590602001909291905050506113d3565b005b3480156102e157600080fd5b506102ea6114db565b604051808260048111156102fa57fe5b60ff16815260200191505060405180910390f35b34801561031a57600080fd5b506103db60048036038101908080359060200190929190803515159060200190929190803590602001908201803590602001908080601f0160208091040260200160405190810160405280939291908181526020018383808284378201915050505050509192919290803590602001908201803590602001908080601f0160208091040260200160405190810160405280939291908181526020018383808284378201915050505050509192919290803590602001909291905050506114ee565b005b3480156103e957600080fd5b5061040b600480360381019080803560ff1690602001909291905050506117f0565b005b34801561041957600080fd5b50610422611900565b005b34801561043057600080fd5b5061048b600480360381019080803590602001908201803590602001908080601f0160208091040260200160405190810160405280939291908181526020018383808284378201915050505050509192919290505050611f70565b005b34801561049957600080fd5b506104a2612329565b604051808215151515815260200191505060405180910390f35b3480156104c857600080fd5b50610541600480360381019080803590602001909291908035906020019092919080359060200190929190803590602001908201803590602001908080601f016020809104026020016040519081016040528093929190818152602001838380828437820191505050505050919291929050505061233c565b005b34801561054f57600080fd5b506105586124c6565b6040518080602001828103825283818151815260200191508051906020019080838360005b8381101561059857808201518184015260208101905061057d565b50505050905090810190601f1680156105c55780820380516001836020036101000a031916815260200191505b509250505060405180910390f35b3480156105df57600080fd5b506105e8612564565b6040518082815260200191505060405180910390f35b34801561060a57600080fd5b5061062960048036038101908080359060200190929190505050612574565b6040518085815260200184815260200183815260200180602001828103825283818151815260200191508051906020019080838360005b8381101561067b578082015181840152602081019050610660565b50505050905090810190601f1680156106a85780820380516001836020036101000a031916815260200191505b509550505050505060405180910390f35b3480156106c557600080fd5b506106ce612695565b6040518086815260200185815260200184815260200183151515158152602001821515151581526020019550505050505060405180910390f35b34801561071457600080fd5b5061071d6126e6565b005b34801561072b57600080fd5b50610734612812565b604051808215151515815260200191505060405180910390f35b34801561075a57600080fd5b50610763612825565b6040518080602001828103825283818151815260200191508051906020019080838360005b838110156107a3578082015181840152602081019050610788565b50505050905090810190601f1680156107d05780820380516001836020036101000a031916815260200191505b509250505060405180910390f35b3480156107ea57600080fd5b506107f36128c3565b604051808215151515815260200191505060405180910390f35b34801561081957600080fd5b5061082261291a565b005b34801561083057600080fd5b50610839612ed7565b60405180878152602001868152602001858152602001806020018415151515815260200183151515158152602001828103825285818151815260200191508051906020019080838360005b8381101561089f578082015181840152602081019050610884565b50505050905090810190601f1680156108cc5780820380516001836020036101000a031916815260200191505b5097505050505050505060405180910390f35b3480156108eb57600080fd5b506108f4612fce565b6040518080602001828103825283818151815260200191508051906020019080838360005b83811015610934578082015181840152602081019050610919565b50505050905090810190601f1680156109615780820380516001836020036101000a031916815260200191505b509250505060405180910390f35b34801561097b57600080fd5b5061098461306c565b6040518082815260200191505060405180910390f35b3480156109a657600080fd5b506109af61307c565b6040518082815260200191505060405180910390f35b3480156109d157600080fd5b50610a5460048036038101908080359060200190929190803590602001909291908035906020019092919080359060200190929190803590602001908201803590602001908080601f0160208091040260200160405190810160405280939291908181526020018383808284378201915050505050509192919290505050613089565b005b348015610a6257600080fd5b50610a6b6131d1565b604051808215151515815260200191505060405180910390f35b348015610a9157600080fd5b50610a9a613228565b005b348015610aa857600080fd5b50610ac960048036038101908080351515906020019092919050505061340c565b005b348015610ad757600080fd5b50610ae06137e8565b6040518082815260200191505060405180910390f35b348015610b0257600080fd5b50610b0b6137ee565b6040518082815260200191505060405180910390f35b348015610b2d57600080fd5b50610b4c600480360381019080803590602001909291905050506137f4565b6040518085815260200184815260200183815260200180602001828103825283818151815260200191508051906020019080838360005b83811015610b9e578082015181840152602081019050610b83565b50505050905090810190601f168015610bcb5780820380516001836020036101000a031916815260200191505b509550505050505060405180910390f35b348015610be857600080fd5b50610bf1613915565b005b348015610bff57600080fd5b50610c08613a23565b6040518082815260200191505060405180910390f35b348015610c2a57600080fd5b50610c5560048036038101908080359060200190929190803515159060200190929190505050613a29565b60405180806020018060200185815260200184151515158152602001838103835287818151815260200191508051906020019080838360005b83811015610ca9578082015181840152602081019050610c8e565b50505050905090810190601f168015610cd65780820380516001836020036101000a031916815260200191505b50838103825286818151815260200191508051906020019080838360005b83811015610d0f578082015181840152602081019050610cf4565b50505050905090810190601f168015610d3c5780820380516001836020036101000a031916815260200191505b50965050505050505060405180910390f35b348015610d5a57600080fd5b50610d7b600480360381019080803515159060200190929190505050613d9d565b005b348015610d8957600080fd5b50610d9261419f565b6040518082815260200191505060405180910390f35b348015610db457600080fd5b50610dbd6141a4565b604051808273ffffffffffffffffffffffffffffffffffffffff1673ffffffffffffffffffffffffffffffffffffffff16815260200191505060405180910390f35b348015610e0b57600080fd5b50610e146141ca565b604051808273ffffffffffffffffffffffffffffffffffffffff1673ffffffffffffffffffffffffffffffffffffffff16815260200191505060405180910390f35b348015610e6257600080fd5b50610f19600480360381019080803590602001908201803590602001908080601f0160208091040260200160405190810160405280939291908181526020018383808284378201915050505050509192919290803590602001908201803590602001908080601f0160208091040260200160405190810160405280939291908181526020018383808284378201915050505050509192919290803590602001909291908035151590602001909291905050506141ef565b005b348015610f2757600080fd5b50610f30614740565b6040518082815260200191505060405180910390f35b348015610f5257600080fd5b50610f5b61474d565b6040518082815260200191505060405180910390f35b6000600c60010160009054906101000a900460ff16905090565b610f93614753565b600660009054906101000a900473ffffffffffffffffffffffffffffffffffffffff1673ffffffffffffffffffffffffffffffffffffffff163373ffffffffffffffffffffffffffffffffffffffff1614151561107e576040517f08c379a000000000000000000000000000000000000000000000000000000000815260040180806020018281038252602c8152602001807f43616c6c6572206973206e6f742074686520646576656c6f706572206f66207481526020017f6869732070726f6a6563742e000000000000000000000000000000000000000081525060400191505060405180910390fd5b600c60010160009054906101000a900460ff161515611151576040517f08c379a00000000000000000000000000000000000000000000000000000000081526004018080602001828103825260478152602001807f4e65772074696d656c696e652063616e6e6f742062652070726f706f7365642081526020017f6966207468657265206973206e6f2063757272656e742061637469766520746981526020017f6d656c696e652e0000000000000000000000000000000000000000000000000081525060600191505060405180910390fd5b601860040160009054906101000a900460ff16151515611225576040517f08c379a00000000000000000000000000000000000000000000000000000000081526004018080602001828103825260538152602001807f4e65772074696d656c696e652063616e6e6f742062652070726f706f7365642081526020017f696620746865726520697320616e2061637469766520766f7465206f6e206d6981526020017f6c6573746f6e6520636f6d706c6574696f6e2e0000000000000000000000000081525060600191505060405180910390fd5b60a060405190810160405280428152602001600081526020016000815260200160011515815260200160001515815250905080601360008201518160000155602082015181600101556040820151816002015560608201518160030160006101000a81548160ff02191690831515021790555060808201518160030160016101000a81548160ff02191690831515021790555090505050565b6000600a80549050905090565b600660009054906101000a900473ffffffffffffffffffffffffffffffffffffffff1673ffffffffffffffffffffffffffffffffffffffff163373ffffffffffffffffffffffffffffffffffffffff161415156113b6576040517f08c379a000000000000000000000000000000000000000000000000000000000815260040180806020018281038252602c8152602001807f43616c6c6572206973206e6f742074686520646576656c6f706572206f66207481526020017f6869732070726f6a6563742e000000000000000000000000000000000000000081525060400191505060405180910390fd5b80600b60006101000a81548160ff02191690831515021790555050565b600660009054906101000a900473ffffffffffffffffffffffffffffffffffffffff1673ffffffffffffffffffffffffffffffffffffffff163373ffffffffffffffffffffffffffffffffffffffff161415156114be576040517f08c379a000000000000000000000000000000000000000000000000000000000815260040180806020018281038252602c8152602001807f43616c6c6572206973206e6f742074686520646576656c6f706572206f66207481526020017f6869732070726f6a6563742e000000000000000000000000000000000000000081525060400191505060405180910390fd5b80600b60016101000a81548160ff02191690831515021790555050565b600260009054906101000a900460ff1681565b6000600660009054906101000a900473ffffffffffffffffffffffffffffffffffffffff1673ffffffffffffffffffffffffffffffffffffffff163373ffffffffffffffffffffffffffffffffffffffff161415156115db576040517f08c379a000000000000000000000000000000000000000000000000000000000815260040180806020018281038252602c8152602001807f43616c6c6572206973206e6f742074686520646576656c6f706572206f66207481526020017f6869732070726f6a6563742e000000000000000000000000000000000000000081525060400191505060405180910390fd5b84156116dc57601360030160009054906101000a900460ff161515156116b5576040517f08c379a000000000000000000000000000000000000000000000000000000000815260040180806020018281038252604c8152602001807f50656e64696e67206d696c6573746f6e65732063616e6e6f742062652061646481526020017f6564207768696c6520612074696d656c696e652070726f706f73616c20766f7481526020017f65206973206163746976652e000000000000000000000000000000000000000081525060600191505060405180910390fd5b6011600001868154811015156116c757fe5b906000526020600020906004020190506117ad565b600c60010160009054906101000a900460ff1615151561178a576040517f08c379a00000000000000000000000000000000000000000000000000000000081526004018080602001828103825260308152602001807f4d696c6573746f6e652063616e6e6f7420626520616464656420746f20616e2081526020017f6163746976652074696d656c696e652e0000000000000000000000000000000081525060400191505060405180910390fd5b600c6000018681548110151561179c57fe5b906000526020600020906004020190505b838160000190805190602001906117c5929190614787565b50828160010190805190602001906117de929190614787565b50818160020181905550505050505050565b6000809054906101000a900473ffffffffffffffffffffffffffffffffffffffff1673ffffffffffffffffffffffffffffffffffffffff163373ffffffffffffffffffffffffffffffffffffffff161415156118da576040517f08c379a00000000000000000000000000000000000000000000000000000000081526004018080602001828103825260398152602001807f5468697320616374696f6e2063616e206f6e6c7920626520706572666f726d6581526020017f64206279207468652046756e64696e6720536572766963652e0000000000000081525060400191505060405180910390fd5b80600260006101000a81548160ff021916908360048111156118f857fe5b021790555050565b6000806000806000600660009054906101000a900473ffffffffffffffffffffffffffffffffffffffff1673ffffffffffffffffffffffffffffffffffffffff163373ffffffffffffffffffffffffffffffffffffffff161415156119f3576040517f08c379a000000000000000000000000000000000000000000000000000000000815260040180806020018281038252602c8152602001807f43616c6c6572206973206e6f742074686520646576656c6f706572206f66207481526020017f6869732070726f6a6563742e000000000000000000000000000000000000000081525060400191505060405180910390fd5b60011515601860040160009054906101000a900460ff161515141515611aa7576040517f08c379a00000000000000000000000000000000000000000000000000000000081526004018080602001828103825260278152602001807f4e6f20766f7465206f6e206d696c6573746f6e6520636f6d706c6574696f6e2081526020017f6163746976652e0000000000000000000000000000000000000000000000000081525060400191505060405180910390fd5b6000809054906101000a900473ffffffffffffffffffffffffffffffffffffffff1694508473ffffffffffffffffffffffffffffffffffffffff16633851375a306040518263ffffffff167c0100000000000000000000000000000000000000000000000000000000028152600401808273ffffffffffffffffffffffffffffffffffffffff1673ffffffffffffffffffffffffffffffffffffffff168152602001915050600060405180830381600087803b158015611b6657600080fd5b505af1158015611b7a573d6000803e3d6000fd5b505050506040513d6000823e3d601f19601f820116820180604052506020811015611ba457600080fd5b810190808051640100000000811115611bbc57600080fd5b82810190506020810184811115611bd257600080fd5b8151856020820283011164010000000082111715611bef57600080fd5b5050929190505050519350601860020154601860010154019250621275006018600001540142101591506064604b8402811515611c2857fe5b0490506064604b8502811515611c3a57fe5b046018600101541180611c5a5750818015611c59575080601860010154115b5b1515611d1a576040517f08c379a000000000000000000000000000000000000000000000000000000000815260040180806020018281038252604a8152602001807f436f6e646974696f6e7320666f722066696e616c697a696e67206d696c65737481526020017f6f6e6520636f6d706c6574696f6e2068617665206e6f7420796574206265656e81526020017f2061636869657665642e0000000000000000000000000000000000000000000081525060600191505060405180910390fd5b6001600c600001600e54815481101515611d3057fe5b906000526020600020906004020160030160006101000a81548160ff021916908315150217905550600f600c600001600e54815481101515611d6e57fe5b90600052602060002090600402019080600181540180825580915050906001820390600052602060002090600402016000909192909190915060008201816000019080546001816001161561010002031660029004611dce929190614807565b5060018201816001019080546001816001161561010002031660029004611df6929190614807565b50600282015481600201556003820160009054906101000a900460ff168160030160006101000a81548160ff021916908315150217905550505050601160008082016000611e44919061488e565b6001820160006101000a81549060ff02191690555050600f6011600001908054611e6f9291906148b2565b50600e60008154809291906001019190505550601860008082016000905560018201600090556002820160009055600382016000611ead9190614991565b6004820160006101000a81549060ff02191690556004820160016101000a81549060ff021916905550508473ffffffffffffffffffffffffffffffffffffffff166314f9734460075460056040518363ffffffff167c01000000000000000000000000000000000000000000000000000000000281526004018083815260200182815260200192505050600060405180830381600087803b158015611f5157600080fd5b505af1158015611f65573d6000803e3d6000fd5b505050505050505050565b611f786149d9565b600660009054906101000a900473ffffffffffffffffffffffffffffffffffffffff1673ffffffffffffffffffffffffffffffffffffffff163373ffffffffffffffffffffffffffffffffffffffff16141515612063576040517f08c379a000000000000000000000000000000000000000000000000000000000815260040180806020018281038252602c8152602001807f43616c6c6572206973206e6f742074686520646576656c6f706572206f66207481526020017f6869732070726f6a6563742e000000000000000000000000000000000000000081525060400191505060405180910390fd5b600c60010160009054906101000a900460ff1615156120ea576040517f08c379a000000000000000000000000000000000000000000000000000000000815260040180806020018281038252601c8152602001807f5468657265206973206e6f206163746976652074696d656c696e652e0000000081525060200191505060405180910390fd5b601860040160009054906101000a900460ff16151515612198576040517f08c379a00000000000000000000000000000000000000000000000000000000081526004018080602001828103825260378152602001807f546865726520697320616c7265616479206120766f7465206f6e206d696c657381526020017f746f6e6520636f6d706c6574696f6e206163746976652e00000000000000000081525060400191505060405180910390fd5b601360030160009054906101000a900460ff1615151561226c576040517f08c379a00000000000000000000000000000000000000000000000000000000081526004018080602001828103825260558152602001807f43616e6e6f74207375626d6974206d696c6573746f6e6520636f6d706c65746981526020017f6f6e20696620746865726520697320616e2061637469766520766f746520746f81526020017f206368616e6765207468652074696d656c696e652e000000000000000000000081525060600191505060405180910390fd5b60c060405190810160405280428152602001600081526020016000815260200183815260200160011515815260200160001515815250905080601860008201518160000155602082015181600101556040820151816002015560608201518160030190805190602001906122e1929190614a14565b5060808201518160040160006101000a81548160ff02191690831515021790555060a08201518160040160016101000a81548160ff0219169083151502179055509050505050565b600b60009054906101000a900460ff1681565b612344614a94565b600660009054906101000a900473ffffffffffffffffffffffffffffffffffffffff1673ffffffffffffffffffffffffffffffffffffffff163373ffffffffffffffffffffffffffffffffffffffff1614151561242f576040517f08c379a000000000000000000000000000000000000000000000000000000000815260040180806020018281038252602c8152602001807f43616c6c6572206973206e6f742074686520646576656c6f706572206f66207481526020017f6869732070726f6a6563742e000000000000000000000000000000000000000081525060400191505060405180910390fd5b608060405190810160405280868152602001848152602001858152602001838152509050600a819080600181540180825580915050906001820390600052602060002090600402016000909192909190915060008201518160000155602082015181600101556040820151816002015560608201518160030190805190602001906124bb929190614a14565b505050505050505050565b60038054600181600116156101000203166002900480601f01602080910402602001604051908101604052809291908181526020018280546001816001161561010002031660029004801561255c5780601f106125315761010080835404028352916020019161255c565b820191906000526020600020905b81548152906001019060200180831161253f57829003601f168201915b505050505081565b6000600c60000180549050905090565b60008060006060612583614a94565b60098681548110151561259257fe5b906000526020600020906004020160806040519081016040529081600082015481526020016001820154815260200160028201548152602001600382018054600181600116156101000203166002900480601f0160208091040260200160405190810160405280929190818152602001828054600181600116156101000203166002900480156126635780601f1061263857610100808354040283529160200191612663565b820191906000526020600020905b81548152906001019060200180831161264657829003601f168201915b505050505081525050905080600001518160400151826020015183606001518090509450945094509450509193509193565b6000806000806000601360000154601360010154601360020154601360030160009054906101000a900460ff16601360030160019054906101000a900460ff16945094509450945094509091929394565b600660009054906101000a900473ffffffffffffffffffffffffffffffffffffffff1673ffffffffffffffffffffffffffffffffffffffff163373ffffffffffffffffffffffffffffffffffffffff161415156127d1576040517f08c379a000000000000000000000000000000000000000000000000000000000815260040180806020018281038252602c8152602001807f43616c6c6572206973206e6f742074686520646576656c6f706572206f66207481526020017f6869732070726f6a6563742e000000000000000000000000000000000000000081525060400191505060405180910390fd5b6011600080820160006127e4919061488e565b6001820160006101000a81549060ff02191690555050600f601160000190805461280f9291906148b2565b50565b600b60019054906101000a900460ff1681565b60058054600181600116156101000203166002900480601f0160208091040260200160405190810160405280929190818152602001828054600181600116156101000203166002900480156128bb5780601f10612890576101008083540402835291602001916128bb565b820191906000526020600020905b81548152906001019060200180831161289e57829003601f168201915b505050505081565b6000601360040160003373ffffffffffffffffffffffffffffffffffffffff1673ffffffffffffffffffffffffffffffffffffffff16815260200190815260200160002060009054906101000a900460ff16905090565b6000806000806000600660009054906101000a900473ffffffffffffffffffffffffffffffffffffffff1673ffffffffffffffffffffffffffffffffffffffff163373ffffffffffffffffffffffffffffffffffffffff16141515612a0d576040517f08c379a000000000000000000000000000000000000000000000000000000000815260040180806020018281038252602c8152602001807f43616c6c6572206973206e6f742074686520646576656c6f706572206f66207481526020017f6869732070726f6a6563742e000000000000000000000000000000000000000081525060400191505060405180910390fd5b60011515601360030160009054906101000a900460ff161515141515612ac1576040517f08c379a00000000000000000000000000000000000000000000000000000000081526004018080602001828103825260258152602001807f5468657265206973206e6f2074696d656c696e652070726f706f73616c20616381526020017f746976652e00000000000000000000000000000000000000000000000000000081525060400191505060405180910390fd5b6000809054906101000a900473ffffffffffffffffffffffffffffffffffffffff1694508473ffffffffffffffffffffffffffffffffffffffff16633851375a306040518263ffffffff167c0100000000000000000000000000000000000000000000000000000000028152600401808273ffffffffffffffffffffffffffffffffffffffff1673ffffffffffffffffffffffffffffffffffffffff168152602001915050600060405180830381600087803b158015612b8057600080fd5b505af1158015612b94573d6000803e3d6000fd5b505050506040513d6000823e3d601f19601f820116820180604052506020811015612bbe57600080fd5b810190808051640100000000811115612bd657600080fd5b82810190506020810184811115612bec57600080fd5b8151856020820283011164010000000082111715612c0957600080fd5b5050929190505050519350601360020154601360010154019250621275006013600001540142101591506064604b8402811515612c4257fe5b0490506064604b8502811515612c5457fe5b046013600101541180612c745750818015612c73575080601360010154115b5b1515612d34576040517f08c379a00000000000000000000000000000000000000000000000000000000081526004018080602001828103825260478152602001807f436f6e646974696f6e7320666f722066696e616c697a696e672074696d656c6981526020017f6e652070726f706f73616c2068617665206e6f7420796574206265656e20616381526020017f6869657665642e0000000000000000000000000000000000000000000000000081525060600191505060405180910390fd5b806013600101541115612eb1576000600c60010160006101000a81548160ff0219169083151502179055506010600c908060018154018082558091505090600182039060005260206000209060020201600090919290919091506000820181600001908054612da4929190614abd565b506001820160009054906101000a900460ff168160010160006101000a81548160ff0219169083151502179055505050506011600c6000820181600001908054612def929190614abd565b506001820160009054906101000a900460ff168160010160006101000a81548160ff0219169083151502179055509050506001600c60010160006101000a81548160ff0219169083151502179055506013600080820160009055600182016000905560028201600090556003820160006101000a81549060ff02191690556003820160016101000a81549060ff02191690555050601160008082016000612e96919061488e565b6001820160006101000a81549060ff02191690555050612ed0565b6001601360030160016101000a81548160ff0219169083151502179055505b5050505050565b600080600060606000806018600001546018600101546018600201546018600301601860040160009054906101000a900460ff16601860040160019054906101000a900460ff16828054600181600116156101000203166002900480601f016020809104026020016040519081016040528092919081815260200182805460018160011615610100020316600290048015612fb35780601f10612f8857610100808354040283529160200191612fb3565b820191906000526020600020905b815481529060010190602001808311612f9657829003601f168201915b50505050509250955095509550955095509550909192939495565b60048054600181600116156101000203166002900480601f0160208091040260200160405190810160405280929190818152602001828054600181600116156101000203166002900480156130645780601f1061303957610100808354040283529160200191613064565b820191906000526020600020905b81548152906001019060200180831161304757829003601f168201915b505050505081565b6000601160000180549050905090565b6000600980549050905090565b6000600660009054906101000a900473ffffffffffffffffffffffffffffffffffffffff1673ffffffffffffffffffffffffffffffffffffffff163373ffffffffffffffffffffffffffffffffffffffff16141515613176576040517f08c379a000000000000000000000000000000000000000000000000000000000815260040180806020018281038252602c8152602001807f43616c6c6572206973206e6f742074686520646576656c6f706572206f66207481526020017f6869732070726f6a6563742e000000000000000000000000000000000000000081525060400191505060405180910390fd5b600a8681548110151561318557fe5b90600052602060002090600402019050848160000181905550838160020181905550828160010181905550818160030190805190602001906131c8929190614787565b50505050505050565b6000601860050160003373ffffffffffffffffffffffffffffffffffffffff1673ffffffffffffffffffffffffffffffffffffffff16815260200190815260200160002060009054906101000a900460ff16905090565b6000809054906101000a900473ffffffffffffffffffffffffffffffffffffffff1673ffffffffffffffffffffffffffffffffffffffff163373ffffffffffffffffffffffffffffffffffffffff16141515613312576040517f08c379a00000000000000000000000000000000000000000000000000000000081526004018080602001828103825260398152602001807f5468697320616374696f6e2063616e206f6e6c7920626520706572666f726d6581526020017f64206279207468652046756e64696e6720536572766963652e0000000000000081525060400191505060405180910390fd5b600c60010160009054906101000a900460ff161515156133c0576040517f08c379a00000000000000000000000000000000000000000000000000000000081526004018080602001828103825260268152602001807f54696d656c696e652068617320616c7265616479206265656e20696e6974696181526020017f6c697a65642e000000000000000000000000000000000000000000000000000081525060400191505060405180910390fd5b6001600c60010160006101000a81548160ff0219169083151502179055506000600e819055506001600260006101000a81548160ff0219169083600481111561340557fe5b0217905550565b60008060009054906101000a900473ffffffffffffffffffffffffffffffffffffffff16905060008173ffffffffffffffffffffffffffffffffffffffff16635ca9611c30336040518363ffffffff167c0100000000000000000000000000000000000000000000000000000000028152600401808373ffffffffffffffffffffffffffffffffffffffff1673ffffffffffffffffffffffffffffffffffffffff1681526020018273ffffffffffffffffffffffffffffffffffffffff1673ffffffffffffffffffffffffffffffffffffffff16815260200192505050602060405180830381600087803b15801561350357600080fd5b505af1158015613517573d6000803e3d6000fd5b505050506040513d602081101561352d57600080fd5b8101908080519060200190929190505050141515156135da576040517f08c379a000000000000000000000000000000000000000000000000000000000815260040180806020018281038252602c8152602001807f43616c6c6572206973206e6f74206120636f6e7472696275746f7220746f207481526020017f6869732070726f6a6563742e000000000000000000000000000000000000000081525060400191505060405180910390fd5b60011515601360030160009054906101000a900460ff161515141515613668576040517f08c379a000000000000000000000000000000000000000000000000000000000815260040180806020018281038252601c8152602001807f4e6f2074696d656c696e652070726f706f73616c206163746976652e0000000081525060200191505060405180910390fd5b601360040160003373ffffffffffffffffffffffffffffffffffffffff1673ffffffffffffffffffffffffffffffffffffffff16815260200190815260200160002060009054906101000a900460ff16151515613753576040517f08c379a000000000000000000000000000000000000000000000000000000000815260040180806020018281038252602b8152602001807f5468697320636f6e7472696275746f7220616464726573732068617320616c7281526020017f6561647920766f7465642e00000000000000000000000000000000000000000081525060400191505060405180910390fd5b811561377357601360010160008154809291906001019190505550613789565b6013600201600081548092919060010191905055505b6001601360040160003373ffffffffffffffffffffffffffffffffffffffff1673ffffffffffffffffffffffffffffffffffffffff16815260200190815260200160002060006101000a81548160ff0219169083151502179055505050565b60085481565b60015481565b60008060006060613803614a94565b600a8681548110151561381257fe5b906000526020600020906004020160806040519081016040529081600082015481526020016001820154815260200160028201548152602001600382018054600181600116156101000203166002900480601f0160208091040260200160405190810160405280929190818152602001828054600181600116156101000203166002900480156138e35780601f106138b8576101008083540402835291602001916138e3565b820191906000526020600020905b8154815290600101906020018083116138c657829003601f168201915b505050505081525050905080600001518160400151826020015183606001518090509450945094509450509193509193565b600660009054906101000a900473ffffffffffffffffffffffffffffffffffffffff1673ffffffffffffffffffffffffffffffffffffffff163373ffffffffffffffffffffffffffffffffffffffff16141515613a00576040517f08c379a000000000000000000000000000000000000000000000000000000000815260040180806020018281038252602c8152602001807f43616c6c6572206973206e6f742074686520646576656c6f706572206f66207481526020017f6869732070726f6a6563742e000000000000000000000000000000000000000081525060400191505060405180910390fd5b600a6009908054613a12929190614b9c565b50600a6000613a219190614c3a565b565b60075481565b606080600080613a37614c5e565b8515613bd957601160000187815481101515613a4f57fe5b906000526020600020906004020160806040519081016040529081600082018054600181600116156101000203166002900480601f016020809104026020016040519081016040528092919081815260200182805460018160011615610100020316600290048015613b025780601f10613ad757610100808354040283529160200191613b02565b820191906000526020600020905b815481529060010190602001808311613ae557829003601f168201915b50505050508152602001600182018054600181600116156101000203166002900480601f016020809104026020016040519081016040528092919081815260200182805460018160011615610100020316600290048015613ba45780601f10613b7957610100808354040283529160200191613ba4565b820191906000526020600020905b815481529060010190602001808311613b8757829003601f168201915b50505050508152602001600282015481526020016003820160009054906101000a900460ff1615151515815250509050613d71565b600c60000187815481101515613beb57fe5b906000526020600020906004020160806040519081016040529081600082018054600181600116156101000203166002900480601f016020809104026020016040519081016040528092919081815260200182805460018160011615610100020316600290048015613c9e5780601f10613c7357610100808354040283529160200191613c9e565b820191906000526020600020905b815481529060010190602001808311613c8157829003601f168201915b50505050508152602001600182018054600181600116156101000203166002900480601f016020809104026020016040519081016040528092919081815260200182805460018160011615610100020316600290048015613d405780601f10613d1557610100808354040283529160200191613d40565b820191906000526020600020905b815481529060010190602001808311613d2357829003601f168201915b50505050508152602001600282015481526020016003820160009054906101000a900460ff16151515158152505090505b806000015181602001518260400151836060015183935082925094509450945094505092959194509250565b60008060009054906101000a900473ffffffffffffffffffffffffffffffffffffffff16905060008173ffffffffffffffffffffffffffffffffffffffff16635ca9611c30336040518363ffffffff167c0100000000000000000000000000000000000000000000000000000000028152600401808373ffffffffffffffffffffffffffffffffffffffff1673ffffffffffffffffffffffffffffffffffffffff1681526020018273ffffffffffffffffffffffffffffffffffffffff1673ffffffffffffffffffffffffffffffffffffffff16815260200192505050602060405180830381600087803b158015613e9457600080fd5b505af1158015613ea8573d6000803e3d6000fd5b505050506040513d6020811015613ebe57600080fd5b810190808051906020019092919050505014151515613f6b576040517f08c379a000000000000000000000000000000000000000000000000000000000815260040180806020018281038252602c8152602001807f43616c6c6572206973206e6f74206120636f6e7472696275746f7220746f207481526020017f6869732070726f6a6563742e000000000000000000000000000000000000000081525060400191505060405180910390fd5b60011515601860040160009054906101000a900460ff16151514151561401f576040517f08c379a00000000000000000000000000000000000000000000000000000000081526004018080602001828103825260278152602001807f4e6f20766f7465206f6e206d696c6573746f6e6520636f6d706c6574696f6e2081526020017f6163746976652e0000000000000000000000000000000000000000000000000081525060400191505060405180910390fd5b601860050160003373ffffffffffffffffffffffffffffffffffffffff1673ffffffffffffffffffffffffffffffffffffffff16815260200190815260200160002060009054906101000a900460ff1615151561410a576040517f08c379a000000000000000000000000000000000000000000000000000000000815260040180806020018281038252602b8152602001807f5468697320636f6e7472696275746f7220616464726573732068617320616c7281526020017f6561647920766f7465642e00000000000000000000000000000000000000000081525060400191505060405180910390fd5b811561412a57601860010160008154809291906001019190505550614140565b6018600201600081548092919060010191905055505b6001601860050160003373ffffffffffffffffffffffffffffffffffffffff1673ffffffffffffffffffffffffffffffffffffffff16815260200190815260200160002060006101000a81548160ff0219169083151502179055505050565b600581565b600660009054906101000a900473ffffffffffffffffffffffffffffffffffffffff1681565b6000809054906101000a900473ffffffffffffffffffffffffffffffffffffffff1681565b6141f7614c5e565b600660009054906101000a900473ffffffffffffffffffffffffffffffffffffffff1673ffffffffffffffffffffffffffffffffffffffff163373ffffffffffffffffffffffffffffffffffffffff161415156142e2576040517f08c379a000000000000000000000000000000000000000000000000000000000815260040180806020018281038252602c8152602001807f43616c6c6572206973206e6f742074686520646576656c6f706572206f66207481526020017f6869732070726f6a6563742e000000000000000000000000000000000000000081525060400191505060405180910390fd5b60648311151515614381576040517f08c379a00000000000000000000000000000000000000000000000000000000081526004018080602001828103825260308152602001807f4d696c6573746f6e652070657263656e746167652063616e6e6f74206265206781526020017f726561746572207468616e203130302e0000000000000000000000000000000081525060400191505060405180910390fd5b60806040519081016040528086815260200185815260200184815260200160001515815250905081156145f257601360030160009054906101000a900460ff16151515614482576040517f08c379a000000000000000000000000000000000000000000000000000000000815260040180806020018281038252604c8152602001807f50656e64696e67206d696c6573746f6e65732063616e6e6f742062652061646481526020017f6564207768696c6520612074696d656c696e652070726f706f73616c20766f7481526020017f65206973206163746976652e000000000000000000000000000000000000000081525060600191505060405180910390fd5b600c60010160009054906101000a900460ff161515614555576040517f08c379a00000000000000000000000000000000000000000000000000000000081526004018080602001828103825260518152602001807f50656e64696e67206d696c6573746f6e65732063616e6e6f742062652061646481526020017f6564207768656e207468657265206973206e6f7420612074696d656c696e652081526020017f63757272656e746c79206163746976652e00000000000000000000000000000081525060600191505060405180910390fd5b6011600001819080600181540180825580915050906001820390600052602060002090600402016000909192909190915060008201518160000190805190602001906145a2929190614a14565b5060208201518160010190805190602001906145bf929190614a14565b506040820151816002015560608201518160030160006101000a81548160ff021916908315150217905550505050614739565b600c60010160009054906101000a900460ff161515156146a0576040517f08c379a00000000000000000000000000000000000000000000000000000000081526004018080602001828103825260308152602001807f4d696c6573746f6e652063616e6e6f7420626520616464656420746f20616e2081526020017f6163746976652074696d656c696e652e0000000000000000000000000000000081525060400191505060405180910390fd5b600c600001819080600181540180825580915050906001820390600052602060002090600402016000909192909190915060008201518160000190805190602001906146ed929190614a14565b50602082015181600101908051906020019061470a929190614a14565b506040820151816002015560608201518160030160006101000a81548160ff0219169083151502179055505050505b5050505050565b6000601080549050905090565b600e5481565b60a0604051908101604052806000815260200160008152602001600081526020016000151581526020016000151581525090565b828054600181600116156101000203166002900490600052602060002090601f016020900481019282601f106147c857805160ff19168380011785556147f6565b828001600101855582156147f6579182015b828111156147f55782518255916020019190600101906147da565b5b5090506148039190614c89565b5090565b828054600181600116156101000203166002900490600052602060002090601f016020900481019282601f10614840578054855561487d565b8280016001018555821561487d57600052602060002091601f016020900482015b8281111561487c578254825591600101919060010190614861565b5b50905061488a9190614c89565b5090565b50805460008255600402906000526020600020908101906148af9190614cae565b50565b8280548282559060005260206000209060040281019282156149805760005260206000209160040282015b8281111561497f5782826000820181600001908054600181600116156101000203166002900461490e929190614807565b5060018201816001019080546001816001161561010002031660029004614936929190614807565b50600282015481600201556003820160009054906101000a900460ff168160030160006101000a81548160ff0219169083151502179055505050916004019190600401906148dd565b5b50905061498d9190614cae565b5090565b50805460018160011615610100020316600290046000825580601f106149b757506149d6565b601f0160209004906000526020600020908101906149d59190614c89565b5b50565b60c060405190810160405280600081526020016000815260200160008152602001606081526020016000151581526020016000151581525090565b828054600181600116156101000203166002900490600052602060002090601f016020900481019282601f10614a5557805160ff1916838001178555614a83565b82800160010185558215614a83579182015b82811115614a82578251825591602001919060010190614a67565b5b509050614a909190614c89565b5090565b608060405190810160405280600081526020016000815260200160008152602001606081525090565b828054828255906000526020600020906004028101928215614b8b5760005260206000209160040282015b82811115614b8a57828260008201816000019080546001816001161561010002031660029004614b19929190614807565b5060018201816001019080546001816001161561010002031660029004614b41929190614807565b50600282015481600201556003820160009054906101000a900460ff168160030160006101000a81548160ff021916908315150217905550505091600401919060040190614ae8565b5b509050614b989190614cae565b5090565b828054828255906000526020600020906004028101928215614c295760005260206000209160040282015b82811115614c2857828260008201548160000155600182015481600101556002820154816002015560038201816003019080546001816001161561010002031660029004614c16929190614807565b50505091600401919060040190614bc7565b5b509050614c369190614d09565b5090565b5080546000825560040290600052602060002090810190614c5b9190614d09565b50565b6080604051908101604052806060815260200160608152602001600081526020016000151581525090565b614cab91905b80821115614ca7576000816000905550600101614c8f565b5090565b90565b614d0691905b80821115614d025760008082016000614ccd9190614991565b600182016000614cdd9190614991565b60028201600090556003820160006101000a81549060ff021916905550600401614cb4565b5090565b90565b614d4d91905b80821115614d495760008082016000905560018201600090556002820160009055600382016000614d409190614991565b50600401614d0f565b5090565b905600a165627a7a723058200ed0373f6b8e5b447d1e9403040e4ad6da59970cc70a2fb35de61a5dc42821660029a165627a7a7230582032731f8cd76cfd97586ba8c95842b17cf6276366c4cc975922032be1577939df0029",
  "source": "pragma solidity ^0.4.23 ;\n\nimport \"./Project.sol\";\n\ncontract ProjectFactory {\n    function createProject(uint _id, string _title, string _description, string _about, address _developer, uint _developerId, uint _contributionGoal) public returns (address) {\n        Project newProject = new Project(msg.sender, _id, _title, _description, _about, _developer, _developerId, _contributionGoal);\n        return address(newProject);\n    }\n}",
  "sourcePath": "/home/jordan/Projects/hyperbridge/funding-protocol/smart-contracts/ethereum/contracts/ProjectFactory.sol",
  "compiler": {
    "name": "solc",
    "version": "0.4.23+commit.124ca40d.Emscripten.clang"
  },
  "schemaVersion": "2.0.0",
  "updatedAt": "2018-06-16T00:59:03.056Z"
}