{
  "contractName": "ProjectRegistration",
  "abi": [
    {
      "constant": false,
      "inputs": [
        {
          "name": "_time",
          "type": "uint256"
        }
      ],
      "name": "setTestTime",
      "outputs": [],
      "payable": false,
      "stateMutability": "nonpayable",
      "type": "function"
    },
    {
      "inputs": [
        {
          "name": "_fundingStorage",
          "type": "address"
        },
        {
          "name": "_inTest",
          "type": "bool"
        }
      ],
      "payable": false,
      "stateMutability": "nonpayable",
      "type": "constructor"
    },
    {
      "anonymous": false,
      "inputs": [
        {
          "indexed": false,
          "name": "projectId",
          "type": "uint256"
        }
      ],
      "name": "ProjectCreated",
      "type": "event"
    },
    {
      "constant": false,
      "inputs": [],
      "name": "initialize",
      "outputs": [],
      "payable": false,
      "stateMutability": "nonpayable",
      "type": "function"
    },
    {
      "constant": false,
      "inputs": [
        {
          "name": "_title",
          "type": "string"
        },
        {
          "name": "_description",
          "type": "string"
        },
        {
          "name": "_about",
          "type": "string"
        }
      ],
      "name": "createProject",
      "outputs": [],
      "payable": false,
      "stateMutability": "nonpayable",
      "type": "function"
    },
    {
      "constant": false,
      "inputs": [
        {
          "name": "_projectId",
          "type": "uint256"
        },
        {
          "name": "_minGoal",
          "type": "uint256"
        },
        {
          "name": "_maxGoal",
          "type": "uint256"
        },
        {
          "name": "_contributionPeriod",
          "type": "uint256"
        }
      ],
      "name": "setProjectContributionGoals",
      "outputs": [],
      "payable": false,
      "stateMutability": "nonpayable",
      "type": "function"
    },
    {
      "constant": false,
      "inputs": [
        {
          "name": "_projectId",
          "type": "uint256"
        },
        {
          "name": "_noRefunds",
          "type": "bool"
        },
        {
          "name": "_noTimeline",
          "type": "bool"
        }
      ],
      "name": "setProjectTerms",
      "outputs": [],
      "payable": false,
      "stateMutability": "nonpayable",
      "type": "function"
    },
    {
      "constant": false,
      "inputs": [
        {
          "name": "_projectId",
          "type": "uint256"
        },
        {
          "name": "_title",
          "type": "string"
        },
        {
          "name": "_description",
          "type": "string"
        },
        {
          "name": "_about",
          "type": "string"
        }
      ],
      "name": "editProjectInfo",
      "outputs": [],
      "payable": false,
      "stateMutability": "nonpayable",
      "type": "function"
    },
    {
      "constant": true,
      "inputs": [
        {
          "name": "_projectId",
          "type": "uint256"
        }
      ],
      "name": "getProject",
      "outputs": [
        {
          "name": "id",
          "type": "uint256"
        },
        {
          "name": "status",
          "type": "uint256"
        },
        {
          "name": "title",
          "type": "string"
        },
        {
          "name": "description",
          "type": "string"
        },
        {
          "name": "about",
          "type": "string"
        },
        {
          "name": "minContributionGoal",
          "type": "uint256"
        },
        {
          "name": "maxContributionGoal",
          "type": "uint256"
        },
        {
          "name": "contributionPeriod",
          "type": "uint256"
        },
        {
          "name": "noRefunds",
          "type": "bool"
        },
        {
          "name": "noTimeline",
          "type": "bool"
        },
        {
          "name": "developer",
          "type": "address"
        },
        {
          "name": "developerId",
          "type": "uint256"
        }
      ],
      "payable": false,
      "stateMutability": "view",
      "type": "function"
    },
    {
      "constant": false,
      "inputs": [
        {
          "name": "_projectId",
          "type": "uint256"
        }
      ],
      "name": "submitProjectForReview",
      "outputs": [],
      "payable": false,
      "stateMutability": "nonpayable",
      "type": "function"
    },
    {
      "constant": false,
      "inputs": [
        {
          "name": "_projectId",
          "type": "uint256"
        }
      ],
      "name": "beginProjectDevelopment",
      "outputs": [],
      "payable": false,
      "stateMutability": "nonpayable",
      "type": "function"
    }
  ],
  "bytecode": "0x608060405234801561001057600080fd5b506040516040806149da833981018060405281019080805190602001909291908051906020019092919050505080806000806101000a81548160ff0219169083151502179055505081600260006101000a81548173ffffffffffffffffffffffffffffffffffffffff021916908373ffffffffffffffffffffffffffffffffffffffff1602179055505050614930806100aa6000396000f300608060405260043610610099576000357c0100000000000000000000000000000000000000000000000000000000900463ffffffff168063097c74061461009e578063234a40c9146100cb5780632ddff5fb146100f857806361380f4314610125578063766244751461019a5780638129fc1c146101e5578063bf1e9179146101fc578063cf7be6ec14610241578063f0f3f2c8146102ac575b600080fd5b3480156100aa57600080fd5b506100c96004803603810190808035906020019092919050505061049d565b005b3480156100d757600080fd5b506100f6600480360381019080803590602001909291905050506104c1565b005b34801561010457600080fd5b5061012360048036038101908080359060200190929190505050610bc8565b005b34801561013157600080fd5b5061019860048036038101908080359060200190929190803590602001908201803590602001919091929391929390803590602001908201803590602001919091929391929390803590602001908201803590602001919091929391929390505050611055565b005b3480156101a657600080fd5b506101e360048036038101908080359060200190929190803590602001909291908035906020019092919080359060200190929190505050611475565b005b3480156101f157600080fd5b506101fa61197d565b005b34801561020857600080fd5b5061023f60048036038101908080359060200190929190803515159060200190929190803515159060200190929190505050611b52565b005b34801561024d57600080fd5b506102aa600480360381019080803590602001908201803590602001919091929391929390803590602001908201803590602001919091929391929390803590602001908201803590602001919091929391929390505050611e80565b005b3480156102b857600080fd5b506102d760048036038101908080359060200190929190505050612174565b604051808d81526020018c81526020018060200180602001806020018b81526020018a815260200189815260200188151515158152602001871515151581526020018673ffffffffffffffffffffffffffffffffffffffff1673ffffffffffffffffffffffffffffffffffffffff16815260200185815260200184810384528e818151815260200191508051906020019080838360005b8381101561038957808201518184015260208101905061036e565b50505050905090810190601f1680156103b65780820380516001836020036101000a031916815260200191505b5084810383528d818151815260200191508051906020019080838360005b838110156103ef5780820151818401526020810190506103d4565b50505050905090810190601f16801561041c5780820380516001836020036101000a031916815260200191505b5084810382528c818151815260200191508051906020019080838360005b8381101561045557808201518184015260208101905061043a565b50505050905090810190601f1680156104825780820380516001836020036101000a031916815260200191505b509f5050505050505050505050505050505060405180910390f35b6000809054906101000a900460ff1615156104b757600080fd5b8060018190555050565b60008060008361051281600260009054906101000a900473ffffffffffffffffffffffffffffffffffffffff1673ffffffffffffffffffffffffffffffffffffffff1661250c90919063ffffffff16565b73ffffffffffffffffffffffffffffffffffffffff163373ffffffffffffffffffffffffffffffffffffffff161415156105da576040517f08c379a00000000000000000000000000000000000000000000000000000000081526004018080602001828103825260398152602001807f596f75206d757374206265207468652070726f6a65637420646576656c6f706581526020017f7220746f20706572666f726d207468697320616374696f6e2e0000000000000081525060400191505060405180910390fd5b84600160068111156105e857fe5b61063382600260009054906101000a900473ffffffffffffffffffffffffffffffffffffffff1673ffffffffffffffffffffffffffffffffffffffff1661267190919063ffffffff16565b600681111561063e57fe5b600681111561064957fe5b1415156106e4576040517f08c379a00000000000000000000000000000000000000000000000000000000081526004018080602001828103825260358152602001807f5468697320616374696f6e2063616e206f6e6c7920626520706572666f726d6581526020017f64206f6e20612064726166742070726f6a6563742e000000000000000000000081525060400191505060405180910390fd5b61072f86600260009054906101000a900473ffffffffffffffffffffffffffffffffffffffff1673ffffffffffffffffffffffffffffffffffffffff166127d690919063ffffffff16565b945061077c86600260009054906101000a900473ffffffffffffffffffffffffffffffffffffffff1673ffffffffffffffffffffffffffffffffffffffff1661293b90919063ffffffff16565b93506107c986600260009054906101000a900473ffffffffffffffffffffffffffffffffffffffff1673ffffffffffffffffffffffffffffffffffffffff16612aa090919063ffffffff16565b9250600084141580156107dd575060008314155b15156107e857600080fd5b6107f186612c05565b841515610acc57600260009054906101000a900473ffffffffffffffffffffffffffffffffffffffff1673ffffffffffffffffffffffffffffffffffffffff1673__ProjectTimelineHelpersLibrary_________637b9ee6589091886040518363ffffffff167c0100000000000000000000000000000000000000000000000000000000028152600401808373ffffffffffffffffffffffffffffffffffffffff1673ffffffffffffffffffffffffffffffffffffffff1681526020018281526020019250505060006040518083038186803b1580156108d157600080fd5b505af41580156108e5573d6000803e3d6000fd5b50505050600260009054906101000a900473ffffffffffffffffffffffffffffffffffffffff1673ffffffffffffffffffffffffffffffffffffffff1673__ProjectTimelineHelpersLibrary_________6331a26acf9091886040518363ffffffff167c0100000000000000000000000000000000000000000000000000000000028152600401808373ffffffffffffffffffffffffffffffffffffffff1673ffffffffffffffffffffffffffffffffffffffff1681526020018281526020019250505060006040518083038186803b1580156109c257600080fd5b505af41580156109d6573d6000803e3d6000fd5b50505050600260009054906101000a900473ffffffffffffffffffffffffffffffffffffffff1673ffffffffffffffffffffffffffffffffffffffff1673__ProjectContributionTierHelpersLibrary_636237c6369091886040518363ffffffff167c0100000000000000000000000000000000000000000000000000000000028152600401808373ffffffffffffffffffffffffffffffffffffffff1673ffffffffffffffffffffffffffffffffffffffff1681526020018281526020019250505060006040518083038186803b158015610ab357600080fd5b505af4158015610ac7573d6000803e3d6000fd5b505050505b610b258660026006811115610add57fe5b600260009054906101000a900473ffffffffffffffffffffffffffffffffffffffff1673ffffffffffffffffffffffffffffffffffffffff16612cf69092919063ffffffff16565b610b728642600260009054906101000a900473ffffffffffffffffffffffffffffffffffffffff1673ffffffffffffffffffffffffffffffffffffffff16612e3b9092919063ffffffff16565b610bc0866001600260009054906101000a900473ffffffffffffffffffffffffffffffffffffffff1673ffffffffffffffffffffffffffffffffffffffff16612f809092919063ffffffff16565b505050505050565b60008060008084610c1a81600260009054906101000a900473ffffffffffffffffffffffffffffffffffffffff1673ffffffffffffffffffffffffffffffffffffffff1661250c90919063ffffffff16565b73ffffffffffffffffffffffffffffffffffffffff163373ffffffffffffffffffffffffffffffffffffffff16141515610ce2576040517f08c379a00000000000000000000000000000000000000000000000000000000081526004018080602001828103825260398152602001807f596f75206d757374206265207468652070726f6a65637420646576656c6f706581526020017f7220746f20706572666f726d207468697320616374696f6e2e0000000000000081525060400191505060405180910390fd5b8560036006811115610cf057fe5b610d3b82600260009054906101000a900473ffffffffffffffffffffffffffffffffffffffff1673ffffffffffffffffffffffffffffffffffffffff1661267190919063ffffffff16565b6006811115610d4657fe5b6006811115610d5157fe5b141515610dec576040517f08c379a000000000000000000000000000000000000000000000000000000000815260040180806020018281038252603d8152602001807f5468697320616374696f6e2063616e206f6e6c7920626520706572666f726d6581526020017f64206f6e206120636f6e74726962757461626c652070726f6a6563742e00000081525060400191505060405180910390fd5b610e3787600260009054906101000a900473ffffffffffffffffffffffffffffffffffffffff1673ffffffffffffffffffffffffffffffffffffffff166130c990919063ffffffff16565b9550610e8487600260009054906101000a900473ffffffffffffffffffffffffffffffffffffffff1673ffffffffffffffffffffffffffffffffffffffff1661322e90919063ffffffff16565b945062093a8086028501610e966133b9565b10151515610ea357600080fd5b610eee87600260009054906101000a900473ffffffffffffffffffffffffffffffffffffffff1673ffffffffffffffffffffffffffffffffffffffff166133dd90919063ffffffff16565b9350610f3b87600260009054906101000a900473ffffffffffffffffffffffffffffffffffffffff1673ffffffffffffffffffffffffffffffffffffffff1661293b90919063ffffffff16565b92508284101515610ff257610f9f8760046006811115610f5757fe5b600260009054906101000a900473ffffffffffffffffffffffffffffffffffffffff1673ffffffffffffffffffffffffffffffffffffffff16612cf69092919063ffffffff16565b610fed876000600260009054906101000a900473ffffffffffffffffffffffffffffffffffffffff1673ffffffffffffffffffffffffffffffffffffffff166135429092919063ffffffff16565b61104c565b61104b876005600681111561100357fe5b600260009054906101000a900473ffffffffffffffffffffffffffffffffffffffff1673ffffffffffffffffffffffffffffffffffffffff16612cf69092919063ffffffff16565b5b50505050505050565b6000876110a381600260009054906101000a900473ffffffffffffffffffffffffffffffffffffffff1673ffffffffffffffffffffffffffffffffffffffff1661250c90919063ffffffff16565b73ffffffffffffffffffffffffffffffffffffffff163373ffffffffffffffffffffffffffffffffffffffff1614151561116b576040517f08c379a00000000000000000000000000000000000000000000000000000000081526004018080602001828103825260398152602001807f596f75206d757374206265207468652070726f6a65637420646576656c6f706581526020017f7220746f20706572666f726d207468697320616374696f6e2e0000000000000081525060400191505060405180910390fd5b886001600681111561117957fe5b6111c482600260009054906101000a900473ffffffffffffffffffffffffffffffffffffffff1673ffffffffffffffffffffffffffffffffffffffff1661267190919063ffffffff16565b60068111156111cf57fe5b60068111156111da57fe5b141515611275576040517f08c379a00000000000000000000000000000000000000000000000000000000081526004018080602001828103825260358152602001807f5468697320616374696f6e2063616e206f6e6c7920626520706572666f726d6581526020017f64206f6e20612064726166742070726f6a6563742e000000000000000000000081525060400191505060405180910390fd5b6112c08a600260009054906101000a900473ffffffffffffffffffffffffffffffffffffffff1673ffffffffffffffffffffffffffffffffffffffff1661378590919063ffffffff16565b9250600260009054906101000a900473ffffffffffffffffffffffffffffffffffffffff1673ffffffffffffffffffffffffffffffffffffffff1673__ProjectRegistrationHelpersLibrary_____637bb7097f90918c6001600681111561132557fe5b8d8d8d8d8d8d338e6040518c63ffffffff167c0100000000000000000000000000000000000000000000000000000000028152600401808c73ffffffffffffffffffffffffffffffffffffffff1673ffffffffffffffffffffffffffffffffffffffff1681526020018b81526020018a81526020018060200180602001806020018673ffffffffffffffffffffffffffffffffffffffff1673ffffffffffffffffffffffffffffffffffffffff16815260200185815260200184810384528c8c82818152602001925080828437820191505084810383528a8a828181526020019250808284378201915050848103825288888281815260200192508082843782019150509e50505050505050505050505050505060006040518083038186803b15801561145157600080fd5b505af4158015611465573d6000803e3d6000fd5b5050505050505050505050505050565b836114c181600260009054906101000a900473ffffffffffffffffffffffffffffffffffffffff1673ffffffffffffffffffffffffffffffffffffffff1661250c90919063ffffffff16565b73ffffffffffffffffffffffffffffffffffffffff163373ffffffffffffffffffffffffffffffffffffffff16141515611589576040517f08c379a00000000000000000000000000000000000000000000000000000000081526004018080602001828103825260398152602001807f596f75206d757374206265207468652070726f6a65637420646576656c6f706581526020017f7220746f20706572666f726d207468697320616374696f6e2e0000000000000081525060400191505060405180910390fd5b846001600681111561159757fe5b6115e282600260009054906101000a900473ffffffffffffffffffffffffffffffffffffffff1673ffffffffffffffffffffffffffffffffffffffff1661267190919063ffffffff16565b60068111156115ed57fe5b60068111156115f857fe5b141515611693576040517f08c379a00000000000000000000000000000000000000000000000000000000081526004018080602001828103825260358152602001807f5468697320616374696f6e2063616e206f6e6c7920626520706572666f726d6581526020017f64206f6e20612064726166742070726f6a6563742e000000000000000000000081525060400191505060405180910390fd5b600085111515611731576040517f08c379a00000000000000000000000000000000000000000000000000000000081526004018080602001828103825260248152602001807f4d696e696d756d20676f616c206d75737420626520677265617465722074686181526020017f6e20302e0000000000000000000000000000000000000000000000000000000081525060400191505060405180910390fd5b83851015156117ce576040517f08c379a000000000000000000000000000000000000000000000000000000000815260040180806020018281038252602c8152602001807f4d696e696d756d20676f616c206d757374206265206c657373207468616e206d81526020017f6178696d756d20676f616c2e000000000000000000000000000000000000000081525060400191505060405180910390fd5b60008311151561186c576040517f08c379a000000000000000000000000000000000000000000000000000000000815260040180806020018281038252602c8152602001807f436f6e747269627574696f6e20706572696f64206d757374206265206174206c81526020017f656173742031207765656b2e000000000000000000000000000000000000000081525060400191505060405180910390fd5b600260009054906101000a900473ffffffffffffffffffffffffffffffffffffffff1673ffffffffffffffffffffffffffffffffffffffff1673__ProjectRegistrationHelpersLibrary_____637c0c2c979091888888886040518663ffffffff167c0100000000000000000000000000000000000000000000000000000000028152600401808673ffffffffffffffffffffffffffffffffffffffff1673ffffffffffffffffffffffffffffffffffffffff1681526020018581526020018481526020018381526020018281526020019550505050505060006040518083038186803b15801561195d57600080fd5b505af4158015611971573d6000803e3d6000fd5b50505050505050505050565b600260009054906101000a900473ffffffffffffffffffffffffffffffffffffffff1673ffffffffffffffffffffffffffffffffffffffff1663043c2677306040518263ffffffff167c0100000000000000000000000000000000000000000000000000000000028152600401808273ffffffffffffffffffffffffffffffffffffffff1673ffffffffffffffffffffffffffffffffffffffff168152602001915050602060405180830381600087803b158015611a3a57600080fd5b505af1158015611a4e573d6000803e3d6000fd5b505050506040513d6020811015611a6457600080fd5b81019080805190602001909291905050501515611b0f576040517f08c379a00000000000000000000000000000000000000000000000000000000081526004018080602001828103825260328152602001807f5468697320636f6e7472616374206973206e6f7420726567697374657265642081526020017f696e2046756e64696e6753746f726167652e000000000000000000000000000081525060400191505060405180910390fd5b611b50600260009054906101000a900473ffffffffffffffffffffffffffffffffffffffff1673ffffffffffffffffffffffffffffffffffffffff166138ea565b565b82611b9e81600260009054906101000a900473ffffffffffffffffffffffffffffffffffffffff1673ffffffffffffffffffffffffffffffffffffffff1661250c90919063ffffffff16565b73ffffffffffffffffffffffffffffffffffffffff163373ffffffffffffffffffffffffffffffffffffffff16141515611c66576040517f08c379a00000000000000000000000000000000000000000000000000000000081526004018080602001828103825260398152602001807f596f75206d757374206265207468652070726f6a65637420646576656c6f706581526020017f7220746f20706572666f726d207468697320616374696f6e2e0000000000000081525060400191505060405180910390fd5b8360016006811115611c7457fe5b611cbf82600260009054906101000a900473ffffffffffffffffffffffffffffffffffffffff1673ffffffffffffffffffffffffffffffffffffffff1661267190919063ffffffff16565b6006811115611cca57fe5b6006811115611cd557fe5b141515611d70576040517f08c379a00000000000000000000000000000000000000000000000000000000081526004018080602001828103825260358152602001807f5468697320616374696f6e2063616e206f6e6c7920626520706572666f726d6581526020017f64206f6e20612064726166742070726f6a6563742e000000000000000000000081525060400191505060405180910390fd5b600260009054906101000a900473ffffffffffffffffffffffffffffffffffffffff1673ffffffffffffffffffffffffffffffffffffffff1673__ProjectRegistrationHelpersLibrary_____632edde14d90918787876040518563ffffffff167c0100000000000000000000000000000000000000000000000000000000028152600401808573ffffffffffffffffffffffffffffffffffffffff1673ffffffffffffffffffffffffffffffffffffffff168152602001848152602001831515151581526020018215151515815260200194505050505060006040518083038186803b158015611e6157600080fd5b505af4158015611e75573d6000803e3d6000fd5b505050505050505050565b600080611ece33600260009054906101000a900473ffffffffffffffffffffffffffffffffffffffff1673ffffffffffffffffffffffffffffffffffffffff16613aa890919063ffffffff16565b915060008214151515611f49576040517f08c379a00000000000000000000000000000000000000000000000000000000081526004018080602001828103825260208152602001807f546869732061646472657373206973206e6f74206120646576656c6f7065722e81525060200191505060405180910390fd5b611f8a600260009054906101000a900473ffffffffffffffffffffffffffffffffffffffff1673ffffffffffffffffffffffffffffffffffffffff16613c48565b9050600260009054906101000a900473ffffffffffffffffffffffffffffffffffffffff1673ffffffffffffffffffffffffffffffffffffffff1673__ProjectRegistrationHelpersLibrary_____637bb7097f90918360016006811115611fef57fe5b8c8c8c8c8c8c338d6040518c63ffffffff167c0100000000000000000000000000000000000000000000000000000000028152600401808c73ffffffffffffffffffffffffffffffffffffffff1673ffffffffffffffffffffffffffffffffffffffff1681526020018b81526020018a81526020018060200180602001806020018673ffffffffffffffffffffffffffffffffffffffff1673ffffffffffffffffffffffffffffffffffffffff16815260200185815260200184810384528c8c82818152602001925080828437820191505084810383528a8a828181526020019250808284378201915050848103825288888281815260200192508082843782019150509e50505050505050505050505050505060006040518083038186803b15801561211b57600080fd5b505af415801561212f573d6000803e3d6000fd5b505050507f1ac2092e16e28eef29d1832f3dc69da1b21284a1f3159d3b26cb238b22fe4f8a816040518082815260200191505060405180910390a15050505050505050565b600080606080606060008060008060008060008c9b506121d58d600260009054906101000a900473ffffffffffffffffffffffffffffffffffffffff1673ffffffffffffffffffffffffffffffffffffffff1661267190919063ffffffff16565b9a506122228d600260009054906101000a900473ffffffffffffffffffffffffffffffffffffffff1673ffffffffffffffffffffffffffffffffffffffff16613c6890919063ffffffff16565b995061226f8d600260009054906101000a900473ffffffffffffffffffffffffffffffffffffffff1673ffffffffffffffffffffffffffffffffffffffff16613e2390919063ffffffff16565b98506122bc8d600260009054906101000a900473ffffffffffffffffffffffffffffffffffffffff1673ffffffffffffffffffffffffffffffffffffffff16613fde90919063ffffffff16565b97506123098d600260009054906101000a900473ffffffffffffffffffffffffffffffffffffffff1673ffffffffffffffffffffffffffffffffffffffff1661293b90919063ffffffff16565b96506123568d600260009054906101000a900473ffffffffffffffffffffffffffffffffffffffff1673ffffffffffffffffffffffffffffffffffffffff16612aa090919063ffffffff16565b95506123a38d600260009054906101000a900473ffffffffffffffffffffffffffffffffffffffff1673ffffffffffffffffffffffffffffffffffffffff166130c990919063ffffffff16565b94506123f08d600260009054906101000a900473ffffffffffffffffffffffffffffffffffffffff1673ffffffffffffffffffffffffffffffffffffffff1661250c90919063ffffffff16565b915061243d8d600260009054906101000a900473ffffffffffffffffffffffffffffffffffffffff1673ffffffffffffffffffffffffffffffffffffffff1661419990919063ffffffff16565b935061248a8d600260009054906101000a900473ffffffffffffffffffffffffffffffffffffffff1673ffffffffffffffffffffffffffffffffffffffff166127d690919063ffffffff16565b92506124d78d600260009054906101000a900473ffffffffffffffffffffffffffffffffffffffff1673ffffffffffffffffffffffffffffffffffffffff1661378590919063ffffffff16565b90508b8b8b8b8b8b8b8b8b8b8b8b9b509b509b509b509b509b509b509b509b509b509b509b5091939597999b5091939597999b565b60008273ffffffffffffffffffffffffffffffffffffffff166321f8a7218360405160200180807f70726f6a6563742e646576656c6f7065720000000000000000000000000000008152506011018281526020019150506040516020818303038152906040526040518082805190602001908083835b6020831015156125a75780518252602082019150602081019050602083039250612582565b6001836020036101000a03801982511681845116808217855250505050505090500191505060405180910390206040518263ffffffff167c0100000000000000000000000000000000000000000000000000000000028152600401808260001916600019168152602001915050602060405180830381600087803b15801561262e57600080fd5b505af1158015612642573d6000803e3d6000fd5b505050506040513d602081101561265857600080fd5b8101908080519060200190929190505050905092915050565b60008273ffffffffffffffffffffffffffffffffffffffff1663bd02d0f58360405160200180807f70726f6a6563742e737461747573000000000000000000000000000000000000815250600e018281526020019150506040516020818303038152906040526040518082805190602001908083835b60208310151561270c57805182526020820191506020810190506020830392506126e7565b6001836020036101000a03801982511681845116808217855250505050505090500191505060405180910390206040518263ffffffff167c0100000000000000000000000000000000000000000000000000000000028152600401808260001916600019168152602001915050602060405180830381600087803b15801561279357600080fd5b505af11580156127a7573d6000803e3d6000fd5b505050506040513d60208110156127bd57600080fd5b8101908080519060200190929190505050905092915050565b60008273ffffffffffffffffffffffffffffffffffffffff16637ae1cfca8360405160200180807f70726f6a6563742e6e6f54696d656c696e6500000000000000000000000000008152506012018281526020019150506040516020818303038152906040526040518082805190602001908083835b602083101515612871578051825260208201915060208101905060208303925061284c565b6001836020036101000a03801982511681845116808217855250505050505090500191505060405180910390206040518263ffffffff167c0100000000000000000000000000000000000000000000000000000000028152600401808260001916600019168152602001915050602060405180830381600087803b1580156128f857600080fd5b505af115801561290c573d6000803e3d6000fd5b505050506040513d602081101561292257600080fd5b8101908080519060200190929190505050905092915050565b60008273ffffffffffffffffffffffffffffffffffffffff1663bd02d0f58360405160200180807f70726f6a6563742e6d696e436f6e747269627574696f6e476f616c0000000000815250601b018281526020019150506040516020818303038152906040526040518082805190602001908083835b6020831015156129d657805182526020820191506020810190506020830392506129b1565b6001836020036101000a03801982511681845116808217855250505050505090500191505060405180910390206040518263ffffffff167c0100000000000000000000000000000000000000000000000000000000028152600401808260001916600019168152602001915050602060405180830381600087803b158015612a5d57600080fd5b505af1158015612a71573d6000803e3d6000fd5b505050506040513d6020811015612a8757600080fd5b8101908080519060200190929190505050905092915050565b60008273ffffffffffffffffffffffffffffffffffffffff1663bd02d0f58360405160200180807f70726f6a6563742e6d6178436f6e747269627574696f6e476f616c0000000000815250601b018281526020019150506040516020818303038152906040526040518082805190602001908083835b602083101515612b3b5780518252602082019150602081019050602083039250612b16565b6001836020036101000a03801982511681845116808217855250505050505090500191505060405180910390206040518263ffffffff167c0100000000000000000000000000000000000000000000000000000000028152600401808260001916600019168152602001915050602060405180830381600087803b158015612bc257600080fd5b505af1158015612bd6573d6000803e3d6000fd5b505050506040513d6020811015612bec57600080fd5b8101908080519060200190929190505050905092915050565b6000612c5282600260009054906101000a900473ffffffffffffffffffffffffffffffffffffffff1673ffffffffffffffffffffffffffffffffffffffff166142fe90919063ffffffff16565b9050600081111515612cf2576040517f08c379a00000000000000000000000000000000000000000000000000000000081526004018080602001828103825260228152602001807f50726f6a65637420686173206e6f20636f6e747269627574696f6e207469657281526020017f732e00000000000000000000000000000000000000000000000000000000000081525060400191505060405180910390fd5b5050565b8273ffffffffffffffffffffffffffffffffffffffff1663e2a4853a8360405160200180807f70726f6a6563742e737461747573000000000000000000000000000000000000815250600e018281526020019150506040516020818303038152906040526040518082805190602001908083835b602083101515612d8f5780518252602082019150602081019050602083039250612d6a565b6001836020036101000a0380198251168184511680821785525050505050509050019150506040518091039020836040518363ffffffff167c010000000000000000000000000000000000000000000000000000000002815260040180836000191660001916815260200182815260200192505050600060405180830381600087803b158015612e1e57600080fd5b505af1158015612e32573d6000803e3d6000fd5b50505050505050565b8273ffffffffffffffffffffffffffffffffffffffff1663e2a4853a8360405160200180807f6375726174696f6e2e64726166744375726174696f6e2e74696d657374616d708152506020018281526020019150506040516020818303038152906040526040518082805190602001908083835b602083101515612ed45780518252602082019150602081019050602083039250612eaf565b6001836020036101000a0380198251168184511680821785525050505050509050019150506040518091039020836040518363ffffffff167c010000000000000000000000000000000000000000000000000000000002815260040180836000191660001916815260200182815260200192505050600060405180830381600087803b158015612f6357600080fd5b505af1158015612f77573d6000803e3d6000fd5b50505050505050565b8273ffffffffffffffffffffffffffffffffffffffff1663abfdcced8360405160200180807f6375726174696f6e2e64726166744375726174696f6e2e697341637469766500815250601f018281526020019150506040516020818303038152906040526040518082805190602001908083835b6020831015156130195780518252602082019150602081019050602083039250612ff4565b6001836020036101000a0380198251168184511680821785525050505050509050019150506040518091039020836040518363ffffffff167c01000000000000000000000000000000000000000000000000000000000281526004018083600019166000191681526020018215151515815260200192505050600060405180830381600087803b1580156130ac57600080fd5b505af11580156130c0573d6000803e3d6000fd5b50505050505050565b60008273ffffffffffffffffffffffffffffffffffffffff1663bd02d0f58360405160200180807f70726f6a6563742e636f6e747269627574696f6e506572696f64000000000000815250601a018281526020019150506040516020818303038152906040526040518082805190602001908083835b602083101515613164578051825260208201915060208101905060208303925061313f565b6001836020036101000a03801982511681845116808217855250505050505090500191505060405180910390206040518263ffffffff167c0100000000000000000000000000000000000000000000000000000000028152600401808260001916600019168152602001915050602060405180830381600087803b1580156131eb57600080fd5b505af11580156131ff573d6000803e3d6000fd5b505050506040513d602081101561321557600080fd5b8101908080519060200190929190505050905092915050565b60008273ffffffffffffffffffffffffffffffffffffffff1663bd02d0f58360405160200180807f636f6e747269627574696f6e2e636f6e747269627574696f6e506572696f645381526020017f74617274000000000000000000000000000000000000000000000000000000008152506024018281526020019150506040516020818303038152906040526040518082805190602001908083835b6020831015156132ef57805182526020820191506020810190506020830392506132ca565b6001836020036101000a03801982511681845116808217855250505050505090500191505060405180910390206040518263ffffffff167c0100000000000000000000000000000000000000000000000000000000028152600401808260001916600019168152602001915050602060405180830381600087803b15801561337657600080fd5b505af115801561338a573d6000803e3d6000fd5b505050506040513d60208110156133a057600080fd5b8101908080519060200190929190505050905092915050565b60008060009054906101000a900460ff166133d457426133d8565b6001545b905090565b60008273ffffffffffffffffffffffffffffffffffffffff1663bd02d0f58360405160200180807f636f6e747269627574696f6e2e66756e647352616973656400000000000000008152506018018281526020019150506040516020818303038152906040526040518082805190602001908083835b6020831015156134785780518252602082019150602081019050602083039250613453565b6001836020036101000a03801982511681845116808217855250505050505090500191505060405180910390206040518263ffffffff167c0100000000000000000000000000000000000000000000000000000000028152600401808260001916600019168152602001915050602060405180830381600087803b1580156134ff57600080fd5b505af1158015613513573d6000803e3d6000fd5b505050506040513d602081101561352957600080fd5b8101908080519060200190929190505050905092915050565b600080600080600080613574888a73ffffffffffffffffffffffffffffffffffffffff166133dd90919063ffffffff16565b95506135a188888b73ffffffffffffffffffffffffffffffffffffffff166144899092919063ffffffff16565b945060648587028115156135b157fe5b0493506135dd888a73ffffffffffffffffffffffffffffffffffffffff1661250c90919063ffffffff16565b92508891508173ffffffffffffffffffffffffffffffffffffffff166304433bbc6040518163ffffffff167c010000000000000000000000000000000000000000000000000000000002815260040180806020018281038252600c8152602001807f46756e64696e675661756c740000000000000000000000000000000000000000815250602001915050602060405180830381600087803b15801561368257600080fd5b505af1158015613696573d6000803e3d6000fd5b505050506040513d60208110156136ac57600080fd5b810190808051906020019092919050505090508073ffffffffffffffffffffffffffffffffffffffff1663a158657c85856040518363ffffffff167c0100000000000000000000000000000000000000000000000000000000028152600401808381526020018273ffffffffffffffffffffffffffffffffffffffff1673ffffffffffffffffffffffffffffffffffffffff16815260200192505050600060405180830381600087803b15801561376257600080fd5b505af1158015613776573d6000803e3d6000fd5b50505050505050505050505050565b60008273ffffffffffffffffffffffffffffffffffffffff1663bd02d0f58360405160200180807f70726f6a6563742e646576656c6f7065724964000000000000000000000000008152506013018281526020019150506040516020818303038152906040526040518082805190602001908083835b60208310151561382057805182526020820191506020810190506020830392506137fb565b6001836020036101000a03801982511681845116808217855250505050505090500191505060405180910390206040518263ffffffff167c0100000000000000000000000000000000000000000000000000000000028152600401808260001916600019168152602001915050602060405180830381600087803b1580156138a757600080fd5b505af11580156138bb573d6000803e3d6000fd5b505050506040513d60208110156138d157600080fd5b8101908080519060200190929190505050905092915050565b60008173ffffffffffffffffffffffffffffffffffffffff1663bd02d0f560405180807f70726f6a6563742e6e6578744964000000000000000000000000000000000000815250600e01905060405180910390206040518263ffffffff167c0100000000000000000000000000000000000000000000000000000000028152600401808260001916600019168152602001915050602060405180830381600087803b15801561399857600080fd5b505af11580156139ac573d6000803e3d6000fd5b505050506040513d60208110156139c257600080fd5b810190808051906020019092919050505090508173ffffffffffffffffffffffffffffffffffffffff1663e2a4853a60405180807f70726f6a6563742e6e6578744964000000000000000000000000000000000000815250600e0190506040518091039020600184016040518363ffffffff167c010000000000000000000000000000000000000000000000000000000002815260040180836000191660001916815260200182815260200192505050600060405180830381600087803b158015613a8c57600080fd5b505af1158015613aa0573d6000803e3d6000fd5b505050505050565b60008273ffffffffffffffffffffffffffffffffffffffff1663bd02d0f58360405160200180807f646576656c6f7065722e646576656c6f7065724d6170000000000000000000008152506016018273ffffffffffffffffffffffffffffffffffffffff1673ffffffffffffffffffffffffffffffffffffffff166c010000000000000000000000000281526014019150506040516020818303038152906040526040518082805190602001908083835b602083101515613b7e5780518252602082019150602081019050602083039250613b59565b6001836020036101000a03801982511681845116808217855250505050505090500191505060405180910390206040518263ffffffff167c0100000000000000000000000000000000000000000000000000000000028152600401808260001916600019168152602001915050602060405180830381600087803b158015613c0557600080fd5b505af1158015613c19573d6000803e3d6000fd5b505050506040513d6020811015613c2f57600080fd5b8101908080519060200190929190505050905092915050565b600080613c5483614814565b9050613c5f836138ea565b80915050919050565b60608273ffffffffffffffffffffffffffffffffffffffff1663986e791a8360405160200180807f70726f6a6563742e7469746c6500000000000000000000000000000000000000815250600d018281526020019150506040516020818303038152906040526040518082805190602001908083835b602083101515613d035780518252602082019150602081019050602083039250613cde565b6001836020036101000a03801982511681845116808217855250505050505090500191505060405180910390206040518263ffffffff167c0100000000000000000000000000000000000000000000000000000000028152600401808260001916600019168152602001915050600060405180830381600087803b158015613d8a57600080fd5b505af1158015613d9e573d6000803e3d6000fd5b505050506040513d6000823e3d601f19601f820116820180604052506020811015613dc857600080fd5b810190808051640100000000811115613de057600080fd5b82810190506020810184811115613df657600080fd5b8151856001820283011164010000000082111715613e1357600080fd5b5050929190505050905092915050565b60608273ffffffffffffffffffffffffffffffffffffffff1663986e791a8360405160200180807f70726f6a6563742e6465736372697074696f6e000000000000000000000000008152506013018281526020019150506040516020818303038152906040526040518082805190602001908083835b602083101515613ebe5780518252602082019150602081019050602083039250613e99565b6001836020036101000a03801982511681845116808217855250505050505090500191505060405180910390206040518263ffffffff167c0100000000000000000000000000000000000000000000000000000000028152600401808260001916600019168152602001915050600060405180830381600087803b158015613f4557600080fd5b505af1158015613f59573d6000803e3d6000fd5b505050506040513d6000823e3d601f19601f820116820180604052506020811015613f8357600080fd5b810190808051640100000000811115613f9b57600080fd5b82810190506020810184811115613fb157600080fd5b8151856001820283011164010000000082111715613fce57600080fd5b5050929190505050905092915050565b60608273ffffffffffffffffffffffffffffffffffffffff1663986e791a8360405160200180807f70726f6a6563742e61626f757400000000000000000000000000000000000000815250600d018281526020019150506040516020818303038152906040526040518082805190602001908083835b6020831015156140795780518252602082019150602081019050602083039250614054565b6001836020036101000a03801982511681845116808217855250505050505090500191505060405180910390206040518263ffffffff167c0100000000000000000000000000000000000000000000000000000000028152600401808260001916600019168152602001915050600060405180830381600087803b15801561410057600080fd5b505af1158015614114573d6000803e3d6000fd5b505050506040513d6000823e3d601f19601f82011682018060405250602081101561413e57600080fd5b81019080805164010000000081111561415657600080fd5b8281019050602081018481111561416c57600080fd5b815185600182028301116401000000008211171561418957600080fd5b5050929190505050905092915050565b60008273ffffffffffffffffffffffffffffffffffffffff16637ae1cfca8360405160200180807f70726f6a6563742e6e6f526566756e64730000000000000000000000000000008152506011018281526020019150506040516020818303038152906040526040518082805190602001908083835b602083101515614234578051825260208201915060208101905060208303925061420f565b6001836020036101000a03801982511681845116808217855250505050505090500191505060405180910390206040518263ffffffff167c0100000000000000000000000000000000000000000000000000000000028152600401808260001916600019168152602001915050602060405180830381600087803b1580156142bb57600080fd5b505af11580156142cf573d6000803e3d6000fd5b505050506040513d60208110156142e557600080fd5b8101908080519060200190929190505050905092915050565b60008273ffffffffffffffffffffffffffffffffffffffff1663bd02d0f58360405160200180807f70726f6a6563742e70656e64696e67436f6e747269627574696f6e546965727381526020017f2e6c656e677468000000000000000000000000000000000000000000000000008152506027018281526020019150506040516020818303038152906040526040518082805190602001908083835b6020831015156143bf578051825260208201915060208101905060208303925061439a565b6001836020036101000a03801982511681845116808217855250505050505090500191505060405180910390206040518263ffffffff167c0100000000000000000000000000000000000000000000000000000000028152600401808260001916600019168152602001915050602060405180830381600087803b15801561444657600080fd5b505af115801561445a573d6000803e3d6000fd5b505050506040513d602081101561447057600080fd5b8101908080519060200190929190505050905092915050565b60008373ffffffffffffffffffffffffffffffffffffffff1663bd02d0f58460405160200180807f70726f6a6563742e74696d656c696e652e6c656e6774680000000000000000008152506017018281526020019150506040516020818303038152906040526040518082805190602001908083835b60208310151561452457805182526020820191506020810190506020830392506144ff565b6001836020036101000a03801982511681845116808217855250505050505090500191505060405180910390206040518263ffffffff167c0100000000000000000000000000000000000000000000000000000000028152600401808260001916600019168152602001915050602060405180830381600087803b1580156145ab57600080fd5b505af11580156145bf573d6000803e3d6000fd5b505050506040513d60208110156145d557600080fd5b810190808051906020019092919050505082101515614682576040517f08c379a00000000000000000000000000000000000000000000000000000000081526004018080602001828103825260258152602001807f496e646578206973206f757473696465206f662061636365737369626c65207281526020017f616e67652e00000000000000000000000000000000000000000000000000000081525060400191505060405180910390fd5b8373ffffffffffffffffffffffffffffffffffffffff1663bd02d0f5838560405160200180807f70726f6a6563742e74696d656c696e652e6d696c6573746f6e65732e7065726381526020017f656e746167650000000000000000000000000000000000000000000000000000815250602601838152602001828152602001925050506040516020818303038152906040526040518082805190602001908083835b6020831015156147495780518252602082019150602081019050602083039250614724565b6001836020036101000a03801982511681845116808217855250505050505090500191505060405180910390206040518263ffffffff167c0100000000000000000000000000000000000000000000000000000000028152600401808260001916600019168152602001915050602060405180830381600087803b1580156147d057600080fd5b505af11580156147e4573d6000803e3d6000fd5b505050506040513d60208110156147fa57600080fd5b810190808051906020019092919050505090509392505050565b60008173ffffffffffffffffffffffffffffffffffffffff1663bd02d0f560405180807f70726f6a6563742e6e6578744964000000000000000000000000000000000000815250600e01905060405180910390206040518263ffffffff167c0100000000000000000000000000000000000000000000000000000000028152600401808260001916600019168152602001915050602060405180830381600087803b1580156148c257600080fd5b505af11580156148d6573d6000803e3d6000fd5b505050506040513d60208110156148ec57600080fd5b810190808051906020019092919050505090509190505600a165627a7a72305820234e2531de42663b83ee634e0cb0668c52d159c9d435e001342880d7f784af070029",
  "source": "pragma solidity ^0.4.24;\n\nimport \"../FundingStorage.sol\";\nimport \"./ProjectBase.sol\";\nimport \"../libraries/storage/CurationStorageAccess.sol\";\nimport \"../libraries/ProjectTimelineHelpersLibrary.sol\";\nimport \"../libraries/ProjectContributionTierHelpersLibrary.sol\";\nimport \"../libraries/ProjectMilestoneCompletionHelpersLibrary.sol\";\nimport \"../libraries/ProjectRegistrationHelpersLibrary.sol\";\n\ncontract ProjectRegistration is ProjectBase {\n\n    using ProjectRegistrationHelpersLibrary for address;\n    using ProjectTimelineHelpersLibrary for address;\n    using ProjectContributionTierHelpersLibrary for address;\n    using ProjectMilestoneCompletionHelpersLibrary for address;\n    using CurationStorageAccess for address;\n    using ContributionStorageAccess for address;\n\n    event ProjectCreated(uint projectId);\n\n    constructor(address _fundingStorage, bool _inTest) public Testable(_inTest) {\n        fundingStorage = _fundingStorage;\n    }\n\n    function initialize() external {\n        require(FundingStorage(fundingStorage).getContractIsValid(this), \"This contract is not registered in FundingStorage.\");\n\n        // reserve projectId 0\n        fundingStorage.incrementNextProjectId();\n    }\n\n    function createProject(\n        string _title,\n        string _description,\n        string _about\n    )\n        external\n    {\n        // Verify that sender is a developer\n        uint developerId = fundingStorage.getDeveloperId(msg.sender);\n        require(developerId != 0, \"This address is not a developer.\");\n\n        // Get next ID from storage + increment next ID\n        uint projectId = fundingStorage.generateNewProjectId();\n\n        // Set new project attributes\n        fundingStorage.setProjectInfo(projectId, uint(Status.Draft), _title, _description, _about, msg.sender, developerId);\n\n        emit ProjectCreated(projectId);\n    }\n\n    function setProjectContributionGoals(\n        uint _projectId,\n        uint _minGoal,\n        uint _maxGoal,\n        uint _contributionPeriod\n    )\n        external\n        onlyProjectDeveloper(_projectId)\n        onlyDraftProject(_projectId)\n    {\n        // Minimum goal must be greater than 0\n        require(_minGoal > 0, \"Minimum goal must be greater than 0.\");\n\n        // Minimum goal must be less than maximum goal\n        require(_minGoal < _maxGoal, \"Minimum goal must be less than maximum goal.\");\n\n        // Contribution period must be greater than 0\n        require(_contributionPeriod > 0, \"Contribution period must be at least 1 week.\");\n\n        fundingStorage.setProjectContributionGoals(_projectId, _minGoal, _maxGoal, _contributionPeriod);\n    }\n\n    function setProjectTerms(\n        uint _projectId,\n        bool _noRefunds,\n        bool _noTimeline\n    )\n        external\n        onlyProjectDeveloper(_projectId)\n        onlyDraftProject(_projectId)\n    {\n        fundingStorage.setProjectTerms(_projectId, _noRefunds, _noTimeline);\n    }\n\n    function editProjectInfo(\n        uint _projectId,\n        string _title,\n        string _description,\n        string _about\n    )\n        external\n        onlyProjectDeveloper(_projectId)\n        onlyDraftProject(_projectId)\n    {\n        // Set project attributes\n        uint developerId = fundingStorage.getProjectDeveloperId(_projectId);\n\n        fundingStorage.setProjectInfo(_projectId, uint(Status.Draft), _title, _description, _about, msg.sender, developerId);\n    }\n\n    function getProject(\n        uint _projectId\n    )\n        external\n        view\n        returns (\n            uint id,\n            uint status,\n            string title,\n            string description,\n            string about,\n            uint minContributionGoal,\n            uint maxContributionGoal,\n            uint contributionPeriod,\n            bool noRefunds,\n            bool noTimeline,\n            address developer,\n            uint developerId\n        )\n    {\n        id = _projectId;\n        status = fundingStorage.getProjectStatus(_projectId);\n        title = fundingStorage.getProjectTitle(_projectId);\n        description = fundingStorage.getProjectDescription(_projectId);\n        about = fundingStorage.getProjectAbout(_projectId);\n        minContributionGoal = fundingStorage.getProjectMinContributionGoal(_projectId);\n        maxContributionGoal = fundingStorage.getProjectMaxContributionGoal(_projectId);\n        contributionPeriod = fundingStorage.getProjectContributionPeriod(_projectId);\n        developer = fundingStorage.getProjectDeveloper(_projectId);\n        noRefunds = fundingStorage.getProjectNoRefunds(_projectId);\n        noTimeline = fundingStorage.getProjectNoTimeline(_projectId);\n        developerId = fundingStorage.getProjectDeveloperId(_projectId);\n\n        return (id, status, title, description, about, minContributionGoal, maxContributionGoal, contributionPeriod, noRefunds, noTimeline, developer, developerId);\n    }\n\n    function submitProjectForReview(uint _projectId) external onlyProjectDeveloper(_projectId) onlyDraftProject(_projectId) {\n        bool noTimeline = fundingStorage.getProjectNoTimeline(_projectId);\n\n        // Verify that project has outlined contribution goals\n        uint minGoal = fundingStorage.getProjectMinContributionGoal(_projectId);\n        uint maxGoal = fundingStorage.getProjectMaxContributionGoal(_projectId);\n        require(minGoal != 0 && maxGoal != 0);\n\n        // Make sure project has outlined contribution tiers\n        verifyProjectTiers(_projectId);\n\n        // If project has a timeline, verify that milestone percentages add up to 100% and set active timeline\n        if (!noTimeline) {\n            fundingStorage.verifyPendingMilestones(_projectId);\n            fundingStorage.movePendingMilestonesIntoTimeline(_projectId);\n            fundingStorage.movePendingContributionTiersIntoActiveContributionTiers(_projectId);\n        }\n\n        // Change project status to \"Pending\"\n        fundingStorage.setProjectStatus(_projectId, uint(Status.Pending));\n\n        // Open curation\n        fundingStorage.setDraftCurationTimestamp(_projectId, now);\n        fundingStorage.setDraftCurationIsActive(_projectId, true);\n    }\n\n    function verifyProjectTiers(uint _projectId) private view {\n        // Verify that project has contribution tiers\n        uint tiersLength = fundingStorage.getPendingContributionTiersLength(_projectId);\n        require(tiersLength > 0, \"Project has no contribution tiers.\");\n    }\n\n    function beginProjectDevelopment(uint _projectId) external onlyProjectDeveloper(_projectId) onlyContributableProject(_projectId) {\n        // It must be within the contribution period set by the developer\n        uint contributionPeriod = fundingStorage.getProjectContributionPeriod(_projectId);\n        uint periodStart = fundingStorage.getProjectContributionPeriodStart(_projectId);\n        require(getCurrentTime() >= periodStart + contributionPeriod * 1 weeks);\n\n        uint fundsRaised = fundingStorage.getProjectFundsRaised(_projectId);\n        uint minGoal = fundingStorage.getProjectMinContributionGoal(_projectId);\n\n        if (fundsRaised >= minGoal) {\n            fundingStorage.setProjectStatus(_projectId, uint(Status.InDevelopment));\n            fundingStorage.releaseMilestoneFunds(_projectId, 0);\n        } else {\n            fundingStorage.setProjectStatus(_projectId, uint(Status.Refundable));\n        }\n    }\n}\n",
  "sourcePath": "/home/jordan/Projects/hyperbridge/funding-protocol/smart-contracts/ethereum/contracts/project/ProjectRegistration.sol",
  "compiler": {
    "name": "solc",
    "version": "0.4.24+commit.e67f0147.Emscripten.clang"
  },
  "schemaVersion": "2.0.1",
  "updatedAt": "2018-07-26T16:56:22.983Z"
}