{
  "contractName": "ProjectRegistration",
  "abi": [
    {
      "inputs": [
        {
          "name": "_fundingStorage",
          "type": "address"
        }
      ],
      "payable": false,
      "stateMutability": "nonpayable",
      "type": "constructor"
    },
    {
      "anonymous": false,
      "inputs": [
        {
          "indexed": false,
          "name": "projectId",
          "type": "uint256"
        }
      ],
      "name": "ProjectCreated",
      "type": "event"
    },
    {
      "constant": false,
      "inputs": [
        {
          "name": "_title",
          "type": "string"
        },
        {
          "name": "_description",
          "type": "string"
        },
        {
          "name": "_about",
          "type": "string"
        },
        {
          "name": "_contributionGoal",
          "type": "uint256"
        },
        {
          "name": "_noRefunds",
          "type": "bool"
        },
        {
          "name": "_noTimeline",
          "type": "bool"
        }
      ],
      "name": "createProject",
      "outputs": [],
      "payable": false,
      "stateMutability": "nonpayable",
      "type": "function"
    },
    {
      "constant": false,
      "inputs": [
        {
          "name": "_projectId",
          "type": "uint256"
        },
        {
          "name": "_title",
          "type": "string"
        },
        {
          "name": "_description",
          "type": "string"
        },
        {
          "name": "_about",
          "type": "string"
        },
        {
          "name": "_contributionGoal",
          "type": "uint256"
        },
        {
          "name": "_noRefunds",
          "type": "bool"
        },
        {
          "name": "_noTimeline",
          "type": "bool"
        }
      ],
      "name": "editProject",
      "outputs": [],
      "payable": false,
      "stateMutability": "nonpayable",
      "type": "function"
    },
    {
      "constant": true,
      "inputs": [
        {
          "name": "_projectId",
          "type": "uint256"
        }
      ],
      "name": "getProject",
      "outputs": [
        {
          "name": "id",
          "type": "uint256"
        },
        {
          "name": "status",
          "type": "uint256"
        },
        {
          "name": "title",
          "type": "string"
        },
        {
          "name": "description",
          "type": "string"
        },
        {
          "name": "about",
          "type": "string"
        },
        {
          "name": "contributionGoal",
          "type": "uint256"
        },
        {
          "name": "noRefunds",
          "type": "bool"
        },
        {
          "name": "noTimeline",
          "type": "bool"
        },
        {
          "name": "developer",
          "type": "address"
        },
        {
          "name": "developerId",
          "type": "uint256"
        }
      ],
      "payable": false,
      "stateMutability": "view",
      "type": "function"
    },
    {
      "constant": false,
      "inputs": [
        {
          "name": "_projectId",
          "type": "uint256"
        }
      ],
      "name": "submitProjectForReview",
      "outputs": [],
      "payable": false,
      "stateMutability": "nonpayable",
      "type": "function"
    }
  ],
  "bytecode": "0x608060405234801561001057600080fd5b50604051602080613a7083398101806040528101908080519060200190929190505050806000806101000a81548173ffffffffffffffffffffffffffffffffffffffff021916908373ffffffffffffffffffffffffffffffffffffffff160217905550506139ed806100836000396000f300608060405260043610610062576000357c0100000000000000000000000000000000000000000000000000000000900463ffffffff1680630f1fdb4b14610067578063234a40c9146100fe578063c592d7c71461012b578063f0f3f2c8146101b8575b600080fd5b34801561007357600080fd5b506100fc600480360381019080803590602001909291908035906020019082018035906020019190919293919293908035906020019082018035906020019190919293919293908035906020019082018035906020019190919293919293908035906020019092919080351515906020019092919080351515906020019092919050505061039b565b005b34801561010a57600080fd5b5061012960048036038101908080359060200190929190505050610823565b005b34801561013757600080fd5b506101b660048036038101908080359060200190820180359060200191909192939192939080359060200190820180359060200191909192939192939080359060200190820180359060200191909192939192939080359060200190929190803515159060200190929190803515159060200190929190505050610e65565b005b3480156101c457600080fd5b506101e360048036038101908080359060200190929190505050611301565b604051808b81526020018a815260200180602001806020018060200189815260200188151515158152602001871515151581526020018673ffffffffffffffffffffffffffffffffffffffff1673ffffffffffffffffffffffffffffffffffffffff16815260200185815260200184810384528c818151815260200191508051906020019080838360005b8381101561028957808201518184015260208101905061026e565b50505050905090810190601f1680156102b65780820380516001836020036101000a031916815260200191505b5084810383528b818151815260200191508051906020019080838360005b838110156102ef5780820151818401526020810190506102d4565b50505050905090810190601f16801561031c5780820380516001836020036101000a031916815260200191505b5084810382528a818151815260200191508051906020019080838360005b8381101561035557808201518184015260208101905061033a565b50505050905090810190601f1680156103825780820380516001836020036101000a031916815260200191505b509d505050505050505050505050505060405180910390f35b896103e6816000809054906101000a900473ffffffffffffffffffffffffffffffffffffffff1673ffffffffffffffffffffffffffffffffffffffff166115eb90919063ffffffff16565b73ffffffffffffffffffffffffffffffffffffffff163373ffffffffffffffffffffffffffffffffffffffff161415156104ae576040517f08c379a00000000000000000000000000000000000000000000000000000000081526004018080602001828103825260398152602001807f596f75206d757374206265207468652070726f6a65637420646576656c6f706581526020017f7220746f20706572666f726d207468697320616374696f6e2e0000000000000081525060400191505060405180910390fd5b8a600060048111156104bc57fe5b610506826000809054906101000a900473ffffffffffffffffffffffffffffffffffffffff1673ffffffffffffffffffffffffffffffffffffffff1661175090919063ffffffff16565b600481111561051157fe5b600481111561051c57fe5b1415156105b7576040517f08c379a00000000000000000000000000000000000000000000000000000000081526004018080602001828103825260358152602001807f5468697320616374696f6e2063616e206f6e6c7920626520706572666f726d6581526020017f64206f6e20612064726166742070726f6a6563742e000000000000000000000081525060400191505060405180910390fd5b6106358c8c8c8080601f0160208091040260200160405190810160405280939291908181526020018383808284378201915050505050506000809054906101000a900473ffffffffffffffffffffffffffffffffffffffff1673ffffffffffffffffffffffffffffffffffffffff166118b59092919063ffffffff16565b6106b38c8a8a8080601f0160208091040260200160405190810160405280939291908181526020018383808284378201915050505050506000809054906101000a900473ffffffffffffffffffffffffffffffffffffffff1673ffffffffffffffffffffffffffffffffffffffff16611a5f9092919063ffffffff16565b6107318c88888080601f0160208091040260200160405190810160405280939291908181526020018383808284378201915050505050506000809054906101000a900473ffffffffffffffffffffffffffffffffffffffff1673ffffffffffffffffffffffffffffffffffffffff16611c099092919063ffffffff16565b61077d8c866000809054906101000a900473ffffffffffffffffffffffffffffffffffffffff1673ffffffffffffffffffffffffffffffffffffffff16611db39092919063ffffffff16565b6107c98c856000809054906101000a900473ffffffffffffffffffffffffffffffffffffffff1673ffffffffffffffffffffffffffffffffffffffff16611ef89092919063ffffffff16565b6108158c846000809054906101000a900473ffffffffffffffffffffffffffffffffffffffff1673ffffffffffffffffffffffffffffffffffffffff166120419092919063ffffffff16565b505050505050505050505050565b600081610870816000809054906101000a900473ffffffffffffffffffffffffffffffffffffffff1673ffffffffffffffffffffffffffffffffffffffff166115eb90919063ffffffff16565b73ffffffffffffffffffffffffffffffffffffffff163373ffffffffffffffffffffffffffffffffffffffff16141515610938576040517f08c379a00000000000000000000000000000000000000000000000000000000081526004018080602001828103825260398152602001807f596f75206d757374206265207468652070726f6a65637420646576656c6f706581526020017f7220746f20706572666f726d207468697320616374696f6e2e0000000000000081525060400191505060405180910390fd5b826000600481111561094657fe5b610990826000809054906101000a900473ffffffffffffffffffffffffffffffffffffffff1673ffffffffffffffffffffffffffffffffffffffff1661175090919063ffffffff16565b600481111561099b57fe5b60048111156109a657fe5b141515610a41576040517f08c379a00000000000000000000000000000000000000000000000000000000081526004018080602001828103825260358152602001807f5468697320616374696f6e2063616e206f6e6c7920626520706572666f726d6581526020017f64206f6e20612064726166742070726f6a6563742e000000000000000000000081525060400191505060405180910390fd5b610a8b846000809054906101000a900473ffffffffffffffffffffffffffffffffffffffff1673ffffffffffffffffffffffffffffffffffffffff1661218a90919063ffffffff16565b9250610a96846122ef565b821515610d6e576000809054906101000a900473ffffffffffffffffffffffffffffffffffffffff1673ffffffffffffffffffffffffffffffffffffffff1673__ProjectHelpersLibrary_________________637b9ee6589091866040518363ffffffff167c0100000000000000000000000000000000000000000000000000000000028152600401808373ffffffffffffffffffffffffffffffffffffffff1673ffffffffffffffffffffffffffffffffffffffff1681526020018281526020019250505060006040518083038186803b158015610b7557600080fd5b505af4158015610b89573d6000803e3d6000fd5b505050506000809054906101000a900473ffffffffffffffffffffffffffffffffffffffff1673ffffffffffffffffffffffffffffffffffffffff1673__ProjectHelpersLibrary_________________6331a26acf9091866040518363ffffffff167c0100000000000000000000000000000000000000000000000000000000028152600401808373ffffffffffffffffffffffffffffffffffffffff1673ffffffffffffffffffffffffffffffffffffffff1681526020018281526020019250505060006040518083038186803b158015610c6557600080fd5b505af4158015610c79573d6000803e3d6000fd5b505050506000809054906101000a900473ffffffffffffffffffffffffffffffffffffffff1673ffffffffffffffffffffffffffffffffffffffff1673__ProjectHelpersLibrary_________________636237c6369091866040518363ffffffff167c0100000000000000000000000000000000000000000000000000000000028152600401808373ffffffffffffffffffffffffffffffffffffffff1673ffffffffffffffffffffffffffffffffffffffff1681526020018281526020019250505060006040518083038186803b158015610d5557600080fd5b505af4158015610d69573d6000803e3d6000fd5b505050505b610dc68460016004811115610d7f57fe5b6000809054906101000a900473ffffffffffffffffffffffffffffffffffffffff1673ffffffffffffffffffffffffffffffffffffffff166123df9092919063ffffffff16565b610e1284426000809054906101000a900473ffffffffffffffffffffffffffffffffffffffff1673ffffffffffffffffffffffffffffffffffffffff166125249092919063ffffffff16565b610e5f8460016000809054906101000a900473ffffffffffffffffffffffffffffffffffffffff1673ffffffffffffffffffffffffffffffffffffffff166126699092919063ffffffff16565b50505050565b600080610eb2336000809054906101000a900473ffffffffffffffffffffffffffffffffffffffff1673ffffffffffffffffffffffffffffffffffffffff166127b290919063ffffffff16565b915060008214151515610f2d576040517f08c379a00000000000000000000000000000000000000000000000000000000081526004018080602001828103825260208152602001807f546869732061646472657373206973206e6f74206120646576656c6f7065722e81525060200191505060405180910390fd5b610f6d6000809054906101000a900473ffffffffffffffffffffffffffffffffffffffff1673ffffffffffffffffffffffffffffffffffffffff16612952565b9050610fc78160006004811115610f8057fe5b6000809054906101000a900473ffffffffffffffffffffffffffffffffffffffff1673ffffffffffffffffffffffffffffffffffffffff166123df9092919063ffffffff16565b611045818c8c8080601f0160208091040260200160405190810160405280939291908181526020018383808284378201915050505050506000809054906101000a900473ffffffffffffffffffffffffffffffffffffffff1673ffffffffffffffffffffffffffffffffffffffff166118b59092919063ffffffff16565b6110c3818a8a8080601f0160208091040260200160405190810160405280939291908181526020018383808284378201915050505050506000809054906101000a900473ffffffffffffffffffffffffffffffffffffffff1673ffffffffffffffffffffffffffffffffffffffff16611a5f9092919063ffffffff16565b6111418188888080601f0160208091040260200160405190810160405280939291908181526020018383808284378201915050505050506000809054906101000a900473ffffffffffffffffffffffffffffffffffffffff1673ffffffffffffffffffffffffffffffffffffffff16611c099092919063ffffffff16565b61118d81866000809054906101000a900473ffffffffffffffffffffffffffffffffffffffff1673ffffffffffffffffffffffffffffffffffffffff16611db39092919063ffffffff16565b6111d981856000809054906101000a900473ffffffffffffffffffffffffffffffffffffffff1673ffffffffffffffffffffffffffffffffffffffff16611ef89092919063ffffffff16565b61122581846000809054906101000a900473ffffffffffffffffffffffffffffffffffffffff1673ffffffffffffffffffffffffffffffffffffffff166120419092919063ffffffff16565b61127181336000809054906101000a900473ffffffffffffffffffffffffffffffffffffffff1673ffffffffffffffffffffffffffffffffffffffff166129729092919063ffffffff16565b6112bd81836000809054906101000a900473ffffffffffffffffffffffffffffffffffffffff1673ffffffffffffffffffffffffffffffffffffffff16612ae39092919063ffffffff16565b7f1ac2092e16e28eef29d1832f3dc69da1b21284a1f3159d3b26cb238b22fe4f8a816040518082815260200191505060405180910390a15050505050505050505050565b600080606080606060008060008060008a995061135e8b6000809054906101000a900473ffffffffffffffffffffffffffffffffffffffff1673ffffffffffffffffffffffffffffffffffffffff1661175090919063ffffffff16565b98506113aa8b6000809054906101000a900473ffffffffffffffffffffffffffffffffffffffff1673ffffffffffffffffffffffffffffffffffffffff16612c2890919063ffffffff16565b97506113f68b6000809054906101000a900473ffffffffffffffffffffffffffffffffffffffff1673ffffffffffffffffffffffffffffffffffffffff16612de390919063ffffffff16565b96506114428b6000809054906101000a900473ffffffffffffffffffffffffffffffffffffffff1673ffffffffffffffffffffffffffffffffffffffff16612f9e90919063ffffffff16565b955061148e8b6000809054906101000a900473ffffffffffffffffffffffffffffffffffffffff1673ffffffffffffffffffffffffffffffffffffffff1661315990919063ffffffff16565b94506114da8b6000809054906101000a900473ffffffffffffffffffffffffffffffffffffffff1673ffffffffffffffffffffffffffffffffffffffff166115eb90919063ffffffff16565b91506115268b6000809054906101000a900473ffffffffffffffffffffffffffffffffffffffff1673ffffffffffffffffffffffffffffffffffffffff166132be90919063ffffffff16565b93506115728b6000809054906101000a900473ffffffffffffffffffffffffffffffffffffffff1673ffffffffffffffffffffffffffffffffffffffff1661218a90919063ffffffff16565b92506115be8b6000809054906101000a900473ffffffffffffffffffffffffffffffffffffffff1673ffffffffffffffffffffffffffffffffffffffff1661342390919063ffffffff16565b90508989898989898989898999509950995099509950995099509950995099509193959799509193959799565b60008273ffffffffffffffffffffffffffffffffffffffff166321f8a7218360405160200180807f70726f6a6563742e646576656c6f7065720000000000000000000000000000008152506011018281526020019150506040516020818303038152906040526040518082805190602001908083835b6020831015156116865780518252602082019150602081019050602083039250611661565b6001836020036101000a03801982511681845116808217855250505050505090500191505060405180910390206040518263ffffffff167c0100000000000000000000000000000000000000000000000000000000028152600401808260001916600019168152602001915050602060405180830381600087803b15801561170d57600080fd5b505af1158015611721573d6000803e3d6000fd5b505050506040513d602081101561173757600080fd5b8101908080519060200190929190505050905092915050565b60008273ffffffffffffffffffffffffffffffffffffffff1663bd02d0f58360405160200180807f70726f6a6563742e737461747573000000000000000000000000000000000000815250600e018281526020019150506040516020818303038152906040526040518082805190602001908083835b6020831015156117eb57805182526020820191506020810190506020830392506117c6565b6001836020036101000a03801982511681845116808217855250505050505090500191505060405180910390206040518263ffffffff167c0100000000000000000000000000000000000000000000000000000000028152600401808260001916600019168152602001915050602060405180830381600087803b15801561187257600080fd5b505af1158015611886573d6000803e3d6000fd5b505050506040513d602081101561189c57600080fd5b8101908080519060200190929190505050905092915050565b8273ffffffffffffffffffffffffffffffffffffffff16636e8995508360405160200180807f70726f6a6563742e7469746c6500000000000000000000000000000000000000815250600d018281526020019150506040516020818303038152906040526040518082805190602001908083835b60208310151561194e5780518252602082019150602081019050602083039250611929565b6001836020036101000a0380198251168184511680821785525050505050509050019150506040518091039020836040518363ffffffff167c010000000000000000000000000000000000000000000000000000000002815260040180836000191660001916815260200180602001828103825283818151815260200191508051906020019080838360005b838110156119f55780820151818401526020810190506119da565b50505050905090810190601f168015611a225780820380516001836020036101000a031916815260200191505b509350505050600060405180830381600087803b158015611a4257600080fd5b505af1158015611a56573d6000803e3d6000fd5b50505050505050565b8273ffffffffffffffffffffffffffffffffffffffff16636e8995508360405160200180807f70726f6a6563742e6465736372697074696f6e000000000000000000000000008152506013018281526020019150506040516020818303038152906040526040518082805190602001908083835b602083101515611af85780518252602082019150602081019050602083039250611ad3565b6001836020036101000a0380198251168184511680821785525050505050509050019150506040518091039020836040518363ffffffff167c010000000000000000000000000000000000000000000000000000000002815260040180836000191660001916815260200180602001828103825283818151815260200191508051906020019080838360005b83811015611b9f578082015181840152602081019050611b84565b50505050905090810190601f168015611bcc5780820380516001836020036101000a031916815260200191505b509350505050600060405180830381600087803b158015611bec57600080fd5b505af1158015611c00573d6000803e3d6000fd5b50505050505050565b8273ffffffffffffffffffffffffffffffffffffffff16636e8995508360405160200180807f70726f6a6563742e61626f757400000000000000000000000000000000000000815250600d018281526020019150506040516020818303038152906040526040518082805190602001908083835b602083101515611ca25780518252602082019150602081019050602083039250611c7d565b6001836020036101000a0380198251168184511680821785525050505050509050019150506040518091039020836040518363ffffffff167c010000000000000000000000000000000000000000000000000000000002815260040180836000191660001916815260200180602001828103825283818151815260200191508051906020019080838360005b83811015611d49578082015181840152602081019050611d2e565b50505050905090810190601f168015611d765780820380516001836020036101000a031916815260200191505b509350505050600060405180830381600087803b158015611d9657600080fd5b505af1158015611daa573d6000803e3d6000fd5b50505050505050565b8273ffffffffffffffffffffffffffffffffffffffff1663e2a4853a8360405160200180807f70726f6a6563742e636f6e747269627574696f6e476f616c00000000000000008152506018018281526020019150506040516020818303038152906040526040518082805190602001908083835b602083101515611e4c5780518252602082019150602081019050602083039250611e27565b6001836020036101000a0380198251168184511680821785525050505050509050019150506040518091039020836040518363ffffffff167c010000000000000000000000000000000000000000000000000000000002815260040180836000191660001916815260200182815260200192505050600060405180830381600087803b158015611edb57600080fd5b505af1158015611eef573d6000803e3d6000fd5b50505050505050565b8273ffffffffffffffffffffffffffffffffffffffff1663abfdcced8360405160200180807f70726f6a6563742e6e6f526566756e64730000000000000000000000000000008152506011018281526020019150506040516020818303038152906040526040518082805190602001908083835b602083101515611f915780518252602082019150602081019050602083039250611f6c565b6001836020036101000a0380198251168184511680821785525050505050509050019150506040518091039020836040518363ffffffff167c01000000000000000000000000000000000000000000000000000000000281526004018083600019166000191681526020018215151515815260200192505050600060405180830381600087803b15801561202457600080fd5b505af1158015612038573d6000803e3d6000fd5b50505050505050565b8273ffffffffffffffffffffffffffffffffffffffff1663abfdcced8360405160200180807f70726f6a6563742e6e6f54696d656c696e6500000000000000000000000000008152506012018281526020019150506040516020818303038152906040526040518082805190602001908083835b6020831015156120da57805182526020820191506020810190506020830392506120b5565b6001836020036101000a0380198251168184511680821785525050505050509050019150506040518091039020836040518363ffffffff167c01000000000000000000000000000000000000000000000000000000000281526004018083600019166000191681526020018215151515815260200192505050600060405180830381600087803b15801561216d57600080fd5b505af1158015612181573d6000803e3d6000fd5b50505050505050565b60008273ffffffffffffffffffffffffffffffffffffffff16637ae1cfca8360405160200180807f70726f6a6563742e6e6f54696d656c696e6500000000000000000000000000008152506012018281526020019150506040516020818303038152906040526040518082805190602001908083835b6020831015156122255780518252602082019150602081019050602083039250612200565b6001836020036101000a03801982511681845116808217855250505050505090500191505060405180910390206040518263ffffffff167c0100000000000000000000000000000000000000000000000000000000028152600401808260001916600019168152602001915050602060405180830381600087803b1580156122ac57600080fd5b505af11580156122c0573d6000803e3d6000fd5b505050506040513d60208110156122d657600080fd5b8101908080519060200190929190505050905092915050565b600061233b826000809054906101000a900473ffffffffffffffffffffffffffffffffffffffff1673ffffffffffffffffffffffffffffffffffffffff1661358890919063ffffffff16565b90506000811115156123db576040517f08c379a00000000000000000000000000000000000000000000000000000000081526004018080602001828103825260228152602001807f50726f6a65637420686173206e6f20636f6e747269627574696f6e207469657281526020017f732e00000000000000000000000000000000000000000000000000000000000081525060400191505060405180910390fd5b5050565b8273ffffffffffffffffffffffffffffffffffffffff1663e2a4853a8360405160200180807f70726f6a6563742e737461747573000000000000000000000000000000000000815250600e018281526020019150506040516020818303038152906040526040518082805190602001908083835b6020831015156124785780518252602082019150602081019050602083039250612453565b6001836020036101000a0380198251168184511680821785525050505050509050019150506040518091039020836040518363ffffffff167c010000000000000000000000000000000000000000000000000000000002815260040180836000191660001916815260200182815260200192505050600060405180830381600087803b15801561250757600080fd5b505af115801561251b573d6000803e3d6000fd5b50505050505050565b8273ffffffffffffffffffffffffffffffffffffffff1663e2a4853a8360405160200180807f6375726174696f6e2e64726166744375726174696f6e2e74696d657374616d708152506020018281526020019150506040516020818303038152906040526040518082805190602001908083835b6020831015156125bd5780518252602082019150602081019050602083039250612598565b6001836020036101000a0380198251168184511680821785525050505050509050019150506040518091039020836040518363ffffffff167c010000000000000000000000000000000000000000000000000000000002815260040180836000191660001916815260200182815260200192505050600060405180830381600087803b15801561264c57600080fd5b505af1158015612660573d6000803e3d6000fd5b50505050505050565b8273ffffffffffffffffffffffffffffffffffffffff1663abfdcced8360405160200180807f6375726174696f6e2e64726166744375726174696f6e2e697341637469766500815250601f018281526020019150506040516020818303038152906040526040518082805190602001908083835b60208310151561270257805182526020820191506020810190506020830392506126dd565b6001836020036101000a0380198251168184511680821785525050505050509050019150506040518091039020836040518363ffffffff167c01000000000000000000000000000000000000000000000000000000000281526004018083600019166000191681526020018215151515815260200192505050600060405180830381600087803b15801561279557600080fd5b505af11580156127a9573d6000803e3d6000fd5b50505050505050565b60008273ffffffffffffffffffffffffffffffffffffffff1663bd02d0f58360405160200180807f646576656c6f7065722e646576656c6f7065724d6170000000000000000000008152506016018273ffffffffffffffffffffffffffffffffffffffff1673ffffffffffffffffffffffffffffffffffffffff166c010000000000000000000000000281526014019150506040516020818303038152906040526040518082805190602001908083835b6020831015156128885780518252602082019150602081019050602083039250612863565b6001836020036101000a03801982511681845116808217855250505050505090500191505060405180910390206040518263ffffffff167c0100000000000000000000000000000000000000000000000000000000028152600401808260001916600019168152602001915050602060405180830381600087803b15801561290f57600080fd5b505af1158015612923573d6000803e3d6000fd5b505050506040513d602081101561293957600080fd5b8101908080519060200190929190505050905092915050565b60008061295e83613713565b905061296983613803565b80915050919050565b8273ffffffffffffffffffffffffffffffffffffffff1663ca446dd98360405160200180807f70726f6a6563742e646576656c6f7065720000000000000000000000000000008152506011018281526020019150506040516020818303038152906040526040518082805190602001908083835b602083101515612a0b57805182526020820191506020810190506020830392506129e6565b6001836020036101000a0380198251168184511680821785525050505050509050019150506040518091039020836040518363ffffffff167c01000000000000000000000000000000000000000000000000000000000281526004018083600019166000191681526020018273ffffffffffffffffffffffffffffffffffffffff1673ffffffffffffffffffffffffffffffffffffffff16815260200192505050600060405180830381600087803b158015612ac657600080fd5b505af1158015612ada573d6000803e3d6000fd5b50505050505050565b8273ffffffffffffffffffffffffffffffffffffffff1663e2a4853a8360405160200180807f70726f6a6563742e646576656c6f7065724964000000000000000000000000008152506013018281526020019150506040516020818303038152906040526040518082805190602001908083835b602083101515612b7c5780518252602082019150602081019050602083039250612b57565b6001836020036101000a0380198251168184511680821785525050505050509050019150506040518091039020836040518363ffffffff167c010000000000000000000000000000000000000000000000000000000002815260040180836000191660001916815260200182815260200192505050600060405180830381600087803b158015612c0b57600080fd5b505af1158015612c1f573d6000803e3d6000fd5b50505050505050565b60608273ffffffffffffffffffffffffffffffffffffffff1663986e791a8360405160200180807f70726f6a6563742e7469746c6500000000000000000000000000000000000000815250600d018281526020019150506040516020818303038152906040526040518082805190602001908083835b602083101515612cc35780518252602082019150602081019050602083039250612c9e565b6001836020036101000a03801982511681845116808217855250505050505090500191505060405180910390206040518263ffffffff167c0100000000000000000000000000000000000000000000000000000000028152600401808260001916600019168152602001915050600060405180830381600087803b158015612d4a57600080fd5b505af1158015612d5e573d6000803e3d6000fd5b505050506040513d6000823e3d601f19601f820116820180604052506020811015612d8857600080fd5b810190808051640100000000811115612da057600080fd5b82810190506020810184811115612db657600080fd5b8151856001820283011164010000000082111715612dd357600080fd5b5050929190505050905092915050565b60608273ffffffffffffffffffffffffffffffffffffffff1663986e791a8360405160200180807f70726f6a6563742e6465736372697074696f6e000000000000000000000000008152506013018281526020019150506040516020818303038152906040526040518082805190602001908083835b602083101515612e7e5780518252602082019150602081019050602083039250612e59565b6001836020036101000a03801982511681845116808217855250505050505090500191505060405180910390206040518263ffffffff167c0100000000000000000000000000000000000000000000000000000000028152600401808260001916600019168152602001915050600060405180830381600087803b158015612f0557600080fd5b505af1158015612f19573d6000803e3d6000fd5b505050506040513d6000823e3d601f19601f820116820180604052506020811015612f4357600080fd5b810190808051640100000000811115612f5b57600080fd5b82810190506020810184811115612f7157600080fd5b8151856001820283011164010000000082111715612f8e57600080fd5b5050929190505050905092915050565b60608273ffffffffffffffffffffffffffffffffffffffff1663986e791a8360405160200180807f70726f6a6563742e61626f757400000000000000000000000000000000000000815250600d018281526020019150506040516020818303038152906040526040518082805190602001908083835b6020831015156130395780518252602082019150602081019050602083039250613014565b6001836020036101000a03801982511681845116808217855250505050505090500191505060405180910390206040518263ffffffff167c0100000000000000000000000000000000000000000000000000000000028152600401808260001916600019168152602001915050600060405180830381600087803b1580156130c057600080fd5b505af11580156130d4573d6000803e3d6000fd5b505050506040513d6000823e3d601f19601f8201168201806040525060208110156130fe57600080fd5b81019080805164010000000081111561311657600080fd5b8281019050602081018481111561312c57600080fd5b815185600182028301116401000000008211171561314957600080fd5b5050929190505050905092915050565b60008273ffffffffffffffffffffffffffffffffffffffff1663bd02d0f58360405160200180807f70726f6a6563742e636f6e747269627574696f6e476f616c00000000000000008152506018018281526020019150506040516020818303038152906040526040518082805190602001908083835b6020831015156131f457805182526020820191506020810190506020830392506131cf565b6001836020036101000a03801982511681845116808217855250505050505090500191505060405180910390206040518263ffffffff167c0100000000000000000000000000000000000000000000000000000000028152600401808260001916600019168152602001915050602060405180830381600087803b15801561327b57600080fd5b505af115801561328f573d6000803e3d6000fd5b505050506040513d60208110156132a557600080fd5b8101908080519060200190929190505050905092915050565b60008273ffffffffffffffffffffffffffffffffffffffff16637ae1cfca8360405160200180807f70726f6a6563742e6e6f526566756e64730000000000000000000000000000008152506011018281526020019150506040516020818303038152906040526040518082805190602001908083835b6020831015156133595780518252602082019150602081019050602083039250613334565b6001836020036101000a03801982511681845116808217855250505050505090500191505060405180910390206040518263ffffffff167c0100000000000000000000000000000000000000000000000000000000028152600401808260001916600019168152602001915050602060405180830381600087803b1580156133e057600080fd5b505af11580156133f4573d6000803e3d6000fd5b505050506040513d602081101561340a57600080fd5b8101908080519060200190929190505050905092915050565b60008273ffffffffffffffffffffffffffffffffffffffff1663bd02d0f58360405160200180807f70726f6a6563742e646576656c6f7065724964000000000000000000000000008152506013018281526020019150506040516020818303038152906040526040518082805190602001908083835b6020831015156134be5780518252602082019150602081019050602083039250613499565b6001836020036101000a03801982511681845116808217855250505050505090500191505060405180910390206040518263ffffffff167c0100000000000000000000000000000000000000000000000000000000028152600401808260001916600019168152602001915050602060405180830381600087803b15801561354557600080fd5b505af1158015613559573d6000803e3d6000fd5b505050506040513d602081101561356f57600080fd5b8101908080519060200190929190505050905092915050565b60008273ffffffffffffffffffffffffffffffffffffffff1663bd02d0f58360405160200180807f70726f6a6563742e70656e64696e67436f6e747269627574696f6e546965727381526020017f2e6c656e677468000000000000000000000000000000000000000000000000008152506027018281526020019150506040516020818303038152906040526040518082805190602001908083835b6020831015156136495780518252602082019150602081019050602083039250613624565b6001836020036101000a03801982511681845116808217855250505050505090500191505060405180910390206040518263ffffffff167c0100000000000000000000000000000000000000000000000000000000028152600401808260001916600019168152602001915050602060405180830381600087803b1580156136d057600080fd5b505af11580156136e4573d6000803e3d6000fd5b505050506040513d60208110156136fa57600080fd5b8101908080519060200190929190505050905092915050565b60008173ffffffffffffffffffffffffffffffffffffffff1663bd02d0f560405180807f70726f6a6563742e6e6578744964000000000000000000000000000000000000815250600e01905060405180910390206040518263ffffffff167c0100000000000000000000000000000000000000000000000000000000028152600401808260001916600019168152602001915050602060405180830381600087803b1580156137c157600080fd5b505af11580156137d5573d6000803e3d6000fd5b505050506040513d60208110156137eb57600080fd5b81019080805190602001909291905050509050919050565b60008173ffffffffffffffffffffffffffffffffffffffff1663bd02d0f560405180807f70726f6a6563742e6e6578744964000000000000000000000000000000000000815250600e01905060405180910390206040518263ffffffff167c0100000000000000000000000000000000000000000000000000000000028152600401808260001916600019168152602001915050602060405180830381600087803b1580156138b157600080fd5b505af11580156138c5573d6000803e3d6000fd5b505050506040513d60208110156138db57600080fd5b810190808051906020019092919050505090508173ffffffffffffffffffffffffffffffffffffffff1663e2a4853a60405180807f70726f6a6563742e6e6578744964000000000000000000000000000000000000815250600e0190506040518091039020600184016040518363ffffffff167c010000000000000000000000000000000000000000000000000000000002815260040180836000191660001916815260200182815260200192505050600060405180830381600087803b1580156139a557600080fd5b505af11580156139b9573d6000803e3d6000fd5b5050505050505600a165627a7a72305820b5a4616d6f852c3005cfcd5564e201ec8f063292eaf77804f8bc028e1fc7b6320029",
  "source": "pragma solidity ^0.4.24;\n\nimport \"../FundingStorage.sol\";\nimport \"./ProjectBase.sol\";\nimport \"../libraries/project/ProjectHelpersLibrary.sol\";\nimport \"../libraries/storage/CurationStorageAccess.sol\";\n\ncontract ProjectRegistration is ProjectBase {\n\n    using ProjectHelpersLibrary for address;\n    using CurationStorageAccess for address;\n\n    event ProjectCreated(uint projectId);\n\n    constructor(address _fundingStorage) public {\n        fundingStorage = _fundingStorage;\n    }\n\n    function createProject(\n        string _title,\n        string _description,\n        string _about,\n        uint _contributionGoal,\n        bool _noRefunds,\n        bool _noTimeline\n    )\n        external\n    {\n        // Verify that sender is a developer\n        uint developerId = fundingStorage.getDeveloperId(msg.sender);\n        require(developerId != 0, \"This address is not a developer.\");\n\n        // Get next ID from storage + increment next ID\n        uint projectId = fundingStorage.generateNewProjectId();\n\n        // Set new project attributes\n        fundingStorage.setProjectStatus(projectId, uint(Status.Draft));\n        fundingStorage.setProjectTitle(projectId, _title);\n        fundingStorage.setProjectDescription(projectId, _description);\n        fundingStorage.setProjectAbout(projectId, _about);\n        fundingStorage.setProjectContributionGoal(projectId, _contributionGoal);\n        fundingStorage.setProjectNoRefunds(projectId, _noRefunds);\n        fundingStorage.setProjectNoTimeline(projectId, _noTimeline);\n        fundingStorage.setProjectDeveloper(projectId, msg.sender);\n        fundingStorage.setProjectDeveloperId(projectId, developerId);\n\n        emit ProjectCreated(projectId);\n    }\n\n    function editProject(\n        uint _projectId,\n        string _title,\n        string _description,\n        string _about,\n        uint _contributionGoal,\n        bool _noRefunds,\n        bool _noTimeline\n    )\n        external\n        onlyProjectDeveloper(_projectId)\n        onlyDraftProject(_projectId)\n    {\n        // Set project attributes\n        fundingStorage.setProjectTitle(_projectId, _title);\n        fundingStorage.setProjectDescription(_projectId, _description);\n        fundingStorage.setProjectAbout(_projectId, _about);\n        fundingStorage.setProjectContributionGoal(_projectId, _contributionGoal);\n        fundingStorage.setProjectNoRefunds(_projectId, _noRefunds);\n        fundingStorage.setProjectNoTimeline(_projectId, _noTimeline);\n    }\n\n    function getProject(\n        uint _projectId\n    )\n        external\n        view\n        returns (\n            uint id,\n            uint status,\n            string title,\n            string description,\n            string about,\n            uint contributionGoal,\n            bool noRefunds,\n            bool noTimeline,\n            address developer,\n            uint developerId\n        )\n    {\n        id = _projectId;\n        status = fundingStorage.getProjectStatus(_projectId);\n        title = fundingStorage.getProjectTitle(_projectId);\n        description = fundingStorage.getProjectDescription(_projectId);\n        about = fundingStorage.getProjectAbout(_projectId);\n        contributionGoal = fundingStorage.getProjectContributionGoal(_projectId);\n        developer = fundingStorage.getProjectDeveloper(_projectId);\n        noRefunds = fundingStorage.getProjectNoRefunds(_projectId);\n        noTimeline = fundingStorage.getProjectNoTimeline(_projectId);\n        developerId = fundingStorage.getProjectDeveloperId(_projectId);\n\n        return (id, status, title, description, about, contributionGoal, noRefunds, noTimeline, developer, developerId);\n    }\n\n    function submitProjectForReview(uint _projectId) external onlyProjectDeveloper(_projectId) onlyDraftProject(_projectId) {\n        bool noTimeline = fundingStorage.getProjectNoTimeline(_projectId);\n\n        // Make sure project has outlined contribution tiers\n        verifyProjectTiers(_projectId);\n\n        // If project has a timeline, verify that milestone percentages add up to 100% and set active timeline\n        if (!noTimeline) {\n            fundingStorage.verifyPendingMilestones(_projectId);\n            fundingStorage.movePendingMilestonesIntoTimeline(_projectId);\n            fundingStorage.movePendingContributionTiersIntoActiveContributionTiers(_projectId);\n        }\n\n        // Change project status to \"Pending\"\n        fundingStorage.setProjectStatus(_projectId, uint(Status.Pending));\n\n        // Open curation\n        fundingStorage.setDraftCurationTimestamp(_projectId, now);\n        fundingStorage.setDraftCurationIsActive(_projectId, true);\n    }\n\n    function verifyProjectTiers(uint _projectId) private view {\n        // Verify that project has contribution tiers\n        uint tiersLength = fundingStorage.getPendingContributionTiersLength(_projectId);\n        require(tiersLength > 0, \"Project has no contribution tiers.\");\n    }\n}\n",
  "sourcePath": "/home/jordan/Projects/hyperbridge/funding-protocol/smart-contracts/ethereum/contracts/project/ProjectRegistration.sol",
  "compiler": {
    "name": "solc",
    "version": "0.4.24+commit.e67f0147.Emscripten.clang"
  },
  "schemaVersion": "2.0.1",
  "updatedAt": "2018-07-21T07:36:54.724Z"
}