{
  "contractName": "ProjectTimelineHelpersLibrary",
  "abi": [
    {
      "constant": false,
      "inputs": [
        {
          "name": "_fundingStorage",
          "type": "address"
        },
        {
          "name": "_projectId",
          "type": "uint256"
        }
      ],
      "name": "moveTimelineIntoTimelineHistory",
      "outputs": [],
      "payable": false,
      "stateMutability": "nonpayable",
      "type": "function"
    },
    {
      "constant": false,
      "inputs": [
        {
          "name": "_fundingStorage",
          "type": "address"
        },
        {
          "name": "_projectId",
          "type": "uint256"
        }
      ],
      "name": "movePendingMilestonesIntoTimeline",
      "outputs": [],
      "payable": false,
      "stateMutability": "nonpayable",
      "type": "function"
    },
    {
      "constant": false,
      "inputs": [
        {
          "name": "_fundingStorage",
          "type": "address"
        },
        {
          "name": "_projectId",
          "type": "uint256"
        }
      ],
      "name": "moveCompletedMilestonesIntoPendingTimeline",
      "outputs": [],
      "payable": false,
      "stateMutability": "nonpayable",
      "type": "function"
    },
    {
      "constant": true,
      "inputs": [
        {
          "name": "_fundingStorage",
          "type": "address"
        },
        {
          "name": "_projectId",
          "type": "uint256"
        }
      ],
      "name": "verifyPendingMilestones",
      "outputs": [],
      "payable": false,
      "stateMutability": "view",
      "type": "function"
    }
  ],
  "bytecode": "0x6145f962000031600b82828239805160001a6073146000811461002157610023565bfe5b5030600052607381538281f3007300000000000000000000000000000000000000003014608060405260043610610079576000357c0100000000000000000000000000000000000000000000000000000000900463ffffffff16806331a26acf1461007e5780637b9ee658146100cb578063c064263a1461010b578063c6f1144914610158575b600080fd5b81801561008a57600080fd5b506100c9600480360381019080803573ffffffffffffffffffffffffffffffffffffffff169060200190929190803590602001909291905050506101a5565b005b610109600480360381019080803573ffffffffffffffffffffffffffffffffffffffff169060200190929190803590602001909291905050506102c3565b005b81801561011757600080fd5b50610156600480360381019080803573ffffffffffffffffffffffffffffffffffffffff16906020019092919080359060200190929190505050610488565b005b81801561016457600080fd5b506101a3600480360381019080803573ffffffffffffffffffffffffffffffffffffffff1690602001909291908035906020019092919050505061057a565b005b6000806101b06145a2565b6101d9848673ffffffffffffffffffffffffffffffffffffffff166106f890919063ffffffff16565b9250600091505b828210156102655761021384838773ffffffffffffffffffffffffffffffffffffffff1661085d9092919063ffffffff16565b9050610258848383600001518460200151856040015186606001518b73ffffffffffffffffffffffffffffffffffffffff16611177909695949392919063ffffffff16565b81806001019250506101e0565b61029084848773ffffffffffffffffffffffffffffffffffffffff166111b09092919063ffffffff16565b6102bc8460008773ffffffffffffffffffffffffffffffffffffffff166112f59092919063ffffffff16565b5050505050565b6000806000806102f2858773ffffffffffffffffffffffffffffffffffffffff166106f890919063ffffffff16565b9350600084111515610392576040517f08c379a00000000000000000000000000000000000000000000000000000000081526004018080602001828103825260228152602001807f50726f6a65637420686173206e6f2070656e64696e67206d696c6573746f6e6581526020017f732e00000000000000000000000000000000000000000000000000000000000081525060400191505060405180910390fd5b60009250600091505b838210156103e2576103ce85838873ffffffffffffffffffffffffffffffffffffffff1661143a9092919063ffffffff16565b90508083019250818060010192505061039b565b606483141515610480576040517f08c379a00000000000000000000000000000000000000000000000000000000081526004018080602001828103825260268152602001807f4d696c6573746f6e652070657263656e7461676573206d75737420616464207481526020017f6f203130302e000000000000000000000000000000000000000000000000000081525060400191505060405180910390fd5b505050505050565b6000806104936145a2565b6104bc848673ffffffffffffffffffffffffffffffffffffffff166117c590919063ffffffff16565b9250600091505b82821015610548576104f684838773ffffffffffffffffffffffffffffffffffffffff166119509092919063ffffffff16565b905061053b848383600001518460200151856040015186606001518b73ffffffffffffffffffffffffffffffffffffffff16612290909695949392919063ffffffff16565b81806001019250506104c3565b61057384848773ffffffffffffffffffffffffffffffffffffffff166112f59092919063ffffffff16565b5050505050565b60008060006105876145a2565b6105b0858773ffffffffffffffffffffffffffffffffffffffff166122c990919063ffffffff16565b93506105db858773ffffffffffffffffffffffffffffffffffffffff1661242e90919063ffffffff16565b9250600091505b828210156106695761061585838873ffffffffffffffffffffffffffffffffffffffff166125939092919063ffffffff16565b905061065c85858484600001518560200151866040015187606001518d73ffffffffffffffffffffffffffffffffffffffff16612ead90979695949392919063ffffffff16565b81806001019250506105e2565b61069785600186018873ffffffffffffffffffffffffffffffffffffffff16612eeb9092919063ffffffff16565b6106c48585858973ffffffffffffffffffffffffffffffffffffffff16613030909392919063ffffffff16565b6106f08560008873ffffffffffffffffffffffffffffffffffffffff166111b09092919063ffffffff16565b505050505050565b60008273ffffffffffffffffffffffffffffffffffffffff1663bd02d0f58360405160200180807f70726f6a6563742e70656e64696e6754696d656c696e652e6c656e6774680000815250601e018281526020019150506040516020818303038152906040526040518082805190602001908083835b602083101515610793578051825260208201915060208101905060208303925061076e565b6001836020036101000a03801982511681845116808217855250505050505090500191505060405180910390206040518263ffffffff167c0100000000000000000000000000000000000000000000000000000000028152600401808260001916600019168152602001915050602060405180830381600087803b15801561081a57600080fd5b505af115801561082e573d6000803e3d6000fd5b505050506040513d602081101561084457600080fd5b8101908080519060200190929190505050905092915050565b6108656145a2565b6060806000806108736145a2565b8873ffffffffffffffffffffffffffffffffffffffff1663bd02d0f58960405160200180807f70726f6a6563742e70656e64696e6754696d656c696e652e6c656e6774680000815250601e018281526020019150506040516020818303038152906040526040518082805190602001908083835b60208310151561090c57805182526020820191506020810190506020830392506108e7565b6001836020036101000a03801982511681845116808217855250505050505090500191505060405180910390206040518263ffffffff167c0100000000000000000000000000000000000000000000000000000000028152600401808260001916600019168152602001915050602060405180830381600087803b15801561099357600080fd5b505af11580156109a7573d6000803e3d6000fd5b505050506040513d60208110156109bd57600080fd5b810190808051906020019092919050505087101515610a6a576040517f08c379a00000000000000000000000000000000000000000000000000000000081526004018080602001828103825260258152602001807f496e646578206973206f757473696465206f662061636365737369626c65207281526020017f616e67652e00000000000000000000000000000000000000000000000000000081525060400191505060405180910390fd5b8873ffffffffffffffffffffffffffffffffffffffff1663986e791a888a60405160200180807f70726f6a6563742e70656e64696e6754696d656c696e652e6d696c6573746f6e81526020017f65732e7469746c65000000000000000000000000000000000000000000000000815250602801838152602001828152602001925050506040516020818303038152906040526040518082805190602001908083835b602083101515610b315780518252602082019150602081019050602083039250610b0c565b6001836020036101000a03801982511681845116808217855250505050505090500191505060405180910390206040518263ffffffff167c0100000000000000000000000000000000000000000000000000000000028152600401808260001916600019168152602001915050600060405180830381600087803b158015610bb857600080fd5b505af1158015610bcc573d6000803e3d6000fd5b505050506040513d6000823e3d601f19601f820116820180604052506020811015610bf657600080fd5b810190808051640100000000811115610c0e57600080fd5b82810190506020810184811115610c2457600080fd5b8151856001820283011164010000000082111715610c4157600080fd5b505092919050505094508873ffffffffffffffffffffffffffffffffffffffff1663986e791a888a60405160200180807f70726f6a6563742e70656e64696e6754696d656c696e652e6d696c6573746f6e81526020017f65732e6465736372697074696f6e000000000000000000000000000000000000815250602e01838152602001828152602001925050506040516020818303038152906040526040518082805190602001908083835b602083101515610d125780518252602082019150602081019050602083039250610ced565b6001836020036101000a03801982511681845116808217855250505050505090500191505060405180910390206040518263ffffffff167c0100000000000000000000000000000000000000000000000000000000028152600401808260001916600019168152602001915050600060405180830381600087803b158015610d9957600080fd5b505af1158015610dad573d6000803e3d6000fd5b505050506040513d6000823e3d601f19601f820116820180604052506020811015610dd757600080fd5b810190808051640100000000811115610def57600080fd5b82810190506020810184811115610e0557600080fd5b8151856001820283011164010000000082111715610e2257600080fd5b505092919050505093508873ffffffffffffffffffffffffffffffffffffffff1663bd02d0f5888a60405160200180807f70726f6a6563742e70656e64696e6754696d656c696e652e6d696c6573746f6e81526020017f65732e70657263656e7461676500000000000000000000000000000000000000815250602d01838152602001828152602001925050506040516020818303038152906040526040518082805190602001908083835b602083101515610ef35780518252602082019150602081019050602083039250610ece565b6001836020036101000a03801982511681845116808217855250505050505090500191505060405180910390206040518263ffffffff167c0100000000000000000000000000000000000000000000000000000000028152600401808260001916600019168152602001915050602060405180830381600087803b158015610f7a57600080fd5b505af1158015610f8e573d6000803e3d6000fd5b505050506040513d6020811015610fa457600080fd5b810190808051906020019092919050505092508873ffffffffffffffffffffffffffffffffffffffff16637ae1cfca888a60405160200180807f70726f6a6563742e70656e64696e6754696d656c696e652e6d696c6573746f6e81526020017f65732e6973436f6d706c65746500000000000000000000000000000000000000815250602d01838152602001828152602001925050506040516020818303038152906040526040518082805190602001908083835b60208310151561107e5780518252602082019150602081019050602083039250611059565b6001836020036101000a03801982511681845116808217855250505050505090500191505060405180910390206040518263ffffffff167c0100000000000000000000000000000000000000000000000000000000028152600401808260001916600019168152602001915050602060405180830381600087803b15801561110557600080fd5b505af1158015611119573d6000803e3d6000fd5b505050506040513d602081101561112f57600080fd5b81019080805190602001909291905050509150608060405190810160405280868152602001858152602001848152602001831515815250905080955050505050509392505050565b611183878787876131a4565b61118f8787878661337d565b61119b87878785613556565b6111a7878787846136ca565b50505050505050565b8273ffffffffffffffffffffffffffffffffffffffff1663e2a4853a8360405160200180807f70726f6a6563742e74696d656c696e652e6c656e6774680000000000000000008152506017018281526020019150506040516020818303038152906040526040518082805190602001908083835b6020831015156112495780518252602082019150602081019050602083039250611224565b6001836020036101000a0380198251168184511680821785525050505050509050019150506040518091039020836040518363ffffffff167c010000000000000000000000000000000000000000000000000000000002815260040180836000191660001916815260200182815260200192505050600060405180830381600087803b1580156112d857600080fd5b505af11580156112ec573d6000803e3d6000fd5b50505050505050565b8273ffffffffffffffffffffffffffffffffffffffff1663e2a4853a8360405160200180807f70726f6a6563742e70656e64696e6754696d656c696e652e6c656e6774680000815250601e018281526020019150506040516020818303038152906040526040518082805190602001908083835b60208310151561138e5780518252602082019150602081019050602083039250611369565b6001836020036101000a0380198251168184511680821785525050505050509050019150506040518091039020836040518363ffffffff167c010000000000000000000000000000000000000000000000000000000002815260040180836000191660001916815260200182815260200192505050600060405180830381600087803b15801561141d57600080fd5b505af1158015611431573d6000803e3d6000fd5b50505050505050565b60008373ffffffffffffffffffffffffffffffffffffffff1663bd02d0f58460405160200180807f70726f6a6563742e70656e64696e6754696d656c696e652e6c656e6774680000815250601e018281526020019150506040516020818303038152906040526040518082805190602001908083835b6020831015156114d557805182526020820191506020810190506020830392506114b0565b6001836020036101000a03801982511681845116808217855250505050505090500191505060405180910390206040518263ffffffff167c0100000000000000000000000000000000000000000000000000000000028152600401808260001916600019168152602001915050602060405180830381600087803b15801561155c57600080fd5b505af1158015611570573d6000803e3d6000fd5b505050506040513d602081101561158657600080fd5b810190808051906020019092919050505082101515611633576040517f08c379a00000000000000000000000000000000000000000000000000000000081526004018080602001828103825260258152602001807f496e646578206973206f757473696465206f662061636365737369626c65207281526020017f616e67652e00000000000000000000000000000000000000000000000000000081525060400191505060405180910390fd5b8373ffffffffffffffffffffffffffffffffffffffff1663bd02d0f5838560405160200180807f70726f6a6563742e70656e64696e6754696d656c696e652e6d696c6573746f6e81526020017f65732e70657263656e7461676500000000000000000000000000000000000000815250602d01838152602001828152602001925050506040516020818303038152906040526040518082805190602001908083835b6020831015156116fa57805182526020820191506020810190506020830392506116d5565b6001836020036101000a03801982511681845116808217855250505050505090500191505060405180910390206040518263ffffffff167c0100000000000000000000000000000000000000000000000000000000028152600401808260001916600019168152602001915050602060405180830381600087803b15801561178157600080fd5b505af1158015611795573d6000803e3d6000fd5b505050506040513d60208110156117ab57600080fd5b810190808051906020019092919050505090509392505050565b60008273ffffffffffffffffffffffffffffffffffffffff1663bd02d0f58360405160200180807f70726f6a6563742e636f6d706c657465644d696c6573746f6e65732e6c656e6781526020017f74680000000000000000000000000000000000000000000000000000000000008152506022018281526020019150506040516020818303038152906040526040518082805190602001908083835b6020831015156118865780518252602082019150602081019050602083039250611861565b6001836020036101000a03801982511681845116808217855250505050505090500191505060405180910390206040518263ffffffff167c0100000000000000000000000000000000000000000000000000000000028152600401808260001916600019168152602001915050602060405180830381600087803b15801561190d57600080fd5b505af1158015611921573d6000803e3d6000fd5b505050506040513d602081101561193757600080fd5b8101908080519060200190929190505050905092915050565b6119586145a2565b6060806000806119666145a2565b8873ffffffffffffffffffffffffffffffffffffffff1663bd02d0f58960405160200180807f70726f6a6563742e636f6d706c657465644d696c6573746f6e65732e6c656e6781526020017f74680000000000000000000000000000000000000000000000000000000000008152506022018281526020019150506040516020818303038152906040526040518082805190602001908083835b602083101515611a255780518252602082019150602081019050602083039250611a00565b6001836020036101000a03801982511681845116808217855250505050505090500191505060405180910390206040518263ffffffff167c0100000000000000000000000000000000000000000000000000000000028152600401808260001916600019168152602001915050602060405180830381600087803b158015611aac57600080fd5b505af1158015611ac0573d6000803e3d6000fd5b505050506040513d6020811015611ad657600080fd5b810190808051906020019092919050505087101515611b83576040517f08c379a00000000000000000000000000000000000000000000000000000000081526004018080602001828103825260258152602001807f496e646578206973206f757473696465206f662061636365737369626c65207281526020017f616e67652e00000000000000000000000000000000000000000000000000000081525060400191505060405180910390fd5b8873ffffffffffffffffffffffffffffffffffffffff1663986e791a888a60405160200180807f70726f6a6563742e636f6d706c657465644d696c6573746f6e65732e7469746c81526020017f6500000000000000000000000000000000000000000000000000000000000000815250602101838152602001828152602001925050506040516020818303038152906040526040518082805190602001908083835b602083101515611c4a5780518252602082019150602081019050602083039250611c25565b6001836020036101000a03801982511681845116808217855250505050505090500191505060405180910390206040518263ffffffff167c0100000000000000000000000000000000000000000000000000000000028152600401808260001916600019168152602001915050600060405180830381600087803b158015611cd157600080fd5b505af1158015611ce5573d6000803e3d6000fd5b505050506040513d6000823e3d601f19601f820116820180604052506020811015611d0f57600080fd5b810190808051640100000000811115611d2757600080fd5b82810190506020810184811115611d3d57600080fd5b8151856001820283011164010000000082111715611d5a57600080fd5b505092919050505094508873ffffffffffffffffffffffffffffffffffffffff1663986e791a888a60405160200180807f70726f6a6563742e636f6d706c657465644d696c6573746f6e65732e6465736381526020017f72697074696f6e00000000000000000000000000000000000000000000000000815250602701838152602001828152602001925050506040516020818303038152906040526040518082805190602001908083835b602083101515611e2b5780518252602082019150602081019050602083039250611e06565b6001836020036101000a03801982511681845116808217855250505050505090500191505060405180910390206040518263ffffffff167c0100000000000000000000000000000000000000000000000000000000028152600401808260001916600019168152602001915050600060405180830381600087803b158015611eb257600080fd5b505af1158015611ec6573d6000803e3d6000fd5b505050506040513d6000823e3d601f19601f820116820180604052506020811015611ef057600080fd5b810190808051640100000000811115611f0857600080fd5b82810190506020810184811115611f1e57600080fd5b8151856001820283011164010000000082111715611f3b57600080fd5b505092919050505093508873ffffffffffffffffffffffffffffffffffffffff1663bd02d0f5888a60405160200180807f70726f6a6563742e636f6d706c657465644d696c6573746f6e65732e7065726381526020017f656e746167650000000000000000000000000000000000000000000000000000815250602601838152602001828152602001925050506040516020818303038152906040526040518082805190602001908083835b60208310151561200c5780518252602082019150602081019050602083039250611fe7565b6001836020036101000a03801982511681845116808217855250505050505090500191505060405180910390206040518263ffffffff167c0100000000000000000000000000000000000000000000000000000000028152600401808260001916600019168152602001915050602060405180830381600087803b15801561209357600080fd5b505af11580156120a7573d6000803e3d6000fd5b505050506040513d60208110156120bd57600080fd5b810190808051906020019092919050505092508873ffffffffffffffffffffffffffffffffffffffff16637ae1cfca888a60405160200180807f70726f6a6563742e636f6d706c657465644d696c6573746f6e65732e6973436f81526020017f6d706c6574650000000000000000000000000000000000000000000000000000815250602601838152602001828152602001925050506040516020818303038152906040526040518082805190602001908083835b6020831015156121975780518252602082019150602081019050602083039250612172565b6001836020036101000a03801982511681845116808217855250505050505090500191505060405180910390206040518263ffffffff167c0100000000000000000000000000000000000000000000000000000000028152600401808260001916600019168152602001915050602060405180830381600087803b15801561221e57600080fd5b505af1158015612232573d6000803e3d6000fd5b505050506040513d602081101561224857600080fd5b81019080805190602001909291905050509150608060405190810160405280868152602001858152602001848152602001831515815250905080955050505050509392505050565b61229c87878787613842565b6122a887878786613a1b565b6122b487878785613bf4565b6122c087878784613d68565b50505050505050565b60008273ffffffffffffffffffffffffffffffffffffffff1663bd02d0f58360405160200180807f70726f6a6563742e74696d656c696e65486973746f72792e6c656e6774680000815250601e018281526020019150506040516020818303038152906040526040518082805190602001908083835b602083101515612364578051825260208201915060208101905060208303925061233f565b6001836020036101000a03801982511681845116808217855250505050505090500191505060405180910390206040518263ffffffff167c0100000000000000000000000000000000000000000000000000000000028152600401808260001916600019168152602001915050602060405180830381600087803b1580156123eb57600080fd5b505af11580156123ff573d6000803e3d6000fd5b505050506040513d602081101561241557600080fd5b8101908080519060200190929190505050905092915050565b60008273ffffffffffffffffffffffffffffffffffffffff1663bd02d0f58360405160200180807f70726f6a6563742e74696d656c696e652e6c656e6774680000000000000000008152506017018281526020019150506040516020818303038152906040526040518082805190602001908083835b6020831015156124c957805182526020820191506020810190506020830392506124a4565b6001836020036101000a03801982511681845116808217855250505050505090500191505060405180910390206040518263ffffffff167c0100000000000000000000000000000000000000000000000000000000028152600401808260001916600019168152602001915050602060405180830381600087803b15801561255057600080fd5b505af1158015612564573d6000803e3d6000fd5b505050506040513d602081101561257a57600080fd5b8101908080519060200190929190505050905092915050565b61259b6145a2565b6060806000806125a96145a2565b8873ffffffffffffffffffffffffffffffffffffffff1663bd02d0f58960405160200180807f70726f6a6563742e74696d656c696e652e6c656e6774680000000000000000008152506017018281526020019150506040516020818303038152906040526040518082805190602001908083835b602083101515612642578051825260208201915060208101905060208303925061261d565b6001836020036101000a03801982511681845116808217855250505050505090500191505060405180910390206040518263ffffffff167c0100000000000000000000000000000000000000000000000000000000028152600401808260001916600019168152602001915050602060405180830381600087803b1580156126c957600080fd5b505af11580156126dd573d6000803e3d6000fd5b505050506040513d60208110156126f357600080fd5b8101908080519060200190929190505050871015156127a0576040517f08c379a00000000000000000000000000000000000000000000000000000000081526004018080602001828103825260258152602001807f496e646578206973206f757473696465206f662061636365737369626c65207281526020017f616e67652e00000000000000000000000000000000000000000000000000000081525060400191505060405180910390fd5b8873ffffffffffffffffffffffffffffffffffffffff1663986e791a888a60405160200180807f70726f6a6563742e74696d656c696e652e6d696c6573746f6e65732e7469746c81526020017f6500000000000000000000000000000000000000000000000000000000000000815250602101838152602001828152602001925050506040516020818303038152906040526040518082805190602001908083835b6020831015156128675780518252602082019150602081019050602083039250612842565b6001836020036101000a03801982511681845116808217855250505050505090500191505060405180910390206040518263ffffffff167c0100000000000000000000000000000000000000000000000000000000028152600401808260001916600019168152602001915050600060405180830381600087803b1580156128ee57600080fd5b505af1158015612902573d6000803e3d6000fd5b505050506040513d6000823e3d601f19601f82011682018060405250602081101561292c57600080fd5b81019080805164010000000081111561294457600080fd5b8281019050602081018481111561295a57600080fd5b815185600182028301116401000000008211171561297757600080fd5b505092919050505094508873ffffffffffffffffffffffffffffffffffffffff1663986e791a888a60405160200180807f70726f6a6563742e74696d656c696e652e6d696c6573746f6e65732e6465736381526020017f72697074696f6e00000000000000000000000000000000000000000000000000815250602701838152602001828152602001925050506040516020818303038152906040526040518082805190602001908083835b602083101515612a485780518252602082019150602081019050602083039250612a23565b6001836020036101000a03801982511681845116808217855250505050505090500191505060405180910390206040518263ffffffff167c0100000000000000000000000000000000000000000000000000000000028152600401808260001916600019168152602001915050600060405180830381600087803b158015612acf57600080fd5b505af1158015612ae3573d6000803e3d6000fd5b505050506040513d6000823e3d601f19601f820116820180604052506020811015612b0d57600080fd5b810190808051640100000000811115612b2557600080fd5b82810190506020810184811115612b3b57600080fd5b8151856001820283011164010000000082111715612b5857600080fd5b505092919050505093508873ffffffffffffffffffffffffffffffffffffffff1663bd02d0f5888a60405160200180807f70726f6a6563742e74696d656c696e652e6d696c6573746f6e65732e7065726381526020017f656e746167650000000000000000000000000000000000000000000000000000815250602601838152602001828152602001925050506040516020818303038152906040526040518082805190602001908083835b602083101515612c295780518252602082019150602081019050602083039250612c04565b6001836020036101000a03801982511681845116808217855250505050505090500191505060405180910390206040518263ffffffff167c0100000000000000000000000000000000000000000000000000000000028152600401808260001916600019168152602001915050602060405180830381600087803b158015612cb057600080fd5b505af1158015612cc4573d6000803e3d6000fd5b505050506040513d6020811015612cda57600080fd5b810190808051906020019092919050505092508873ffffffffffffffffffffffffffffffffffffffff16637ae1cfca888a60405160200180807f70726f6a6563742e74696d656c696e652e6d696c6573746f6e65732e6973436f81526020017f6d706c6574650000000000000000000000000000000000000000000000000000815250602601838152602001828152602001925050506040516020818303038152906040526040518082805190602001908083835b602083101515612db45780518252602082019150602081019050602083039250612d8f565b6001836020036101000a03801982511681845116808217855250505050505090500191505060405180910390206040518263ffffffff167c0100000000000000000000000000000000000000000000000000000000028152600401808260001916600019168152602001915050602060405180830381600087803b158015612e3b57600080fd5b505af1158015612e4f573d6000803e3d6000fd5b505050506040513d6020811015612e6557600080fd5b81019080805190602001909291905050509150608060405190810160405280868152602001858152602001848152602001831515815250905080955050505050509392505050565b612eba8888888888613ee0565b612ec788888888876140c2565b612ed488888888866142a4565b612ee18888888885614421565b5050505050505050565b8273ffffffffffffffffffffffffffffffffffffffff1663e2a4853a8360405160200180807f70726f6a6563742e74696d656c696e65486973746f72792e6c656e6774680000815250601e018281526020019150506040516020818303038152906040526040518082805190602001908083835b602083101515612f845780518252602082019150602081019050602083039250612f5f565b6001836020036101000a0380198251168184511680821785525050505050509050019150506040518091039020836040518363ffffffff167c010000000000000000000000000000000000000000000000000000000002815260040180836000191660001916815260200182815260200192505050600060405180830381600087803b15801561301357600080fd5b505af1158015613027573d6000803e3d6000fd5b50505050505050565b8373ffffffffffffffffffffffffffffffffffffffff1663e2a4853a848460405160200180807f70726f6a6563742e74696d656c696e65486973746f72792e6d696c6573746f6e81526020017f65732e6c656e6774680000000000000000000000000000000000000000000000815250602901838152602001828152602001925050506040516020818303038152906040526040518082805190602001908083835b6020831015156130f757805182526020820191506020810190506020830392506130d2565b6001836020036101000a0380198251168184511680821785525050505050509050019150506040518091039020836040518363ffffffff167c010000000000000000000000000000000000000000000000000000000002815260040180836000191660001916815260200182815260200192505050600060405180830381600087803b15801561318657600080fd5b505af115801561319a573d6000803e3d6000fd5b5050505050505050565b8373ffffffffffffffffffffffffffffffffffffffff16636e899550838560405160200180807f70726f6a6563742e74696d656c696e652e6d696c6573746f6e65732e7469746c81526020017f6500000000000000000000000000000000000000000000000000000000000000815250602101838152602001828152602001925050506040516020818303038152906040526040518082805190602001908083835b60208310151561326b5780518252602082019150602081019050602083039250613246565b6001836020036101000a0380198251168184511680821785525050505050509050019150506040518091039020836040518363ffffffff167c010000000000000000000000000000000000000000000000000000000002815260040180836000191660001916815260200180602001828103825283818151815260200191508051906020019080838360005b838110156133125780820151818401526020810190506132f7565b50505050905090810190601f16801561333f5780820380516001836020036101000a031916815260200191505b509350505050600060405180830381600087803b15801561335f57600080fd5b505af1158015613373573d6000803e3d6000fd5b5050505050505050565b8373ffffffffffffffffffffffffffffffffffffffff16636e899550838560405160200180807f70726f6a6563742e74696d656c696e652e6d696c6573746f6e65732e6465736381526020017f72697074696f6e00000000000000000000000000000000000000000000000000815250602701838152602001828152602001925050506040516020818303038152906040526040518082805190602001908083835b602083101515613444578051825260208201915060208101905060208303925061341f565b6001836020036101000a0380198251168184511680821785525050505050509050019150506040518091039020836040518363ffffffff167c010000000000000000000000000000000000000000000000000000000002815260040180836000191660001916815260200180602001828103825283818151815260200191508051906020019080838360005b838110156134eb5780820151818401526020810190506134d0565b50505050905090810190601f1680156135185780820380516001836020036101000a031916815260200191505b509350505050600060405180830381600087803b15801561353857600080fd5b505af115801561354c573d6000803e3d6000fd5b5050505050505050565b8373ffffffffffffffffffffffffffffffffffffffff1663e2a4853a838560405160200180807f70726f6a6563742e74696d656c696e652e6d696c6573746f6e65732e7065726381526020017f656e746167650000000000000000000000000000000000000000000000000000815250602601838152602001828152602001925050506040516020818303038152906040526040518082805190602001908083835b60208310151561361d57805182526020820191506020810190506020830392506135f8565b6001836020036101000a0380198251168184511680821785525050505050509050019150506040518091039020836040518363ffffffff167c010000000000000000000000000000000000000000000000000000000002815260040180836000191660001916815260200182815260200192505050600060405180830381600087803b1580156136ac57600080fd5b505af11580156136c0573d6000803e3d6000fd5b5050505050505050565b8373ffffffffffffffffffffffffffffffffffffffff1663abfdcced838560405160200180807f70726f6a6563742e74696d656c696e652e6d696c6573746f6e65732e6973436f81526020017f6d706c6574650000000000000000000000000000000000000000000000000000815250602601838152602001828152602001925050506040516020818303038152906040526040518082805190602001908083835b602083101515613791578051825260208201915060208101905060208303925061376c565b6001836020036101000a0380198251168184511680821785525050505050509050019150506040518091039020836040518363ffffffff167c01000000000000000000000000000000000000000000000000000000000281526004018083600019166000191681526020018215151515815260200192505050600060405180830381600087803b15801561382457600080fd5b505af1158015613838573d6000803e3d6000fd5b5050505050505050565b8373ffffffffffffffffffffffffffffffffffffffff16636e899550838560405160200180807f70726f6a6563742e70656e64696e6754696d656c696e652e6d696c6573746f6e81526020017f65732e7469746c65000000000000000000000000000000000000000000000000815250602801838152602001828152602001925050506040516020818303038152906040526040518082805190602001908083835b60208310151561390957805182526020820191506020810190506020830392506138e4565b6001836020036101000a0380198251168184511680821785525050505050509050019150506040518091039020836040518363ffffffff167c010000000000000000000000000000000000000000000000000000000002815260040180836000191660001916815260200180602001828103825283818151815260200191508051906020019080838360005b838110156139b0578082015181840152602081019050613995565b50505050905090810190601f1680156139dd5780820380516001836020036101000a031916815260200191505b509350505050600060405180830381600087803b1580156139fd57600080fd5b505af1158015613a11573d6000803e3d6000fd5b5050505050505050565b8373ffffffffffffffffffffffffffffffffffffffff16636e899550838560405160200180807f70726f6a6563742e70656e64696e6754696d656c696e652e6d696c6573746f6e81526020017f65732e6465736372697074696f6e000000000000000000000000000000000000815250602e01838152602001828152602001925050506040516020818303038152906040526040518082805190602001908083835b602083101515613ae25780518252602082019150602081019050602083039250613abd565b6001836020036101000a0380198251168184511680821785525050505050509050019150506040518091039020836040518363ffffffff167c010000000000000000000000000000000000000000000000000000000002815260040180836000191660001916815260200180602001828103825283818151815260200191508051906020019080838360005b83811015613b89578082015181840152602081019050613b6e565b50505050905090810190601f168015613bb65780820380516001836020036101000a031916815260200191505b509350505050600060405180830381600087803b158015613bd657600080fd5b505af1158015613bea573d6000803e3d6000fd5b5050505050505050565b8373ffffffffffffffffffffffffffffffffffffffff1663e2a4853a838560405160200180807f70726f6a6563742e70656e64696e6754696d656c696e652e6d696c6573746f6e81526020017f65732e70657263656e7461676500000000000000000000000000000000000000815250602d01838152602001828152602001925050506040516020818303038152906040526040518082805190602001908083835b602083101515613cbb5780518252602082019150602081019050602083039250613c96565b6001836020036101000a0380198251168184511680821785525050505050509050019150506040518091039020836040518363ffffffff167c010000000000000000000000000000000000000000000000000000000002815260040180836000191660001916815260200182815260200192505050600060405180830381600087803b158015613d4a57600080fd5b505af1158015613d5e573d6000803e3d6000fd5b5050505050505050565b8373ffffffffffffffffffffffffffffffffffffffff1663abfdcced838560405160200180807f70726f6a6563742e70656e64696e6754696d656c696e652e6d696c6573746f6e81526020017f65732e6973436f6d706c65746500000000000000000000000000000000000000815250602d01838152602001828152602001925050506040516020818303038152906040526040518082805190602001908083835b602083101515613e2f5780518252602082019150602081019050602083039250613e0a565b6001836020036101000a0380198251168184511680821785525050505050509050019150506040518091039020836040518363ffffffff167c01000000000000000000000000000000000000000000000000000000000281526004018083600019166000191681526020018215151515815260200192505050600060405180830381600087803b158015613ec257600080fd5b505af1158015613ed6573d6000803e3d6000fd5b5050505050505050565b8473ffffffffffffffffffffffffffffffffffffffff16636e89955085858560405160200180807f70726f6a6563742e74696d656c696e65486973746f72792e6d696c6573746f6e81526020017f65732e7469746c6500000000000000000000000000000000000000000000000081525060280184815260200183815260200182815260200193505050506040516020818303038152906040526040518082805190602001908083835b602083101515613faf5780518252602082019150602081019050602083039250613f8a565b6001836020036101000a0380198251168184511680821785525050505050509050019150506040518091039020836040518363ffffffff167c010000000000000000000000000000000000000000000000000000000002815260040180836000191660001916815260200180602001828103825283818151815260200191508051906020019080838360005b8381101561405657808201518184015260208101905061403b565b50505050905090810190601f1680156140835780820380516001836020036101000a031916815260200191505b509350505050600060405180830381600087803b1580156140a357600080fd5b505af11580156140b7573d6000803e3d6000fd5b505050505050505050565b8473ffffffffffffffffffffffffffffffffffffffff16636e89955085858560405160200180807f70726f6a6563742e74696d656c696e65486973746f72792e6d696c6573746f6e81526020017f65732e6465736372697074696f6e000000000000000000000000000000000000815250602e0184815260200183815260200182815260200193505050506040516020818303038152906040526040518082805190602001908083835b602083101515614191578051825260208201915060208101905060208303925061416c565b6001836020036101000a0380198251168184511680821785525050505050509050019150506040518091039020836040518363ffffffff167c010000000000000000000000000000000000000000000000000000000002815260040180836000191660001916815260200180602001828103825283818151815260200191508051906020019080838360005b8381101561423857808201518184015260208101905061421d565b50505050905090810190601f1680156142655780820380516001836020036101000a031916815260200191505b509350505050600060405180830381600087803b15801561428557600080fd5b505af1158015614299573d6000803e3d6000fd5b505050505050505050565b8473ffffffffffffffffffffffffffffffffffffffff1663e2a4853a85858560405160200180807f70726f6a6563742e74696d656c696e65486973746f72792e6d696c6573746f6e81526020017f65732e70657263656e7461676500000000000000000000000000000000000000815250602d0184815260200183815260200182815260200193505050506040516020818303038152906040526040518082805190602001908083835b602083101515614373578051825260208201915060208101905060208303925061434e565b6001836020036101000a0380198251168184511680821785525050505050509050019150506040518091039020836040518363ffffffff167c010000000000000000000000000000000000000000000000000000000002815260040180836000191660001916815260200182815260200192505050600060405180830381600087803b15801561440257600080fd5b505af1158015614416573d6000803e3d6000fd5b505050505050505050565b8473ffffffffffffffffffffffffffffffffffffffff1663abfdcced85858560405160200180807f70726f6a6563742e74696d656c696e65486973746f72792e6d696c6573746f6e81526020017f65732e6973436f6d706c65746500000000000000000000000000000000000000815250602d0184815260200183815260200182815260200193505050506040516020818303038152906040526040518082805190602001908083835b6020831015156144f057805182526020820191506020810190506020830392506144cb565b6001836020036101000a0380198251168184511680821785525050505050509050019150506040518091039020836040518363ffffffff167c01000000000000000000000000000000000000000000000000000000000281526004018083600019166000191681526020018215151515815260200192505050600060405180830381600087803b15801561458357600080fd5b505af1158015614597573d6000803e3d6000fd5b505050505050505050565b60806040519081016040528060608152602001606081526020016000815260200160001515815250905600a165627a7a7230582088628afa26c31c11cace8a9b3c1aa535256a68eff3967cdf29d3fa7bd6e177fd0029",
  "source": "pragma solidity ^0.4.24;\n\nimport \"./storage/ProjectStorageAccess.sol\";\nimport \"../FundingVault.sol\";\nimport \"../FundingStorage.sol\";\n\nlibrary ProjectTimelineHelpersLibrary {\n\n    using ProjectStorageAccess for address;\n\n    function moveTimelineIntoTimelineHistory(address _fundingStorage, uint _projectId) external {\n        uint historyLength = _fundingStorage.getTimelineHistoryLength(_projectId);\n        uint timelineLength = _fundingStorage.getTimelineLength(_projectId);\n\n        for (uint i = 0; i < timelineLength; i++) {\n            ProjectStorageAccess.Milestone memory milestone = _fundingStorage.getTimelineMilestone(_projectId, i);\n            _fundingStorage.setTimelineHistoryMilestone(_projectId, historyLength, i, milestone.title, milestone.description, milestone.percentage, milestone.isComplete);\n        }\n\n        _fundingStorage.setTimelineHistoryLength(_projectId, historyLength + 1);\n        _fundingStorage.setTimelineHistoryMilestonesLength(_projectId, historyLength, timelineLength);\n        _fundingStorage.setTimelineLength(_projectId, 0);\n    }\n\n    function movePendingMilestonesIntoTimeline(address _fundingStorage, uint _projectId) external {\n        uint pendingTimelineLength = _fundingStorage.getPendingTimelineLength(_projectId);\n\n        for (uint j = 0; j < pendingTimelineLength; j++) {\n            ProjectStorageAccess.Milestone memory pendingMilestone = _fundingStorage.getPendingTimelineMilestone(_projectId, j);\n            _fundingStorage.setTimelineMilestone(_projectId, j, pendingMilestone.title, pendingMilestone.description, pendingMilestone.percentage, pendingMilestone.isComplete);\n        }\n\n        _fundingStorage.setTimelineLength(_projectId, pendingTimelineLength);\n        _fundingStorage.setPendingTimelineLength(_projectId, 0);\n    }\n\n    function moveCompletedMilestonesIntoPendingTimeline(address _fundingStorage, uint _projectId) external {\n        uint completedMilestonesLength = _fundingStorage.getCompletedMilestonesLength(_projectId);\n\n        // Add the completed milestones to the start of the pending timeline\n        for (uint i = 0; i < completedMilestonesLength; i++) {\n            ProjectStorageAccess.Milestone memory completedMilestone = _fundingStorage.getCompletedMilestone(_projectId, i);\n            _fundingStorage.setPendingTimelineMilestone(_projectId, i, completedMilestone.title, completedMilestone.description, completedMilestone.percentage, completedMilestone.isComplete);\n        }\n\n        _fundingStorage.setPendingTimelineLength(_projectId, completedMilestonesLength);\n    }\n\n    function verifyPendingMilestones(address _fundingStorage, uint _projectId) external view {\n        // Verify:\n        // - Milestones are present\n        // - Milestone percentages add up to 100\n\n        uint timelineLength = _fundingStorage.getPendingTimelineLength(_projectId);\n\n        require(timelineLength > 0, \"Project has no pending milestones.\");\n\n        uint percentageAcc = 0;\n        for (uint i = 0; i < timelineLength; i++) {\n            uint percentage = _fundingStorage.getPendingTimelineMilestonePercentage(_projectId, i);\n            percentageAcc = percentageAcc + percentage;\n        }\n\n        require(percentageAcc == 100, \"Milestone percentages must add to 100.\");\n    }\n}\n",
  "sourcePath": "/home/jordan/Projects/hyperbridge/funding-protocol/smart-contracts/ethereum/contracts/libraries/ProjectTimelineHelpersLibrary.sol",
  "compiler": {
    "name": "solc",
    "version": "0.4.24+commit.e67f0147.Emscripten.clang"
  },
  "schemaVersion": "2.0.1",
  "updatedAt": "2018-07-26T16:56:23.257Z"
}